S02B0000433A5C55736572735C6E786637323439335C446F63756D656E74735C4D43555870726573736F494468
S315200020000064212001240020B524002089E8002036
S31520002010B1240020B1240020B12400205C680120D6
S31520002020000000000000000000000000BD24002089
S31520002030B124002000000000C1240020C524002077
S31520002040CD240020D1240020D5240020D92400200E
S31520002050DD240020E1240020E5240020E9240020BE
S31520002060ED240020F1240020F5240020F92400206E
S31520002070FD2400200125002005250020092500201B
S315200020800D250020B1240020B1240020B1240020F9
S3152000209011F1002015250020192500201D250020DE
S315200020A02125002025250020292500202D2500205A
S315200020B03125002035250020392500203D2500200A
S315200020C04125002045250020492500204D250020BA
S315200020D05125002055250020B1240020B1240020C0
S315200020E0B1240020B1240020B1240020B1240020F6
S315200020F0B1240020B1240020B1240020B1240020E6
S31520002100B1240020B1240020B1240020B1240020D5
S31520002110B1240020B1240020B1240020B1240020C5
S31520002120592500205D2500206125002065250020F9
S3152000213069250020B1240020B1240020B1240020EC
S31520002140B1240020B1240020B1240020B124002095
S31520002150B1240020B1240020B1240020B124002085
S31520002160B1240020B1240020B1240020B124002075
S31520002170B1240020B1240020B1240020B124002065
S31520002180ED110120B1240020B1240020B12400202B
S31520002190B1240020B1240020B1240020B124002045
S315200021A0B1240020B12400206D25002071250020B7
S315200021B0B1240020B1240020B1240020B124002025
S315200021C0B1240020B1240020B1240020B124002015
S315200021D0B1240020B1240020B1240020B124002005
S315200021E0B1240020B1240020B12400207525002030
S315200021F079250020B12400207D250020812500207E
S31520002200B1240020C9F4002085250020892500203E
S31520002210B1240020B1240020B1240020B1240020C4
S31520002220B1240020B1240020B1240020B1240020B4
S31520002230B1240020B1240020B1240020B1240020A4
S31520002240B1240020B1240020B1240020B124002094
S31520002250B1240020B1240020B1240020B124002084
S31520002260B1240020B1240020B1240020B124002074
S31520002270B1240020B1240020B1240020B124002064
S31520002280B1240020B1240020B1240020B124002054
S31520002290B1240020B1240020B1240020B124002044
S315200022A08D2500209125002095250020B124002091
S315200022B0B1240020B1240020B1240020C92400200C
S315200022C0B1240020B1240020B1240020B124002014
S315200022D0B1240020B1240020B1240020B124002004
S315200022E0B1240020B1240020B1240020B1240020F4
S315200022F0B1240020B1240020B1240020B1240020E4
S31520002300B1240020B1240020B1240020B1240020D3
S31520002310B1240020B1240020B1240020B1240020C3
S31520002320B1240020B1240020B1240020B1240020B3
S31520002330B1240020B1240020B1240020B1240020A3
S31520002340B1240020B1240020B1240020B124002093
S31520002350B1240020B1240020B1240020B124002083
S31520002360B1240020B1240020B1240020B124002073
S31520002370B1240020B1240020B1240020B124002063
S31520002380B1240020B1240020B1240020B124002053
S31520002390B1240020B1240020B1240020B124002043
S315200023A0B1240020B1240020B1240020B124002033
S315200023B0B1240020B1240020B1240020B124002023
S315200023C0B1240020B1240020B1240020B124002013
S315200023D0B1240020B1240020B1240020B124002003
S315200023E0B1240020B1240020B1240020B1240020F3
S315200023F0B1240020B1240020B1240020FFFFFFFFDC
S3152000240072B61248124988604FF000024FF000035E
S315200024104FF000044FF000054FF000064FF0000784
S31520002420B846B946BA46BB46BC460A4885460A4817
S3152000243080470A4880470A48804762B64FF0000026
S315200024404FF00001074A9047FEE7000000200020D9
S3152000245000ED00E000642120CD0301200D3700208F
S315200024607937002071EA002072B60A480A490160CD
S315200024700A6882F30888094880470949094A0A4BAD
S315200024809A42BEBF51F8040B42F8040BF8E762B635
S315200024900648804708ED00E000200020CD030120FB
S315200024A0C86A012000802020C087202071EA0020F1
S315200024B0FFF7FEBF384800473848004738480047EE
S315200024C038480047384800473848004738480047CA
S315200024D038480047384800473848004738480047BA
S315200024E038480047384800473848004738480047AA
S315200024F0384800473848004738480047384800479A
S315200025003848004738480047384800473848004789
S315200025103848004738480047384800473848004779
S315200025203848004738480047384800473848004769
S315200025303848004738480047384800473848004759
S315200025403848004738480047384800473848004749
S315200025503848004738480047384800473848004739
S315200025603848004738480047384800473848004729
S315200025703848004738480047384800473848004719
S315200025803848004738480047384800473848004709
S315200025903848004738480047B524002089E80020FD
S315200025A0BD240020C1240020C5240020C9240020E9
S315200025B0B1240020B1240020B1240020B124002021
S315200025C0B1240020B1240020B1240020B124002011
S315200025D0B1240020B1240020B1240020B124002001
S315200025E0B1240020B1240020B1240020B1240020F1
S315200025F0B1240020A1020120C1020120E102012014
S315200026000103012021030120410301206103012050
S3152000261081030120B1240020B1240020B124002010
S31520002620B12400203100012045000120590001205D
S31520002630B1240020B1240020B1240020B1240020A0
S31520002640B1240020B1240020B1240020B124002090
S31520002650B1240020B1240020B1240020B124002080
S31520002660C57F0020DD7F0020B1240020B12400207A
S31520002670B1240020B1240020B1240020002A01D159
S3152000268001207047F0B41F46034603242340002B45
S3152000269009D00424E31A017001300824E141013AEB
S315200026A026D0013BF7D1042A1ADB13D0002F11D0F4
S315200026B00C460D460E46102A02DB72C0103AFAE787
S315200026C00C2A02DB32C00C3AFAE7082A02DB12C0D7
S315200026D0083AFAE7042A03DB01600430043AF9E7F2
S315200026E0002A05D0017001300824E141013AF7D1D2
S315200026F0F0BC00207047C04653B94AB9002908BF2C
S3152000270000281CBF4FF0FF314FF0FF3000F074B9A6
S31520002710ADF1080C6DE904CE00F006F8DDF804E012
S31520002720DDE9022304B070472DE9F047089D0446F1
S315200027308E46002B4DD18A42944669D9B2FA82F24E
S3152000274052B101FA02F3C2F1200120FA01F10CFA8A
S3152000275002FC41EA030E94404FEA1C48210CBEFBC2
S31520002760F8F61FFA8CF708FB16E341EA034306FB4B
S3152000277007F199420AD91CEB030306F1FF3080F0DA
S315200027801F81994240F21C81023E63445B1AA4B227
S31520002790B3FBF8F008FB103344EA034400FB07F7C9
S315200027A0A7420AD91CEB040400F1FF3380F00A810A
S315200027B0A74240F207816444023840EA0640E41BFF
S315200027C000261DB1D4400023C5E900433146BDE8AB
S315200027D0F0878B4209D9002D00F0EF800026C5E94D
S315200027E0000130463146BDE8F087B3FA83F6002E65
S315200027F04AD18B4202D3824200F2F980841A61EBDD
S31520002800030301209E46002DE0D0C5E9004EDDE7FA
S3152000281002B9FFDEB2FA82F2002A40F09280A1EBE2
S315200028200C014FEA1C471FFA8CFE0126200CB1FB37
S31520002830F7F307FB131140EA01410EFB03F0884230
S3152000284008D91CEB010103F1FF3802D2884200F2BD
S31520002850CB804346091AA4B2B1FBF7F007FB10114F
S3152000286044EA01440EFB00FEA64508D91CEB0404ED
S3152000287000F1FF3102D2A64500F2BB800846A4EB48
S315200028800E0440EA03409CE7C6F12007B34022FA33
S3152000289007FC4CEA030C20FA07F401FA06F31C4362
S315200028A0F9404FEA1C4900FA06F3B1FBF9F8200C6F
S315200028B01FFA8CFE09FB181140EA014108FB0EF0B5
S315200028C0884202FA06F20BD91CEB010108F1FF3A05
S315200028D080F08880884240F28580A8F10208614411
S315200028E0091AA4B2B1FBF9F009FB101144EA01411F
S315200028F000FB0EFE8E4508D91CEB010100F1FF34CA
S315200029006CD28E456AD90238614440EA0840A0FB61
S315200029100294A1EB0E01A142C846A64656D353D037
S315200029205DB1B3EB080261EB0E0101FA07F722FA5B
S3152000293006F3F1401F43C5E9007100263146BDE884
S31520002940F087C2F12003D8400CFA02FC21FA03F3E7
S31520002950914001434FEA1C471FFA8CFEB3FBF7F068
S3152000296007FB10360B0C43EA064300FB0EF69E428D
S3152000297004FA02F408D91CEB030300F1FF382FD226
S315200029809E422DD9023863449B1B89B2B3FBF7F6CE
S3152000299007FB163341EA034106FB0EF38B4208D9A7
S315200029A01CEB010106F1FF3816D28B4214D9023EE8
S315200029B06144C91A46EA004638E72E46284605E706
S315200029C00646E3E61846F8E64B45A9D2B9EB0208D7
S315200029D064EB0C0E0138A3E74646EAE7204694E767
S315200029E04046D1E7D0467BE7023B614432E730469A
S315200029F009E76444023842E7704700BF0000000040
S31520002A002DE9F0410026DFF8788013F0B2F904466C
S31520002A10454611203146184FE4FB005114A3D3E953
S31520002A2000232846FFF768FE42F2107C431E45002D
S31520002A30314612483B60E4FB0C010DA3D3E9002389
S31520002A40FFF75AFE0138314628447860252008A32E
S31520002A50D3E90023E4FB00814046FFF74DFE013811
S31520002A6005443046BD60BDE8F08100BFAFF300806D
S31520002A7000CA9A3B00000000082E21200065CD1DCB
S31520002A8000CA9A3B000000002DE9F04F0F46016E68
S31520002A9016463B4AC1F3C26185B0032E0546515CFA
S31520002AA0B3FBF1F24FF00003019244D101242EA191
S31520002AB0D1E90001FFF720FE019A804689460023CE
S31520002AC02BA1D1E90001FFF717FE8346B845019AED
S31520002AD079F100033FD22B4B0134FF214FF0FF3910
S31520002AE0A4FB034A4FF000080191029300232046DD
S31520002AF051460392FFF700FEB842039A71F1000394
S31520002B0006D3C31B994582BF99468346CDF80480D8
S31520002B1008F10108B8F5807F06D0029BE4184AF137
S31520002B20000AB9F1000FE1D128463246019913F087
S31520002B3081F8584615E010A1D1E90001FFF7DCFD28
S31520002B40019A8046894600230F483B210024FFF73F
S31520002B50D3FD8346BAE728463246002113F06AF8A9
S31520002B60404605B0BDE8F08F0094357700000000A0
S31520002B7000CA64D63B00000000CA9A3B0000000051
S31520002B80A76A012000CA9A3B0000CA9A2DE9F04F95
S31520002B900D4689B01F46CB094900044603930023FE
S31520002BA001F01E010592079341EAD51A002800F08C
S31520002BB0FA8083684FEA8A1803EB8A1393F8386001
S31520002BC016F0010600F0F18090F89630A3B907F5CB
S31520002BD07F5307A83F33B3F5804F2CBF4FEA933975
S31520002BE04FF0010913F0B9F894F894C0CC4507D2F8
S31520002BF00226079813F0B6F8304609B0BDE8F08FE4
S31520002C004FF00009D4F810E004EB8A01CB46DEF839
S31520002C100020B7F5804F02983B460192724628BFA6
S31520002C204FF480430497BBF1000F08BF1046DDF830
S31520002C3004E00CF1FF3CFF1A02904FF001005FFA0E
S31520002C408CFC10604FF0000050600598584490604E
S31520002C50906800F5805020F47F6020F00F00D0604F
S31520002C60D06800F580501061106900F580505061E1
S31520002C70506900F580509061506863F31E405060A3
S31520002C80D069D2F808A063F31E30CAF30B0AD061CC
S31520002C9020F0004020F47F6020F00F0040EA0A0078
S31520002CA0D06103D1506840F40040506050684FF026
S31520002CB0800A9B446AF307005060486D00283BD089
S31520002CC002604A65002FA2D1019A84F894C022613D
S31520002CD015F00F021CD10399D1B1A16801EB0800B0
S31520002CE090F83800800713D5049888B1C88E98428A
S31520002CF00ED951F80800C0F30A40B3FBF0FC00FBE4
S31520002D001C332BB951F8083067F35D7341F808304E
S31520002D10ED08012305F01005154303FA05F5B9F171
S31520002D20000F21D16368D3F8B0212A4208D0079832
S31520002D30002613F017F85FE7B1464A614A65C1E7F6
S31520002D40D3F8402142F48042C3F84021D3F8B81189
S31520002D50D3F840215204F3D5D3F840210D4222F472
S31520002D608042C3F84021E2D1A3689844029BC8F868
S31520002D7008300023C8F80C30BFF34F8F0C4A636825
S31520002D80C3F8B051D3F8B8112942D0D1013A03D1B2
S31520002D90079812F0E7FF2FE7D3F8BC112942C6D1D6
S31520002DA0C3F8B051EEE7032626E7012624E700BF45
S31520002DB0809698002DE9FF4702EB4109002641EA5B
S31520002DC0C211054600EB8908DFF8B4A04FEA89193D
S31520002DD0D8F81440CFB224F01F04CDE9016614B907
S31520002DE004B0BDE8F087019B3BB9A368A28B03EA38
S31520002DF00A03C2F30B021343019363681A0638D4FD
S31520002E00E2696168C2F31233029AC1F30E415B1A7A
S31520002E101344D8F854200293D8F8143093422BD177
S31520002E20C8F814600122C8F85460AB684B449A6015
S31520002E30DE6063681B0404D4D8F8143033F01F0313
S31520002E4009D101A928688DF80C708DF80D600FF056
S31520002E5095FBCDE901662B696660236095F8943071
S31520002E602C61013385F89430D8F8144024F01F04DF
S31520002E70B5E74FF0FF33CCE71B68C8F81430D8E726
S31520002E8000F0FFFF0228F8B5164643D1244A1478ED
S31520002E901CB15378002B3FD101240120214D23461C
S31520002EA010559C20204A05EB442500FB0420C560D4
S31520002EB01E4D05EBC4241E4D84600224456080F817
S31520002EC09740D5F840012043C5F84001D5F8404148
S31520002ED014F00204FAD19C20D5F82471434307F05C
S31520002EE01F0C17F0180F02EB030080F895C015D0C1
S31520002EF0D150D5F8A83123F00303C5F8A831D5F869
S31520002F00A83143F00203C5F8A8310EF0E1FC306089
S31520002F102046F8BD0620FCE70320FAE70120F8E763
S31520002F20C83F212000982020D89D202000882020DE
S31520002F3000002E40E8B1104B984213D10F4B0022CF
S31520002F401A7043680020C3F84801D3F8402122F0C4
S31520002F500102C3F84021D3F8402142F00202C3F80F
S31520002F60402170479C33984202BF044B00225A707E
S31520002F70E7E70320704700BFD89D2020C83F2120C7
S31520002F802DE9F04F4FEAD10801F00F034C0085B030
S31520002F9008F01008002604F01E040F4648EA030332
S31520002FA04FF0010844EAD114054608FA03F80096C2
S31520002FB0002800F08780684612F0CFFE4FF0FF33DE
S31520002FC00FFA84FE019605EB84040293626922F0CF
S31520002FD01F0213469BB99B461E46DFF8EC909C4683
S31520002FE0AAB9BBF1000F00D00193AB6803EB8E1E8C
S31520002FF00123CEF808300023CEF80C3051E0D97FDB
S3152000300041F08001D9771B6823F01F03E2E792F98C
S315200030101F00002841DA5068000627D443B991687A
S315200030204FF0010B938B01EA0901C3F30B030B430A
S315200030306069616D88422BD1C4F814C0C4F854C0AD
S315200030405068010427D4606930F01F0108BF0126AB
S315200030502869C2F804C010602A6195F894200132CC
S3152000306085F89420626922F01F02B9E76868D0F8D3
S31520003070B4A14AEA080AC0F8B4A1D0F8B4A11AEA61
S31520003080080FFAD1D0F8B8A11AEA080FEFD1C5E790
S3152000309000686061D4E70126DAE7BBF1000F00D0B3
S315200030A00193009812F05EFE46B1002601A9286819
S315200030B08DF80C708DF80D600FF060FA304605B073
S315200030C0BDE8F08F0326F9E700F0FFFF4B682DE9F6
S315200030D0F04101338AB04FF0000406460F46904671
S315200030E08DF80F40CDE9044400F0D7801AB90520A9
S315200030F00AB0BDE8F081956806210DF10F020FF0A8
S3152000310013FB397A002900F08B807B68082BEED1DF
S315200031103A68002AEBD053886B809388AB80D3889B
S31520003120EB8050786870127812F01C0F2A7004D049
S31520003130214630460FF0DAFAD9E712F060011CD1A9
S315200031400C280FD90520059B1BB1049B002B08BF1B
S31520003150052005AB024629463046009304AB0FF006
S315200031606BF9C5E74E4B53F82040002CEAD005AB4F
S3152000317004AA29464046A047E5E7002B2FD0120691
S315200031802DD420291CD100220121304606950792F4
S3152000319006AA8DF8241008930FF0F1FC089B0593DE
S315200031A0079B04930028CDD1EB880021059A304651
S315200031B0934238BF0593DDE904230FF055FA97E7CC
S315200031C04029BFD1002213213046069507920122BD
S315200031D008938DF8242006AA0FF000FDDEE72029AB
S315200031E00FD10022012130460695079206AA8DF8B6
S315200031F0241008930FF0C3FC089B0593079B0493A8
S31520003200A1E740299ED10022132130460695079238
S31520003210012208938DF8242006AA0FF0DFFCEBE7A5
S315200032209DF80F30032B0AD16B78052B7FF45FAF07
S3152000323005AB04AA294640460FF077F858E77A6886
S31520003240002A3FF454AFEB88002B3FF450AF95F99A
S3152000325000002B780028FFF64AAF03F06003202BEE
S315200032600BD13B6830468DF824100121089206AA1E
S31520003270079306950FF083FC6BE7402B0BD13B6839
S3152000328030468DF824101321089206AA0793069536
S315200032900FF0A4FC5DE705205BE7204628E700BF8A
S315200032A01860012070B5124B86B08026054603AA09
S315200032B0ADF80660CDE90331402301A9ADF804300D
S315200032C00123ADF808300FF0D3F9044660B98DF824
S315200032D0060003AA01A928460FF0CAF9044618B128
S315200032E0314628460FF0E3F9204606B070BD00BFF0
S315200032F0CD3000202DE9F347064689469046002A20
S315200033006BD00023394F01A8019312F026FDBD682A
S315200033101DB197F8D530B34207D0D7F8E0300198E1
S315200033205BB197F8AD31B34259D10126019812F01D
S3152000333019FD304602B0BDE8F087003D18BF0125D3
S315200033404FF0D80A0AFB05FA07EB0A0484F8D56081
S3152000335012F008FD0023C4F810902246994684F8FE
S31520003360D56084F8D43084F8D730013382F81C90A5
S31520003370102BC2E9059902F10C02F6D1B31E012BDE
S3152000338010D901A8CDF8049012F0E7FCD8220198B4
S31520003390062602FB0575C5F8089085F8D59012F02B
S315200033A0E1FCC6E7124B0AF1080230462146E360EB
S315200033B0D823C8F800403A4403FB0575EB681B6820
S315200033C09847064628B120460FF02EF9C8F80090F7
S315200033D0AFE7022385F8D630ABE70326A9E7002D11
S315200033E0AED0022612F0BEFCA3E700BF009C202030
S315200033F04C6001202DE9F043037F87B004461BB9BA
S31520003400012007B0BDE8F08342689268517999425D
S31520003410F6D31268002AF3D003F100530C27013BA0
S3152000342002EBC30612F8335000239D42E8D907FB6E
S3152000343003F270688118825C032A49D10D7A002331
S315200034409D423BD80026CB786377002ED8D0002526
S315200034500120DFF880802F46DFF87C90A660337944
S31520003460AB42CED90623B1688DF808706B4301357F
S31520003470CA1810798DF80900CB5C20688DF80630C3
S31520003480DB0951886FF00103ADF8041001A95278C9
S3152000349018BFE3608DF8072003AA19BF84F82370AC
S315200034A02761636184F824700ABFA761CDF80C9068
S315200034B0CDF80C8004940FF0DBF8D0E71A014868A9
S315200034C000EB0316805CA27F9042BCD00133B7E7A5
S315200034D00133AAE7ED270120CD27012070B50A4C3C
S315200034E00E46154623685BB9214600F077F830B9B9
S315200034F023683BB1FF2366602077A3772C6070BDDD
S315200035000220FCE70320FAE7109F202073B5002451
S31520003510054601A80E46019412F01FFC0A4B1A68B4
S31520003520954209D01A690198954204D012F01AFCE6
S31520003530042002B070BD012403EB0413019833600C
S3152000354012F010FC0020F4E7389F202073B50024E9
S31520003550054601A80E46019412F0FFFB0C4B1A6893
S3152000356012B19A7BAA420BD01A6912B19A7FAA424B
S3152000357005D0019812F0F6FB042002B070BD01249C
S3152000358003EB04130198336012F0ECFB0020F4E700
S31520003590389F202037B50024054601A8019412F053
S315200035A0DCFB0D4A136813B1937BAB4209D0136938
S315200035B013B1937FAB420DD0019812F0D3FB03B029
S315200035C030BD23460021180102EB03131150596028
S315200035D09973F1E70123F5E7389F2020002337B5BB
S315200035E0044601A801930D4612F0B7FB0B4A136857
S315200035F013B1917BA1420AD0136913B1927FA242E3
S3152000360005D0019812F0AEFB042003B030BD01981E
S315200036102B6012F0A7FB0020F7E700BF389F202081
S315200036202DE9F34705460C469046002A60D000292E
S315200036305ED04B68002B5BD00023314F01A801934D
S3152000364012F08BFB3B6813B1BA7BAA4205D03A69CC
S31520003650019852B1BA7FAA424CD10124019812F0A6
S3152000366081FB204602B0BDE8F087003B18BF01234E
S31520003670244A07EB03164FEA031902EBC303B5737B
S31520003680B36012F06FFB746032461F492846FFF77D
S3152000369031FE044638B157F809000EF0C5FF28461A
S315200036A0FFF778FFDDE782464FF00C0973685FFA73
S315200036B08AF11A7A8A4217D909FB01F7196839441F
S315200036C08B681B79012B03D10A1D2846FFF706FFBD
S315200036D07368196839448B681B7913B90A1D284603
S315200036E098470AF1010AE1E73368C8F80030B8E7DD
S315200036F00424B6E7002BBBD0022412F033FBB0E73C
S31520003700389F2020589F2020DD2B0120114B124A64
S3152000371012499A60124B994209D1124A0021124B42
S315200037209B1A73B91149124A521A72B97047114A33
S31520003730D21A002AF1D013F8010B013A01F8010B35
S31520003740F7E7013B02F8011BEBE7013A01F8013BE1
S31520003750EBE700BF00ED00E00020002000802020E5
S31520003760C86A0120008820202442212000442120EC
S315200037700044212088720120114B4FF0FF32C3F8FC
S315200037808020C3F88420C3F88820C3F88C20C3F88F
S315200037909020C3F89420C3F89820C3F89C20C3F83F
S315200037A08021C3F88421C3F88821C3F88C21C3F86B
S315200037B09021C3F89421C3F89821C3F89C2170471F
S315200037C000E100E038B5084D0446284612F0C5FA57
S315200037D0236801332360286812F0C4FA2368002B7B
S315200037E0FCD1012038BD00BF689F202038B5064D8A
S315200037F00446284612F0B1FA2368013B2360286864
S31520003800BDE8384012F0AEBA689F2020014812F079
S31520003810A4BA00BF689F2020014B186812F0A2BAF4
S31520003820689F2020013910B507292FD8DFE801F03D
S3152000383004162E22222E22145368013B03330BD862
S31520003840134B18688369002B06DD90F81A34012B78
S3152000385002D11830FFF7CAFF002018E053685A1E1D
S315200038600332F9D80A4A1068C3610123143000F8DC
S31520003870083CEFE7064C0021206814300FF007FAC9
S315200038802068002118300FF002FAE5E7052010BD68
S315200038906C9F2020012938B50C460FD1084D4FF4D6
S315200038A07E73286880F81A1400F1200202218068AD
S315200038B00FF04AF92B6883F81B4438BD0020FCE73B
S315200038C06C9F202059B9074B022118684FF47E734C
S315200038D080F81C2400F1200280680FF035B9002002
S315200038E0704700BF6C9F2020014B18600020704756
S315200038F06C9F2020024B1860002383601846704777
S315200039006C9F2020087A20B9034B0B604C234B6018
S3152000391070470520704700BFBB862020024B002041
S315200039200B6012234B607047A9862020087A20B9A5
S31520003930034B0B6029234B6070470520704700BF5F
S3152000394080862020887A0E4B10B520B91A685B68CD
S315200039500A604B6010BD9B680C891A8994420CD171
S3152000396003280AD81A6800B25B6852F8202053F858
S31520003970203000200A604B60ECE70520EAE700BF14
S31520003980448020200229174B1748184930B516D1F4
S315200039900322F82483F82020DC7783F8212083F87B
S315200039A0272083F8264083F828204FF47E7343800F
S315200039B003814FF400734B800B81002030BD4022E1
S315200039C00025012483F82050DA7783F8214083F8F4
S315200039D0275083F8262083F82840428002814A8097
S315200039E00A81EAE7808620206886202074862020A7
S315200039F0014B036000207047FD390020436A5A8935
S31520003A0059688282DA68023A4260064A914206D1B1
S31520003A101B7A012B03D8044B03600020704742F227
S31520003A207570704753544D509D2C01207FB5B0F8CA
S31520003A305A200446144E1301316803F470638D68CE
S31520003A4043EA1223426AD0E91701A8470546B8B9C6
S31520003A5033681B699847054690B904F11C0010226B
S31520003A60616A01900AF01CFB03A901980AF02EFB5B
S31520003A70039B626E9A420ABF044B42F27A75236018
S31520003A80284604B070BD00BF54852020312D01206A
S31520003A90F7B500F11C060446416A102230461A4F3B
S31520003AA00AF0FEFAB4F85A2039681301E06D8D68E1
S31520003AB0102103F4706343EA1223626AA84705467D
S31520003AC048B9E36D1033E365236E103B102B236654
S31520003AD004D90E4B2360284603B0F0BD0BB10C4B26
S31520003AE0F8E73B681B69984705460028F3D101A9EA
S31520003AF030460AF0EBFA626E019B9A4201D1054BE1
S31520003B00E8E742F27A75E6E754852020913A0020CC
S31520003B102D3A0020312D0120D0E90132934208D9D7
S31520003B209B1A82664360044B036001238360002056
S31520003B30704742F278707047312D012010B5044647
S31520003B401C3011F064FF044A216E0020034B10291B
S31520003B5098BF1346236010BD2D3A0020913A0020CD
S31520003B60034B1B68D0E91812DB68C06D184700BFED
S31520003B7054852020B0F85A301A0113F0010F02F4B0
S31520003B80706242EA132214BF08230423042A05D1B3
S31520003B9000F16002C16D024807F046BF042070475D
S31520003BA000401F40B0F85A309A070ED41A0102F48A
S31520003BB0706242EA1322DB0715D5B2F5807F10D05A
S31520003BC005DC082A0BD0092A07D00420704740F2CA
S31520003BD001139A42F9D103F061BF00F00BBF02F046
S31520003BE0C9BE02F0EDBB034B1B68D0E917019B69E8
S31520003BF0184700BF5485202013B50446B0F85A0054
S31520003C00030103F4706343EA1020092805D1E06D0F
S31520003C1002B0BDE810400FF049B9082805D1E06D83
S31520003C2002B0BDE8104002F00FBD030A012B0FD1F0
S31520003C3001A900F0BFFF48B9064B1421019A9B68E1
S31520003C40E06D01FB02331B691B69984702B010BD6A
S31520003C500420FBE75485202010B5054C7022002156
S31520003C60204612F0F9F8034B0020236010BD00BF58
S31520003C70889F2020F139002009480A4BC2684362F8
S31520003C8032B103699A4208D00133036103681847A9
S31520003C90836E002BFAD0013B83660020704700BF5D
S31520003CA0889F2020749F20202DE9F041002407467C
S31520003CB00E46104DA046B44201D1002009E02B69E2
S31520003CC0C3F110032344A3420CD0A64203D142F2EF
S31520003CD07D70BDE8F0812A69511C2961395D013466
S31520003CE0A954F0E7C5F81080FFF7C6FF0028E2D0F8
S31520003CF0EFE700BF749F20202DE9F041DFF8948084
S31520003D00D8F800301B699847044618BB1E4D95F815
S31520003D105960042E21D1EF6D38460AF079FEB8B1EC
S31520003D2020460BF04DF9B5F85A309B070ED52B6E71
S31520003D3063B1D8F8042011688B4220D3526801322F
S31520003D4093421CD883F3088883F30988686EB847A2
S31520003D5042F27E742046BDE8F081082E11D1022061
S31520003D600BF02EF9BFF34F8F0849094BCA6802F4AE
S31520003D70E0621343CB60BFF34F8F00BFFDE73446AD
S31520003D80E8E742F27B74E5E7889F202000ED00E01B
S31520003D900400FA055485202038B50B4BDB681D69D5
S31520003DA005F18004204612F025F820B9D5F88020A8
S31520003DB0064B9A4204D03422FF21204612F04CF8BA
S31520003DC011F0FCFF002038BD548520206B63666708
S31520003DD038B5FFF7E1FF2049204A0120CB68204C67
S31520003DE01B694D69DFF894C0C3E911021D4A1A67A1
S31520003DF01D4A5A671D4A9A671D4ADA671D4AC3E952
S31520003E0000420022C3E902C255F82200D0B91A4A5C
S31520003E10D2F81044DC64D2F820241A654A68516826
S31520003E20146801319C62091B546959639169DC62EB
S31520003E300131091B9963916AD26A19630132521AB8
S31520003E40DA6338BD93F89040063204421EBFDC6820
S31520003E502043D860D8E700BF54852020DF6F0500B7
S31520003E600008024B002000208872012000802020BC
S31520003E70FF6321200002015000401F400000015432
S31520003E802DE9F043884689B01B4E74681CB904207E
S31520003E9009B0BDE8F0833368834220D00836F4E7C2
S31520003EA0012502AF0294A946736801A92846019408
S31520003EB0984790B9019B7B606B1E09FA03F2029B1F
S31520003EC01343029301350437062DEDD1182202A99A
S31520003ED0404611F0B3FF0020DAE77C60F2E71822B3
S31520003EE0002102A811F0B8FF69460020A047009CD7
S31520003EF0002CD5D02046CBE7F0670120F8B51F4629
S31520003F002B4B16460138DA680D461469182849D80D
S31520003F10DFE800F00E0D484848481E484820222970
S31520003F2048101846313848484848483B3D000C342C
S31520003F3004211AE0022901D92834F9E70A3504EBCD
S31520003F408504F5E7022901D93434F1E70D35F6E782
S31520003F504834EDE74434EBE7D869164C43695B698E
S31520003F6098472060E4E77034102107B13960E6B144
S31520003F7000203460F8BD0DF0E9F800380D4C18BF6C
S31520003F800120EEE74C340821EFE70834D0E7B434BB
S31520003F9028462146FFF774FF0028EBD11821E4E7D5
S31520003FA0054CC5E742F63C00E4E73046E2E700BFB1
S31520003FB054852020C8A0202088802020074BD3F8B5
S31520003FC04824511C1A44C3F8481482F80002D3F836
S31520003FD0482402F03F02C3F848247047CCA0202092
S31520003FE0034B012283F85224002283F85024704781
S31520003FF0CCA02020054B0A46DB69196910B44C6811
S315200040000146184623465DF8044B18475485202060
S315200040102DE9F04F89B004460D46164607F0DAFE24
S31520004020CDE90401BFF36F8F4FF47A70704307F028
S31520004030DFFE83468A46DDE90423CDE9062363199C
S31520004040224D0393039B9C4203D1002009B0BDE877
S31520004050F08F07F0BFFECDE90601DDE90601DDE9B7
S315200040600423DDE90689DDE90467CDE90023B045AF
S3152000407079EB070320D3009BC21A019B61EB030354
S315200040805BEA0A0103D05A4573EB0A031CD2D5F822
S315200040904C34D5F848249342D4D05A1C2B4493F858
S315200040A00032C5F84C2404F8013BD5F84C3403F013
S315200040B03F03C5F84C34C5E7DDE90601DDE90467B1
S315200040C0821B61EB0703DBE70520BFE7CCA020209E
S315200040D05A2307B501228DF804300221054B8DF8AD
S315200040E0050001A883F85124FFF784FF03B05DF88B
S315200040F004FB00BFCCA02020084B93F850242AB103
S315200041000022A12083F85024FFF7E2BF93F852043F
S3152000411018B1A32083F85224F6E77047CCA02020BC
S315200041202DE9F341164698460F46002951D0B2F59F
S31520004130007F4ED8FFF7E0FF044600283ED1264DEB
S3152000414095F851340BB185F851045A2385F840323D
S31520004150B8F1000F36D1A42385F84132A5F8426282
S3152000416026B1324639461D4811F068FE1B49881F84
S315200041700EF044FEB11DA5F844021948FFF73AFF98
S315200041800446D8B9164E01A80EF052FE0446A8B928
S315200041909DF8053003F15F02D2B2022A19D8A32B6B
S315200041A012D0A22B0AD1B5F8421230460631FFF7BB
S315200041B021FF60B99DF80530A22BE4D0204602B03D
S315200041C0BDE8F081A523C7E742F21274F6E704465C
S315200041D0F4E70424F2E700BFCCA0202012A320207D
S315200041E00CA320200F4B93F8502413B504462AB174
S315200041F093F8512412B193F852347BB94AF25A7388
S31520004200022201A92046ADF8043023695B6898474D
S315200042102369082204495B682046984742F21370B6
S3152000422002B010BDCCA02020946001202DE9F043DF
S31520004230154685B01F460E46002974D0002A72D036
S3152000424000233A4C136084F85134FFF755FF81461A
S31520004250E8B9002FDFF8D88014BFA527A4274FF48C
S3152000426000720021204611F0F7FD02A80EF0E0FDB5
S31520004270814648B99DF80930A62B0CD1D8F81C00E8
S31520004280FFF7B0FF00283AD0002381462B6048462E
S3152000429005B0BDE8F083BB422FD1ADF8040014224F
S315200042A0022101A8FFF7B4FEBDF804300028EBD1A7
S315200042B0B3F5007FADF804004FF014024FF0020171
S315200042C028BF4FF4007301A8ADF80A30FFF7A0FE0F
S315200042D0BDF80430ADF80C300028D5D1BDF80A2041
S315200042E06AB10146204611F0B7FDBDF80A100A2230
S315200042F020464A43FFF78CFEC4E70120C4E7214647
S3152000430002A80EF07BFDBDF80C30834203D0A2201C
S31520004310FFF7DEFEA3E7012384F85034BDF80A3008
S3152000432034602B60B3E74FF00409B0E7CCA020201F
S315200043305485202013B50446019111F051FD221A0F
S315200043400092FFF763FA0CF00BFF0549DDE9002325
S3152000435010F0D3FC0090FFF75FFA009802B010BD72
S3152000436020A5202030B5044685B0154603910CF0D3
S31520004370F7FE039B22460349009510F001FD05B088
S3152000438030BD00BF20A52020094B1B7870B50546FF
S315200043900E46144643B111F023FD3246291A204613
S315200043A0BDE87040FFF7DEBF42F2DD7070BD00BF92
S315200043B020A72020F8B5224B1B78002B3CD0214B80
S315200043C0D3F8C4717B1E7A42194400EA02060C18FF
S315200043D030461440A41B2146FFF7ACFF054648BBD8
S315200043E0394630460AF0B4FD174A5369DB0312D525
S315200043F0002F10DD06F01F013944BFF34F8F3346DF
S315200044003144C2F85C322033C81A0028F9DCBFF3E5
S315200044104F8FBFF36F8F0D4BDB681B695B6C012BD6
S3152000442008D1214630460EF01AFD44F68A6300284C
S3152000443008BF1D462846F8BD42F2DD75FAE700BFE3
S3152000444020A7202020A5202000ED00E05485202054
S31520004450F0B50546ADF2044D0C460F4F1CB90120B0
S315200044600DF2044DF0BDB4F5806F264628BF4FF4FB
S31520004470806611F0B5FC291A68463246FFF772FFAE
S3152000448032463946684611F0C9FC18B9A41B354492
S315200044903744E3E70020E3E730A72020F8B5374C80
S315200044A0A37813B900252846F8BD0023344EA370FF
S315200044B0D6F8C021A368934206D004F11000D21A80
S315200044C0FF21184411F0C8FCD6F8C01160680EF020
S315200044D0C6FC18B942F2DB75A070E4E7D6F8C01125
S315200044E060680AF055FC00283ED16768FFF78EF910
S315200044F00CF036FE054611F073FC224B3A1A204981
S31520004500284610F0D6F90546FFF786F90023A37052
S31520004510A360002DC7D11C494B69DB0314D5D6F8FF
S31520004520C001002810DD636803F01F020244BFF3B8
S315200045304F8F1A44C1F85C322033D01A0028F9DC98
S31520004540BFF34F8FBFF36F8F104BDB681B695B6C1C
S31520004550012BA7D1D6F8C0116068FFF779FF002894
S31520004560A0D144F68A659EE7064AD6F8C01160684F
S315200045700AF08EFC05460028B7D094E720A7202015
S3152000458020A5202030A7202000ED00E05485202003
S315200045902DE9F047214C06460D461746237833B1C0
S315200045A0DFF87C9004F110082DB9284601E042F28C
S315200045B0DD70BDE8F087A37813BBD9F8C031013B85
S315200045C0334027D10122C4E90163A270A06839468D
S315200045D0D9F8C021431993422CBFA2EB000AAA4660
S315200045E040445246564411F029FCA368D9F8C0210C
S315200045F057445344A5EB0A059342A360D4D104E063
S31520004600D4E9012313449E42E0D0FFF747FF002858
S31520004610CAD0CEE744F68960CBE700BF20A720208A
S3152000462020A52020124B1B7873B504460D46019217
S31520004630DBB121F003060644B44206D115F003018E
S315200046400CD1FFF72BFF02B070BD01AA0421204632
S31520004650FFF79EFF0028F6D10434EDE701AA204695
S31520004660FFF796FF0028ECD0EDE742F2DD70EAE78F
S3152000467020A7202010B50C46002931D010282FD88D
S31520004680DFE800F00913162125292E2E2E2E2E2E98
S315200046902E2E2E2E3000184B1A7842F2DD73002A69
S315200046A008BF18462060002010BD11F099FBF9E7DD
S315200046B0124AD2E914310B44916DD26D0B44134446
S315200046C09B0A2360EFE70D4BD3F8C031F9E70B4B7C
S315200046D0D3F8C431F5E7094BD3F8D031002BF0D10C
S315200046E00420E1E7054AD2E914310B44916DD26DDD
S315200046F00B441344E5E700BF20A7202020A5202057
S31520004700C37803F0F002C02AF0B50646ADF5037D66
S315200047102AD10CF025FD3246B14907F035FE044674
S31520004720002864D10023AF4E33700CF019FDAC493C
S3152000473010F0ABF80446002859D10CF011FD10F00A
S3152000474063FD02A91020FFF795FF044600284ED1ED
S31520004750A54D01276F6411F043FBE863029B013BE3
S3152000476018442864377009E00168A04C9D4DA14289
S315200047700FD12B78002B40F08C800424994D6B7838
S31520004780002B40F0E9800AF0DBF980B301236B703F
S315200047902DE0974CA14206D101464FF40072904875
S315200047A011F04CFBBEE7E02A0FD12B780BB904247D
S315200047B01DE011F086F90028F9D030460AF0D8F924
S315200047C00446A0B901236B70D8E7B02A5ED12A78B7
S315200047D0002AECD0C3F3030703F00F03012BE6D81E
S315200047E083B90AF063F8044628B185F81074204688
S315200047F00DF5037DF0BDB368C5F81434012385F8A3
S315200048001034BBE795F81034002BD0D003781B0763
S31520004810CDD10023009311F0E3FA69460646102015
S31520004820FFF728FF04460028E1D16D4B02A901A815
S31520004830D5F81454D3F8C0710AF06AF80446002853
S31520004840D5D1029B009A2B4493421CD835447B1E1B
S315200048502B4215D1394628460EF001FB68B1284671
S31520004860DDE90121FFF794FE04460028BFD1FFF7BA
S3152000487015FE04460028BAD180E742F2DB74B6E77B
S3152000488042F2DE74B3E742F2D874B0E700236B70CD
S315200048908DE7534D284610F03FFC074600284ED0A2
S315200048A04FF40072294602A802AE11F0C7FA2B6C0B
S315200048B023F004032B64D5F8C0315B08C5F8C0315A
S315200048C0D5F8C4315B08C5F8C431D5F8D0315B08BA
S315200048D0C5F8D0310CF044FC29460FF0D6FF00284D
S315200048E066D111F07DFA4FF400710EF0B8FA002867
S315200048F072D095F8CA317BB102AB394900221E46E7
S3152000490048780232023303F8020CB2F5007F11F820
S31520004910020B03F8010CF3D111F062FA32464FF480
S315200049200071FFF735FE044658B111F059FA4FF4DD
S315200049300071FFF7FFFC002F3FF459AF36E02E46FB
S31520004940CFE7FFF7ABFD044670B311F049FAD5F86F
S31520004950C411FFF72FFDEEE7002602AA01A9304673
S31520004960751C0AF045FA28B1022D4FF001063FF4D6
S315200049703EAFF2E711F034FA4FF4007100EB8520D8
S31520004980AE020EF06CFA0028EED011F029FA30446F
S31520004990DDE90121FFF7FCFD00287FF428AFFFF7B2
S315200049A07DFD0028E0D022E7A7B12746AE4205D0FC
S315200049B04FF4007231460A4811F040FA0CF0D0FB51
S315200049C007490FF062FF044600287FF410AF002F3E
S315200049D07FF40DAF0024D1E642F2DB74ABE700BFD3
S315200049E020A5202020A72020F08520200F0000F0E1
S315200049F046434642184B1B7837B54BB311F0F0F9B6
S31520004A0001A905461020FFF735FE0446E8B9FEF752
S31520004A10FDFE0CF0A5FB11490FF0ADFF0446FEF795
S31520004A20FBFE0F4BDB681B695B6C012B05D064B961
S31520004A30019928460AF08CFA07E0019928460EF0DB
S31520004A400EFA0028F3D144F68A64204603B030BD1E
S31520004A5042F2DD74F9E700BF20A7202020A5202000
S31520004A605485202010B5034C206810B180470023C0
S31520004A70236010BD3CAB202010B5034C206810B13C
S31520004A8080470023236010BD38AB202038B5094D60
S31520004A906C68206918B9AC6823692BB938BD0368DE
S31520004AA003B198471434F4E71B6803B198471434CC
S31520004AB0F2E700BF5485202010B512B10F4B5B687A
S31520004AC0136041B13AB113682BB11C6834B95C68E4
S31520004AD034B91C6924B942F2D8700BE084420AD852
S31520004AE05C68844207D30138014442F2D8708C4274
S31520004AF028BF002010BD1433E2E700BF54852020D4
S31520004B0070B513B1134CA4681C6011B10BB11C68AD
S31520004B1014B942F2D87019E0256845B9666836B9E5
S31520004B20A66826B9E66816B92669002EF1D0954200
S31520004B300DD1D4E9025241184FF00003A5FB0252D1
S31520004B4043EB03068D42B241E3D3184670BD1434BD
S31520004B50DAE700BF54852020D3B5174606461A4605
S31520004B600C4611B312F4706FC3F3032305D0012B47
S31520004B7010D042F2D87002B0D0BD01AAFFF79CFF38
S31520004B800028F8D1019B1B695B683A4621463046CE
S31520004B909847F0E701ABFFF7B3FF0028EBD1019B65
S31520004BA0034A1B6999691160EEE70846E3E700BFEF
S31520004BB038AB202030B539B1084B00229B681BB199
S31520004BC01C680CB11D690DB9042003E0844202D192
S31520004BD000200A6030BD01321433F0E754852020CE
S31520004BE001390B181049CA6870B512694C68D2E9A8
S31520004BF01C1526688E4205D0A84205D88B4203D3C1
S31520004C0001200EE0A942F7D16469D2E91E12A14221
S31520004C1001D1914206D0904204D899428CBF0020FF
S31520004C20012070BD0020FCE754852020F7B51746EB
S31520004C3005461A460C4600293CD012F4706FC3F381
S31520004C40032304D0012B1ED042F2D87019E0FFF7BF
S31520004C50C7FF06460028F7D101AA21462846FFF7B6
S31520004C602BFF70B9019B3A46214628461B699B6853
S31520004C709847114B20B9019A126912691A6000E00F
S31520004C801E6003B0F0BD01ABFFF73AFF0028F8D154
S31520004C90019B2846094A1B6999699B6811603A4617
S31520004CA021469847044B18B9019A12695269E5E7DB
S31520004CB00022E3E70846E4E73CAB202038AB20207F
S31520004CC00246084612F4706FC2F3032310B405D0CF
S31520004CD0012B0DD004205DF8044B70470E4B5B680A
S31520004CE019690029F6D0DC6894420FD01433F7E70F
S31520004CF0094B9B68143353F8041C0029EAD053F857
S31520004D00144C14339442F6D10B6902E08B69002BC4
S31520004D10E0D05DF8044B184754852020034B002033
S31520004D2083F8100383F80903704700BF40AB2020A7
S31520004D302DE9F04105460C461646DFF83C800D4F1E
S31520004D4014B90120BDE8F08101232A4641463846A0
S31520004D5005F086FE034650B9074A52F8041BB142B5
S31520004D6005D10433B3F5007FF7D1013CE8E70020F5
S31520004D70E8E700BF40AB202064AE20202DE9F74FA6
S31520004D80254E80460D46914696F80833002B3FD097
S31520004D90C0F30804470A4FF0000BDFF880A01DB9C6
S31520004DA0284603B0BDE8F08F96F8093333B1D6F81C
S31520004DB00C339F4202D35A1C974226D301233A46EC
S31520004DC05146304686F809B305F04AFE0028E8D158
S31520004DD00123C6F80C7386F809332B190AEB040154
S31520004DE04846B3F5007F8CBFC4F500722A4601926F
S31520004DF011F024F8019A1444AD1A9144B4F5007FB9
S31520004E0024BFA4F500740137C9E7A8EB4324E4E7DF
S31520004E1042F2DD70C5E700BF40AB202064AE202003
S31520004E2010B5254C20460FF0F4F800283DD1D4F8D3
S31520004E301433B3F5007F0CD094F8B012C3F500728A
S31520004E401E4801294FF0FF31184418BF002111F0E8
S31520004E5003F894F8B02200230121D4F81803012A7C
S31520004E604FF0FF3284F8103318BF0022FFF760FF9F
S31520004E70F0B10123D4F8182310490F4805F072FE2B
S31520004E8090B90123D4F818230D490B4805F0E8FD05
S31520004E9050B94FF400720A49084810F0BFFF42F299
S31520004EA0DF73002818BF184610BD42F2E070FBE7FA
S31520004EB042F2DB70F8E700BF40AB202064B0202030
S31520004EC064AE20202DE9F74FDFF8B4B007460D4633
S31520004ED090469BF80833002B4ED0C0F30804460AB0
S31520004EE0DFF8A0904FF0010A0DB9284611E09BF893
S31520004EF010331BB984B142F2DE700AE0DBF81833B6
S31520004F009E4202D35A1C96422BD3FFF789FF0028D4
S31520004F10F0D003B0BDE8F08FCBE9C5468BF810A3DF
S31520004F202B19414609EB0400B3F5007F8CBFC4F56D
S31520004F3000722A46019210F081FF019ADBF81433A1
S31520004F401444AD1A13449044B4F5007FCBF81433BF
S31520004F50CAD3FFF765FF0028DBD1A4F5007401361C
S31520004F60C2E7A7EB4324DBF81433A342D8D0FFF7DC
S31520004F7057FF0028CDD1B7E742F2DD70C9E700BF61
S31520004F8040AB202064B02020034B93F8100308B1D7
S31520004F90FFF746BF704700BF40AB202070B5134EC9
S31520004FA005460C4696F80833BBB130460FF031F86B
S31520004FB0B0B9C4B16A1ED6F8E002D6F8FC12224473
S31520004FC0B5FBF0F5B2FBF0F23046B2FBF1F2B5FBE1
S31520004FD0F1F1BDE8704005F04BBE42F2DD7070BDC8
S31520004FE042F2E070FBE72046F9E700BF40AB202005
S31520004FF0104B93F80023072A19D8DFE802F004099A
S3152000500009180C0F1215D3F8E432036000207047FC
S31520005010D3F8E832F9E7D3F8EC32F6E7D3F8F032F2
S31520005020F3E7D3F8F432F0E7D3F8F832EDE70420CB
S31520005030704700BF40AB202013B5044601A8FFF7F8
S31520005040D7FF48B9054A019BD2F8E022A3FB0232DA
S315200050509B0A43EA8253236002B010BD40AB202056
S31520005060F0B587B0064609F0D3FC08B904241CE045
S31520005070F01D09F0CDFC0028F8D0F37803F0F002FB
S31520005080B02A6DD18C4D95F80823002AEED0C3F3B3
S31520005090030703F00F03012BE8D883B9304609F044
S315200050A005FC044620B185F81C73204607B0F0BDE8
S315200050B0B368C5F82033012385F81C33F5E795F846
S315200050C01C33002BD2D0337813F00F03CED101A896
S315200050D00193FFF7B1FF04460028E6D1019B03A9FF
S315200050E002A8D5F8E072B3F5800FD5F8206384BF07
S315200050F04FF0FF33019309F00BFC04460028D4D16E
S31520005100039B019AF118914221D87A1E324221D16D
S3152000511095F8B022B3FBF7F1012A07FB11334FF0C4
S31520005120FF3218BF0022002B18BF0131B6FBF7F063
S31520005130FFF7FEFD88B13046DDE90221FFF7C2FE0A
S3152000514004460028B1D1FFF71FFF0446ADE742F21F
S31520005150D874AAE742F2DE74A7E742F2DB74A4E72A
S31520005160C02A83D1544D4FF449720021284610F0AD
S3152000517073FE524B0F202B600AF09EFC504B296881
S315200051805B6AC3F302430133B0FBF3F04D4B686017
S315200051901A68914204BF002283F8D42040F2FF13FC
S315200051A0A5F804330223A5F802337378C3F3031357
S315200051B085F82C307378C3F3030385F82D30B37943
S315200051C0B279C3F3C00385F83830B379C3F3C0137B
S315200051D085F83930F37903F00303022B65D0032BCE
S315200051E066D0012B14BF44F6206342F2107312F0EE
S315200051F0100F40F6C411C2F380022B6341F28833AC
S3152000520018BF0B462C486B6385F83A200EF0F1FE4A
S31520005210044600287FF449AFF178274801F00701BA
S315200052200EF0FFFE044600287FF43FAF01A8FFF7EB
S31520005230DFFE044600287FF438AF02A940F2211091
S31520005240FFF7B8FC044600287FF42FAF029A1421FA
S315200052501D4B01FB0233D5F8E022DA60019A9A60F1
S315200052603378DA071DD5B278CDF81100C2F30101E3
S31520005270C2F3021210488DF80F10C3F301118DF8F6
S315200052800D20C3F38002C3F3C0038DF80E1003A9CB
S315200052908DF80C208DF810300EF000FF00287FF4DA
S315200052A054AF012385F80833FFE641F288339EE7A1
S315200052B040F6C4139BE700BF40AB202000402C40A3
S315200052C000C00F4064B220207885202013B50E4CF4
S315200052D094F8083393B120460EF09BFE88B901A8B6
S315200052E0FFF786FE40B9D4F8FC320146019A2046E3
S315200052F0B2FBF3F205F0BCFC02B010BD42F2DD7049
S31520005300FAE742F2E070F7E740AB202013B540F20F
S31520005310FF13144CA4F8043302232046A4F80233C6
S315200053200CF01AF8D0B920460EF063FEC0B96946D3
S3152000533040F22110FFF73EFC80B901A8FFF758FE86
S3152000534060B9009A1421084B01FB0233D4F8E022FD
S31520005350DA60019A9A60012384F8083302B010BDFE
S315200053600023F9E740AB202078852020E1B10528ED
S315200053701AD8DFE800F0030E111919140B4B93F815
S31520005380082342F2DD73002A08BF18460860002071
S3152000539070470020086070470846FFF74DBE034B54
S315200053A0D3F8E0320B60F2E70420704740AB2020B0
S315200053B0034B002083F8DC0083F8D500704700BF3C
S315200053C064B220202DE9F04105460C461646DFF84A
S315200053D03C800D4F14B90120BDE8F08101232A46F7
S315200053E04146384605F0F0FE034650B9074A52F8C2
S315200053F0041BB14205D10433B3F5007FF7D1013C3C
S31520005400E8E70020E8E700BF64B2202054B320205C
S315200054102DE9F74F254E80460D46914696F8D43015
S31520005420002B3FD0C0F30804470A4FF0000BDFF8EB
S3152000543080A01DB9284603B0BDE8F08F96F8D53078
S3152000544033B1D6F8D8309F4202D35A1C974226D37E
S3152000545001233A465146304686F8D5B005F0B4FECB
S315200054600028E8D10123C6F8D87086F8D5302B1944
S315200054700AEB04014846B3F5007F8CBFC4F50072E1
S315200054802A46019210F0DAFC019A1444AD1A91448E
S31520005490B4F5007F24BFA4F500740137C9E7A8EB53
S315200054A04324E4E742F2DD70C5E700BF64B2202062
S315200054B054B3202010B5214C20460EF0B6FFB8BBC1
S315200054C0D4F8E030B3F5007F09D0B4F8BE10C3F5A8
S315200054D000721B4841F30001184410F0BDFCB4F8DB
S315200054E0BE2000230121D4F8E40042F3000284F810
S315200054F0DC30FFF767FFF0B10123D4F8E420104930
S315200055000E4805F0D5FE90B90123D4F8E4200D49C4
S315200055100A4805F059FE50B94FF400720949084867
S3152000552010F07CFC42F2DF73002818BF184610BD2D
S3152000553042F2E070FBE742F2DB70F8E764B220202B
S3152000554054B5202054B320202DE9F74F304D07467F
S315200055500E46904695F8D430002B55D0C0F308045B
S315200055604FEA502BDFF8AC904FF0010A0EB93046C7
S3152000557011E095F8DC301BB984B142F2DE700AE006
S31520005580D5F8E4309B4502D15A1C93422CD3FFF721
S3152000559091FF0028F0D003B0BDE8F08FC5E9384B65
S315200055A085F8DCA03319414609EB0400B3F5007FEA
S315200055B08CBFC4F500723246019210F03FFC019A6E
S315200055C0D5F8E0301444B61A13449044B4F5007F5D
S315200055D0C5F8E03016D3FFF76DFF0028DBD1A4F520
S315200055E000740BF101030BE0A7EB4324D5F8E02070
S315200055F00193A242D6D0FFF75DFF0028CBD1019BB5
S315200056009B46B3E75B46FBE742F2DD70C3E700BF8C
S3152000561064B2202054B52020034B93F8DC0008B157
S31520005620FFF748BF704700BF64B2202013B5104C67
S3152000563020460BF0EDFEB8B920460EF012FFA8B9B1
S3152000564001A94FF49070FFF7B5FA68B9019A1421B1
S31520005650084B01FB0233D4F8CC20DA60D4F8C820FA
S315200056609A60012384F8D43002B010BD0023F9E7F4
S3152000567064B220207885202070B50F4E05460C4652
S3152000568096F8D43083B130460EF0CFFE78B98CB17F
S31520005690690A013D30462C44C1F1010202EB542235
S315200056A0BDE8704005F07CBE42F2DD7070BD42F26E
S315200056B0E070FBE72046F9E764B2202010B50D4CD8
S315200056C094F8D43083B120460EF0AFFE014670B96F
S315200056D02046D4E93223BDE81040A2FB0323520A18
S315200056E042EAC35205F05CBE42F2DD7010BD42F2C2
S315200056F0E070FBE764B22020F7B5054609F088F98B
S3152000570008B904201BE0E81C09F082F90028F8D02B
S31520005710EB7803F0F002B02A5FD16D4E96F8D420D4
S31520005720002AEED0C3F3030403F00F03012BE8D8BD
S3152000573073B9284609F0BAF818B186F8E84003B0DC
S31520005740F0BDAB68C6F8EC30012386F8E830F6E702
S3152000575096F8E830002BD4D02B781B07D1D101A99D
S315200057606846D6F8EC70D6E93245A5FB0443A40A70
S3152000577044EA8354B4F5800F88BF4FF0FF3409F014
S31520005780C7F80028DBD1019BFA18A2421CD86A1E52
S315200057903A421CD1B6F8BE20B3FBF5F105FB113316
S315200057A042F30002B7FBF5F0002B18BF0131FFF7DB
S315200057B009FE78B13846DDE90021FFF7C5FE00284D
S315200057C0BDD1FFF729FFBAE742F2D870B7E742F218
S315200057D0DE70B4E742F2DB70B1E7D02A91D13C4CBF
S315200057E0F0220021204610F037FB3A4B0F20236091
S315200057F00AF062F9384B21685B6AC3F3C22301338E
S31520005800B0FBF3F0354B60601A68914204BF00226A
S3152000581083F808236B78C3F3021384F82C306B7853
S31520005820C3F3000384F82D30AB78EA78C3F3C003C2
S3152000583002F0030284F83830AB78022AC3F3C0138F
S3152000584084F83930AB783AD0032A3BD0012A14BFEA
S3152000585044F6206242F2107213F0100F40F6C41183
S31520005860226341F2883218BF0A4613F0600F1848A7
S31520005870626318BFC3F341136A780CBF01235B0030
S31520005880C2F3420223645201E2630EF0EAFDE0B95C
S3152000589001A94FF49070FFF78DF900287FF44FAFE0
S315200058A0019A14210E4B01FB0233D4F8CC20DA6086
S315200058B0D4F8C8209A60012384F8D4303FE741F217
S315200058C08832C9E740F6C412C6E70023F4E700BFD2
S315200058D064B2202000002C4000C00F4040AB2020A6
S315200058E07885202011B3052820D8DFE800F0030EA4
S315200058F0111F1F1B0E4B93F8D42042F2DD73002A92
S3152000590008BF1846086000207047002008607047CE
S31520005910074AD2E93232A3FB02329B0A43EA825378
S315200059200B60F0E7024BD3F8CC30F9E70420704740
S3152000593064B220200A4B0022D3F8A831B0FBF3F042
S31520005940084B1969203310B5914201D1002010BDB2
S3152000595053F8044B844201D00132F5E70120F6E7E3
S3152000596094FB202074F7202000280D4A0D4B08BFF9
S31520005970134610B50C4640F21C4108BF4FF47F7108
S3152000598062689A420AD1A368012B07D1201D0DF027
S3152000599025FB23681B1A5842584110BD0020FCE7FE
S315200059A04243464E5442424413B54FF4807001A9F7
S315200059B0FFF700F978B9019B1421084A01FB03225D
S315200059C00749D1F8A031D360D1E96B43D1F8A811AA
S315200059D063434B43936002B010BD00BF78852020FF
S315200059E094FB2020064A1369FF2B07D8591C08333D
S315200059F0116142F823000122024B5A70704700BF02
S31520005A0074F7202054B7202010B5094C4FF480623B
S31520005A10FF21204610F020FA064A01234FF47F7119
S31520005A20201DC4E901230DF0D9FA206010BD00BF66
S31520005A3094FB20204243464E064A014692F8E03126
S31520005A402BB9054883704360044BC2F8E4310448FF
S31520005A5003F0C2BE94FB202054D7202056B7202026
S31520005A6094FC20202DE9F047154F0D461446D7F813
S31520005A70A01102EB050897F8E031B0FBF1F62BB93F
S31520005A80104A93705360104BC7F8E431DFF83C900E
S31520005A90444502D30020BDE8F087D7F8A03122463E
S31520005AA031464846AB4228BF2B469A4603F0F2FEC3
S31520005AB00028F0D15444A5EB0A050136E8E700BFDB
S31520005AC094FB202054D7202056B7202094FC202059
S31520005AD0484800232DE9F04F00F58046464D85B015
S31520005AE0F268D5F8A01134698A42D5F8A8813372B4
S31520005AF0D5E96BA907D002F500538A1AFF2108338E
S31520005B00184410F0A9F9012221463C480DF019FF4E
S31520005B10074628B142F2DB77384605B0BDE8F08F5C
S31520005B20D5F8A011364A04FB01F0FFF79BFF0028A9
S31520005B30F2D00AFB09F3DFF8CCB0DFF8C0A001935E
S31520005B40B4FBF8F0FFF74EFF736900F1010801334B
S31520005B507361019B984502D342F2D877DCE7D5F8EA
S31520005B60A89108FB09F108460291FFF7E3FE029986
S31520005B7038BB5046B4FBF9F309FB13435A1CA4EB7C
S31520005B80030903930DF0DDFE0028C3D1039B029980
S31520005B901B1B0B440393039B4C454B440293D5F8A4
S31520005BA0A03114D8164A194603FB04F0FFF75AFF12
S31520005BB00028B1D042F2DB739842ABD04046FFF7C3
S31520005BC011FF736908F1010801337361C1E75A4671
S31520005BD04946504603F0BCFC0028EBD1D5F8A0116D
S31520005BE05A4602984843FFF73DFF0028E2D109F1C3
S31520005BF00109D0E754B7202094FB202094FC2020D4
S31520005C005CD7202056B720202DE9F74F0F46914626
S31520005C10002A75D0404A1378002B73D0DFF8FCA0F9
S31520005C20DAF8A081DAF84030B0FBF8F59D426CD363
S31520005C3002F58046DAF8A82108FB1504736902FBF1
S31520005C4003550FB938464DE0336996F808B0AB4294
S31520005C5022D1BBF1000F1FD0F368A3424BD13B19D1
S31520005C6004F500504946434500F108002A4B8CBFF5
S31520005C70A8EB040BBB4618445A465C4410F0DEF8E9
S31520005C80F368A045A7EB0B075B44D9449CBFA4EB64
S31520005C9008040135F360D4E7DAF8A811B5FBF1F072
S31520005CA0BBF1000F03D0B3FBF1F3984216D001915C
S31520005CB0DAE96B32534383422AD92846FFF73AFE64
S31520005CC0019920B173690D4401337361B9E7BBF1C2
S31520005CD0000F03D14CB145F2D12003E0FFF7F8FEC7
S31520005CE00028F7D003B0BDE8F08F4FF00103C6E9D6
S31520005CF003453372B3E7FFF7EBFE0028F2D1A0E7A6
S31520005D000420EFE742F2DD70ECE745F2E320E9E715
S31520005D1042F2D870E6E700BF54B7202094FB20203B
S31520005D20024B187A08B1FFF7D3BE704754F72020EC
S31520005D302DE9F74F0E460092002A65D0DFF8E09055
S31520005D4099F80030002B61D0DFF8D88009F5804B18
S31520005D5009F5005AD8F8A071DBF81430D8F8A82134
S31520005D60B0FBF7F507FB150402FB03551EB93046B9
S31520005D7003B0BDE8F08FDAF804309AF80200AB429F
S31520005D8000D158BBD8F8A821B5FBF2F118B1B3FB66
S31520005D90F2F3994211D00192D8E96B3043438B42FA
S31520005DA037D92846FFF7C6FD019A30B1DBF8143003
S31520005DB015440133CBF81430D8E70023164A294678
S31520005DC016488AF80230D8F8A03103F0C1FB002823
S31520005DD0CED10123CAF804508AF802303319A11C07
S31520005DE00098BB4249448CBF3A1B3246019210F0C0
S31520005DF025F8019A009B1444B61A1344A74200932F
S31520005E009CBFE41B0135B1E70420B1E742F2DD7007
S31520005E10AEE742F2D870ABE756B7202094FC20209C
S31520005E2054B7202094FB20202DE9F74F06460192F7
S31520005E300D464FF4005200211548984610F00CF8F4
S31520005E40002E4FF0000BDFF84CA00CBF4FF48069FA
S31520005E504FF484690E4F019B9B4501D1012412E02A
S31520005E60DAF8A0013A4649466843FFF761FF04463F
S31520005E7018B145440BF1010BEDE739463046FFF7E3
S31520005E8073FD0028F5D0204603B0BDE8F08F00BF93
S31520005E9056B7202094FB202073B50BF009F9202853
S31520005EA03ED1204DFFF7B0FD05F580700BF0CCFB01
S31520005EB0044690BB05F5807003F0F0F8044660BBFD
S31520005EC001A968460BF0ECFA21462046DDE90023BD
S31520005ED0FFF7AAFF044600BB134E4FF48062284604
S31520005EE031460FF0ABFF05F5807003F0D7F8044676
S31520005EF098B9E9680120DDE90023FFF795FF0446FC
S31520005F0058B94FF48462314608480FF097FF0123B1
S31520005F1006F8023CFFF748FD0446204602B070BD55
S31520005F200124FAE794FB202056B7202074F720207E
S31520005F302DE9F04F3D4C85B08046B4F81290B4F868
S31520005F4010A0B9F1010F85BFD4F8A8310AFB09F7D3
S31520005F500123B7FBF3F3019368B3354E40F21C419E
S31520005F60E56845F2E22BD4F8A821301DB5FBF2F7FF
S31520005F700DF034F84FF4846330600293002126E05C
S31520005F80D4F8A0013A464FF480617043FFF7D0FE63
S31520005F9000283BD14FF48062594638460FF03EFF29
S31520005FA0A0BB013556444D45EAD34FF0000B584669
S31520005FB005B0BDE8F08F064605461E4FDFF86CB0EB
S31520005FC0F1E7C8190391FFF737FD03990131019BCA
S31520005FD09942F6D100274F45E9D2D4F8A00132469E
S31520005FE002996843FFF73EFD50B1D4F8A801B5FBEE
S31520005FF0F0F0FFF721FD5846013755448346EAE77E
S31520006000B8F1010F04BF0C4B5870F5E74FF47F71C0
S315200060100A480CF0E3FF00274FF48063034E3D4609
S3152000602045F2E12B20600293A8E700BF94FB2020D5
S3152000603074F7202056B7202054B7202098FB202024
S315200060402DE9F843254E3378002B3CD000293FD04C
S31520006050DFF88C80441ED8F8A0510C44D8F8A8212B
S31520006060B0FBF5F7B4FBF5F4B7FBF2F7B4FBF2F4AB
S31520006070C7F101031C44D8F84030B3FBF2F39F422A
S3152000608028D30125D8E96B2302FB03F944B9737899
S31520006090DBB10120BDE8F843FFF74ABF013C10E021
S315200060A04F45F4D2D8F8A8017843FFF743FC40B90E
S315200060B03846FFF7C1FC05460028EFD03846FFF7E3
S315200060C091FC0137E2E742F2DD752846BDE8F88308
S315200060D00D46FAE745F2E325F7E700BF54B720203F
S315200060E094FB202008B5074B587810B10120FFF704
S315200060F01FFF054B0022A3F500511A725A618A70C0
S3152000610008BD00BF54B7202054F720202DE9F743BF
S315200061100446804608F07CFC08B90420ECE004F232
S31520006120FF3008F075FC0028F7D021460020FFF745
S315200061301BFC70B19C4B002221469C481A704FF4E0
S3152000614080620FF07BFE9A4802F0A8FF002877D0E5
S31520006150D2E0E37803F0F002D02A40F0B78023792A
S31520006160A679180714BF03F00F07012763783107B4
S3152000617014BF06F00F0601269A07627814BF03F0B3
S315200061800303012363F301026379012B627038BF95
S315200061900123637123785B0700F0FA80082E00F252
S315200061A0FA80814B0022814D1A70FFF72DFC05F5F0
S315200061B080700BF049FA002840F09E800523A5F850
S315200061C05C0185F8090105F5807085F80C31237886
S315200061D0C3F3020385F852312378C3F3C00385F84D
S315200061E020312378C3F30213013385F853316378C2
S315200061F0C3F30103DB0085F821316378C3F302136F
S3152000620085F83031A378C3F3000385F85531A37898
S31520006210C3F3400385F8563102F040FF00286BD1C6
S3152000622063792946D5F8A8C107FB03F252008642B6
S3152000623034D10CFB03F36F822B827B436E61EB60C0
S315200062405A4901200B8A4A8AC968FFF7EDFD0028C2
S3152000625000F09780574C4FF48462FF210125204699
S315200062600FF0FAFD544B40F21C41201DC4E90135C4
S31520006270002323610CF0B2FE20602846FFF758FE6B
S31520006280002839D10020FFF753FEA8BB464B012238
S315200062901A7003B0BDE8F043FFF786BB20B1B8F80B
S315200062A00620B8F804402244B8F80A40083108F11C
S315200062B00408944272D3B8F804E004FB0CF40130CD
S315200062C00CFB0EFE8C63C1F83CE0B0E7B02A68D127
S315200062D0354D2A78002A3FF420AFC3F3030603F096
S315200062E00F03012B3FF619AF05F5804563B920460C
S315200062F008F0DCFA18B12E7603B0BDE8F083A36867
S31520006300EB6101232B769BE72B7E002B3FF405AF19
S31520006310237803F00F03072B3FF6FFAE234E0833F7
S3152000632001A9684656F8338006EBC303D6F8A07158
S31520006330D3F80490EC6908F0EBFA0028DCD1019B35
S315200063402344B3FBF7F39945FFF4E7AE07FB084474
S315200063507B1E23427FF4E1AE012206F58070B4FB5A
S31520006360F7F10DF0EEFA48B92046DDE90021FFF7F6
S315200063704BFC0028C0D1FFF7D3FCE7E642F2DB70E6
S31520006380BAE74FF484620D490A480FF057FD79E7C2
S3152000639045F2E420B0E745F2E520ADE745F2E620F8
S315200063A0AAE745F2E020A7E754B7202094FB202057
S315200063B094FC202074F720205442424456B72020D3
S315200063C02DE9F041154FDFF85880D7E96B365E434B
S315200063D098F80030F3B942F2DD742046BDE8F0812A
S315200063E0D7F8A8016843FFF7A5FA38B92846FFF77A
S315200063F023FB044610B12846FFF7F4FA0135B542CF
S31520006400EED198F80130002BE7D00120BDE8F0410D
S31520006410FFF78EBD00250124F1E700BF94FB202065
S3152000642054B72020002939D0102837D8DFE800F0CB
S315200064300913162336273636363636363636363668
S315200064402E00174B1A7842F2DD73002A08BF184631
S31520006450086000207047002008607047114AD2E982
S315200064606B034343D2F8A801D2F8A02143435343F8
S315200064709B0A0B60EDE70B4BD3F8A031F9E7094AED
S31520006480D2F8A831D2F8A0215343F2E7054AD2E93F
S315200064906B034343D2F8A8014343F3E70420704734
S315200064A054B7202094FB2020034B1B780BB10CF013
S315200064B07BBD42F2DD70704794FF20200748D0F85C
S315200064C008314BB10022D0F80411C0E9412200F571
S315200064D08672043002F0CCBA1846704794FF20200A
S315200064E02DE9F041244E05460C4617463378002BFD
S315200064F03BD00DF046F958B342F2DB7033E0D6E9D3
S31520006500413050EA030227D196F82630DB08B5FB46
S31520006510F3F203FB12535BBBC6F804510319394649
S31520006520B3F5007F8CBFC0F50078A04600F58670D5
S3152000653042464744304445440FF080FCD6F80831A3
S31520006540A4EB08044344B3F5007FC6F8083106D00F
S31520006550002CD4D1204606E003449D42DED0FFF72E
S31520006560ADFF0028F4D0BDE8F08142F2DD70FAE7F5
S3152000657042F2DE70F7E700BF94FF202049B31028CF
S3152000658027D8DFE800F00913171D26212626262600
S315200065902626262626262800114B1A7842F2DD7357
S315200065A0002A08BF18460860002070470C4B5B691C
S315200065B00B60F9E70A4AD2E92A3253439B0AF7E7E6
S315200065C0074BD3F8A430F3E7054BD3F8A830002BBC
S315200065D0EED104207047024AD2E92A325343E7E734
S315200065E094FF202007B505206946FFF7C7FF01A9BC
S315200065F01020FFF7C3FF064A019993698B423EBFDD
S315200066000099B3FBF1F3C2F8AC3003B05DF804FB9C
S3152000661094FF202038B50AF04BFD102810D1094DE3
S31520006620281D0BF01FF9044640B9281D02F0E6F894
S31520006630044618B9FFF7D6FF01232B70204638BD34
S315200066400124FBE794FF20202DE9F743064608F0B6
S31520006650DFF908B90424C9E006F1FF0008F0D8F9EB
S315200066600028F7D03268844B9A4221D14FF48072A9
S31520006670314682480FF0E2FB814E0023304600F877
S31520006680043B02F0BBF80446002840F0AF80FFF739
S31520006690A9FF01A910207569FFF770FF794B1D65C9
S315200066A0019A15440122013D9A655D6532709DE08F
S315200066B0F37803F0F002D02A40F082807378704D90
S315200066C09A07727805F1040014BF03F0030301232F
S315200066D063F3010272700BF0C5F80446002840F0FF
S315200066E0858005232B74182385F825303378C3F34A
S315200066F0010385F856307378C3F30103DB0085F870
S3152000670026307378C3F3800385F82E307378C3F36D
S31520006710021385F82C303378C3F38102022A85F8D8
S315200067205520A9D10146B288281D02F03DF8F288ED
S31520006730214685F83C00281D02F036F8328921468C
S3152000674085F83D00281D02F02FF87289214685F82C
S315200067503E00281D02F028F8B289214685F83F0020
S31520006760281D02F021F8F28A214685F84000281DCE
S3152000677002F01AF8328B012185F84300281D02F019
S3152000678013F8F289214685F84400281D02F00CF8FA
S31520006790328A214685F84500281D02F005F8728ABE
S315200067A0214685F84100281D01F0FEFFB28A85F8B2
S315200067B042002146281D01F0F7FF85F846005BE7D9
S315200067C0B02A55D12E4D2A78002A3FF443AFC3F381
S315200067D0030703F00F03012B3FF63CAF8BB930467E
S315200067E008F064F8044628B185F80C73204603B0F7
S315200067F0BDE8F083B368C5F81033012385F80C3360
S31520006800F4E795F80C33002B3FF424AF33781B07BD
S315200068107FF420AF01A968466E69D5F8A480D5E932
S315200068202A79D5F8105308F073F804460028DDD1EC
S31520006830019B09FB07F72B449F4210D3354408F1EF
S31520006840FF332B420ED1414628460CF09AFF60B901
S315200068502846DDE90021FFF743FE0446C6E742F25B
S31520006860D874C3E742F2DE74C0E742F2DB74BDE7B8
S3152000687045F27C24BAE700BF53454D4398FF2020BC
S3152000688094FF2020F08520202DE9F7431D4E054654
S315200068900C46904633787BB3776901A91020FFF721
S315200068A06DFEBD422BD3019B1F442B199F4226D33D
S315200068B0002306F58672013342F8048B802BFAD129
S315200068C04FF00008DFF8409024B9FFF7F7FD03B03A
S315200068D0BDE8F083B4F5007F4A462846C6F808810D
S315200068E034BF27464FF400773946FFF7F9FD0028D5
S315200068F0EDD13D44E41BE7E742F2DD70E7E745F2E0
S315200069006D20E4E794FF2020A00021202DE9F3410B
S31520006910174D04460E462B7823B36F69694605202A
S31520006920FFF72CFE01A91020FFF728FEBC421CD33E
S31520006930019B04EB06083B44434516D316B10435A8
S31520006940444503D3002002B0BDE8F081E31B009943
S315200069502846B3FBF1F102F043F90028F3D1009B5E
S315200069601C44EDE742F2DD70EDE745F26D20EAE7E3
S3152000697094FF2020064B13B55C6901A91020FFF770
S31520006980FDFD01992046FFF7C1FF02B010BD00BFF3
S3152000699094FF20200020014B986070478C80202097
S315200069A0224B2DE9F04188B093F8185493F81974C6
S315200069B006461F4B0DF1200C884614460FCB0CE9DA
S315200069C00F001022002168460FF046FA4FF480137C
S315200069D0039344B90122284639460AF0A3FA002037
S315200069E008B0BDE8F081032C01D10022F3E7012C89
S315200069F017D1019608ABCDF8088003EB85046946CC
S31520006A0054F8100C09F00AFAB0F5C87FF7D0002820
S31520006A10E6D02846002239460AF084FA42F6CD10FE
S31520006A20DEE7022C08BF0096E4E700BF8C8020201A
S31520006A30685E01200B461146044A127812B11A46A6
S31520006A4001F0ACBD42F2DD70704700BF8C80202083
S31520006A5030B5134CADF20C4D0023A268EAB165683F
S31520006A6004F10C0101922846C4E9013301F0B2FD7C
S31520006A7080B9019A02A9284601F090FD50B9019AE1
S31520006A8002A904F10C000FF0C9F942F2DF730028C5
S31520006A9018BF18460DF20C4D30BD1046FAE700BF60
S31520006AA08C8020202DE9F8431D4D06460C46904645
S31520006AB02B7893B3D5F82874B7F5806F28BF4FF499
S31520006AC080670CB9204626E0D5E9012050EA02036A
S31520006AD01AD16E600219974238BFA7EB000900F160
S31520006AE00C0028BFA1462844404503D04A464146CB
S31520006AF00FF0A4F9AB68C8444E44A4EB09044B44F8
S31520006B009F42AB60DDD102E00244B242E2D0FFF701
S31520006B109FFF0028D5D0BDE8F88342F2DD70FAE762
S31520006B208C8020200B4B1B7870B505460E4673B122
S31520006B3001F08EFD044640B9314628460CF061FA34
S31520006B4042F2DF73002808BF1C46204670BD42F281
S31520006B50DD74FAE78C8020202DE9F0418CB00546C3
S31520006B6007F056FF08B9042017E105F12B0007F0BE
S31520006B704FFF0028F7D0EB7803F0F002C02A40F050
S31520006B80F780AD4C2C22002104F582600FF064F9C9
S31520006B90AA4BAB4AC4F810344FF48033A949C4F841
S31520006BA01434A94BC4F8303440F20563A4F83434C5
S31520006BB02B7803F00F0352F82330A44AC4F8283464
S31520006BC02B781B0952F823306A78C4F82C3402F04B
S31520006BD00F0251F822106A78C4F82414C2F3031065
S31520006BE01209012A18D0022A2ED000226020B1F1E3
S31520006BF0807F84F8202484F8380432D81822B3F50C
S31520006C00803F84F821244FF0420284F836241ED394
S31520006C10D82384F8373407E0B1F5803F84F8200480
S31520006C200BD8102384F82134AB781B09013B032BA6
S31520006C3049D8DFE803F02D424446B1F1807F01D8E0
S31520006C401823EFE72023EDE784F82004ECE7B3F5DB
S31520006C50805F01D12023DCE7B3F5004FE4D1522336
S31520006C60D7E72021B3F5803F84F8362484F8211411
S31520006C704FF0120184F831144FF0130184F83214C6
S31520006C8001D3DC23C5E7B3F5805FCDD12123C0E74F
S31520006C90012384F81834AB78C3F3030203F00F03FF
S31520006CA0022B03D0032B01D0012B0ED184F81924FB
S31520006CB0EB781A070DD1664B15E00223E9E703238B
S31520006CC0E7E70423E5E70023E3E7002384F8193404
S31520006CD0EEE72B7903F00F03022B45D0032B45D08B
S31520006CE0012BE8D15B4BC4F81C34534C002601AF72
S31520006CF094F8185404F58360D4F81C8426700AF09E
S31520006D003DF928460AF0F0F8284653490AF024F9B6
S31520006D10524B0FCB87E80F001C22314605A80FF0F7
S31520006D209BF8082305A94C4A06934D4BCDF81480B1
S31520006D30ADF81C608DF81E60B3FBF8F3CDE908337F
S31520006D400A9302230B930CAB03EB850555F82C0C09
S31520006D5008F0F0FFD4F80C1404F5846001F0E2FB8F
S31520006D60D8B90123237018E03E4BBCE73E4BBAE767
S31520006D70B02A50D1304C2278002A3FF4F4AEC3F327
S31520006D80030603F00F03012B3FF6EDAE7BB9284631
S31520006D9007F08CFD20B184F83C640CB0BDE8F0818E
S31520006DA0AB68C4F84034012384F83C34F5E794F802
S31520006DB03C34002B3FF4D7AE2B781B077FF4D3AEA1
S31520006DC005A901A8D4F82464D4F82854D4F840445A
S31520006DD007F09EFD0028E0D1059B23449E4217D351
S31520006DE06B1E234211D1294620460CF00AF948B1E0
S31520006DF0019A20460599FFF755FE0028CDD1FFF7C9
S31520006E0027FECAE742F2DB70C7E742F2DE70C4E72C
S31520006E1042F2D870C1E72A68084B9A427FF4A3AEA3
S31520006E202C22002111480FF017F82C2229460F4852
S31520006E300FF004F859E700BF8C8020206B73656340
S31520006E4010852020D08420200102030428852020BC
S31520006E50002D310180969800005A6202685E01205A
S31520006E6000CA9A3B404B4C0080841E009C84202004
S31520006E7038B50A4D2B7873B101F030FC044640B981
S31520006E80D5F824140CF0BDF842F2DF73002808BFB1
S31520006E901C46204638BD42F2DD74FAE78C8020205D
S31520006EA059B3102829D8DFE800F009131B1620282B
S31520006EB0282828282828282828282400104B1A780B
S31520006EC042F2DD73002A08BF18460860002070478A
S31520006ED00020086070470A4BD3F828340B60F5E78A
S31520006EE0074BD3F824349B0AF8E7054BD3F82C3408
S31520006EF0F4E7034BD3F82434F0E70420704700BFAF
S31520006F008C802020084B00221969203310B591422D
S31520006F1001D1002010BD53F8044B844201D0013228
S31520006F20F5E70120F6E700BFDC2221202DE9F74F07
S31520006F30DFF8689007460D46904609F5807ADFF817
S31520006F4058B025B92C46204603B0BDE8F08FD9F8B5
S31520006F50C06243463A465146AE424FF0000028BF33
S31520006F602E4600960EF022F804460028EBD10A4B56
S31520006F703A465146009606F08FFA04460028E2D19A
S31520006F803246594640460EF049FF18B9B044AD1B6B
S31520006F900137D6E70124D6E7BC022120FC26212092
S31520006FA00246024900200DF09FBF00BFFC2721208A
S31520006FB02DE9F84F204C0026B4F81280B4F8109032
S31520006FC0D4F8C87209FB08F5E368B5FBF7F5B3FBFF
S31520006FD0F7F7B0B20136854214D8184E40F21C415C
S31520006FE04FF0000B44F62967301DDFF854A00CF053
S31520006FF02DF8E56830601FFA8BF3984506D8384699
S31520007000BDE8F88F3844FFF7CBFFE2E732464FF46E
S3152000701084612846FFF78AFF48B1D4F8C802B5FB39
S31520007020F0F0FFF7BDFF4D440BF1010BE3E70746F8
S315200070308AF80100F7E700BFFC262120DC22212068
S31520007040AC02212010B5074C607808B1FFF7B0FFDD
S31520007050054A0023A2F58051137653620B742373DD
S3152000706010BD00BFAC022120AC222120064A1369A4
S31520007070FF2B07D8591C0833116142F8230001223F
S31520007080024B5A70704700BFDC222120AC0221201F
S315200070902DE9F041224F04460D463B78BBB3D9B3C8
S315200070A07A68204B012AD3F8C8020FD0D3F8C01231
S315200070B0B4FBF1F2013C2544B5FBF1F5B2FBF0F24D
S315200070C0B5FBF0F1C2F1010514460D441A6CB2FB72
S315200070D0F0F2A24222D8D3F8DC8204260DB1A045D4
S315200070E005D87B78ABB1BDE8F041FFF761BF2046FC
S315200070F0FFF708FF38B92046FFF752FF064620B1B2
S315200071002046FFF7B3FF0134E8E7013DFBE742F2F3
S31520007110DD763046BDE8F0810E46FAE70426F8E72C
S31520007120AC022120FC2621202DE9F743DFF83C8004
S3152000713005460C46164608F580791CB9204603B04C
S31520007140BDE8F083D8F8C07233462A464946A7429E
S315200071504FF0000028BF2746009706F09DF900282B
S31520007160EDD13E44E41B0135E7E700BFFC26212094
S31520007170F8B50E4B044645180D4FD3F8C06220468D
S315200071803A4631460134FFF7CFFF034660B9084936
S31520007190B34203D3AC42F2D10120F8BD51F8042BFF
S315200071A0013201D10433F3E70020F6E7FC26212043
S315200071B0BC0221202DE9F74F3D4ADFF8FC8002F57D
S315200071C00056D8F8C032F169356A99424FF000036B
S315200071D04FF00101284618BF13733376FFF7C8FF17
S315200071E020B942F2DB7003B0BDE8F08F314A284661
S315200071F0F169FFF79BFE08B90020F4E7D8F8C8022A
S31520007200DFF8B8A0DFF8ACB0B5FBF0F0FFF72EFF43
S31520007210736A471C01337362D8F8DC320093009BF3
S315200072209F4202D342F2D870DDE73846FFF76AFE66
S3152000723028BBD8F8C832B5FBF3F403FB14547B43C0
S31520007240611CA5EB040918460193FFF791FF00285E
S31520007250C7D0641B019B1C444D4504EB0903D8F899
S31520007260C01211D85A461846FFF760FE0028C3D030
S3152000727042F2DB739842B4D03846FFF7F7FE736AC2
S31520007280013701337362CAE7524648460193FFF736
S315200072904BFF0028ECD1019B5246D8F8C012184665
S315200072A0FFF744FE0028E3D109F10109D4E700BF26
S315200072B0AC022120C4122120FC262120BC02212040
S315200072C02DE9F04F85B006468A460192002A00F045
S315200072D0CB80664F3B78002B00F0C3807A68DFF8BE
S315200072E098B1012ADBF8C09255D1387B98B9DBF8E2
S315200072F0DC12B14240F2B880DBF8C84207F50051F3
S315200073003A7374435A4A0876BE60064609FB04A1BE
S315200073101160042515E0B968DBF8C80209FB01F203
S31520007320DFF84C814243521AD8F800103244914279
S315200073301BD10425B2FBF9F409FB14265244C8F8E4
S315200073400020DBF84020A2420BD8DFF83081DBF8A2
S31520007350C812D8F8242001FB0244BAF1000F1FD12D
S315200073605DB9284605B0BDE8F08F07F50052127EBC
S3152000737032B1FFF71FFF054618B100233B73F0E734
S315200073800425DBF8C8420122BE60744300263A7306
S3152000739009FB04F2D2E7B0FBF9F409FB1406B8E7BF
S315200073A0D8F8203098F81820A34224D11AB3D8F858
S315200073B01C20B2424CD10AEB06022E4B01994A45BB
S315200073C003EB06008CBFA9EB060555462A462E443C
S315200073D00EF034FDD8F81C20019BB1452A44AAEBB7
S315200073E0050A2B449CBFA6EB090601340025C8F8E4
S315200073F01C200193B1E7DBF8C812B4FBF1F01AB1F7
S31520007400B3FBF1FC604516D0DBF8DC328342CDE9D4
S31520007410021223D9FFF776FDDDE9021230B1D8F842
S3152000742024200C440132C8F8242096E71AB946B124
S3152000743044F62A65A1E7FFF7BDFE05460028F6D0EB
S315200074409BE74FF00103C8E9076488F81830B2E7D4
S31520007450FFF7B0FE054600288FD17EE742F2D875A9
S315200074608BE742F2DD757CE704257AE7AC02212022
S31520007470A8022120C4122120FC262120AC22212072
S31520007480024B187E08B1FFF795BE7047AC2221202B
S315200074902DE9F04F85B089460192002A00F09E80A2
S315200074A0DFF8448198F80030002B00F09480D8F85B
S315200074B004204B4F012AD7F8C06233D198F80C40EC
S315200074C014BBD7F8DC32834240F28880D7F8C83222
S315200074D088F80C2003FB00F5C8F80800DFF80CA19B
S315200074E0D7F8C822DAF82400AAF5805B02FB0055FB
