S020000065766B6D696D787274313031305F696C65645F626C696E6B792E73313946
S3156000200000800020D121006059220060B548006040
S315600020105D2200605F2200606122006000000000B7
S315600020200000000000000000000000006322006065
S315600020306522006000000000672200601D230060CA
S31560002040354600603D460060454600604D4600608E
S31560002050554600605D460060654600606D460060FE
S31560002060754600607D460060854600608D4600606E
S31560002070954600609D460060A5460060AD460060DE
S31560002080B5460060BD460060C5460060CD4600604E
S31560002090D5460060DD460060E5460060ED460060BE
S315600020A0F5460060FD460060054700600D4700602C
S315600020B0154700601D470060254700602D4700609A
S315600020C0354700603D470060454700604D4700600A
S315600020D0554700605D470060654700606D4700607A
S315600020E0754700607D470060854700608D470060EA
S315600020F0954700609D470060A5470060AD4700605A
S31560002100B5470060BD470060C5470060CD470060C9
S31560002110D5470060DD470060E5470060ED47006039
S31560002120F5470060FD470060054800600D480060A7
S31560002130154800601D480060254800602D48006015
S31560002140354800603D480060454800604D48006085
S31560002150554800605D480060654800606D480060F5
S31560002160754800607D480060854800608D48006065
S31560002170954800609D480060A5480060AD480060D5
S31560002180005400600020002004000000005400603D
S3156000219000000000000000000054006000002020E5
S315600021A000000000005400600000212000000000D4
S315600021B004200020E800000000000000000000008D
S315600021C00000202000000000000021200000000028
S315600021D010B572B6104B83F3088800F0E9FC0F4B1C
S315600021E007E003F10C049A685968186800F01CF857
S315600021F023460B4A9342F4D306E01C46596854F8CA
S31560002200080B00F020F82346064A9342F5D362B6DF
S3156000221002F0A3FCFEE700BF008000208021006082
S31560002220B0210060D0210060002393420AD210B42E
S3156000223050F8044B41F8044B04339342F8D35DF8ED
S31560002240044B70477047002303E0002240F8042BDC
S3156000225004338B42F9D37047FEE7FEE7FEE7FEE7FD
S31560002260FEE7FEE7FEE7FEE7FEE7FEE780B582B043
S3156000227000AF78607968024802F08CF800BEFDE72E
S315600022800851006080B483B000AF03463960FB71CB
S3156000229097F90730002B0ADB3B68DAB20C4997F9ED
S315600022A007301201D2B20B4483F800230AE03B6880
S315600022B0DAB20849FB7903F00F03043B1201D2B28C
S315600022C00B441A7600BF0C37BD465DF8047B704739
S315600022D000E100E000ED00E080B582B000AF78601C
S315600022E07B68013BB3F1807F01D301230FE00A4A8B
S315600022F07B68013B53600F214FF0FF30FFF7C2FF51
S31560002300054B00229A60044B07221A600023184688
S315600023100837BD4680BD00BF10E000E080B400AF66
S31560002320064B1B68002B04D0044B1B68013B034A19
S31560002330136000BFBD465DF8047B70470420002033
S3156000234080B483B000AF7860074A7B68136000BFD3
S31560002350054B1B68002BFBD100BF00BF0C37BD4689
S315600023605DF8047B704700BF0420002080B500AF95
S3156000237001F0C2F800F0B6FE02F033FB134B1B68A7
S31560002380134AA2FB03239B091846FFF7A5FF0346E2
S31560002390002B00D0FEE74FF47A70FFF7D1FF0D4BAC
S315600023A01B78DBB2002B08D0002200210A4800F01F
S315600023B00DFB084B00221A70EDE70122002106484A
S315600023C000F004FB034B01221A70E4E700200020B2
S315600023D0D34D6210E820002000801B4080B400AF1F
S315600023E0074BD3F8703203F01003002B02D1054B74
S315600023F01B6800E0044B1846BD465DF8047B7047D9
S3156000240000800D400820002000366E0180B582B045
S3156000241000AF0346FB71FB7983F00103DBB2002B4F
S3156000242002D11348FFF722FF124B4FF08042C3F8E8
S31560002430582100BF0F4BD3F8703203F48033002B62
S31560002440F8D00C4B4FF48032C3F8542100BF094BCF
S31560002450D3F8503103F40043002BF8D0054B4FF40A
S315600024608032C3F8582100BF0837BD4680BD00BF23
S315600024701C51006000800D4080B483B000AF0346FD
S31560002480FB71FB79002B04D1074B1022C3F8742231
S3156000249003E0054B1022C3F8782200BF0C37BD4617
S315600024A05DF8047B704700BF00800D4080B400AFCC
S315600024B0064BD3F87032054A43F00103C2F8703216
S315600024C000BFBD465DF8047B704700BF00800D40CD
S315600024D080B483B000AF7860224B1B6B23F4E0328C
S315600024E07B681B7B9B039BB213431E4A43F480337A
S315600024F013631C4B1A6B1C4B13407A68127802F0FC
S3156000250001021343174A43F4005313637B685B6805
S31560002510144A23F0404313657B689B68114A23F095
S31560002520404313667B685B8AC3F30E027B681B7C41
S31560002530DB039BB21A437B68DB891B04094913439F
S315600025400B6400BF074B1B6B002BFBDA054B1B6B49
S31560002550044A23F48033136300BF0C37BD465DF82D
S31560002560047B704700800D40FECFFFFF80B400AF54
S31560002570044B4FF480521A6700BFBD465DF8047B7A
S31560002580704700BF00800D4080B485B000AF7860B2
S315600025900023FB601A4BD3F8E03023F4E0327B680B
S315600025A01B799B039BB21343154A43F48033C2F8ED
S315600025B0E0307B685B78002B03D0FB6843F48003D4
S315600025C0FB600F4BD3F8E03023F480520C49FB6874
S315600025D01343C1F8E03000BF094BD3F8E030002B5D
S315600025E0FADA074BD3F8E030054A23F48033C2F8B1
S315600025F0E03000BF1437BD465DF8047B704700BF0E
S3156000260000800D402DE9B04F90B000AFF862F96AD6
S31560002610794802F07EF9034683F00103DBB2002BB2
S3156000262001D00023E3E0F96A734802F090F9F86399
S31560002630F96A714802F054F90346002B01D0FB6B2E
S31560002640D5E0FA6A6D4B9A4200F0CA80FA6A6B4B23
S315600026509A4200F2C880FA6A694B9A4261D0FB6A74
S31560002660674A934200F2BF80FB6A664A93424AD049
S31560002670FB6A654A934240F0B680FB6B00223B6280
S315600026807A625D4B1B6D0022BB61FA61D7E9084532
S315600026902B46D7E906AB524602FB03F25B46214660
S315600026A001FB03F3134422465146A2FB01894B44C6
S315600026B09946C7E90C89C7E90C894F4B1B6E002206
S315600026C03B607A60D7E90023D7E90C0102F01EFC73
S315600026D002460B46C7E90C23474B1B6B03F001030D
S315600026E0002B05D0FB6B162202FB03F3FB6305E0B0
S315600026F0FA6B13469B0013449B00FB633B6BFA6BC0
S315600027001344FB6372E03C4B1B6903F00203002B2E
S3156000271001D0162200E01422FB6B02FB03F3FB637D
S3156000272064E0354B1B6F03F07F03BB63FB6B0022DA
S315600027303B617A61304BD3F8803000229A469346EB
S31560002740D7E904010B460AFB03F2034603FB0BF3CE
S3156000275013440246A2FB0A452B441D46C7E90C45B5
S31560002760C7E90C45244BD3F890300022BB60FA6071
S31560002770D7E90223D7E90C0102F0C8FB02460B46F3
S31560002780C7E90C23FB6BBA6B03FB02F23B6B13448A
S31560002790FB63194B1B6F03F4C013002B03D0B3F517
S315600027A0002F04D007E0FB6B9B08FB6303E0FB6B29
S315600027B05B08FB6300BF104BD3F87021134B1340CB
S315600027C0B3F5004F06D0114A934207D1FB6B9B08C5
S315600027D0FB6304E0FB6B5B08FB6300E000BF05E0A6
S315600027E00B4BFB6302E00023FB6300BFFB6B1846E9
S315600027F04037BD46BDE8B08F00800D401600E00052
S315600028000D0070000D0010000D003000008080008B
S315600028100065CD1D80B485B000AF03460A46FB71E6
S315600028201346BB71FB79FB60124BD3F80021FB6842
S31560002830DB00BF2101FA03F3DB431340BB60FB6897
S31560002840DB0080229A400B49BB681343C1F8003114
S31560002850BB7903F03F02FB68DB009A400549BB6821
S315600028601343C1F8003100BF1437BD465DF8047BE1
S31560002870704700BF00800D4080B586B000AF03464C
S315600028800A46FB8013467B71B7F906301B0A7B61EB
S31560002890FB8803F01F033B617B69062B02D90D4859
S315600028A0FFF7E4FC7B699A000B4B1344FB60FB6803
S315600028B01A6803213B6901FA03F3DB431A4079790D
S315600028C03B6901FA03F31A43FB681A6000BF1837C5
S315600028D0BD4680BD4051006068C00F4080B584B081
S315600028E000AF78600023FB6009E00D4AFB6852F890
S315600028F023307A689A4206D0FB680133FB60FB6836
S31560002900052BF2D900E000BFFB68052B02D905480C
S31560002910FFF7ACFCFB6818461037BD4680BD00BFAC
S31560002920605100608451006080B586B000AFF86089
S31560002930B9607A60F868FFF7D1FF78617B69052B2B
S315600029400DD8214A7B6932F91330B3F1FF3F06D0C7
S315600029501D4A7B6932F91330184602F012F8FB689B
S315600029605A690121BB6801FA03F3DB431A40FB682D
S315600029705A617B681B78002B0AD1FB685A68012173
S31560002980BB6801FA03F3DB431A40FB685A600FE049
S315600029907B685B781A46B968F86800F017F8FB68D8
S315600029A05A680121BB6801FA03F31A43FB685A604F
S315600029B07B689B781A46B968F86801F0F1FF00BF3A
S315600029C01837BD4680BD00BF7851006080B584B0C1
S315600029D000AFF860B9601346FB71BB681F2B02D964
S315600029E00B48FFF743FCFB79002B06D10122BB683D
S315600029F09A40FB68C3F8882005E00122BB689A40CC
S31560002A00FB68C3F8842000BF1037BD4680BD00BF99
S31560002A10B851006080B487B000AFF860B960134603
S31560002A20FB71BB683B61FB68DA690121BB6801FA2F
S31560002A3003F3DB431A40FB68DA61BB680F2B03D8EC
S31560002A40FB680C337B6105E0FB6810337B613B6997
S31560002A50103B3B61FB79013B042B52D801A252F833
S31560002A6023F000BF792A0060912A0060B52A0060D1
S31560002A70D92A0060EF2A00607B691A683B695B00AF
S31560002A80032101FA03F3DB431A407B691A6039E0DC
S31560002A907B691A683B695B00032101FA03F3DB4338
S31560002AA01A403B695B00012101FA03F31A437B6913
S31560002AB01A6027E07B691A683B695B00032101FAAB
S31560002AC003F3DB431A403B695B00022101FA03F31F
S31560002AD01A437B691A6015E07B691A683B695B007B
S31560002AE0032101FA03F31A437B691A600AE0FB6863
S31560002AF0DA690121BB6801FA03F31A43FB68DA61FC
S31560002B0000E000BF00BF1C37BD465DF8047B704720
S31560002B1080B500AF054B1B68054A526811460548EB
S31560002B209847BFF34F8F00BF00BF80BD24200020B1
S31560002B30102000200040184080B500AF054B1B6890
S31560002B40054A9268114605489847BFF34F8F00BF04
S31560002B5000BF80BD24200020102000200080184087
S31560002B6080B500AF054B1B68054AD268114605481B
S31560002B709847BFF34F8F00BF00BF80BD2420002061
S31560002B801020002000C0184080B500AF054B1B68C0
S31560002B90054A1269114605489847BFF34F8F00BF33
S31560002BA000BF80BD242000201020002000001940B6
S31560002BB080B584B000AF6D4BD3F888306B4A43F470
S31560002BC07003C2F88830694B694A9A60694B1B8901
S31560002BD09BB2684A23F001039BB21381664B1B8943
S31560002BE09BB2654A23F001039BB21381614B1B883C
S31560002BF09BB203F00403002B07D05E4B1B889BB28D
S31560002C005C4A23F004039BB213805B4B1B889BB228
S31560002C1003F00403002B07D0574B1B889BB2564A20
S31560002C2023F004039BB21380544B1B6803F40053D8
S31560002C30002B03D0514B524A5A6007E04F4B4CF27F
S31560002C4020525A604D4B4DF628125A604B4B4FF648
S31560002C50FF729A60494B1B6823F0A003474A43F012
S31560002C6020031360474B1B6803F00103002B05D05C
S31560002C70444B1B68434A23F0010313603B4B5B697B
S31560002C8003F40033B3F5003F22D0384B5B6903F49D
S31560002C900033002B1BD1BFF34F8F00BFBFF36F8F85
S31560002CA000BF324B0022C3F85022BFF34F8F00BFE4
S31560002CB0BFF36F8F00BF2D4B5B692C4A43F4003323
S31560002CC05361BFF34F8F00BFBFF36F8F00E000BF4C
S31560002CD0264B5B6903F48033B3F5803F3FD0234BCB
S31560002CE05B6903F48033002B38D1204B0022C3F894
S31560002CF08420BFF34F8F00BF1C4BD3F88030FB603E
S31560002D00FB685B0BC3F30E03BB60FB68DB08C3F3B6
S31560002D1009037B60BB685A0143F6E07313407A6827
S31560002D20920712491343C1F860327B685A1E7A6073
S31560002D30002BEFD1BB685A1EBA60002BE5D1BFF3FA
S31560002D404F8F00BF094B5B69084A43F48033536178
S31560002D50BFF34F8F00BFBFF36F8F00E000BF00F07F
S31560002D60A1F800BF1037BD4680BD00BF00ED00E092
S31560002D700020006000800B4000000D4000C00B404A
S31560002D8020C528D910E000E080B483B000AF786039
S31560002D907B68DAB20C4B13441A687B685B0BC3F32F
S31560002DA00C017B681B0A03F01F0301FA03F31A4048
S31560002DB07B681B0A03F01F0322FA03F318460C37DD
S31560002DC0BD465DF8047B704700C00F4080B483B099
S31560002DD000AF78607B68DAB20C4B13441A687B6884
S31560002DE05B0BC3F30C017B681B0A03F01F0301FA3C
S31560002DF003F31A407B681B0A03F01F0322FA03F3EE
S31560002E0018460C37BD465DF8047B704700C00F401E
S31560002E1080B400AF074BD3F8703203F01003002B79
S31560002E2002D1054B1B6800E0044B1846BD465DF8B1
S31560002E30047B704700800D400820002000366E013C
S31560002E4090B583B000AF1348FFF79EFF0346002B93
S31560002E5010D11148FFF7D6FB0346104AA2FB0323A5
S31560002E609C080F48FFF7B2FF03460133B4FBF3F348
S31560002E707B600AE0FFF7CCFF04460948FFF7A6FF30
S31560002E8003460133B4FBF3F37B607B6818460C376B
S31560002E90BD4690BD246600800D001000ABAAAAAAAC
S31560002EA024E0078080B400AF054BDB68044A43F03A
S31560002EB04003D36000BFBD465DF8047B704700BF2A
S31560002EC000000A4080B584B000AF786039607B68E6
S31560002ED09B0EFB607B68DAB21F4B13441A687B68F3
S31560002EE05B0BC3F30C017B681B0A03F01F0301FA3B
S31560002EF003F3DB4302EA03017B681B0A03F01F034B
S31560002F003A689A407B685B0BC3F30C007B681B0ACC
S31560002F1003F01F0300FA03F31A407B68D8B20E4B26
S31560002F200344184641EA02030360FB68202B02D97A
S31560002F300A48FFF79BF9FB68202B09D000BF064BB8
S31560002F409A6CFB6822FA03F303F00103002BF6D1B7
S31560002F5000BF1037BD4680BD00C00F40D451006031
S31560002F6080B584B000AF786039607B689B0EFB608B
S31560002F707B68DAB21F4B13441A687B685B0BC3F33A
S31560002F800C017B681B0A03F01F0301FA03F3DB43A2
S31560002F9002EA03017B681B0A03F01F033A689A4042
S31560002FA07B685B0BC3F30C007B681B0A03F01F0393
S31560002FB000FA03F31A407B68D8B20E4B03441846F6
S31560002FC041EA02030360FB68202B02D90A48FFF737
S31560002FD04DF9FB68202B09D000BF064B9A6CFB6845
S31560002FE022FA03F303F00103002BF6D100BF10377A
S31560002FF0BD4680BD00C00F406C52006080B586B093
S3156000300000AF03460A46FB8013467B71B7F906306C
S315600030101B0A7B61FB8803F01F033B617B69062B00
S3156000302002D90D48FFF722F97B699A000B4B1344CE
S31560003030FB60FB681A6803213B6901FA03F3DB4313
S315600030401A4079793B6901FA03F31A43FB681A60FF
S3156000305000BF1837BD4680BD0453006068C00F408E
S3156000306080B483B000AF7860044A7B68136000BFA9
S315600030700C37BD465DF8047B704700BF0820002012
S3156000308080B483B000AF7860044A7B68136000BF89
S315600030900C37BD465DF8047B704700BF0C200020EE
S315600030A080B485B000AF78600B46FB701346BB708A
S315600030B07B689A680A4B1340FB60FB789B0603F0BB
S315600030C08062FB681A43BB781B0403F47F031A43D0
S315600030D07B689A6000BF1437BD465DF8047B704715
S315600030E0FFFF00FB80B500AF4FF40040FFF7C8FF5D
S315600030F0C14BD3F8C032C04A43F48033C2F8C03201
S31560003100BD4BD3F8C032BC4A23F40033C2F8C03298
S31560003110BA48FFF7A5FF0020FFF778F9FFF7C6F971
S315600031200120FFF7A9F9B64B1B6823F0FF03B44AE9
S3156000313043F07F031360B34BDB6823F01F03B14A90
S3156000314043F01203D36000BFAE4B1B6803F000432D
S31560003150B3F1004FF8D10021AB48FFF701FF4FF400
S31560003160887001F04FFC40F2162001F04BFC032101
S31560003170A648FFF7F5FEA648FFF706FA0321A5481D
S31560003180FFF7A0FE0021A448FFF79CFE0021A3489C
S31560003190FFF798FE0021A248FFF794FE4FF48A706D
S315600031A001F030FC4FF48B7001F02CFC182001F01C
S315600031B029FC1A2001F026FC4FF4867001F022FCEF
S315600031C001219848FFF7CCFE8D4B1B6A8C4A23F091
S315600031D0004313620B219448FFF7C2FE4FF48070E0
S315600031E001F010FC4FF4817001F00CFC04218F4853
S315600031F0FFF7B6FE02218E48FFF764FE162001F047
S3156000320001FC03218B48FFF7ABFE00218A48FFF7DC
S3156000321059FE40F2125001F0F5FB03218748FFF793
S315600032209FFE01218648FFF79BFE00218548FFF738
S3156000323049FE40F2165001F0E5FB03218248FFF794
S315600032408FFE01218148FFF78BFE00218048FFF742
S3156000325039FE40F2062001F0D5FB4FF4027001F012
S31560003260D1FB00217B48FFF77BFE00217A48FFF700
S3156000327029FE4FF4A36001F0C5FB1C2001F0C2FBE0
S315600032800C2001F0BFFB4FF48C7001F0BBFB0021FA
S315600032907248FFF765FE00217148FFF713FE40F2A2
S315600032A00E5001F0AFFB01216E48FFF759FE072172
S315600032B06D48FFF755FE03216C48FFF703FE40F2A9
S315600032C0025001F09FFB01216948FFF749FE072183
S315600032D06848FFF745FE03216748FFF7F3FD0021C5
S315600032E06648FFF7EFFD6648FFF7F2F81B210020FE
S315600032F0FFF790FA10210120FFF78CFA12210220C5
S31560003300FFF788FA12210320FFF784FAFFF72EF9F8
S3156000331001225C49384801F084FB374BD3F87031A1
S31560003320354A23F40043C2F87031334BD3F8703119
S31560003330314A23F40003C2F870312F4B1B6F2E4ABB
S3156000334043F4005313672E4B1B6E2D4A23F0700314
S3156000335013662B4B1B6E23F00F03294A43F00103C0
S315600033601366274B1B6E264A23F460031366244BB1
S315600033701B6E23F4F813224A43F490131366204B12
S315600033801B6E1F4A23F4807313661D4B1B6E1C4A0B
S3156000339023F0800313661A4B1B6E194A23F0807361
S315600033A0136600220021384801F062FB00220321E7
S315600033B0354801F05DFB00220621334801F058FBD9
S315600033C000220A21304801F053FB002200212E48DA
S315600033D0FFF766FE2C4B5B692B4A23F080535361E3
S315600033E0294B5B69284A23F000535361274B284ACF
S315600033F01A6000BF80BD00BF00800D4000366E01C0
S3156000340000C00F400000084014EA00041468008001
S31560003410A05300601872008014390014186C008084
S315600034201C2600801CE0078020FB018018FA0180C2
S315600034301864008024F90180186E008028E60080F8
S3156000344028E007801C6A008028F6008028F0078044
S315600034501C6E008038F307803832008024E00780D5
S315600034602466008030F9008030F600803074008079
S3156000347028E9008028F90180207300800C200080F4
S315600034808C5300600D00700000C00A4000200020D0
S315600034900065CD1D80B586B000AF03460A46FB8049
S315600034A013467B71B7F906301B0A7B61FB8803F014
S315600034B01F033B617B69062B02D90D48FEF7D6FEDA
S315600034C07B699A000B4B1344FB60FB681A68032107
S315600034D03B6901FA03F3DB431A4079793B6901FAE8
S315600034E003F31A43FB681A6000BF1837BD4680BDF8
S315600034F00453006068C00F4080B584B002AF40F2EC
S31560003500024001F0EBFA01233B7100237B7100233B
S31560003510BB713B1D1A4600212648FFF705FA0123B9
S315600035203B7000237B700023BB703B461A460B2121
S315600035302048FFF7F9F9002301931F4B00930023FE
S31560003540002205211D4801F0D8FA002301931C4B87
S3156000355000930023002205211A4801F0CEFA0023C9
S315600035600193194B0093002300220321174801F0B1
S31560003570C4FA174B9A6E1649164B13408B664FF476
S31560003580855301930E4B00930023002205210D48BD
S3156000359001F0D0FA49F2B10301930B4B009300237B
S315600035A000220321094801F0C5FA00BF0837BD466D
S315600035B080BD00BF00801B406C811F40BC801F40E7
S315600035C040811F4090801F40D4801F4024801F4050
S315600035D000C00A40FEF7FFFFF8B5304F3C68002890
S315600035E051D10020F8BD2368B3F1805F39D1D4E9A9
S315600035F0013151B10D68B5F1805F06D1DD1C4B68B4
S315600036002B4463608B68A360F1E7B34207DB7345C5
S3156000361005DC20464FF0005340F80C3BE2E763457B
S3156000362011D920464FF00055666040F80C5B22F0D9
S31560003630030542199B1BA260033B4FF08054445123
S31560003640C2E90131CEE761B9A0EB830000F0CCFEA0
S315600036500130C6D04FF00053C4E9003604F10C00C7
S31560003660C0E72546A468002CBDD10C3000F0BCFE36
S31560003670431CB6D04FF00053C0E90036846055B99C
S3156000368038600C30AEE7C21C9608002506F10A0CBD
S3156000369006F1030EE7E7A860F3E700BF30200020DD
S315600036A010B5FFF799FF044628B90449172201F0BF
S315600036B025FD00F0B9FF204610BD00BFAC53006089
S315600036C010B5174A1749002001F06DFB4FF480735F
S315600036D04FF480620021124801F062FA124A1349DF
S315600036E0012001F060FB4FF480730F484FF4806255
S315600036F0002101F055FA0E4B1B68022B0EDD0D4AB8
S315600037000A49022001F04FFBBDE8104009484FF41A
S3156000371080734FF48062002101F042BA10BD00BF91
S3156000372034200020C453006070200020C65300601F
S31560003730A8530060AC2000202DE9F04F9DB0CDE984
S315600037400823279D002304460493269F17F8010B40
S3156000375018B904981DB0BDE8F08F25281AD0049AD0
S315600037600899049B8A42099A03F101064FEAE373BA
S31560003770934108DAA368013B002BA36006DB23684C
S315600037805A1C2260187004962697DEE7214601F0DF
S315600037906AFAF8E74FF0000909E02D2E04D0302EC2
S315600037A00FD149F4007901E049F001095F46BB4653
S315600037B01BF8016B2B2E2BD0EFD8202E2BD0232E6F
S315600037C02CD02A2E2DD155F8048B9BF80060B8F1C9
S315600037D0000FBCBFC8F1000889F0010907F1020BB0
S315600037E028EAE8732E2E0A934FD19BF800602A2EA2
S315600037F024D00BF1010B4FF0000A0A22A6F1300328
S31560003800D9B2092920D81BF8016B02FB0A3AF5E701
S3156000381049F00209CAE749F00409C7E749F008090F
S31560003820C4E74FF000080A22A6F13003D9B209298D
S31560003830D6D81BF8016B02FB0838F5E755F804ABE0
S315600038409BF801600BF1020BBAF1000F1DDB49F02A
S3156000385010096C2E0ED19BF800606C2E03BF9BF88E
S31560003860016049F060090BF1020B0BF1010B18BF07
S3156000387049F020094C2E01D0712E09D15B4649F0E2
S31560003880600913F8016B9B4613E04FF0000AE0E70E
S31560003890682E66D19BF80060682E03BF9BF80160B6
S315600038A049F480790BF1020B0BF1010B18BF49F05B
S315600038B08009782E09DC572E60DC412E00F0C98223
S315600038C000F3A680002E00F0FC800A9B5F1E19F0B4
S315600038D00103059340F0D58019F4007FDDF8109060
S315600038E04B4614BF30222022DB17BA46BAF1010AD2
S315600038F040F1AA80B8F1000F049A0A99CCBF3B4602
S31560003900002313440A9AC1F10107A2F10202D8BF4B
S315600039100027174408995A1C8B4204924FEAE372B7
S31560003920099B72EB030309DAA368013B002BA360D2
S31560003930C0F2A98023685A1C22601E70059B73B171
S31560003940049EB8464FEAE6794FF0200AB8F10108BE
S3156000395040F19E80049B002FA8BFDB1904932F467D
S31560003960BDE06A2E05D149F040095B4613F8016B4C
S3156000397089E77A2EF9D0742E9BD1F6E7A6F1580323
S31560003980202BA2D801A252F823F000BF473C00606A
S31560003990CB380060CB380060CB380060CB38006035
S315600039A0CB380060CB380060CB380060CB38006025
S315600039B0533E0060CB380060433A0060ED3D0060E6
S315600039C01B3A00601B3A00601B3A0060CB3800600F
S315600039D0ED3D0060CB380060CB380060CB380060CE
S315600039E0CB380060C93A0060493D0060E33C006046
S315600039F0CB380060CB380060053B0060CB38006098
S31560003A00A93D0060CB380060CB380060953C006013
S31560003A1026F00203452B7FF458AF073525F00707DC
S31560003A20F7E8022319F0100FCDE912234FF00003D7
S31560003A3008BF4FF0060A49F480691A4619461846C7
S31560003A4055E155F8046B40E708998945099973EB88
S31560003A50010108DAA16801390029A16008DB216843
S31560003A60481C20600A7019F1010943F100033DE723
S31560003A70104621460793069201F0F5F8DDE9062324
S31560003A80F1E7049B46E72146304601F0ECF855E73E
S31560003A90089B9E42099B79EB030309DAA368013B05
S31560003AA0002BA36008DB23685A1C226083F800A001
S31560003AB0013649F1000949E72146202001F0D3F893
S31560003AC0F6E70BF1FF3B4AE719F0400F2B68049AC3
S31560003AD005F1040707D00499D217C3E900123D46E1
S31560003AE0049E5F464FE619F0200F01D01A60F6E794
S31560003AF019F4807F01D01A70F1E719F0800FF5D0C4
S31560003B001A80ECE72F46A14B57F8046B002E08BFCE
S31560003B101E46304601F063F819F0100F059004D088
S31560003B2050450346A8BF534605930A9B059A9D1ABE
S31560003B3019F00103069313D1DDF8108019F4007FA4
S31560003B4014BF302320234FEAE87AA946B9F1010968
S31560003B5027D5049A25EAE5731A44013D0492ED1AC5
S31560003B60DDF810804FF000094FEAE87A059B994529
S31560003B7032DBDDE90432002AA8BF9B180493069B5A
S31560003B80002BACD0049EA8464FEAE6794FF0200A97
S31560003B90B8F101083ED5049B002DA8BF5B190493BC
S31560003BA09DE7089A9045099A7AEB020208DAA268BC
S31560003BB0013A002AA26008DB2268511C216013705A
S31560003BC018F101084AF1000AC0E718462146079332
S31560003BD001F049F8079BF3E7089B9845099B7AEB48
S31560003BE003030ADAA368013B002BA3600CDB23689E
S31560003BF05A1C226016F809201A7018F1010809F19A
S31560003C0001094AF1000AB1E716F80900214601F0F8
S31560003C102AF8F2E7089B9E42099B79EB030309DACF
S31560003C20A368013B002BA36008DB23685A1C226053
S31560003C3083F800A0013649F10009A9E72146202052
S31560003C4001F011F8F6E719F040021DBF073525F0BF
S31560003C5007052F462F461ABF57F8083B6A6857F87C
S31560003C60043B19F080010ED09BB2002248494948B6
S31560003C7019F0080F08BF084619F0100F01D029F493
S31560003C800079454933E019F4807F1CBF03F0FF03D8
S31560003C900A46EBE719F040021DBF073525F0070518
S31560003CA02F462F461ABF57F8083B6A6857F8043BF9
S31560003CB019F080010ED09BB200223549374819F0C1
S31560003CC0080F08BF084619F0100F01D029F40079D3
S31560003CD033490CE019F4807F1CBF03F0FF030A46EA
S31560003CE0EBE72F462E4957F8043B2C480022089DE7
S31560003CF0AC46049DBCEB05050695099DAC46049D46
S31560003D00CDE90EA06CEBE5754FF0FF300DF1500E6E
S31560003D10CDE910000795002075464FF0550C01302F
S31560003D20202805F801CBFAD119F4826F04BF01206F
S31560003D300E906E2E00F39580472E00F31181402E73
S31560003D4000F39F800025A4E019F040021DBF0735EF
S31560003D5025F007052F462F461ABF57F8083B6A68B5
S31560003D6057F8043B19F0800108D09BB200220D4839
S31560003D7019F0080F064908BF084652E019F4807F1B
S31560003D801CBF03F0FF030A46F1E700BFC85300609B
S31560003D90C3530060CF530060DD530060D2530060B0
S31560003DA0EE530060D553006019F040021DBF073521
S31560003DB025F007052F462F461ABF57F8083B6A6855
S31560003DC057F8043B19F0800109D09BB2002219F024
S31560003DD0100102D029F400790021B94887E719F467
S31560003DE0807F1CBF03F0FF030A46F0E719F0400F1F
S31560003DF015BF07352F4625F0070557F8043B1BBF4F
S31560003E006A682F46DA1757F8083B19F0800F10D00A
S31560003E1043F3C0321BB2002A12DA5B42A94862EB56
S31560003E20420219F010013FF462AF29F400790021D3
S31560003E305DE719F4807F1CBF43F3C0125BB2EAE70B
S31560003E4019F0020F03D1A04819F0040F92E79F48BA
S31560003E50E7E719F0100F04BF49F010094FF00D0A9B
S31560003E60DBE56F3E0025092E13D8DFE816F0C300A8
S31560003E70B3001200120012001200100112001200AC
S31560003E80B300A6F141000125854015F0510540F0CB
S31560003E90018119F480630B9300F00C8100230E936B
S31560003EA0109B002BC4BF03F1FF330E93119B002BB5
S31560003EB003DD0E9A013B13440E930E9B0F98EE188A
S31560003EC000F08DFE0A9B9B1B1B1A40F20126059390
S31560003ED019EA060609F001030C9300F01D8100261D
S31560003EE0B246F3170A930F9B5A1C0F9293F8008001
S31560003EF0B8F1000F40F015810C9BABB919F4007F47
S31560003F00059A0A9214BF30232023B1464FEAE67A17
S31560003F100A9A013A0A9240F12181059B5A1E23EAC8
S31560003F20E373D21A05921E440B9B002B40F060810E
S31560003F30B0464FEAE6794FF0300A0E9B013B002B04
S31560003F400E9380F2A181B0464FEAE6792B46002BAC
S31560003F5003F1FF3A00F3B481002DA8BF761949E159
S31560003F60A6F1580011283FF6EDAE11283FF6EAAEED
S31560003F7001A555F820F000BFDD3F0060453D0060BB
S31560003F80453D0060453D0060453D0060453D006043
S31560003F90453D0060453D0060453D006095400060E0
S31560003FA0453D0060453D00608D4000609540006085
S31560003FB09540006095400060453D00608D40006022
S31560003FC003F00F001B09085C0EF8010B43EA02734D
S31560003FD00135120953EA0200F2D15AE70025F9E7E2
S31560003FE003F007013031DB080EF8011B43EA427328
S31560003FF00135D20853EA0201F2D14AE75E08990810
S3156000400041EA827146EAC27676184FEA920040EB40
S315600040105200310941EA0071761840EB1010310AFE
S3156000402041EA0061711840EB10200E0C46EA00462A
S315600040308E1940EB1040361840F10000F60846EA4B
S31560004040407613F1060C4FEAD000A6FB08A142F1B8
S31560004050000208FB0011BCEB0A0C62EB01024FEA9E
S315600040601C1C4CEA027C1CEB060C03F130030CEBC7
S315600040708C01A3EB41030EF8013B05F10105634694
S3156000408040EB121253EA0201B8D102E700254FF065
S315600040900A08F7E711AB039310AB02930EAB0193DB
S315600040A00FAB289D009314AA4B4612A93046A84729
S315600040B00546EEE60E9B0B9A5B1B48BF1346FBE676
S315600040C0C3530060D7530060D9530060DB53006070
S315600040D0069B9E42079B78EB03030ADAA368013BC3
S315600040E0002BA36013DB23685A1C22604FF020026A
S315600040F01A70013648F10008AAEB0603002BE7DACE
S31560004100059B23EAE376AAEB06030593E8E62146D8
S31560004110202000F0A8FDECE7059BB04603F1FF3ACE
S31560004120EAE7069B079A9A450A9B934106F10106C0
S3156000413009DAA368013B002BA3600ADB23685A1CDB
S31560004140226083F800800A9B1AF1010A43F100039A
S31560004150C8E62146404600F086FDF4E7069A91459A
S31560004160079A7AEB020208DAA268013A002AA2608C
S3156000417008DB2268511C2160137019F101094AF1AC
S31560004180000AC5E6184621460D9300F06CFD0D9BAE
S31560004190F3E714AB4FEAE67913F808003C281ED023
S315600041A03E285BD1B246119B013B002B11931CDB71
S315600041B0069B9E42079B79EB03030AF1010A0ADA22
S315600041C0A368013B002BA36043DB23685A1C226073
S315600041D04FF030021A70013649F10009E3E7B24642
S315600041E0109B013B002B109317DA08F10108564625
S315600041F04545CEDC0C9B6BB1DDF8148035464FEA45
S31560004200E6794FF0200AB8F1010875D5059B002BB9
S31560004210A8BFF618049B3344C1E4069B9E42079BE5
S3156000422079EB03030AF1010A0ADAA368013B002B62
S31560004230A36009DB23685A1C22604FF030021A70B3
S31560004240013649F10009CBE72146302000F00BFD2D
S31560004250F6E72146302000F006FDBCE7069B9E424D
S31560004260079B79EB030306F1010ABEDAA368013BFB
S31560004270002BA36004DB23685A1C22601870B4E725
S31560004280214600F0F0FCB0E7069B9845079B79EB6A
S31560004290030306F1010609DAA368013B002BA3605C
S315600042A009DB23685A1C226083F800A018F1010814
S315600042B049F1000941E62146302000F0D4FCF5E7DB
S315600042C0069B9845079B79EB03030BDAA36814AA50
S315600042D0013B002B12F80A00A36009DB23685A1C15
S315600042E02260187018F1010849F1000953462EE65C
S315600042F0214600F0B8FCF5E7069B9D42079B79EBEB
S31560004300030309DAA368013B002BA36008DB23687B
S315600043105A1C226083F800A0013549F1000972E752
S315600043202146202000F09FFCF6E700BFF0B50C4662
S3156000433095B016461F46054610B931BB012404AD3B
S315600043403C22002105A800F00FFC0A2308936FF0B9
S31560004350004307930E4B05950025621ECDE9017358
S3156000436000962B4605A8FFF7E7F9079A013AAA4295
S315600043700446079204DB059B1D70204615B0F0BD10
S3156000438005A9284600F06FFCF7E74FF0FF34F4E725
S315600043909D4B00600FB41FB506AB012153F8042B8B
S315600043A0039302A80192FFF7C1FF041E14DD611C8E
S315600043B008460091FFF710F9029068B1DDE9001236
S315600043C0039BFFF7B3FF074B0299186D224600F077
S315600043D095FE029800F0CAFB204604B0BDE8104086
S315600043E004B070473420002070B50B4D2B680BB9B4
S315600043F00A4B2B6003302E6820F0030434442046B9
S3156000440000F006F910B92C60304670BD044B0C22E2
S315600044101A604FF0FF36F7E72C200020EC200020D2
S31560004420282000202DE9F041D5685769EB028046C7
S315600044300E46144605D5384600F042FE45F0100596
S31560004440A061124B2B408BB1A169384600F04AFE41
S31560004450002806DAE36843F08003E3604FF0FF303C
S3156000446011E025F4003525F01005E5603246414639
S31560004470384600F043FE20F00041761AA1690E44EA
S31560004480A6610028E6D1BDE8F08100BF10000200F9
S31560004490F8B5044638B90B4B0B4E1F680546A74264
S315600044A005DC2846F8BDBDE8F84000F00FBD304693
S315600044B000F00CFD002818BF4FF0FF3501343C3684
S315600044C0EDE700BFA8530060342000202DE9F843D3
S315600044D0C6683D4B334004460D4690461BB90227DD
S315600044E03846BDE8F883D0F81490484600F0EEFDF3
S315600044F007460028F3D1B8F1010F2CD0B8F1020FAE
S315600045002ED0B8F1000FEAD1002DE8DBB00404D557
S315600045102368E26A9A4238BFE362A169A9420EDC67
S315600045202368E26A934238BF134622695818801A94
S31560004530A84204DB206B01EB000CAC4534DC0023A5
S31560004540C4E9013346F02006A56226F4032626F068
S315600045504006E660C4E7204600F038F80544D3E735
S31560004560484600F0ADFDB0F1000CE26804DA42F0B6
S315600045708002E2600127B3E723681846A3691946FB
S31560004580E36A98422CBF0918C9180B46216992063E
S31560004590A3EB010303D5A26A9342B8BF13466345F2
S315600045A0ACBFED186544AFE76D1AB10744BF281A72
S315600045B0A060F10744BF9B1AEB1A154448BF6360BD
S315600045C0256026F02006C0E703001000C3689A073E
S315600045D005D10E4B21221A604FF0FF30704703F071
S315600045E020021B0309D512B1806A0138704703683F
S315600045F0826900691344181AF7E70AB1806A70473E
S315600046000368826900691344181A704728200020DD
S31560004610044B23B1984234BF0020012070471846EE
S31560004620704700BFEC26002018200149ABBE7047DA
S315600046302600020008B5FDF718FE08BD08B5FDF7AF
S3156000464014FE08BD08B5FDF710FE08BD08B5FDF7F8
S315600046500CFE08BD08B5FDF708FE08BD08B5FDF7F8
S3156000466004FE08BD08B5FDF700FE08BD08B5FDF7F8
S31560004670FCFD08BD08B5FDF7F8FD08BD08B5FDF7FA
S31560004680F4FD08BD08B5FDF7F0FD08BD08B5FDF7FA
S31560004690ECFD08BD08B5FDF7E8FD08BD08B5FDF7FA
S315600046A0E4FD08BD08B5FDF7E0FD08BD08B5FDF7FA
S315600046B0DCFD08BD08B5FDF7D8FD08BD08B5FDF7FA
S315600046C0D4FD08BD08B5FDF7D0FD08BD08B5FDF7FA
S315600046D0CCFD08BD08B5FEF71BFA08BD08B5FEF7A8
S315600046E02BFA08BD08B5FEF73BFA08BD08B5FEF71C
S315600046F04BFA08BD08B5FDF7B8FD08BD08B5FDF76E
S31560004700B4FD08BD08B5FDF7B0FD08BD08B5FDF7F9
S31560004710ACFD08BD08B5FDF7A8FD08BD08B5FDF7F9
S31560004720A4FD08BD08B5FDF7A0FD08BD08B5FDF7F9
S315600047309CFD08BD08B5FDF798FD08BD08B5FDF7F9
S3156000474094FD08BD08B5FDF790FD08BD08B5FDF7F9
S315600047508CFD08BD08B5FDF788FD08BD08B5FDF7F9
S3156000476084FD08BD08B5FDF780FD08BD08B5FDF7F9
S315600047707CFD08BD08B5FDF778FD08BD08B5FDF7F9
S3156000478074FD08BD08B5FDF770FD08BD08B5FDF7F9
S315600047906CFD08BD08B5FDF768FD08BD08B5FDF7F9
S315600047A064FD08BD08B5FDF760FD08BD08B5FDF7F9
S315600047B05CFD08BD08B5FDF758FD08BD08B5FDF7F9
S315600047C054FD08BD08B5FDF750FD08BD08B5FDF7F9
S315600047D04CFD08BD08B5FDF748FD08BD08B5FDF7F9
S315600047E044FD08BD08B5FDF740FD08BD08B5FDF7F9
S315600047F03CFD08BD08B5FDF738FD08BD08B5FDF7F9
S3156000480034FD08BD08B5FDF730FD08BD08B5FDF7F8
S315600048102CFD08BD08B5FDF728FD08BD08B5FDF7F8
S3156000482024FD08BD08B5FDF720FD08BD08B5FDF7F8
S315600048301CFD08BD08B5FDF718FD08BD08B5FDF7F8
S3156000484014FD08BD08B5FDF710FD08BD08B5FDF7F8
S315600048500CFD08BD08B5FDF708FD08BD08B5FDF7F8
S3156000486004FD08BD08B5FDF700FD08BD08B5FDF7F8
S31560004870FCFC08BD08B5FDF7F8FC08BD08B5FDF7FA
S31560004880F4FC08BD08B5FDF7F0FC08BD08B5FDF7FA
S31560004890ECFC08BD08B5FDF7E8FC08BD08B5FDF7FA
S315600048A0E4FC08BD08B5FDF7E0FC08BD08B5FDF7FA
S315600048B0DCFC08BD04207146084202D0EFF3098093
S315600048C001E0EFF3088081690A884BF6AB639A4290
S315600048D000D0FEE70231816120210160704700BF90
S315600048E080B483B000AF786039603B681B0CC3F35B
S315600048F00B027B6813441B6803F48033002B14BFE0
S3156000490001230023DBB218460C37BD465DF8047BF5
S31560004910704780B483B000AF786039603B681B0C29
S31560004920C3F30B027B6813441A683B6803F01F03EA
S3156000493022FA03F303F00103002B14BF01230023C3
S31560004940DBB218460C37BD465DF8047B704780B510
S3156000495082B000AF786039603B681B0CC3F30B0212
S315600049607B6813441B689B0B03F00303002B03D186
S31560004970FDF734FD034600E0002318460837BD46C0
S3156000498080BD80B582B000AF0346FB80B7F90630C4
S3156000499003211846FDF770FF00BF0837BD4680BD8E
S315600049A080B584B000AFF860B9601346FB71FB79DF
S315600049B01A46B968F868FEF72DF800BF1037BD468D
S315600049C080BD80B485B000AFB9607B600346FB7381
S315600049D01346BB73012318461437BD465DF8047B46
S315600049E0704780B582B000AFFEF72AFA78607B68C0
S315600049F001224FF4E1310120FFF7E3FF00BF0837E2
S31560004A00BD4680BD80B582B000AF0346FB80B7F976
S31560004A10063000211846FEF7F1FA00BF0837BD469A
S31560004A2080BD80B485B000AFF860B9601346FB7195
S31560004A30FB79002B0BD0BB681B0CC3F30B02FB6826
S31560004A40134404331A464FF4803313600AE0BB689C
S31560004A501B0CC3F30B02FB68134408331A464FF46E
S31560004A608033136000BF1437BD465DF8047B704722
S31560004A7080B485B000AF78600B46FB701346BB70A0
S31560004A80FB78032B12D97B685A68FB78032101FAFD
S31560004A9003F3DB431340FB60BB7803F00302FB7850
S31560004AA09A40FB681A437B685A6011E07B685A68D3
S31560004AB0FB78072101FA03F3DB431340FB60BB7805
S31560004AC003F00702FB789A40FB681A437B685A60DA
S31560004AD000BF1437BD465DF8047B704780B582B071
S31560004AE000AF0346FB80B7F9063003211846FEF790
S31560004AF0D1FC00BF0837BD4680BD80B485B000AF2D
S31560004B00F860B9607A603B60BB6803F00701FB69D7
S31560004B101B0103F01002FB680A431A607B68002BD6
S31560004B2002D07B683A681A6000BF1437BD465DF8EC
S31560004B30047B704780B485B000AFF860B9607A6076
S31560004B403B60BB69002B02D0BB69FA691A6000BF83
S31560004B501437BD465DF8047B704708B5FEF7B0FDB7
S31560004B60BDE80840FDF702BC00F08BBAA8B14FF073
S31560004B70805340F80C3C50F8042C72B11368B3F1C2
S31560004B80805F0AD150F8083C516803330B4440F803
S31560004B90083C936840F8043CEDE770470020704796
S31560004BA070B5C468A50708D0B2F5007F11D0B2F51C
S31560004BB0806F04D0B2F5807F0BD0012008E000F151
S31560004BC024010123224301610160C361C2600020A8
S31560004BD070BD5E1E6FF07F45AE42F3D3EDE710B554
S31560004BE0431C8207044614D1204654F8042BA2F1D4
S31560004BF0013121EA020111F0803FF5D0D1B281B1D5
S31560004C0012F47F4F0BD012F47F0F14BF204603308F
S31560004C1003E010F8012B002AE3D1C01A10BD023060
S31560004C20FBE70130F9E7C368826923F0200310B51A
S31560004C30C360836A9A4204460ED000F0E8F8E368DF
S31560004C4023F4405323F0100343F01003E360A36A98
S31560004C50A3612369E3622360E36823F4804323F05E
S31560004C604003E36010BDCB6823F4002270B50C46A8
S31560004C70CA609906054602D52046FFF7D4FFD4E9F7
S31560004C8002365A1C10DAB0050ED4C3F1FF2303F5C1
S31560004C907F03FE33A360236846F490365A1CE660B1
S31560004CA022601D70E8B270BD41F28A023240022A6B
S31560004CB007D0002346F08006A360E6604FF0FF3021
S31560004CC0F1E74AF210033340B3F5004F0AD10021F1
S31560004CD02046FFF7FBFBE368990602D52046FFF7FF
S31560004CE0A2FFE66846F4903316F4706FE3600ED167
S31560004CF0606900F0EBF900B372051ED504F1240378
S31560004D00236123600123E36146F49233E36013F485
S31560004D10106F2268266926D0E36A9A422CBFC6EBDA
S31560004D200201C6EB0301B9B9731CE3622360E36950
S31560004D3023635A1EA2603570B4E74FF48070FEF7A5
S31560004D40AFFCE26820614FF48073E36146F494330C
S31560004D501A432060E260DAE722463046FFF762FBDC
S31560004D600028E1D0AAE7511CEDB221601570E26A15
S31560004D70206890422CBFC6EB0001C6EB0201E269D7
S31560004D8022635B0503D40A2D01D08A4209DC002325
S31560004D90E6622660A36022463046FFF743FB0028A2
S31560004DA08CD128467FE770B50D46064610461446F8
S31560004DB000F056F82B78722B17D0772B18D0612B12
S31560004DC023D1082348F2020215F8011F2B2912D0BD
S31560004DD0622915D01B07E260666104D502220021B4
S31560004DE02046FFF773FB204670BD00230122EBE7E8
S31560004DF004230222E8E742F0030243F00203E3E7FA
S31560004E0042F0040243F00103DEE70024EBE738B525
S31560004E1001680569C36A0446C06820F40022E2603E
S31560004E2000F08202022A02D04FF0FF3038BD10F443
S31560004E308030FBD0994238BF19468D4208D1E3686D
S31560004E40E562002023F480332560A060E360EDE72F
S31560004E502246491B2846FFF7E5FA0028EFD0E3E72C
S31560004E60F0B5C468A10789B0054622D0220718D4D8
S31560004E70D0E90467FFF70CFB384600F01BF9230501
S31560004E8002D53046FFF772FEA40DA40514F1A54FB6
S31560004E9007D1296A2022684600F02AF9684600F0A0
S31560004EA00BF83C2200212846FFF75EFE002009B081
S31560004EB0F0BD4FF0FF30FAE710B50446FFF78FFEFE
S31560004EC001462046BDE8104000F006B9C36870B5DB
S31560004ED013F00306044611D09B0611D5856AFFF7C9
S31560004EE0A2FEE36823F44053E3602046FFF78FFF9A
S31560004EF00022064629462046FFF7E8FA304670BD8E
S31560004F00816905680D4401696D1AEAE75FF0000C76
S31560004F1030B51C0022D112006FD0914206D30546EF
S31560004F200846002100F06FF80446284600F06BF84A
S31560004F300A462146BDE830401CF0404F08BF704726
S31560004F4003D54942404261F100015FEA8C0C38BFEB
S31560004F5070475B42524263F10003704742D41C0CB7
S31560004F6004BF1B040CF1100C13F07F4F04BF1B022F
S31560004F700CF1080C13F0704F04BF1B010CF1040C0C
S31560004F8013F0404F04BF0CF1020C5FEA83035CBF71
S31560004F900CF1010C5B00CCF1200E22FA0EF42343D7
S31560004FA002FA0CF200FA0CF520FA0EF001FA0CF493
S31560004FB0204321FA0EF114461A4600F024F8A4FBA9
S31560004FC00023AA1A71EB03033CBF1B190138CCF10D
S31560004FD0200E22FA0CF203FA0EF4224323FA0CF3A3
S31560004FE00021A7E7821A71EB03033CBF02460B461A
S31560004FF04FF0000141F100009CE700200021BDE870
S31560005000304000F03DB80423B1EB122F09D20902FB
S3156000501041EA10610002013B08BF7047B1EB122FF5
S31560005020F5D30018494134BF9142891A404149413C
S3156000503034BF9142891A4041494134BF9142891A2D
S315600050404041494134BF9142891A4041494134BF88
S315600050509142891A4041494134BF9142891A40417F
S31560005060494134BF9142891A4041494134BF914216
S31560005070891A4041A3F1010313F00F0FD2D1704793
S315600050807047034613F0030F0ED101F0FF0141EAAA
S31560005090012141EA0141043A24BF43F8041BB2F1FD
S315600050A00402F9D202F10402013A24BF03F8011B9B
S315600050B0FAE7704703B469460220ABBE02B0704798
S315600050C003B469460C20ABBE02B0704703B46946B0
S315600050D00920ABBE02B0704703B469460E20ABBE72
S315600050E002B0704703B469460A20ABBE02B070478F
S315600050F00FB469460D20ABBE04B070470FB4694665
S315600051000520ABBE04B07047415353455254204509
S3156000511052524F522022202573200A002E66736C4D
S315600051205F636C6F636B2E633A323538203A2021A9
S315600051306279706173735874616C4F736300FFFFBB
S315600051402E66736C5F636C6F636B2E683A383939A1
S31560005150203A20696E646578203C3D2036554C00C7
S315600051600000000000801B400000004200000000BC
S315600051700000000000000C40FFFF1A011E00FFFF48
S31560005180FFFF1E012E66736C5F6770696F2E633A50
S315600051903537203A20696E7374616E6365203C20F2
S315600051A041525241595F53495A4528735F67706946
S315600051B06F426173657329002E66736C5F677069F1
S315600051C06F2E633A313133203A2070696E203C206D
S315600051D033325500433A5C55736572735C6E786121
S315600051E030363534385C446F63756D656E74735CE8
S315600051F04D43555870726573736F4944455F3131DD
S315600052002E342E305F363135375F707263315C779E
S315600052106F726B73706163655C65766B6D696D7873
S315600052207274313031305F696C65645F626C696E6F
S315600052306B795C647269766572732F66736C5F6393
S315600052406C6F636B2E683A383238203A2062757319
S31560005250795368696674203C3D2043434D5F4E4FE9
S315600052605F425553595F5741495400FF433A5C5575
S31560005270736572735C6E786130363534385C446F52
S3156000528063756D656E74735C4D4355587072657366
S31560005290736F4944455F31312E342E305F36313578
S315600052A0375F707263315C776F726B737061636561
S315600052B05C65766B6D696D787274313031305F69BB
S315600052C06C65645F626C696E6B795C6472697665E5
S315600052D072732F66736C5F636C6F636B2E683A389C
S315600052E03635203A20627573795368696674203C56
S315600052F03D2043434D5F4E4F5F425553595F574183
S31560005300495400FF433A5C55736572735C6E78610D
S3156000531030363534385C446F63756D656E74735CB6
S315600053204D43555870726573736F4944455F3131AB
S315600053302E342E305F363135375F707263315C776D
S315600053406F726B73706163655C65766B6D696D7842
S315600053507274313031305F696C65645F626C696E3E
S315600053606B795C647269766572732F66736C5F6362
S315600053706C6F636B2E683A383939203A20696E64EF
S315600053806578203C3D2036554C00FFFF010000004B
S3156000539000000000010000000000000000000000A6
S315600053A00001000000FFFFFF030000002A2A2A20F8
S315600053B05F437379735F616C6C6F63206661696C60
S315600053C065640A0072007700286E756C6C2900307F
S315600053D0580030780030002D0020002B003031322C
S315600053E033343536373839414243444546003031E7
S315600053F0323334353637383961626364656600FF47
S3096000540040DCB31162
S705600021D1A8
