S02B0000433A5C55736572735C6E786131373134315C446F63756D656E74735C4D43555870726573736F494478
S3150800100000C0012049120008E112000897250008CF
S31508001010E5120008E7120008E9120008EB120008BA
S31508001020000000000000000000000000ED120008AB
S31508001030EF12000800000000F1120008D51700089A
S31508001040B1210008B9210008C1210008C9210008FA
S31508001050D1210008D9210008E1210008E92100086A
S31508001060F1210008F92100080122000809220008D8
S315080010701122000819220008212200082922000846
S3150800108031220008392200084122000849220008B6
S315080010905122000859220008612200086922000826
S315080010A07122000879220008812200088922000896
S315080010B09122000899220008A1220008A922000806
S315080010C0B1220008B9220008C1220008C922000876
S315080010D0D1220008D9220008E1220008E9220008E6
S315080010E0F1220008F9220008012300080923000854
S315080010F011230008192300082123000829230008C2
S315080011003123000839230008412300084923000831
S3150800111051230008592300086123000869230008A1
S315080011207123000879230008812300088923000811
S315080011309123000899230008A1230008A923000881
S31508001140B1230008B9230008C1230008C9230008F1
S31508001150D1230008D9230008E1230008E923000861
S31508001160F1230008F92300080124000809240008CF
S31508001170112400081924000821240008292400083D
S3150800118031240008392400084124000849240008AD
S31508001190512400085924000861240008692400081D
S315080011A0712400087924000881240008892400088D
S315080011B09124000899240008A1240008A9240008FD
S315080011C0B1240008B9240008C1240008C92400086D
S315080011D0D1240008D9240008E1240008E9240008DD
S315080011E0F1240008F924000801250008092500084B
S315080011F011250008192500082125000829250008B9
S315080012003125000839250008412500084925000828
S315080012105125000859250008612500086925000898
S31508001220382D00080000002004000000382D0008B2
S31508001230000000040000000004000020180100005F
S31508001240000000040000000072B6134B134A17484A
S315080012500360196881F3088882F30A8800F062FD42
S315080012600F4B07E003F10C049A685968186800F0F8
S315080012701FF823460B4A9342F4D306E01C465968E6
S3150800128054F8080B00F023F82346074A9342F5D38F
S3150800129062B601F044FAFEE70010000800B001202B
S315080012A020120008381200084812000808ED00E06D
S315080012B0002393420AD210B450F8044B41F8044B69
S315080012C004339342F8D35DF8044B70477047002304
S315080012D003E0002240F8042B04338B42F9D370470D
S315080012E0FEE7FEE7FEE7FEE7FEE7FEE7FEE7FEE7C8
S315080012F0FEE7FEE7FEE7FFFF80B582B000AF786045
S315080013007968024800F004F800BEFDE7E8290008FD
S315080013100FB480B582B000AF0B4B1B7C002B02D1FB
S315080013204FF0FF3309E007F114033B603A68396967
S31508001330064800F025F878607B6818460837BD46E9
S31508001340BDE8804004B0704704000020511300082F
S3150800135080B582B000AF7860084B1B7C002B02D1A9
S315080013604FF0FF3306E0054B9B68391D0122034801
S315080013709847012318460837BD4680BD040000205B
S3150800138080B59CB002AFF860B9607A6000233B660E
S315080013900023FB650023FB61002387F84A300023FE
S315080013A07B61BB687B667B6E1B78002B00F0C08177
S315080013B07B6E1B7887F8493097F84930252B0BD078
S315080013C097F84920FB6810469847FB690133FB618B
S315080013D07B6E01337B66AAE1012387F84B30002335
S315080013E07B65002387F85B3020E07B6E01337B66E4
S315080013F07B6E1B7887F8493097F849302F2B0FD921
S3150800140097F84930392B0BD87A6D13469B0013444D
S315080014105B001A4697F849301344303B7B6505E074
S315080014207B6E013B7B66012387F85B3097F85B3060
S3150800143083F00103DBB2002BD7D17B6E01337B66C9
S315080014407B6E1B782E2B2ED100233B65002387F855
S315080014505B3020E07B6E01337B667B6E1B7887F8FA
S31508001460493097F849302F2B0FD997F84930392B3F
S315080014700BD83A6D13469B0013445B001A4697F83F
S3150800148049301344303B3B6505E07B6E013B7B6688
S31508001490012387F85B3097F85B3083F00103DBB2F2
S315080014A0002BD7D102E07B6E013B7B667B6E013356
S315080014B07B667B6E1B7887F8493097F84930642B32
S315080014C024D097F84930692B20D097F84930662BF5
S315080014D01CD097F84930462B18D097F84930782B06
S315080014E014D097F84930582B10D097F849306F2BFD
S315080014F00CD097F84930622B08D097F84930702BF2
S3150800150004D097F84930752B40F0CA8097F84930CF
S31508001510642B03D097F84930692B15D17B681A1DBF
S315080015207A601B68BB6107F1180107F1200097F87C
S315080015304B3000930A23012200F0B0FDF86507F14D
S315080015402002FB6D13443B6697F84930582B03D0AD
S3150800155097F84930782B1CD197F84930782B02D167
S31508001560002387F84B307B681A1D7A601B687B61FD
S3150800157007F1140107F1200097F84B300093102368
S31508001580002200F08BFDF86507F12002FB6D13447D
S315080015903B6697F849306F2B0BD097F84930622B8A
S315080015A007D097F84930702B03D097F84930752B38
S315080015B058D17B681A1D7A601B687B6197F8493099
S315080015C0623B132B3AD801A252F823F025160008DD
S315080015D03D1600083D1600083D1600083D16000891
S315080015E03D1600083D1600083D1600083D16000881
S315080015F03D1600083D1600083D1600083D16000871
S315080016001D1600082D1600083D1600083D16000890
S315080016103D1600083D16000835160008082387F809
S315080016204A300CE0022387F84A3008E0102387F88E
S315080016304A3004E00A2387F84A3000E000BF97F8EA
S315080016404A2007F1140107F1200097F84B30009360
S315080016501346002200F022FDF86507F12002FB6D13
S3150800166013443B667A6D07F11C01FB6800930B4631
S31508001670F96D202000F0F2FC3B6E002B54D00AE0F6
S315080016803B6E5A1E3A661B781A46FB681046984700
S31508001690FB690133FB613B6E1B78002BF0D143E0FD
S315080016A097F84930632B0BD17B681A1D7A601B6843
S315080016B07B64FB68786C9847FB690133FB6133E010
S315080016C097F84930732B27D17B681A1D7A601B68F7
S315080016D0FB64FB6C002B27D0F86C01F060F803461E
S315080016E0FB657A6D07F11C01FB6800930B46F96DE3
S315080016F0202000F0B3FC0AE0FB6C5A1CFA641B7845
S315080017001A46FB6810469847FB690133FB61FB6C78
S315080017101B78002BF0D107E097F84920FB681046A4
S315080017209847FB690133FB617B6E01337B663AE6BA
S3150800173000BFFB6918466837BD4680BD80B483B0D4
S3150800174000AF03463960FB7197F90730002B0ADBB7
S315080017503B68DAB20C4997F907305201D2B20B440A
S3150800176083F800230AE03B68DAB20849FB7903F0FC
S315080017700F03043B5201D2B20B441A7600BF0C3752
S31508001780BD465DF8047B704700E100E000ED00E02F
S3150800179080B582B000AF78607B68013BB3F1807F8B
S315080017A001D301230FE00A4A7B68013B53600721F6
S315080017B04FF0FF30FFF7C2FF054B00229A60044B3B
S315080017C007221A60002318460837BD4680BD00BFA9
S315080017D010E000E080B400AF064B1B68002B04D075
S315080017E0044B1B68013B034A136000BFBD465DF806
S315080017F0047B70471800002080B483B000AF78607F
S31508001800074A7B68136000BF054B1B68002BFBD19A
S3150800181000BF00BF0C37BD465DF8047B704700BFAC
S315080018201800002080B500AF01210E4800F000FA2C
S3150800183000F0B4FA0C4B1B680C4AA2FB03239B0965
S315080018401846FFF7A5FF0346002B00D0FEE74FF426
S315080018507A70FFF7D1FF4FF080520121014800F05E
S3150800186087FEF4E700C0084000000020D34D621050
S3150800187080B584B000AF78607B68BB600023FB60EE
S3150800188009E0BA680C49FB6851F823309A4206D039
S31508001890FB680133FB60FB68082BF2D900E000BF48
S315080018A0FB68082B02D90548FFF726FDFB68184692
S315080018B01037BD4680BD00BFFC290008202A000855
S315080018C080B582B000AF1048FFF7D2FF78600F4AA4
S315080018D07B6852F82330002B02D10D48FFF70CFD28
S315080018E00A4A7B6852F823300A497A6851F8222056
S315080018F0104609497A6851F822201146984700BFD0
S315080019000837BD4680BD00BF006008401C000020A7
S31508001910642A0008FC2900084000002080B582B02F
S3150800192000AF1048FFF7A4FF78600F4A7B6852F8AB
S315080019302330002B02D10D48FFF7DEFC0A4A7B68EC
S3150800194052F823300A497A6851F822201046094984
S315080019507A6851F822201146984700BF0837BD46D5
S3150800196080BD00BF007008401C000020A42A0008A3
S31508001970FC2900084000002080B582B000AF10485E
S31508001980FFF776FF78600F4A7B6852F82330002B02
S3150800199002D10D48FFF7B0FC0A4A7B6852F823309B
S315080019A00A497A6851F82220104609497A6851F896
S315080019B022201146984700BF0837BD4680BD00BFA4
S315080019C0008008401C000020E42A0008FC290008C2
S315080019D04000002080B582B000AF1048FFF748FFEE
S315080019E078600F4A7B6852F82330002B02D10D48E5
S315080019F0FFF782FC0A4A7B6852F823300A497A685C
S31508001A0051F82220104609497A6851F822201146D1
S31508001A10984700BF0837BD4680BD00BF0090084004
S31508001A201C000020242B0008FC2900084000002088
S31508001A3080B582B000AF1048FFF71AFF78600F4AEA
S31508001A407B6852F82330002B02D10D48FFF754FC6F
S31508001A500A4A7B6852F823300A497A6851F82220E4
S31508001A60104609497A6851F822201146984700BF5E
S31508001A700837BD4680BD00BF00A008401C000020F6
S31508001A80642B0008FC2900084000002080B582B0BD
S31508001A9000AF1048FFF7ECFE78600F4A7B6852F8F3
S31508001AA02330002B02D10D48FFF726FC0A4A7B6833
S31508001AB052F823300A497A6851F822201046094913
S31508001AC07A6851F822201146984700BF0837BD4664
S31508001AD080BD00BF006009401C000020A42B000840
S31508001AE0FC2900084000002080B582B000AF1048ED
S31508001AF0FFF7BEFE78600F4A7B6852F82330002B4A
S31508001B0002D10D48FFF7F8FB0A4A7B6852F82330E2
S31508001B100A497A6851F82220104609497A6851F824
S31508001B2022201146984700BF0837BD4680BD00BF32
S31508001B30007009401C000020E42B0008FC2900085E
S31508001B404000002080B582B000AF1048FFF790FE35
S31508001B5078600F4A7B6852F82330002B02D10D4873
S31508001B60FFF7CAFB0A4A7B6852F823300A497A68A3
S31508001B7051F82220104609497A6851F82220114660
S31508001B80984700BF0837BD4680BD00BF00800940A2
S31508001B901C000020242C0008FC2900084000002016
S31508001BA080B582B000AF1048FFF762FE78600F4A32
S31508001BB07B6852F82330002B02D10D48FFF79CFBB7
S31508001BC00A4A7B6852F823300A497A6851F8222073
S31508001BD0104609497A6851F822201146984700BFED
S31508001BE00837BD4680BD00BF00F009401C00002034
S31508001BF0642C0008FC2900084000002080B582B04B
S31508001C0000AF786039603B68032B02D90648FFF7B6
S31508001C1073FB064A3B6832F81330184600F0D1FCCD
S31508001C2000BF0837BD4680BDBC2C0008A42C0008A0
S31508001C3080B582B000AF7860396039687868FFF798
S31508001C40DDFF054A3B6852F82330184600F023FDAD
S31508001C5000BF0837BD4680BDAC2C000880B586B0ED
S31508001C6000AF78607B681B0C7B617B689BB23B612D
S31508001C7001223B6902FA03F3FB600F4BBB603B6929
S31508001C801F2B02D90D48FFF737FB4FF080417B69C0
S31508001C904833FA6841F8232000BF7B699B00BA687D
S31508001CA013441A68FB681340002BF6D000BF00BF28
S31508001CB01837BD4680BD00BF00010040F02C000863
S31508001CC080B586B000AF78607B681B0C7B617B684B
S31508001CD09BB23B6101223B6902FA03F3FB600F4B9F
S31508001CE0BB603B691F2B02D90D48FFF705FB4FF078
S31508001CF080417B695033FA6841F8232000BF7B692D
S31508001D009B00BA6813441A68FB681340FA689A423B
S31508001D10F5D000BF00BF1837BD4680BD00010040A2
S31508001D20102D000880B500AF1A4BD3F88830194A31
S31508001D3043F47003C2F88830164BD3F88830154A36
S31508001D4043F00F03C2F88830124BD3F88C30114A8F
S31508001D5043F4406343F00303C2F88C300D4B0E4A3C
S31508001D609A604FF080430022C3F808234FF080435F
S31508001D707822C3F820224FF08043D3F824384FF056
S31508001D80804223F00103C2F8243800F092FC00BF19
S31508001D9080BD00BF00ED00E00010000880B584B0EB
S31508001DA000AF0D2000F08CFC0F2000F089FC012309
S31508001DB03B7100237B713B1D1C2201210C4800F05E
S31508001DC018FC4FF48473FB60FB6812220021094853
S31508001DD000F08EFC4FF49073BB60BB681C22012197
S31508001DE0044800F085FC00BF1037BD4680BD00BF23
S31508001DF000C008400010004010B5174A17490020D7
S31508001E0000F0F1FC4FF480734FF480620021124811
S31508001E1000F0A6FC124A1349012000F0E4FC4FF436
S31508001E2080734FF4806200210D4800F099FC0E4B38
S31508001E301B68022B0EDD0D4A0A49022000F0D3FC6E
S31508001E40BDE810404FF480734FF4806200210748C4
S31508001E5000F086BC10BD00BF68000020342D0008C5
S31508001E60A4000020362D0008302D0008E0000020D0
S31508001E70F8B5044638B905460A4B0B4E1F68A74203
S31508001E8005DC2846F8BDBDE8F84000F016BD30462A
S31508001E9000F013FD002818BF4FF0FF3501343C361B
S31508001EA0EDE700BF302D0008680000202DE9F84353
S31508001EB0C6683D4B044633400D4690461BB902277B
S31508001EC03846BDE8F883D0F81490484600F07DFD02
S31508001ED007460028F3D1B8F1010F2CD0B8F1020F4C
S31508001EE02ED0B8F1000FEAD1002DE8DBB00404D5F6
S31508001EF02368E26A9A4238BFE362A169A9420EDC06
S31508001F002368E26A934238BF134622695818801A32
S31508001F10A84204DB206B01EB000CAC4534DC002343
S31508001F20C4E9013346F02006A56226F4032626F006
S31508001F304006E660C4E7204600F038F80544D3E7D3
S31508001F40484600F03FFDB0F1000CE26804DA42F0C2
S31508001F5080020127E260B3E723681846A369194699
S31508001F60E36A98422CBF0918C9180B4621699206DC
S31508001F70A3EB010303D5A26A9342B8BF1346634590
S31508001F80ACBFED186544AFE76D1AB10744BF281A10
S31508001F90A060F10744BF9B1AEB1A154448BF63605B
S31508001FA0256026F02006C0E703001000C3689A07DC
S31508001FB005D121220D4B4FF0FF301A60704703F010
S31508001FC020021B0309D512B1806A013870470368DD
S31508001FD0826900691344181AF7E70AB1806A7047DC
S31508001FE00368826900691344181A70476400002060
S31508001FF02DE9F041D5688046EB020E46144657692E
S3150800200005D5384600F0DEFC45F01005A061124BF8
S315080020102B408BB13846A16900F0DDFC002806DAB2
S31508002020E3684FF0FF3043F08003E36011E025F4E6
S31508002030003525F01005E56032464146384600F081
S31508002040D0FC20F00041761AA1690E44A66100284A
S31508002050E6D1BDE8F08100BF1000020080B586B069
S3150800206000AFB9607A603B600346FB73BB687B616F
S315080020700BE0FA7B3B6A104698473B681B685A1C7C
S315080020803B681A607B6901337B617A697B689A428F
S31508002090EFDB00BF00BF1837BD4680BD80B48DB0EA
S315080020A000AFF860B9607A603B600023FB61FB68AB
S315080020B0BB61BB695A1CBA6100221A7000237B6097
S315080020C07B68002B33D0BB681B68FB62FB6A002B5E
S315080020D029D1BB6930221A70FB690133FB61FB69A0
S315080020E060E0FA6A3B6892FBF3F33B613B693A6846
S315080020F002FB03F3FA6AD31ABB62BB6A002B04DA43
S31508002100BB6AC3F13003BB6202E0BB6A3033BB6211
S315080021103B69FB62BB695A1CBA61BA6AD2B21A70C9
S31508002120FB690133FB61FB6A002BDAD139E0BB6836
S315080021301B687B627B6A002B30D1BB6930221A7020
S31508002140FB690133FB61FB692CE03B687A6AB2FBE9
S31508002150F3F37B613B687A6902FB03F37A6AD31A65
S315080021603B623B6A092B03D83B6A30333B620AE081
S3150800217097F83830002B01D0412200E061223B6AF3
S3150800218013440A3B3B627B697B62BB695A1CBA6192
S315080021903A6AD2B21A70FB690133FB617B6A002B7B
S315080021A0D3D1FB6918463437BD465DF8047B7047C2
S315080021B008B5FFF79FF808BD08B5FFF79BF808BDF7
S315080021C008B5FFF797F808BD08B5FFF793F808BDF7
S315080021D008B5FFF78FF808BD08B5FFF78BF808BDF7
S315080021E008B5FFF787F808BD08B5FFF783F808BDF7
S315080021F008B5FFF77FF808BD08B5FFF77BF808BDF7
S3150800220008B5FFF777F808BD08B5FFF773F808BDF6
S3150800221008B5FFF76FF808BD08B5FFF76BF808BDF6
S3150800222008B5FFF74DFB08BD08B5FFF777FB08BDF6
S3150800223008B5FFF7A1FB08BD08B5FFF7CBFB08BD3E
S3150800224008B5FFF7F5FB08BD08B5FFF71FFC08BD85
S3150800225008B5FFF749FC08BD08B5FFF773FC08BDCC
S3150800226008B5FFF747F808BD08B5FFF743F808BDF6
S3150800227008B5FFF73FF808BD08B5FFF73BF808BDF6
S3150800228008B5FFF737F808BD08B5FFF733F808BDF6
S3150800229008B5FFF72FF808BD08B5FFF72BF808BDF6
S315080022A008B5FFF727F808BD08B5FFF723F808BDF6
S315080022B008B5FFF71FF808BD08B5FFF71BF808BDF6
S315080022C008B5FFF717F808BD08B5FFF713F808BDF6
S315080022D008B5FFF70FF808BD08B5FFF70BF808BDF6
S315080022E008B5FFF707F808BD08B5FFF703F808BDF6
S315080022F008B5FEF7FFFF08BD08B5FEF7FBFF08BDEA
S3150800230008B5FEF7F7FF08BD08B5FEF7F3FF08BDE9
S3150800231008B5FEF7EFFF08BD08B5FEF7EBFF08BDE9
S3150800232008B5FEF7E7FF08BD08B5FEF7E3FF08BDE9
S3150800233008B5FEF7DFFF08BD08B5FEF7DBFF08BDE9
S3150800234008B5FEF7D7FF08BD08B5FEF7D3FF08BDE9
S3150800235008B5FEF7CFFF08BD08B5FEF7CBFF08BDE9
S3150800236008B5FEF7C7FF08BD08B5FEF7C3FF08BDE9
S3150800237008B5FEF7BFFF08BD08B5FEF7BBFF08BDE9
S3150800238008B5FEF7B7FF08BD08B5FFF709FC08BD95
S3150800239008B5FEF7AFFF08BD08B5FEF7ABFF08BDE9
S315080023A008B5FEF7A7FF08BD08B5FEF7A3FF08BDE9
S315080023B008B5FEF79FFF08BD08B5FEF79BFF08BDE9
S315080023C008B5FEF797FF08BD08B5FEF793FF08BDE9
S315080023D008B5FEF78FFF08BD08B5FEF78BFF08BDE9
S315080023E008B5FEF787FF08BD08B5FEF783FF08BDE9
S315080023F008B5FEF77FFF08BD08B5FEF77BFF08BDE9
S3150800240008B5FEF777FF08BD08B5FEF773FF08BDE8
S3150800241008B5FEF76FFF08BD08B5FEF76BFF08BDE8
S3150800242008B5FEF767FF08BD08B5FEF763FF08BDE8
S3150800243008B5FEF75FFF08BD08B5FEF75BFF08BDE8
S3150800244008B5FEF757FF08BD08B5FEF753FF08BDE8
S3150800245008B5FEF74FFF08BD08B5FEF74BFF08BDE8
S3150800246008B5FEF747FF08BD08B5FEF743FF08BDE8
S3150800247008B5FEF73FFF08BD08B5FEF73BFF08BDE8
S3150800248008B5FEF737FF08BD08B5FEF733FF08BDE8
S3150800249008B5FEF72FFF08BD08B5FEF72BFF08BDE8
S315080024A008B5FEF727FF08BD08B5FEF723FF08BDE8
S315080024B008B5FEF71FFF08BD08B5FEF71BFF08BDE8
S315080024C008B5FEF717FF08BD08B5FEF713FF08BDE8
S315080024D008B5FEF70FFF08BD08B5FEF70BFF08BDE8
S315080024E008B5FEF707FF08BD08B5FEF703FF08BDE8
S315080024F008B5FEF7FFFE08BD08B5FEF7FBFE08BDEA
S3150800250008B5FEF7F7FE08BD08B5FEF7F3FE08BDE9
S3150800251008B5FEF7EFFE08BD08B5FEF7EBFE08BDE9
S3150800252008B5FEF7E7FE08BD08B5FEF7E3FE08BDE9
S3150800253008B5FEF7DFFE08BD08B5FEF7DBFE08BDE9
S3150800254008B5FEF7D7FE08BD08B5FEF7D3FE08BDE9
S3150800255008B5FEF7CFFE08BD08B5FEF7CBFE08BDE9
S3150800256008B5FEF7C7FE08BD08B5FEF7C3FE08BDE9
S3150800257080B485B000AFF860B9607A60FB68BA6865
S3150800258002F50C62796843F8221000BF1437BD467D
S315080025905DF8047B704704207146084202D0EFF3C9
S315080025A0098001E0EFF3088081690A884BF6AB637E
S315080025B09A4200D0FEE7023181612021016070470E
S315080025C000BF80B485B000AF0346FB80FB881B0ABA
S315080025D0FB60FB88DBB24FF0804101229A40FB6822
S315080025E0883341F8232000BF1437BD465DF8047BC5
S315080025F0704780B584B000AFF860B9607A603B6018
S31508002600B968F868FFF7FAFA3B681B78002B13D10C
S31508002610FB68BA6802F5006253F8222001217B683C
S3150800262001FA03F3DB4302EA0301FB68BA6802F521
S31508002630006243F822102AE03B685B78002B0AD137
S3150800264001227B6802FA03F1FB68BA6802F50A629E
S3150800265043F8221009E001227B6802FA03F1FB68BD
S31508002660BA6802F5086243F82210FB68BA6802F5F0
S31508002670006253F8222001217B6801FA03F342EA3B
S315080026800301FB68BA6802F5006243F8221000BF2E
S315080026901037BD4680BD80B582B000AF78607868D7
S315080026A0FFF7DCFA7868FFF70BFB00BF0837BD4673
S315080026B080BD80B400AF00BFBD465DF8047B70479F
S315080026C080B485B000AF0346FB80FB881B0AFB601D
S315080026D0FB88DBB24FF0804101229A40FB688833C1
S315080026E041F8232000BF1437BD465DF8047B7047C8
S315080026F080B485B000AFF8607B600B46FB7213466A
S31508002700BB72F97ABA7AFB6849010A44796843F8D0
S31508002710221000BF1437BD465DF8047B704708B524
S31508002720FFF76AFBBDE80840FFF77CB800F02EB952
S31508002730A8B14FF0805340F80C3C50F8042C72B105
S315080027401368B3F1805F0AD150F8083C5168033327
S315080027500B4440F8083C936840F8043CEDE77047A2
S3150800276070B5C468A50708D0B2F5007F11D0B2F5D8
S31508002770806F04D0B2F5807F0BD0012008E00123DA
S3150800278000F12401224301610160C361C260002097
S3150800279070BD6FF07F455E1EAE42F3D3EDE710B510
S315080027A0431C8207044614D1204654F8042BA2F190
S315080027B0013121EA020111F0803FF5D0D1B281B191
S315080027C012F47F4F0BD012F47F0F14BF204603304C
S315080027D003E010F8012B002AE3D1C01A10BD02301D
S315080027E0FBE70130F9E770B50D4606461046144674
S315080027F000F02DF82B78722B17D0772B18D0612B79
S3150800280023D1082348F2020215F8011F2B2912D0FA
S31508002810622915D01B07E260666104D502220021F1
S315080028202046FFF743FB204670BD00230122EBE755
S3150800283004230222E8E742F0030243F00203E3E737
S3150800284042F0040243F00103DEE70024EBE7F0B5AB
S31508002850C4680546A10789B022D0220718D4D0E952
S315080028600467FFF705FB384600F0A9F8230502D5EB
S315080028703046FFF75DFFA40DA40514F1A54F07D157
S3150800288020226846296A00F0A9F8684600F00BF885
S315080028903C2200212846FFF749FF002009B0F0BD79
S315080028A04FF0FF30FAE710B50446FFF778FF014608
S315080028B02046BDE8104000F08BB8C36870B513F029
S315080028C00306044611D09B0611D5856A00F03EF82A
S315080028D0E368204623F44053E36000F00EF8002234
S315080028E0064629462046FFF7E1FA304670BD81695B
S315080028F005680D4401696D1AEAE738B504460569A5
S315080029000168C36AC06820F40022E26000F082020F
S31508002910022A02D04FF0FF3038BD10F48030FBD0C9
S31508002920994238BF19468D4208D10020E368E5620E
S3150800293023F480332560A060E360EDE7224628464D
S31508002940491BFFF755FB0028EFD0E3E7C36810B52E
S3150800295023F020038269C360836A04469A420ED034
S31508002960FFF7CBFFE36823F4405323F0100343F04B
S315080029701003E360A36AA3612369E3622360E36843
S3150800298023F4804323F04003E36010BD034613F0AD
S31508002990030F0ED101F0FF0141EA012141EA01418D
S315080029A0043A24BF43F8041BB2F10402F9D202F137
S315080029B00402013A24BF03F8011BFAE770474FF0F7
S315080029C0FF3070474FF0FF3070474FF0FF307047C9
S315080029D04FF0FF3070474FF0FF3070474FF0FF3031
S315080029E0704710467047FFFF4153534552542045E0
S315080029F052524F522022202573200A0000600840B8
S31508002A0000700840008008400090084000A0084078
S31508002A1000600940007009400080094000F0094044
S31508002A202E66736C5F666C6578636F6D6D2E633AA0
S31508002A30313036203A2069203C202875696E743377
S31508002A40325F742946534C5F464541545552455F9B
S31508002A50534F435F464C4558434F4D4D5F434F5583
S31508002A604E5400FF2E66736C5F666C6578636F6DF7
S31508002A706D2E633A313833203A20735F666C657879
S31508002A80636F6D6D49727148616E646C65725B69DE
S31508002A906E7374616E63655D20213D204E554C4C06
S31508002AA000FFFFFF2E66736C5F666C6578636F6D5B
S31508002AB06D2E633A313937203A20735F666C657834
S31508002AC0636F6D6D49727148616E646C65725B699E
S31508002AD06E7374616E63655D20213D204E554C4CC6
S31508002AE000FFFFFF2E66736C5F666C6578636F6D1B
S31508002AF06D2E633A323131203A20735F666C657801
S31508002B00636F6D6D49727148616E646C65725B695D
S31508002B106E7374616E63655D20213D204E554C4C85
S31508002B2000FFFFFF2E66736C5F666C6578636F6DDA
S31508002B306D2E633A323235203A20735F666C6578BB
S31508002B40636F6D6D49727148616E646C65725B691D
S31508002B506E7374616E63655D20213D204E554C4C45
S31508002B6000FFFFFF2E66736C5F666C6578636F6D9A
S31508002B706D2E633A323339203A20735F666C657876
S31508002B80636F6D6D49727148616E646C65725B69DD
S31508002B906E7374616E63655D20213D204E554C4C05
S31508002BA000FFFFFF2E66736C5F666C6578636F6D5A
S31508002BB06D2E633A323534203A20735F666C657839
S31508002BC0636F6D6D49727148616E646C65725B699D
S31508002BD06E7374616E63655D20213D204E554C4CC5
S31508002BE000FFFFFF2E66736C5F666C6578636F6D1A
S31508002BF06D2E633A323638203A20735F666C6578F4
S31508002C00636F6D6D49727148616E646C65725B695C
S31508002C106E7374616E63655D20213D204E554C4C84
S31508002C2000FFFFFF2E66736C5F666C6578636F6DD9
S31508002C306D2E633A323832203A20735F666C6578B7
S31508002C40636F6D6D49727148616E646C65725B691C
S31508002C506E7374616E63655D20213D204E554C4C44
S31508002C6000FFFFFF2E66736C5F666C6578636F6D99
S31508002C706D2E633A323936203A20735F666C657872
S31508002C80636F6D6D49727148616E646C65725B69DC
S31508002C906E7374616E63655D20213D204E554C4C04
S31508002CA000FFFFFF0E000F00100011000E000000CD
S31508002CB00F00000010000000110000002E66736C63
S31508002CC05F6770696F2E633A3435203A20706F72E9
S31508002CD074203C2041525241595F53495A45287342
S31508002CE05F6770696F436C6F636B4E616D65290032
S31508002CF02E66736C5F72657365742E633A34392079
S31508002D003A20626974506F73203C2033327500FF95
S31508002D102E66736C5F72657365742E633A37352059
S31508002D203A20626974506F73203C2033327500FF75
S30D08002D300300000072007700A1
S30908002D38001BB700B7
S7050800124997
