S02B0000433A5C55736572735C6E786131373134315C4769745C7365637572655F70726F766973696F6E696EC6
S315080010000000200059110008F51100086542000883
S31508001010F9110008FB110008FD110008FF1100086E
S31508001020EC54000004000000000000000112000853
S315080010300312000800100008051200085D170008D2
S31508001040374600083F460008474600084F4600084E
S31508001050574600085F460008674600086F460008BE
S31508001060774600087F460008874600088F4600082E
S31508001070974600089F460008A7460008AF4600089E
S31508001080B7460008BF460008C7460008CF4600080E
S31508001090D7460008DF460008E7460008EF4600087E
S315080010A0F7460008FF460008074700080F470008EC
S315080010B0174700081F470008274700082F4700085A
S315080010C0374700083F470008474700084F470008CA
S315080010D0574700085F470008674700086F4700083A
S315080010E0774700087F470008874700088F470008AA
S315080010F0974700089F470008A7470008AF4700081A
S31508001100B7470008BF470008C7470008CF47000889
S31508001110D7470008DF470008E7470008EF470008F9
S31508001120F7470008FF470008074800080F48000867
S31508001130B455000800000800380F0000B455000830
S315080011400000144000000000380F080034010000B9
S31508001150000014400000000010B572B6134B144A84
S3150800116017480360196881F3088882F30A8802F031
S31508001170CDFC104B07E003F10C049A68596818680F
S3150800118000F020F823460C4A9342F4D306E01C46A6
S31508001190596854F8080B00F024F82346074A934286
S315080011A0F5D362B603F03EFBFEE700BF0010000869
S315080011B000F01F00301100084811000858110008F7
S315080011C008ED00E0002393420AD210B450F8044B0D
S315080011D041F8044B04339342F8D35DF8044B704747
S315080011E0704700238B4204D2002240F8042B0433B4
S315080011F0F8E77047FEE7FEE7FEE7FEE7FEE7FEE7ED
S31508001200FEE7FEE7FEE7FEE7FEE7FFFF80B582B0F2
S3150800121000AF78607968024800F03EF800BEFDE746
S31508001220784C000880B588B000AFB9607B6003468B
S31508001230FB731346BB73BB7B012B01D0012321E053
S31508001240124ABB7B13747B683B61BB687B610023D6
S315080012503B7600237B760123BB760123FB760023AE
S315080012603B7700237B77FB7BBB7707F11003194697
S31508001270064802F075FA054B054A9A60034B054A7B
S31508001280DA60002318462037BD4680BD380F0800AF
S31508001290D5380008693800080FB480B582B000AFA9
S315080012A00B4B1B7C002B02D14FF0FF3309E007F1F3
S315080012B014033B603A683969064800F025F87860F7
S315080012C07B6818460837BD46BDE8804004B07047BD
S315080012D0380F0800D912000880B582B000AF7860D0
S315080012E0084B1B7C002B02D14FF0FF3306E0054B61
S315080012F09B68391D01220348984701231846083779
S31508001300BD4680BD380F080080B59CB002AFF860B6
S31508001310B9607A6000233B660023FB650023FB6106
S31508001320002387F84A3000237B61BB687B667B6EA7
S315080013301B78002B00F0C0817B6E1B7887F849303C
S3150800134097F84930252B0BD097F84920FB681046AB
S315080013509847FB690133FB617B6E01337B66AAE123
S31508001360012387F84B3000237B65002387F85B3021
S3150800137020E07B6E01337B667B6E1B7887F84930ED
S3150800138097F849302F2B0FD997F84930392B0BD8B6
S315080013907A6D13469B0013445B001A4697F849304A
S315080013A01344303B7B6505E07B6E013B7B6601237E
S315080013B087F85B3097F85B3083F00103DBB2002BCC
S315080013C0D7D17B6E01337B667B6E1B782E2B2ED195
S315080013D000233B65002387F85B3020E07B6E0133F2
S315080013E07B667B6E1B7887F8493097F849302F2B38
S315080013F00FD997F84930392B0BD83A6D13469B000D
S3150800140013445B001A4697F849301344303B3B6552
S3150800141005E07B6E013B7B66012387F85B3097F816
S315080014205B3083F00103DBB2002BD7D102E07B6E81
S31508001430013B7B667B6E01337B667B6E1B7887F888
S31508001440493097F84930642B24D097F84930692BEE
S3150800145020D097F84930662B1CD097F84930462B90
S3150800146018D097F84930782B14D097F84930582B6C
S3150800147010D097F849306F2B0CD097F84930622B6B
S3150800148008D097F84930702B04D097F84930752B57
S3150800149040F0CA8097F84930642B03D097F8493052
S315080014A0692B15D17B681A1D7A601B68BB6107F129
S315080014B0180107F1200097F84B3000930A23012200
S315080014C002F0D8FDF86507F12002FB6D13443B6670
S315080014D097F84930582B03D097F84930782B1CD108
S315080014E097F84930782B02D1002387F84B307B6870
S315080014F01A1D7A601B687B6107F1140107F1200049
S3150800150097F84B3000931023002202F0B3FDF865DC
S3150800151007F12002FB6D13443B6697F849306F2BA1
S315080015200BD097F84930622B07D097F84930702BC3
S3150800153003D097F84930752B58D17B681A1D7A6005
S315080015401B687B6197F84930623B132B3AD801A296
S3150800155052F823F0AD150008C5150008C515000892
S31508001560C5150008C5150008C5150008C5150008E5
S31508001570C5150008C5150008C5150008C5150008D5
S31508001580C5150008C5150008A5150008B5150008F5
S31508001590C5150008C5150008C5150008C5150008B5
S315080015A0BD150008082387F84A300CE0022387F89F
S315080015B04A3008E0102387F84A3004E00A2387F8FF
S315080015C04A3000E000BF97F84A2007F1140107F1F6
S315080015D0200097F84B3000931346002202F04AFD8C
S315080015E0F86507F12002FB6D13443B667A6D07F137
S315080015F01C01FB6800930B46F96D202002F01AFDCA
S315080016003B6E002B54D00AE03B6E5A1E3A661B7896
S315080016101A46FB6810469847FB690133FB613B6E27
S315080016201B78002BF0D143E097F84930632B0BD198
S315080016307B681A1D7A601B687B64FB68786C984720
S31508001640FB690133FB6133E097F84930732B27D1E7
S315080016507B681A1D7A601B68FB64FB6C002B27D01D
S31508001660F86C03F01FF90346FB657A6D07F11C0158
S31508001670FB6800930B46F96D202002F0DBFC0AE0BC
S31508001680FB6C5A1CFA641B781A46FB681046984786
S31508001690FB690133FB61FB6C1B78002BF0D107E07B
S315080016A097F84920FB6810469847FB690133FB61A8
S315080016B07B6E01337B663AE600BFFB6918466837DE
S315080016C0BD4680BD80B483B000AF03463960FB7168
S315080016D097F90730002B0ADB3B68DAB20C4997F911
S315080016E007305201D2B20B4483F800230AE03B6864
S315080016F0DAB20849FB7903F00F03043B5201D2B270
S315080017000B441A7600BF0C37BD465DF8047B70475C
S3150800171000E100E000ED00E080B582B000AF78603F
S315080017207B68013BB3F1807F01D301230FE00A4AAE
S315080017307B68013B536007214FF0FF30FFF7C2FF7C
S31508001740054B00229A60044B07221A6000231846AC
S315080017500837BD4680BD00BF10E000E080B400AF8A
S31508001760064B1B68002B04D0044B1B68013B034A3D
S31508001770136000BFBD465DF8047B70474C0F080038
S3150800178080B483B000AF7860074A7B68136000BFF7
S31508001790054B1B68002BFBD100BF00BF0C37BD46AD
S315080017A05DF8047B704700BF4C0F080080B582B017
S315080017B000AF00237B6001233B7000237B7002F09F
S315080017C00FFF02F001F902F0B7F82848FFF764FDA9
S315080017D02748FFF761FD0021264801F057FB002145
S315080017E0244801F053FB3B461A220021214802F007
S315080017F048FE01231A2200211E4802F0C3FC4FF6B8
S31508001800FF7200211B4802F0F6FC4FF0FF32002160
S31508001810184802F003FD0021164802F0DBFC786048
S3150800182079681548FFF738FD0021124802F009FDCE
S31508001830786079681148FFF72FFD114B1B68114A2C
S31508001840A2FB03239B091846FFF766FF0346002BF6
S3150800185000D0FEE74FF080620021064802F0A7FCA0
S315080018604FF47A70FFF78CFFF4E700BF8C4C000842
S31508001870A84C000800001040D04C0008EC4C0008AA
S31508001880340F0800D34D621080B400AF024B1846DF
S31508001890BD465DF8047B70470024F40080B400AFB1
S315080018A00A4BD3F86831002B09D0084BD3F86831B6
S315080018B0012B02D1064B1B6803E0002301E0054B10
S315080018C01B681846BD465DF8047B7047001000404B
S315080018D0540F0800500F080080B400AF034B1B6874
S315080018E01846BD465DF8047B704700BF580F0800D0
S315080018F080B400AF024B1846BD465DF8047B7047BE
S3150800190040420F0080B400AF074BD3F8C03103F054
S315080019100103002B02D04FF4004300E000231846D1
S31508001920BD465DF8047B70470010004080B483B064
S3150800193000AF00237B600D4BD3F8003103F440233E
S31508001940002B03D0B3F5402F03D005E0084B7B608E
S3150800195005E0084B7B6002E000237B6000BF7B68E4
S3150800196018460C37BD465DF8047B704700100040EA
S31508001970006CDC0200879303B0B584B000AF002387
S31508001980FB602A4BD3F8003203F00703022B0ED074
S31508001990022B12D8002B02D0012B04D00DE0FFF742
S315080019A073FFF8600AE0FFF779FFF86006E0FFF7D3
S315080019B0BDFF03465B08FB6000E000BF1B4BD3F886
S315080019C0043203F00103002B2BD1FB6818464FF0B5
S315080019D00001164BD3F810321A464FF0000302FBEB
S315080019E001F500FB03F42C44A0FB02016318194619
S315080019F00E4BD3F814321A464FF0000303F04BF897
S31508001A0002460B46C7E90023084BD3F804321B0CE1
S31508001A10DAB2FB6802FB03F3FB603B68FA6813441F
S31508001A20FB60FB6818461037BD46B0BD0010004085
S31508001A302DE9F04F91B000AF034687F83730FFF72E
S31508001A409BFFF8637B4BD3F8043203F00103002BAA
S31508001A5040F0E88097F83730032B00F2E08001A2C7
S31508001A6052F823F0751A0008DF1A00084B1B000805
S31508001A70B51B0008FB6B1C464FF0000522462B469B
S31508001A804FF000004FF00001D90041EA5271D00032
S31508001A9002460B46121945EB03039118B9615B41DF
S31508001AA0FB61D7E9062314461D46624BD3F8183264
S31508001AB01A464FF000034FF03F004FF0000102EACC
S31508001AC00006BE620B40FB62D7E90A232046294678
S31508001AD002F0E1FF02460B461346FB63A3E0FB6BED
S31508001AE01C464FF0000522462B464FF000004FF0EB
S31508001AF00001D90041EA5271D00002460B4612197C
S31508001B0045EB0303911839615B417B61D7E90423EF
S31508001B1014461D46474BD3F818321B0A1A464FF08F
S31508001B2000034FF03F004FF0000102EA00063E6254
S31508001B300B407B62D7E908232046294602F0ABFF13
S31508001B4002460B461346FB636DE0FB6B1C464FF0E3
S31508001B50000522462B464FF000004FF00001D90041
S31508001B6041EA5271D00002460B46121945EB0303AF
S31508001B709118B9605B41FB60D7E9022314461D46FC
S31508001B802C4BD3F818321B0C1A464FF000034FF0B3
S31508001B903F004FF0000102EA000A03EA010B524631
S31508001BA05B462046294602F076FF02460B46134658
S31508001BB0FB6338E0FB6B1C464FF0000522462B46BC
S31508001BC04FF000004FF00001D90041EA5271D000F1
S31508001BD002460B46121945EB0303911839605B411F
S31508001BE07B60D7E9002314461D46124BD3F81832FA
S31508001BF01B0E1A464FF000034FF03F004FF000014E
S31508001C0002EA000803EA010942464B4620462946ED
S31508001C1002F041FF02460B461346FB6303E000232E
S31508001C20FB6300E000BFFB6B18464437BD46BDE8C2
S31508001C30F08F00BF0010004080B500AF0020FFF70E
S31508001C40F7FE0246044BD3F84032DBB20133B2FB4F
S31508001C50F3F3184680BD00BF00100040B0B584B04D
S31508001C6000AF0023FB602B4BD3F8003203F00703C9
S31508001C70022B0ED0022B12D8002B02D0012B04D037
S31508001C800DE0FFF701FEF8600CE0FFF707FEF860CD
S31508001C9008E0FFF74BFE03465B08FB6002E0002303
S31508001CA0FB6000BF1B4BD3F8043203F00103002B83
S31508001CB02BD1FB6818464FF00001164BD3F81032AB
S31508001CC01A464FF0000302FB01F500FB03F42C440F
S31508001CD0A0FB0201631819460E4BD3F814321A46B4
S31508001CE04FF0000302F0D7FE02460B46C7E9002371
S31508001CF0084BD3F804321B0CDAB2FB6802FB03F379
S31508001D00FB603B68FA681344FB60FB6818461037AB
S31508001D10BD46B0BD001002402DE9F04F91B000AFAE
S31508001D20034687F83730FFF799FFF8637B4BD3F8FC
S31508001D30043203F00103002B40F0E88097F83730AF
S31508001D40032B00F2E08001A252F823F05D1D000883
S31508001D50C71D0008331E00089D1E0008FB6B1C46A5
S31508001D604FF0000522462B464FF000004FF00001C9
S31508001D70D90041EA5271D00002460B46121945EBCA
S31508001D8003039118B9615B41FB61D7E90623144641
S31508001D901D46624BD3F818321A464FF000034FF02F
S31508001DA03F004FF0000102EA0006BE620B40FB62EC
S31508001DB0D7E90A232046294602F06DFE02460B465D
S31508001DC01346FB63A3E0FB6B1C464FF00005224657
S31508001DD02B464FF000004FF00001D90041EA52713E
S31508001DE0D00002460B46121945EB030391183961D8
S31508001DF05B417B61D7E9042314461D46474BD3F85C
S31508001E0018321B0A1A464FF000034FF03F004FF0F6
S31508001E10000102EA00063E620B407B62D7E908230E
S31508001E202046294602F037FE02460B461346FB6358
S31508001E306DE0FB6B1C464FF0000522462B464FF023
S31508001E4000004FF00001D90041EA5271D000024665
S31508001E500B46121945EB03039118B9605B41FB6009
S31508001E60D7E9022314461D462C4BD3F818321B0C0F
S31508001E701A464FF000034FF03F004FF0000102EA08
S31508001E80000A03EA010B52465B462046294602F041
S31508001E9002FE02460B461346FB6338E0FB6B1C4604
S31508001EA04FF0000522462B464FF000004FF0000188
S31508001EB0D90041EA5271D00002460B46121945EB89
S31508001EC00303911839605B417B60D7E90023144608
S31508001ED01D46124BD3F818321B0E1A464FF0000354
S31508001EE04FF03F004FF0000102EA000803EA01093B
S31508001EF042464B462046294602F0CDFD02460B4691
S31508001F001346FB6303E00023FB6300E000BFFB6BA3
S31508001F1018464437BD46BDE8F08F00BF00100240A2
S31508001F2080B500AF0020FFF7F7FE0246044BD3F852
S31508001F304032DBB20133B2FBF3F3184680BD00BF73
S31508001F400010024080B582B000AF00237B60274BAB
S31508001F50D3F8343403F00303032B3FD801A252F815
S31508001F6023F000BF751F0008C51F0008CD1F000815
S31508001F70D51F00081D4BD3F8303403F00303032B99
S31508001F801CD801A252F823F0991F0008A51F0008C3
S31508001F90AD1F0008B51F0008FFF7C8FC03469B08DD
S31508001FA07B600EE0FFF77AFC78600AE0FFF7A0FC9A
S31508001FB0786006E0FFF7BAFC786002E000237B60F1
S31508001FC000BF0EE0FFF760FC78600AE0FFF734FE1A
S31508001FD0786006E0FFF796FC786002E000237B60F5
S31508001FE000BF7B6818460837BD4680BD0010004014
S31508001FF0F0B589B000AF78600023FB610123FB6070
S315080020000023BB6100237B6100233B617B68072BB0
S315080020101CD84D4A7B6828335B0113441B6803F0C0
S315080020200703BB61484A7B6828335B0113440433C2
S315080020301B681B0ADBB23B61434A7B6828335B019A
S31508002040134404331B68DBB27B612CE07B680E2BE0
S3150800205011D13D4BD3F8C03603F00703BB613A4BA9
S31508002060D3F8C4361B0ADBB23B61374BD3F8C43608
S31508002070DBB27B6117E07B680F2B11D1324BD3F8AB
S31508002080E03603F00703BB612F4BD3F8E4361B0A8F
S31508002090DBB23B612C4BD3F8E436DBB27B6102E062
S315080020A02A48FFF7B3F8BB69032B25D801A252F8D3
S315080020B023F000BFC5200008CD200008E92000084D
S315080020C0F1200008FFF73EFFF86118E01E4BD3F831
S315080020D0FC36DBB20133FB60FFF7AEFD0246FB6858
S315080020E0B2FBF3F3FB610AE0FFF7CEFBF86106E00B
S315080020F0FFF71CFCF86102E00023FB6100BFFB69E7
S315080021001A464FF00003796908464FF00001441C4F
S3150800211041F1000504FB03F002FB05F14618A2FB9A
S315080021200401731819463A697B69134401331A4640
S315080021304FF0000302F0AFFC02460B461346184662
S315080021402437BD46F0BD00BF00100240084D000808
S3150800215080B584B000AF78600023FB600023BB60C5
S315080021607B68072B08D8254A7B685B01134403F56F
S31508002170A1631B68BB6012E07B680E2B04D11F4B62
S31508002180D3F8C836BB600AE07B680F2B04D11B4B1B
S31508002190D3F8E836BB6002E01948FFF737F8BB68A2
S315080021A0042B22D801A252F823F000BFC12100084F
S315080021B0C9210008D1210008D9210008E121000819
S315080021C0FFF762FBF86013E0FFF7B0FBF8600FE07B
S315080021D0FFF7A6FEF8600BE0FFF77EFBF86007E066
S315080021E07868FFF705FFF86002E00023FB6000BF90
S315080021F0FB6818461037BD4680BD00BF0010024078
S31508002200244D000880B584B000AF78607B681B78E1
S31508002210FB60FB680F2B02D92948FEF7F7FF7B689E
S315080022209B78FF2B02D02748FEF7F0FFFB68072BA9
S3150800223017D87B685B78244A1946FB6828335B0104
S31508002240134419607B68DB781B029BB27A68927824
S315080022501D491A43FB6828335B010B4404331A6093
S315080022602AE0FB680E2B10D17B685A78164BC3F808
S31508002270C0267B68DB781B029BB27A689278114687
S31508002280114A0B43C2F8C43616E0FB680F2B10D16F
S315080022907B685A780C4BC3F8E0267B68DB781B0210
S315080022A09BB27A6892781146074A0B43C2F8E4361D
S315080022B002E00648FEF7AAFF1037BD4680BD00BFFC
S315080022C0404D0008604D0008001002408C4D000883
S315080022D080B586B000AF0346FB7100237B610023FF
S315080022E03B610023FB600023BB603F4BD3F81036ED
S315080022F003F48033002B06D13B4BD3F8143603F096
S315080023008053002B02D03948FEF780FF384BD3F8AC
S315080023100431374A43F00103C2F80431FFF712FECD
S315080023200246334BD3F80034DBB20133B2FBF3F386
S31508002330304A18469047FB79002B12D107F114034F
S315080023402D4A19463020904707F110032A4A1946A4
S315080023503120904707F10C03274A19463220904747
S3150800236011E007F11403244A19463320904707F170
S315080023701003214A19463420904707F10C031E4AD8
S3150800238019463520904707F108031B4A19460C20C1
S3150800239090471A4B98477B6903F01F023B695B011C
S315080023A003F4FC631A43FB68DB0203F47E3313432E
S315080023B0FA79002A01D1002201E04FF440220C49A3
S315080023C01343C1F800310A4BD3F80431084A23F005
S315080023D00103C2F80431BB680949184600F0A2FA9D
S315080023E000BF1837BD4680BD00200040A84D000834
S315080023F000100040F99F001357A0001347A00013D0
S3150800240000A3E11180B582B000AF00237B60174BB3
S31508002410D3F8103603F40043002B06D1134BD3F838
S31508002420143603F08053002B02D01148FEF7EEFE57
S31508002430FFF788FD02460F4BD3F80034DBB20133B1
S31508002440B2FBF3F30C4A184690473B1D0B4A194654
S315080024500D2090470A4B98477B680A49184600F0B2
S3150800246061FA00BF0837BD4680BD00BF00200040A6
S315080024703C4E000800100040F99F001357A00013B7
S3150800248047A0001300A3E11180B582B000AF7860C1
S315080024905C4B4FF4C022C3F820267B681A785A4B47
S315080024A0C3F80022584A7B685B68C2F81032564A5D
S315080024B07B689B68C2F814327B681B7B062B5ED848
S315080024C001A252F823F000BFE5240008FB24000807
S315080024D011250008272500083D2500085325000872
S315080024E069250008484BD3F8043223F47F03464A8B
S315080024F043F48013C2F8043242E0434BD3F8043263
S3150800250023F47F03404A43F48813C2F8043237E0C1
S315080025103D4BD3F8043223F47F033B4A43F490132C
S31508002520C2F804322CE0384BD3F8043223F47F0384
S31508002530354A43F49813C2F8043221E0324BD3F8F3
S31508002540043223F47F03304A43F4A013C2F804325A
S3150800255016E02D4BD3F8043223F47F032A4A43F4BA
S31508002560A813C2F804320BE0274BD3F8043223F43D
S315080025707F03254A43F4B013C2F8043200E000BFD3
S31508002580214BD3F80432204A23F00203C2F804325E
S315080025901C4B4FF4C022C3F830261B4BD3F80C3221
S315080025A09BB25B081949184600F0BCF9164BD3F8DC
S315080025B00432154A43F40053C2F80432124BD3F8D6
S315080025C00C329BB2124AA2FB03239B080F491846FA
S315080025D000F0A8F90C4BD3F804320B4A23F4005345
S315080025E0C2F80432084BD3F80C329BB2084AA2FB55
S315080025F003235B080549184600F094F900BF08371D
S31508002600BD4680BD002000400010004000A3E11137
S31508002610ABAAAAAA80B485B000AF03460A46FB71E6
S315080026201346BB71FB79FB601E4BD3F81822FB6877
S31508002630DB00BF2101FA03F3DB431340BB60FB68F1
S31508002640DB0080229A401749BB681343C1F8183249
S31508002650BB7903F03F02FB68DB009A401149BB686F
S315080026601343C1F8183200BF0E4BD3F81822FB6883
S31508002670DB00402101FA03F31340002BF4D0094B89
S31508002680D3F81822FB68DB00402101FA03F3054959
S315080026901343C1F8183200BF1437BD465DF8047BF2
S315080026A0704700BF0010004080B582B000AF786068
S315080026B05C4B4FF4C012C3F820267B681A785A4B35
S315080026C0C3F80022584A7B685B68C2F81032564A3B
S315080026D07B689B68C2F814327B681B7B062B5ED826
S315080026E001A252F823F000BF052700081B2700089F
S315080026F031270008472700085D27000873270008C8
S3150800270089270008484BD3F8043223F47F03464A46
S3150800271043F48013C2F8043242E0434BD3F8043240
S3150800272023F47F03404A43F48813C2F8043237E09F
S315080027303D4BD3F8043223F47F033B4A43F490130A
S31508002740C2F804322CE0384BD3F8043223F47F0362
S31508002750354A43F49813C2F8043221E0324BD3F8D1
S31508002760043223F47F03304A43F4A013C2F8043238
S3150800277016E02D4BD3F8043223F47F032A4A43F498
S31508002780A813C2F804320BE0274BD3F8043223F41B
S315080027907F03254A43F4B013C2F8043200E000BFB1
S315080027A0214BD3F80432204A23F00203C2F804323C
S315080027B01C4B4FF4C012C3F830261B4BD3F80C320F
S315080027C09BB25B081949184600F0ACF8164BD3F8CB
S315080027D00432154A43F40053C2F80432124BD3F8B4
S315080027E00C329BB2124AA2FB03239B080F491846D8
S315080027F000F098F80C4BD3F804320B4A23F4005334
S31508002800C2F80432084BD3F80C329BB2084AA2FB32
S3150800281003235B080549184600F084F800BF08370B
S31508002820BD4680BD002000400010024000A3E11113
S31508002830ABAAAAAA80B485B000AF03460A46FB71C4
S315080028401346BB71FB79FB601E4BD3F81822FB6855
S31508002850DB00BF2101FA03F3DB431340BB60FB68CF
S31508002860DB0080229A401749BB681343C1F8183227
S31508002870BB7903F03F02FB68DB009A401149BB684D
S315080028801343C1F8183200BF0E4BD3F81822FB6861
S31508002890DB00402101FA03F31340002BF4D0094B67
S315080028A0D3F81822FB68DB00402101FA03F3054937
S315080028B01343C1F8183200BF1437BD465DF8047BD0
S315080028C0704700BF0010024080B584B000AF0346D1
S315080028D03A60FB710B46BB71BB79002B01D0012313
S315080028E000E00023FB60FB79002B0CD00B4AFB6849
S315080028F0C2F86031094B0022C3F8682108493868D4
S3150800290000F010F805E0054AFB6843F00203C2F838
S31508002910603100BF1037BD4680BD00BF00100040C3
S3150800292000A3E111B0B584B000AF786039607B6868
S31508002930002B02D11C48FEF769FC7B6818464FF04D
S3150800294000013B681A464FF0000302FB01F500FB45
S3150800295003F42C44A0FB020163181946134A4FF0EE
S31508002960000302F098F802460B46C7E90223D7E9A6
S315080029700223012B08BF002A02D30D48FEF746FCA6
S31508002980D7E902014FF000024FF00003820842EA3D
S3150800299081728B08C7E90223BB68184601F0F5FC6B
S315080029A000BF1037BD46B0BDD04E000840420F00EC
S315080029B0F84E000880B584B000AF0346FB80FB885C
S315080029C01B0A9BB2FB60FB68052B3FD801A252F895
S315080029D023F000BFED290008FD2900080D2A00088C
S315080029E01D2A00082D2A00083D2A0008FB88DBB2AC
S315080029F01A4A012101FA03F313642AE0FB88DBB2C1
S31508002A00164A012101FA03F3536422E0FB88DBB27C
S31508002A10124A012101FA03F393641AE0FB88DBB238
S31508002A200F4A012101FA03F3136412E0FB88DBB2B3
S31508002A300B4A012101FA03F353640AE0FB88DBB26F
S31508002A40074A012101FA03F3936402E00548FEF7F9
S31508002A50DDFB00BF1037BD4680BD00BF001000403B
S31508002A6000100240204F000880B584B000AF78609F
S31508002A707B68BB600023FB6009E0BA680C49FB6809
S31508002A8051F823309A4206D0FB680133FB60FB6895
S31508002A90092BF2D900E000BFFB68092B02D90548CB
S31508002AA0FEF7B4FBFB6818461037BD4680BD00BF6D
S31508002AB03C4F00088C4F000880B584B000AF7860A2
S31508002AC00B46FB707868FFF7CFFFF8600C4AFB6887
S31508002AD032F813301846FFF76DFF0A4AFB6832F8DA
S31508002AE01330184601F01FFDFB7800221946786856
S31508002AF001F08DFC034618461037BD4680BD00BF61
S31508002B00644F0008784F000880B500AF084B1B6873
S31508002B10002B02D10748FEF779FB054B1B68064ACE
S31508002B201046064A12681146984700BF80BD00BF86
S31508002B305C0F0800D04F000800601040840F0800A2
S31508002B4080B500AF084B5B68002B02D10748FEF73B
S31508002B505DFB054B5B68064A1046064A52681146F5
S31508002B60984700BF80BD00BF5C0F080000500008F2
S31508002B7000701040840F080080B500AF084B9B68B2
S31508002B80002B02D10748FEF741FB054B9B68064A16
S31508002B901046064A92681146984700BF80BD00BF96
S31508002BA05C0F08003050000800801040840F0800B1
S31508002BB080B500AF084BDB68002B02D10748FEF74B
S31508002BC025FB054BDB68064A1046064AD2681146BD
S31508002BD0984700BF80BD00BF5C0F08006050000822
S31508002BE000901040840F080080B500AF084B1B69A1
S31508002BF0002B02D10748FEF709FB054B1B69064A5D
S31508002C001046064A12691146984700BF80BD00BFA4
S31508002C105C0F08009050000800201240840F08003E
S31508002C2080B500AF084B5B69002B02D10748FEF759
S31508002C30EDFA054B5B69064A1046064A5269114683
S31508002C40984700BF80BD00BF5C0F0800C050000851
S31508002C5000301240840F080080B500AF084B9B690E
S31508002C60002B02D10748FEF7D1FA054B9B69064AA5
S31508002C701046064A92691146984700BF80BD00BFB4
S31508002C805C0F0800F050000800401240840F08004E
S31508002C9080B500AF084BDB69002B02D10748FEF769
S31508002CA0B5FA054BDB69064A1046064AD26911464B
S31508002CB0984700BF80BD00BF5C0F08002051000880
S31508002CC000501240840F080080B582B000AF10484B
S31508002CD0FFF7CAFE78600F4A7B6852F82330002B4C
S31508002CE002D10D48FEF792FA0A4A7B6852F8233059
S31508002CF00A497A6851F82220104609497A6851F833
S31508002D0022201146984700BF0837BD4680BD00BF40
S31508002D10006012405C0F0800505100083C4F000844
S31508002D20840F080080B582B000AF1048FFF79CFEFC
S31508002D3078600F4A7B6852F82330002B02D10D4881
S31508002D40FEF764FA0A4A7B6852F823300A497A6819
S31508002D5051F82220104609497A6851F8222011466E
S31508002D60984700BF0837BD4680BD00BF00701240B7
S31508002D705C0F0800885100083C4F0008840F0800C3
S31508002D8080B500AF044B1B68044A12681146044814
S31508002D90984700BF80BD00BFB00F0800AC0F080001
S31508002DA00040134080B584B000AF0346FB80FB8823
S31508002DB01B0A9BB2FB60FB68052B3FD801A252F8A1
S31508002DC023F000BFDD2D0008ED2D0008FD2D0008BD
S31508002DD00D2E00081D2E00082D2E0008FB88DBB2DC
S31508002DE01A4A012101FA03F313642AE0FB88DBB2CD
S31508002DF0164A012101FA03F3536422E0FB88DBB289
S31508002E00124A012101FA03F393641AE0FB88DBB244
S31508002E100F4A012101FA03F3136412E0FB88DBB2BF
S31508002E200B4A012101FA03F353640AE0FB88DBB27B
S31508002E30074A012101FA03F3936402E00548FEF705
S31508002E40E5F900BF1037BD4680BD00BF0010004041
S31508002E5000100240204F000880B582B000AF7860AD
S31508002E6039603B68072B02D90648FEF7CFF9064AB0
S31508002E703B6832F813301846FFF794FF00BF08374F
S31508002E80BD4680BDE0510008C051000880B582B03B
S31508002E9000AF7860396039687868FFF7DDFF054A62
S31508002EA03B6832F81330184601F03DFB00BF08377F
S31508002EB0BD4680BDD051000880B483B000AF03463C
S31508002EC0FB7197F90730002B0BDBFB7903F01F0228
S31508002ED0074997F907305B09012000FA02F241F821
S31508002EE0232000BF0C37BD465DF8047B704700BF42
S31508002EF000E100E080B483B000AF0346FB7197F9A8
S31508002F000730002B0DDB0A4A97F907305B0952F8A0
S31508002F102320FB7903F01F0322FA03F303F00103CE
S31508002F2000E0002318460C37BD465DF8047B704761
S31508002F3000E100E080B483B000AF0346FB7197F967
S31508002F400730002B12DBFB7903F01F020A4997F9B9
S31508002F5007305B09012000FA02F2203341F82320EA
S31508002F60BFF34F8F00BFBFF36F8F00BF00BF0C3793
S31508002F70BD465DF8047B704700E100E080B483B08D
S31508002F8000AF0346FB7197F90730002B0CDBFB7982
S31508002F9003F01F02074997F907305B09012000FA79
S31508002FA002F2603341F8232000BF0C37BD465DF8B6
S31508002FB0047B704700E100E080B483B000AF78601E
S31508002FC0044A7B68136000BF0C37BD465DF8047B76
S31508002FD0704700BF280F080080B400AF00BF0C4B35
S31508002FE05B6803F00103002BF9D1094BDB68084A3B
S31508002FF043F00103D36000BF054B5B6803F0010390
S31508003000002BF9D100BF00BFBD465DF8047B7047B1
S315080030100050134080B586B000AF0346FB80FB889E
S315080030201B0A9BB27B61FB88DBB23B6101223B69D1
S3150800303002FA03F3FB603B691F2B02D93148FEF7FE
S31508003040E5F87B69052B57D801A252F823F000BF93
S3150800305069300008833000089D300008B730000842
S31508003060CD300008E33000084FF08042FB68136457
S3150800307000BF4FF080431A69FB681340002BF8D055
S315080030803BE04FF08042FB68536400BF4FF080433B
S315080030905A69FB681340002BF8D02EE04FF08042A7
S315080030A0FB68936400BF4FF080439A69FB6813403E
S315080030B0002BF8D021E0144AFB68136400BF124BBA
S315080030C01A69FB681340002BF9D016E00E4AFB6814
S315080030D0536400BF0C4B5A69FB681340002BF9D0A8
S315080030E00BE0094AFB68936400BF074B9A69FB68C3
S315080030F01340002BF9D000E000BF00BF1837BD46CB
S3150800310080BD00BF145200080000024080B586B09A
S3150800311000AF0346FB80FB881B0A9BB27B61FB88DA
S31508003120DBB23B6101223B6902FA03F3FB603B69B0
S315080031301F2B02D93448FEF769F87B69052B5DD841
S3150800314001A252F823F000BF613100087D31000862
S3150800315099310008B5310008CD310008E53100087D
S315080031604FF08042FB68136700BF4FF080431A692F
S31508003170FB681340FA689A42F7D040E04FF0804265
S31508003180FB68536700BF4FF080435A69FB681340DA
S31508003190FA689A42F7D032E04FF08042FB689367AC
S315080031A000BF4FF080439A69FB681340FA689A4259
S315080031B0F7D024E0154AFB68136700BF134B1A695A
S315080031C0FB681340FA689A42F8D018E00F4AFB6881
S315080031D0536700BF0D4B5A69FB681340FA689A4259
S315080031E0F8D00CE0094AFB68936700BF074B9A6959
S315080031F0FB681340FA689A42F8D000E000BF00BFA7
S315080032001837BD4680BD00BF345200080000024092
S3150800321080B586B000AFF860B9607A60FB68002BAD
S3150800322005D0BB68002B02D07B68002B02D16A4808
S31508003230FDF7ECFFFB68002B05D0BB68002B02D01E
S315080032407B68002B01D10423C1E00121F868FFF750
S3150800325033FC78617B69002B01D07B69B7E0BB68DA
S315080032605B7A002B23D0FB68D3F8003E43F00112AB
S31508003270FB68C3F8002EFB68D3F8083E23F4706297
S31508003280FB68C3F8082EFB68D3F8082EBB685B7B7F
S315080032901B0203F470631A43FB68C3F8082EFB6825
S315080032A0D3F8083E43F00102FB68C3F8082EBB6852
S315080032B01B7A002B23D0FB68D3F8003E43F002129A
S315080032C0FB68C3F8002EFB68D3F8083E23F4702287
S315080032D0FB68C3F8082EFB68D3F8082EBB689B7BEF
S315080032E01B0403F470231A43FB68C3F8082EFB6813
S315080032F0D3F8083E43F00202FB68C3F8082EBB6801
S315080033001B791B0103F03002BB685B799B0103F054
S3150800331040031A43BB689B799B0003F00C031A43CE
S31508003320BB68DB79DB039BB21A43BB68DB7B5B08B4
S31508003330DBB2DB0203F400631A43BB68DB7B9B0347
S3150800334003F480431A43BB681B7C1B0303F48053B6
S315080033501A43BB68DB7ADB01DBB21A43BB681B7B0B
S315080033605B0203F40073134343F00102FB681A601F
S31508003370BB68DB7A002B16D0BB681B684FF4165265
S31508003380B2FBF3F103FB01F3D31A002B08D1BB6898
S315080033901B684FF41652B2FBF3F2FB681A620FE091
S315080033A041F2516313E0BB681B687A681946F868EE
S315080033B000F054F878617B69002B01D07B6906E040
S315080033C0BB689B7A1946F86801F0BEF800231846D0
S315080033D01837BD4680BD00BF5452000880B582B07C
S315080033E000AF78607B68002B02D11B48FDF70EFF03
S315080033F014220021786801F01CFA7B684FF4E13248
S315080034001A607B6800221A717B6800225A717B68F1
S3150800341001229A717B680022DA717B6800221A728F
S315080034207B6800225A727B680022DA727B68002267
S315080034305A737B6800229A737B680022DA737B686A
S3150800344000229A727B6800221A747B6800221A731B
S3150800345000BF0837BD4680BDA452000880B58CB0B1
S3150800346000AFF860B9607A604FF0FF33FB620F2354
S31508003470BB624FF0FF337B62FB68002B05D0BB684D
S31508003480002B02D07B68002B02D14E48FDF7BEFE0A
S31508003490FB68002B05D0BB68002B02D07B68002B8D
S315080034A001D1042389E0FB681B6803F40063002B41
S315080034B00FD0FB681B6803F48043002B7CD07A6826
S315080034C0BB68B2FBF3F37B617B695A1EFB681A6221
S315080034D072E0BB6A3B623BE07A6813469B00134482
S315080034E05B0019463B6A0133BA6802FB03F3B1FB7A
S315080034F0F3F3053B344AA2FB0323DB087B617B69B4
S31508003500B3F5803F20D23B6A01337A69013202FB68
S3150800351003F37A68B2FBF3F3FB61BA68FB699A4274
S3150800352003D2FA69BB68D31A02E0BA68FB69D31AF0
S31508003530BB61BA69FB6A9A4207D2BB69FB623B6AFE
S31508003540BB627B697B6200E000BF3B6A013B3B6272
S315080035503B6A072BC0D8BB6A01337A6A013202FB81
S3150800356003F37A68B2FBF3F3FB61BA68FB699A4224
S3150800357003D2FA69BB68D31A02E0BA68FB69D31AA0
S31508003580BB61BB68114AA2FB03235A0913465B00B9
S315080035901344BA699A4202D941F251630DE07B6A33
S315080035A0B3F5803F02D341F2516306E0FB68BA6A7D
S315080035B09A62FB687A6A1A62002318463037BD4653
S315080035C080BD00BFC8520008CDCCCCCC1F85EB51BE
S315080035D080B584B000AFF860B9607A60FB68002BEC
S315080035E002D0BB68002B02D11B48FDF70FFEFB6813
S315080035F0002B02D0BB68002B01D1042327E0FB680F
S31508003600D3F8003E03F00103002B15D104231EE076
S3150800361000BFFB68D3F8043E03F02003002BF8D064
S31508003620BB681B781A46FB68C3F8202EBB680133B3
S31508003630BB607B68013B7B607B68002BE8D100BFE1
S31508003640FB689B6803F00803002BF9D00023184693
S315080036501037BD4680BD00BF1C53000880B586B034
S3150800366000AFF860B9607A6000237B61FB68002BC5
S3150800367002D0BB68002B02D13848FDF7C7FDFB68AE
S31508003680002B02D0BB68002B01D1042361E0FB6844
S31508003690D3F8003E03F00203002B54D1012358E06F
S315080036A000BFFB68D3F8043E03F04003002BF8D0B4
S315080036B0FB68D3F8043E03F00203002B13D0FB6823
S315080036C0D3F8003E43F40032FB68C3F8002EFB68CB
S315080036D0D3F8043E43F00202FB68C3F8042E41F215
S315080036E04D637B6134E0FB689B683B61FB689A68C5
S315080036F03B691A43FB689A603B6903F48043002BD5
S3150800370002D041F250637B613B6903F40053002BFE
S3150800371002D041F24F637B613B6903F40043002BFF
S3150800372002D041F24E637B617B69002B0FD1FB68A7
S31508003730D3F8303EDAB2BB681A70BB680133BB6097
S315080037407B68013B7B607B68002BA9D100E000BF4A
S315080037507B6918461837BD4680BD00BF545300081C
S3150800376080B58AB000AF786039607B68002B02D1DB
S315080037703848FDF74BFD3B68002B02D13648FDF76C
S3150800378045FD3B689B7B072B02D93448FDF73EFD78
S315080037903B689B7B1A46324B53F82230002B02D1EA
S315080037A03048FDF733FD07F10C031846FFF716FE00
S315080037B03B685B68FB603B681B7A022B02D10223DD
S315080037C03B7408E03B681B7A032B02D103233B7446
S315080037D001E000233B743B685B7A012B02D101238D
S315080037E07B7401E000237B743B689B7A002B14BF33
S315080037F001230023DBB23B753B68DB7A002B14BF41
S3150800380001230023DBB27B7500237B760023BB767E
S315080038103B689B7B1A46124B53F822003B681A6892
S3150800382007F10C031946FFF7F3FC78627B6A002B55
S3150800383004D0786A00F0A4FE034606E07B683B6283
S315080038403B689A7B3B6A1A70002318462837BD46A0
S3150800385080BD00BFAC530008D0530008F4530008DD
S315080038608C5300085854000880B586B000AFF8603D
S31508003870B9607A60FB68002B02D11248FDF7C6FCD6
S31508003880BB68002B02D11048FDF7C0FC7B68002BF3
S3150800389002D10E48FDF7BAFCFB687B617B691B7891
S315080038A01A460B4B53F822307A68B9681846FFF760
S315080038B0D5FE3861386900F063FE034618461837A6
S315080038C0BD4680BD98540008BC540008DC54000866
S315080038D08C53000880B586B000AFF860B9607A608E
S315080038E0FB68002B02D11048FDF790FCBB68002B43
S315080038F002D10E48FDF78AFC7B68002B02D10C48E2
S31508003900FDF784FCFB687B617B691B781A46094BCB
S3150800391053F822307A68B9681846FFF759FE00232B
S3150800392018461837BD4680BD0055000824550008BE
S31508003930445500088C53000880B582B000AF0C4B84
S315080039401B683B603B461846FEF75CFC094800F0DE
S315080039509FFC0020FEF7FCFB78607B6801224FF491
S31508003960E1310020FDF75EFC00BF0837BD4680BD8B
S31508003970685500080845008080B483B000AF7860B9
S31508003980044A7B68136000BF0C37BD465DF8047BAC
S31508003990704700BF500F080080B483B000AF78604E
S315080039A07B68DAB27B681B0A9900064B0B441946FA
S315080039B0012393400B6000BF0C37BD465DF8047BBE
S315080039C0704700BF3026004080B500AF0E20FFF7D5
S315080039D0E3FF1020FFF7E0FF0020FEF779FC0F2039
S315080039E0FFF7DAFFFEF70EFD00F0DBFD214800F0D9
S315080039F04FFC0D20FFF7D0FF4FF48270FFF7DCFA7B
S31508003A004FF4827201210120FEF75EFF1A48FFF784
S31508003A10B3FF1A48FEF738FD13210020FEF7FAFD1A
S31508003A2018210220FEF7F6FD1548FEF73DFE1A217D
S31508003A300020FEF7FFFE02214FF4806000F06DFCC7
S31508003A4042F2344000F024FC0F210E4800F065FCD9
S31508003A5002214FF4A06000F060FC0C210A4800F037
S31508003A605CFC0521012001F0FFF8084B084A1A60A2
S31508003A7000BF80BD3034340400366E018C55000812
S31508003A809C55000840020080FC060080340F0800A0
S31508003A90AF4DE80E80B400AF074BD3F86831002B62
S31508003AA004D0054BD3F86831002300E0034B1846D1
S31508003AB0BD465DF8047B70470010004000366E0175
S31508003AC080B483B000AF00237B600D4BD3F8003180
S31508003AD003F44023002B03D0B3F5402F03D005E0B1
S31508003AE0084B7B6005E0084B7B6002E000237B60A7
S31508003AF000BF7B6818460C37BD465DF8047B7047E7
S31508003B0000100040006CDC020087930380B500AF0C
S31508003B102D4BD3F888302C4A43F47003C2F888300A
S31508003B20294BD3F88830284A43F00F03C2F8883067
S31508003B30254BD3F88C30244A43F4406343F00303FF
S31508003B40C2F88C30214B0122DA60214BB3F1006FA9
S31508003B5003D31F4BB3F1805F07D31D4BB3F1C05F8F
S31508003B602DD31B4BB3F1005F29D21A4BDB69002B0F
S31508003B7025D1184B4FF0A062C3F80028154BD3F88F
S31508003B800038144A43F00043C2F8003800BF114B0E
S31508003B90D3F80038002BFADB0E4B0322C3F80028B3
S31508003BA00C4B0D4A5A610B4B00229A61094B0122B4
S31508003BB0DA61BFF36F8F00BFBFF34F8F00BF00F00E
S31508003BC02AFE00BF80BD00BF00ED00E000200040D7
S31508003BD0DD3B00080030034000FCFF072DE9B04F2D
S31508003BE084B000AF0023FB604FF000024FF00003E3
S31508003BF0C7E90023704BD3F8343403F00303032BCF
S31508003C0000F2C88001A252F823F000BF1D3C00084C
S31508003C106B3C0008713C00088D3D0008664BD3F8E4
S31508003C20303403F00303032B1BD801A252F823F008
S31508003C30413C00084D3C0008553C00085B3C000828
S31508003C40FFF73EFF03469B08FB600DE0FFF722FFE8
S31508003C50F86009E0594BFB6006E0FFF731FFF860B2
S31508003C6002E00023FB6000BF97E0554BFB6094E041
S31508003C70514BD3F8003203F00703022B0DD0022B69
S31508003C8011D8002B02D0012B03D00CE04C4BFB6063
S31508003C900CE0FFF7FFFEF86008E0FFF711FF0346A8
S31508003CA05B08FB6002E00023FB6000BF424BD3F8D1
S31508003CB0043203F00103002B5ED1FB6818464FF06F
S31508003CC000013D4BD3F810321A464FF0000302FBB1
S31508003CD001F500FB03F42C44A0FB02016318194606
S31508003CE0354BD3F814321A464FF0000300F0D3FED2
S31508003CF002460B46C7E900232F4BD3F804321B0CA8
S31508003D00DAB2FB6802FB03F3FB603B68FA6813440C
S31508003D10FB60FB681C464FF0000522462B464FF019
S31508003D2000004FF00001D90041EA5271D000024666
S31508003D300B46121945EB030312EB020A43EB030B7E
S31508003D4052465B4614461D461B4BD3F818321A4694
S31508003D504FF000034FF03F004FF0000102EA000861
S31508003D6003EA010942464B462046294600F093FEDF
S31508003D7002460B461346FB600F4BD3F84032DBB2C4
S31508003D800133FA68B2FBF3F3FB6006E04FF4004335
S31508003D90FB6002E00023FB6000BF074BD3F800344A
S31508003DA0DBB20133FA68B2FBF3F3064A136000BFCD
S31508003DB01037BD46BDE8B08F0010004040420F00E6
S31508003DC00024F400340F080010B5174A17490020DC
S31508003DD000F08EFD4FF480734FF480620021124884
S31508003DE000F041FD124A1349012000F081FD4FF40D
S31508003DF080734FF4806200210D4800F034FD0E4BAD
S31508003E001B68022B0EDD0D4A0A49022000F070FDE0
S31508003E10BDE810404FF480734FF4806200210748D4
S31508003E2000F021BD10BD00BFB80F0800B05500084E
S31508003E30F40F0800B2550008AC5500083010080009
S31508003E40F7B5044698B103B0BDE8F04000F0BABD36
S31508003E5007FB046000F0B6FD002818BF4FF0FF35D9
S31508003E600134019BA342F3DC284603B0F0BD034BA3
S31508003E7005461B683C27024E0193F2E7AC5500083D
S31508003E80B80F08002DE9F843C6683D4B0446334091
S31508003E900D4690461BB902273846BDE8F883D0F888
S31508003EA01490484600F0D1FE07460028F3D1B8F131
S31508003EB0010F2CD0B8F1020F2ED0B8F1000FEAD1BD
S31508003EC0002DE8DBB00404D52368E26A9A4238BFBD
S31508003ED0E362A169A9420EDC2368E26A934238BF0D
S31508003EE0134622695818801AA84204DB206B01EB96
S31508003EF0000CAC4534DC0023C4E9013346F0200647
S31508003F00A56226F4032626F04006E660C4E72046A6
S31508003F1000F038F80544D3E7484600F093FEB0F1C0
S31508003F20000CE26804DA42F080020127E260B3E797
S31508003F3023681846A3691946E36A98422CBF0918EC
S31508003F40C9180B4621699206A3EB010303D5A26A99
S31508003F509342B8BF13466345ACBFED186544AFE757
S31508003F606D1AB10744BF281AA060F10744BF9B1A0F
S31508003F70EB1A154448BF6360256026F02006C0E7A3
S31508003F8003001000C3689A0705D121220D4B4FF094
S31508003F90FF301A60704703F020021B0309D512B1DF
S31508003FA0806A013870470368826900691344181AE1
S31508003FB0F7E70AB1806A70470368826900691344A3
S31508003FC0181A7047B40F08002DE9F041D5688046E5
S31508003FD0EB020E461446576905D5384600F032FE00
S31508003FE045F01005A061124B2B408BB13846A169EC
S31508003FF000F031FE002806DAE3684FF0FF3043F0A0
S315080040008003E36011E025F4003525F01005E5602E
S3150800401032464146384600F024FE20F00041761A22
S31508004020A1690E44A6610028E6D1BDE8F08100BF6B
S315080040301000020080B586B000AFB9607A603B60B8
S315080040400346FB73BB687B610BE0FA7B3B6A104651
S3150800405098473B681B685A1C3B681A607B690133A2
S315080040607B617A697B689A42EFDB00BF00BF18372D
S31508004070BD4680BD80B48DB000AFF860B9607A6087
S315080040803B600023FB61FB68BB61BB695A1CBA61D4
S3150800409000221A707B68002B33D0BB681B68FB6252
S315080040A0FB6A002B29D1BB6930221A70FB690133E0
S315080040B0FB61FB6960E0FA6A3B6892FBF3F33B61DC
S315080040C03B693A6802FB03F3FA6AD31ABB62BB6A16
S315080040D0002B04DABB6AC3F13003BB6202E0BB6A99
S315080040E03033BB623B69FB62BB695A1CBA61BA6A68
S315080040F0D2B21A70FB690133FB61FB6A002BDAD175
S3150800410039E0BB681B687B627B6A002B30D1BB69D0
S3150800411030221A70FB690133FB61FB692CE03B68AE
S315080041207A6AB2FBF3F37B613B687A6902FB03F3B5
S315080041307A6AD31A3B623B6A092B03D83B6A303347
S315080041403B620AE097F83830002B01D0412200E0A4
S3150800415061223B6A13440A3B3B627B697B62BB690B
S315080041605A1CBA613A6AD2B21A70FB690133FB610A
S315080041707B6A002BD3D1FB6918463437BD465DF8F8
S31508004180047B704780B485B000AFF860B9607A6088
S31508004190FB70FA68BB685B011A447B681344FA78BB
S315080041A01A7000BF1437BD465DF8047B704780B4AB
S315080041B085B000AFF860B9607A60FB68BA6802F546
S315080041C00C62796843F8221000BF1437BD465DF8C3
S315080041D0047B704780B483B000AF786039607B6831
S315080041E03A6802F5046253F8223018460C37BD4681
S315080041F05DF8047B704780B485B000AFF860B9609D
S315080042007A60FB68BA6802F50262796843F8221098
S3150800421000BF1437BD465DF8047B704780B485B08F
S3150800422000AFF860B9607A60FB68BA6802F50662A2
S31508004230796843F8221000BF1437BD465DF8047B41
S31508004240704780B483B000AF786039607B683A689D
S3150800425002F5066253F8223018460C37BD465DF85B
S31508004260047B704704207146084202D0EFF30980A8
S3150800427001E0EFF3088081690A884BF6AB639A423E
S3150800428000D0FEE70231816120210160704700BF3E
S3150800429080B487B000AF78600023FB7500233B61CC
S315080042A02CE03B691B017A6822FA03F37B607B6882
S315080042B003F08023002B08D07B68C3F30B0303F1BC
S315080042C0804303F50433FB6007E07B68C3F30B0305
S315080042D003F1804303F58053FB607B68C3F30B034C
S315080042E0002B06D07B681B0B03F00702FB681A60DD
S315080042F001E00123FB753B6901333B613B69012BF7
S3150800430005D8FB7D83F00103DBB2002BC9D100BFC2
S315080043101C37BD465DF8047B704780B485B000AF96
S31508004320786039607B68002B08DA7B68C3F30B0377
S3150800433003F1804303F50433FB6007E07B68C3F3AE
S315080043400B0303F1804303F58053FB60FB681B688E
S3150800435043F00052FB681A603B68002B06D1FB68E5
S315080043601B6843F08042FB681A6008E03B685A1EE7
S31508004370FB681A6000BFFB681B68002BFBDB00BFED
S315080043801437BD465DF8047B704780B483B000AF30
S3150800439078607B681846A0F101000028FBD100BFB1
S315080043A00C37BD465DF8047B704780B483B000AF18
S315080043B078600B46FB70FB78002B01D1012320E0C7
S315080043C0FB78042B0ED87B68D3F8F82FFB780333D9
S315080043D022FA03F303F00103002B14BF0123002381
S315080043E0DBB20EE0FB78052B0AD17B68D3F8F83FE1
S315080043F003F08003002B14BF01230023DBB200E087
S31508004400002318460C37BD465DF8047B704780B517
S3150800441084B000AFF8600B467A60FB72FB7A1946E7
S31508004420F868FFF7C2FF034683F00103DBB2002BEF
S3150800443001D0032321E0FB68D3F8F83F03F0080313
S31508004440002B09D0FB68D3F8F83F03F00702FB7A84
S315080044509A4201D0012310E07B68002B08D0FB7A32
S3150800446043F00803DBB21A46FB68C3F8F82F03E0EB
S31508004470FA7AFB68C3F8F82F002318461037BD46AA
S3150800448080BD80B584B000AFF860B9607A603B60E3
S31508004490B968F868FEF7E0FC3B681B78002B13D177
S315080044A0FB68BA6802F5006253F8222001217B688E
S315080044B001FA03F3DB4302EA0301FB68BA6802F573
S315080044C0006243F822102AE03B685B78002B0AD189
S315080044D001227B6802FA03F1FB68BA6802F50A62F0
S315080044E043F8221009E001227B6802FA03F1FB680F
S315080044F0BA6802F5086243F82210FB68BA6802F542
S31508004500006253F8222001217B6801FA03F342EA8C
S315080045100301FB68BA6802F5006243F8221000BF7F
S315080045201037BD4680BD80B582B000AF0346FB801C
S31508004530FB881846FEF76EFDFB881846FEF7E6FD73
S3150800454000BF0837BD4680BD80B483B000AF786031
S315080045500B46FB70FB78002B06D07B685B6843F440
S3150800456080727B685A6005E07B685B6823F480721A
S315080045707B685A6000BF0C37BD465DF8047B704700
S3150800458080B483B000AF78607B68002B01D100232C
S3150800459001E042F6AF7318460C37BD465DF8047B5A
S315080045A0704780B500AF0121032000F05DFB00BF16
S315080045B080BD80B485B000AFF8607B600B46FB72A7
S315080045C01346BB72F97ABA7AFB6849010A447968D4
S315080045D043F8221000BF1437BD465DF8047B7047C8
S315080045E080B584B000AF0123FB60FB68012200217F
S315080045F04FF04020FFF7DDFF4023BB60BB680A226F
S3150800460000214FF04020FFF7D4FF41237B607B68F1
S31508004610022200214FF04020FFF7CBFF00233B602A
S315080046203B681A2200214FF04020FFF7C2FF00BF67
S315080046301037BD4680BD08B5FCF7E6FD08BD08B5D0
S31508004640FCF7E2FD08BD08B5FCF7DEFD08BD08B5B8
S31508004650FCF7DAFD08BD08B5FCF7D6FD08BD08B5B8
S31508004660FCF7D2FD08BD08B5FCF7CEFD08BD08B5B8
S31508004670FCF7CAFD08BD08B5FCF7C6FD08BD08B5B8
S31508004680FCF7C2FD08BD08B5FCF7BEFD08BD08B5B8
S31508004690FCF7BAFD08BD08B5FCF7B6FD08BD08B5B8
S315080046A0FCF7B2FD08BD08B5FEF72EFA08BD08B539
S315080046B0FEF746FA08BD08B5FEF75EFA08BD08B566
S315080046C0FEF776FA08BD08B5FEF78EFA08BD08B5F6
S315080046D0FEF7A6FA08BD08B5FEF7F6FA08BD08B54E
S315080046E0FEF720FB08BD08B5FCF78EFD08BD08B52A
S315080046F0FCF78AFD08BD08B5FCF786FD08BD08B5B8
S31508004700FCF782FD08BD08B5FCF77EFD08BD08B5B7
S31508004710FCF77AFD08BD08B5FCF776FD08BD08B5B7
S31508004720FCF772FD08BD08B5FCF76EFD08BD08B5B7
S31508004730FCF76AFD08BD08B5FCF766FD08BD08B5B7
S31508004740FCF762FD08BD08B5FCF75EFD08BD08B5B7
S31508004750FCF75AFD08BD08B5FCF756FD08BD08B5B7
S31508004760FCF752FD08BD08B5FCF74EFD08BD08B5B7
S31508004770FCF74AFD08BD08B5FCF746FD08BD08B5B7
S31508004780FCF742FD08BD08B5FEF7FAFA08BD08B5FC
S31508004790FEF762FA08BD08B5FEF77AFA08BD08B54D
S315080047A0FCF732FD08BD08B5FCF72EFD08BD08B5B7
S315080047B0FCF72AFD08BD08B5FCF726FD08BD08B5B7
S315080047C0FCF722FD08BD08B5FCF71EFD08BD08B5B7
S315080047D0FCF71AFD08BD08B5FCF716FD08BD08B5B7
S315080047E0FCF712FD08BD08B5FCF70EFD08BD08B5B7
S315080047F0FCF70AFD08BD08B5FCF706FD08BD08B5B7
S31508004800FCF702FD08BD08B5FCF7FEFC08BD08B5B7
S31508004810FCF7FAFC08BD80B400AF00BFBD465DF8E2
S31508004820047B704708B5FFF7CFFABDE80840FCF7E8
S31508004830BDBF00F0EBB9A8B14FF0805340F80C3C6F
S3150800484050F8042C72B11368B3F1805F0AD150F89E
S31508004850083C516803330B4440F8083C936840F819
S31508004860043CEDE7704770B5C468A50708D0B2F5F3
S31508004870007F11D0B2F5806F04D0B2F5807F0BD0DF
S31508004880012008E0012300F12401224301610160AF
S31508004890C361C260002070BD6FF07F455E1EAE42E8
S315080048A0F3D3EDE710B5421C8307044616D1234619
S315080048B054F8041BA1F1013020EA010010F0803FF2
S315080048C0F5D011F0FF0F11D011F47F4F0CD011F471
S315080048D07F0F14BF23460333981A04E010F8013BF0
S315080048E0002BE1D1801A10BD0233F5E70133F3E757
S315080048F070B50D4606461046144600F02DF82B787E
S31508004900722B17D0772B18D0612B23D1082348F2A6
S31508004910020215F8011F2B2912D0622915D01B0790
S31508004920E260666104D5022200212046FFF7AAFA52
S31508004930204670BD00230122EBE704230222E8E7A4
S3150800494042F0030243F00203E3E742F0040243F0B5
S315080049500103DEE70024EBE7F0B5C4680546A107C6
S3150800496089B022D0220718D4D0E90467FFF768FA7D
S31508004970384600F064F9230502D53046FFF75BFF99
S31508004980A40DA40514F1A54F07D120226846296A6B
S3150800499000F064F9684600F00BF83C22002128462E
S315080049A0FFF747FF002009B0F0BD4FF0FF30FAE7E8
S315080049B010B50446FFF776FF01462046BDE81040CD
S315080049C000F046B9C36870B513F00306044611D063
S315080049D09B0611D5856A00F03EF8E368204623F465
S315080049E04053E36000F00EF80022064629462046AA
S315080049F0FFF748FA304670BD816905680D440169BC
S31508004A006D1AEAE738B5044605690168C36AC068DD
S31508004A1020F40022E26000F08202022A02D04FF05F
S31508004A20FF3038BD10F48030FBD0994238BF1946A4
S31508004A308D4208D10020E368E56223F480332560BF
S31508004A40A060E360EDE722462846491BFFF7BCFA5B
S31508004A500028EFD0E3E7C36810B523F02003826986
S31508004A60C360836A04469A420ED0FFF7CBFFE36819
S31508004A7023F4405323F0100343F01003E360A36AC2
S31508004A80A3612369E3622360E36823F4804323F088
S31508004A904003E36010BD5FF0000C30B51C0022D166
S31508004AA012006FD0914206D305460846002100F051
S31508004AB06FF80446284600F06BF80A462146BDE81A
S31508004AC030401CF0404F08BF704703D5494240426A
S31508004AD061F100015FEA8C0C38BF70475B425242B5
S31508004AE063F10003704742D41C0C04BF1B040CF18D
S31508004AF0100C13F07F4F04BF1B020CF1080C13F0C7
S31508004B00704F04BF1B010CF1040C13F0404F04BF97
S31508004B100CF1020C5FEA83035CBF0CF1010C5B002D
S31508004B20CCF1200E22FA0EF4234302FA0CF200FA14
S31508004B300CF520FA0EF001FA0CF4204321FA0EF1D6
S31508004B4014461A4600F024F8A4FB0023AA1A71EBAF
S31508004B5003033CBF1B190138CCF1200E22FA0CF2D4
S31508004B6003FA0EF4224323FA0CF30021A7E7821A6C
S31508004B7071EB03033CBF02460B464FF0000141F1BF
S31508004B8000009CE700200021BDE8304000F03DB859
S31508004B900423B1EB122F09D2090241EA106100027F
S31508004BA0013B08BF7047B1EB122FF5D300184941F6
S31508004BB034BF9142891A4041494134BF9142891A0A
S31508004BC04041494134BF9142891A4041494134BF65
S31508004BD09142891A4041494134BF9142891A40415C
S31508004BE0494134BF9142891A4041494134BF9142F3
S31508004BF0891A4041494134BF9142891A4041A3F17B
S31508004C00010313F00F0FD2D170477047034613F014
S31508004C10030F0ED101F0FF0141EA012141EA0141EA
S31508004C20043A24BF43F8041BB2F10402F9D202F194
S31508004C300402013A24BF03F8011BFAE770474FF054
S31508004C40FF3070474FF0FF3070474FF0FF30704726
S31508004C504FF0FF3070474FF0FF3070474FF0FF308E
S31508004C60704710467047FFFF01B40248844601BCEE
S31508004C70604700BFF90C080041535345525420457C
S31508004C8052524F522022202573200A000D0A20472F
S31508004C9050494F20447269766572206578616D7057
S31508004CA06C650D0A000000000D0A20546865204C4A
S31508004CB045442069732074616B696E672074757248
S31508004CC06E7320746F207368696E652E0D0A000076
S31508004CD00D0A205374616E6461726420706F727479
S31508004CE020726561643A2025780D0A000D0A204D68
S31508004CF061736B656420706F727420726561643AC3
S31508004D002025780D0A00FFFF2E66736C5F636C6FB3
S31508004D10636B2E633A353637203A2066616C7365C5
S31508004D2000FFFFFF2E66736C5F636C6F636B2E6309
S31508004D303A363230203A2066616C736500FFFFFF11
S31508004D402E66736C5F636C6F636B2E633A31313515
S31508004D5030203A2069203C3D2031355500000000BE
S31508004D602E66736C5F636C6F636B2E633A313135F5
S31508004D7031203A20636F6E6669672D3E64697669ED
S31508004D80646572203D3D2032353555002E66736CBC
S31508004D905F636C6F636B2E633A31313730203A208C
S31508004DA066616C736500FFFF2E66736C5F636C6FDC
S31508004DB0636B2E633A31313839203A202828535903
S31508004DC05343544C302D3E504452554E434647307B
S31508004DD020262053595343544C305F504452554E65
S31508004DE0434647305F4646524F5F50445F4D4153F6
S31508004DF04B29203D3D2030554C29202626202828A1
S31508004E0053595343544C302D3E504452554E434605
S31508004E10473120262053595343544C305F5044524F
S31508004E20554E434647315F524F4D5F50445F4D41A3
S31508004E30534B29203D3D2030554C29002E66736C76
S31508004E405F636C6F636B2E633A31323331203A20DD
S31508004E50282853595343544C302D3E504452554EEE
S31508004E604346473020262053595343544C305F500D
S31508004E704452554E434647305F5346524F5F50445F
S31508004E805F4D41534B29203D3D2030554C29202666
S31508004E902620282853595343544C302D3E5044520B
S31508004EA0554E4346473120262053595343544C30D8
S31508004EB05F504452554E434647315F524F4D5F50FF
S31508004EC0445F4D41534B29203D3D2030554C290028
S31508004ED02E66736C5F636F6D6D6F6E2E633A323735
S31508004EE034203A20305520213D2064656C61795480
S31508004EF0696D655F757300002E66736C5F636F6D11
S31508004F006D6F6E2E633A323736203A20636F756EB0
S31508004F1074203C3D2055494E5433325F4D4158006C
S31508004F202E66736C5F636C6F636B2E683A38363423
S31508004F30203A2066616C736500FFFFFF0060104031
S31508004F400070104000801040009010400020124071
S31508004F5000301240004012400050124000601240DB
S31508004F6000701240080309030A030B030C030D0320
S31508004F700E030F0316031703080309030A030B039B
S31508004F800C030D030E030F03160317032E66736C2B
S31508004F905F666C6578636F6D6D2E633A31303620C7
S31508004FA03A2069203C202875696E7433325F74296B
S31508004FB046534C5F464541545552455F534F435FF0
S31508004FC0464C4558434F4D4D5F434F554E5400FF91
S31508004FD02E66736C5F666C6578636F6D6D2E633ACB
S31508004FE0313739203A20735F666C6578636F6D6D6B
S31508004FF049727148616E646C65725B305D00FFFFD3
S315080050002E66736C5F666C6578636F6D6D2E633A9A
S31508005010313839203A20735F666C6578636F6D6D39
S3150800502049727148616E646C65725B315D00FFFFA1
S315080050302E66736C5F666C6578636F6D6D2E633A6A
S31508005040313939203A20735F666C6578636F6D6D08
S3150800505049727148616E646C65725B325D00FFFF70
S315080050602E66736C5F666C6578636F6D6D2E633A3A
S31508005070323039203A20735F666C6578636F6D6DE0
S3150800508049727148616E646C65725B335D00FFFF3F
S315080050902E66736C5F666C6578636F6D6D2E633A0A
S315080050A0323139203A20735F666C6578636F6D6DAF
S315080050B049727148616E646C65725B345D00FFFF0E
S315080050C02E66736C5F666C6578636F6D6D2E633ADA
S315080050D0323330203A20735F666C6578636F6D6D86
S315080050E049727148616E646C65725B355D00FFFFDD
S315080050F02E66736C5F666C6578636F6D6D2E633AAA
S31508005100323430203A20735F666C6578636F6D6D54
S3150800511049727148616E646C65725B365D00FFFFAB
S315080051202E66736C5F666C6578636F6D6D2E633A79
S31508005130323530203A20735F666C6578636F6D6D23
S3150800514049727148616E646C65725B375D00FFFF7A
S315080051502E66736C5F666C6578636F6D6D2E633A49
S31508005160333234203A20735F666C6578636F6D6DF1
S3150800517049727148616E646C65725B696E737461BD
S315080051806E63655D00FFFFFF2E66736C5F666C6578
S3150800519078636F6D6D2E633A333338203A20735F28
S315080051A0666C6578636F6D6D49727148616E646C83
S315080051B065725B696E7374616E63655D00FFFFFF00
S315080051C00004010402040304040405040604070495
S315080051D00004010402040304040405040604070485
S315080051E02E66736C5F6770696F2E633A3435203AA2
S315080051F020706F7274203C2041525241595F5349C6
S315080052005A4528735F6770696F436C6F636B4E61AD
S315080052106D6529002E66736C5F72657365742E63FF
S315080052203A3436203A20626974506F73203C203332
S31508005230327500FF2E66736C5F72657365742E6334
S315080052403A313036203A20626974506F73203C2018
S31508005250333275002E66736C5F75736172742E63D4
S315080052603A313938203A202128284E554C4C203DD1
S315080052703D206261736529207C7C20284E554C4C64
S31508005280203D3D20636F6E66696729207C7C202857
S315080052903055203D3D20737263436C6F636B5F48E6
S315080052A07A2929002E66736C5F75736172742E6392
S315080052B03A333034203A204E554C4C20213D206359
S315080052C06F6E66696700FFFF2E66736C5F757361A4
S315080052D072742E633A333438203A202128284E55E2
S315080052E04C4C203D3D206261736529207C7C20283A
S315080052F03055203D3D2062617564726174655F4278
S31508005300707329207C7C20283055203D3D207372FF
S3150800531063436C6F636B5F487A2929002E66736C4A
S315080053205F75736172742E633A353131203A2021E4
S3150800533028284E554C4C203D3D2062617365292036
S315080053407C7C20284E554C4C203D3D206461746180
S31508005350292900FF2E66736C5F75736172742E635C
S315080053603A353837203A202128284E554C4C203DCE
S315080053703D206261736529207C7C20284E554C4C63
S31508005380203D3D2064617461292900FF00601040BA
S31508005390007010400080104000901040002012401D
S315080053A00030124000401240005012402E66736CC6
S315080053B05F616461707465725F75736172742E6380
S315080053C03A323235203A2068616E646C6500000016
S315080053D02E66736C5F616461707465725F75736164
S315080053E072742E633A323236203A20636F6E6669DB
S315080053F0670000002E66736C5F6164617074657285
S315080054005F75736172742E633A323237203A2063BD
S315080054106F6E6669672D3E696E7374616E6365208B
S315080054203C202873697A656F6628735F55736172C5
S3150800543074416461707465724261736529202F2016
S3150800544073697A656F662855534152545F5479706B
S3150800545065202A29290000002E66736C5F61646145
S31508005460707465725F75736172742E633A3232387E
S31508005470203A20735F557361727441646170746574
S3150800548072426173655B636F6E6669672D3E696E0E
S315080054907374616E63655D002E66736C5F6164612B
S315080054A0707465725F75736172742E633A33303443
S315080054B0203A2068616E646C650000002E66736C85
S315080054C05F616461707465725F75736172742E636F
S315080054D03A333035203A2064617461002E66736C65
S315080054E05F616461707465725F75736172742E634F
S315080054F03A333036203A206C656E67746800FFFFD1
S315080055002E66736C5F616461707465725F75736132
S3150800551072742E633A333235203A2068616E646CB1
S31508005520650000002E66736C5F6164617074657255
S315080055305F75736172742E633A333236203A20648B
S31508005540617461002E66736C5F6164617074657264
S315080055505F75736172742E633A333237203A206C62
S31508005560656E67746800FFFF0001FF00007B9A17ED
S3150800557000000000002000000000050003030100F1
S315080055800001010001000000010000000100000008
S3150800559000000000010000000600000001000000F5
S315080055A0B013000078690000060000000300000040
S309080055B07200770000
S315080055B480B586B000AFEFF31083BB60BB687B6130
S315080055C472B600BF00F0F6FB3D4B1B693C4A43F03C
S315080055D4040313613A2000F06FFF0346002B14BF3F
S315080055E401230023FB74374BD3F8103623F40063E6
S315080055F423F00103334A43F00103C2F80036314B62
S31508005604304AD3F81436C2F804362E4B2D4AD3F84A
S315080056141836C2F808362B4B2A4AD3F81C36C2F871
S315080056240C36284B0122C3F86026274B4FF4006238
S315080056345A62254BDB68FB60FB6823F0815323F42D
S315080056448013214A43F08053D3601E4B4FF0806287
S31508005654C3F8A426FB7C83F00103DBB2002B02D03B
S315080056643A2000F031FF30BF174AFB68D360164B67
S315080056744FF080529A60134B4FF08062C3F8C426E9
S31508005684104B0022C3F860263A2000F005FFFB7C85
S3150800569483F00103DBB2002B02D03A2000F004FFAA
S315080056A4074B1B69064A23F0040313617B697B6075
S315080056B47B6883F3108800BF00BF1837BD4680BDDA
S315080056C400ED00E0002000400050134080B586B08D
S315080056D400AFEFF31083BB60BB687B6172B600BF93
S315080056E400F068FB3D4B1B693C4A43F00403136115
S315080056F43A2000F0E1FE0346002B14BF01230023E1
S31508005704FB74374BD3F8103623F4805323F0010384
S31508005714334A43F00103C2F80036314B304AD3F812
S315080057241436C2F804362E4B2D4AD3F81836C2F866
S3150800573408362B4B2A4AD3F81C36C2F80C36284BA3
S315080057440222C3F86026274B4FF400625A62254B9F
S31508005754DB68FB60FB6823F0815323F48013214A3A
S3150800576443F08053D3601E4B4FF08062C3F8A426DF
S31508005774FB7C83F00103DBB2002B02D03A2000F055
S31508005784A3FE30BF174AFB68D360164B4FF080520E
S315080057949A60134B4FF08062C3F8C426104B00225C
S315080057A4C3F860263A2000F077FEFB7C83F00103F9
S315080057B4DBB2002B02D03A2000F076FE074B1B69B9
S315080057C4064A23F0040313617B697B607B6883F3D1
S315080057D4108800BF00BF1837BD4680BD00ED00E045
S315080057E4002000400050134080B586B000AFEFF3A8
S315080057F41083BB60BB687B6172B600BF3C4B1B69F8
S315080058043B4A43F0040313613A2000F055FE03466D
S31508005814002B14BF01230023FB74364BD3F8103630
S31508005824344A43F4C05343F00103C2F80036314BFB
S31508005834304AD3F81436C2F804362E4B2D4AD3F818
S315080058441836C2F808362B4B2A4AD3F81C36C2F83F
S315080058540C36284B0322C3F86026274B4FF4006204
S315080058645A62254BDB68FB60FB6823F0815323F4FB
S315080058748013214A43F08053D3601E4B4FF0806255
S31508005884C3F8A426FB7C83F00103DBB2002B02D009
S315080058943A2000F019FE30BF174AFB68D360164B4E
S315080058A44FF080529A60134B4FF08062C3F8C426B7
S315080058B4104B0022C3F860263A2000F0EDFDFB7C6D
S315080058C483F00103DBB2002B02D03A2000F0ECFD92
S315080058D4074B1B69064A23F0040313617B697B6043
S315080058E47B6883F3108800BF00BF1837BD4680BDA8
S315080058F400ED00E0002000400050134090B593B03E
S3150800590400AF7860EFF310833B633B6B3B64002383
S3150800591487F84730012387F8463072B600BF00F08F
S3150800592449FAAA4B1B69A94A43F004031361A84B15
S31508005934D3F830347B62A64BD3F83434BB62A54B18
S31508005944D3F83034FB61A34BD3F834343B62A04B11
S31508005954D3F80034FB637B681B68DB4323F04143BD
S3150800596423F02E039C4AD2F810167A681268D2439A
S315080059740A4022F0060298491343C1F800367B68A8
S3150800598404331B68DA43944BD3F81416934B0B432E
S3150800599491491340C1F804367B6808331B68DA4317
S315080059A48D4BD3F8183663F040438B491340C1F83E
S315080059B408367B680C331B68DA43874BD3F81C36E6
S315080059C463F0404384491340C1F80C36844B732270
S315080059D49A62814BD3F800367F4A43F00203C2F831
S315080059E400367D4BD3F8003603F00103002B09D0AB
S315080059F4794BDB68002B05D1774B0122DA6001234A
S31508005A0487F84730764B764A9B689360744B1B6BD2
S31508005A14734A43F03F031363714BDB68BB63704AF5
S31508005A24BB6B23F44013D3606B4BD3F8103603F4E3
S31508005A348033002B0BD0684B4FF48032C3F83026E2
S31508005A44002387F846304FF4166000F0CFF9624B0E
S31508005A54D3F8003603F48033002B06D15E4C00F0ED
S31508005A64B0FA0346C4F8103703E05B4B0022C3F8C8
S31508005A74102700F0D3F9564B0022C3F83024544BB0
S31508005A840022C3F83424534B0022C3F83024514B64
S31508005A940022C3F834244E4B0022C3F8002400BF66
S31508005AA44B4BD3F80034002BFADB4B4BD3F81026B8
S31508005AB4494BD3F80036534003F4F0137B637B6BEE
S31508005AC403F4C023002B01D1002301E042F20203B0
S31508005AD47B617B6B03F4C013002B01D1002301E027
S31508005AE442F20203BB617B6B03F4C023002B06D08E
S31508005AF4374BD3F81832DB4303F0803300E0002336
S31508005B04FB607B6B03F4C013002B06D0314BD3F830
S31508005B141832DB4303F0803300E000233B612C4B4F
S31508005B24D3F81822FB682A491343C1F81832294BBB
S31508005B34D3F818223B6927491343C1F81832244B72
S31508005B44D3F804227B6922491343C1F80432214B52
S31508005B54D3F80422BB691F491343C1F804321E4A09
S31508005B647B6BC2F8203630BF1B4BD3F810261A4B72
S31508005B74D3F80036534003F40053002B10D0144BCB
S31508005B84D3F8003103F44023002B01D1032300E0AA
S31508005B940423144A126802FB03F3184600F026F994
S31508005BA47B6B002B00F0AC800B4A7B6BC2F830365B
S31508005BB4074BD3F80C329BB25A08054BD3F800317D
S31508005BC403F44023002B0FD103230EE000ED00E07D
S31508005BD4001000400010024000200040FF0F009F04
S31508005BE400501340280F0800042302FB03F3184649
S31508005BF400F0FCF8694BD3F804227B6903F002032E
S31508005C04DB4366491340C1F80432654BD3F80422D2
S31508005C14BB6903F00203DB4361491340C1F804324C
S31508005C245E4BD3F80C329BB25E4AA2FB03239A0856
S31508005C345A4BD3F8003103F44023002B01D1032334
S31508005C4400E0042302FB03F3184600F0CFF8534B95
S31508005C54D3F804227B6903F40053DB434F4913400A
S31508005C64C1F804324E4BD3F80422BB6903F400533B
S31508005C74DB434B491340C1F80432484BD3F80C3282
S31508005C849BB2484AA2FB03235A08444BD3F8003173
S31508005C9403F44023002B01D1032300E0042302FB71
S31508005CA403F3184600F0A2F8FB68002B12D03B4B0E
S31508005CB4D3F81822FB68DB4338491340C1F8183275
S31508005CC400BF364BD3F8183203F04032FB685B0842
S31508005CD49A42F6D13B69002B12D0314BD3F81822DD
S31508005CE43B69DB432E491340C1F8183200BF2C4BDD
S31508005CF4D3F8183203F040323B695B089A42F6D16E
S31508005D04264AFB6BC2F8003400BF244BD3F8003490
S31508005D14002BFADB7B6A214A03F00303C2F830340A
S31508005D24BB6A1E4A03F00303C2F83434FB691C4AEF
S31508005D3403F00303C2F830343B6A194A03F0030339
S31508005D44C2F8343497F8463083F00103DBB2002BEB
S31508005D5404D0154B4FF48032C3F8202600F004F91A
S31508005D64124ABB6BD36097F84730002B05D00E4B0D
S31508005D74DB680D4A23F00103D3600D4B1B690C4AFB
S31508005D8423F0040313613B6CFB62FB6A83F31088FC
S31508005D9400BF00BF4C37BD4690BD00BF0010004091
S31508005DA400100240ABAAAAAA0020004000501340E3
S31508005DB400ED00E080B400AF094B1B68094A934222
S31508005DC402D0074B074A1A60074B5B690A2B02D0B5
S31508005DD4054B0A225A6100BFBD465DF8047B70472D
S31508005DE420501340080804040050134080B485B0BA
S31508005DF400AF78600023FB600023FB6003E000BF6C
S31508005E04FB680133FB60FA687B689A42F7D300BFE4
S31508005E1400BF1437BD465DF8047B704780B400AFF5
S31508005E24164BB3F1006F03D3144BB3F1805F07D35A
S31508005E34124BB3F1C05F1CD3104BB3F1005F18D2F9
S31508005E4400BF0F4BD3F8E03003F00203002BF8D061
S31508005E540B4BD3F8E03003F00103002BF1D0084BC9
S31508005E641B68074A43F002031360064B4FF480325B
S31508005E741A6700BFBD465DF8047B7047D92F000832
S31508005E84004013400010004080B487B000AF78602B
S31508005E940023FB607B681B6823F002027B681A6098
S31508005EA47B681B6843F001027B681A6000BF7B6845
S31508005EB41B6803F00103002BF9D17B68D3F8C030C3
S31508005EC403F00103002B49D07B68D3F8E8307B61E3
S31508005ED40A233B617B681B6EC3F31603002B05D1AB
S31508005EE47B685B6EC3F31603002B03D0FB6843F091
S31508005EF40303FB607B689B6EC3F31603002B05D173
S31508005F047B68DB6EC3F31603002B03D0FB6843F4EC
S31508005F144033FB607B68D3F8E830BB60BA68FB683B
S31508005F241340FA689A4202D164233B610EE0BA68C8
S31508005F347B699A4203D13B69013B3B6103E00A232F
S31508005F443B61BB687B613B69002BE3D103E000BF7F
S31508005F543B69013B3B613B69002BF8D100BF1C3709
S31508005F64BD465DF8047B704780B500AF0C4BB3F1B2
S31508005F74006F03D30A4BB3F1805F07D3084BB3F121
S31508005F84C05F0AD3064BB3F1005F06D2054B4FF444
S31508005F9480321A640448FFF777FF00BF80BD00BF4C
S31508005FA4D92F0008001000400040134080B483B085
S31508005FB400AF7860012318460C37BD465DF8047BAC
S31508005FC4704780B586B000AF00237B617B69C83310
S31508005FD47B617B6999337B617B694C337B61AA4B13
S31508005FE4D3F80026A94B1340A84A93420CBF0123B1
S31508005FF40023FB73FB7B002B02D040F21A2200E03D
S315080060044C22FB7B002B02D042F2283300E000230B
S3150800601413447A6913447B619D4B1B68002B48D152
S31508006024994BD3F8003603F01003102B0CBF012349
S315080060340023FB73FB7B002B02D040F61F6200E0B3
S315080060444C22FB7B002B02D04FF47A7300E000232A
S3150800605413447A6913447B618E4B1B6903F03F0230
S315080060648C4B5B6903F03F03D31ABB60BB684FF4E0
S31508006074FA4202FB03F303F57A73874AA2FB032366
S315080060849A08BB684FF4167101FB03F313447A6943
S3150800609413447B617C4BD3F8103603F01003102BA2
S315080060A402D140F6EB4300E04C237A6913447B6142
S315080060B41EE07B6999337B61754B1B68B3F1FF3F1F
S315080060C416D0714BD3F8003603F40073B3F5007F8A
S315080060D402D149F6580201E040F214526C4B1B688F
S315080060E44FF47A7101FB03F313447A6913447B6111
S315080060F47B694C337B61644BD3F8003603F4006345
S31508006104002B0CBF01230023FB73FB7B002B0BD155
S315080061145D4BD3F8003603F48053002B02D141F6C5
S31508006124712303E04C2301E040F2CD13FA7B002AE5
S3150800613402D046F2905200E0002213447A691344CE
S315080061447B6101237B603F20FFF730FFB860BB68A3
S315080061544BF2987202FB03F24B4BD3F80436002B2E
S3150800616402DA4FF4FA5301E04FF47A737868B9689F
S31508006174411A01FB03F3134403F57A73464AA2FB57
S3150800618403239B087A6913447B617B694C337B61DF
S315080061943D4BD3F8103603F40063002B0DD03A4B6D
S315080061A4D3F8003603F40063002B0FD1364BD3F82B
S315080061B4603603F00103002B08D041F288333B61B3
S315080061C47B6903F5753378337B611AE02E4BD3F874
S315080061D4103603F48053002B0DD02B4BD3F800361E
S315080061E403F48053002B09D1274BD3F8603603F008
S315080061F40203002B02D0294B3B6102E04FF47A7369
S315080062043B613B69244AA2FB03239B087A6913442E
S315080062147B617B694C337B611B4BD3F810261B4B84
S3150800622413401A4A934213D1174BD3F8003603F492
S315080062348053B3F5805F06D0134BD3F8603603F06A
S315080062440203002B04D17B6903F513737B6102E017
S315080062547B694C337B61124BD3F8003103F440233A
S31508006264002B01D10C2300E00F233B617B693A69BB
S3150800627402FB03F303F2E7330A4AA2FB03239B094F
S3150800628418461837BD4680BD00200040D0170001C7
S315080062942C0F0800005013404FECC44EC0C2040033
S315080062A400100040D34D621080B582B000AF78600C
S315080062B439602E4BD3F820267B6803F007039A42ED
S315080062C407D12A4BD3F82436DAB23B68013B9A4203
S315080062D447D0274BB3F1006F03D3254BB3F1805F47
S315080062E407D3234BB3F1C05F06D3214BB3F1005F49
S315080062F402D2204800F040F81C4B4FF480321A674B
S315080063041A4A7B6803F00703C2F82036174BD3F8FA
S315080063142436164A43F00053C2F824363B68013B38
S31508006324124ADBB2C2F8243600BF104BD3F824361F
S31508006334002BFADB0D4B4FF480321A640C4BB3F185
S31508006344006F03D30A4BB3F1805F07D3084BB3F14D
S31508006354C05F06D3064BB3F1005F02D2054800F0CE
S315080063642AF800BF0837BD4680BD00BF00100040AC
S31508006374393900080040134080B483B000AF786010
S3150800638400BF7B68D3F8E03003F00203002BF8D093
S315080063947B68D3F8E03003F00103002BF1D07B6867
S315080063A41B6843F002027B681A6000BF0C37BD46BF
S315080063B45DF8047B704780B487B000AF786000232B
S315080063C4FB607B681B6823F002027B681A607B68A3
S315080063D41B6843F001027B681A6000BF7B681B6870
S315080063E403F00103002BF9D17B68D3F8C03003F01E
S315080063F40103002B49D07B68D3F8E8307B610A2374
S315080064043B617B681B6EC3F31603002B05D17B68BF
S315080064145B6EC3F31603002B03D0FB6843F0030338
S31508006424FB607B689B6EC3F31603002B05D17B6860
S31508006434DB6EC3F31603002B03D0FB6843F4403327
S31508006444FB607B68D3F8E830BB60BA68FB68134026
S31508006454FA689A4202D164233B610EE0BA687B6902
S315080064649A4203D13B69013B3B6103E00A233B6142
S31508006474BB687B613B69002BE3D103E000BF3B6942
S31508006484013B3B613B69002BF8D100BF1C37BD4675
S315080064945DF8047B704700BF01B40248844601BC1A
S315080064A4604700BF7D2F000801B40248844601BC3A
S315080064B4604700BF352F000801B40248844601BC72
S315080064C4604700BFF52E000801B40248844601BCA3
S315080064D4604700BFB92E0008000000000000000055
S30D080064E400000000001BB700D0
S7050800115988
