:0200000460009A
:10200000000002201D23006099230060D14700607A
:1020100000000000000000000000000000000000C0
:102020000000000000000000000000009D23006090
:1020300000000000000000009F23006031250060C8
:10204000E1420060E9420060F1420060F942006054
:1020500001430060094300601143006019430060C0
:102060002143006029430060314300603943006030
:1020700041430060494300605143006059430060A0
:102080006143006069430060714300607943006010
:102090008143006089430060914300609943006080
:1020A000A1430060A9430060B1430060B9430060F0
:1020B000C1430060C9430060D1430060D943006060
:1020C000E1430060E9430060F1430060F9430060D0
:1020D000014400600944006011440060194400603C
:1020E00021440060294400603144006039440060AC
:1020F000414400604944006051440060594400601C
:10210000614400606944006071440060794400608B
:1021100081440060894400609144006099440060FB
:10212000A1440060A9440060B1440060B94400606B
:10213000C1440060C9440060D1440060D9440060DB
:10214000E1440060E9440060F1440060F94400604B
:1021500001450060094500601145006019450060B7
:102160002145006029450060314500603945006027
:102170004145006049450060514500605945006097
:102180006145006069450060714500607945006007
:102190008145006089450060914500609945006077
:1021A000A1450060A9450060B1450060B9450060E7
:1021B000C1450060C9450060D1450060D945006057
:1021C000E1450060E9450060F1450060F9450060C7
:1021D0000146006009460060114600601946006033
:1021E00021460060294600603146006039460060A3
:1021F0004146006049460060514600605946006013
:102200006146006069460060714600607946006082
:1022100081460060894600609146006099460060F2
:10222000A1460060A9460060B1460060B946006062
:10223000C1460060C9460060D1460060D9460060D2
:10224000E1460060E9460060F1460060F946006042
:1022500001470060094700601147006019470060AE
:10226000214700602947006031470060394700601E
:10227000414700604947006051470060594700608E
:1022800061470060694700607147006079470060FE
:10229000814700608947006091470060994700606E
:1022A000A1470060A9470060B1470060B9470060DE
:1022B000C1470060C9470060C452006000000020B0
:1022C00008000000C4520060000000000000000090
:1022D000C45200600000202000000000C4520060D2
:1022E0000000008000000000C45200600000E08197
:1022F00000000000080000201001000000000000A5
:10230000000000000000202000000000000000800D
:10231000000000000000E0810000000010B572B66F
:1023200000F0C4FC0D4B07E003F10C049A685968F7
:10233000186800F019F82346094A9342F4D306E0DE
:102340001C46596854F8080B00F01DF82346054A4E
:102350009342F5D362B602F05EFBFEE7B82200605E
:10236000F42200601C230060002393420AD210B4C0
:1023700050F8044B41F8044B04339342F8D35DF812
:10238000044B7047704700238B4204D2002240F870
:10239000042B0433F8E77047FEE7FEE7FEE7FEE7AD
:1023A000FEE7FEE780B582B000AF7860796802484A
:1023B00000F038F800BEFDE71C4E006080B584B028
:1023C00000AF7860396043F22153FB607B68002BDB
:1023D00002D11048FFF7E6FF3B68002B02D10E4800
:1023E000FFF7E0FF0D4B1B68002B01D100230DE030
:1023F0003A6879680A4802F04DFA0346FB60FB68C8
:10240000002B01D13B6801E04FF0FF331846103735
:10241000BD4680BD304E0060584E00602400002054
:102420001C0000200FB480B5A4B000AF0023C7F893
:102430008C300023C7F888303B1D802200211846CD
:1024400002F0F0FA124B1B68002B01D1002318E0B8
:1024500007F19C03C7F884303A1D0E4BD7F884105F
:10246000D7F8980001F0B6FDC7F88C00D7F88C209B
:102470003B1D11461846FFF7A1FFC7F88800D7F8A3
:10248000883018469037BD46BDE8804004B070479C
:10249000240000205D3E006080B483B000AF03469E
:1024A0003960FB80B7F90630002B0ADB3B68DAB2F3
:1024B0000C49B7F906301201D2B20B4483F800235D
:1024C0000AE03B68DAB20849FB8803F00F03043BDB
:1024D0001201D2B20B441A7600BF0C37BD465DF82C
:1024E000047B704700E100E000ED00E080B582B0C1
:1024F00000AF78607B68013BB3F1807F01D301239B
:102500000FE00A4A7B68013B53600F214FF0FF3018
:10251000FFF7C2FF054B00229A60044B07221A60A6
:10252000002318460837BD4680BD00BF10E000E01C
:1025300080B400AF064B1B68002B04D0044B1B6813
:10254000013B034A136000BFBD465DF8047B704742
:102550002800002080B483B000AF7860064A7B6812
:10256000136000BF044B1B68002BFBD100BF0C376E
:10257000BD465DF8047B70472800002080B500AFA1
:1025800001F0DAFA02F002FA00F074FC184B1B6852
:10259000184AA2FB03231B0A1846FFF7A7FF0346AE
:1025A000002B00D0FEE7144B1B681846FFF7D2FF44
:1025B000124B1B78DBB2002B0CD0002209211048F3
:1025C00000F008FA0D4B00221A700B4B4FF4FA7210
:1025D0001A60E8E701220921094800F0FBF9074BDE
:1025E00001221A70044B4FF4FA721A60DBE700BF45
:1025F00004000020D34D62100000002014010020D0
:1026000000801B4080B582B000AF0346FB71FB79B0
:1026100083F00103DBB2002B02D11348FFF7C2FEA7
:10262000124B4FF08042C3F8582100BF0F4BD3F834
:10263000703203F48033002BF8D00C4B4FF480320F
:10264000C3F8542100BF094BD3F8503103F40043C1
:10265000002BF8D0054B4FF48032C3F8582100BF4F
:102660000837BD4680BD00BF804E006000800D4031
:1026700080B483B000AF0346FB71FB79002B04D11B
:10268000074B1022C3F8742203E0054B1022C3F855
:10269000782200BF0C37BD465DF8047B704700BF51
:1026A00000800D4080B400AF064BD3F87032054A6D
:1026B00043F00103C2F8703200BFBD465DF8047BF1
:1026C000704700BF00800D4080B483B000AF7860D9
:1026D000154B1B6823F4E0327B681B799B039BB28C
:1026E0001343114A43F4803313600F4B1A680F4BA6
:1026F00013407A68126802F07F0213430A4A43F4D7
:102700000053136000BF084B1B68002BFBDA064B1D
:102710001B68054A23F48033136000BF0C37BD46A5
:102720005DF8047B704700BF00800D4080CFFFFF45
:1027300080B483B000AF7860224B1B6B23F4E0328F
:102740007B681B7B9B039BB213431E4A43F480337D
:1027500013631C4B1A6B1C4B13407A68127802F0FF
:1027600001021343174A43F4005313637B685B6809
:10277000144A23F0404313657B689B68114A23F099
:10278000404313667B685B8AC3F30E027B681B7C45
:10279000DB039BB21A437B68DB891B0409491343A3
:1027A0000B6400BF074B1B6B002BFBDA054B1B6B4D
:1027B000044A23F48033136300BF0C37BD465DF831
:1027C000047B704700800D40FECFFFFF80B400AF58
:1027D000034B00221A6200BFBD465DF8047B7047C0
:1027E00000800D4080B400AF044B4FF480521A6754
:1027F00000BFBD465DF8047B704700BF00800D4000
:1028000080B400AF044B4FF48052C3F8E02000BF07
:10281000BD465DF8047B704700800D4080B485B0F4
:1028200000AF03460A46FB711346BB71FB79FB60A0
:10283000124BD3F80021FB68DB00BF2101FA03F340
:10284000DB431340BB60FB68DB0080229A400B49EE
:10285000BB681343C1F80031BB7903F03F02FB684A
:10286000DB009A400549BB681343C1F8003100BF43
:102870001437BD465DF8047B704700BF00800D40F3
:1028800080B586B000AF03460A46FB8013467B71D5
:10289000B7F906301B0A7B61FB8803F01F033B611D
:1028A0007B69072B02D90D48FFF77CFD7B699A00F5
:1028B0000B4B1344FB60FB681A6803213B6901FA68
:1028C00003F3DB431A4079793B6901FA03F31A43B6
:1028D000FB681A6000BF1837BD4680BDA44E00607B
:1028E00068C00F4080B584B000AF78600023FB6003
:1028F00009E00D4AFB6852F823307A689A4206D004
:10290000FB680133FB60FB68092BF2D900E000BFD4
:10291000FB68092B02D90548FFF744FDFB68184600
:102920001037BD4680BD00BFC84E0060FC4E006041
:1029300080B586B000AFF860B9607A60F868FFF7DC
:10294000D1FF78617B69052B0DD8214A7B6932F96B
:102950001330B3F1FF3F06D01D4A7B6932F91330C3
:10296000184601F04BFFFB685A690121BB6801FA68
:1029700003F3DB431A40FB685A617B681B78002B2A
:102980000AD1FB685A680121BB6801FA03F3DB43F3
:102990001A40FB685A600FE07B685B781A46B9689A
:1029A000F86800F017F8FB685A680121BB6801FA63
:1029B00003F31A43FB685A607B689B781A46B96830
:1029C000F86801F02AFF00BF1837BD4680BD00BF80
:1029D000F04E006080B584B000AFF860B960134677
:1029E000FB71BB681F2B02D90E48FFF7DBFCFB799C
:1029F000002B0AD1FB681A680121BB6801FA03F3B6
:102A0000DB431A40FB681A6008E0FB681A68012182
:102A1000BB6801FA03F31A43FB681A6000BF103762
:102A2000BD4680BD304F006080B487B000AFF86015
:102A3000B9601346FB71BB683B61FB68DA69012131
:102A4000BB6801FA03F3DB431A40FB68DA61BB6839
:102A50000F2B03D8FB680C337B6105E0FB68103358
:102A60007B613B69103B3B61FB79013B042B52D8F6
:102A700001A252F823F000BF8D2A0060A52A006051
:102A8000C92A0060ED2A0060032B00607B691A6888
:102A90003B695B00032101FA03F3DB431A407B69C6
:102AA0001A6039E07B691A683B695B00032101FA0F
:102AB00003F3DB431A403B695B00012101FA03F396
:102AC0001A437B691A6027E07B691A683B695B00DF
:102AD000032101FA03F3DB431A403B695B00022147
:102AE00001FA03F31A437B691A6015E07B691A68DF
:102AF0003B695B00032101FA03F31A437B691A6007
:102B00000AE0FB68DA690121BB6801FA03F31A43A2
:102B1000FB68DA6100E000BF00BF1C37BD465DF80E
:102B2000047B704780B586B000AFF860B9607A600A
:102B3000BB68002B02D11448FFF734FCBB687B61F3
:102B40007B683B6111E000BFFB685B6903F4000335
:102B5000002BF9D07B691B781A46FB68DA617B6928
:102B600001337B613B69013B3B613B69002BEAD14F
:102B700000BFFB685B6903F48003002BF9D000BF42
:102B80001837BD4680BD00BF4C4F006080B500AF18
:102B9000044B1B68044A526811460448984700BF1A
:102BA00080BD00BF580000203400002000401840C5
:102BB00080B500AF044B1B68044A92681146044874
:102BC000984700BF80BD00BF58000020340000209F
:102BD0000080184080B500AF044B1B68044AD268DF
:102BE00011460448984700BF80BD00BF5800002030
:102BF0003400002000C0184080B500AF044B1B68B3
:102C0000044A126911460448984700BF80BD00BFBE
:102C100058000020340000200000194080B500AFAB
:102C2000044B1B68044A526911460448984700BF88
:102C300080BD00BF58000020340000200040194033
:102C400080B500AF044B1B68044A926911460448E2
:102C5000984700BF80BD00BF58000020340000200E
:102C60000080194080B500AF044B1B68044AD2694C
:102C700011460448984700BF80BD00BF580000209F
:102C80003400002000C0194080B500AF044B1B6821
:102C9000044A126A11460448984700BF80BD00BF2D
:102CA000580000203400002000001A4080B584B095
:102CB00000AF694BD3F88830674A43F47003C2F819
:102CC0008830654B654A9A60654B1B899BB2644AA4
:102CD00023F001039BB21381624B1B899BB2614AB3
:102CE00023F001039BB213815D4B1B889BB203F061
:102CF0000403002B07D05A4B1B889BB2584A23F081
:102D000004039BB21380574B1B889BB203F0040350
:102D1000002B07D0534B1B889BB2524A23F004036D
:102D20009BB21380504B1B6803F40053002B03D05D
:102D30004D4B4E4A5A6007E04B4B4CF220525A60C2
:102D4000494B4DF628125A60474B4FF6FF729A6076
:102D5000454B1B6823F0A003434A43F02003136054
:102D6000434B1B6803F00103002B05D0404B1B684D
:102D70003F4A23F001031360374B5B6903F40033D0
:102D8000B3F5003F1DD0344B5B6903F40033002BD7
:102D900016D1BFF34F8FBFF36F8F2F4B0022C3F8B5
:102DA0005022BFF34F8FBFF36F8F2B4B5B692A4AC3
:102DB00043F400335361BFF34F8FBFF36F8F00E0D5
:102DC00000BF254B5B6903F48033B3F5803F3CD0F3
:102DD000214B5B6903F48033002B35D11E4B00225D
:102DE000C3F88420BFF34F8F1B4BD3F88030FB60B8
:102DF000FB685B0BC3F30E03BB60FB68DB08C3F32C
:102E000009037B60BB685A0143F6E07313407A689C
:102E1000920711491343C1F860327B685A1E7A60E9
:102E2000002BEFD1BB685A1EBA60002BE5D1BFF36F
:102E30004F8F094B5B69084A43F480335361BFF3FA
:102E40004F8FBFF36F8F00E000BF01F0F7FC00BFB2
:102E50001037BD4680BD00BF00ED00E000200060DF
:102E600000800B4000000D4000C00B4020C528D959
:102E700010E000E090B585B000AF784B5B6903F0DF
:102E80000073002B45D0754B9B6903F44053B3F599
:102E9000805F21D0B3F5005F21D0002B2BD1704B88
:102EA0001B6903F48033002B0BD06D4B1B699B0B0C
:102EB00003F00303002B01D16A4B00E00023FB6009
:102EC0001CE0674B1B6903F00203002B01D0664B2B
:102ED00000E0664BFB6011E0624BFB600EE0604B74
:102EE0001B6B9B0B03F00303002B01D15D4B00E038
:102EF0000023FB6002E00023FB6000BF574B5B69CF
:102F0000DB0E03F007030133FA68B2FBF3F3FB6057
:102F100095E0534B1B6803F48033002B0BD0504BD0
:102F20001B689B0B03F00303002B01D14D4B00E00A
:102F30000023BB6008E04A4B1B6803F07F03494A4B
:102F400002FB03F35B08BB60454B1B6B03F4803350
:102F5000002B0BD0424B1B6B9B0B03F00303002B8E
:102F600001D1404B00E000237B6009E03C4B1B6B30
:102F700003F00103002B01D03B4B00E03B4B7B6097
:102F8000374B1B6D4FF00004364A02FB04F1002260
:102F900002FB03F20A443349A3FB0101531819460B
:102FA0002F4B1B6E4FF000041A46234601F04DFED6
:102FB00003460C461A467B6813447B60274B9B698B
:102FC00003F44023B3F5802F0FD0B3F5802F02D840
:102FD000002B07D030E0B3F5002F15D0B3F5402F0C
:102FE00020D029E07B68FB6029E01D4BD3F800313D
:102FF0001B0C03F03F037A68B2FBF3F21346DB00CD
:1030000013445B00FB601AE0154BD3F8003103F06A
:103010003F037A68B2FBF3F21346DB0013445B0014
:10302000FB600CE00D4B1B6903F007030133BA682A
:10303000B2FBF3F3FB6002E00023FB6000BF074B31
:103040005B699B0A03F007030133FA68B2FBF3F3F1
:10305000074A136000BF1437BD4690BD00C00F4043
:1030600000800D4000366E0100A4781F00389C1CC3
:103070000400002080B586B000AFF860B9607A60C7
:10308000FB68002B02D11048FFF78CF9BB68002BBE
:1030900002D10E48FFF786F97B68002B02D10C485D
:1030A000FFF780F9FB687B617B691B781A46094B47
:1030B00053F822307A68B9681846FFF733FD0023C9
:1030C00018461837BD4680BD944F0060B44F00606D
:1030D000D44F0060704F006080B586B000AFF860DC
:1030E000B9607A60FB68002B02D11248FFF75AF9E9
:1030F000BB68002B02D11048FFF754F97B68002B06
:1031000002D10E48FFF74EF9FB687B617B691B68B3
:103110003B613B69002B02D10948FFF743F97B680B
:10312000BA687969386901F090FB03461846183788
:10313000BD4680BDF44F00601850006038500060FC
:103140005850006080B586B000AFF860B9607A6012
:10315000FB68002B02D10E48FFF724F9BB68002B57
:1031600002D10C48FFF71EF97B68002B02D10A48F8
:10317000FFF718F9FB687B617B697A68B9681846C4
:10318000FFF778FF034618461837BD4680BD00BFDD
:1031900078500060A0500060C450006080B584B0DA
:1031A00000AF786039607B689B0EFB607B68DAB2A9
:1031B0001F4B13441A687B685B0BC3F30C017B68DD
:1031C0001B0A03F01F0301FA03F3DB4302EA0301C6
:1031D0007B681B0A03F01F033A689A407B685B0B0D
:1031E000C3F30C007B681B0A03F01F0300FA03F310
:1031F0001A407B68D8B20E4B0344184641EA0203DA
:103200000360FB68202B02D90A48FFF7CBF8FB6864
:10321000202B09D000BF064B9A6CFB6822FA03F3FF
:1032200003F00103002BF6D100BF1037BD4680BD6F
:1032300000C00F40E850006080B584B000AF7860F7
:1032400039607B689B0EFB607B68DAB21F4B1344CE
:103250001A687B685B0BC3F30C017B681B0A03F0E5
:103260001F0301FA03F3DB4302EA03017B681B0A35
:1032700003F01F033A689A407B685B0BC3F30C00B2
:103280007B681B0A03F01F0300FA03F31A407B68F4
:10329000D8B20E4B0344184641EA02030360FB68B0
:1032A000202B02D90A48FFF77DF8FB68202B09D0B4
:1032B00000BF064B9A6C0121FB6801FA03F313402F
:1032C000002BF6D100BF1037BD4680BD00C00F40B7
:1032D0008051006080B586B000AF03460A46FB808F
:1032E00013467B71B7F906301B0A7B61FB8803F03C
:1032F0001F033B617B69072B02D90D48FFF752F88A
:103300007B699A000B4B1344FB60FB681A6803212E
:103310003B6901FA03F3DB431A4079793B6901FA0F
:1033200003F31A43FB681A6000BF1837BD4680BD1F
:103330001852006068C00F4080B483B000AF78605E
:10334000044A7B68136000BF0C37BD465DF8047B00
:10335000704700BF2C00002080B483B000AF7860BD
:10336000044A7B68136000BF0C37BD465DF8047BE0
:10337000704700BF3000002080B485B000AFF86017
:10338000B9601346FB71BA680C4B1340BB60FB7904
:10339000002B06D0FB685A68BB681A43FB685A606A
:1033A00006E0FB685A68BB68DB431A40FB685A605A
:1033B00000BF1437BD465DF8047B704700F0FFFF87
:1033C00080B485B000AF78600B46FB701346BB70CD
:1033D0007B689A680A4B1340FB60FB789B0603F0FE
:1033E0008062FB681A43BB781B0403F47F031A4313
:1033F0007B689A6000BF1437BD465DF8047B704758
:10340000FFFF00FB80B582B000AF4FF40040FFF734
:10341000A3FFDD4BD3F8C032DB4A43F48033C2F85C
:10342000C032D94BD3F8C032D74A23F40033C2F8A4
:10343000C032D648FFF780FF0020FFF7E3F8FFF720
:1034400031F90120FFF714F9D14B1B6823F0FF037A
:10345000CF4A43F07F0313600121CE48FFF79EFE61
:103460000121CD48FFF79AFECC4BDB6823F01F0308
:10347000CA4A43F01303D36000BFC84B1B6803F074
:103480000043B3F1004FF8D10021C548FFF7D4FE47
:103490004FF4887001F00EFA4FF4847001F00AFACC
:1034A00040F2162001F006FA4FF4067001F002FA1D
:1034B00040F20E2001F0FEF90321BA48FFF7BCFEEE
:1034C0000121B948FFF7B8FE0021B848FFF7B4FE64
:1034D0004FF48A7001F0EEF94FF48B7001F0EAF9C5
:1034E000182001F0E7F91A2001F0E4F94FF4867092
:1034F00001F0E0F90121AE48FFF79EFE40F20260C4
:1035000001F0D8F90121AB48FFF796FE0021AA4847
:10351000FFF744FE40F2046001F0CCF90121A74816
:10352000FFF78AFE0021A648FFF738FE4FF44170EE
:1035300001F0C0F907214FF21400FFF77DFE0021D2
:10354000A048FFF72BFE00219F48FFF727FE40F21F
:10355000027001F0AFF901219C48FFF76DFE0121D7
:103560009B48FFF71BFE40F2022001F0A3F9012166
:103570009848FFF761FE00219748FFF70FFE4FF4D0
:10358000807001F097F94FF4817001F093F94FF4D6
:10359000827001F08FF94FF4837001F08BF90421F0
:1035A0008E48FFF749FE02218D48FFF7F7FD1620F0
:1035B00001F080F902218B48FFF73EFE02218A4884
:1035C000FFF7ECFD40F2125001F074F90321874837
:1035D000FFF732FE01218648FFF72EFE00218548C5
:1035E000FFF7DCFD40F2145001F064F9032182483A
:1035F000FFF722FE01218148FFF71EFE00218048CF
:10360000FFF7CCFD40F2165001F054F903217D483C
:10361000FFF712FE01217C48FFF70EFE00217B48D8
:10362000FFF7BCFD40F2062001F044F94FF40270B0
:1036300001F040F940F20A2001F03CF90021744801
:10364000FFF7FAFD00217348FFF7A8FD0E2001F0F7
:1036500031F9122001F02EF940F2067001F02AF93A
:10366000102001F027F9142001F024F94FF4E16053
:1036700001F020F901216848FFF7DEFD02216748CB
:10368000FFF78CFD4FF4A36001F014F91C2001F04A
:1036900011F90C2001F00EF94FF48C7001F00AF9C9
:1036A00040F2023001F006F940F2063001F002F972
:1036B00040F21A5001F0FEF840F20E6001F0FAF804
:1036C00000215748FFF7B8FD00215648FFF766FD77
:1036D00040F20A3001F0EEF801215348FFF7ACFD4B
:1036E00003215248FFF7A8FD05215148FFF756FD79
:1036F00040F20E5001F0DEF801214E48FFF79CFD2C
:1037000007214D48FFF798FD03214C48FFF746FD80
:1037100040F2025001F0CEF801214948FFF78CFD3C
:1037200007214848FFF788FD03214748FFF736FD8A
:103730004FF4407001F0BEF801214448FFF77CFDD2
:1037400007214348FFF778FD03214248FFF726FD94
:1037500000214148FFF722FD4048FEF7B5FF4048F1
:10376000FEF7E6FF1B210020FFF758F8102101208B
:10377000FFF754F818210220FFF750F8102103201A
:10378000FFF74CF86EE000BF00800D4000366E0180
:1037900000C00F40186C008014390014000008406D
:1037A00014EA00041468008010E0004014FB00805C
:1037B0001CE0078024EB00801C30008024F0008097
:1037C0001C310080142700801426008018FD008022
:1037D000186800803CEB00803C69008018FA00808B
:1037E0001864008024790080186E008028E600802C
:1037F00028E007801C6A00802CE600802CE007800F
:103800001C6C008028F6008028F007801C6E008069
:1038100038F307803832008020E20780206800807B
:1038200024E007802426008038EC008018F7008010
:1038300038EF008030F9008030F60080307400806E
:1038400030EC008030E900803067008028E900809B
:1038500028F90080207300800C200080A0520060B6
:10386000A8520060FEF7BEFF01228C498C4801F08F
:1038700030F88B4BD3F87031894A23F40043C2F8F7
:103880007031874BD3F87031854A23F40003C2F8B6
:103890007031834B1B6F824A43F400531367804B94
:1038A000D3F8A0307E4A23F40053C2F8A0307C4BFA
:1038B000D3F8A03023F4E033794A43F48033C2F8DC
:1038C000A030774B0022C3F8B020754B0122C3F81B
:1038D000C020734BD3F8A030724A1A4042F21F0343
:1038E00013437B607B6843F400237B606C4BD3F80D
:1038F00070316B4A43F04043C2F87031684A7B68CC
:10390000C2F8A03000BF664BD3F8A030002BFADA23
:1039100000226549624800F0DCFFFEF771FF0122DA
:1039200062495F4800F0D5FF5D4BD3F8E03023F0EB
:1039300003035B4A43F00103C2F8E030584BD3F86D
:10394000E030574A43F40053C2F8E030544BD3F808
:10395000E030534A23F00C03C2F8E030504BD3F868
:10396000E0304F4A43F48013C2F8E0304C4BD3F8B8
:10397000E0304B4A43F40013C2F8E030FEF726FF74
:1039800001224B49464800F0A4FF454B1B6A444ABC
:1039900043F40053136203214648FFF7FFFB002165
:1039A0004548FFF7FBFB00214448FFF7F7FB0021E8
:1039B0004348FFF7F3FB3A4BD3F86031384A23F022
:1039C0001F03C2F860313F4B1B6E3E4A23F0700369
:1039D00013663C4B1B6E23F00F033A4A43F001037E
:1039E0001366384B1B6E374A23F460031366354B5E
:1039F0001B6E23F4F813334A43F490131366314BD0
:103A00001B6E304A23F4807313662E4B1B6E2D4AB7
:103A100023F0800313662B4B1B6E2A4A23F080731E
:103A2000136600220021284800F07AFF00220321BB
:103A3000254800F075FF00220621234800F070FFA2
:103A400000220821204800F06BFF00220A211E48B6
:103A500000F066FF002200211B48FFF7B1FC0022A6
:103A60004FF400511848FFF787FC00224FF48041C3
:103A70001548FFF781FC144B5B69134A23F0805310
:103A80005361114B5B69104A23F0005353610F4B94
:103A90000F4A1A6000BF0837BD4680BD0D00700098
:103AA00000800D4080CFFFFF0D00A0000D00E00062
:103AB0000D0020001872008014390014186C00806A
:103AC0001C26008000C00F4000C00A4004000020F7
:103AD0000046C32380B586B000AF03460A46FB808C
:103AE00013467B71B7F906301B0A7B61FB8803F034
:103AF0001F033B617B69072B02D90D48FEF752FC7F
:103B00007B699A000B4B1344FB60FB681A68032126
:103B10003B6901FA03F3DB431A4079793B6901FA07
:103B200003F31A43FB681A6000BF1837BD4680BD17
:103B30001852006068C00F4080B584B002AF40F2F8
:103B4000024000F029FF01233B7100237B71002319
:103B5000BB713B1D1A4609211048FEF7E9FE002300
:103B600001930F4B00930023002205210D4800F024
:103B700022FF0D4B9B6E0C4B00229A6641F2B00364
:103B80000193074B0093002300220521054800F014
:103B90002FFF00BF0837BD4680BD00BF00801B401F
:103BA000D0821F40E0801F4000C00A4010B5174A75
:103BB0000020174900F076FF4FF480734FF48062C5
:103BC0000021124800F02EF8124A1349012000F09B
:103BD00069FF4FF480734FF4806200210D4800F0BC
:103BE00021F80E4B1B68022B0EDD0D4A02200A49FC
:103BF00000F058FF4FF480734FF4806200210848B2
:103C0000BDE8104000F00EB810BD00BF60000020FD
:103C1000C05200609C000020C2520060BC52006094
:103C2000D800002070B5C468A50708D0B2F5007FA1
:103C300011D0B2F5806F04D0B2F5807F0BD0012097
:103C400008E000F124010123144301610160C36114
:103C5000C460002070BD5E1E014DAE42F4D9EEE797
:103C6000FEFFFF00F7B5044698B103B0BDE8F04091
:103C700000F082BF07FB0460013400F07DFF0028E4
:103C800018BF4FF0FF35019BA342F3DC284603B079
:103C9000F0BD034B05463C27024E1B680193F2E73B
:103CA000BC520060600000202DE9F843C66804465D
:103CB0003C4B0D46904633401BB902273846BDE8C1
:103CC000F883D0F81490484601F099F80746002888
:103CD000F3D1B8F1010F2CD0B8F1020F2ED0B8F10A
:103CE000000FEAD1002DE8DBB00404D52368E26AB6
:103CF0009A4238BFE362A169A9420EDC2368E26AF6
:103D0000934238BF134622695818801AA84204DB30
:103D1000206B01EB000CAC4534DC002346F02006A0
:103D2000A562C4E9013326F4032626F04006E660C6
:103D3000C4E7204600F038F80544D3E7484601F0D0
:103D40005BF8B0F1000CE26804DA42F0800201276F
:103D5000E260B3E7E36A1846A36919462368834221
:103D60002CBFC918091892060B462169A3EB010361
:103D700003D5A26A9342B8BF13466345ACBFED18A2
:103D80006544AFE76D1AB10744BF281AA060F10778
:103D900026F0200644BF9B1AEB1A154448BF636007
:103DA0002560C0E703001000C3689A0705D10F4BD8
:103DB00021224FF0FF301A60704703F020021B03EE
:103DC0000AD512B1806A01387047036882690069B8
:103DD00013441B1A581E70470AB1806A7047036863
:103DE000826900691344181A704700BF5C00002004
:103DF0002DE9F041D56880460E461446EB0257691E
:103E000005D545F01005384600F0F6FFA061124BCD
:103E10002B408BB1A169384600F0F7FF002806DA85
:103E2000E3684FF0FF3043F08003E36011E025F4D6
:103E3000003525F01005E56032464146384600F071
:103E4000EAFF20F00043F61AA3691E44A661002889
:103E5000E6D1BDE8F08100BF1000020080B586B059
:103E600000AFF860B9603B601346FB7100237B61D3
:103E700000237B611CE0BB681B6801337F2B08D9E2
:103E8000BB681B681946F868FEF798FABB68002201
:103E90001A60BB681B681A46FB681344FA791A70EB
:103EA000BB681B685A1CBB681A607B6901337B6165
:103EB0007A693B689A42DEDB00BF1837BD4680BD99
:103EC00080B48DB000AFF860B9607A603B600023C9
:103ED000FB61FB68BB61BB695A1CBA6100221A70A6
:103EE0007B68002B35D0BB681B68FB62FB6A002B2C
:103EF0002BD1BB6930221A70FB690133FB61FB696E
:103F000062E0FA6A3B6892FBF3F37B617B693A6893
:103F100002FB03F3FA6AD31ABB62BB6A002B06DA10
:103F2000BB6A3B623B6AC3F13003BB6202E0BB6A1F
:103F30003033BB627B69FB62BB695A1CBA61BA6AE7
:103F4000D2B21A70FB690133FB61FB6A002BD8D136
:103F500039E0BB681B687B627B6A002B30D1BB6990
:103F600030221A70FB690133FB61FB692CE03B686E
:103F70007A6AB2FBF3F33B613B683A6902FB03F3F5
:103F80007A6AD31A3B623B6A092B03D83B6A303307
:103F90003B620AE097F83830002B01D0412200E064
:103FA00061223B6A13440A3B3B623B697B62BB690B
:103FB0005A1CBA613A6AD2B21A70FB690133FB61CA
:103FC0007B6A002BD3D1FB6918463437BD465DF8B8
:103FD000047B704790B59DB002AFF860B9607A601D
:103FE0003B6000233B660023FB650023BB6100238D
:103FF00087F84A3000233B61FB687B6664E17B6C99
:10400000252B08D07B6CDAB207F118013C6801233C
:104010007868A04755E1012387F84B3000237B6582
:104020000023BB651BE07B6E01337B667B6E1B78D8
:104030007B647B6C2F2B0DDD7B6C392B0ADC7A6D5E
:1040400013469B0013445B001A467B6C1344303BC1
:104050007B6504E07B6E013B7B660123BB65BB6D2A
:10406000002BE0D006233B657B6E01337B667B6EC5
:104070001B782E2B24D100233B650023BB651BE05E
:104080007B6E01337B667B6E1B787B647B6C2F2B96
:104090000DDD7B6C392B0ADC3A6D13469B00134413
:1040A0005B001A467B6C1344303B3B6504E07B6E3F
:1040B000013B7B660123BB65BB6D002BE0D002E0BA
:1040C0007B6E013B7B667B6E01337B667B6E1B7870
:1040D0007B647B6C642B1BD07B6C692B18D07B6C56
:1040E000662B15D07B6C462B12D07B6C782B0FD0B7
:1040F0007B6C582B0CD07B6C6F2B09D07B6C622BAC
:1041000006D07B6C702B03D07B6C752B40F09680B7
:104110007B6C642B02D07B6C692B15D1BB681A1D9C
:10412000BA601B687B6107F1140107F11C0097F866
:104130004B3000930A230122FFF7C2FEF86507F116
:104140001C02FB6D13443B667B6C582B02D07B6CCE
:10415000782B1BD17B6C782B02D1002387F84B3056
:10416000BB681A1DBA601B683B6107F1100107F1BB
:104170001C0097F84B30009310230022FFF7A0FE9D
:10418000F86507F11C02FB6D13443B667B6C6F2BDB
:1041900008D07B6C622B05D07B6C702B02D07B6CC3
:1041A000752B2FD1BB681A1DBA601B683B617B6CF5
:1041B0006F2B03D1082387F84A3010E07B6C622B09
:1041C00003D1022387F84A3009E07B6C702B03D1BE
:1041D000102387F84A3002E00A2387F84A3097F81C
:1041E0004A2007F1100107F11C0097F84B300093AB
:1041F00013460022FFF764FEF86507F11C02FB6D11
:1042000013443B66FB6D7A6DD31A07F118013C68C5
:1042100020227868A0473B6E002B52D009E03B6E0D
:104220005A1E3A661A7807F118013C68012378682B
:10423000A0473B6E1B78002BF1D142E07B6C632BD7
:104240000ED1BB681A1DBA601B68DBB23B643B6CC5
:10425000DAB207F118013C6801237868A04730E022
:104260007B6C732B25D1BB681A1DBA601B68FB647D
:10427000FB6C002B25D0F86C00F0EEFB0346FB65D1
:10428000FB6D7A6DD31A07F118013C68202278681B
:10429000A04709E0FB6C5A1CFA641A7807F1180170
:1042A0003C6801237868A047FB6C1B78002BF1D198
:1042B00007E07B6CDAB207F118013C6801237868EB
:1042C000A0477B6E01337B667B6E1B787B647B6CC7
:1042D000002B7FF494AEBB6918466C37BD4690BD89
:1042E00008B5FEF75EF808BD08B5FEF75AF808BD38
:1042F00008B5FEF756F808BD08B5FEF752F808BD38
:1043000008B5FEF74EF808BD08B5FEF74AF808BD37
:1043100008B5FEF746F808BD08B5FEF742F808BD37
:1043200008B5FEF73EF808BD08B5FEF73AF808BD37
:1043300008B5FEF736F808BD08B5FEF732F808BD37
:1043400008B5FEF72EF808BD08B5FEF72AF808BD37
:1043500008B5FEF726F808BD08B5FEF722F808BD37
:1043600008B5FEF71EF808BD08B5FEF71AF808BD37
:1043700008B5FEF716F808BD08B5FEF712F808BD37
:1043800008B5FEF703FC08BD08B5FEF711FC08BD33
:1043900008B5FEF71FFC08BD08B5FEF72DFC08BDEB
:1043A00008B5FEF73BFC08BD08B5FEF749FC08BDA3
:1043B00008B5FEF757FC08BD08B5FEF765FC08BD5B
:1043C00008B5FDF7EEFF08BD08B5FDF7EAFF08BD2B
:1043D00008B5FDF7E6FF08BD08B5FDF7E2FF08BD2B
:1043E00008B5FDF7DEFF08BD08B5FDF7DAFF08BD2B
:1043F00008B5FDF7D6FF08BD08B5FDF7D2FF08BD2B
:1044000008B5FDF7CEFF08BD08B5FDF7CAFF08BD2A
:1044100008B5FDF7C6FF08BD08B5FDF7C2FF08BD2A
:1044200008B5FDF7BEFF08BD08B5FDF7BAFF08BD2A
:1044300008B5FDF7B6FF08BD08B5FDF7B2FF08BD2A
:1044400008B5FDF7AEFF08BD08B5FDF7AAFF08BD2A
:1044500008B5FDF7A6FF08BD08B5FDF7A2FF08BD2A
:1044600008B5FDF79EFF08BD08B5FDF79AFF08BD2A
:1044700008B5FDF796FF08BD08B5FDF792FF08BD2A
:1044800008B5FDF78EFF08BD08B5FDF78AFF08BD2A
:1044900008B5FDF786FF08BD08B5FDF782FF08BD2A
:1044A00008B5FDF77EFF08BD08B5FDF77AFF08BD2A
:1044B00008B5FDF776FF08BD08B5FDF772FF08BD2A
:1044C00008B5FDF76EFF08BD08B5FDF76AFF08BD2A
:1044D00008B5FDF766FF08BD08B5FDF762FF08BD2A
:1044E00008B5FDF75EFF08BD08B5FDF75AFF08BD2A
:1044F00008B5FDF756FF08BD08B5FDF752FF08BD2A
:1045000008B5FDF74EFF08BD08B5FDF74AFF08BD29
:1045100008B5FDF746FF08BD08B5FDF742FF08BD29
:1045200008B5FDF73EFF08BD08B5FDF73AFF08BD29
:1045300008B5FDF736FF08BD08B5FDF732FF08BD29
:1045400008B5FDF72EFF08BD08B5FDF72AFF08BD29
:1045500008B5FDF726FF08BD08B5FDF722FF08BD29
:1045600008B5FDF71EFF08BD08B5FDF71AFF08BD29
:1045700008B5FDF716FF08BD08B5FDF712FF08BD29
:1045800008B5FDF70EFF08BD08B5FDF70AFF08BD29
:1045900008B5FDF706FF08BD08B5FDF702FF08BD29
:1045A00008B5FDF7FEFE08BD08B5FDF7FAFE08BD2B
:1045B00008B5FDF7F6FE08BD08B5FDF7F2FE08BD2B
:1045C00008B5FDF7EEFE08BD08B5FDF7EAFE08BD2B
:1045D00008B5FDF7E6FE08BD08B5FDF7E2FE08BD2B
:1045E00008B5FDF7DEFE08BD08B5FDF7DAFE08BD2B
:1045F00008B5FDF7D6FE08BD08B5FDF7D2FE08BD2B
:1046000008B5FDF7CEFE08BD08B5FDF7CAFE08BD2A
:1046100008B5FDF7C6FE08BD08B5FDF7C2FE08BD2A
:1046200008B5FDF7BEFE08BD08B5FDF7BAFE08BD2A
:1046300008B5FDF7B6FE08BD08B5FDF7B2FE08BD2A
:1046400008B5FDF7AEFE08BD08B5FDF7AAFE08BD2A
:1046500008B5FDF7A6FE08BD08B5FDF7A2FE08BD2A
:1046600008B5FDF79EFE08BD08B5FDF79AFE08BD2A
:1046700008B5FDF796FE08BD08B5FDF792FE08BD2A
:1046800008B5FDF78EFE08BD08B5FDF78AFE08BD2A
:1046900008B5FDF786FE08BD08B5FDF782FE08BD2A
:1046A00008B5FDF77EFE08BD08B5FDF77AFE08BD2A
:1046B00008B5FDF776FE08BD08B5FDF772FE08BD2A
:1046C00008B5FDF76EFE08BD08B5FDF76AFE08BD2A
:1046D00008B5FDF766FE08BD08B5FDF762FE08BD2A
:1046E00008B5FDF75EFE08BD08B5FDF75AFE08BD2A
:1046F00008B5FDF756FE08BD08B5FDF752FE08BD2A
:1047000008B5FDF74EFE08BD08B5FDF74AFE08BD29
:1047100008B5FDF746FE08BD08B5FDF742FE08BD29
:1047200008B5FDF73EFE08BD08B5FDF73AFE08BD29
:1047300008B5FDF736FE08BD08B5FDF732FE08BD29
:1047400008B5FDF72EFE08BD08B5FDF72AFE08BD29
:1047500008B5FDF726FE08BD08B5FDF722FE08BD29
:1047600008B5FDF71EFE08BD08B5FDF71AFE08BD29
:1047700008B5FDF716FE08BD08B5FDF712FE08BD29
:1047800008B5FDF70EFE08BD08B5FDF70AFE08BD29
:1047900008B5FDF706FE08BD08B5FDF702FE08BD29
:1047A00008B5FDF7FEFD08BD08B5FDF7FAFD08BD2B
:1047B00008B5FDF7F6FD08BD08B5FDF7F2FD08BD2B
:1047C00008B5FDF7EEFD08BD08B5FDF7EAFD08BD2B
:1047D00004207146084202D0EFF3098001E0EFF3B4
:1047E000088081690A884BF6AB639A4200D0FEE7E5
:1047F0000231816120210160704700BF80B582B025
:1048000000AF0346FB80B7F9063003211846FEF7D8
:1048100037F800BF0837BD4680BD80B584B000AF13
:10482000F860B9601346FB71FB791A46B968F868FD
:10483000FEF7FAF800BF1037BD4680BD80B400AF68
:1048400000BFBD465DF8047B704780B586B000AF01
:10485000F860B9607A603B6043F22153FB82BB6829
:10486000002B11D0FB681B7B012B09D1FB6808339F
:104870003A6879681846FEF765FC0346FB8204E057
:1048800043F22153FB8200E000BFFB8A1846183731
:10489000BD4680BD80B584B000AFF860B9607A6075
:1048A0007A68B968F868FEF717FC034618461037AF
:1048B000BD4680BD80B582B000AF0346FB80B7F92E
:1048C000063000211846FEF705FD00BF0837BD463B
:1048D00080BD80B485B000AFF860B9601346FB714D
:1048E000FB79002B0BD0BB681B0CC3F30B02FB68DE
:1048F000134404331A464FF4803313600AE0BB6854
:104900001B0CC3F30B02FB68134408331A464FF425
:104910008033136000BF1437BD465DF8047B7047D9
:1049200080B485B000AF78600B46FB701346BB7057
:10493000FB78032B12D97B685A68FB78032101FAB4
:1049400003F3DB431340FB60BB7803F00302FB7807
:104950009A40FB681A437B685A6011E07B685A688A
:10496000FB78072101FA03F3DB431340FB60BB78BC
:1049700003F00702FB789A40FB681A437B685A6091
:1049800000BF1437BD465DF8047B704780B500AFAB
:10499000FEF738FD00BF80BD80B582B000AF034692
:1049A000FB80B7F9063003211846FFF793F800BFE4
:1049B0000837BD4680BD80B485B000AFF860B960EF
:1049C0007A603B60BB6803F00F01FB691B0103F0D9
:1049D0001002FB680A431A607B68002B02D07B68D8
:1049E0003A681A6000BF1437BD465DF8047B704713
:1049F00080B485B000AFF860B9607A603B60BB6995
:104A0000002B02D0BB69FA691A6000BF1437BD469B
:104A10005DF8047B704708B5FFF7C8F8BDE80840AB
:104A2000FDF7ACBD00F0CCB9A8B14FF0805340F811
:104A30000C3C50F8042C72B11368B3F1805F0AD1BA
:104A400050F8083C516803330B4440F8083C936825
:104A500040F8043CEDE77047421C10B5830704465C
:104A600016D1234654F8041BA1F1013020EA0100BD
:104A700010F0803FF5D011F0FF0F11D011F47F4FEF
:104A80000CD011F47F0F14BF23460333981A04E0AF
:104A900010F8013B002BE1D1801A10BD0233F5E77D
:104AA0000133F3E770B50D4606461046144600F094
:104AB0002DF82B78722B17D0772B18D0612B23D1A0
:104AC000082348F2020215F8011F2B2912D062298F
:104AD00015D01B07E260666104D502220021204642
:104AE000FFF7E2F8204670BD00230122EBE7042324
:104AF0000222E8E742F0030243F00203E3E742F058
:104B0000040243F00103DEE70024EBE7F0B5C468DC
:104B100089B00546A10722D0220718D4D0E904673E
:104B2000FFF7A0F8384600F064F9230502D53046B7
:104B3000FFF77AFFA40DA40514F1A54F07D1202299
:104B4000296A684600F064F9684600F00BF83C22D8
:104B500000212846FFF766FF002009B0F0BD4FF0A6
:104B6000FF30FAE710B50446FFF776FF014620460E
:104B7000BDE8104000F046B9C36870B513F00306F5
:104B8000044611D09B0611D5856A00F03EF8E36813
:104B9000204623F44053E36000F00EF8002206465E
:104BA00029462046FFF780F8304670BD83690568C6
:104BB0001D440369ED1AEAE738B501680446056942
:104BC000C36AC06820F40022E26000F08202022A78
:104BD00002D04FF0FF3038BD10F48030FBD0994246
:104BE00038BF19468D4208D1E3680020E56223F4FE
:104BF00080332560A060E360EDE72246491B28462C
:104C0000FFF7F6F80028EFD0E3E7C368826923F0E6
:104C1000200310B5C3600446836A9A420ED0FFF7A2
:104C2000CBFFE36823F4405323F0100343F0100359
:104C3000E360A36AA3612369E3622360E36823F46A
:104C4000804323F04003E36010BD5FF0000C30B5FB
:104C50001C0022D112006FD0914206D305460846AF
:104C6000002100F06FF80446284600F06BF80A4671
:104C70002146BDE830401CF0404F08BF704703D5C7
:104C80004942404261F100015FEA8C0C38BF704735
:104C90005B42524263F10003704742D41C0C04BFD4
:104CA0001B040CF1100C13F07F4F04BF1B020CF11E
:104CB000080C13F0704F04BF1B010CF1040C13F02F
:104CC000404F04BF0CF1020C5FEA83035CBF0CF1A0
:104CD000010C5B00CCF1200E22FA0EF4234302FA01
:104CE0000CF200FA0CF520FA0EF001FA0CF4204355
:104CF00021FA0EF114461A4600F024F8A4FB002312
:104D0000AA1A71EB03033CBF1B190138CCF1200E2A
:104D100022FA0CF203FA0EF4224323FA0CF30021D8
:104D2000A7E7821A71EB03033CBF02460B464FF024
:104D3000000141F100009CE700200021BDE8304067
:104D400000F03DB80423B1EB122F09D2090241EA69
:104D500010610002013B08BF7047B1EB122FF5D381
:104D60000018494134BF9142891A4041494134BF3A
:104D70009142891A4041494134BF9142891A4041C8
:104D8000494134BF9142891A4041494134BF91425F
:104D9000891A4041494134BF9142891A40414941F1
:104DA00034BF9142891A4041494134BF9142891A26
:104DB0004041A3F1010313F00F0FD2D170477047A8
:104DC000034613F0030F0ED101F0FF0141EA012168
:104DD00041EA0141043A24BF43F8041BB2F1040242
:104DE000F9D202F10402013A24BF03F8011BFAE7E9
:104DF00070474FF0FF3070474FF0FF3070474FF073
:104E0000FF3070474FF0FF3070474FF0FF30704772
:104E10004FF0FF30704710467047FFFF4153534536
:104E20005254204552524F522022202573200A000E
:104E30002E66736C5F64656275675F636F6E736F18
:104E40006C652E633A343839203A204E554C4C204C
:104E5000213D2063680000002E66736C5F6465620C
:104E600075675F636F6E736F6C652E633A343930AC
:104E7000203A203020213D2073697A6500FFFFFF32
:104E80002E66736C5F636C6F636B2E633A313632E0
:104E9000203A20216279706173735874616C4F738A
:104EA0006300FFFF2E66736C5F636C6F636B2E682D
:104EB0003A31303639203A20696E646578203C3DBD
:104EC0002037554C00FFFFFF0000000000801B4012
:104ED00000C01B4000001C4000401C4000000C4073
:104EE00000000042004000420080004200C000423A
:104EF000FFFF1A011E001A020C031E012E66736CBE
:104F00005F6770696F2E633A3537203A20696E7398
:104F100074616E6365203C2041525241595F534990
:104F20005A4528735F6770696F4261736573290022
:104F30002E66736C5F6770696F2E633A3131332070
:104F40003A2070696E203C20333255002E66736C17
:104F50005F6C70756172742E633A383235203A2076
:104F60004E554C4C20213D206461746100FFFFFFD1
:104F700000000000004018400080184000C01840A9
:104F800000001940004019400080194000C019403D
:104F900000001A402E6C70756172745F61646170FC
:104FA0007465722E633A333436203A2068616E6439
:104FB0006C6500002E6C70756172745F6164617065
:104FC0007465722E633A333437203A206461746119
:104FD000000000002E6C70756172745F6164617016
:104FE0007465722E633A333438203A206C656E67EC
:104FF000746800FF2E73657269616C5F6D616E612C
:105000006765722E633A373832203A2077726974B6
:105010006548616E646C65002E73657269616C5FD2
:105020006D616E616765722E633A373833203A20BE
:1050300062756666657200002E73657269616C5FE9
:105040006D616E616765722E633A373834203A209D
:105050006C656E67746800002E73657269616C5FC1
:105060006D616E616765722E633A373839203A2078
:1050700068616E646C6500FF2E73657269616C5FB8
:10508000706F72745F756172742E633A32363720B6
:105090003A2073657269616C48616E646C650000EA
:1050A0002E73657269616C5F706F72745F75617287
:1050B000742E633A323638203A206275666665721D
:1050C000000000002E73657269616C5F706F72740E
:1050D0005F756172742E633A323639203A206C65FE
:1050E0006E67746800FFFFFF433A5C557365727327
:1050F0005C6E786633333034365C446F63756D654F
:105100006E74735C4D43555870726573736F494488
:10511000455F31312E312E305F333139355F70725A
:1051200063345C776F726B73706163655C65766B1B
:105130006D696D787274313036305F696C65645FAB
:10514000626C696E6B795C647269766572732F66E6
:10515000736C5F636C6F636B2E683A393938203A31
:1051600020627573795368696674203C3D2043431F
:105170004D5F4E4F5F425553595F5741495400FFB1
:10518000433A5C55736572735C6E786633333034C2
:10519000365C446F63756D656E74735C4D43555832
:1051A00070726573736F4944455F31312E312E3013
:1051B0005F333139355F707263345C776F726B7354
:1051C000706163655C65766B6D696D7872743130A2
:1051D00036305F696C65645F626C696E6B795C64C4
:1051E0007269766572732F66736C5F636C6F636B45
:1051F0002E683A31303335203A206275737953681E
:10520000696674203C3D2043434D5F4E4F5F4255DD
:1052100053595F5741495400433A5C557365727363
:105220005C6E786633333034365C446F63756D651D
:105230006E74735C4D43555870726573736F494457
:10524000455F31312E312E305F333139355F707229
:1052500063345C776F726B73706163655C65766BEA
:105260006D696D787274313036305F696C65645F7A
:10527000626C696E6B795C647269766572732F66B5
:10528000736C5F636C6F636B2E683A313036392014
:105290003A20696E646578203C3D2037554C00000B
:1052A0006400000000000000010000000000000099
:1052B00001000000000000000000000003000000EA
:0452C0007200770001
:0852C4006400000000A4781F43
:040000056000231D57
:00000001FF
