S0130000696C65645F626C696E6B792E737265638B
S315800020000000E081F5410080473A0080B1420080BF
S31580002010DB420080E7420080A94500800000000086
S31580002020000000000000000000000000AB450080BA
S31580002030AD45008000000000AF450080433D008034
S31580002040FD430080054400800D44008015440080D7
S315800020501D440080254400802D4400803544008046
S315800020603D440080454400804D44008055440080B6
S315800020705D440080654400806D4400807544008026
S315800020807D440080A1450080A1450080A145008057
S31580002090854400808D440080954400809D44008066
S315800020A0A5440080AD440080B5440080BD440080D6
S315800020B0C5440080CD440080D5440080DD44008046
S315800020C0E5440080ED440080F5440080FD440080B6
S315800020D0054500800D450080A1450080A145008012
S315800020E0A1450080A1450080A1450080A1450080D2
S315800020F0A1450080A1450080A1450080A1450080C2
S31580002100A1450080A1450080A1450080A1450080B1
S31580002110A1450080A1450080A1450080A1450080A1
S31580002120154500801D450080254500802D45008091
S3158000213035450080A1450080A1450080A1450080ED
S31580002140A1450080A1450080A1450080A145008071
S31580002150A1450080A1450080A1450080A145008061
S31580002160A1450080A1450080A1450080A145008051
S31580002170A1450080A1450080A1450080A145008041
S31580002180A1450080A1450080A1450080A145008031
S31580002190A1450080A1450080A1450080A145008021
S315800021A0A1450080A14500803D45008045450080D1
S315800021B0A1450080A1450080A1450080A145008001
S315800021C0A1450080A1450080A1450080A1450080F1
S315800021D0A1450080A1450080A1450080A1450080E1
S315800021E0A1450080A1450080A14500804D45008025
S315800021F055450080A14500805D450080654500808D
S31580002200A1450080A14500806D4500807545008010
S31580002210A1450080A1450080A1450080A1450080A0
S31580002220A1450080A1450080A1450080A145008090
S31580002230A1450080A1450080A1450080A145008080
S31580002240A1450080A1450080A1450080A145008070
S31580002250A1450080A1450080A1450080A145008060
S31580002260A1450080A1450080A1450080A145008050
S31580002270A1450080A1450080A1450080A145008040
S31580002280A1450080A1450080A1450080A145008030
S31580002290A1450080A1450080A1450080A145008020
S315800022A07D450080854500808D450080A145008064
S315800022B095450080A1450080A1450080A14500800C
S315800022C0A1450080A1450080A1450080A1450080F0
S315800022D0A1450080A1450080A1450080A1450080E0
S315800022E0A1450080A1450080A1450080A1450080D0
S315800022F0A1450080A1450080A1450080A1450080C0
S31580002300A1450080A1450080A1450080A1450080AF
S31580002310A1450080A1450080A1450080A14500809F
S31580002320A1450080A1450080A1450080A14500808F
S31580002330A1450080A1450080A1450080A14500807F
S31580002340A1450080A1450080A1450080A14500806F
S31580002350A1450080A1450080A1450080A14500805F
S31580002360A1450080A1450080A1450080A14500804F
S31580002370A1450080A1450080A1450080A14500803F
S31580002380A1450080A1450080A1450080A14500802F
S31580002390A1450080A1450080A1450080A14500801F
S315800023A0A1450080A1450080A1450080A14500800F
S315800023B0A1450080A1450080A1450080A1450080FF
S315800023C0A1450080A1450080A1450080A1450080EF
S315800023D0A1450080A1450080A1450080A1450080DF
S315800023E0A1450080A1450080A1450080A1450080CF
S315800023F0A1450080A1450080A1450080FFFFFFFF29
S3158000240070B50446A40EDFF8042700F0FF03D31846
S315800024101B68C0F34C350646360A06F01F06B540E3
S31580002420AB4301EA5031C1F30C0105462D0A05F094
S315800024301F05A940194300F0FF0010180160212CE8
S3158000244009D340F2E632DFF8C816DFF8C80600F096
S3158000245009FCAFF30080202C05D0DFF8BC060068AD
S31580002460E040C007F9D470BD70B50446A40EDFF80D
S315800024709C2600F0FF03D3181B68C0F34C35064634
S31580002480360A06F01F06B540AB4301EA5031C1F368
S315800024900C0105462D0A05F01F05A940194300F0D9
S315800024A0FF0010180160212C09D340F20B42DFF89F
S315800024B06016DFF8600600F0D5FBAFF30080202CB5
S315800024C005D0DFF854060068E040C007F9D470BD37
S315800024D070B504460D462646360A04F01F04082EBB
S315800024E009D340F22D42DFF82816DFF8300600F0D7
S315800024F0B9FBAFF30080DFF8280600EB86000168A1
S315800025000322A240914305FA04F40C43046070BD93
S315800025100021DDE7DFF80C1608607047DFF8081643
S3158000252008607047002AC1F30B4105D00818001DCA
S315800025304FF4803101607047081808304FF48031BD
S3158000254001607047090B002A426803D052EA0131C4
S315800025504160704722EA01314160704710B40B46F2
S31580002560042B44680ADB03238B4024EA030302F02E
S31580002570030202FA01F11943416009E007238B4007
S3158000258024EA030302F0070202FA01F119434160CB
S3158000259010BC704710B48468DFF890351C408906FB
S315800025A001F08061214341EA0241816010BC70479D
S315800025B000BF70B54FF40040FFF7B0FFDFF870053D
S315800025C0016841F480310160016821F400310160C5
S315800025D0DFF86005FFF79EFF002000F04FFB00F05C
S315800025E07BFB012000F06CFBDFF820050168090AFF
S315800025F0090241F07F010160DFF83C450121204658
S31580002600FFF7FEFEDFF8345501212846FFF7F8FE76
S31580002610DFF82C0501684909490141F01301016081
S31580002620DFF8200500680028FAD50021DFF81805B4
S31580002630FFF71AFF4FF48870FFF76AFF4FF4847034
S31580002640FFF766FF40F21620FFF762FF4FF4067031
S31580002650FFF75EFF40F20E20FFF75AFF0321DFF8F7
S31580002660EC04FFF701FF0121DFF8E404FFF7FCFE2D
S315800026700021DFF8E004FFF7F7FE4FF48A70FFF7DA
S3158000268047FF4FF48B70FFF743FF1820FFF740FF9B
S315800026901A20FFF73DFF4FF48670FFF739FF0121BF
S315800026A0DFF8B404FFF7E0FE40F20260FFF730FF88
S315800026B00121DFF8A804FFF7D7FE0021DFF8A00488
S315800026C0FFF79EFE40F20460FFF722FF0121DFF84C
S315800026D09404FFF7C9FE0021DFF88C04FFF790FE13
S315800026E040F20A60FFF714FF0121DFF88004FFF74C
S315800026F0BBFE0321DFF87804FFF782FE40F202700A
S31580002700FFF706FF0121DFF86C04FFF7ADFE01211C
S31580002710DFF86404FFF774FE40F20220FFF7F8FE4C
S315800027200121DFF85804FFF79FFE0021DFF85004EF
S31580002730FFF766FE4FF48070FFF7EAFE4FF4817074
S31580002740FFF7E6FE4FF48270FFF7E2FE4FF48370E8
S31580002750FFF7DEFE0421DFF82C04FFF785FE022159
S31580002760DFF82404FFF74CFE1620FFF7D1FE032185
S31580002770DFF81804FFF778FE0021DFF81404FFF76E
S315800027803FFE40F21250FFF7C3FE0321DFF8040438
S31580002790FFF76AFE0121DFF80004FFF765FE0021DE
S315800027A0DFF8F803FFF72CFE40F21450FFF7B0FE77
S315800027B00321DFF8EC03FFF757FE0121DFF8E4037E
S315800027C0FFF752FE0021DFF8E003FFF719FE40F223
S315800027D01650FFF79DFE0321DFF8D003FFF744FE76
S315800027E00121DFF8CC03FFF73FFE0021DFF8C403A9
S315800027F0FFF706FE40F20620FFF78AFE4FF40270CE
S31580002800FFF786FE40F20A20FFF782FE0021DFF8FE
S31580002810A803FFF729FE0021DFF8A003FFF7F0FDEC
S315800028200E20FFF775FE1220FFF772FE40F206704B
S31580002830FFF76EFE1020FFF76BFE1420FFF768FE91
S315800028404FF4E160FFF764FE0121DD48FFF70CFEDF
S315800028500221DC48FFF7D4FD4FF4A360FFF758FE52
S315800028601C20FFF755FE0C20FFF752FE4FF48C70AC
S31580002870FFF74EFE40F20230FFF74AFE40F2063086
S31580002880FFF746FE40F21A50FFF742FE40F20E6016
S31580002890FFF73EFE0021CC48FFF7E6FD0021CB483E
S315800028A0FFF7AEFD40F20A30FFF732FE0121C8483D
S315800028B0FFF7DAFD0321C748FFF7D6FD0521C64895
S315800028C0FFF79EFD40F20E50FFF722FE0121C3481E
S315800028D0FFF7CAFD0721C248FFF7C6FD0321C1489D
S315800028E0FFF78EFD40F20250FFF712FE0121BE482F
S315800028F0FFF7BAFD0721BD48FFF7B6FD0321BC48A7
S31580002900FFF77EFD4FF44070FFF702FE0121B948C4
S31580002910FFF7AAFD0721B848FFF7A6FD0321B748B0
S31580002920FFF76EFD0021B648FFF76AFDB54800F057
S31580002930DAF9B54800F0F7F92121002000F024FAF1
S315800029401021012000F020FA1121022000F01CFA4B
S315800029501321032000F018FAAC48016821F04001E9
S31580002960016000F005FAAA4E0122AA493046FFF717
S31580002970D9FDA949086820F400400860086820F459
S3158000298000000860A548026842F400520260A44A2A
S31580002990106820F400501060106820F4404040F425
S315800029A08030106000209F4B186001209E4B18607D
S315800029B013689E48034043F4005343F01F0308689E
S315800029C040F04040086043F40023136010680028FC
S315800029D0FCD5002296493046FFF7A4FD00F0CEF9DB
S315800029E0012294493046FFF79DFD93480168890886
S315800029F0890041F001010160016841F400510160E4
S31580002A00016821F00C010160016841F480110160C8
S31580002A10016841F40011016000F0A5F9012287499F
S31580002A203046FFF77FFD8648016841F4005101601A
S31580002A3003218448FFF7E4FC00212846FFF7E0FCE9
S31580002A4000212046FFF7DCFC00217F48FFF7D8FCF9
S31580002A507E4801684909490101607D48016821F085
S31580002A607001016001680909090141F001010160F5
S31580002A70016821F460010160016821F4F81141F4D4
S31580002A8090110160016821F480710160016821F074
S31580002A9080010160016821F0807101606D4C002227
S31580002AA011462046FFF75AFD002203212046FFF7F4
S31580002AB055FD002206212046FFF750FD0022082101
S31580002AC02046FFF74BFD00220A212046FFF746FDF0
S31580002AD0002211462046FFF75DFD00224FF400518B
S31580002AE02046FFF72FFD00224FF480412046FFF756
S31580002AF029FD5948016821F080510160016821F063
S31580002B000051016055485649086070BD00C00F40AD
S31580002B10003F0080FC42008048C00F401443008084
S31580002B2068C00F402000308024003080FFFF00FB0B
S31580002B30C0820D4000366E01186C00801439001476
S31580002B400C0008400000084014EA00041468008065
S31580002B5010E0004014FB00801CE0078024EB00801E
S31580002B601C30008024F000801C3100801CF700801F
S31580002B701C7D008018FD0080186800803CEB00807A
S31580002B803C69008018FA00801864008024790080EF
S31580002B90186E008028E6008028E007801C6A008086
S31580002BA02CE600802CE007801C6C008028F60080D4
S31580002BB028F007801C6E008038F30780383200804A
S31580002BC020E207802068008024E007802426008099
S31580002BD038EC008018F7008038EF008030F90080EC
S31580002BE030F600803074008030EC008030E9008060
S31580002BF03067008028E9008028F9008020730080F3
S31580002C000C200080AC4300801238008010800D407C
S31580002C1000800D400D00700070810D4070800D4069
S31580002C20A0800D40B0800D40C0800D4080EFFFFF3A
S31580002C300D00A0000D00E000E0800D400D0020009A
S31580002C4020800D40187200801C26008060810D4017
S31580002C5060C00F4000C00A4014C00A400046C3232B
S31580002C600000308080B513460A460146024800F0CF
S31580002C7005F900BEFDE700BFA041008080B50028B1
S31580002C8008D0A222DFF83011DFF83001FFF7EAFF23
S31580002C90AFF30080DFF828014FF080410160DFF854
S31580002CA014110968C903FAD54FF48031DFF814216D
S31580002CB01160DFF8142112681204FAD5016001BD93
S31580002CC0002804D11020DFF8041108607047102016
S31580002CD0DFF8FC1008607047DFF8D800016841F023
S31580002CE0010101607047DFF8F020116821F440414E
S31580002CF003799B0303F44043194341F48031116007
S31580002D001368DFF8D8100B40007800F07F0003438B
S31580002D1043F40053136010680028FCD5106820F433
S31580002D20803010607047DFF8AC100A6822F44042A9
S31580002D3043789B0303F440431A4342F480320A608B
S31580002D400A6822F002020078400000F00200024386
S31580002D5042F441520A6008680028FCD5086820F4CD
S31580002D608030086070470020DFF874100860704774
S31580002D704FF48050DFF86C10086070474FF4805035
S31580002D80DFF864100860704730B4184B1A68BF25A6
S31580002D90C40005FA04F422EA04048025C2009540A2
S31580002DA025431D6001F03F01C00081402143196029
S31580002DB030BC704770820D40583F008024430080AD
S31580002DC058810D4054810D4050810D4074820D40D4
S31580002DD078820D4010800D4000800D4080EFFFFF0F
S31580002DE020800D4070800D40E0800D40F0800D40C9
S31580002DF038B505460C46002D07D14FF4F6722E499C
S31580002E002E48FFF72FFFAFF30080002C07D140F24A
S31580002E10ED1229492A48FFF725FFAFF300802A489B
S31580002E200068002801D1002032BD22462946254867
S31580002E3000F091F8002801D04FF0FF34204632BDD3
S31580002E402DE9F04104460D4616461F464FF0000810
S31580002E5010E02868401C802805D329682046FFF7A3
S31580002E60C7FF00202860286826542868401C2860F0
S31580002E7008F10108B845ECDBBDE8F0810EB430B549
S31580002E80A0B0044600252A468021684600F06EF8E8
S31580002E900D48006800280AD023A90C4B6A462046B4
S31580002EA000F05FF901466846FFF7A2FF054628460F
S31580002EB020B030BC5DF810FBD43D0080B443008068
S31580002EC0644300803C00308044003080412E008086
S31580002ED010B511461A4643F22153047B012C03D1C7
S31580002EE0083000F033FA0346184610BDF8B5074699
S31580002EF00E461546002F07D140F21932164917485B
S31580002F00FFF7B0FEAFF30080002E07D140F21A32F1
S31580002F1011491348FFF7A6FEAFF30080002D07D1B5
S31580002F2040F21B320C490F48FFF79CFEAFF300803E
S31580002F303C68002C07D14FF4487207490A48FFF7CE
S31580002F4091FEAFF300802B4632463946204601B0CB
S31580002F50BDE8F040BCE7C9E7A43E0080944300800A
S31580002F60D4430080DC430080E443008062F30F2278
S31580002F7062F31F4200B500BF13009646944610398F
S31580002F8028BFA0E80C50FAD85FEA417C28BF0CC065
S31580002F9048BF40F8042BC90728BF20F8022B48BF3A
S31580002FA000F8012B00BD10B401460020024605E062
S31580002FB000EB8004184600EB4400303813000CD137
S31580002FC00B685B1C0B601B78A3F130040A2CEFD3D3
S31580002FD00A68521E0A600122F0E710BC704730B4BE
S31580002FE00146062000220B685B1C1C782E2C12D111
S31580002FF0104605E000EB8005204600EB45003038A2
S31580003000140009D113F8014FA4F130050A2DF1D32C
S315800030105B1E0122F4E75B1E0B6030BC70470146E5
S3158000302000200A466F2A05D0622A03D0702A01D072
S31580003030752900D101207047014600200A46642A7E
S3158000304001D0692900D101207047F8B50B46069C4E
S31580003050079D089E099F9B1A202239463046A8471D
S3158000306005E0012314F8012939463046A84720781F
S315800030700028F6D1F1BDF8B50B46069C079D089E43
S31580003080099F9B1A202239463046A84705E001232E
S3158000309014F8012939463046A84720780028F6D109
S315800030A0F1BD014600200A46662A01D0462900D194
S315800030B001207047014600200A46782A01D0582907
S315800030C000D10120704701466F2901D10820704741
S315800030D0622901D102207047702801D110207047E3
S315800030E00A20704770B404460025284604F8010B70
S315800030F0002A086814D0002815D000282ED090FB0E
S31580003100F3F203FB1200002802D43030014602E0BD
S31580003110C04331300146104604F8011B6D1CECE7B4
S31580003120039900280FD130202070012017E06122FA
S3158000313002E00A00FBD041220A3A101802463046C5
S3158000314004F8012B6D1C002808D0B0FBF3F603FBB6
S3158000315016000A28EDD230300246F0E7284670BCC9
S3158000316070472DE9F24191B015461E460021059122
S315800031700691049006E0012305A92846B0470498E5
S31580003180401C049004980078002838D0049802786F
S3158000319010462528EFD1012411A904A8FFF703FFC3
S315800031A00746002211A904A8FFF719FF0498401CBE
S315800031B0049090F800804046FFF73EFF012822D118
S315800031C0119800681199091D119107902046009069
S315800031D00A23024607A908A8FFF784FF05A90391D9
S315800031E00295019608A901440091002302463946BA
S315800031F01846FFF72AFF0498401C0490C2E70598FA
S3158000320012B0BDE8F0814046FFF74BFF012806D19A
S315800032101198C01D20F0070008301190EBE740465A
S31580003220FFF748FF01281FD1B8F1780F00D100249D
S31580003230119800681199091D1191069020460090F9
S315800032401023002206A908A8FFF74CFF05A90391C1
S315800032500295019608A90144009123460246394603
S315800032600020FFF708FFC6E74046FFF7D8FE012893
S315800032701ED1119800681199091D1191069040463A
S31580003280FFF721FF214600910346002206A908A8E0
S31580003290FFF728FF05A903910295019608A9014425
S315800032A000910023024639461846FFF7CEFEA2E774
S315800032B0404663280BD1119800681199091D119118
S315800032C023460246D2B205A92846B04793E773281B
S315800032D019D111980468001D1190002C8BD02046BE
S315800032E000F066F83F1A3B46202205A92846B047DB
S315800032F0207800283FF47FAF012314F8012B05A91D
S315800033002846B047F4E72346424605A92846B047F3
S3158000331071E730B4002513E050F8042BD30744BF7F
S31580003320A9F101039A18091F042942F8045BFAD20D
S3158000333013468C0744BF15809B1CC90748BF1D7068
S3158000334050F8041B0029E7D130BC704770B506469B
S315800033500D461446002E07D140F20B121049114833
S31580003360FFF780FCAFF30080002D07D14FF4867203
S315800033700B490D48FFF776FCAFF30080002C07D190
S3158000338040F20D1206490948FFF76CFCAFF3008046
S31580003390224629463046BDE8704000F03BB8000022
S315800033A0443E008054430080EC430080F443008018
S315800033B000F10103810704D010F8011B820781B157
S315800033C0FAD10268A2F10131914311F0803104BF34
S315800033D050F8042FF6E709BAB1FA81F100EBD10073
S315800033E0401CC01A704730B40EE00268436802443D
S315800033F00830DC0744BFA9F10104E31852F8045BE6
S3158000340043F8045B091FF9D150F8041B0029ECD15D
S3158000341030BC704770B506460D461446002E07D15F
S315800034204FF4AD7211491248FFF71CFCAFF30080D0
S31580003430002D07D140F25B120C490F48FFF712FCB2
S31580003440AFF30080002C07D14FF4AE7207490B48CA
S31580003450FFF708FCAFF300802246294605483378FB
S3158000346050F8230000F00CF8002070BD1041008059
S31580003470BC43008044420080C4430080CC4300802B
S3158000348070B506460D461446002D11D140F23B32EA
S31580003490DFF82C10DFF82C00FFF7E4FBAFF3008099
S315800034A006E070690002FCD515F8010BF061641E18
S315800034B0002CF6D170694002FCD5002070BD00005A
S315800034C06040008088430080174841681848174A42
S315800034D012681047144881681648144A12681047C3
S315800034E01148C1681448114A126810470E4801698C
S315800034F012480E4A126810470B48416910480B4A19
S3158000350012681047084881690E48084A12681047B1
S315800035100548C1690C48054A126810470248016A85
S315800035200A48024A12681047480030806C00308092
S31580003530004018400080184000C018400000194024
S31580003540004019400080194000C0194000001A4010
S3158000355030B49548016841F47001016093490A8846
S315800035604FF6FE7002400A8091490A8802400A801E
S3158000357090490888400704D50A884FF6FB700240B8
S315800035800A808D490888400704D50A884FF6FB7063
S3158000359002400A8089480168890403D58849894A96
S315800035A0116006E087494CF220520A604DF62812D7
S315800035B00A604FF6FF71844A1160016821F080012C
S315800035C041F02001016081480168C90703D501687F
S315800035D04908490001607E490868800315D4086857
S315800035E0800312D4BFF34F8FBFF36F8F0020794AC9
S315800035F01060BFF34F8FBFF36F8F086840F40030C1
S315800036000860BFF34F8FBFF36F8F0868C00327D45E
S315800036100868C00324D400206F4A1060BFF34F8F20
S315800036206E480268C2F34E336D4DC2F3C90443F649
S31580003630E07000EA431040EA847028602046441E09
S315800036400028F4D11846431E0028EED1BFF34F8FD1
S31580003650086840F480300860BFF34F8FBFF36F8FE8
S3158000366030BC00F0D5B870B55E4C2068800134D58A
S315800036705D48006810F4405006D0B0F5805F18D0E1
S31580003680B0F5005F17D020E058480168C90300688C
S3158000369007D5C0F38130002801D1554916E00021B5
S315800036A014E0800701D5162100E0142150484143DB
S315800036B00CE04F490AE04F480068C0F3813000288B
S315800036C001D14B4902E0002100E000212068C0F3CF
S315800036D0C260401CB1FBF0F65DE047480168C90353
S315800036E008D50068C0F38130002801D1404D07E03D
S315800036F0002505E0056805F07F053D4845436D08D2
S315800037003C480168C903006807D5C0F381300028AA
S3158000371001D1374E08E0002606E0C00701D51626FF
S3158000372000E0142632484643344800683049A1FBFD
S315800037300001334A1268002300F06CF886192A4883
S31580003740006810F4402026D0B0F5802F06D0B0F562
S31580003750002F0DD0B0F5402F14D01BE0294800680B
S31580003760C0F30540B6FBF0F000EBC0014E0012E05E
S315800037702448006800F03F00B6FBF0F000EBC00183
S315800037804E0008E02048006800F00700401CB5FBAA
S31580003790F0F600E000262068C0F38220401CB6FBCD
S315800037A0F0F01A49086070BD88ED00E008800B4093
S315800037B008000D4000800B4000000D4000C00B400B
S315800037C020C528D904C00B4008C00B4010E000E09B
S315800037D014ED00E050EF00E084ED00E080ED00E0C5
S315800037E060EF00E014C00F4018C00F4010800D40FD
S315800037F000366E0130800D4000800D4050800D40B7
S3158000380060800D4000810D4010C00F400000308068
S3158000381070470000BBBBE1B1B2F5803F80F07E808F
S31580003820022A1ED98C46B1FBF2F102FB11C31B049E
S3158000383043EA1043B3FBF2FC02FB1C3380B240EA3E
S315800038400343B3FBF2F002FB103240EA0C40002344
S315800038507047022A05D98446B0FBF2F002FB10C2FB
S3158000386070474AB105D100F0010249085FEA30008D
S31580003870704700220023704700F0E4B80B00020076
S31580003880002100207047904271EB030CF6D3B3F50C
S31580003890803F2FD2F0B5B3FA83F7B1FA81F4A7F15E
S315800038A00F0E3D1B5340CEF1200602FA0EF2F34175
S315800038B05340B5F10F0746D80F3C2C444140C4F124
S315800038C02006A040F1414140B1FBF3F603FB1611FF
S315800038D0A2FB0645001BA94102D2761E80185941DB
S315800038E080EA010221FA0EF362FA0EF200215A40B2
S315800038F03046F0BD30B4B1FBF3FC03FB1C11A2FBD8
S315800039000C45001BA94103D2ACF1010C801859412A
S3158000391030BC02460B46604600217047B2F1807F7C
S3158000392065D3F0B5B2FA82F7B1FA81F4C7F10F0622
S315800039303D1B22FA06F307F1110EF24120355A405B
S31580003940B5F10F07B8D94140C4F12006A040F14136
S315800039504140B1FBF3FC03FB1C11A2FB0C45001B91
S31580003960A94103D2BCF1010C801859410F2F12D303
S315800039700F3FC90341EA5041B1FBF3F603FB161131
S31580003980A2FB0645D4EBC030A94102D2761E801830
S31580003990594146EACC3C07B34140C7F12006B840BE
S315800039A0F1414140B1FBF3F603FB1611A2FB06453C
S315800039B0001BA94102D2761E8018594180EA010275
S315800039C021FA0EF3C7F1200462FA0EF20CFA07F020
S315800039D05A402CFA04F13043F0BD80EA010221FA04
S315800039E00EF3002162FA0EF260465A40F0BD8C4614
S315800039F0B1FBF2F102FB11C31B0243EA1063B3FB76
S31580003A00F2FC02FB1C331B024CEA002043EA1063E3
S31580003A10B3FBF2FC02FB1C331B024CEA002043EA98
S31580003A201063B3FBF2FC02FB1C331B024CEA002042
S31580003A3043EA1063B3FBF2FC02FB1C324CEA002023
S31580003A40002370477047FEE770B504460D4626464C
S31580003A50360A04F01F04082E07D340F22D423B4954
S31580003A603B48FFF7FFF8AFF300803A4800EB86004B
S31580003A7001680322A240914305FA04F40C430460D2
S31580003A8070BD0321E0E771E010B5002400E0641CFE
S31580003A900A2C04D2304951F824108142F7D10A2CDD
S31580003AA006D339222D492E48FFF7DCF8AFF3008084
S31580003AB0204610BDF8B504460D461646FFF7E4FFCE
S31580003AC0062808D2274931F9102012F1010F02D0B9
S31580003AD01046FFF7D6FF0127616907FA05F0814393
S31580003AE061613078002805D16068AF4020EA070719
S31580003AF0676008E072782946204600F00AF8606818
S31580003B00AF4007436760B27829462046BDE8F84053
S31580003B10B9E770B504460D461646202D06D37122A8
S31580003B200E491148FFF79EF8AFF30080002E2068FB
S31580003B3006D1012101FA05F520EA0505256070BD4B
S31580003B40012101FA05F50543256070BDB03F00806F
S31580003B503443008068C00F40CC410080084000801C
S31580003B60644100807C4300807043008070B40C46C2
S31580003B700125C66905FA01F39E43C661102902D262
S31580003B8000F10C0302E000F11003103C521E042ADF
S31580003B902AD8DFE802F0030A131D240019680322DD
S31580003BA060008240914319601EE01968032260001C
S31580003BB08240914385400D431D6015E019680322BC
S31580003BC060008240914302228240114319600BE0DB
S31580003BD019680322600082401143196004E0C269BB
S31580003BE005FA01F11143C16170BC704770B5044696
S31580003BF00D462646360A04F01F04082E07D340F2E7
S31580003C002D4233493348FFF72DF8AFF30080324811
S31580003C1000EB860001680322A240914305FA04F472
S31580003C200C43046070BD0321E0E710B4029C01F0F0
S31580003C300F01240104F0100421430160002A00D002
S31580003C40136010BC70470098002801D0019901606C
S31580003C5070470000FEB540F20240FFF7E4FF1F48C0
S31580003C600068029002AA09211D48FFF723FF1D4C18
S31580003C701D4D0020019000950346024605212046F1
S31580003C80FFF7D3FF194E1A4F002001900097034685
S31580003C90024609213046FFF7C8FF16480168002111
S31580003CA0016041F2B000019000950B460A4605215D
S31580003CB02046FFF7C8FF49F2B10001900097002324
S31580003CC01A4609213046FFF7BEFFF7BD0000000007
S31580003CD0B84000804443008068C00F409C45008007
S31580003CE000801B40E0801F40D0821F40E4801F4040
S31580003CF0D4821F4068C00A40020003D409012C4ABE
S31580003D001154704709012B4A00F00F00104400F847
S31580003D10041C704780B5411EB1F1807F01D301201C
S31580003D2002BD401E244908600F214FF0FF30FFF787
S31580003D30E3FF002021490860072021490860002010
S31580003D4002BD20490868002802D00868401E086025
S31580003D5070471C49086008680028FCD1704710B578
S31580003D60FFF778FFFEF724FCFFF77DFC1648006816
S31580003D704FF47A71B0FBF1F0FFF7CCFF0028134CBB
S31580003D8007D0FEE7002209211148FFF7C2FE002076
S31580003D9020704FF47A70FFF7DCFF20780028F1D18D
S31580003DA0012209210A48FFF7B4FE01202070F0E7BE
S31580003DB000E400E018ED00E014E000E018E000E028
S31580003DC010E000E0700030800000308074003080A9
S31580003DD000801B40433A5C6E78705C5F53444B7343
S31580003DE05C52454C31325F454E475C53444B5F32A3
S31580003DF02E382E315F45564B2D4D494D58525431F4
S31580003E003036345C646576696365735C4D494D58BC
S31580003E105254313036345C7574696C697469657373
S31580003E205C64656275675F636F6E736F6C655C6695
S31580003E30736C5F64656275675F636F6E736F6C6565
S31580003E402E630000433A5C6E78705C5F53444B731C
S31580003E505C52454C31325F454E475C53444B5F3232
S31580003E602E382E315F45564B2D4D494D5852543183
S31580003E703036345C636F6D706F6E656E74735C73B1
S31580003E80657269616C5F6D616E616765725C736531
S31580003E907269616C5F706F72745F756172742E6324
S31580003EA000000000433A5C6E78705C5F53444B734D
S31580003EB05C52454C31325F454E475C53444B5F32D2
S31580003EC02E382E315F45564B2D4D494D5852543123
S31580003ED03036345C636F6D706F6E656E74735C7351
S31580003EE0657269616C5F6D616E616765725C7365D1
S31580003EF07269616C5F6D616E616765722E630000C9
S31580003F00433A5C6E78705C5F53444B735C52454CAD
S31580003F1031325F454E475C53444B5F322E382E31EB
S31580003F205F45564B2D4D494D585254313036345C91
S31580003F30646576696365735C4D494D58525431307A
S31580003F4036345C647269766572735C66736C5F63C3
S31580003F506C6F636B2E680000433A5C6E78705C5FB2
S31580003F6053444B735C52454C31325F454E475C53EC
S31580003F70444B5F322E382E315F45564B2D4D494D81
S31580003F80585254313036345C646576696365735C47
S31580003F904D494D585254313036345C647269766579
S31580003FA072735C66736C5F636C6F636B2E63000009
S31580003FB0433A5C6E78705C5F53444B735C52454CFD
S31580003FC031325F454E475C53444B5F322E382E313B
S31580003FD05F45564B2D4D494D585254313036345CE1
S31580003FE0646576696365735C4D494D5852543130CA
S31580003FF036345C647269766572735C66736C5F6313
S315800040006C6F636B2E680000433A5C6E78705C5F01
S3158000401053444B735C52454C31325F454E475C533B
S31580004020444B5F322E382E315F45564B2D4D494DD0
S31580004030585254313036345C646576696365735C96
S315800040404D494D585254313036345C6472697665C8
S3158000405072735C66736C5F6770696F2E63000000B5
S31580004060433A5C6E78705C5F53444B735C52454C4C
S3158000407031325F454E475C53444B5F322E382E318A
S315800040805F45564B2D4D494D585254313036345C30
S31580004090646576696365735C4D494D585254313019
S315800040A036345C647269766572735C66736C5F6C59
S315800040B070756172742E6300433A5C6E78705C5FD3
S315800040C053444B735C52454C31325F454E475C538B
S315800040D0444B5F322E382E315F45564B2D4D494D20
S315800040E0585254313036345C646576696365735CE6
S315800040F04D494D585254313036345C647269766518
S3158000410072735C66736C5F636C6F636B2E680000A2
S31580004110433A5C6E78705C5F53444B735C52454C9B
S3158000412031325F454E475C53444B5F322E382E31D9
S315800041305F45564B2D4D494D585254313036345C7F
S31580004140636F6D706F6E656E74735C756172745C2F
S315800041506C70756172745F616461707465722E6370
S3158000416000000000696E7374616E6365203C2028D0
S3158000417073697A656F6628735F6770696F4261736A
S31580004180657329202F2073697A656F662828735F87
S315800041906770696F4261736573295B305D29290099
S315800041A0415353455254204552524F522022202586
S315800041B07320223A2066696C652022257322204C62
S315800041C0696E652022256422200A00000000000016
S315800041D000801B4000C01B4000001C4000401C406B
S315800041E000000C4000000042004000420080004277
S315800041F000C0004272B60548054901600A6882F32C
S3158000420008880448804762B60348004708ED00E006
S315800042100020008051350080A143008010B50749F9
S3158000422079441831064C7C44163404E00A68081D2B
S31580004230114488470146A142F8D110BD50000000C4
S315800042407000000000000000004018400080184008
S3158000425000C01840000019400040194000801940F5
S3158000426000C0194000001A404EF68851CEF2000177
S31580004270086840F470000860BFF34F8FBFF36F8FFC
S315800042804FF00070E1EE100A7047000087F0FFFFE4
S315800042905800000020003080000000004BF1FFFF36
S315800042A004000000000300000000308000000000D1
S315800042B0FEE7000000F00DF8002801D0FFF7AEFF02
S315800042C0AFF300800020AFF30080FFF748FD00F0D9
S315800042D002F80120704700F001B8FEE7074638462D
S315800042E000F002F8FBE7FEE780B5AFF30080024AF4
S315800042F011001820ABBEFBE72600020062757379B9
S315800043005368696674203C3D2028307832305529C0
S3158000431000000000696E646578203C3D2037554C6E
S3158000432000000000216279706173735874616C4F6C
S3158000433073630000696E646578203C3D2037554C78
S3158000434000000000696E646578203C3D2037554C3E
S315800043500000000073657269616C48616E646C650B
S31580004360000000003020213D2073697A650000003E
S3158000437070696E203C20333255000000FFFF1A0121
S315800043801E001A020C031E013020213D2064617438
S3158000439061000000777269746548616E646C6500BF
S315800043A0AFF30080FFF760FFFFF784FF6400000033
S315800043B0000000003020213D2063680068616E6443
S315800043C06C65000064617461000000006C656E6756
S315800043D07468000062756666657200006C656E675B
S315800043E07468000068616E646C650000627566665C
S315800043F0657200006C656E6774680000004800474F
S31580004400A145008000480047A1450080004800473C
S31580004410A145008000480047A1450080004800472C
S31580004420A145008000480047A1450080004800471C
S31580004430A145008000480047A1450080004800470C
S31580004440A145008000480047A145008000480047FC
S31580004450A145008000480047A145008000480047EC
S31580004460A145008000480047A145008000480047DC
S31580004470A145008000480047A145008000480047CC
S31580004480A145008000480047C934008000480047A5
S31580004490D534008000480047E1340080004800475A
S315800044A0ED34008000480047F9340080004800471A
S315800044B005350080004800471135008000480047D8
S315800044C01D35008000480047A14500800048004710
S315800044D0A145008000480047A1450080004800476C
S315800044E0A145008000480047A1450080004800475C
S315800044F0A145008000480047A1450080004800474C
S31580004500A145008000480047A1450080004800473B
S31580004510A145008000480047A1450080004800472B
S31580004520A145008000480047A1450080004800471B
S31580004530A145008000480047A1450080004800470B
S31580004540A145008000480047A145008000480047FB
S31580004550A145008000480047A145008000480047EB
S31580004560A145008000480047A145008000480047DB
S31580004570A145008000480047A145008000480047CB
S31580004580A145008000480047A145008000480047BB
S31580004590A145008000480047A14500800100000039
S315800045A0FFF7FEBF00A4781FFEE7FEE7FEE7FEE703
S705800043A196
