S3153000200000000420152400304124003045240030DF
S315300020103D2400303D2400303D24003000000000D7
S3153000202000000000000000000000000049240030DD
S315300020303D240030000000004D2400304D3F00307C
S3153000204055240030592400305D240030612400309E
S3153000205065240030692400306D240030712400304E
S3153000206075240030792400307D24003081240030FE
S3153000207085240030892400308D24003091240030AE
S31530002080952400303D2400303D2400303D2400307E
S31530002090992400309D240030A1240030A52400303E
S315300020A0A9240030AD240030B1240030B5240030EE
S315300020B0B9240030BD240030C1240030C52400309E
S315300020C0C9240030CD240030D1240030D52400304E
S315300020D0D9240030DD240030E1240030E5240030FE
S315300020E0E9240030ED240030F1240030F5240030AE
S315300020F0F9240030FD24003001250030052500305C
S31530002100092500300D2500303D2400303D240030B7
S315300021103D2400303D2400303D2400303D24003045
S315300021203D2400303D2400303D2400303D24003035
S315300021303D2400303D2400303D2400303D24003025
S315300021403D2400303D2400303D2400303D24003015
S315300021503D2400303D2400303D2400303D24003005
S315300021603D2400303D2400303D2400301125003020
S3153000217015250030192500301D2500302125003069
S3153000218025250030292500302D2500303D2400300E
S315300021903D2400303D2400303D2400303D240030C5
S315300021A03D2400303D2400303D2400303D240030B5
S315300021B03D2400303D2400303D2400303D240030A5
S315300021C03D240030312500303D2400303D240030A0
S315300021D03D2400303D2400303D2400303D24003085
S315300021E03D2400303D2400303D2400303D24003075
S315300021F03D2400303D24003035250030392500306F
S315300022003D2400303D2400303D2400303D24003054
S315300022103D2400303D2400303D2400303D24003044
S315300022203D2400303D2400303D2400303D24003034
S315300022303D2400303D2400303D2400303D24003024
S315300022403D2400303D2400303D250030412500300E
S315300022503D24003045250030492500303D240030EE
S315300022603D2400304D2500305125003055250030B5
S31530002270592500305D250030612500303D24003081
S315300022803D2400303D2400303D2400303D240030D4
S315300022903D2400303D2400303D2400303D240030C4
S315300022A03D2400303D2400303D2400303D240030B4
S315300022B03D2400303D2400303D2400303D240030A4
S315300022C03D2400303D2400303D2400303D24003094
S315300022D03D2400303D2400303D2400303D24003084
S315300022E03D2400303D2400303D2400303D24003074
S315300022F03D2400303D2400303D2400303D24003064
S315300023003D2400303D2400303D2400303D24003053
S315300023103D2400303D2400303D2400303D24003043
S315300023203D2400303D2400303D2400303D24003033
S315300023303D2400303D2400303D2400303D24003023
S315300023403D2400303D2400303D2400303D24003013
S315300023503D2400303D2400303D2400303D24003003
S3153000236065250030692500306D2500307125003037
S315300023703D2400303D2400303D2400303D240030E3
S315300023803D2400303D24003075250030792500305D
S315300023907D250030812500303D2400303D2400303D
S315300023A03D2400303D2400303D2400303D240030B3
S315300023B03D2400303D2400303D2400303D240030A3
S315300023C03D2400303D2400303D2400303D24003093
S315300023D03D2400303D2400303D2400303D24003083
S315300023E03D2400303D2400303D2400303D24003073
S315300023F03D2400303D2400303D240030FFFFFFFFF8
S31530002400DFF80CD000F0C2F900480047A940003090
S315300024100000042072B60548054901600A6882F357
S3153000242008880448804762B60348004708ED00E054
S3153000243000200030653F003001240030FFF7FEBF3A
S3153000244050480047504800475048004750480047DA
S3153000245050480047504800475048004750480047CA
S3153000246050480047504800475048004750480047BA
S3153000247050480047504800475048004750480047AA
S31530002480504800475048004750480047504800479A
S31530002490504800475048004750480047504800478A
S315300024A0504800475048004750480047504800477A
S315300024B0504800475048004750480047504800476A
S315300024C0504800475048004750480047504800475A
S315300024D0504800475048004750480047504800474A
S315300024E0504800475048004750480047504800473A
S315300024F0504800475048004750480047504800472A
S315300025005048004750480047504800475048004719
S315300025105048004750480047504800475048004709
S3153000252050480047504800475048004750480047F9
S3153000253050480047504800475048004750480047E9
S3153000254050480047504800475048004750480047D9
S3153000255050480047504800475048004750480047C9
S3153000256050480047504800475048004750480047B9
S3153000257050480047504800475048004750480047A9
S31530002580504800474124003045240030492400306B
S315300025904D2400304D3F00303D2400303D24003086
S315300025A03D2400303D2400303D2400303D240030B1
S315300025B03D2400303D2400303D2400303D240030A1
S315300025C03D2400303D2400303D2400303D24003091
S315300025D03D2400303D2400303D2400300D3900309C
S315300025E0253900303D390030553900306D390030ED
S315300025F0853900309D390030B5390030CD3900305D
S31530002600DD380030F53800303D2400303D240030D0
S315300026103D2400303D2400303D2400303D24003040
S315300026203D2400303D2400303D2400303D24003030
S315300026303D2400303D2400303D2400303D24003020
S315300026403D2400303D2400303D2400303D24003010
S315300026503D2400303D2400303D2400303D24003000
S315300026603D2400303D2400303D2400303D240030F0
S315300026703D2400303D2400303D2400303D240030E0
S315300026803D2400303D2400303D2400303D240030D0
S315300026903D2400303D2400303D2400303D240030C0
S315300026A03D2400303D2400303D2400303D240030B0
S315300026B03D2400303D2400303D2400303D240030A0
S315300026C03D2400303D2400302DE9F05F05460020E2
S315300026D092469B4688460646814640241BE028465D
S315300026E041464746224600F041F853465A46C01AFC
S315300026F0914110D311461846224600F028F82D1A7B
S3153000270067EB01084F4622460120002100F01FF8F2
S3153000271017EB00094E41201EA4F10104DFDC4846C8
S3153000272031462A464346BDE8F09FD2B201E000F872
S31530002730012B491EFBD270470022F6E710B513462F
S315300027400A4604461946FFF7F0FF204610BD202AF8
S3153000275004DB203A00FA02F1002070479140C2F1C2
S31530002760200320FA03F3194390407047202A04DBF4
S31530002770203A21FA02F00021704721FA02F3D040C4
S31530002780C2F120029140084319467047064C074D66
S3153000279006E0E06840F0010394E8070098471034FB
S315300027A0AC42F6D3FFF730FE0C4900302C490030EE
S315300027B0B0B5062800F29380DFE800F004172D4804
S315300027C06378840076480029D0F8204400F0898068
S315300027D024F4803101F0A0FAC0F83034D0F800117A
S315300027E081F48031C0F8001179E06D480029D0F8C5
S315300027F05044D0F8505400F0838025F4803101F0F5
S3153000280068FAC0F8603401F0B4FAD0F85014614078
S315300028108905FAD563E062480029D0F88044D0F8BB
S3153000282080547BD025F4803101F023FAC0F89034FF
S3153000283001F091FAD0F8801461408905FAD5D0F8C4
S31530002840801421F48031C0F8801448E054480029BF
S31530002850D0F8B044D0F8B0546ED025F4803101F0C1
S315300028602EFAC0F8C03401F07DFAD0F8B0146140C9
S315300028708905FAD5D0F8B01421F48031C0F8B014F7
S315300028802DE047480029D0F82045D0F8205561D0B2
S3153000289025F4803101F036FAC0F8303501F0F3F91D
S315300028A0D0F8201561408905FAD518E03C48002952
S315300028B0D0F8E0445CD001F0C4F9016881F40041FD
S315300028C001600CE036480029D0F8E0445BD001F0D6
S315300028D0B8F9D0F8701181F00101C0F870110020FC
S315300028E0B0BD44F48031734601F016FA9E46D0F8F6
S315300028F0001181F48031C0F80011D0F84004B0BD29
S3153000290045F4803101F0E5F901F033FAD0F850148E
S3153000291061408905FAD5D0F87004B0BD45F48031F0
S3153000292001F0A7F901F017FAD0F880146140890553
S31530002930FAD5D0F8A004B0BD45F4803101F0BFF926
S3153000294001F010FAD0F8B01461408905FAD5D0F804
S31530002950D004B0BD45F4803101F0D4F901F093F9DB
S31530002960D0F8201561408905FAD5D0F84005B0BDBC
S31530002970734601F0E1F99E46016881F40041016039
S31530002980D0F81005B0BD734601F0D6F99E46D0F8A2
S31530002990701181F00101C0F87011D0F80005B0BD9A
S315300029A00044C8400A4600210023FFF701BF134602
S315300029B00A460121FFF7FCBEF8B51C4615460E4601
S315300029C00746FFF7EFFF0699A04305FA01F12140CC
S315300029D040EA010238463146BDE8F840FFF7E7BF26
S315300029E00822002918BF042211464FF48032FFF71F
S315300029F0DEBF00002DE9F84398461746894604465F
S31530002A00DDE90856012802D0204601F0A1F94EB181
S31530002A103088718841EA0040102140F40042204657
S31530002A20FFF7C5FF204630212A46FFF7C0FF204674
S31530002A3020213A46FFF7BBFF0020009000214A468E
S31530002A407F232046FFF7B8FF012C08D019200090CD
S31530002A50002142464FF060632046FFF7ADFF204627
S31530002A60012100F011F82249642001F011FA2046C4
S31530002A700121BDE8F84300F01FB800BF0822002945
S31530002A8018BF042201F006B90822002918BF042213
S31530002A9011464FF48002FFF78ABF0822002918BF7B
S31530002AA0042201F0F7B80822002918BF0422114683
S31530002AB04FF40052FFF77BBF08234FF480420029C2
S31530002AC018BF0423194618BF4FF4C042FFF76FBF33
S31530002AD010B501210446FFF7E6FF0549E12001F074
S31530002AE0D7F920460021BDE81040FFF7DCBF00BF14
S31530002AF00046C3232DE9F84F00208DF80200ADF8CB
S31530002B0000000121134800F53A048346204601F0BF
S31530002B1037F92046012101F06FF9022000F070FDEF
S31530002B200D4CD4F8B00040F00200C4F8B00000F00C
S31530002B305BFD206C40F002002064206840F002000B
S31530002B402060206840F080702060206940F01400DA
S31530002B50206103E000400E401040C840206940002C
S31530002B60FCD56C46DFF8506400204FF48077ADF822
S31530002B7001702146B04708202146B047DFF83C04B3
S31530002B8000F0A2FB012001214FF0010800F04EFDBC
S31530002B9000F09AFADFF8280400F034FCDFF8245409
S31530002BA0022000211B22A847022001211022A8471B
S31530002BB0022002211822A8470220032118224FF0B2
S31530002BC00309A84700F094FC032000210D22A847F2
S31530002BD0032001211122A847032002212022A847E1
S31530002BE0032003211622A8470420012100F01EFDF0
S31530002BF000F050FAF44800F0B9FC4FF48270ADF8AA
S31530002C00010021460020B0470220214640F2072A23
S31530002C10ADF801A0B04740F20630ADF801002146CC
S31530002C200420B04705202146ADF80170B04740F288
S31530002C300740ADF8010021460620B0474FF47040FA
S31530002C40ADF8010021460820B04709202146ADF8ED
S31530002C500170B0470A202146ADF80170B0470B200D
S31530002C602146ADF80170B0470C202146ADF8017011
S31530002C70B0470D202146ADF80170B0470E202146F1
S31530002C80ADF80170B0470F202146ADF80170B0475E
S31530002C9010202146ADF80170B04711202146ADF81D
S31530002CA00170B04712202146ADF80170B0471320AD
S31530002CB02146ADF80170B04715202146ADF80170B8
S31530002CC0B04716202146ADF80170B047172021468F
S31530002CD0ADF80170B04718202146ADF80170B04705
S31530002CE01920214641F20665ADF80150B0471A2049
S31530002CF02146ADF80150B0471B202146ADF8017092
S31530002D00B0471C202146ADF80170B0471D20214642
S31530002D10ADF80170B0471E202146ADF80170B047BE
S31530002D201F202146ADF80170B04720202146ADF86E
S31530002D300170B04721202146ADF80170B0472220FE
S31530002D402146ADF80170B04723202146ADF8017019
S31530002D50B04724202146ADF80170B04725202146E2
S31530002D60ADF80170B04726202146ADF80170B04766
S31530002D7027202146ADF80170B04728202146ADF80E
S31530002D800170B04729202146ADF80170B0472A209E
S31530002D902146ADF80170B0472B202146ADF80170C1
S31530002DA0B0472C202146ADF80170B0472D20214682
S31530002DB0ADF80170B0472E202146ADF80170B0470E
S31530002DC02F202146ADF80170B04730202146ADF8AE
S31530002DD00170B04731202146ADF80170B04732203E
S31530002DE02146ADF80170B04733202146ADF8017069
S31530002DF0B04734202146ADF80170B0473620214621
S31530002E00ADF80170B04737202146ADF80170B047B4
S31530002E1038202146ADF80170B0473A202146ADF84A
S31530002E200170B0473B202146ADF80170B0473C20D9
S31530002E302146ADF80170B0473D202146ADF801700E
S31530002E40B0473E202146ADF80170B0473F202146BD
S31530002E50ADF80170B04740202146ADF80170B0475B
S31530002E6041202146ADF80170B04742202146ADF8E9
S31530002E700170B04743202146ADF80170B047442079
S31530002E802146ADF801A0B04745202146ADF8017086
S31530002E90B04746202146ADF80170B047472021465D
S31530002EA0ADF80170B04748202146ADF80170B04703
S31530002EB049202146ADF80170B0474A202146ADF889
S31530002EC00170B0474B202146ADF80170B0474C2019
S31530002ED02146ADF80170B0474D202146ADF801705E
S31530002EE0B0474E202146ADF80170B047DBF8000000
S31530002EF040F2FF41E74C20F00700CBF80000DBF84A
S31530002F00000069F3C500CBF80000DBF8000020F0C4
S31530002F10C000CBF80000DBF8040020F00300CBF84B
S31530002F200400DBF8080020F00300CBF80800DBF8DB
S31530002F300C008843CBF80C002449DBF8100020F055
S31530002F400100CBF81000DBF8140020F00100CBF8BC
S31530002F501400DBF8580020F00100CBF85800DBF8FD
S31530002F605C0020F00100CBF85C00DBF8600020F05C
S31530002F700100CBF86000DBF8640020F00100CBF8EC
S31530002F806400DBF8680020F00100CBF86800DBF85D
S31530002F906C0020F00100CBF86C002068C0F30220F2
S31530002FA0085C00F0F7F8216858FA81F1B0FBF1F0CF
S31530002FB007490860BDE8F88F813600303841003067
S31530002FC0EC48003075330030F8480030F9430030B3
S31530002FD00000002010B5084C08492068C0F30220D4
S31530002FE0084490F8C80000F0D5F82168012252FA5A
S31530002FF081F1B0FBF1F010BD800CCC408141003046
S3153000300080B5FFF7E7FF034601204FF4E131012297
S31530003010BDE8804000F04ABB1CB510480168C907BE
S3153000302005D101210160BFF34F8FBFF36F8F0C487D
S315300030300324817800888DF80610ADF8040009481D
S3153000304001AA032100F06AFB07480A210160C0F893
S3153000305014410221C0F858131CBD00BF2066CC4075
S31530003060324100300040C6401C810E40084A4301C0
S3153000307001F00101D35803F001038B4206D042EA36
S3153000308040100160BFF34F8FBFF36F8F704700BFA3
S315300030900060CC4080B50B48016821F4005100F047
S315300030A045FE02200021FFF7E9FC022000F050FE29
S315300030B002200021FFF7F1FC02200021BDE880400C
S315300030C0FFF7E2BC0043C84080B50F48016821F4E1
S315300030D000510160016821F000710160016821F042
S315300030E0806100F023FE01200021FFF7C7FC01209C
S315300030F000F02EFE01200021FFF7CFFC0120002139
S31530003100BDE88040FFF7C0BCC042C84000000000A8
S3153000311070B52DED028B03241D4E042808BF022402
S3153000312020460021B047054620463021B04700EE04
S31530003130100A20462021B8EE408BB04700EE100A28
S3153000314005F07F00012101EE100AC5F3426001FA55
S3153000315000F0B8EE400BB8EE411B80EE080B30EEB7
S31530003160010B9FED091B20EE010B01EE100AB8EEA4
S31530003170411B80EE010BBCEEC00B10EE100ABDEC0D
S31530003180028B70BD00BF00BF0000000060E37641D7
S31530003190A529003010B51E2800F25F80DFE800F068
S315300031A0393B103D101012121D1D3F454A4F1F1F4F
S315300031B056585F6D642121696B232325252A2A0001
S315300031C03D4810BD68483B4A01680068C9B2C0F343
S315300031D0C13022FA00F0484310BD354810BD3248A0
S315300031E010BD304810BD042000E00520BDE8104079
S315300031F0FFF78EBF274C28492068C0F30220085CB1
S31530003200FFF7C8FF2168012252FA81F1B0FBF1F0D5
S3153000321010BD2C4810BD2A4810BD284810BD524854
S31530003220006F10F03F000FD117E04F48006FC0F32A
S31530003230052008E04C48006FC0F3054003E04A48DB
S31530003240006FC0F3056040B119491DE0174810BD45
S315300032504548006B10F03F0015D1002010BD4248A4
S31530003260006BC0F305200CE03F48006BC0F30560EF
S3153000327007E00B4810BD094810BD3B48006BC0F352
S3153000328005400028E9D00849B1FBF0F000EBC0005A
S31530003290400010BD0000CC407146003000C2EB0B40
S315300032A00065CD1D00CA9A3B00389C1C001C4E0E92
S315300032B000A4781F808D5B0000366E010084D7171E
S315300032C0006CDC020024F400B0B5EC4D04462868EE
S315300032D080041BD5286821790840884216D1207889
S315300032E04FF4C03101EAC0302968014081420DD126
S315300032F02868400403D4286840F480402860286851
S3153000330040002FD5286820F080402AE0A5F50070CF
S3153000331000F0A0FD2868154910F4C04F0FBF20F00B
S31530003320005020F0602000F180402860084021786D
S31530003330227901F00301104440EAC1300C4940EAD9
S3153000334001042C6085491E20BFF34F8FBFF36F8F6A
S3153000335000F09EFD28688000FCD524F0402000F562
S3153000336080402860B0BD00BF0042C840005FFEBF4D
S3153000337000200040F8B59446032807D0022809D12A
S315300033801F4B03F1500003F1300205E01C4A02F1F5
S31530003390100001E000220020CD003F26802406FAEE
S315300033A005F70668AC403E40EE40F3B2066863452A
S315300033B005D108232640CB4036FA03F31FD04023ED
S315300033C003FA05F60368334000930368234303602A
S315300033D00368BB4303600CF03F03AB4005682B43E7
S315300033E00360022303FA01F1136859401160016842
S315300033F0A14301600099026832409142FAD0F8BD8B
S315300034002042C8402DE9F041344D04462868000278
S315300034103FD4A5F5107000F01DFD286B304940F003
S315300034208030286388462868084204D02D490840F1
S3153000343000F18040286074B1207A60B1606850B184
S31530003440216821F0404129660188408840EA0140E0
S3153000345040F400402862414C1E20234F2F60214605
S3153000346000F016FDFA202146204E2E6000F010FDA9
S3153000347007F50000286028688000FCD506F5C050A6
S31530003480286008F108002860286B20F08030286317
S315300034901CE09CB1207A296A090403D470B14FF438
S315300034A0004000E0C00361680A8849886FF3DF3165
S315300034B040EA02400843296A8842AAD12868800433
S315300034C001D400F0ECFB2868400001D4BDE8F0815F
S315300034D0286820F080402860BDE8F0814042C8402E
S315300034E000208000FFDF7FBF0800004008088040D2
S315300034F070B5184D286880021ED4A5F5047000F00A
S31530003500A9FC286A154C144E40F0803028622146BA
S315300035102E601E2000F0BCFC1148286021461E207B
S3153000352000F0B6FC06F50010286028688000FCD54F
S315300035300C4828600C480AE02868800401D400F062
S31530003540AEFB2868400003D5286820F0804028600C
S3153000355070BD00BF1042C840100000400046C32373
S315300035601008204018202040182020007CB51D4D22
S315300035700446A5F5547000F06DFC032001212E6839
S31530003580FFF72EFA06F02020B0F1202F0BD100F0F5
S31530003590AAFB0320FFF772FA032000F0D9FB0320C1
S315300035A00021FFF771FA00F07FFB01D0E46800E0FC
S315300035B00024CDE900040320FFF71CFA0320FFF7AF
S315300035C087FA28688000FCD503200121FFF756FAD8
S315300035D02868002120F4804028600320BDE87C4024
S315300035E0FFF7FEB95043C8400448016821F0010195
S315300035F00160016941F00101016170475040C840E6
S3153000360010B5044604203021FFF7CCF920F4A0622F
S31530003610012C03D024B942F4807201E042F4806276
S3153000362004203021BDE81040FFF7C1B905280BD87A
S31530003630DFE800F0030B0E161E211048026822F454
S31530003640003261F35142026070470120FFF7C8B97A
S315300036500A48026C22F4803261F3104202647047E9
S315300036600648026922F4803261F3104202617047E3
S315300036700220FFF7B5B90320FFF7B2B90042C840C0
S315300036800A784B7889780139C9B2002A064A63F339
S315300036900A2118BF01F18071C0011150BFF34F8F5D
S315300036A0BFF36F8F704700BF0000CC4010B588B0B5
S315300036B08DF80E00002048F64174ADF80C00ADF8D8
S315300036C01A408DF81820012A12480290CDE90031AF
S315300036D01CD16846104C07900021202204F10800C6
S315300036E0FFF72CF804F10C00A06004A900F0E2FB0F
S315300036F0207804F12001A06800F00AFCA06804F1EB
S31530003700240100F0ECFBA168616001E043F2215036
S3153000371008B010BD0000010108000020B0B500233C
S3153000372019A4102B17D054F82350854201D00133F9
S31530003730F7E70D2B0FD873B123A4E35C264C5D015C
S315300037406559ED0707D144EA431301241C60BFF3E2
S315300037504F8FBFF36F8F012344698B409C43446185
S31530003760147844B154788425002C08BF88254351F9
S315300037704468234302E0DB43446823404360927845
S31530003780BDE8B04000F02AB80000000000C012408A
S3153000379000001340004013400080134000C0134027
S315300037A00000144000C0C5400000C6400040C6407E
S315300037B00080C64000C0C6400000C7400000CA4076
S315300037C00080004200C000428A3333333333333310
S315300037D033333333333300000060CC40B0B501238C
S315300037E003FA01F4C369A343C3611023102934BF1C
S315300037F00C231039013A042A25D8DFE802F0030BEE
S315300038001219210049000324C25804FA01F122EAB0
S31530003810010113E049000324C2588C40A24301241D
S3153000382009E049000324C2588C40A243022402E036
S31530003830C2584900032404FA01F11143C150B0BD06
S31530003840C1692143C161B0BD8423002A08BF8823E2
S31530003850012202FA01F1C1507047000070B586B0FE
S3153000386001AE04460D46304600F0C0F840F2011075
S31530003870ADF812001849D5E900200190287A8DF864
S315300038800800687A8DF80B00A87A002818BF012046
S315300038908DF81500E87A002818BF01208DF814003D
S315300038A0287B002818BF01208DF80E00687B002881
S315300038B018BF01208DF80F00A87B51F82000314643
S315300038C000F0CAF810B142F6AF7002E0A87B207063
S315300038D0002006B070BD00BF4041003080B5404882
S315300038E0816A404802680248904700F0A7B900BF95
S315300038F000000A4080B53A48C16A3A480268024830
S31530003900904700F09BB900BF0040C24080B53448B4
S315300039104168344802680248904700F08FB900BFCA
S3153000392000C0074080B52E4881682E48026802489C
S31530003930904700F083B900BF0000084080B52848A2
S31530003940C168284802680248904700F077B900BF3E
S315300039500040084080B52248016922480268024882
S31530003960904700F06BB900BF0080084080B51C4816
S3153000397041691C4802680248904700F05FB900BFB1
S3153000398000C0084080B5164881691648026802486A
S31530003990904700F053B900BF0000094080B5104889
S315300039A0C169104802680248904700F047B900BF25
S315300039B00040094080B50A48016A0A480268024850
S315300039C0904700F03BB900BF0080094080B50448FD
S315300039D0416A044802680448904700F02FB900BF96
S315300039E0380000200400002000C00940B0B5002196
S315300039F0142204460025FEF7A1FE4FF4E130C4E957
S31530003A000005A560C4F80E50A581B0BD0146002062
S31530003A1004A200E001300D281CBF52F820308B4242
S31530003A20F8D170470000000000C007400000084091
S31530003A30004008400080084000C0084000000940AF
S31530003A40004009400080094000C0094000000A409B
S31530003A500040C2400080C2402DE9F84F814602EB5B
S31530003A6082000C6888464FF0000A04254FF00A0C95
S31530003A704FF0000B4FEA400EA1002046212D16D004
S31530003A80BEFBF1F321440533B3FBFCF31E0408BF40
S31530003A9001239EB26E43B2FBF6F6A71B38BF371B27
S31530003AA087429EBF9B46AA4638460135E6E76421E3
S31530003AB0B4FBF1F101EB4101884203D940F22150C8
S31530003AC0BDE8F88F4846FFF7A1FF5949085C012148
S31530003AD0FFF7CCFAD9F808006FF35F3B40F00200ED
S31530003AE0C9F80800D9F8080020F00200C9F8080023
S31530003AF00AF0FC00D9F81010042808BF41F4003150
S31530003B004C4808404FF0F85101EB0A6101F0F8518A
S31530003B1059440844C9F8100040F21771D9F810001A
S31530003B2020F00050C9F81000D9F8180098F80F4066
S31530003B3098F80E3098F80520884398F8041004F069
S31530003B40070403F00103084340EA0420012A40EA4F
S31530003B50830006D100290CBF40F4006020F40060D9
S31530003B6003E0002918BF40F01000C9F8180098F893
S31530003B70092098F8070098F8081098F80A30D9F80C
S31530003B80104060F34D34C9F8104041EA0240C9F89C
S31530003B902C00D9F8280040F08800C9F82800D9F858
S31530003BA0280040F44040C9F8280098F80D00D9F8AC
S31530003BB0241000F0010041EA001098F80C1001F0D2
S31530003BC0010140EA4110C9F824002BB1D9F824008C
S31530003BD040F00800C9F8240098F80B0028B1D9F84D
S31530003BE0240040F00100C9F82400134B98F8060071
S31530003BF098F8101098F8112003F10053002804BFEC
S31530003C004CF20003CCF21F03D9F814001843C9F85C
S31530003C1014000029D9F8180018BF40F40020002AF3
S31530003C2018BF40F48020C9F818000020BDE8F88F8E
S31530003C307441003000E0FFE000C01FC0BFF34F8F7B
S31530003C4080BD24F48031C0F8E014D0F8E01421F0BF
S31530003C50FF011144C0F8E014C0F8F0347047016039
S31530003C60BFF34F8FBFF36F8F70474FF47A7000F00A
S31530003C700FB9C0F88014D0F8801421F0FF01114438
S31530003C80C0F880147047D0F8201581F48071C0F8E0
S31530003C902015704711464FF40042FEF788BE28685B
S31530003CA040F4005028607047286840F4005028607F
S31530003CB0267C21786378D4E90120002E7047C0F83D
S31530003CC0B014D0F8B01421F0FF011144C0F8B0148C
S31530003CD07047C0F85014D0F8501421F0FF01114449
S31530003CE0C0F8501470472868002120F4005028602E
S31530003CF0286840F4804028607047C4F810054FF4B7
S31530003D007A703047C0F82015D0F8201521F0FF0121
S31530003D101144C0F820157047C0F82014D0F820148C
S31530003D2021F0FF011144C0F820147047016001688A
S31530003D3041F480410160704744F48031C0F8E014AA
S31530003D40D0F8E01421F0FF011144C0F8E0147047B8
S31530003D500021FEF7B1BED0F8801481F48071C0F82E
S31530003D6080147047D0F8B01481F48071C0F8B01464
S31530003D707047D0F8501481F48071C0F850147047F1
S31530003D8070B50446D0F81005404DD9B120F0010089
S31530003D90C4F81005174E29464FF47A70B047D4F858
S31530003DA01005294640F40020FFF7A7FFD4F8100588
S31530003DB0294640F02000FFF7A0FFD4F8100540F068
S31530003DC0040013E020F00500C4F810052946FFF77B
S31530003DD04CFFD4F81005294620F02000C4F8100511
S31530003DE0FFF743FFD4F8100520F40020C4F810057F
S31530003DF070BD00BF913E003070B50446D0F8300536
S31530003E00224D69B140F40030C4F830052946FFF739
S31530003E102CFFD4F830056FF0040640F480200CE017
S31530003E2040F00400C4F830052946FFF71EFFD4F8E9
S31530003E3030056FF4003620F48020C4F830054FF496
S31530003E407A70294600F024F8D4F830053040C4F8AA
S31530003E50300570BD10B5044600200021FEF7A2FDE6
S31530003E6040F2051188420FD00020002140F20512A1
S31530003E70FEF79DFD0549012000F00AF8D4F87005DB
S31530003E8040F01000C4F8700510BD00BF0046C323D3
S31530003E9060B180B5A1FB0001054A0023FEF714FC92
S31530003EA040000046401E0028FCD180BD704700BF50
S31530003EB0C0C62D00B0B50C46002114220546FEF7CB
S31530003EC03DFC207A287001281CBF43F22150B0BD3A
S31530003ED005F10C00E168BDE8B04000F02EB8F8B549
S31530003EE00646EFF31087EFF3108072B6706810B1A4
S31530003EF043F2225408E00D46716008460021042240
S31530003F000024FEF71BFC2E6087F310882046F8BD90
S31530003F10B0B505460C46EFF31080EFF3108172B65C
S31530003F200422A9680131A96080F310882046002157
S31530003F30FEF704FC00202560B0BDFFF78FBC000003
S31530003F400649086008680028FCD1704703480168B4
S31530003F5011B1016801390160704700BF340000209B
S31530003F6070470000F0B54848416F41F47001416731
S31530003F7046490A88520703D50A8822F004020A8085
S31530003F8043490A88520703D50A8822F004020A8078
S31530003F90404A1168890440490B4604D44CF22053F8
S31530003FA053604DF6281353604FF6FF7393601468D1
S31530003FB044F0200424F080041460384A1468A404C1
S31530003FC004D44CF2205151604DF628115160936063
S31530003FD0116841F0200121F08001116049490A68D9
S31530003FE0D20703D00A6822F001020A600168890309
S31530003FF012D4016889030FD4BFF34F8F0021BFF36A
S315300040006F8FC0F83C12BFF34F8FBFF36F8F0168CD
S3153000401041F40031FFF723FE0168C90326D4016855
S31530004020C90323D40021016743F6E07CBFF34F8FE9
S31530004030C26EC2F3C903C2F34E319A0701330CEA9A
S31530004040411516461F4646EA050406F14046013F2D
S31530004050C0F84C42F7D14C1E00292146EFD1BFF3B0
S315300040604F8F016841F48031FFF7F9FD0C490A683A
S3153000407022F400520A60016841F01001FFF7EFFDAB
S31530004080BDE8F04000F00EB814ED00E0000003404B
S31530004090004003400080034020C528D90000C140BD
S315300040A070400E4070470000FEF7B6FFFEF722FD67
S315300040B0FEF7A6FFFFF754FF11484FF47A710068F8
S315300040C0B0FBF1F00138B0F1807F00D3FEE70D4947
S315300040D0F0220E4E0E4C48600B480270002088606D
S315300040E0072008604FF47A70FFF72AFF30780321F3
S315300040F080F0010520462A46FFF7A6FB3570F1E72A
S315300041000000002010E000E023ED00E03000002049
S315300041100040C64002E008C8121F08C1002AFAD182
S3153000412070477047002001E001C1121F002AFBD101
S31530004130704701000000000001000000C8000000C8
S315300041400000000000C00740000008400040084062
S315300041500080084000C00840000009400040094087
S315300041600080094000C0094000000A400040C240BB
S315300041700080C2408A565758595A5B5C5D5E5F6014
S31530004180610205030007FF0FFF02050300140F0944
S3153000419018020503000F18090D02050300140F0954
S315300041A0180205030018090B11020503001018093F
S315300041B00D0205030010180B0902050300140F0A3F
S315300041C018020503000910180A0205030010180921
S315300041D00D020503001018090D020503000F181A09
S315300041E00D020503001018090D0205030010180909
S315300041F00D02050300101813140205030010181AD7
S315300042001C0205030010181A1C02050300101813AF
S3153000421014020503001018131402050300101813B6
S31530004220140205030011090C0F0205030011090CD5
S315300042300F020503001018090D02050300101809B6
S315300042400D02050300140F0D18020503001018099E
S315300042500D020503001018090D0205030010180998
S315300042600D020503001018090D0205030010180988
S315300042700D020503001018090D0205030010180978
S315300042800D020503001018090D0205030010180968
S315300042900D020503001018090D02050300140F0D59
S315300042A01802050300140F0D180205030010180933
S315300042B00D020503001018090D0205030010180938
S315300042C00D020503001018090D02050300140F0D29
S315300042D01802050300140F0D180205030013180900
S315300042E00D020503001318090D0205030013180902
S315300042F00D020503001318090D02050300140F13F0
S315300043001802050300140F131802050300101809CC
S315300043100D020503001018090D02050300171A18BF
S315300043200B02050300171A180BFFFFFFFFFFFFFFF5
S31530004330FF02050300171A180B02050300171A1897
S315300043400B02050300171A180BFFFFFFFFFFFFFFD5
S31530004350FF020503000C0A1807020503000C0A18B1
S31530004360070205030018101A0D0205030018101A6B
S315300043700D02050300140F1A18020503001A0F1355
S315300043800D020503001A13180D020503001A13183F
S315300043900D020503001A13180D02050300140F1A37
S315300043A01802050300090B0F1C02050300090C1146
S315300043B01C02050300090C111C02050300090A1131
S315300043C01C02050300090A111C020503000C0F0A22
S315300043D01C020503000C0F0A1C020503000C0F0A11
S315300043E01C020503000C0F121C020503000C0912F7
S315300043F018020503000D01121A0205030007FF0F0C
S31530004400FF02050300140F0918020503000F1809EF
S315300044100D02050300140F09180205030018090BD5
S3153000442011020503001018090D0205030010180BC0
S315300044300902050300140F0A1802050300091018B3
S315300044400A020503001018090D02050300101809A9
S315300044500D020503000F181A0D0205030010180986
S315300044600D020503001018090D020503001018137C
S31530004470140205030010181A1C0205030010181A3E
S315300044801C0205030010181314020503001018133C
S315300044901402050300101813140205030011090C49
S315300044A00F0205030011090C0F020503001018094D
S315300044B00D020503001018090D02050300140F0D37
S315300044C018020503001018090D020503001018091B
S315300044D00D020503001018090D0205030010180916
S315300044E00D020503001018090D0205030010180906
S315300044F00D020503001018090D02050300101809F6
S315300045000D020503001018090D02050300101809E5
S315300045100D02050300140F0D1802050300140F0DCC
S3153000452018020503001018090D02050300101809BA
S315300045300D020503001018090D02050300101809B5
S315300045400D02050300140F0D1802050300140F0D9C
S3153000455018020503001318090D0205030013180984
S315300045600D020503001318090D020503001318097F
S315300045700D02050300140F131802050300140F1360
S3153000458018020503001018090D020503001018095A
S315300045900D02050300171A180B02050300171A1827
S315300045A00BFFFFFFFFFFFFFFFF02050300171A187F
S315300045B00B02050300171A180B02050300171A1809
S315300045C00BFFFFFFFFFFFFFFFF020503000C0A187A
S315300045D007020503000C0A18070205030018101A13
S315300045E00D0205030018101A0D02050300140F1AE8
S315300045F018020503001A0F130D020503001A1318CB
S315300046000D020503001A13180D020503001A1318BC
S315300046100D02050300140F1A1802050300090B0FCB
S315300046201C02050300090C111C02050300090C11BC
S315300046301C02050300090A111C02050300090A11B0
S315300046401C020503000C0F0A1C020503000C0F0A9E
S315300046501C020503000C0F0A1C020503000C0F1286
S315300046601C020503000C091218020503000D011285
S315300046701A0205030007FF0FFF02050300140F0996
S3153000468018020503000F18090D02050300140F095F
S31530004690180205030018090B11020503001018094A
S315300046A00D0205030010180B0902050300140F0A4A
S315300046B018020503000910180A020503001018092C
S315300046C00D020503001018090D020503000F181A14
S315300046D00D020503001018090D0205030010180914
S315300046E00D02050300101813140205030010181AE2
S315300046F01C0205030010181A1C02050300101813BB
S3153000470014020503001018131402050300101813C1
S31530004710140205030011090C0F0205030011090CE0
S315300047200F020503001018090D02050300101809C1
S315300047300D02050300140F0D1802050300101809A9
S315300047400D020503001018090D02050300101809A3
S315300047500D020503001018090D0205030010180993
S315300047600D020503001018090D0205030010180983
S315300047700D020503001018090D0205030010180973
S315300047800D020503001018090D02050300140F0D64
S315300047901802050300140F0D18020503001018093E
S315300047A00D020503001018090D0205030010180943
S315300047B00D020503001018090D02050300140F0D34
S315300047C01802050300140F0D18020503001318090B
S315300047D00D020503001318090D020503001318090D
S315300047E00D020503001318090D02050300140F13FB
S315300047F01802050300140F131802050300101809D8
S315300048000D020503001018090D02050300171A18CA
S315300048100B02050300171A180BFFFFFFFFFFFFFF00
S31530004820FF02050300171A180B02050300171A18A2
S315300048300B02050300171A180BFFFFFFFFFFFFFFE0
S31530004840FF020503000C0A1807020503000C0A18BC
S31530004850070205030018101A0D0205030018101A76
S315300048600D02050300140F1A18020503001A0F1360
S315300048700D020503001A13180D020503001A13184A
S315300048800D020503001A13180D02050300140F1A42
S315300048901802050300090B0F1C02050300090C1151
S315300048A01C02050300090C111C02050300090A113C
S315300048B01C02050300090A111C020503000C0F0A2D
S315300048C01C020503000C0F0A1C020503000C0F0A1C
S315300048D01C020503000C0F121C020503000C091202
S315300048E018020503000D01121A000000FFFFFF0F2A
S315300048F00000000000000000290000000100000058
S3153000490000A60E0000000000000000002C49003018
S315300049100000002008000000144100303449003007
S3153000492008000020640000002441003000A4781FF5
S309300049303D240030BC
S503029466
S70530002401A5
