:1000000000000320A1200000FB1200005B14000090
:100010004B2000005D210000CF2100000000000007
:10002000000000000000000000000000DB210000D4
:10003000652500000000000067250000692500001C
:10004000D9230000E1230000E9230000F123000090
:10005000F9230000012400000924000011240000FD
:10006000192400002124000029240000312400006C
:1000700039240000412400004924000051240000DC
:100080005924000061250000612500006125000061
:100090006125000061250000612500006125000048
:1000A000612400006924000071240000792400000C
:1000B000812400008924000091240000992400007C
:1000C000A1240000A9240000B1240000B9240000EC
:1000D000C1240000C9240000D124000061250000D3
:1000E00061250000612500006125000061250000F8
:1000F00061250000612500006125000061250000E8
:1001000061250000612500006125000061250000D7
:1001100061250000612500006125000061250000C7
:1001200061250000612500006125000061250000B7
:1001300061250000612500006125000061250000A7
:1001400061250000D9240000E1240000E92400001A
:10015000F1240000F9240000612500006125000061
:10016000612500006125000001250000092500002F
:100170001125000019250000212500002925000077
:1001800031250000392500004125000049250000E7
:10019000512500005925000061250000612500005F
:1001A0006125000061250000612500006125000037
:1001B0006125000061250000612500006125000027
:1001C0006125000061250000612500006125000017
:1001D0006125000061250000612500006125000007
:1003F000612500006125000061250000FFFFFFFF6F
:10040000FFFFFFFFFFFFFFFFFFFFFFFFFEFFFFFFFD
:10041000DFF87014096860F39341DFF86824116015
:100420007047DFF86414096860F31141DFF858245D
:1004300011607047037813F05F030A781343037069
:100440007047027812F0F0020A430270704780B5DC
:10045000DFF810040078C0B210F00300002803D0C9
:10046000022825D012D326E0DFF8FC03006800281C
:1004700008D1DA22DFF8F413DFF8F40300F094FA7D
:10048000AFF30080DFF8E003006815E0DFF8E40375
:100490000068002808D1DF22DFF8D013DFF8D80386
:1004A00000F082FAAFF30080DFF8C803006803E0D1
:1004B000DFF8E40300E0002002BD38B5FFF7C7FF16
:1004C000002831D0DFF8B4130978C1F3C201C84065
:1004D000DFF8AC231278C2F30112DFF888331B78FF
:1004E00013F003031400E4B2002C03D01C00E4B2A8
:1004F000002C03D01C00E4B2022C15D10C00E4B295
:10050000002C052C04D9A41F04D0641E06D009E0D9
:10051000400909E01424B0FBF4F005E00C24B0FB22
:10052000F4F001E00024200032BDDFF86003007821
:10053000C00703D4DFF85803006808E0DFF854036D
:100540000068DFF85C130978C1F34201C8407047C6
:1005500080B5DFF838030078C0B2C0F3001000287F
:1005600002D1FFF7AAFF02E0DFF82403006802BD12
:1005700080B5FFF76CFF02BD010049F6980081428B
:1005800001D2002006E0DFF81C03814201D20120E5
:1005900000E00220C0B2704780B500F015F8DFF827
:1005A00008130968090F491CB0FBF1F002BD10B532
:1005B00004006068DFF8F01208602078FFF731FF70
:1005C0006078FFF725FF10BD10B5DFF8C002007896
:1005D000C0B2C0F38104002C07D0022C0BD007D38B
:1005E000032C0BD100F031F809E000F009F806E027
:1005F000FFF79BFF03E0FFF72AFF00E0002010BD9C
:1006000080B5DFF87C020078800704D4DFF87C0234
:100610000078800601D5002016E0FFF799FF00283A
:1006200012D0DFF810130978C1F34111DFF8042369
:100630001278D2B2D209DFF85433C9B203EB810188
:10064000D2B231F81210484302BD10B5DFF83C02B7
:100650000078400601D400201FE0FFF789FF040066
:10066000002C09D140F2DF22DFF80012DFF8C802C7
:1006700000F09AF9AFF30080DFF8C0020078C0B252
:1006800010F01F00401CB4FBF0F0DFF804130978F1
:10069000C9B211F01F011831484310BD10B4010058
:1006A000DFF8C0010078C0B210F003000A00D2B237
:1006B000904201D0012200E00022DFF8A801047876
:1006C00014F0FC0411F003000443DFF898010470F7
:1006D0001000C0B2002808D040F2DC50030018001F
:1006E000431E002801D000BFF9E7002010BC70476E
:1006F000F0B40300DFF894010078C0B2C0F38104C5
:10070000DFF88801057815F00105DFF8940100781D
:10071000C0F3420610003700C0B2FFB2B84223D087
:10072000DFF858010078800701D4012C10D128008F
:10073000C0B201280CD1DFF84801007810F0FE00AB
:10074000DFF83C713870DFF844010078C007FAD454
:10075000DFF84C01007810F0D000570017F00E07BA
:100760003843DFF83C713870DFF81401077817F070
:10077000FE0711F001000743DFF804010770DFF8FE
:10078000FC00007810F0FC001843DFF8F0703870BF
:10079000012C01D0980709D5DFF8F0000078C0B22D
:1007A00010F001000F00FFB2B842F5D10020F0BCFC
:1007B000704710B50400002C08D140F2D7322B4905
:1007C000DFF8D00100F0F0F8AFF30080002160788E
:1007D00010F01F000143DFF864010170DFF8B00181
:1007E000007810F0E000A27812F01F021043DFF84A
:1007F000A0211070DFF8440102782078024352F003
:100800004002DFF838010270DFF88C010078400602
:10081000FAD510BD38B504002068FFF7ADFE05001D
:1008200021791E48FFF70DFE1548017811F0C3012C
:10083000280110F030000143607901431048017035
:10084000A11D1648FFF7F6FD6079002808D013486F
:100850000078000604D5DFF8400100788007FAD55B
:1008600031BD00000C4006400C00FF1F2C1F000093
:10087000882200001000FF1F9C220000004006405C
:1008800001400640007004400480044006400640D9
:100890000000FF1F0400FF1F006CDC020050064038
:1008A0000840064001127A004480044038B5050033
:1008B0000C00002C08D14FF4E662DFF8E810354850
:1008C00000F072F8AFF30080DFF8D000007810F08D
:1008D000FD00DFF8C8100870DFF8C400007810F0E1
:1008E0003B0050F08000DFF8B8100870DFF8A80077
:1008F0000078C0B210F01C000828F7D12448007816
:1009000010F0BF0022490870DFF88C0000788006E4
:10091000FAD42000FFF74DFF1D48007850F040004A
:100920001B490870DFF8700000788006FAD50020B7
:1009300032BD0000034006401C2300000440064076
:1009400070B505000E001400002C07D140F64902D6
:100950001449104800F028F8AFF300802800C0B216
:10096000FFF79CFE21003000C0B2FFF79FFF0C484C
:10097000007810F03F000A49087007480078C0B2BC
:10098000C0F381000328F8D1002070BDB022000020
:10099000054006406823000006400640014006402E
:1009A000004006402C1F000070B504000D0016002A
:1009B00033002A002100024800F0E2F800BEFDE703
:1009C0004C20000038B5040043F2215501222100DB
:1009D0007F4800F064FA0100002901D0012000E006
:1009E000002032BD70B505000C0043F22156002DE9
:1009F00007D140F2D11277497748FFF7D5FFAFF31F
:100A00000080002C07D14FF4E97272497348FFF758
:100A1000CBFFAFF3008022002900714800F035FAC7
:100A2000002801D05FF0FF34200070BD10B5040035
:100A3000002C07D140F24622664964A0FFF7B4FFBC
:100A4000AFF300802000FFF7BDFF002801D1012097
:100A500001E05FF0FF3010BD2DE9F04104000D0012
:100A600016001F0000205FF00008B84511DA286862
:100A7000401C802805D329682000FFF7B3FF002021
:100A80002860286826542868401C286018F101084E
:100A9000EBE7BDE8F0812DE9F84F88B006000F00C4
:100AA0009046994643F2215568464E49102200F07F
:100AB00011FACDF8009001978DF80A608DF8188032
:100AC0004046C0B2012817D1684607905FF01C0A63
:100AD0005FF0000B444C5A465146200000F052FA99
:100AE00041484149086104A93F48006900F03EF9C6
:100AF0000400002C14D11BE04046C0B2022801D1F2
:100B000028003AE04046C0B2032801D1280034E072
:100B10004046C0B2042801D128002EE028002CE075
:100B20004FF433722B493148FFF73EFFAFF300809B
:100B30002B492D48006900F04EF90500002D07D023
:100B400040F2D62223492948FFF72EFFAFF3008059
:100B50001F492548006900F069F90400002C07D0FE
:100B600040F2E1221B492148FFF71EFFAFF300804E
:100B70001D4800691E490860002009B0BDE8F08FDB
:100B80000EB42DE9F841A0B0040000250026802114
:100B900000226F46380000F0F5F91548006800287B
:100BA00001D100200BE027AF124B6A46390020002C
:100BB00000F07BFA804641466846FFF713FF21B0FC
:100BC000BDE8F0015DF810FB000000006368000064
:100BD0002C00FF1F101E00007023000028230000BF
:100BE0002800FF1FC02200001400FF1F7820000013
:100BF0003000FF1F590A000001B501216846FFF7C8
:100C0000F1FE02BD80B500208DF800006846FFF7B8
:100C10000DFF9DF8000002BD2DE9F04105000C001C
:100C200016001F0043F22158002C0DD0287B01280C
:100C300007D13A00310015F1080000F096FB80461C
:100C400002E043F221508046404600B2BDE8F08108
:100C50002DE9F04105000C0016001F0043F2215859
:100C6000002C0DD0287B012807D13A00310015F166
:100C7000080000F0A3FB804602E043F221508046CA
:100C8000404600B2BDE8F0812DE9F04107000E00BA
:100C90001500002F09D140F20632DFF81812DFF8F4
:100CA0001802FFF781FEAFF30080002E07D140F25B
:100CB000073280498148FFF777FEAFF30080002DAF
:100CC00007D14FF442727B497D48FFF76DFEAFF3C9
:100CD0000080B846D8F80040002C07D140F20D3211
:100CE00074497848FFF760FEAFF300802B003200B4
:100CF00041462000FFF790FFBDE8F0812DE9F0416B
:100D000007000E001500002F07D140F21732694985
:100D10006D48FFF749FEAFF30080002E07D14FF476
:100D2000467264496548FFF73FFEAFF30080002D2F
:100D300007D140F219325F496148FFF735FEAFF342
:100D40000080B846D8F80040002C07D140F21E328F
:100D500058495C48FFF728FEAFF300802B003200B3
:100D600041462000FFF774FFBDE8F0812DE9F04710
:100D700004000D0043F22156002D07D140F2293224
:100D80004C495248FFF710FEAFF30080002C07D10A
:100D900040F22E3247494E48FFF706FEAFF300807F
:100DA00027005FF010085FF00009BA464A46414646
:100DB000504600F0E7F8287A3873287A012806D1DF
:100DC000E96817F1080000F099FA0600FFE7300023
:100DD00000B2BDE8F0872DE9F04705000C00002DBA
:100DE00007D140F2DB3233493948FFF7DDFDAFF37D
:100DF0000080002C07D14FF477722E492E48FFF760
:100E0000D3FDAFF300802E0027005FF004085FF0F1
:100E10000009A2464A464146504600F0B3F87068C1
:100E2000401C70603E600020BDE8F0872DE9F0476F
:100E300005000C00002D07D140F20C421D4924484A
:100E4000FFF7B2FDAFF30080002C07D140F20D4256
:100E500018491D48FFF7A8FDAFF300802E002700BA
:100E60003068002802D043F222500CE05FF0040802
:100E70005FF00009A2464A464146504600F082F81B
:100E800037603E600020BDE8F08770B504000D00BB
:100E90001600320029002000FFF7F6FE70BD70B585
:100EA00004000D001600320029002000FFF726FF85
:100EB00070BD0000A41E0000342300008823000041
:100EC000902300009823000040230000A02300008E
:100ED000E0220000103A07D330B4B1E83810103ADD
:100EE000A0E83810F9D230BC530724BFB1E808108D
:100EF000A0E8081044BF51F8043B40F8043BD20777
:100F000024BF31F8022B20F8022B44BF0B7803706A
:100F10007047121F17D35B0009D151F8043B20F82A
:100F2000023B1B0C121F20F8023BF6D20BE051F8DB
:100F3000043B00F8013B1B0A20F8023B1B0C121F6C
:100F400000F8013BF3D238BF121D521E24BF11F826
:100F5000013B00F8013BF8D870470EE00268436897
:100F6000024408305FEAC37C44BF4B445B1E52F826
:100F700004CB43F804CB091FF9D150F8041B002916
:100F8000ECD1704762F30F2262F31F42401810F059
:100F9000030308D0C91A1FD3DB0748BF00F8012D8F
:100FA00028BF20F8022D130030B41446154610391E
:100FB00028BF20E93C00FAD8490728BF20E90C00E7
:100FC00048BF40F8042D890028BF20F8022D48BFF3
:100FD00000F8012D30BC7047C91818BF00F8012D6A
:100FE000CB0728BF00F8012D70472DE9F04F84464C
:100FF0000D001400099E0020E2465FF0000B8AF805
:1010000000B01AF1010A002C24D0D5F800B05946DE
:10101000002905D15FF0300B8AF800B0401C42E097
:10102000002940D091FBF3FBDE4603FB1E1BBBF106
:10103000000F05D55F467FEA070919F1310902E083
:10104000D94619F1300971468AF800901AF1010A5F
:10105000401CE5E7D5F800B05A46002A05D15FF0FC
:10106000300B8AF800B0401C1DE0002A1BD0B2FBF8
:10107000F3FBD84603FB182BBBF10A0F02D25F46E5
:10108000303709E03700FFB2002F01D0412700E0E0
:10109000612717EB0B070A3F42468AF800701AF1E6
:1010A000010A401CE1E7BDE8F08F2DE9F54F91B052
:1010B0008B461F0000265FF00008002002900020F1
:1010C0008DF8040000200490DDF844A09AF8000098
:1010D0000500002D00F00D81252D07D001232800EB
:1010E0000200D2B202A91298B847FFE001208DF8A1
:1010F000050000208146002003900398002813D1AA
:101100001AF1010A9AF800000500302D07DB3A2D8C
:1011100005DA0A21B5F1300001FB0909EDE7BAF162
:10112000010A01200390E8E7062005901AF1010169
:1011300008782E2819D100200590002003900398EC
:10114000002813D1491C08780500302D09DB3A2D01
:1011500007DA059A0A23B5F1300003FB0202059273
:10116000EDE7491E01200390E9E7491E11F1010A4C
:101170009AF800000500642D11D0692D0FD0662D5E
:101180000DD0462D0BD0782D09D0582D07D06F2DBE
:1011900005D0622D03D0702D01D0752D72D1642D34
:1011A00001D0692D11D1DBF800001BF1040B069072
:1011B0009DF8050000900A23012206A908A8FFF760
:1011C00014FF804608A840440600582D01D0782D11
:1011D00016D1782D02D100208DF80500DBF8000033
:1011E0001BF1040B04909DF80500009010230022D1
:1011F00004A908A8FFF7F9FE804608A840440600A5
:101200006F2D05D0622D03D0702D01D0752D27D103
:10121000DBF800001BF1040B04906F2D03D10820B4
:101220008DF804000EE0622D03D102208DF8040039
:1012300008E0702D03D110208DF8040002E00A2090
:101240008DF804009DF8050000909DF80430002200
:1012500004A908A8FFF7C9FE804608A84044060074
:10126000B9EB0803202202A91298B847002E3DD0FE
:10127000307800283AD00123327802A91298B84772
:10128000761EF5E7632D0DD1DBF800001BF1040B92
:10129000C0B20790012307980200D2B202A91298A7
:1012A000B84723E0732D1AD1DBF800001BF1040BC3
:1012B0000400002C1AD0200000F0B4F88046B9EBEE
:1012C0000803202202A91298B847207800280DD0E0
:1012D0000123227802A91298B847641CF5E701237C
:1012E00028000200D2B202A91298B8471AF1010AE6
:1012F000ECE6029813B0BDE8F08FFEE7F8B584B0D5
:1013000004000D00002D06D18B2241494148FFF712
:101310004BFBAFF30080002C06D18C223C493E48A9
:10132000FFF742FBAFF300802E00270070680190AA
:10133000307A8DF80800707A8DF80900F07A8DF80F
:101340000A00307B8DF80B0030680090B07A8DF881
:101350000C006946380000F089F8002802D043F2FA
:10136000215000E0002005B0F0BDF8B506000D00EA
:101370001400002E07D140F20B1225492648FFF732
:1013800013FBAFF30080002D07D14FF48672204984
:101390002248FFF709FBAFF30080002C07D140F291
:1013A0000D121B491E48FFF7FFFAAFF3008037000C
:1013B00022002900380000F002F9F2BDF8B506005D
:1013C0000D001400002E07D140F2191210491248E6
:1013D000FFF7EAFAAFF30080002D07D14FF48D72CA
:1013E0000B490E48FFF7E0FAAFF30080002C07D15D
:1013F00040F21B1206490A48FFF7D6FAAFF3008005
:10140000370022002900380000F0A7F8F2BD0000E4
:10141000E81E0000F022000000230000A8230000C6
:10142000B023000000F10103810704D010F8011B74
:10143000820781B1FAD10268A2F10131914311F022
:10144000803104BF50F8042FF6E709BAB1FA81F1F0
:1014500000EBD100401CC01A7047FEE701000029D4
:1014600001D1002001E042F6AF7070477FB5040063
:101470000D00002C06D1DE2268496948FFF794FA76
:10148000AFF30080002D06D1DF2264496548FFF7E5
:101490008BFAAFF30080287B062806D3E0225F4951
:1014A0006148FFF781FAAFF300806048297B50F86C
:1014B0002100002806D1E12258495D48FFF774FA5F
:1014C000AFF30080684600F0E7F968680090287A7A
:1014D000012803D102208DF8040009E0287A0228AF
:1014E00003D103208DF8040002E000208DF80400F1
:1014F000687A012803D101208DF8050002E0002060
:101500008DF80500A87A002801D0012000E0002015
:101510008DF80C00E87A002801D0012000E00020BE
:101520008DF80B0000208DF8060001208DF80700D3
:101530002A6869463D482B7B50F8230000F0A3F849
:101540000600002E03D03000FFF788FF03E02100E3
:10155000287B0870002004B070BD2DE9F041060022
:101560000D001400002E07D140F23B122B492C48ED
:10157000FFF71AFAAFF30080002D07D14FF49E72E7
:1015800026492C48FFF710FAAFF30080002C07D152
:1015900040F23D1221492848FFF706FAAFF30080D8
:1015A00037002200290021483B7850F8230000F042
:1015B000B8F980464046FFF751FFBDE8F081F8B525
:1015C00006000D001400002E07D14FF4A872134935
:1015D0001348FFF7E9F9AFF30080002D07D140F27F
:1015E00051120E491348FFF7DFF9AFF30080002CCA
:1015F00007D14FF4A97209490F48FFF7D5F9AFF3A6
:10160000008037002200290008483B7850F823006A
:1016100000F07BF90020F2BD00000000A01F0000D8
:10162000B8230000C02300005C1E000070220000F0
:10163000F0200000C8230000D0230000DFF84C1386
:1016400011EB10410A68012383401A430A60704776
:1016500070B5040006260025B54207D2DFF8300336
:1016600050F82500A04201D06D1CF5E7B54208D323
:101670008D22DFF82013DFF82003FFF795F9AFF391
:101680000080280070BD2DE9F84F05000C00160001
:10169000002C08D1D422DFF8FC12DFF80003FFF79A
:1016A00083F9AFF300802068002808D1D522DFF845
:1016B000E412DFF8EC02FFF777F9AFF30080DFF810
:1016C000E402854201D1082019E0DFF8DC028542FE
:1016D00001D1082013E0DFF8D402854201D10120B6
:1016E0000DE0DFF8CC02854201D1012007E0DFF8F0
:1016F000C402854201D1012001E05FF0FF30A179F1
:10170000884208DAD722DFF88C12DFF8AC02FFF744
:101710004BF9AFF30080DFF88C02854201D108203D
:1017200019E0DFF88402854201D1082013E0DFF8D8
:101730007C02854201D101200DE0DFF87402854270
:1017400001D1012007E0DFF86C02854201D10120C0
:1017500001E05FF0FF30E179884208DAD822DFF853
:101760003412DFF85802FFF71FF9AFF300800021B1
:101770000027002022681201B6FBF2F8424692B21E
:10178000002A01D101218846002172002368B2FBA2
:10179000F3F91FFA88F8B9EB4819720043469BB277
:1017A0005B0113FA89F3B2FBF3FA2268524504D2C3
:1017B000D4F800B0BAEB0B0B03E0D4F800B0BBEBED
:1017C0000A0B20686421B0FBF1F103204143594525
:1017D00002D240F2F5305DE02800FFF739FFDFF874
:1017E000741251F82000FFF729FFE87810F0F30099
:1017F000E870297811F0E001404680B2000A014308
:10180000297085F80180A97A11F0E00119F01F0014
:101810000143A972A97811F0E801A07A800010F0C4
:10182000040001432079002803D02079014351F0BE
:101830001001A970287810F0DF006279520112F0CF
:10184000200210432870A079E874E0796875287C3C
:1018500050F088002874687C50F0C0006874207ACA
:10186000002803D0687B50F008006873607A002875
:1018700003D0687B50F001006873EA78E07A0028B2
:1018800001D052F00802207B002801D052F004025F
:10189000EA700020BDE8F28FF8B50400002C09D1F1
:1018A00040F28B12DFF8EC10DFF8F000FFF77CF865
:1018B000AFF30080102500262700320029003800F1
:1018C000FFF760FB5FF4E130206000202071002012
:1018D00060710020A0710120E071002020720020C2
:1018E00060720020A0720020E07200202073F1BD21
:1018F00001000879C0B24A7950EA02200A7B50EA16
:1019000002408A7C50EA0260704713005A1E002B86
:1019100006D003791B06FCD50B78C371491CF4E78C
:101920007047F8B505000C001700002C09D140F2F3
:10193000EE22DFF86010DFF84001FFF735F8AFF373
:1019400000803800471E00281ED0A87D002817D12F
:101950002800FFF7CDFF0600300702D540F2F13036
:1019600013E0700702D540F2F2300EE0B00702D566
:1019700040F2F33009E0F007E7D54FF47D7004E062
:10198000E8792070641CDCE70020F2BD00700440A0
:1019900040220000681F0000F021000078230000B2
:1019A0002822000000A0064000B0064000C006400B
:1019B00000D0064000A00E40A81A0000C81B00007E
:1019C00080B52E4801682F482D4A12689047BFF312
:1019D0004F8F01BD80B5FFF7F3FFBFF34F8F01BD00
:1019E00080B5264841682848254A12689047BFF3C9
:1019F0004F8F01BD80B5FFF7F3FFBFF34F8F01BDE0
:101A000080B51E48816821481D4A12689047BFF37F
:101A10004F8F01BD80B5FFF7F3FFBFF34F8F01BDBF
:101A200080B51648C1681A48154A12689047BFF336
:101A30004F8F01BD80B5FFF7F3FFBFF34F8F01BD9F
:101A400080B50E48016913480D4A12689047BFF3EC
:101A50004F8F01BD5822000080B5FFF7F1FFBFF3A3
:101A60004F8F01BD80B5054841690B48044A126893
:101A70009047BFF34F8F01BD802300003400FF1F4C
:101A80004C00FF1F00A0064000B0064000C006400A
:101A900000D0064000A00E4000B00E4080B5FFF719
:101AA000E1FFBFF34F8F01BD2828286261736529CC
:101AB000203D3D202828554152545F5479706520BF
:101AC0002A29283078343030364130303075292991
:101AD00029203F20283829203A20282828626173AD
:101AE0006529203D3D202828554152545F54797086
:101AF00065202A292830783430303642303030752D
:101B0000292929203F20283829203A2028282862FE
:101B100061736529203D3D202828554152545F546A
:101B2000797065202A2928307834303036433030B7
:101B30003075292929203F20283129203A202828BA
:101B4000286261736529203D3D2028285541525463
:101B50005F54797065202A29283078343030364433
:101B600030303075292929203F20283129203A207A
:101B70002828286261736529203D3D202828554189
:101B800052545F54797065202A29283078343030D7
:101B9000454130303075292929203F20283129201E
:101BA0003A20282D31292929292929203E3D206341
:101BB0006F6E6669672D3E74784669666F5761740B
:101BC00065726D61726B0000282828626173652957
:101BD000203D3D202828554152545F54797065209E
:101BE0002A29283078343030364130303075292970
:101BF00029203F20283829203A202828286261738C
:101C00006529203D3D202828554152545F54797064
:101C100065202A292830783430303642303030750B
:101C2000292929203F20283829203A2028282862DD
:101C300061736529203D3D202828554152545F5449
:101C4000797065202A292830783430303643303096
:101C50003075292929203F20283129203A20282899
:101C6000286261736529203D3D2028285541525442
:101C70005F54797065202A29283078343030364412
:101C800030303075292929203F20283129203A2059
:101C90002828286261736529203D3D202828554168
:101CA00052545F54797065202A29283078343030B6
:101CB000454130303075292929203F2028312920FD
:101CC0003A20282D31292929292929203E3D206320
:101CD0006F6E6669672D3E72784669666F576174EC
:101CE00065726D61726B00001D4911EB10410A684D
:101CF000012383401A430A60704710B450F8213022
:101D000033F4E0631400E4B2240214F4E0642343E7
:101D100040F8213010BC704780B51248FFF7E4FF4F
:101D20001148FFF7E1FF072202211048FFF7E5FF06
:101D30000F4801680F4801400D480160032210213F
:101D40000D48FFF7DAFF032211210B48FFF7D5FFFB
:101D50000A480068800880000849086001BD00004A
:101D600000700440090038100A0038100090044048
:101D700008900440BCFFFFFE00A004401080044017
:101D80005FF0927019490860704719490860704700
:101D90001849097811F0C701C20012F03802114346
:101DA000144A1170704780B5FFF7EAFF1248FEF73A
:101DB00031FD11480068FFF7E8FF1048C2780F486E
:101DC00081780E484078FEF793FC0C480079FFF7C5
:101DD000DFFF0B4A00210948C079FEF7B1FD094831
:101DE000FEF7E5FB08480949086001BD448004404E
:101DF0000C00FF1F0040064060230000102300007D
:101E00001823000058230000000E27070800FF1FBA
:101E1000433A5C4749545C4152474F535C4D4355EC
:101E2000585F53444B5C706C6174666F726D5C7587
:101E300074696C69746965735C64656275675F6316
:101E40006F6E736F6C655C66736C5F6465627567FB
:101E50005F636F6E736F6C652E630000636F6E66F9
:101E600069672D3E696E7374616E6365203C20283E
:101E700073697A656F6628735F5561727441646136
:101E8000707465724261736529202F2073697A65C9
:101E90006F6628554152545F54797065202A29296C
:101EA00000000000433A5C4749545C4152474F539D
:101EB0005C4D4355585F53444B5C636F6D706F6E60
:101EC000656E74735C73657269616C5F6D616E6180
:101ED0006765725C73657269616C5F6D616E616785
:101EE00065722E6300000000433A5C4749545C4130
:101EF00052474F535C4D4355585F53444B5C636F9F
:101F00006D706F6E656E74735C73657269616C5F22
:101F10006D616E616765725C73657269616C5F703B
:101F20006F72745F756172742E630000433A5C4790
:101F300049545C4152474F535C4D4355585F53449D
:101F40004B5C646576696365735C4D4B3634463132
:101F5000325C647269766572735C66736C5F636C25
:101F60006F636B2E63000000433A5C4749545C4149
:101F700052474F535C4D4355585F53444B5C706C14
:101F80006174666F726D5C647269766572735C759C
:101F90006172745C66736C5F756172742E630000AD
:101FA000433A5C4749545C4152474F535C4D43555B
:101FB000585F53444B5C636F6D706F6E656E7473E6
:101FC0005C756172745C756172745F616461707478
:101FD00065722E630000000080B50A48006850F466
:101FE0007000084908604CF22050074908804DF6FF
:101FF0002810054908804FF4E9700449088000F072
:1020000007F801BD88ED00E00E20054000200540E6
:10201000704730B4002512E050F8042BD30744BFBA
:102020004A44521E091F042942F8045BFAD213469F
:102030008C0744BF15809B1CC90748BF1D7050F812
:10204000041B0029E8D130BC7047FEE741535345DB
:102050005254204552524F52202220257320223ABA
:102060002066696C652022257322204C696E6520EC
:1020700022256422200A00006B5374617475735F1B
:1020800053657269616C4D616E616765725F53750E
:102090006363657373203D3D2073746174757300D1
:1020A00072B60548054901600A6882F30888044849
:1020B000804762B60348004708ED00E000000000DA
:1020C000D91F00000D22000010B5074979441831CE
:1020D000064C7C44163404E00A68081D1144884705
:1020E0000146A142F8D110BD500000007000000070
:1020F000735F55617274416461707465724261739B
:10210000655B636F6E6669672D3E696E7374616EA1
:1021100063655D004EF68851CEF20001086840F418
:1021200070000860BFF34F8FBFF36F8F4FF00070E8
:10213000E1EE100A70470000DBFEFFFF44000000E4
:102140000C00FF1F0000000013EEFFFF0C0000005A
:10215000FC0100000000FF1F00000000FEE700007F
:1021600010B500F00DF80548FEF70AFDFEF74AFD30
:1021700004002000C0B2FEF73FFDF7E7D0220000C8
:1021800080B5FFF7C9FDFFF70EFE00F001F801BDB5
:1021900010B5FEF701FA0400230001225FF4E131DB
:1021A0000020FEF778FC10BD00F00DF8002801D0EB
:1021B000FFF78AFFAFF300800020AFF30080FFF746
:1021C000CFFF00F002F80120704700F001B8FEE7F1
:1021D0000746384600F002F8FBE7FEE780B5AFF3AC
:1021E0000080024A11001820ABBEFBE72600020067
:1021F000696E7374616E6365203C20756172744111
:1022000072726179436F756E740000000548014673
:1022100003B4684680F30988AFF30080FFF77AFFC4
:10222000FFF7C2FFA5EDF5FE636F6E6669672D3E91
:1022300062617564526174655F42707300000000F2
:1022400000A0064000B0064000C0064000D0064096
:1022500000A00E4000B00E400A0034100B003410F5
:102260000C0034100D0034100A0028100B00281048
:1022700000A0064000B0064000C0064000D0064066
:1022800000A00E4000B00E40305520213D20675F79
:102290007874616C30467265710000003055202101
:1022A0003D20675F7874616C33324672657100005F
:1022B0008002DC020005B80580079508000A710B52
:1022C000000000000000000000000001010000000C
:1022D00068656C6C6F20776F726C642E0D0A00005D
:1022E00073657269616C48616E646C650000000022
:1022F00073657269616C436F6E6669670000000008
:1023000073657269616C48616E646C650000000001
:102310000702000000000000001318006D636770E2
:102320006C6C30636C6B00003020213D2073697A47
:1023300065000000777269746548616E646C6500C1
:102340007265616448616E646C6500000080000025
:1023500000093D00000040010102000000002401CE
:1023600080F0FA0200008000636F6E66696700000B
:102370003020213D20636800636F6E66696700004E
:102380006461746100000000627566666572000039
:102390006C656E677468000068616E646C6500004F
:1023A000636F6E666967000062756666657200003D
:1023B0006C656E677468000068616E646C6500002F
:1023C000636F6E66696700006461746100000000FD
:1023D0006C656E6774680000004800476125000066
:1023E00000480047612500000048004761250000C3
:1023F00000480047612500000048004761250000B3
:1024000000480047612500000048004761250000A2
:102410000048004761250000004800476125000092
:102420000048004761250000004800476125000082
:102430000048004761250000004800476125000072
:102440000048004761250000004800476125000062
:102450000048004761250000004800476125000052
:102460000048004761250000004800476125000042
:102470000048004761250000004800476125000032
:102480000048004761250000004800476125000022
:10249000004800476125000000480047D5190000AA
:1024A000004800476125000000480047F51900007A
:1024B000004800476125000000480047151A000049
:1024C000004800476125000000480047351A000019
:1024D00000480047612500000048004761250000D2
:1024E00000480047591A00000048004761250000D5
:1024F000004800479D1A0000004800476125000081
:1025000000480047612500000048004761250000A1
:102510000048004761250000004800476125000091
:102520000048004761250000004800476125000081
:102530000048004761250000004800476125000071
:102540000048004761250000004800476125000061
:102550000048004761250000004800476125000051
:0A256000FFF7FEBFFEE7FEE7FEE70F
:040000050000220DC8
:00000001FF
