:020000040000FA
:1000000000000320250400003D0400003F04000020
:10001000410400004304000045040000000000000B
:100020000000000000000000000000004704000085
:1000300049040000000000004B0400004D040000D3
:100040004F04000053040000570400005B0400004C
:100050005F04000063040000670400006B040000FC
:100060006F04000073040000770400007B040000AC
:100070007F04000083040000870400008B0400005C
:100080008F04000013050000130500001305000095
:100090001305000013050000130500001305000000
:1000A00093040000970400009B0400009F040000DC
:1000B000A3040000A7040000AB040000AF0400008C
:1000C000B3040000B7040000BB040000BF0400003C
:1000D000C3040000C7040000CB04000013050000A7
:1000E00013050000130500001305000013050000B0
:1000F00013050000130500001305000013050000A0
:10010000130500001305000013050000130500008F
:10011000130500001305000013050000130500007F
:10012000130500001305000013050000130500006F
:10013000130500001305000013050000130500005F
:1001400013050000CF040000D3040000D704000012
:10015000DB040000DF0400001305000013050000AD
:100160001305000013050000E3040000E70400008D
:10017000EB040000EF040000F3040000F7040000AB
:10018000FB040000FF040000030500000705000059
:100190000B0500000F05000013050000130500000B
:1001A00013050000130500001305000013050000EF
:1001B00013050000130500001305000013050000DF
:1001C00013050000130500001305000013050000CF
:1001D00013050000130500001305000013050000BF
:1003F000130500001305000013050000FFFFFFFFB9
:10040000FFFFFFFFFFFFFFFFFFFFFFFFFEFFFFFFFD
:10041000DFF80CD000F006F9004800472D2200005C
:100420000000032072B63C483C4901600A6882F330
:1004300008883B48804762B63A480047FEE7FEE737
:10044000FEE7FEE7FEE7FEE7FEE7FEE7FEE73648EB
:100450000047364800473648004736480047364888
:100460000047364800473648004736480047364878
:100470000047364800473648004736480047364868
:100480000047364800473648004736480047364858
:100490000047364800473648004736480047364848
:1004A0000047364800473648004736480047364838
:1004B0000047364800473648004736480047364828
:1004C0000047364800473648004736480047364818
:1004D0000047364800473648004736480047364808
:1004E00000473648004736480047354800473448FB
:1004F00000473348004732480047314800473148F9
:1005000000473148004731480047314800473148EB
:10051000004736480047000008ED00E000000000FA
:10052000651B000011040000130500001305000006
:10053000130500001305000013050000130500005B
:10054000130500001305000013050000130500004B
:10055000130500001305000013050000130500003B
:10056000130500001305000013050000130500002B
:10057000130500001305000013050000130500001B
:100580001305000013050000C51B00001305000043
:10059000091C0000130500004D1C0000130500009D
:1005A000911C00001305000013050000D51C00007D
:1005B00013050000191D00001305000013050000BD
:1005C00013050000130500001305000013050000CB
:1005D00013050000130500000000000000000000EB
:1005E00000000000000000000000000013050000F3
:1005F000D2B201E000F8012B491EFBD27047002265
:10060000F6E710B513460A4604461946FFF7F0FF11
:10061000204610BD421C10F8011B0029FBD1801A96
:1006200070470000064C074D06E0E06840F001030B
:1006300094E8070098471034AC42F6D3FFF7ECFE7D
:10064000DC230000FC23000010B500BF4FF09270C7
:100650001149486400BF114800F076FA0F49086854
:100660000F49086000BF0F4BDA789978587800F08E
:10067000BFFA0C49087900F0A1F80A49C87901F1DC
:100680000802002100F058F8074800F05BFB07481B
:100690000749086010BD0000008004406C22000083
:1006A000080000205822000064220000000E2707E6
:1006B0002400002010B500F0DFF804462346012294
:1006C0004FF4E131002000F0B3FB10BD10B500F095
:1006D00005F8FFF7B9FFFFF7EDFF10BD10B51148A2
:1006E00000F076F80F48401C00F072F80722022153
:1006F0000D4800F011FE0C4880680C4908400A497A
:100700008860032210210A4800F006FE032211210E
:10071000074800F001FE0748006920F00300054982
:10072000086110BD0900381000900440BCFFFFFEB6
:1007300000A004400080044070B506460D461446F3
:1007400004B105E040F649020CA119A001F03CFDFE
:10075000304600F02FFA2146284600F095FA164858
:10076000007820F0C0001449087000BF124880795A
:10077000C0F381000328F9D1002070BD2E2E2F2E4A
:100780002E2F2E2E2F2E2E2F2E2E2F646576696360
:1007900065732F4D4B36344631322F64726976655E
:1007A00072732F66736C5F636C6F636B2E630000F4
:1007B000636F6E6669670000004006400349097870
:1007C00060F3C501014A1170704700000040064007
:1007D000044A02EB10410A68012383401A430A606D
:1007E000704700000070044070B5044604B105E095
:1007F00040F2D73210A11DA001F0E6FC0025607880
:1008000000F01F0005431B480571A178407961F392
:1008100004001849487108460079217841F04001E8
:1008200008431449087100BF1248807900F0400065
:100830000028F9D070BD00002E2E2F2E2E2F2E2E28
:100840002F2E2E2F2E2E2F646576696365732F4D04
:100850004B36344631322F647269766572732F6677
:10086000736C5F636C6F636B2E630000636F6E6607
:10087000696700000040064010B500F0FFF8044929
:10088000496C012202EB1171B0FBF1F010BD0000C8
:10089000008004402DE9F04100F080F8044614B9CE
:1008A0002046BDE8F08116480078C0F3C205EC4050
:1008B00013484078C0F301171148007B00F003068D
:1008C00007B10EB1022E19D1082D14D2DFE805F0C0
:1008D0000405060708090B0F00BF00BF00BF00BFDB
:1008E00000BF640909E01420B4FBF0F405E00C201B
:1008F000B4FBF0F401E0002400BF00BF2046D0E7C5
:100900000040064070B51048407800F0020020B961
:100910000D48807900F0200008B1002070BD00F083
:1009200017F804460CB92046F8E70748C078C0F32A
:1009300041150548C078C609044800EB850030F829
:1009400016006043EAE7000000400640D0220000A5
:1009500010B505488079C0F3001010B9FFF79AFF71
:1009600010BD02480068FBE7004006400000002080
:100970000748807900F0010010B906480068704708
:100980000348007AC0F3420103480068C840F6E714
:1009900000400640000000200400002010B514486C
:1009A000007B00F0030020B101280ED002281AD1EC
:1009B00017E01048006800B104E0DA220EA11BA085
:1009C00001F002FC0B4804680FE01D48006800B10C
:1009D00004E0DF2208A11BA001F0F6FB1848046820
:1009E00003E01D4C01E0002400BF00BF204610BD05
:1009F00000400640080000202E2E2F2E2E2F2E2ED7
:100A00002F2E2E2F2E2E2F646576696365732F4D42
:100A10004B36344631322F647269766572732F66B5
:100A2000736C5F636C6F636B2E6300003055202125
:100A30003D20675F7874616C30467265710000001C
:100A40000C000020305520213D20675F7874616CD8
:100A50003332467265710000006CDC02014649F6D3
:100A60009702914201D8002005E0034A914201D843
:100A7000012000E00220704700127A0010B50D49F5
:100A80008979C1F3810444B1012C09D0022C0AD028
:100A9000032C0BD100F010F80AE0FFF733FF07E05A
:100AA000FFF766FF04E0FFF779FF01E0002000BFD9
:100AB00000BF10BD0040064010B51048807900F01E
:100AC000400008B9002010BD00F03AF8044604B117
:100AD00005E040F2DF220AA116A001F075FB0748ED
:100AE000007900F01F00401CB4FBF0F4034840798B
:100AF00000F01F00183044432046E4E70040064061
:100B00002E2E2F2E2E2F2E2E2F2E2E2F2E2E2F64CA
:100B10006576696365732F4D4B36344631322F64E9
:100B20007269766572732F66736C5F636C6F636B4B
:100B30002E6300006D6367706C6C30636C6B00003B
:100B400010B5FFF72BFF10BD70B504462068FFF706
:100B500085FF054615482279017821F00F011143E0
:100B6000017000BF1248407820F03C00302101EABB
:100B700005110843617908430D4948700B48017815
:100B800021F0A001A2791143017000BF607958B132
:100B90000648007800F0800030B100BF044880793A
:100BA00000F002000028F9D070BD0000005006409F
:100BB0000040064010B501460C48007B00F00300E1
:100BC000884201D0012200E000220848007B61F346
:100BD0000100064C20733AB140F2DC5300E000BF44
:100BE000181EA3F10103FAD1002010BD00400640F9
:100BF000F0B5034623488079C0F381042148807909
:100C000000F001051F48007AC0F34206B2421FD02F
:100C10001C48007800F0020008B9012C0ED1012D0B
:100C20000CD11848407820F00100164F787000BFB2
:100C30001448807900F001000028F9D11148007AA9
:100C400020F02F000E2707EA420738430D4F387275
:100C50000C48407861F300000A4F787038460078FD
:100C600020F0030018433870012C02D003F002007A
:100C700030B100BF0348807900F001008842F9D10B
:100C80000020F0BD0040064070B505460C4604B19A
:100C900005E04FF4E6621BA127A001F095FA284871
:100CA000407820F00200264948700846007820F07D
:100CB000C40040F08000087000BF2148807900F037
:100CC0001C000828F9D11E48407920F040001C493A
:100CD000487100BF1A48807900F020000028F9D13F
:100CE0002046FFF781FD1648407940F04000144946
:100CF000487100BF1248807900F020000028F9D028
:100D0000002070BD2E2E2F2E2E2F2E2E2F2E2E2F6A
:100D10002E2E2F646576696365732F4D4B363446EE
:100D200031322F647269766572732F66736C5F63FC
:100D30006C6F636B2E630000636F6E666967000003
:100D400000400640094A416851640178526861F3E5
:100D50001142064B5A6000BF4178054A126861F3A0
:100D60009342034B1A6000BF7047000000800440AC
:100D7000007004402DE9F04F07468C469146002054
:100D80003946834601F801BBB9F1000F1ED0DCF8EB
:100D9000004034B94FF0300B81F800B0401CBDE882
:100DA000F08F10E094FBF3F808FB1345002D05DAF3
:100DB0002A466FEA020B0BF1310500E0303544465C
:100DC00001F8015B401C002CECD125E0DCF8006050
:100DD0002EB94FF0300B81F800B0401CDFE719E06E
:100DE000B6FBF3FA0AFB13620A2A01D230320DE095
:100DF000A2F10A0BDDF824E0BEF1000F02D04FF0A3
:100E0000410E01E04FF0610E0BEB0E02564601F869
:100E1000012B401C002EE3D100BFC0E708B5002025
:100E20000090684600F0CEF89DF8000008BD000074
:100E30002DE9F04188B006460F461446984643F225
:100E400021552B4B0FCB8DE80F00CDF8008001977B
:100E50008DF80A608DF81840012C02D1CDF81CD015
:100E60000FE0022C03D1284608B0BDE8F081032C26
:100E700001D12846F8E7042C01D12846F4E728469A
:100E8000F2E71C211B48FFF7BAFB1A48014608612C
:100E9000086904A900F048FA054605B905E04FF4D1
:100EA0003372154915A001F08FF912490869143100
:100EB00000F0E0FA054605B905E040F2D6220E49F9
:100EC0000EA001F081F90B490869183100F084FA8D
:100ED000054605B905E040F2E122074907A001F007
:100EE00073F9044800690F4908600020BCE700005E
:100EF0002823000040000020502300006B53746141
:100F00007475735F53657269616C4D616E6167657D
:100F1000725F53756363657373203D3D2073746125
:100F200074757300180000202DE9F04105460C4649
:100F300016461F464FF0000800BF10E02068401C16
:100F4000802805D32846216800F066F8002020603C
:100F500020682E542068401C206008F10108B84524
:100F6000ECDBBDE8F08100000FB430B5A1B0002487
:100F7000002580216846FFF742FB0D48006820B934
:100F8000002021B030BC5DF814FB25A82090094B4F
:100F90006A462099249800F0CDFC04462146684614
:100FA00000F03AF80546002020902846E9E70000C6
:100FB00018000020290F000001B50121684600F04B
:100FC0002BF808BD70B5054605B105E040F2462294
:100FD000064907A001F0F8F8284600F00BF808B918
:100FE000012401E04FF0FF34204670BD5023000083
:100FF0006368000070B5044643F221550122214682
:10100000044800F0E3FA05460DB1012070BD002050
:10101000FCE700005800002070B504460D4643F27E
:10102000215604B105E040F2D1120C490CA001F0A8
:10103000CBF805B105E04FF4E97208490BA001F0C7
:10104000C3F82A4621460C4800F060FB06460EB95C
:10105000284670BD4FF0FF30FBE700005023000032
:101060004E554C4C20213D20636800003020213D2E
:101070002073697A6500000054000020014609B918
:101080000020704742F6AF70FBE700002DE9FF41FA
:1010900005460C4605B104E0DE2233A13EA001F076
:1010A00093F804B104E0DF222FA13DA001F08CF8F9
:1010B000207B062800D204E0E0222BA13A4801F070
:1010C00083F8207B394951F8200000B104E0E12287
:1010D00025A137A001F078F8684600F029FE606885
:1010E0000090207A012803D102208DF8040009E045
:1010F000207A022803D103208DF8040002E00020AA
:101100008DF80400607A012802D18DF8050002E014
:1011100000208DF80500A07A08B1012000E0002031
:101120008DF80C00E07A08B1012000E000208DF875
:101130000B0000208DF8060001208DF80700217BB0
:101140001A4B53F821006946226800F07BFE0646E0
:101150002EB13046FFF792FF04B0BDE8F0812F4674
:10116000207B38700020F7E72E2E2F2E2E2F2E2ECC
:101170002F2E2E2F2E2E2F636F6D706F6E656E7457
:10118000732F756172742F756172745F6164617021
:101190007465722E6300000068616E646C65000007
:1011A000636F6E66696700009423000038230000B7
:1011B000735F5561727441646170746572426173EA
:1011C000655B636F6E6669672D3E696E7374616EF1
:1011D00063655D002DE9F04104460D46164604B1F5
:1011E00005E040F23B1211A11CA000F0EDFF05B19B
:1011F00005E04FF49E720DA11AA000F0E5FF06B1C4
:1012000005E040F23D1209A118A000F0DDFF2746DD
:101210003978184A52F821003246294600F070FF0A
:1012200080464046FFF72AFFBDE8F0812E2E2F2E84
:101230002E2F2E2E2F2E2E2F2E2E2F636F6D706F92
:101240006E656E74732F756172742F756172745F41
:10125000616461707465722E6300000068616E6481
:101260006C65000064617461000000006C656E676D
:1012700074680000382300002DE9F04104460D4653
:10128000164604B105E04FF4A87210A11BA000F0AF
:101290009BFF05B105E040F251120CA119A000F02E
:1012A00093FF06B105E04FF4A97208A117A000F062
:1012B0008BFF27463978174A52F8210032462946D3
:1012C00000F072FF0020BDE8F08100002E2E2F2ECE
:1012D0002E2F2E2E2F2E2E2F2E2E2F636F6D706FF2
:1012E0006E656E74732F756172742F756172745FA1
:1012F000616461707465722E6300000068616E64E1
:101300006C65000064617461000000006C656E67CC
:10131000746800003823000050F8213062F30A237B
:1013200040F82130704700002DE9F04104460D4699
:1013300043F2215705B105E040F2293211A120A066
:1013400000F042FF04B105E040F22E320DA11EA0D4
:1013500000F03AFF2646002030607060B060F06018
:10136000287A3073287A012806D106F10800E96846
:1013700000F0D6F9074600E000BF00BF3846BDE8E0
:10138000F08100002E2E2F2E2E2F2E2E2F2E2E2FC0
:101390002E2E2F636F6D706F6E656E74732F736575
:1013A0007269616C5F6D616E616765722F736572E2
:1013B00069616C5F6D616E616765722E630000002C
:1013C000636F6E666967000073657269616C48617E
:1013D0006E646C65000000002DE9F04104460D4686
:1013E00004B105E040F20C420CA11BA000F0ECFEA1
:1013F00005B105E040F20D4208A11BA000F0E4FE9B
:1014000026462F46306818B143F22250BDE8F081DD
:101410000020286037603E6000BFF7E72E2E2F2E99
:101420002E2F2E2E2F2E2E2F2E2E2F636F6D706FA0
:101430006E656E74732F73657269616C5F6D616E3A
:10144000616765722F73657269616C5F6D616E6152
:101450006765722E6300000073657269616C486194
:101460006E646C65000000007265616448616E64C2
:101470006C6500002DE9F04104460D4604B105E01D
:1014800040F2DB320BA11AA000F09EFE05B105E090
:101490004FF4777207A11AA000F096FE26462F4659
:1014A000002028607068401C70603E600020BDE82D
:1014B000F08100002E2E2F2E2E2F2E2E2F2E2E2F8F
:1014C0002E2E2F636F6D706F6E656E74732F736544
:1014D0007269616C5F6D616E616765722F736572B1
:1014E00069616C5F6D616E616765722E63000000FB
:1014F00073657269616C48616E646C650000000020
:10150000777269746548616E646C65002DE9F0411D
:1015100004460D46164604B105E040F2173213A109
:1015200021A000F051FE05B105E04FF446720FA175
:1015300020A000F049FE06B105E040F219320BA1EF
:101540001EA000F041FEA046D8F8007007B105E0EB
:1015500040F21E3205A11BA000F036FE33462A469B
:101560004146384600F03CF8BDE8F0812E2E2F2E83
:101570002E2F2E2E2F2E2E2F2E2E2F636F6D706F4F
:101580006E656E74732F73657269616C5F6D616EE9
:10159000616765722F73657269616C5F6D616E6101
:1015A0006765722E630000007265616448616E6455
:1015B0006C65000062756666657200006C656E673A
:1015C0007468000068616E646C65000070B5044664
:1015D0000D461646324629462046FFF797FF70BD56
:1015E0002DE9F04104460D4616461F4643F22158A8
:1015F00075B1207B012807D13A46314604F1080035
:1016000000F0F0F8804602E043F2215800BF00BF2E
:101610004046BDE8F0812DE9F04104460D461646EE
:101620001F4643F2215875B1207B012807D13A4665
:10163000314604F1080000F029F9804602E043F247
:10164000215800BF00BF4046BDE8F0812DE9F041C0
:1016500004460D46164604B105E040F2063213A1D9
:1016600021A000F0B1FD05B105E040F207320FA165
:1016700020A000F0A9FD06B105E04FF442720BA1D5
:101680001EA000F0A1FDA046D8F8007007B105E04B
:1016900040F20D3205A11BA000F096FD33462A460C
:1016A00041463846FFF7B7FFBDE8F0812E2E2F2EBA
:1016B0002E2F2E2E2F2E2E2F2E2E2F636F6D706F0E
:1016C0006E656E74732F73657269616C5F6D616EA8
:1016D000616765722F73657269616C5F6D616E61C0
:1016E0006765722E63000000777269746548616EE9
:1016F000646C650062756666657200006C656E6795
:101700007468000068616E646C65000070B5044622
:101710000D461646324629462046FFF797FF70BD14
:101720002DE9FF4106460C4604B104E08B2216A1C8
:1017300024A000F049FD06B104E08C2212A125A0EE
:1017400000F042FD2546374668680190287A8DF8FA
:101750000800687A8DF80900E87A8DF80A00287B7D
:101760008DF80B0028680090A87A8DF80C00694667
:101770003846FFF78BFC20B143F2215004B0BDE89E
:10178000F0810020FAE700002E2E2F2E2E2F2E2E75
:101790002F2E2E2F2E2E2F636F6D706F6E656E7431
:1017A000732F73657269616C5F6D616E61676572DD
:1017B0002F73657269616C5F706F72745F756172AF
:1017C000742E630073657269616C436F6E6669673E
:1017D0000000000073657269616C48616E646C653D
:1017E000000000002DE9F04104460D46164604B104
:1017F00005E040F219120EA11CA000F0E5FC05B1B5
:1018000005E04FF48D720AA11CA000F0DDFC06B1CA
:1018100005E040F21B1206A11AA000F0D5FC2746F5
:10182000324629463846FFF7D5FCBDE8F081000076
:101830002E2E2F2E2E2F2E2E2F2E2E2F2E2E2F638E
:101840006F6D706F6E656E74732F73657269616C06
:101850005F6D616E616765722F73657269616C5F40
:10186000706F72745F756172742E63007365726954
:10187000616C48616E646C650000000062756666AC
:10188000657200006C656E67746800002DE9F041B8
:1018900004460D46164604B105E040F20B120EA1B7
:1018A0001CA000F091FC05B105E04FF486720AA17E
:1018B0001CA000F089FC06B105E040F20D1206A163
:1018C0001AA000F081FC2746324629463846FFF729
:1018D000D3FCBDE8F08100002E2E2F2E2E2F2E2EB1
:1018E0002F2E2E2F2E2E2F636F6D706F6E656E74E0
:1018F000732F73657269616C5F6D616E616765728C
:101900002F73657269616C5F706F72745F7561725D
:10191000742E630073657269616C48616E646C65F6
:101920000000000062756666657200006C656E6797
:10193000746800002DE9FF4F91B01E464FF000097A
:1019400000270020069003900190119D01E1252CB5
:1019500005D0E2B2012306A91398B047F8E00120B0
:1019600004904FF0000A0020079010E0681C054624
:101970000478302C08DB392C06DCA4F130000AEBAB
:101980008A0100EB410A02E06D1E012007900798D2
:101990000028EBD006200590681C054600782E280C
:1019A0001AD100200590079012E0681C05460478C3
:1019B000302C0ADB392C08DCA4F13000059901EB4E
:1019C000810100EB4100059002E06D1E01200790AF
:1019D00007980028E9D000E06D1E681C05460478D1
:1019E000642C11D0692C0FD0662C0DD0462C0BD056
:1019F000782C09D0582C07D06F2C05D0622C03D03E
:101A0000702C01D0752C70D1642C01D0692C11D1AF
:101A10001298006802901298001D129004980A23F0
:101A2000012202A9009008A8FFF7A4F9074608A818
:101A300000EB0709582C01D0782C15D1782C01D156
:101A4000002004901298006801901298001D1290D6
:101A500004981023002201A9009008A8FFF78AF932
:101A6000074608A800EB07096F2C05D0622C03D0AD
:101A7000702C01D0752C22D1129800680190129818
:101A8000001D12906F2C02D1082003900BE0622CF5
:101A900002D10220039006E0702C02D110200390A6
:101AA00001E00A20039004980090002201A908A8F0
:101AB000039BFFF75FF9074608A800EB0709AAEBAD
:101AC0000703202206A91398B047B9F1000F3ED0B2
:101AD00005E019F80129012306A91398B04799F8E0
:101AE00000000028F5D132E0FFE7632C0BD11298FB
:101AF00010F8041B01F0FF0B12905A46012306A9AF
:101B00001398B04723E0732C1CD1129850F8048B23
:101B10001290B8F1000F1AD04046FEF77BFD074641
:101B2000AAEB0703202206A91398B04705E018F88E
:101B3000012B012306A91398B04798F8000000284C
:101B4000F5D104E0E2B2012306A91398B04700BF23
:101B50006D1C2878041E7FF4FAAE069815B0BDE817
:101B6000F08F000010B50948006840F47000074984
:101B700008604CF220500649C8814DF62810C881F3
:101B80004FF4E970088000F005F810BD88ED00E022
:101B9000002005407047000010B50748016807485D
:101BA000074A1268904700BF00BF00BFBFF34F8FC6
:101BB00000BF00BF00BF10BD2800002000A00640ED
:101BC0001000002010B5FFF7E7FF00BF00BF00BF07
:101BD000BFF34F8F00BF00BF00BF10BD10B5074857
:101BE00041680748074A1268904700BF00BF00BF1E
:101BF000BFF34F8F00BF00BF00BF10BD2800002003
:101C000000B006401000002010B5FFF7E7FF00BF4E
:101C100000BF00BFBFF34F8F00BF00BF00BF10BDAC
:101C200010B5074881680748074A1268904700BF07
:101C300000BF00BFBFF34F8F00BF00BF00BF10BD8C
:101C40002800002000C006401000002010B5FFF75B
:101C5000E7FF00BF00BF00BFBFF34F8F00BF00BF53
:101C600000BF10BD10B50748C1680748074A126891
:101C7000904700BF00BF00BFBFF34F8F00BF00BF42
:101C800000BF10BD2800002000D00640100000203A
:101C900010B5FFF7E7FF00BF00BF00BFBFF34F8FD6
:101CA00000BF00BF00BF10BD10B50748016907485D
:101CB000074A1268904700BF00BF00BFBFF34F8FB5
:101CC00000BF00BF00BF10BD2800002000A00E40D4
:101CD0001000002010B5FFF7E7FF00BF00BF00BFF6
:101CE000BFF34F8F00BF00BF00BF10BD10B5074846
:101CF00041690748074A1268904700BF00BF00BF0C
:101D0000BFF34F8F00BF00BF00BF10BD28000020F1
:101D100000B00E401000002010B5FFF7E7FF00BF35
:101D200000BF00BFBFF34F8F00BF00BF00BF10BD9B
:101D300010B5044604B105E040F28B120CA118A0C6
:101D400000F042FA002020606060A060E0604FF484
:101D5000E1302060002020716071A0710120E071ED
:101D6000002020726072A072E072207310BD00002B
:101D70002E2E2F2E2E2F2E2E2F2E2E2F2E2E2F703C
:101D80006C6174666F726D2F647269766572732F01
:101D9000756172742F66736C5F756172742E630067
:101DA000636F6E666967000070B5054606260024FD
:101DB00006E00A4850F82400A84200D102E0641C62
:101DC000B442F6D300BFB44200D204E08D2204A195
:101DD0000FA000F0F9F9204670BD0000F0220000CD
:101DE0002E2E2F2E2E2F2E2E2F2E2E2F2E2E2F70CC
:101DF0006C6174666F726D2F647269766572732F91
:101E0000756172742F66736C5F756172742E6300F6
:101E1000696E7374616E6365203C207561727441F4
:101E200072726179436F756E7400000001460A7921
:101E30004B7942EA03200A7B40EA02408A7C40EA6E
:101E4000026070472DE9F84F04460D46904605B1F3
:101E500004E0D4226FA17BA000F0B6F9286800B19D
:101E600004E0D5226BA179A000F0AEF97D48844250
:101E700001D1082015E07C48844201D1082010E0FF
:101E80007A48844201D101200BE07948844201D193
:101E9000012006E07748844201D1012001E04FF0A3
:101EA000FF30A979884200DB04E0D72259A172A053
:101EB00000F08AF96B48844201D1082015E06A4895
:101EC000844201D1082010E06848844201D10120F9
:101ED0000BE06748844201D1012006E06548844256
:101EE00001D1012001E04FF0FF30E979884200DBA9
:101EF00004E0D82247A170A000F066F90027002670
:101F00000020009028680001B8FBF0F087B207B904
:101F100001274FF000094FEA48002968B0FBF1F0B3
:101F2000202101FB17001FFA80FA4FEA48000AEB54
:101F30004711B0FBF1F92868484503D22868A9EB9E
:101F4000000002E02868A0EB0900009064212868E6
:101F5000B0FBF1F000EB40010098814203D240F267
:101F6000F530BDE8F88F2046FFF71EFF624951F8B3
:101F700020B0624901EB1B400168012202FA0BF21A
:101F80001143016000BFE07820F00C00E070207881
:101F900020F01F0040EA272020706770A07A6AF3C3
:101FA0000400A072A07820F01706A87A042101EAA4
:101FB00080000643287918B1287940F010000643C4
:101FC000A6706979207861F345102070A879E074D3
:101FD000E8796075207C40F088002074607C40F0D7
:101FE000C0006074287A18B1607B40F0080060730C
:101FF000687A18B1607B40F001006073E678E87A97
:1020000008B146F00806287B08B146F00406E670E1
:102010000020A6E72E2E2F2E2E2F2E2E2F2E2E2FE7
:102020002E2E2F706C6174666F726D2F64726976DC
:102030006572732F756172742F66736C5F75617250
:10204000742E6300636F6E6669670000636F6E666F
:1020500069672D3E62617564526174655F42707399
:102060000000000000A0064000B0064000C006408E
:1020700000D0064000A00E4046534C5F46454154F8
:102080005552455F554152545F4649464F5F53494B
:102090005A456E286261736529203E3D20636F6E4C
:1020A0006669672D3E74784669666F57617465721C
:1020B0006D61726B0000000046534C5F4645415411
:1020C0005552455F554152545F4649464F5F53490B
:1020D0005A456E286261736529203E3D20636F6E0C
:1020E0006669672D3E72784669666F5761746572DE
:1020F0006D61726B0000000010230000007004404E
:102100002DE9F04106460D46174605B105E040F2BF
:10211000EE2217A122A000F057F823E01CE0304681
:10212000FFF784FE044604F0080018B140F2F130D5
:10213000BDE8F08104F0040010B140F2F230F7E79E
:1021400004F0020010B140F2F330F1E704F00100B6
:1021500010B14FF47D70EBE7B07D0028DFD0F0794F
:1021600005F8010B381EA7F10107D7D100BFDFE743
:102170002E2E2F2E2E2F2E2E2F2E2E2F2E2E2F7038
:102180006C6174666F726D2F647269766572732FFD
:10219000756172742F66736C5F756172742E630063
:1021A000646174610000000010B508E000BF0379AD
:1021B00003F08003002BFAD011F8013BC371131E0A
:1021C000A2F10102F2D110BD04460D461646334677
:1021D0002A46214602A0FEF7C7FE00BF00BEFDE76B
:1021E000415353455254204552524F5220222025EC
:1021F0007320223A2066696C652022257322204CC8
:10220000696E652022256422200A000002E008C8C9
:10221000121F08C1002AFAD170477047002001E060
:1022200001C1121F002AFBD170470000FEF74EFAD1
:1022300005A0FEF799FE05E0FEF7F0FDC4B22046CA
:10224000FEF7BAFEF8E7000068656C6C6F20776FE8
:10225000726C642E0D0A00000702000000000000EE
:1022600000131800010200000000240180F0FA02AF
:1022700000008000020201000000000000000000D9
:102280000302000000000400000000000000000045
:102290000001010304040404000102030404040413
:1022A0000101020101010101000101030404040410
:1022B00000010103040506060404040404050606DF
:1022C00004040404040506070606060606060606B8
:1022D0008002DC020005B80580079508000A710B32
:1022E000127A000097980000C0C62D00404B4C00A9
:1022F00000A0064000B0064000C0064000D00640E6
:1023000000A00E4000B00E401F21232542440000D3
:102310000A0034100B0034100C0034100D0034107F
:102320000A0028100B002810000000000000000028
:10233000000000010100000000A0064000B00640BF
:1023400000C0064000D0064000A00E4000B00E4085
:102350002E2E2F2E2E2F2E2E2F2E2E2F2E2E2F7056
:102360006C6174666F726D2F7574696C69746965E0
:10237000732F64656275675F636F6E736F6C652F33
:1023800066736C5F64656275675F636F6E736F6CB5
:10239000652E6300636F6E6669672D3E696E7374A8
:1023A000616E6365203C202873697A656F662873C7
:1023B0005F556172744164617074657242617365E6
:1023C00029202F2073697A656F6628554152545F22
:1023D00054797065202A292900000000FC230000A0
:1023E00000000020280000000C220000242400002F
:1023F00028000020340000001C22000000800000A3
:1024000000093D0000000000000000000000000086
:1024100000000000000000000000000000000000BC
:042420000000400177
:0400000500000411E2
:00000001FF
