S02B000065766B6D696D787274313137305F696C65645F626C696E6B795F636D375F696E745F52414D2E73311E
S113300000000400E13400002D3500000F6F0000C3
S11330103135000033350000353500000000000074
S11330200000000000000000000000003735000030
S113303039350000000000003B350000A9380000CD
S11330403F680000476800004F68000057680000B0
S11330505F680000676800006F6800007768000020
S11330607F680000876800008F6800009768000090
S11330709F680000A7680000AF680000B768000000
S1133080BF680000C7680000CF680000D768000070
S1133090DF680000E7680000EF680000F7680000E0
S11330A0FF680000076900000F690000176900004D
S11330B01F690000276900002F69000037690000BC
S11330C03F690000476900004F690000576900002C
S11330D05F690000676900006F690000776900009C
S11330E07F690000876900008F690000976900000C
S11330F09F690000A7690000AF690000B76900007C
S1133100BF690000C7690000CF690000D7690000EB
S1133110DF690000E7690000EF690000F76900005B
S1133120FF690000076A00000F6A0000176A0000C8
S11331301F6A0000276A00002F6A0000376A000037
S11331403F6A0000476A00004F6A0000576A0000A7
S11331505F6A0000676A00006F6A0000776A000017
S11331607F6A0000876A00008F6A0000976A000087
S11331709F6A0000A76A0000AF6A0000B76A0000F7
S1133180BF6A0000C76A0000CF6A0000D76A000067
S1133190DF6A0000E76A0000EF6A0000F76A0000D7
S11331A0FF6A0000076B00000F6B0000176B000044
S11331B01F6B0000276B00002F6B0000376B0000B3
S11331C03F6B0000476B00004F6B0000576B000023
S11331D05F6B0000676B00006F6B0000776B000093
S11331E07F6B0000876B00008F6B0000976B000003
S11331F09F6B0000A76B0000AF6B0000B76B000073
S1133200BF6B0000C76B0000CF6B0000D76B0000E2
S1133210DF6B0000E76B0000EF6B0000F76B000052
S1133220FF6B0000076C00000F6C0000176C0000BF
S11332301F6C0000276C00002F6C0000376C00002E
S11332403F6C0000476C00004F6C0000576C00009E
S11332505F6C0000676C00006F6C0000776C00000E
S11332607F6C0000876C00008F6C0000976C00007E
S11332709F6C0000A76C0000AF6C0000B76C0000EE
S1133280BF6C0000C76C0000CF6C0000D76C00005E
S1133290DF6C0000E76C0000EF6C0000F76C0000CE
S11332A0FF6C0000076D00000F6D0000176D00003B
S11332B01F6D0000276D00002F6D0000376D0000AA
S11332C03F6D0000476D00004F6D0000576D00001A
S11332D05F6D0000676D00006F6D0000776D00008A
S11332E07F6D0000876D00008F6D0000976D0000FA
S11332F09F6D0000A76D0000AF6D0000B76D00006A
S1133300BF6D0000C76D0000CF6D0000D76D0000D9
S1133310DF6D0000E76D0000EF6D0000F76D000049
S1133320FF6D0000076E00000F6E0000176E0000B6
S11333301F6E0000276E00002F6E0000376E000025
S11333403F6E0000476E00004F6E0000576E000095
S11333505F6E0000676E00006F6E0000776E000005
S11333607F6E0000876E00008F6E0000976E000075
S11333709F6E0000A76E0000AF6E0000B76E0000E5
S1133380BF6E0000C76E0000CF6E0000D76E000055
S1133390DF6E0000E76E0000EF6E0000F76E0000C5
S11333A0FF6E0000076F0000688800006888000056
S11333B004000000688800000000002000000000F5
S11333C068880000000024200000000068880000D5
S11333D000002C2000000000688800000000342059
S11333E00000000068880000000035200000000094
S11333F06888000000000080000000006888000069
S113340000000083000000006C8800001801000028
S11334100000002000000000000024200000000044
S113342000002C20000000000000342000000000F8
S113343000003520000000000000008000000000B3
S1133440000000830000000030B40B4600249442C6
S113345005D250F8045B43F8045B0434F7E70C4BE3
S11334605B6913F4803F11D0002A0FDD01F01F03C4
S11334701A44BFF34F8F064BC3F868122031203A29
S1133480002AF8DCBFF34F8FBFF36F8F30BC704757
S113349000ED00E010B4034600228A4204D2002466
S11334A043F8044B0432F8E70C4B5B6913F4803F98
S11334B011D000290FDD00F01F031944BFF34F8F13
S11334C0064BC3F86802203020390029F8DCBFF32A
S11334D04F8FBFF36F8F5DF8044B704700ED00E032
S11334E010B572B602F000F90D4B07E003F10C04BD
S11334F09A6859681868FFF7A7FF2346094A934258
S1133500F4D306E01C46596854F8080BFFF7C2FFD1
S11335102346054A9342F5D362B603F069FFFEE7FA
S1133520A83300000834000048340000FEE7FEE73A
S1133530FEE7FEE7FEE7FEE7FEE7FEE7FEE7FEE75F
S113354080B58AB000AF0346FB7100237B6297F914
S11335500730042B06D097F90730052B02D03248E8
S113356000F064F897F90730042B01D1022300E03E
S113357003230021184603F0F2FC38623B6A5B0E19
S113358003F00703FB613B6A03F07F033B6297F997
S11335900730042B01D1022300E003233021184615
S11335A003F0DDFC07EE900AB8EE677B87ED047B41
S11335B097F90730042B01D1022300E003232021D3
S11335C0184603F0CCFC07EE900AB8EE677B87ED53
S11335D0027B3B6A07EE903AB8EE676B97ED024BBD
S11335E097ED045B84EE057B36EE077B9FED0C6B59
S11335F027EE065B0122FB6902FA03F307EE903A19
S1133600B8EEE76B85EE067BFCEEC77B17EE903ACF
S11336107B627B6A18462837BD4680BDAFF30080C5
S11336200000000060E37641007D000080B582B0B8
S113363000AF78607968024800F0AEF800BEFDE79C
S11336406C78000080B584B000AF786039607B6826
S1133650002BFCD03B68002BFCD00C4B1B68002BD0
S113366001D100230DE03A687968094803F008FEA7
S11336700346FB81FB89002B01D13B6801E04FF03D
S1133680FF3318461037BD4680BD00BF8888000050
S11336908088000080B58EB000AFB9607B600346BF
S11336A0FB731346BB730023FB867B687B61BB689B
S11336B0BB6100233B7700237B770123BB77012386
S11336C0FB77FB7B87F82030BB7B87F82C3048F6F0
S11336D04173FB85BB7B012B03D107F114033B63CF
S11336E017E0BB7B022B03D143F22153FB8610E08E
S11336F0BB7B032B03D143F22153FB8609E0BB7B45
S1133700042B03D143F22153FB8602E043F22153FD
S1133710FB86FB8E43F2215293422ED01C220021C1
S1133720184803F06EFE174B174A1A60154B1B68B6
S113373007F124021146184603F01AFD0346FB86DE
S1133740FB8E002BFCD10F4B1B681049184603F06D
S11337503FFD0346FB86FB8E002BFCD1094B1B6807
S11337600B49184603F05CFD0346FB86FB8E002BD9
S1133770FCD1044B1B68074A1360FB8E184638378C
S1133780BD4680BD6C880000708800008088000001
S113379084880000888800000FB480B5A4B000AF0E
S11337A00023C7F888300023C7F88C3000237B60DF
S11337B007F108037C220021184603F022FE124B75
S11337C01B68002B16D007F19C03C7F884303A1D00
S11337D00E4BD7F88410D7F8980002F0E8FEC7F82B
S11337E08800D7F888203B1D11461846FFF72AFFAA
S11337F0C7F88C00D7F88C3018469037BD46BDE822
S1133800804004B0704700BF8888000081610000D8
S113381080B483B000AF03463960FB80B7F906304B
S1133820002B0ADB3B68DAB20C49B7F90630120107
S1133830D2B20B4483F800230AE03B68DAB20849A9
S1133840FB8803F00F03043B1201D2B20B441A7637
S113385000BF0C37BD465DF8047B704700E100E013
S113386000ED00E080B582B000AF78607B68013B7A
S1133870B3F1807F01D301230FE00A4A7B68013B47
S113388053600F214FF0FF30FFF7C2FF054B0022BA
S11338909A60044B07221A60002318460837BD4675
S11338A080BD00BF10E000E080B400AF064B1B6891
S11338B0002B04D0044B1B68013B034A136000BF78
S11338C0BD465DF8047B70478C88000080B483B0EB
S11338D000AF7860074A7B68136000BF054B1B6824
S11338E0002BFBD100BF00BF0C37BD465DF8047B45
S11338F0704700BF8C88000080B500AF02F0E4FA86
S113390002F0BEF903F00FFD03F0B1FB134B1B688B
S1133910134AA2FB03239B091846FFF7A3FF0346A0
S1133920002B00D0FEE74FF47A70FFF7CFFF0D4B6A
S11339301B78DBB2002B08D0002203210A4801F0D7
S113394093F9084B00221A70EDE70122032106487F
S113395001F08AF9034B01221A70E4E76888000039
S1133960D34D6210808900000040C64080B582B00B
S113397000AF0021002003F0F2FA78607B6840F287
S11339800512934222D040F205120021002003F0D8
S1133990D4FA0021002003F0E2FA0E4B4FF48072B7
S11339A0C3F880250B4BD3F820380A4A23F480331C
S11339B0C2F820380849012001F064F8054BD3F817
S11339C07035044A43F01003C2F8703500BF08375D
S11339D0BD4680BD0040C84000CA9A3B80B586B051
S11339E000AF3B600346FB710B46BB7113467B7112
S11339F0FB79062B00F2008301A252F823F000BFEA
S1133A001D3A0000C93A0000B53B0000B53C000077
S1133A10B13D00009D3E00004D3F0000BB79002BEE
S1133A2024D0A34BD3F82038A14A23F48033C2F81E
S1133A3020389F4BD3F820387B617B6923F0FF0348
S1133A407B617B797A6913437B61994A7B69C2F80C
S1133A502038974A3B68C2F83038954BD3F8003584
S1133A60934A83F48033C2F80035C8E2904BD3F80C
S1133A7020387B617B6923F480337B617B6943F469
S1133A8080337B618A4A7B69C2F82038884BD3F83B
S1133A9020387B617B6923F0FF037B617B797A6942
S1133AA013437B61824A7B69C2F82038804BD3F888
S1133AB000357F4A83F48033C2F800357C4BD3F859
S1133AC040383B613B699BE2BB79002B34D0784B97
S1133AD0D3F8503803F40073FB60754BD3F85038B7
S1133AE0734A23F48033C2F85038714BD3F85038FA
S1133AF07B617B6923F0FF037B617B797A691343E4
S1133B007B616B4A7B69C2F85038694A3B68C2F8EA
S1133B106038674BD3F85038654A83F48073C2F831
S1133B205038634BD3F8503803F40073BB60BA6861
S1133B30FB689A42F5D062E25D4BD3F8503803F447
S1133B400073FB605A4BD3F850387B617B6923F4D4
S1133B5080337B617B6943F480337B61544A7B69A6
S1133B60C2F85038524BD3F850387B617B6923F04C
S1133B70FF037B617B797A6913437B614C4A7B69E0
S1133B80C2F850384A4BD3F85038494A83F480730A
S1133B90C2F85038464BD3F8503803F40073BB6076
S1133BA0BA68FB689A42F5D0414BD3F870383B6150
S1133BB03B6925E2BB79002B3CD03D4BD3F88038E0
S1133BC003F40073FB603A4BD3F88038384A23F48B
S1133BD08033C2F88038364BD3F880387B617B69F8
S1133BE023F0FF037B617B797A6913437B61304A5D
S1133BF07B69C2F880382E4A3B68C2F890382C4B57
S1133C00D3F880382A4A83F48073C2F88038284B6A
S1133C10D3F8803803F40073BB60BA68FB689A4237
S1133C20F5D0234BD3F88038214A23F48033C2F8EB
S1133C308038E4E11E4BD3F8803803F40073FB6052
S1133C401B4BD3F880387B617B6923F480337B6121
S1133C507B6943F480337B61154A7B69C2F8803801
S1133C60134BD3F880387B617B6923F0FF037B61BE
S1133C707B797A6913437B610D4A7B69C2F880388A
S1133C800B4BD3F880380A4A83F48073C2F8803827
S1133C90074BD3F8803803F40073BB60BA68FB6841
S1133CA09A42F5D0024BD3F8A0383B613B69A7E1B7
S1133CB00040C840BB79002B3CD0A34BD3F8B038AC
S1133CC003F40073FB60A04BD3F8B0389E4A23F48E
S1133CD08033C2F8B0389C4BD3F8B0387B617B6931
S1133CE023F0FF037B617B797A6913437B61964AF6
S1133CF07B69C2F8B038944A3B68C2F8C038924B2A
S1133D00D3F8B038904A83F48073C2F8B0388E4B3D
S1133D10D3F8B03803F40073BB60BA68FB689A4206
S1133D20F5D0894BD3F8B038874A23F48033C2F8EE
S1133D30B03864E1844BD3F8B03803F40073FB600B
S1133D40814BD3F8B0387B617B6923F480337B618A
S1133D507B6943F480337B617B4A7B69C2F8B0386A
S1133D60794BD3F8B0387B617B6923F0FF037B6127
S1133D707B797A6913437B61734A7B69C2F8B038F3
S1133D80714BD3F8B038704A83F48073C2F8B038FA
S1133D906D4BD3F8B03803F40073BB60BA68FB68AA
S1133DA09A42F5D0684BD3F8D0383B613B6927E1A0
S1133DB0BB79002B34D0644BD3F8203903F400735F
S1133DC0FB60614BD3F820395F4A23F48033C2F897
S1133DD020395D4BD3F820397B617B6923F0FF03E5
S1133DE07B617B797A6913437B61574A7B69C2F8AB
S1133DF02039554A3B68C2F83039534BD3F820393F
S1133E00514A83F48073C2F820394F4BD3F82039D8
S1133E1003F40073BB60BA68FB689A42F5D0EEE025
S1133E20494BD3F8203903F40073FB60464BD3F8B5
S1133E3020397B617B6923F480337B617B6943F4A4
S1133E4080337B61404A7B69C2F820393E4BD3F80A
S1133E5020397B617B6923F0FF037B617B797A697D
S1133E6013437B61384A7B69C2F82039364BD3F857
S1133E702039354A83F48073C2F82039324BD3F8A1
S1133E80203903F40073BB60BA68FB689A42F5D02A
S1133E902D4BD3F840393B613B69B1E0BB79002B32
S1133EA024D0294BD3F8E038274A23F48033C2F8CE
S1133EB0E038254BD3F8E0387B617B6923F0FF03BE
S1133EC07B617B797A6913437B611F4A7B69C2F802
S1133ED0E0381D4A3B68C2F8F0381B4BD3F8003475
S1133EE0194A83F40043C2F8003488E0164BD3F82F
S1133EF0E0387B617B6923F480337B617B6943F425
S1133F0080337B61104A7B69C2F8E0380E4BD3F8EA
S1133F10E0387B617B6923F0FF037B617B797A69FD
S1133F2013437B61084A7B69C2F8E038064BD3F837
S1133F300034054A83F40043C2F80034024BD3F83A
S1133F4010393B613B695BE00040C840BB79002B02
S1133F5024D02D4BD3F8E0382B4A23F48033C2F815
S1133F60E038294BD3F8E0387B617B6923F0FF0309
S1133F707B617B797A6913437B61234A7B69C2F84D
S1133F80E038214A3B68C2F8F0381F4BD3F870354B
S1133F901D4A83F00103C2F8703530E01A4BD3F8A0
S1133FA0E0387B617B6923F480337B617B6943F474
S1133FB080337B61144A7B69C2F8E038124BD3F832
S1133FC0E0387B617B6923F0FF037B617B797A694D
S1133FD013437B610C4A7B69C2F8E0380A4BD3F87F
S1133FE07035094A83F00103C2F87035064BD3F8E3
S1133FF000393B613B6903E00448FFF717FB0023EA
S113400018461837BD4680BD0040C840807800007F
S113401080B483B000AF0346FB71074AFB79DB0130
S113402013441B681B0A03F0070318460C37BD46EC
S11340305DF8047B704700BF0000CC4080B483B0BF
S113404000AF0346FB71064AFB79DB0113441B688E
S1134050DBB2013318460C37BD465DF8047B70476C
S11340600000CC4090B5ADF5237D00AF0246FB1DAA
S11340701A7007F108031A4A184611464FF41E73C2
S11340801A4603F0BCF9FB1D1B781846FFF7C0FF66
S1134090C7F88402FB1D1B7807F10802DB001A44F1
S11340A0D7F8843213441B78184600F003FC044606
S11340B0FB1D1B781846FFF7C1FF0346B4FBF3F35F
S11340C0C7F88032D7F88032002B02D10548FFF7B9
S11340D0ADFAD7F88032184607F52377BD4690BD70
S11340E0BC780000A078000080B584B000AF786090
S11340F07B685B68D02B03D87B685B68672B02D82E
S11341004848FFF793FA484BD3F8003203F40053BE
S1134110002B34D0444BD3F80032DA437B685B681D
S11341201340DBB2002B2AD13F4BD3F80032DA43E1
S11341307B681B78DB03134003F4C033002B1ED1D0
S1134140394BD3F8003203F48043002B07D1364BAC
S1134150D3F80032344A43F48043C2F80032324B7D
S1134160D3F8003203F08043002B56D02E4BD3F803
S113417000322D4A23F08043C2F800324DE0FFF7AD
S1134180F5FB294BD3F8003223F00053FB60FB68A6
S113419003F4C043002B0BD0FB6823F4C043FB6043
S11341A0FB6843F08043FB601F4AFB68C2F800329F
S11341B0FA681E4B1340FB607B685B68DAB27B686D
S11341C01B78DB0303F4C0331A43FB681A43184B10
S11341D01343FB60144AFB68C2F80032BFF34F8FED
S11341E000BFBFF36F8F00BF12491E2000F04AFCCE
S11341F000BF0D4BD3F8003203F00053002BF8D06E
S1134200FB6843F48043FB60FB6823F08043FB605E
S1134210054AFB68C2F8003200E000BF1037BD4613
S113422080BD00BF347B00000040C840007FFEFF1B
S11342300020004000CA9A3B80B584B000AF78608B
S1134240524BD3F8403203F40003002B2CD04F4BD5
S1134250D3F880227B685B689A4225D14B4BD3F814
S113426090227B689B689A421ED1484BD3F8403217
S113427003F40053002B07D1444BD3F84032434A94
S113428043F40053C2F84032404BD3F8403203F0B9
S11342908043002B76D03D4BD3F840323B4A23F089
S11342A08043C2F840326DE0FFF760FB374BD3F830
S11342B07032364A43F08033C2F87032334BD3F84D
S11342C04032FB60FA68324B1340002B0BD0FA6883
S11342D0304B1340FB60FB6843F08043FB602B4A88
S11342E0FB68C2F84032294B6FF07042C3F8A02239
S11342F0264A7B685B68C2F88032244A7B689B68E4
S1134300C2F89032244BFB60204AFB68C2F840326A
S113431022491E2000F0B6FBFA68214B1343FB60D0
S11343201A4AFB68C2F840321C49FA2000F0AAFB82
S1134330FB6823F40063FB60144AFB68C2F8403254
S113434000BF124BD3F8403203F00053B3F1005FC7
S1134350F7D1FB6843F40053FB600C4AFB68C2F8D6
S11343604032FB6823F08043FB60084AFB68C2F8D4
S11343704032064BD3F87032044A03F07F33C2F85C
S1134380703200E000BF1037BD4680BD0040C84019
S113439000208000FFDF7FFF0800004000CA9A3B36
S11343A00008800080B586B000AF0346FB710B4661
S11343B0BB7113467B7100237B6100233B617B79D6
S11343C0232B02D87B790B2B02D83348FFF72EF925
S11343D097F90730022B02D0032B05D009E02F4BAD
S11343E07B612F4B3B6107E02E4B7B612E4B3B6186
S11343F002E02E48FFF71AF97B691A68BB79DB00E3
S1134400402101FA03F31340FB607B691A68BB790E
S1134410DB00802101FA03F31A437B691A607B698C
S11344201A68BB79DB003F2101FA03F3DB431A402E
S11344307B691A607B691A687B7903F03F01BB7959
S1134440DB0001FA03F31A437B691A603B691A68BB
S1134450BB79022101FA03F35A403B691A607B6974
S11344601A68BB79DB00802101FA03F3DB431A40AD
S11344707B691A6000BF7B691A68BB79DB00402145
S113448001FA03F31A40FB689A42F4D000BF00BF5C
S11344901837BD4680BD00BFA47B00007042C840F1
S11344A05042C8403042C8402042C840E47B00002B
S11344B080B584B000AF03460A46FB711346BB7156
S11344C00023FB600023BB6097F90730022B06D062
S11344D097F90730032B02D02348FFF7A7F897F981
S11344E00730022B02D0032B0DD019E01F4BD3F859
S11344F07022BB79DB003F2101FA03F31340BB6058
S11345001B4BFB600FE0194BD3F83022BB79DB0067
S11345103F2101FA03F31340BB60164BFB6002E03A
S11345201548FFF783F8BB79DB00BA6822FA03F376
S1134530BB60BB680B2B02D9BB68232B02D90F4885
S1134540FFF774F8BB68002B08D0FA68BB68B2FBAD
S1134550F3F21346DB0013445B0000E0002318462B
S11345601037BD4680BD00BF007C00000040C8403D
S113457000A4781F00389C1C487C0000647C000068
S113458080B584B000AF78603E4BD3F8103203F4AA
S11345900013002B29D03B4BD3F81032DA437B684D
S11345A01B68134003F00703002B1ED1354BD3F8CF
S11345B0103203F40053002B07D1324BD3F81032DE
S11345C0304A43F40053C2F810322E4BD3F8103261
S11345D003F08043002B50D02A4BD3F81032294AE1
S11345E023F08043C2F8103247E0FFF7BFF9254BB0
S11345F0D3F83032234A43F08033C2F830327B6838
S11346001B6803F00702204B1343FB601D4AFB6841
S1134610C2F810321D491E2000F034FAFA681C4B0F
S11346201343FB60174AFB68C2F8103217491E2077
S113463000F028FAFB6823F40063FB60114AFB686E
S1134640C2F8103200BF0F4BD3F8103203F00053FE
S1134650B3F1005FF7D1FA6842F208031343FB6039
S1134660084AFB68C2F81032FB6823F08043FB6001
S1134670044AFB68C2F8103200E000BF1037BD46A0
S113468080BD00BF0040C8401000004000CA9A3BF3
S11346900008200080B584B000AF786039607B6882
S11346A0002B02D13348FEF7C1FF4FF41C63FB60BB
S11346B03A68FB689A4202D83B689B2B02D82E4882
S11346C0FEF7B4FF3A68FB689A4206D37B6803227C
S11346D01A707B68D0225A6046E0FB685B083A682F
S11346E09A420AD37B6803221A703B68234AA2FBCE
S11346F00323DA087B685A6036E0FB689B083A6853
S11347009A420AD37B6800221A703B681B4AA2FBB8
S113471003239A087B685A6026E0FB68DB083A6842
S11347209A420AD37B6801221A703B68134AA2FB9F
S113473003235A087B685A6016E0FB681B093A6831
S11347409A420BD97B6802221A703B685B000B4AC1
S1134750A2FB03235A087B685A6005E07B680222A7
S11347601A707B6868225A60002318461037BD46C9
S113477080BD00BFA87C0000C07C0000ABAAAAAA30
S113478080B400AF0A4B1B6A03F01003002B0AD15C
S1134790074B14221A6200BF054B1B6A03F08043C7
S11347A0B3F1804FF8D100BFBD465DF8047B70477C
S11347B00040C84080B588B000AF0346FB710023B9
S11347C0FB6197F90730052B59D801A252F823F061
S11347D0E9470000254800002B4800006548000018
S11347E06B480000754800002C4BD3F80032DBB254
S11347F0FB602A4BD3F80032DB0B03F00303BB60EE
S1134800BB680133012202FA03F3BB60BB685B009F
S1134810234AB2FBF3F3FB61FB69FA6802FB03F37F
S1134820FB612FE01F4BFB612CE01C4BD3F8903253
S113483003F07F03BB61194BD3F8803223F040436C
S11348407B61164BD3F8A03223F040433B617A6975
S11348503B69B2FBF3F2BB691344114A02FB03F355
S1134860FB610FE0104BFB610CE00420FEF768FED7
S1134870F86107E00520FEF763FEF86102E00B48EB
S1134880FEF7D4FEFB69002B02D10948FEF7CEFEE9
S1134890FB6918462037BD4680BD00BF0040C840B4
S11348A000366E0100CA9A3B00389C1C487D00000B
S11348B0647D000080B584B000AF0346FB71002323
S11348C0FB60FB791E2B00F2BD8001A252F823F09D
S11348D04D490000674900006D490000734900001C
S11348E079490000794900007F4900007F490000B0
S11348F08949000089490000934900009F4900004C
S1134900AB490000B7490000C3490000C349000097
S1134910454A0000CD490000D9490000E54900009E
S1134920F1490000FD490000FD490000074A00006C
S1134930154A0000294A0000294A0000334A0000B1
S1134940334A00003D4A00003D4A0000444BD3F87E
S1134950C03003F00403002B02D0424BFB6074E030
S1134960414BFB6071E0414BFB606EE0404BFB60F0
S11349706BE0404BFB6068E03D4BFB6065E0002072
S1134980FFF718FFF86060E00220FFF713FFF860FC
S11349905BE000210220FFF78BFDF86055E0012168
S11349A00220FFF785FDF8604FE002210220FFF7A7
S11349B07FFDF86049E003210220FFF779FDF860EC
S11349C043E00320FFF7F6FEF8603EE000210320F9
S11349D0FFF76EFDF86038E001210320FFF768FD62
S11349E0F86032E002210320FFF762FDF8602CE05A
S11349F003210320FFF75CFDF86026E00120FFF7A8
S1134A00D9FEF86021E00120FFF7D4FE03465B08DD
S1134A10FB601AE00120FFF7CDFE0346164AA2FB15
S1134A2003239B08FB6010E00420FFF7C3FEF8603B
S1134A300BE00520FFF7BEFEF86006E002F0A3FAE3
S1134A40F86002E00D48FEF7F1FDFB68002B02D18F
S1134A500B48FEF7EBFDFB6818461037BD4680BDDA
S1134A600040C8400024F40000093D00006CDC0252
S1134A7000366E010084D717CDCCCCCC7C7D0000F1
S1134A80987D0000F0B585B000AF786039607B6830
S1134A90002B02D11E48FEF7C9FD7B6818464FF073
S1134AA000013B681A464FF0000302FB01FC00FBC7
S1134AB003F66644A0FB020173181946154A4FF029
S1134AC0000302F0D0FD02460B46C7E90223D7E9F2
S1134AD00223012B08BF002A02D30F48FEF7A6FDCC
S1134AE0D7E902014FF003024FF0000302F0BBFDCF
S1134AF002460B46941843EB0305C7E90245BB681D
S1134B00184602F061FA00BF1437BD46F0BD00BF7D
S1134B10B47D000040420F00D87D000080B483B013
S1134B2000AF03460A46FB711346BB71BB791946B5
S1134B30114AFB7903F540735B0113441B684B4036
S1134B4003F00103002B10D0BB791A460A49FB7904
S1134B5002F0010203F540735B010B441A60BFF3DA
S1134B604F8F00BFBFF36F8F00BF00BF0C37BD4630
S1134B705DF8047B704700BF0000CC4080B584B072
S1134B8000AF78600023FB6009E00D4AFB6852F82F
S1134B9023307A689A4206D0FB680133FB60FB68D5
S1134BA00F2BF2D900E000BFFB680F2B02D9054898
S1134BB0FEF73CFDFB6818461037BD4680BD00BFBC
S1134BC0007E0000507E000080B586B000AFF86023
S1134BD0B9607A60F868FFF7D1FF78617B690D2BC3
S1134BE00CD8204A7B6913441B788A2B06D01D4AB3
S1134BF07B6913441B78184602F0F6F9FB685A697E
S1134C000121BB6801FA03F3DB431A40FB685A61D4
S1134C107B681B78002B0AD1FB685A680121BB68AA
S1134C2001FA03F3DB431A40FB685A600FE07B6828
S1134C305B781A46B968F86800F016F8FB685A6899
S1134C400121BB6801FA03F31A43FB685A607B68CD
S1134C509B781A46B968F86802F0D4F900BF18378F
S1134C60BD4680BD407E000080B584B000AFF860D2
S1134C70B9601346FB71BB681F2B02D90E48FEF7BF
S1134C80D5FCFB79002B0AD1FB681A680121BB68AB
S1134C9001FA03F3DB431A40FB681A6008E0FB687F
S1134CA01A680121BB6801FA03F31A43FB681A600E
S1134CB000BF1037BD4680BD847E000080B487B03D
S1134CC000AFF860B9601346FB71BB683B61FB68D9
S1134CD0DA690121BB6801FA03F3DB431A40FB687C
S1134CE0DA61BB680F2B03D8FB680C337B6105E0EA
S1134CF0FB6810337B613B69103B3B61FB79013BF3
S1134D00042B52D801A252F823F000BF214D000019
S1134D10394D00005D4D0000814D0000974D0000AD
S1134D207B691A683B695B00032101FA03F3DB43E7
S1134D301A407B691A6039E07B691A683B695B0039
S1134D40032101FA03F3DB431A403B695B000121B1
S1134D5001FA03F31A437B691A6027E07B691A6836
S1134D603B695B00032101FA03F3DB431A403B690F
S1134D705B00022101FA03F31A437B691A6015E010
S1134D807B691A683B695B00032101FA03F31A4348
S1134D907B691A600AE0FB68DA690121BB6801FAE1
S1134DA003F31A43FB68DA6100E000BF00BF1C375D
S1134DB0BD465DF8047B704780B483B000AF034602
S1134DC00A46FB711346BB71BB791946114AFB793C
S1134DD003F540735B0113441B684B4003F001036C
S1134DE0002B10D0BB791A460A49FB7902F0010264
S1134DF003F540735B010B441A60BFF34F8F00BF90
S1134E00BFF36F8F00BF00BF0C37BD465DF8047B56
S1134E10704700BF0000CC4080B584B000AF78601C
S1134E200023FB6009E00D4AFB6852F823307A68DE
S1134E309A4206D0FB680133FB60FB680C2BF2D965
S1134E4000E000BFFB680C2B02D90548FEF7EEFB1F
S1134E50FB6818461037BD4680BD00BFA07E000029
S1134E60E47E000080B58CB000AFF860B9607A6071
S1134E70BB68002B02D1A248FEF7D8FBBB681B68B5
S1134E80002B02D19F48FEF7D1FBBB681B7A042B91
S1134E9002D99D48FEF7CAFBBB685B7A042B02D992
S1134EA09A48FEF7C3FB0023FB62BB681B68FB61E7
S1134EB0002387F823300023FB84042387F822305F
S1134EC041E07A6813469B0013445B001946BB68B3
S1134ED01B6897F8222002FB03F3B1FBF3F30533BD
S1134EE08B4AA2FB0323DB08BB84BB8C002B01D1C0
S1134EF00123BB8497F82230BA8C02FB03F37A684F
S1134F00B2FBF3F37B61BB681B687A699A4204D9EC
S1134F10BB681B687A69D31A03E0BB681A687B69AB
S1134F20D31A3B613A69FB699A4207D83B69FB6132
S1134F3097F8223087F82330BB8CFB8497F8223013
S1134F40013387F8223097F82230202BB9D9BB6877
S1134F501B68704AA2FB03235A0913465B001344DF
S1134F60FA699A4203D940F22153FB62FCE0F868E3
S1134F70FFF752FFB861684ABB6913441B781846AF
S1134F8002F051F8F86802F05CF8FB681B69BB6238
S1134F9097F82330032B07D997F82330072B03D82E
S1134FA0BB6A43F40033BB62BB6A23F0F853BB62B1
S1134FB097F82330013B1B0603F0F853BA6A1343F6
S1134FC0BB62BA6A554B1340BB62FB8CC3F30C0241
S1134FD0BB6A1A43FB681A61FB681B6923F0005221
S1134FE0FB681A61FB689A694D4B1340BB62BB684E
S1134FF01B791A46BB68DB7B1B0203F4E0631A438C
S1135000BB689B7B9B0003F004031343BA6A1343FE
S1135010BB62BB685B79012B0DD1BB681B79002B8C
S113502004D0BB6A23F40063BB620CE0BB6A43F4A4
S11350300063BB6207E0BB681B79002B03D0BB6A2B
S113504043F01003BB62FB68BA6A9A61FB681B6990
S113505023F40053BB62BB68DB795B0303F40052A7
S1135060BB6A1A43FB681A61BB685B7A1B04BA68A3
S1135070127A1A43FB68DA62FB689B6A43F088027F
S1135080FB689A62FB689B6A43F44042FB689A623D
S1135090244BBB62BB6A43F00043BB62BB6A43F46C
S11350A04043BB62FB685A6ABB685B7B1B0103F02D
S11350B01001BB681B7B5B0103F020030B431A4305
S11350C0FB685A62BB689B7A002B05D0FB685B6A5D
S11350D043F00802FB685A62BB68DB7A002B05D0F8
S11350E0FB685B6A43F00102FB685A62BB689B7908
S11350F0002B19D0BB6A43F00053BB6218E000BF19
S1135100207F0000447F0000747F0000D07F0000F7
S1135110CDCCCCCC1F85EB51D47E000000E0FFFF4A
S1135120E8F8FFFF00001F40BB6A23F00053BB6296
S1135130FB685A69BB6A1A43FB685A61FB689B693E
S1135140BB62BB681B7C002B03D0BB6A43F4002307
S1135150BB62BB685B7C002B03D0BB6A43F4802337
S1135160BB62FB68BA6A9A61FB6A18463037BD466F
S113517080BD00BF80B582B000AF78607B68002B33
S113518002D11D48FEF752FA14220021786802F079
S113519038F97B684FF4E1321A607B6800221A7197
S11351A07B6800225A717B6800229A717B68002216
S11351B0DA717B6800221A727B6800225A727B685B
S11351C000229A727B680022DA727B6800225A738A
S11351D07B6800221A737B6800229A737B68002222
S11351E0DA737B6800221A747B6800225A7400BF49
S11351F00837BD4680BD00BF2C80000080B586B056
S113520000AFF860B9607A60BB68002B02D1144823
S1135210FEF70CFABB687B617B683B6111E000BF61
S1135220FB685B6903F40003002BF9D07B691B78EE
S11352301A46FB68DA617B6901337B613B69013B98
S11352403B613B69002BEAD100BFFB685B6903F457
S11352508003002BF9D0002318461837BD4680BDC3
S11352605080000080B500AF054B1B68054A5268AA
S1135270114605489847BFF34F8F00BF00BF80BD5C
S1135280C48800009088000000C0074080B500AFCB
S1135290054B1B68054A9268114605489847BFF3B9
S11352A04F8F00BF00BF80BDC488000090880000FD
S11352B00000084080B500AF054B1B68054AD26862
S11352C0114605489847BFF34F8F00BF00BF80BD0C
S11352D0C4880000908800000040084080B500AFFA
S11352E0054B1B68054A1269114605489847BFF3E8
S11352F04F8F00BF00BF80BDC488000090880000AD
S11353000080084080B500AF054B1B68054A526910
S1135310114605489847BFF34F8F00BF00BF80BDBB
S1135320C48800009088000000C0084080B500AF29
S1135330054B1B68054A9269114605489847BFF317
S11353404F8F00BF00BF80BDC4880000908800005C
S11353500000094080B500AF054B1B68054AD269BF
S1135360114605489847BFF34F8F00BF00BF80BD6B
S1135370C4880000908800000040094080B500AF58
S1135380054B1B68054A126A114605489847BFF346
S11353904F8F00BF00BF80BDC4880000908800000C
S11353A00080094080B500AF054B1B68054A526A6E
S11353B0114605489847BFF34F8F00BF00BF80BD1B
S11353C0C48800009088000000C0094080B500AF88
S11353D0054B1B68054A926A114605489847BFF376
S11353E04F8F00BF00BF80BDC488000090880000BC
S11353F000000A4080B500AF054B1B68054AD26A1D
S1135400114605489847BFF34F8F00BF00BF80BDCA
S1135410C4880000908800000040C24080B584B079
S113542000AF78600B46FB70FB78002B22D17B68C1
S1135430D3F8103523F005027B68C3F810252D49F5
S11354404FF47A70FFF71EFB7B68D3F8103523F412
S1135450C1527B68C3F8102526494FF47A70FFF7D0
S113546011FB7B68D3F8103523F400227B68C3F862
S113547010253BE07B68D3F8103523F001027B68EC
S1135480C3F810251B494FF47A70FFF7FBFA7B68C9
S1135490D3F8103543F400227B68C3F8102515496E
S11354A04FF47A70FFF7EEFA7B68D3F81035FB609F
S11354B0FB6823F4C053FB60FB78DB0203F4C052A7
S11354C0FB68134343F02003FB607B68FA68C3F86E
S11354D0102508494FF47A70FFF7D4FA7B68D3F8A3
S11354E0103543F004027B68C3F8102500BF103761
S11354F0BD4680BD00CA9A3B80B582B000AF7860DB
S11355000B46FB70FB78002B2FD07B68D3F830352B
S113551043F001027B68C3F8302527494FF47A70C1
S1135520FFF7B0FA7B68D3F8303543F400327B6878
S1135530C3F8302520494FF47A70FFF7A3FA7B684B
S1135540D3F8303543F480227B68C3F830251A49F8
S11355504FF47A70FFF796FA7B68D3F8303523F06E
S113556004027B68C3F8302521E07B68D3F830352A
S113557043F005027B68C3F830250F494FF47A7075
S1135580FFF780FA7B68D3F8303523F480227B68F8
S1135590C3F8302508494FF47A70FFF773FA7B6833
S11355A0D3F8303523F400327B68C3F8302500BFCC
S11355B00837BD4680BD00BF00CA9A3B80B582B0A3
S11355C000AF78607B68002B02D10A48FEF72EF802
S11355D003220021786801F014FF7B6801221A700D
S11355E07B6803225A707B680F229A7000BF0837C9
S11355F0BD4680BD7480000080B584B000AF786083
S113560039603B68002B02D13448FEF70FF87B6801
S1135610D3F8503523F070427B68C3F850257B687B
S1135620D3F850253B681B781B071A437B68C3F8E3
S113563050257B68D3F8503523F070627B68C3F83B
S113564050257B68D3F850253B681B781B0603F074
S113565070631A437B68C3F850257B68D3F85035D0
S1135660FB60FA681E4B1340FB603B685B789B0051
S113567003F01C023B689B785B0103F4F073134353
S113568043F00203BB60BB68C3F30C03FA68134323
S1135690FB607B68FA68C3F850257B68D3F86035F3
S11356A023F4E0527B68C3F860257B68D3F8603547
S11356B043F480627B68C3F860257B68D3F8603567
S11356C043F080727B68C3F8602506496420FFF7C5
S11356D0D9F900BF1037BD4680BD00BF94800000DB
S11356E000E0FFFF00CA9A3B80B584B000AF814B55
S11356F0D3F888307F4A43F47003C2F888307D4B76
S11357007D4A9A607D4B1B889BB203F00403002BF7
S113571007D07A4B1B889BB2784A23F004039BB2D0
S11357201380774B1B889BB203F00403002B07D034
S1135730734B1B889BB2724A23F004039BB2138001
S1135740704B1B6803F40053002B03D06D4B6E4A5F
S11357505A6007E06B4B4CF220525A60694B4DF68D
S113576028125A60674B4FF6FF729A60654B1B68AC
S113577023F0A003634A43F020031360634B1B68C8
S113578003F40053002B03D0604B5F4A5A6007E0D8
S11357905E4B4CF220525A605C4B4DF628125A6014
S11357A05A4B4FF6FF729A60584B1B6823F0A003C4
S11357B0564A43F020031360554B1B6803F0010362
S11357C0002B05D0524B1B68514A23F00103136090
S11357D0484B5B6903F40033B3F5003F22D0454BDB
S11357E05B6903F40033002B1BD1BFF34F8F00BF61
S11357F0BFF36F8F00BF3F4B0022C3F85022BFF3AB
S11358004F8F00BFBFF36F8F00BF3A4B5B69394ABC
S113581043F400335361BFF34F8F00BFBFF36F8F67
S113582000E000BF334B5B6903F48033B3F5803F82
S11358303FD0304B5B6903F48033002B38D12D4BC0
S11358400022C3F88420BFF34F8F00BF294BD3F845
S11358508030FB60FB685B0BC3F30E03BB60FB682B
S1135860DB08C3F309037B60BB685A0143F6E073AA
S113587013407A6892071F491343C1F860327B686A
S11358805A1E7A60002BEFD1BB685A1EBA60002BF7
S1135890E5D1BFF34F8F00BF164B5B69154A43F444
S11358A080335361BFF34F8F00BFBFF36F8F00E0AE
S11358B000BF184B1B6F174A23F400531367164B92
S11358C0154A1B69D363144B4FF0FF321A61094B1D
S11358D05B69084A43F010035361BFF34F8F00BF65
S11358E0BFF36F8F00BF01F0C9FB00BF1037BD4687
S11358F080BD00BF00ED00E0003000000000034068
S1135900004003400080034020C528D90000C14066
S113591010E000E000400E400040C04080B58AB076
S113592000AF786039600023FB847B68002B02D1D0
S11359302848FDF77BFE3B68002B02D12648FDF783
S113594075FE3B681B7B0C2B02D92448FDF76EFEC9
S11359503B681B7B1A46224B53F82230002B02D1A2
S11359602048FDF763FE07F108031846FFF702FC21
S11359703B689B7A002B14BF01230023DBB27B76A8
S11359803B68DB7A002B14BF01230023DBB23B7698
S11359903B681B7B1A46124B53F822003B681A687B
S11359A007F108031946FFF75DFA38623B6A002BDA
S11359B005D0386A01F069FB0346FB8405E07B6887
S11359C0FB613B681A7BFB691A70FB8C184628370D
S11359D0BD4680BDE88000000C81000030810000DD
S11359E0B48000009881000080B586B000AFF860F4
S11359F0B9607A60FB68002B02D11048FDF716FEEF
S1135A00BB68002B02D10E48FDF710FE7B68002B0B
S1135A1002D10C48FDF70AFEFB687B617B691B78A9
S1135A201A46094B53F822307A68B9681846FFF7CA
S1135A30E5FB002318461837BD4680BDDC81000015
S1135A400082000024820000B480000080B483B08F
S1135A5000AF0346FB71074AFB79DB0113441B6863
S1135A601B0A03F0070318460C37BD465DF8047B98
S1135A70704700BF0000CC4080B483B000AF034641
S1135A80FB71064AFB79DB0113441B68DBB201336B
S1135A9018460C37BD465DF8047B70470000CC40C7
S1135AA090B5ADF5237D00AF0246FB1D1A7007F1DA
S1135AB008031A4A184611464FF41E731A4601F099
S1135AC09EFCFB1D1B781846FFF7C0FFC7F8840235
S1135AD0FB1D1B7807F10802DB001A44D7F8843257
S1135AE013441B781846FEF7E5FE0446FB1D1B789D
S1135AF01846FFF7C1FF0346B4FBF3F3C7F880323F
S1135B00D7F88032002B02D10548FDF78FFDD7F876
S1135B108032184607F52377BD4690BDDC8200002D
S1135B204882000080B483B000AF0346FB71074A8B
S1135B30FB79DB0113441B681B0A03F007031846B7
S1135B400C37BD465DF8047B704700BF0000CC40B5
S1135B5080B483B000AF0346FB71064AFB79DB01D6
S1135B6013441B68DBB2013318460C37BD465DF89D
S1135B70047B70470000CC4080B582B000AF034680
S1135B803960FB713B68002B02D11A48FDF74EFDCA
S1135B903B685B781B0503F470023B689B781B042D
S1135BA003F470231A433B68DB781B0203F4E063BD
S1135BB01A433B681B79013BDBB21A433B681B78F1
S1135BC0002B05D03B681B781B0603F0807300E0B4
S1135BD000230948F9791A43CB0103441A60BFF33F
S1135BE04F8F00BFBFF36F8F00BF00BF0837BD46A4
S1135BF080BD00BF548500000000CC4090B5ADF5D9
S1135C00237D00AF0246FB1D1A7007F108031A4AF0
S1135C10184611464FF41E731A4601F0F0FBFB1DA3
S1135C201B781846FFF77EFFC7F88402FB1D1B781C
S1135C3007F10802DB001A44D7F8843213441B78B6
S1135C401846FEF737FE0446FB1D1B781846FFF77F
S1135C507FFF0346B4FBF3F3C7F88032D7F88032F2
S1135C60002B02D10548FDF7E1FCD7F88032184635
S1135C7007F52377BD4690BDE88500004882000003
S1135C8080B58AB000AF07F1200300221A601A71B0
S1135C901621724801F058FB07F11C031846FFF760
S1135CA08DFC07F11C0319466D48FFF7A5FC012183
S1135CB06B48FFF7B3FB01216948FFF71DFC07F1AF
S1135CC0080300221A605A609A60DA601A6101239C
S1135CD03B7216233B6103237B60FEF751FD0023D7
S1135CE087F82330012387F8243007F1200319466D
S1135CF00020FFF741FF07F1200319460820FFF7B2
S1135D003BFF4FF47A7001F046F9042387F82330FF
S1135D10012387F8243007F1200319460020FFF7F8
S1135D202BFF002387F82330F02387F8243007F172
S1135D30200319460820FFF71FFF07F10803184640
S1135D40FEF77AFA3B1D1846FEF71AFC062387F87D
S1135D502330162387F8243007F12003194619202D
S1135D60FFF70AFF102201210220FEF71BFB062386
S1135D7087F82330032387F8243007F120031946DA
S1135D800420FFF7F9FE042387F82330022387F861
S1135D90243007F1200319460220FFF7EDFE00230B
S1135DA087F82330012387F8243007F120031946AC
S1135DB02520FFF7E1FE002387F82330012387F82D
S1135DC0243007F1200319462920FFF7D5FE0023CC
S1135DD087F82330012387F8243007F1200319467C
S1135DE00E20FFF7C9FE002387F82330012387F82C
S1135DF0243007F1200319460F20FFF7BDFE0023CE
S1135E0087F82330012387F8243007F1200319464B
S1135E102B20FFF7B1FE002387F82330012387F8F6
S1135E20243007F1200319460D20FFF7A5FE0023B7
S1135E3087F82330012387F8243007F1200319461B
S1135E403120FFF799FE0020FFF7D8FE0346054AEC
S1135E50136000BF2837BD4680BD00BF0080CA4024
S1135E600040C8406888000080B483B000AF034697
S1135E700A46FB711346BB71BB791946114AFB797B
S1135E8003F540735B0113441B684B4003F00103AB
S1135E90002B10D0BB791A460A49FB7902F00102A3
S1135EA003F540735B010B441A60BFF34F8F00BFCF
S1135EB0BFF36F8F00BF00BF0C37BD465DF8047B96
S1135EC0704700BF0000CC4080B584B002AF3120E1
S1135ED001F063FA01233B7100237B710023BB7142
S1135EE03B1D1A4603210848FEF76EFE002301936A
S1135EF0064B0093002300220A21054801F05BFAB7
S1135F0000BF0837BD4680BD0040C64060830E40D8
S1135F101C810E4010B5174A0020174901F0F0FA11
S1135F204FF480734FF480620021124801F083FA29
S1135F30124A1349012001F0E3FA4FF480734FF43D
S1135F40806200210D4801F076FA0E4B1B68022B8B
S1135F500EDD0D4A02200A4901F0D2FA4FF4807393
S1135F604FF4806200210848BDE8104001F063BA94
S1135F7010BD00BFCC8800006488000008890000C0
S1135F806688000060880000448900002DE9F04123
S1135F90D56880460E461446EB02576905D545F090
S1135FA01005384601F050FCA061124B2B408BB118
S1135FB0A169384601F051FC002806DAE3684FF085
S1135FC0FF3043F08003E36011E025F4003525F051
S1135FD01005E56032464146384601F044FC20F0A5
S1135FE00041761AA1690E44A6610028E6D1BDE8F5
S1135FF0F08100BF10000200F7B5044698B103B069
S1136000BDE8F04001F00FBB07FB0460013401F070
S11360100AFB002818BF4FF0FF35019BA342F3DCB5
S1136020284603B0F0BD034B05463C27024E1B68CF
S11360300193F2E760880000CC8800002DE9F84362
S1136040C66804463C4B0D46904633401BB90227B4
S11360503846BDE8F883D0F81490484601F0F7FBC1
S113606007460028F3D1B8F1010F2CD0B8F1020F84
S11360702ED0B8F1000FEAD1002DE8DBB00404D52E
S11360802368E26A9A4238BFE362A169A9420EDC3E
S11360902368E26A934238BF134622695818801A6B
S11360A0A84204DB206B01EB000CAC4534DC00237C
S11360B046F02006A562C4E9013326F4032626F03F
S11360C04006E660C4E7204600F038F80544D3E70C
S11360D0484601F0B9FBB0F1000CE26804DA42F082
S11360E080020127E260B3E723681846A3691946D2
S11360F0E36A98422CBF0918C91892060B46216915
S1136100A3EB010303D5A26A9342B8BF13466345C8
S1136110ACBFED186544AFE76D1AB10744BF281A48
S1136120A060F10726F0200644BF9B1AEB1A154421
S113613048BF63602560C0E703001000C3689A0786
S113614005D10E4B21224FF0FF301A60704703F047
S113615020021B0309D512B1806A01387047036815
S1136160826900691344181AF7E70AB1806A704714
S11361700368826900691344181A7047C8880000CC
S113618080B586B000AFF860B9603B601346FB7120
S113619000237B6100237B611CE0BB681B68013327
S11361A07F2B08D9BB681B681946F868FDF74AFAC3
S11361B0BB6800221A60BB681B681A46FB6813445C
S11361C0FA791A70BB681B685A1CBB681A607B6931
S11361D001337B617A693B689A42DEDB00BF00BF12
S11361E01837BD4680BD80B485B000AF7860396093
S11361F00023FB600023FB7220E07B681B685A1CB1
S11362007B681A607B681B681B78BB72BB7A2F2B78
S11362100DD9BB7A392B0AD8FA6813469B0013446C
S11362205B001A46BB7A1344303BFB6006E07B6894
S11362301B685A1E7B681A600123FB72FB7A002BD1
S1136240DBD0FB6818461437BD465DF8047B704705
S113625080B489B000AFF860B9607A60FB681B68ED
S1136260FB610623BB610023FB75FB690133FB6102
S1136270FB691B782E2B24D10023BB610023FB7503
S11362801BE0FB690133FB61FB691B78BB75BB7DBC
S11362902F2B0DD9BB7D392B0AD8BA6913469B0025
S11362A013445B001A46BB7D1344303BBB6104E0DE
S11362B0FB69013BFB610123FB75FB7D002BE0D0F7
S11362C002E0FB69013BFB61FB68FA691A60BB6988
S11362D018462437BD465DF8047B704780B485B00A
S11362E000AF0346FB710023FB60FB796F2B08D0E2
S11362F0FB79622B05D0FB79702B02D0FB79752BCF
S113630001D10123FB60FB6818461437BD465DF8D4
S1136310047B704780B485B000AF0346FB71002353
S1136320FB60FB79642B02D0FB79692B01D101233B
S1136330FB60FB6818461437BD465DF8047B704764
S113634090B585B000AFF860B9607A60FB70BA6848
S11363507B68D31A7C6A2022F96AB86AA04708E0ED
S11363603B6A5A1E3A621A787C6A0123F96AB86A4F
S1136370A0473B6A1B78002BF2D100BF00BF143743
S1136380BD4690BD90B585B000AFF860B9607A6045
S1136390FB70BA687B68D31A7C6A2022F96AB86AEF
S11363A0A04708E03B6A5A1E3A621A787C6A0123C5
S11363B0F96AB86AA0473B6A1B78002BF2D100BF88
S11363C000BF1437BD4690BD80B485B000AF03460E
S11363D0FB710023FB60FB79662B02D0FB79462B13
S11363E001D10123FB60FB6818461437BD465DF8F4
S11363F0047B704780B485B000AF0346FB71002373
S1136400FB60FB79782B02D0FB79582B01D1012357
S1136410FB60FB6818461437BD465DF8047B704783
S113642080B485B000AF78607B681B68FB60FB6854
S11364300133FB60FB681B78FB72FB7A682BF6D098
S1136440FB7A6C2BF3D0FB68013BFB607B68FA683A
S11364501A6000BF1437BD465DF8047B704780B4F2
S113646085B000AF0346FB71FB796F2B02D1082383
S1136470FB730DE0FB79622B02D10223FB7307E06F
S1136480FB79702B02D11023FB7301E00A23FB7309
S1136490FB7B18461437BD465DF8047B704780B417
S11364A08DB000AFF860B9607A603B600023FB6197
S11364B0FB68BB61BB695A1CBA6100221A707B6815
S11364C0002B33D0BB681B68FB62FB6A002B29D10D
S11364D0BB6930221A70FB690133FB61FB6960E020
S11364E0FA6A3B6892FBF3F33B613B693A6802FB4F
S11364F003F3FA6AD31ABB62BB6A002B04DABB6AE1
S1136500C3F13003BB6202E0BB6A3033BB623B6958
S1136510FB62BB695A1CBA61BA6AD2B21A70FB69CF
S11365200133FB61FB6A002BDAD139E0BB681B68DD
S11365307B627B6A002B30D1BB6930221A70FB6905
S11365400133FB61FB692CE03B687A6AB2FBF3F32D
S11365507B613B687A6902FB03F37A6AD31A3B6274
S11365603B6A092B03D83B6A30333B620AE097F855
S11365703830002B01D0412200E061223B6A1344F1
S11365800A3B3B627B697B62BB695A1CBA613A6A0B
S1136590D2B21A70FB690133FB617B6A002BD3D141
S11365A0FB6918463437BD465DF8047B704790B5E7
S11365B09FB004AFF860B9607A603B600023FB656C
S11365C00023BB650023FB61002387F857300023B9
S11365D07B61FB687B647B6C1B78002B00F029815A
S11365E07B6C1B7887F8563097F85630252B0BD0E8
S11365F097F8562007F11C013C6801237868A047EE
S11366007B6C01337B6413E1012387F8633007F16A
S1136610080207F1440311461846FFF7E4FD386504
S113662007F1080107F1440300221846FFF710FEA2
S1136630F86407F144031846FFF7F2FE7B6C01335C
S11366407B647B6C1B7887F8563097F85630184675
S1136650FFF760FE0346012B25D1BB681A1DBA6003
S11366601B68BB6107F1180107F1200097F863303C
S113667000930A230122FFF712FFB86507F12002F5
S1136680BB6D1344FB65BA6D07F11C0303937B6870
S113669002933B680193FB6D00930023396D002046
S11366A0FFF74EFEC1E097F856301846FFF78CFE10
S11366B00346012B06D1BB68073323F007030833D5
S11366C0BB60B2E097F856301846FFF793FE0346D6
S11366D0012B2ED197F85630782B02D1002387F85E
S11366E06330BB681A1DBA601B687B6107F1140133
S11366F007F1200097F86330009310230022FFF77E
S1136700CEFEB86507F12002BB6D1344FB65BA6D7C
S113671097F8631007F11C0303937B6802933B68AB
S11367200193FB6D00930B46396D0020FFF72AFEA1
S11367307BE097F856301846FFF7D0FD0346012B4F
S11367402FD1BB681A1DBA601B687B6197F856305D
S11367501846FFF784FE034687F8573097F857200A
S113676007F1140107F1200097F8633000931346F2
S11367700022FFF794FEB86507F12002BB6D1344B5
S1136780FB65BA6D07F11C0303937B6802933B68B6
S11367900193FB6D00930023396D0020FFF7D0FDBA
S11367A043E097F85630632B0DD1BB681A1DBA60CD
S11367B01B68BB64BB6CDAB207F11C013C680123A3
S11367C07868A04731E097F85630732B25D1BB6821
S11367D01A1DBA601B687B667B6E002B25D0786E11
S11367E000F048FE0346BB653A6DBB6DD31A07F152
S11367F01C013C6820227868A04709E07B6E5A1C83
S11368007A661A7807F11C013C6801237868A0476E
S11368107B6E1B78002BF1D107E097F8562007F127
S11368201C013C6801237868A0477B6C01337B64BE
S1136830D1E600BFFB6918466C37BD4690BD08B56C
S1136840FCF77DFE08BD08B5FCF779FE08BD08B568
S1136850FCF775FE08BD08B5FCF771FE08BD08B568
S1136860FCF76DFE08BD08B5FCF769FE08BD08B568
S1136870FCF765FE08BD08B5FCF761FE08BD08B568
S1136880FCF75DFE08BD08B5FCF759FE08BD08B568
S1136890FCF755FE08BD08B5FCF751FE08BD08B568
S11368A0FCF74DFE08BD08B5FCF749FE08BD08B568
S11368B0FCF745FE08BD08B5FCF741FE08BD08B568
S11368C0FCF73DFE08BD08B5FCF739FE08BD08B568
S11368D0FCF735FE08BD08B5FCF731FE08BD08B568
S11368E0FEF7C0FC08BD08B5FEF7D0FC08BD08B52E
S11368F0FEF7E0FC08BD08B5FEF7F0FC08BD08B5DE
S1136900FEF700FD08BD08B5FEF710FD08BD08B58B
S1136910FEF720FD08BD08B5FEF730FD08BD08B53B
S1136920FEF740FD08BD08B5FEF750FD08BD08B5EB
S1136930FEF760FD08BD08B5FCF701FE08BD08B50B
S1136940FCF7FDFD08BD08B5FCF7F9FD08BD08B569
S1136950FCF7F5FD08BD08B5FCF7F1FD08BD08B569
S1136960FCF7EDFD08BD08B5FCF7E9FD08BD08B569
S1136970FCF7E5FD08BD08B5FCF7E1FD08BD08B569
S1136980FCF7DDFD08BD08B5FCF7D9FD08BD08B569
S1136990FCF7D5FD08BD08B5FCF7D1FD08BD08B569
S11369A0FCF7CDFD08BD08B5FCF7C9FD08BD08B569
S11369B0FCF7C5FD08BD08B5FCF7C1FD08BD08B569
S11369C0FCF7BDFD08BD08B5FCF7B9FD08BD08B569
S11369D0FCF7B5FD08BD08B5FCF7B1FD08BD08B569
S11369E0FCF7ADFD08BD08B5FCF7A9FD08BD08B569
S11369F0FCF7A5FD08BD08B5FCF7A1FD08BD08B569
S1136A00FCF79DFD08BD08B5FCF799FD08BD08B568
S1136A10FCF795FD08BD08B5FCF791FD08BD08B568
S1136A20FCF78DFD08BD08B5FCF789FD08BD08B568
S1136A30FCF785FD08BD08B5FCF781FD08BD08B568
S1136A40FCF77DFD08BD08B5FCF779FD08BD08B568
S1136A50FCF775FD08BD08B5FCF771FD08BD08B568
S1136A60FCF76DFD08BD08B5FCF769FD08BD08B568
S1136A70FCF765FD08BD08B5FCF761FD08BD08B568
S1136A80FCF75DFD08BD08B5FCF759FD08BD08B568
S1136A90FCF755FD08BD08B5FCF751FD08BD08B568
S1136AA0FCF74DFD08BD08B5FCF749FD08BD08B568
S1136AB0FCF745FD08BD08B5FCF741FD08BD08B568
S1136AC0FCF73DFD08BD08B5FCF739FD08BD08B568
S1136AD0FCF735FD08BD08B5FCF731FD08BD08B568
S1136AE0FCF72DFD08BD08B5FCF729FD08BD08B568
S1136AF0FCF725FD08BD08B5FCF721FD08BD08B568
S1136B00FCF71DFD08BD08B5FCF719FD08BD08B567
S1136B10FCF715FD08BD08B5FCF711FD08BD08B567
S1136B20FCF70DFD08BD08B5FCF709FD08BD08B567
S1136B30FCF705FD08BD08B5FCF701FD08BD08B567
S1136B40FCF7FDFC08BD08B5FCF7F9FC08BD08B569
S1136B50FCF7F5FC08BD08B5FCF7F1FC08BD08B569
S1136B60FCF7EDFC08BD08B5FCF7E9FC08BD08B569
S1136B70FCF7E5FC08BD08B5FCF7E1FC08BD08B569
S1136B80FCF7DDFC08BD08B5FCF7D9FC08BD08B569
S1136B90FCF7D5FC08BD08B5FCF7D1FC08BD08B569
S1136BA0FCF7CDFC08BD08B5FCF7C9FC08BD08B569
S1136BB0FCF7C5FC08BD08B5FCF7C1FC08BD08B569
S1136BC0FCF7BDFC08BD08B5FCF7B9FC08BD08B569
S1136BD0FCF7B5FC08BD08B5FCF7B1FC08BD08B569
S1136BE0FCF7ADFC08BD08B5FCF7A9FC08BD08B569
S1136BF0FCF7A5FC08BD08B5FCF7A1FC08BD08B569
S1136C00FCF79DFC08BD08B5FCF799FC08BD08B568
S1136C10FCF795FC08BD08B5FCF791FC08BD08B568
S1136C20FCF78DFC08BD08B5FCF789FC08BD08B568
S1136C30FCF785FC08BD08B5FCF781FC08BD08B568
S1136C40FCF77DFC08BD08B5FCF779FC08BD08B568
S1136C50FCF775FC08BD08B5FCF771FC08BD08B568
S1136C60FCF76DFC08BD08B5FCF769FC08BD08B568
S1136C70FCF765FC08BD08B5FCF761FC08BD08B568
S1136C80FCF75DFC08BD08B5FCF759FC08BD08B568
S1136C90FCF755FC08BD08B5FCF751FC08BD08B568
S1136CA0FCF74DFC08BD08B5FCF749FC08BD08B568
S1136CB0FCF745FC08BD08B5FCF741FC08BD08B568
S1136CC0FCF73DFC08BD08B5FCF739FC08BD08B568
S1136CD0FCF735FC08BD08B5FCF731FC08BD08B568
S1136CE0FCF72DFC08BD08B5FCF729FC08BD08B568
S1136CF0FCF725FC08BD08B5FCF721FC08BD08B568
S1136D00FCF71DFC08BD08B5FCF719FC08BD08B567
S1136D10FCF715FC08BD08B5FCF711FC08BD08B567
S1136D20FCF70DFC08BD08B5FCF709FC08BD08B567
S1136D30FCF705FC08BD08B5FCF701FC08BD08B567
S1136D40FCF7FDFB08BD08B5FCF7F9FB08BD08B569
S1136D50FCF7F5FB08BD08B5FCF7F1FB08BD08B569
S1136D60FCF7EDFB08BD08B5FCF7E9FB08BD08B569
S1136D70FCF7E5FB08BD08B5FCF7E1FB08BD08B569
S1136D80FCF7DDFB08BD08B5FCF7D9FB08BD08B569
S1136D90FCF7D5FB08BD08B5FCF7D1FB08BD08B569
S1136DA0FCF7CDFB08BD08B5FCF7C9FB08BD08B569
S1136DB0FCF7C5FB08BD08B5FCF7C1FB08BD08B569
S1136DC0FCF7BDFB08BD08B5FCF7B9FB08BD08B569
S1136DD0FCF7B5FB08BD08B5FCF7B1FB08BD08B569
S1136DE0FCF7ADFB08BD08B5FCF7A9FB08BD08B569
S1136DF0FCF7A5FB08BD08B5FCF7A1FB08BD08B569
S1136E00FCF79DFB08BD08B5FCF799FB08BD08B568
S1136E10FCF795FB08BD08B5FCF791FB08BD08B568
S1136E20FCF78DFB08BD08B5FCF789FB08BD08B568
S1136E30FCF785FB08BD08B5FCF781FB08BD08B568
S1136E40FCF77DFB08BD08B5FCF779FB08BD08B568
S1136E50FCF775FB08BD08B5FCF771FB08BD08B568
S1136E60FCF76DFB08BD08B5FCF769FB08BD08B568
S1136E70FCF765FB08BD08B5FCF761FB08BD08B568
S1136E80FCF75DFB08BD08B5FCF759FB08BD08B568
S1136E90FCF755FB08BD08B5FCF751FB08BD08B568
S1136EA0FCF74DFB08BD08B5FCF749FB08BD08B568
S1136EB0FCF745FB08BD08B5FCF741FB08BD08B568
S1136EC0FCF73DFB08BD08B5FCF739FB08BD08B568
S1136ED0FCF735FB08BD08B5FCF731FB08BD08B568
S1136EE0FCF72DFB08BD08B5FCF729FB08BD08B568
S1136EF0FCF725FB08BD08B5FCF721FB08BD08B568
S1136F00FCF71DFB08BD08B5FCF719FB08BD042000
S1136F107146084202D0EFF3098001E0EFF30880E4
S1136F2081690A884BF6AB639A4200D0FEE70231CE
S1136F30816120210160704700BF80B582B000AF3D
S1136F4003463A60FB710B46BB71BA79F8793B682A
S1136F500121FCF743FD00BF0837BD4680BD80B565
S1136F6084B000AF03460A46FB711346BB71BA797D
S1136F70F87900230021FCF731FDF860FB6818461E
S1136F801037BD4680BD80B500AF0020FDF76AF81C
S1136F900346184680BD80B584B000AF786007F121
S1136FA0080379681846FDF775FB0346002B06D1E4
S1136FB007F108031846FDF797F8002300E00123C2
S1136FC018461037BD4680BD80B483B000AF7860EA
S1136FD07B681846A0F101000028FBD100BF0C37E4
S1136FE0BD465DF8047B704780B582B000AF0346B0
S1136FF0FB71FB7901211846FDF790FD00BF0837AE
S1137000BD4680BD80B584B000AFF860B96013465A
S1137010FB71FB791A46B968F868FDF74FFE00BFAB
S11370201037BD4680BD80B582B000AF0346FB710A
S1137030FB7901211846FDF7BFFE00BF0837BD46A6
S113704080BD80B483B000AF78607B689B6843F0F8
S113705002027B689A607B689B6823F002027B686B
S11370609A6000BF0C37BD465DF8047B704780B45E
S113707000AF00BFBD465DF8047B704780B400AF2D
S113708000BFBD465DF8047B704780B485B000AF97
S113709078607B68002B02D10023FB8102E042F67A
S11370A0AF73FB81FB8918461437BD465DF8047B3A
S11370B0704780B483B000AFEFF310833B603B684C
S11370C07B6072B600BF7B6818460C37BD465DF81E
S11370D0047B704780B485B000AF78607B68FB6048
S11370E0FB6883F3108800BF00BF1437BD465DF80A
S11370F0047B704780B586B000AFF860B9607A60F1
S11371003B6043F22153FB82FB681B78012B08D1BF
S1137110FB680C333A687968184600F0E0F80346D7
S1137120FB82FB8A18461837BD4680BD80B586B001
S113713000AFF860B9607A60FB68002BFCD0BB68D4
S1137140002BFCD07B68002BFCD0FB687B617B6947
S11371501B683B613B69002BFCD07B68BA6879698A
S11371603869FFF7C7FF034618461837BD4680BD88
S113717080B584B000AF7860396043F22153FB815D
S11371803B68002BFCD07B68002BFCD000BF7B68E5
S1137190BB6010220021B86800F033F93B681A7A0A
S11371A0BB681A703B681B7A012B0BD1BB6803F1D7
S11371B00C023B68DB681946104600F071F8034680
S11371C0FB8100E000BFFB8918461037BD4680BD37
S11371D080B586B000AF786039607B68002BFCD046
S11371E03B68002BFCD000BF7B687B613B683B6144
S11371F0FFF75FFFF8607B699B685A1C7B699A60A4
S1137200F868FFF767FF04220021386800F0F9F8F6
S11372103B697A691A60002318461837BD4680BD59
S113722080B586B000AF786039600023FB827B684C
S1137230002BFCD03B68002BFCD000BF7B683B617B
S11372403B68FB60FFF735FFB8603B695B68002B68
S113725003D043F22253FB820AE03B69FA685A6086
S113726004220021386800F0CCF8FB683A691A60FF
S1137270B868FFF72FFFFB8A18461837BD4680BD54
S113728080B584B000AFF860B9607A607A68B96894
S1137290F868FFF74BFF034618461037BD4680BD1C
S11372A080B584B000AF786039600023FB813B680F
S11372B0002BFCD07B68002BFCD000BF7B68BB603C
S11372C0BB6839681846FEF729FB0346FB81FB8936
S11372D0002BFCD1FB8918461037BD4680BD80B514
S11372E086B000AFF860B9607A60FB68002BFCD010
S11372F0BB68002BFCD07B68002BFCD0FB687B6157
S11373007B697A68B9681846FEF76EFB034618462F
S11373101837BD4680BD80B500AF1920FEF7C0FB0D
S11373200346184680BD80B582B000AFFFF7F3FF77
S113733078607B6801224FF4E1310120FCF7AAF95F
S113734000BF0837BD4680BD80B483B000AF78600D
S11373500B46FB707B685B6923F000527B685A61C3
S11373607B685B6823F4F852FB781B0203F4F85340
S11373701A437B685B681A437B685A6000BF7B686A
S11373809B6803F00043B3F1004FF8D100BF00BF86
S11373900C37BD465DF8047B704780B582B000AF02
S11373A00346FB71FB7901211846FEF75DFD00BF22
S11373B00837BD4680BD80B485B000AFF860B960C1
S11373C07A603B60BB6803F00F01FB691B0103F0AB
S11373D01002FB680A431A607B68002B02D07B68AA
S11373E03A681A6000BF1437BD465DF8047B7047E5
S11373F008B5FEF78FFDBDE80840FCF77DBA00F044
S1137400EDB900F005BAA8B14FF0805340F80C3C38
S113741050F8042C72B11368B3F1805F0AD150F8AC
S1137420083C516803330B4440F8083C936840F827
S1137430043CEDE7704770B5C468A50708D0B2F501
S1137440007F11D0B2F5806F04D0B2F5807F0BD0ED
S1137450012008E000F124010123224301610160BD
S1137460C361C260002070BD5E1E6FF07F45AE42F6
S1137470F3D3EDE7421C10B58307044616D1234627
S113748054F8041BA1F1013020EA010010F0803F00
S1137490F5D011F0FF0F11D011F47F4F0CD011F47F
S11374A07F0F14BF23460333981A04E010F8013BFE
S11374B0002BE1D1801A10BD0233F5E70133F3E765
S11374C0C368826923F0200310B5C3600446836A4D
S11374D09A420ED000F048F8E36823F4405323F0B6
S11374E0100343F01003E360A36AA3612369E3621A
S11374F02360E36823F4804323F04003E36010BD7A
S113750070B50D4606461046144600F056F82B7822
S1137510722B17D0772B18D0612B23D1082348F274
S1137520020215F8011F2B2912D0622915D01B075E
S1137530E260666104D5022200212046FEF77EFD4A
S1137540204670BD00230122EBE704230222E8E772
S113755042F0030243F00203E3E742F0040243F083
S11375600103DEE70024EBE738B50168044605694A
S1137570C36AC06820F40022E26000F08202022A9A
S113758002D04FF0FF3038BD10F48030FBD0994268
S113759038BF19468D4208D1E3680020E56223F420
S11375A080332560A060E360EDE72246491B28464E
S11375B0FEF7ECFC0028EFD0E3E7F0B5C46889B02F
S11375C00546A10722D0220718D4D0E90467FEF7A4
S11375D013FD384600F035F9230502D53046FFF790
S11375E012FFA40DA40514F1A54F07D12022296A86
S11375F0684600F035F9684600F00BF83C2200219B
S11376002846FFF7FEFE002009B0F0BD4FF0FF3022
S1137610FAE710B50446FFF72DFF01462046BDE802
S1137620104000F017B9C36870B513F003060446A0
S113763011D09B0611D5856AFFF742FFE368204607
S113764023F44053E360FFF78FFF002206462946E8
S11376502046FEF7F3FC304670BD816905680D4491
S113766001696D1AEAE75FF0000C30B51C0022D105
S113767012006FD0914206D305460846002100F05F
S11376806FF80446284600F06BF80A462146BDE828
S113769030401CF0404F08BF704703D54942404278
S11376A061F100015FEA8C0C38BF70475B425242C3
S11376B063F10003704742D41C0C04BF1B040CF19B
S11376C0100C13F07F4F04BF1B020CF1080C13F0D5
S11376D0704F04BF1B010CF1040C13F0404F04BFA6
S11376E00CF1020C5FEA83035CBF0CF1010C5B003C
S11376F0CCF1200E22FA0EF4234302FA0CF200FA23
S11377000CF520FA0EF001FA0CF4204321FA0EF1E4
S113771014461A4600F024F8A4FB0023AA1A71EBBD
S113772003033CBF1B190138CCF1200E22FA0CF2E2
S113773003FA0EF4224323FA0CF30021A7E7821A7A
S113774071EB03033CBF02460B464FF0000141F1CD
S113775000009CE700200021BDE8304000F03DB867
S11377600423B1EB122F09D2090241EA106100028D
S1137770013B08BF7047B1EB122FF5D30018494104
S113778034BF9142891A4041494134BF9142891A18
S11377904041494134BF9142891A4041494134BF73
S11377A09142891A4041494134BF9142891A40416A
S11377B0494134BF9142891A4041494134BF914201
S11377C0891A4041494134BF9142891A4041A3F189
S11377D0010313F00F0FD2D17047704740EA010341
S11377E0DB0703460CD40346043A22BF51F804CB0A
S11377F043F804CBB2F10402F7D2043208BF704755
S1137800013A24BF11F801CB03F801CBF8D8704733
S1137810034613F0030F0ED101F0FF0141EA0121E9
S113782041EA0141043A24BF43F8041BB2F10402C3
S1137830F9D202F10402013A24BF03F8011BFAE76A
S113784070474FF0FF3070474FF0FF3070474FF0F4
S1137850FF3070474FF0FF3070474FF0FF307047F4
S11378604FF0FF30704710467047FFFF41535345B8
S11378705254204552524F522022202573200A0090
S11378802E66736C5F616E61746F705F61692E63E5
S11378903A323631203A2066616C736500FFFFFF8F
S11378A02E66736C5F636C6F636B2E683A3233378A
S11378B038203A206672657100FFFFFF020503005D
S11378C007160F1C02050300140F09180205030014
S11378D00F18090D02050300140F0918020503000F
S11378E018090B11020503001018090D0205030005
S11378F010180B0902050300140F0A1802050300EF
S11379000910180A020503001018090D02050300E6
S11379101018090D020503000F181A0D02050300C3
S11379201018090D020503001018090D02050300C3
S1137930101813140205030010181A1C0205030082
S113794010181A1C02050300101813140205030072
S11379501018131402050300101813140205030071
S113796011090C0F0205030011090C0F0205030095
S11379701018090D020503001018090D0205030073
S1137980140F0D18020503001018090D0205030059
S11379901018090D020503001018090D0205030053
S11379A01018090D020503001018090D0205030043
S11379B01018090D020503001018090D0205030033
S11379C01018090D020503001018090D0205030023
S11379D01018090D02050300140F0D180205030009
S11379E0140F0D18020503001018090D02050300F9
S11379F01018090D020503001018090D02050300F3
S1137A001018090D02050300140F0D1802050300D8
S1137A10140F0D18020503001318090D02050300C5
S1137A201318090D020503001318090D02050300BC
S1137A301318090D02050300140F1318020503009F
S1137A40140F1318020503001018090D0205030092
S1137A501018090D02050300171A180B020503007C
S1137A60171A180B02050300171A180B0205030056
S1137A70171A180B02050300171A180B0205030046
S1137A80171A180B02050300171A180B0205030036
S1137A900C0A1807020503000C0A18070205030064
S1137AA018101A0D0205030018101A0D0205030020
S1137AB0140F1A18020503001A0F130D0205030010
S1137AC01A13180D020503001A13180D02050300FA
S1137AD01A13180D02050300140F1A1802050300E7
S1137AE0090B0F1C02050300090C111C02050300FD
S1137AF0090C111C02050300090A111C02050300EC
S1137B00090A111C020503000C0F0A1C02050300DC
S1137B100C0F0A1C020503000C0F0A1C02050300CB
S1137B200C0F121C020503000C09121802050300B5
S1137B300D01121A2E66736C5F636C6F636B2E6398
S1137B403A3636203A2028636F6E6669672D3E6C9C
S1137B506F6F7044697669646572203C3D204152C0
S1137B604D5F504C4C5F4449565F53454C5F4D410B
S1137B7058292026262028636F6E6669672D3E6C7F
S1137B806F6F7044697669646572203E3D2041528E
S1137B904D5F504C4C5F4449565F53454C5F4D49D3
S1137BA04E2900FF2E66736C5F636C6F636B2E63EC
S1137BB03A323231203A2066726163203C3D2050D3
S1137BC046445F465241435F4D4158202626206675
S1137BD0726163203E3D205046445F465241435FFC
S1137BE04D494E002E66736C5F636C6F636B2E633E
S1137BF03A323334203A2066616C736500FFFFFF2C
S1137C002E66736C5F636C6F636B2E633A3235362A
S1137C10203A2028706C6C203D3D206B434C4F4330
S1137C204B5F506C6C5379733229207C7C20287014
S1137C306C6C203D3D206B434C4F434B5F506C6C50
S1137C4053797333290000002E66736C5F636C6F85
S1137C50636B2E633A323639203A2066616C736561
S1137C60000000002E66736C5F636C6F636B2E63A1
S1137C703A323734203A202866726163203E3D2030
S1137C805046445F465241435F4D494E29202626C3
S1137C90202866726163203C3D205046445F465272
S1137CA041435F4D415829002E66736C5F636C6FCE
S1137CB0636B2E633A353430203A206366670000E4
S1137CC02E66736C5F636C6F636B2E633A3534326C
S1137CD0203A202866726571496E4D687A203C3DD1
S1137CE020726566467265712920262620286672F0
S1137CF06571496E4D687A203E3D20313536290044
S1137D002E66736C5F636C6F636B2E633A3837381F
S1137D10203A2028706C6C203D3D206B434C4F432F
S1137D204B5F506C6C417564696F29207C7C202802
S1137D30706C6C203D3D206B434C4F434B5F506C4B
S1137D406C566964656F29002E66736C5F636C6F93
S1137D50636B2E633A393532203A2066616C736561
S1137D60000000002E66736C5F636C6F636B2E63A0
S1137D703A393535203A2066726571002E66736C87
S1137D805F636C6F636B2E633A31303637203A2071
S1137D9066616C73650000002E66736C5F636C6FC4
S1137DA0636B2E633A31303730203A206672657146
S1137DB000FFFFFF2E66736C5F636F6D6D6F6E2E39
S1137DC0633A323438203A20305520213D2064650E
S1137DD06C61795F757300002E66736C5F636F6D01
S1137DE06D6F6E2E633A323530203A20636F756EB4
S1137DF074203C3D2055494E5433325F4D41580068
S1137E000000000000C01240000013400040134076
S1137E100080134000C013400000144000C0C5405F
S1137E200000C6400040C6400080C64000C0C640B6
S1137E300000C7400000CA400080004200C0004269
S1137E408A33333333333333333333333333FFFF0F
S1137E502E66736C5F6770696F2E633A3537203A0C
S1137E6020696E7374616E6365203C2041525241F7
S1137E70595F53495A4528735F6770696F4261734C
S1137E80657329002E66736C5F6770696F2E633AA1
S1137E90313133203A2070696E203C203332550052
S1137EA00000000000C007400000084000400840F7
S1137EB00080084000C0084000000940004009401C
S1137EC00080094000C0094000000A400040C24050
S1137ED00080C2408A565758595A5B5C5D5E5F60A9
S1137EE061FFFFFF2E66736C5F6C70756172742E98
S1137EF0633A313236203A20696E7374616E636579
S1137F00203C2041525241595F53495A4528735FDE
S1137F106C707561727442617365732900FFFFFFB1
S1137F202E66736C5F6C70756172742E633A3234B2
S1137F3035203A204E554C4C20213D20636F6E660F
S1137F40696700002E66736C5F6C70756172742EC5
S1137F50633A323436203A203055203C20636F6E29
S1137F606669672D3E62617564526174655F427033
S1137F70730000002E66736C5F6C70756172742EF2
S1137F80633A323438203A202875696E74385F7445
S1137F902946534C5F464541545552455F4C505514
S1137FA04152545F4649464F5F53495A456E2862D1
S1137FB061736529203E3D20636F6E6669672D3EBF
S1137FC074784669666F57617465726D61726B008F
S1137FD02E66736C5F6C70756172742E633A323402
S1137FE039203A202875696E74385F742946534CD9
S1137FF05F464541545552455F4C50554152545F7C
S11380004649464F5F53495A456E28626173652954
S1138010203E3D20636F6E6669672D3E7278466927
S1138020666F57617465726D61726B002E66736C56
S11380305F6C70756172742E633A353231203A2068
S11380404E554C4C20213D20636F6E66696700FFDE
S11380502E66736C5F6C70756172742E633A383778
S113806038203A204E554C4C20213D2064617461E7
S113807000FFFFFF2E66736C5F706D752E633A38D8
S11380803638203A20636F6E66696720213D204EA2
S1138090554C4C002E66736C5F706D752E633A38C8
S11380A03836203A20636F6E66696720213D204E82
S11380B0554C4C000000000000C007400000084080
S11380C0004008400080084000C00840000009400B
S11380D0004009400080094000C0094000000A40F7
S11380E00040C2400080C2402E66736C5F616461D0
S11380F0707465725F6C70756172742E633A323598
S113810034203A2068616E646C6500002E66736CDE
S11381105F616461707465725F6C70756172742EF6
S1138120633A323535203A20636F6E666967000022
S11381302E66736C5F616461707465725F6C7075D8
S11381406172742E633A323536203A20636F6E665C
S113815069672D3E696E7374616E6365203C2028E7
S113816073697A656F6628735F4C707561727441C8
S11381706461707465724261736529202F2073698C
S11381807A656F66284C50554152545F5479706536
S1138190202A2929000000002E66736C5F61646147
S11381A0707465725F6C70756172742E633A3235E7
S11381B037203A20735F4C7075617274416461704A
S11381C0746572426173655B636F6E6669672D3EA9
S11381D0696E7374616E63655D00FFFF2E66736C78
S11381E05F616461707465725F6C70756172742E26
S11381F0633A333534203A2068616E646C6500005C
S11382002E66736C5F616461707465725F6C707507
S11382106172742E633A333535203A206461746197
S1138220000000002E66736C5F6164617074657297
S11382305F6C70756172742E633A333536203A2060
S11382406C656E67746800FF433A5C5573657273BE
S11382505C6E786130363534385C446F63756D65B7
S11382606E74735C4D43555870726573736F4944F3
S1138270455F31312E332E305F353135385F7072C2
S11382806332202D20436F70795C776F726B73704B
S11382906163655C65766B6D696D787274313137D5
S11382A0305F696C65645F626C696E6B795F636D86
S11382B0375F696E745F52414D5C647269766572B2
S11382C0732F66736C5F636C6F636B2E683A323323
S11382D03738203A206672657100FFFF02050300FB
S11382E007160F1C02050300140F091802050300EA
S11382F00F18090D02050300140F091802050300E5
S113830018090B11020503001018090D02050300DA
S113831010180B0902050300140F0A1802050300C4
S11383200910180A020503001018090D02050300BC
S11383301018090D020503000F181A0D0205030099
S11383401018090D020503001018090D0205030099
S1138350101813140205030010181A1C0205030058
S113836010181A1C02050300101813140205030048
S11383701018131402050300101813140205030047
S113838011090C0F0205030011090C0F020503006B
S11383901018090D020503001018090D0205030049
S11383A0140F0D18020503001018090D020503002F
S11383B01018090D020503001018090D0205030029
S11383C01018090D020503001018090D0205030019
S11383D01018090D020503001018090D0205030009
S11383E01018090D020503001018090D02050300F9
S11383F01018090D02050300140F0D1802050300DF
S1138400140F0D18020503001018090D02050300CE
S11384101018090D020503001018090D02050300C8
S11384201018090D02050300140F0D1802050300AE
S1138430140F0D18020503001318090D020503009B
S11384401318090D020503001318090D0205030092
S11384501318090D02050300140F13180205030075
S1138460140F1318020503001018090D0205030068
S11384701018090D02050300171A180B0205030052
S1138480171A180B02050300171A180B020503002C
S1138490171A180B02050300171A180B020503001C
S11384A0171A180B02050300171A180B020503000C
S11384B00C0A1807020503000C0A1807020503003A
S11384C018101A0D0205030018101A0D02050300F6
S11384D0140F1A18020503001A0F130D02050300E6
S11384E01A13180D020503001A13180D02050300D0
S11384F01A13180D02050300140F1A1802050300BD
S1138500090B0F1C02050300090C111C02050300D2
S1138510090C111C02050300090A111C02050300C1
S1138520090A111C020503000C0F0A1C02050300B2
S11385300C0F0A1C020503000C0F0A1C02050300A1
S11385400C0F121C020503000C091218020503008B
S11385500D01121A433A5C55736572735C6E78614F
S113856030363534385C446F63756D656E74735C96
S11385704D43555870726573736F4944455F31318B
S11385802E332E305F353135385F70726332202DD3
S113859020436F70795C776F726B73706163655C95
S11385A065766B6D696D787274313137305F696CE3
S11385B065645F626C696E6B795F636D375F696E6A
S11385C0745F52414D5C647269766572732F667391
S11385D06C5F636C6F636B2E683A32323833203AC7
S11385E020636F6E666967000205030007160F1C9F
S11385F002050300140F0918020503000F18090DE2
S113860002050300140F09180205030018090B11D1
S1138610020503001018090D0205030010180B09C8
S113862002050300140F0A18020503000910180AB2
S1138630020503001018090D020503001018090DA6
S1138640020503000F181A0D020503001018090D86
S1138650020503001018090D020503001018131475
S11386600205030010181A1C0205030010181A1C36
S11386700205030010181314020503001018131444
S113868002050300101813140205030011090C0F4E
S11386900205030011090C0F020503001018090D4F
S11386A0020503001018090D02050300140F0D182C
S11386B0020503001018090D020503001018090D26
S11386C0020503001018090D020503001018090D16
S11386D0020503001018090D020503001018090D06
S11386E0020503001018090D020503001018090DF6
S11386F0020503001018090D020503001018090DE6
S113870002050300140F0D1802050300140F0D18C1
S1138710020503001018090D020503001018090DC5
S1138720020503001018090D020503001018090DB5
S113873002050300140F0D1802050300140F0D1891
S1138740020503001318090D020503001318090D8F
S1138750020503001318090D020503001318090D7F
S113876002050300140F131802050300140F131855
S1138770020503001018090D020503001018090D65
S113878002050300171A180B02050300171A180B29
S113879002050300171A180B02050300171A180B19
S11387A002050300171A180B02050300171A180B09
S11387B002050300171A180B020503000C0A180718
S11387C0020503000C0A18070205030018101A0D0D
S11387D00205030018101A0D02050300140F1A18DD
S11387E0020503001A0F130D020503001A13180DD6
S11387F0020503001A13180D020503001A13180DBD
S113880002050300140F1A1802050300090B0F1CBC
S113881002050300090C111C02050300090C111CBC
S113882002050300090A111C02050300090A111CB0
S1138830020503000C0F0A1C020503000C0F0A1C9E
S1138840020503000C0F0A1C020503000C0F121C86
S1138850020503000C091218020503000D01121A87
S10B8860030000007200770020
S107886800A4781FCD
S90334E1E7
