S02B000065766B6D696D787274313136305F696C65645F626C696E6B795F636D375F696E745F52414D5F4556F7
S113300000000400B934000011350000B76300006B
S113301015350000173500001935000000000000C8
S11330200000000000000000000000001B3500004C
S11330301D350000000000001F3500003937000076
S1133040CF5C0000D75C0000DF5C0000E75C0000A0
S1133050EF5C0000F75C0000FF5C0000075D00000F
S11330600F5D0000175D00001F5D0000275D00007C
S11330702F5D0000375D00003F5D0000475D0000EC
S11330804F5D0000575D00005F5D0000675D00005C
S11330906F5D0000775D00007F5D0000875D0000CC
S11330A08F5D0000975D00009F5D0000A75D00003C
S11330B0AF5D0000B75D0000BF5D0000C75D0000AC
S11330C0CF5D0000D75D0000DF5D0000E75D00001C
S11330D0EF5D0000F75D0000FF5D0000075E00008B
S11330E00F5E0000175E00001F5E0000275E0000F8
S11330F02F5E0000375E00003F5E0000475E000068
S11331004F5E0000575E00005F5E0000675E0000D7
S11331106F5E0000775E00007F5E0000875E000047
S11331208F5E0000975E00009F5E0000A75E0000B7
S1133130AF5E0000B75E0000BF5E0000C75E000027
S1133140CF5E0000D75E0000DF5E0000E75E000097
S1133150EF5E0000F75E0000FF5E0000075F000006
S11331600F5F0000175F00001F5F0000275F000073
S11331702F5F0000375F00003F5F0000475F0000E3
S11331804F5F0000575F00005F5F0000675F000053
S11331906F5F0000775F00007F5F0000875F0000C3
S11331A08F5F0000975F00009F5F0000A75F000033
S11331B0AF5F0000B75F0000BF5F0000C75F0000A3
S11331C0CF5F0000D75F0000DF5F0000E75F000013
S11331D0EF5F0000F75F0000FF5F00000760000082
S11331E00F600000176000001F60000027600000EF
S11331F02F600000376000003F600000476000005F
S11332004F600000576000005F60000067600000CE
S11332106F600000776000007F600000876000003E
S11332208F600000976000009F600000A7600000AE
S1133230AF600000B7600000BF600000C76000001E
S1133240CF600000D7600000DF600000E76000008E
S1133250EF600000F7600000FF60000007610000FD
S11332600F610000176100001F610000276100006A
S11332702F610000376100003F61000047610000DA
S11332804F610000576100005F610000676100004A
S11332906F610000776100007F61000087610000BA
S11332A08F610000976100009F610000A76100002A
S11332B0AF610000B7610000BF610000C76100009A
S11332C0CF610000D7610000DF610000E76100000A
S11332D0EF610000F7610000FF6100000762000079
S11332E00F620000176200001F62000027620000E6
S11332F02F620000376200003F6200004762000056
S11333004F620000576200005F62000067620000C5
S11333106F620000776200007F6200008762000035
S11333208F620000976200009F620000A7620000A5
S1133330AF620000B7620000BF620000C762000015
S1133340CF620000D7620000DF620000E762000085
S1133350EF620000F7620000FF62000007630000F4
S11333600F630000176300001F6300002763000061
S11333702F630000376300003F63000047630000D1
S11333804F630000576300005F6300006763000041
S11333906F630000776300007F63000087630000B1
S11333A0147C0000147C000004000000147C000065
S11333B00000002000000000147C00000000242015
S11333C000000000147C000000002C20000000001D
S11333D0147C000000802C2000000000147C0000FD
S11333E00000008000000000187C00001C010000A8
S11333F00000002000000000000024200000000065
S113340000002C200000000000802C2000000000A0
S1133410000000800000000010B40B464FF0000CC8
S113342005E050F8044B43F8044B0CF1040C9445AC
S1133430F7D30D4B5B6913F4803F11D0002A0FDDE5
S113344001F01F031A44BFF34F8F074BC3F86812F0
S11334502031203A002AF8DCBFF34F8FBFF36F8F7F
S11334605DF8044B704700BF00ED00E010B4034664
S1133470002203E0002443F8044B04328A42F9D3C7
S11334800C4B5B6913F4803F11D000290FDD00F071
S11334901F031944BFF34F8F064BC3F86802203053
S11334A020390029F8DCBFF34F8FBFF36F8F5DF82D
S11334B0044B704700ED00E010B572B6104B83F377
S11334C0088801F057FB0F4B07E003F10C049A68DE
S11334D059681868FFF7A0FF23460B4A9342F4D3B8
S11334E006E01C46596854F8080BFFF7BFFF234653
S11334F0064A9342F5D362B603F06FF9FEE700BFC4
S113350000000400A0330000E83300001834000079
S1133510FEE7FEE7FEE7FEE7FEE7FEE7FEE7FEE77F
S1133520FEE7FEE7FFFFFFFF70B52DED028B031FE3
S1133530DBB2012B35D8042836D0032500212846D8
S113354002F056FFC0F3426600F07F0430212846A3
S113355002F04EFF08EE100AB8EE488B20212846F0
S113356002F046FF06EE100AB8EE466B07EE904AEC
S1133570B8EE677B86EE085B37EE057B9FED0C6B40
S113358027EE067B0123B34006EE903AB8EE666B55
S113359087EE065BFCEEC57B17EE900ABDEC028B52
S11335A070BD054800F00AF80225C7E7AFF30080B4
S11335B00000000060E376418870000008B5014611
S11335C0024800F06DF800BEFDE700BF186C000073
S11335D010B50C460028FDD0002CFDD0074B1B680D
S11335E03BB122460146064803F083F818B9204649
S11335F010BD0020FCE74FF0FF30F9E7387C0000F5
S1133600307C000010B588B00093019100238DF840
S113361008308DF8093001218DF80A108DF80B104F
S11336208DF80C308DF80D308DF80E008DF81820C3
S113363048F64173ADF81A308A4203D043F2215060
S113364008B010BDCDF81CD0104C2022002120461B
S113365003F0CAF8201D206004A902F0FFFF00282F
S1133660FDD10B4B1B780B4951F8180C03F00FF8E4
S11336700028FDD1084951F81C0C03F01EF800285D
S1133680FDD1024B1A68054B1A60D9E7187C00007B
S1133690307D0000307C0000347C0000387C000069
S11336A00FB400B5A3B0002101917C2202A803F05D
S11336B09BF80A4B1B687BB125A92191084B01AAF1
S11336C0249802F039FA014601A8FFF781FF23B0DC
S11336D05DF804EB04B070470020F8E7387C000084
S11336E04159000080B483B000AF03463960FB80C9
S11336F0B7F90630002B0ADB3B68DAB20C49B7F99C
S113370006301201D2B20B4483F800230AE03B686E
S1133710DAB20849FB8803F00F03043B1201D2B26A
S11337200B441A7600BF0C37BD465DF8047B704726
S113373000E100E000ED00E0034B1B681BB1024A0E
S11337401368013B136070473C7C0000034B186016
S1133750024B1B68002BFBD1704700BF3C7C000070
S113376008B501F067FF01F015FC02F0DFFF02F07D
S113377049FF114B1868114BA3FB0030800902F07C
S113378006FE40B1FEE7002202210D4800F026FFAC
S11337900C4B00221A704FF47A70FFF7D7FF094BD5
S11337A01B78002BEFD101220221054800F016FFFF
S11337B0044B01221A70EEE7147C0000D34D621012
S11337C00040C640317D000010B4062800F2C981D3
S11337D0DFE810F0070039008000CE001C0164010E
S11337E09401C9B1D249D1F8200820F48030C1F83D
S11337F02008D1F8200820F0FF000243C1F8202857
S1133800C1F83038D1F8003583F48033C1F800357D
S113381000205DF8044B7047C54BD3F8201841F4E1
S11338208031C3F82018D3F8201821F0FF010A438F
S1133830C3F82028D3F8002582F48032C3F8002589
S1133840D3F84008E5E711B3B948D0F8501801F4AB
S11338500071D0F8504824F48034C0F85048D0F8AF
S1133860504824F0FF042243C0F85028C0F86038C0
S1133870D0F8503883F48073C0F85038AC4BD3F888
S1133880503803F400739942F8D00020C1E7A84BE4
S1133890D3F8501801F40071D3F8500840F4803084
S11338A0C3F85008D3F8500820F0FF000243C3F8CF
S11338B05028D3F8502882F48072C3F850289C4BC7
S11338C0D3F8503803F400739942F8D0984BD3F8E6
S11338D070089EE749B39648D0F8801801F4007147
S11338E0D0F8804824F48034C0F88048D0F8804868
S11338F024F0FF042243C0F88028C0F89038D0F8A0
S1133900803883F48073C0F88038894BD3F88038CA
S113391003F400739942F8D0854AD2F8803823F42E
S11339208033C2F88038002073E7814BD3F88018C5
S113393001F40071D3F8800840F48030C3F88008A3
S1133940D3F8800820F0FF000243C3F88028D3F89E
S1133950802882F48072C3F88028754BD3F88038AD
S113396003F400739942F8D0714BD3F8A00850E7E0
S113397049B36F48D0F8B01801F40071D0F8B048DA
S113398024F48034C0F8B048D0F8B04824F0FF04E0
S11339902243C0F8B028C0F8C038D0F8B03883F457
S11339A08073C0F8B038624BD3F8B03803F40073B6
S11339B09942F8D05E4AD2F8B03823F48033C2F882
S11339C0B038002025E75A4BD3F8B01801F4007141
S11339D0D3F8B00840F48030C3F8B008D3F8B00886
S11339E020F0FF000243C3F8B028D3F8B02882F4D3
S11339F08072C3F8B0284E4BD3F8B03803F4007388
S1133A009942F8D04A4BD3F8D00802E719B3484892
S1133A10D0F8201901F40071D0F8204924F480343E
S1133A20C0F82049D0F8204924F0FF0C42EA0C02E7
S1133A30C0F82029C0F83039D0F8203983F48073D5
S1133A40C0F820393A4BD3F8203903F40073994273
S1133A50F8D00020DDE6364BD3F8201901F40071CC
S1133A60D3F8200940F48030C3F82009D3F82009A2
S1133A7020F0FF000243C3F82029D3F8202982F460
S1133A808072C3F820292A4BD3F8203903F4007339
S1133A909942F8D0264BD3F84009BAE6B9B1244983
S1133AA0D1F8E00820F48030C1F8E008D1F8E0084B
S1133AB020F0FF000243C1F8E028C1F8F038D1F843
S1133AC0003483F40043C1F800340020A1E6184B0D
S1133AD0D3F8E01841F48031C3F8E018D3F8E018C3
S1133AE021F0FF010A43C3F8E028D3F8002482F44C
S1133AF00042C3F80024D3F810098AE6D1B10C4976
S1133B00D1F8E00820F48030C1F8E008D1F8E008EA
S1133B1020F0FF000243C1F8E028C1F8F038D1F8E2
S1133B20703583F00103C1F87035002071E600BFE1
S1133B300040C8400C4BD3F8E01841F48031C3F87E
S1133B40E018D3F8E01821F0FF010A43C3F8E02895
S1133B50D3F8702582F00102C3F87025D3F8000968
S1133B6057E6002055E600BF0040C840C001024BA4
S1133B701858C0F3022070470000CC40C001024B2B
S1133B801858C0B2013070470000CC4038B5054623
S1133B90FFF7ECFF094B03EBC503185C00F00AFCCC
S1133BA004462846FFF7EAFF0346B4FBF0F09C42C4
S1133BB000D338BD0248FFF701FD00BF2C6C0000A4
S1133BC0A46E000038B54368A3F16802682A4DD892
S1133BD00546354AD2F8002212F4005F11D0324A69
S1133BE0D2F8002223EA020313F0FF0F09D12E4B6F
S1133BF0D3F800320278DB4303EAC23313F4C03F44
S1133C0037D0294C204600F009FFD4F8002222F0D6
S1133C10005312F4C04F05D0244B134043F08043AB
S1133C20C4F80032224A1A402C792B78DB0303F4BF
S1133C30C0331C4314431F4B23431B4AC2F80032B6
S1133C40BFF34F8FBFF36F8F1B491E2000F050FC52
S1133C50154BD3F8003213F0005FF9D024F0804400
S1133C6044F4C044104BC3F8004238BD1348FFF776
S1133C70A5FC0D4BD3F8003213F4804F06D10A4A49
S1133C80D2F8003243F48043C2F80032064BD3F832
S1133C90003213F0804FE8D0034AD2F8003223F008
S1133CA08043C2F80032E0E70040C840FF9FFFDFD6
S1133CB0007FFEDF002000400046C323C06E0000EA
S1133CC038B50446474BD3F8403213F4000F1AD0EA
S1133CD000286BD0434BD3F8603213F4004F02D169
S1133CE0037A002B62D0237ADB039BB262681188CB
S1133CF043EA01435288C2F30E021343394AD2F80D
S1133D006022934252D0374D284600F087FED5F802
S1133D10703243F08033C5F87032D5F84022324B0C
S1133D201A4205D0314B134043F08043C5F840326A
S1133D30A4B1237A93B1636883B1236823F0404329
S1133D40284AC2F8A032616808884B88C3F30E037E
S1133D5043EA004343F40043C2F86032214C244B4D
S1133D60C4F84032234D29461E2000F0C1FB224BEB
S1133D70C4F840322946FA2000F0BAFB1F4BC4F8BD
S1133D804032184BD3F8403213F0005FF9D0154B92
S1133D901B4AC3F8402202F14042C3F84022D3F840
S1133DA0702202F07F32C3F8702238BD0D4BD3F875
S1133DB0403213F4005F06D10A4AD2F8403243F489
S1133DC00053C2F84032074BD3F8403213F0804F0F
S1133DD0EBD0044AD2F8403223F08043C2F8403298
S1133DE0E3E700BF0040C84000208000FFDF7FFF02
S1133DF0080000400046C3230808804008008040B3
S1133E0008208040F0B583B0A2F10C03DBB2172B7D
S1133E1048D802284CD0032847D1274E27480368A6
S1133E20CC003F25A5402B40E340DBB207684FF0B0
S1133E30800E0EFA04FE07EA0E0C0827CF403CFA67
S1133E4007F70CBF012700279A4214BF002707F089
S1133E5001072FBB03684FF0400C0CFA04FC03EA83
S1133E600C03019303684EEA03030360036823EA27
S1133E7005050560036802F03F02A2401A43026090
S1133E803368022202FA01F159403160036823EADF
S1133E900E03036003680CEA0303019A9342F9D00A
S1133EA003B0F0BD0648FFF789FB0648FFF786FB21
S1133EB0054E0648B3E700BF2042C8403042C84020
S1133EC0446F0000986F00005042C8407042C840E0
S1133ED008B5831EDBB2012B0CD802280DD00328B1
S1133EE020D1134BD3F83002CA003F23934018402B
S1133EF0104B0AE01048FFF761FB0D4BD3F870023A
S1133F00CA003F23934018400C4BC900C840A0F19D
S1133F100C02172A09D820B1B3FBF0F000EBC00063
S1133F20400008BD0648FFF749FB0648FFF746FB7B
S1133F300040C84000389C1CB46F000000A4781FE7
S1133F40FC6F00001870000038B5264BD3F810320F
S1133F5013F4001F1AD0234BD3F8103213F4005F6C
S1133F6006D1204AD2F8103243F40053C2F810327A
S1133F701C4BD3F8103213F0804F31D0194AD2F8C9
S1133F80103223F08043C2F8103229E0154C204649
S1133F9000F044FDD4F8303243F08033C4F83032BA
S1133FA0114BC4F81032114D29461E2000F0A0FA1E
S1133FB00F4BC4F8103229461E2000F099FA0D4B1D
S1133FC0C4F81032074BD3F8103213F0005FF9D065
S1133FD0044B094AC3F8102202F14042C3F81022EC
S1133FE038BD00BF0040C840100000400046C32355
S1133FF010082040100020401820204008B5052853
S113400040D8DFE800F003131727373B41B11F4BBB
S1134010D3F8003243F400331C4AC2F8003208BD1E
S11340201A4BD3F8003223F40033F5E7012002F0F1
S11340300CFAF4E741B1154BD3F8403243F4803322
S1134040124AC2F84032EAE7104BD3F8403223F464
S11340508033F5E741B10D4BD3F8103243F480338C
S11340600A4AC2F81032DAE7084BD3F8103223F4C4
S11340708033F5E7022002F0E8F9D0E7032002F0EC
S1134080E4F9CCE70248FFF799FA00BF0040C840C2
S11340907070000038B504460D46012102F0E9F9BC
S11340A00449284600F024FA0021204602F0E1F9F0
S11340B038BD00BF0046C3232DE9F04182B0044659
S11340C00D4616461F46DDF82480012832D1B8F18A
S11340D0000F0DD0B8F80220C2F30E02B8F8003079
S11340E042EA034242F400421021204602F079F9E8
S11340F0089A3021204602F074F9324620212046E5
S113410002F06FF9002100917F232A46204602F035
S113411076F9012C12D10121204602F0A0F90C49B4
S1134120642000F0E5F90121204602F07FF902B095
S1134130BDE8F081002102F079F9C8E71923009362
S11341404FF060633A460021204602F058F9E2E756
S11341500046C32338B9084AD2F8003323F4804315
S1134160C2F800337047044AD2F8003343F4804362
S1134170C2F80033704700BF0040C84038B9084A4D
S1134180D2F8003323F40053C2F800337047044AD2
S1134190D2F8003343F40053C2F80033704700BF31
S11341A00040C84038B9084AD2F8503323F4804359
S11341B0C2F850337047044AD2F8503343F4804372
S11341C0C2F85033704700BF0040C84038B9084AAD
S11341D0D2F8503323F40053C2F850337047044AE2
S11341E0D2F8503343F40053C2F85033704700BF41
S11341F00040C84030B583B00446274D284600F03F
S11342000DFCD5F8503303F02023B3F1202F2BD02D
S113421000250121032002F018F93DBB0120FFF71E
S1134220D5FF217862686378A068257C8DB3E46843
S1134230019400900320FFF73FFFE1210320FFF7E3
S113424029FF154BD3F8503313F0005FF9D0012147
S1134250032002F022F90020FFF7A4FF002103202D
S113426002F0F3F803B030BD0125D2E70020FFF7D8
S1134270ADFF0120FFF796FF0021032002F00DF9A6
S11342800021032002F0D2F80021032002F0E7F815
S1134290C4E70024CCE700BF0040C84038B9084A4E
S11342A0D2F8C03223F48043C2F8C0327047044AC3
S11342B0D2F8C03243F48043C2F8C032704700BF22
S11342C00040C84038B9084AD2F8C03223F000731D
S11342D0C2F8C0327047044AD2F8C03243F00073C7
S11342E0C2F8C032704700BF0040C84038B9084A1D
S11342F0D2F8C03223F08063C2F8C0327047044A57
S1134300D2F8C03243F08063C2F8C032704700BFB5
S11343100040C84038B9084AD2F8C03223F40053E8
S1134320C2F8C0327047044AD2F8C03243F4005392
S1134330C2F8C032704700BF0040C84008B5052825
S11343401ED8DFE800F0032725201519124BD3F8F7
S11343500002C0B2D3F80032C3F3C13301330222E6
S11343609A400E4BB3FBF2F303FB00F068B108BDB7
S11343700420FFF7D9F8F9E70520FFF7D5F8F5E7AA
S11343800748FFF71BF90748F1E70748FFF716F955
S11343900648ECE70648EAE70040C84000366E01EC
S11343A0D470000000389C1CF070000000A4781F3A
S11343B000CA9A3B08B5FF2813D01E286BD8DFE843
S11343C000F07876716F6D6D131319191D22272C67
S11343D03131353A3F44494E4E52575F5F6363670C
S11343E067003548FFF7EAF80020FFF7A7FF002829
S11343F05AD008BD0220FFF7A1FFF8E700210220F0
S1134400FFF766FDF3E701210220FFF761FDEEE708
S113441002210846FFF75CFDE9E703210220FFF7CC
S113442057FDE4E70320FFF789FFE0E70320FFF7E8
S113443085FF4008DBE700210320FFF749FDD6E7AD
S113444001210320FFF744FDD1E702210320FFF7F8
S11344503FFDCCE703210846FFF73AFDC7E70120FB
S1134460FFF76CFFC3E70120FFF768FF4008BEE7D2
S11344700120FFF763FF114BA3FB00308008B6E770
S11344800420FFF75BFFB2E70520FFF757FFAEE715
S113449001F0C7FFABE70A48FFF790F80948A8E71F
S11344A00948A6E70748A4E70848FFF787F808483B
S11344B09FE708489DE700BF0C710000CDCCCCCC31
S11344C03871000000366E010084D7175471000063
S11344D0006CDC020024F400044B1A6D22F001028B
S11344E01A651A6E42F001021A6670470040C8400D
S11344F098B108B5A1FB00014FF0FF338342074B8D
S11345008B4107D3064A002302F09EFA400002F0D2
S113451019F808BD0348FFF751F870473F420F00F0
S1134520C0C62D0070710000C9B200F540735B0174
S1134530084AD3584B4013F0010F09D001F0010190
S113454000F5407040011150BFF34F8FBFF36F8FE0
S1134550704700BF0000CC4008B5024600200F2879
S113456006D8064B53F82030934201D00130F6E7C9
S11345700F2800D808BD0248FFF720F89C710000FE
S1134580EC710000F8B504460E461746FFF7E4FF49
S11345900D2803D8104B185C8A2811D163690125B2
S11345A0B540EA4323EA050363613B785BB963687A
S11345B01A406260BA783146204601F0CEFFF8BD59
S11345C001F0C6FFEAE77A783146204600F006F8A3
S11345D063681D436560EDE7DC71000008B51F29C1
S11345E006D842B9012303FA01F1C0F8881008BDC6
S11345F00448FEF7E3FF012303FA01F1C0F8841035
S1134600F5E700BF20720000C9B200F540735B01FA
S1134610084AD3584B4013F0010F09D001F00101AF
S113462000F5407040011150BFF34F8FBFF36F8FFF
S1134630704700BF0000CC4008B5024600200C289B
S113464006D8064B53F82030934201D00130F6E7E8
S11346500C2800D808BD0248FEF7B0FF3C720000E9
S1134660807200002DE9784779B106469446884661
S11346700A686AB10B7A042B0DD84B7A042B0DD837
S1134680964604200024A2460FE06548FEF796FFF4
S11346906448FEF793FF6448FEF790FF6348FEF713
S11346A08DFF511A1AE00130C0B220281CD80CEB3F
S11346B08C035B00014600FB02F9B3FBF9F30533FD
S11346C05B4DA5FB0353C3F3CF0303B9012303FBE2
S11346D001F1BCFBF1F18A42E3D2891A8E45E2D39F
S11346E08E4604469A46DEE7524BA3FB0232520939
S11346F002EB4202724503D240F22150BDE87887B2
S11347003046FFF799FF4C4B185C01F06DFF3046C3
S113471001F06FFF3369221FD2B2032A01D843F498
S1134720003323F0F852631E1B0603F0F8531343BF
S1134730424A1A40CAF30C0313433361336923F02A
S113474000533361B3693E49194098F8040098F85E
S11347500F301B0203F4E063034398F80E20920029
S113476002F0040213430B4398F80520012A4DD0AC
S113477008B143F01003B361326922F4005298F88F
S113478007305B0303F400531343336198F80920A3
S113479098F8083043EA0243F362B36A43F08803AB
S11347A0B362B36A43F44043B362716A98F80D305C
S11347B01B0103F0100398F80C20520102F02002B0
S11347C013430B43736298F80A301BB1736A43F0C6
S11347D00803736298F80B301BB1736A43F001034A
S11347E0736298F80630C3B1164A73691343736150
S11347F0B36998F810200AB143F4002398F8112003
S11348000AB143F48023B361002077E710B123F4A5
S11348100063B0E743F40063ADE70B4AE5E700BF8C
S1134820BC720000E0720000107300006C730000A2
S1134830CDCCCCCC1F85EB517072000000E0FFFFA3
S1134840E8F8FFFF00C01FE000C01FC010B5B8B1FA
S113485004461422002101F0C7FF4FF4E133236022
S1134860002323716371A371E37123726372A372D2
S1134870E37263732373A373E3732374637410BDCC
S11348800148FEF79BFE00BFC873000008B58C46C4
S113489051B90948FEF792FE436913F4000FFBD0A7
S11348A01CF8013BC361013A002AF5D1436913F4B2
S11348B0800FFBD0002008BDEC73000008B5044B4A
S11348C01B68044A516804489847BFF34F8F08BDDA
S11348D0747C0000407C000000C0074008B5044B15
S11348E01B68044A916804489847BFF34F8F08BD7A
S11348F0747C0000407C00000000084008B5044BB4
S11349001B68044AD16804489847BFF34F8F08BD19
S1134910747C0000407C00000040084008B5044B53
S11349201B68044A116904489847BFF34F8F08BDB8
S1134930747C0000407C00000080084008B5044BF3
S11349401B68044A516904489847BFF34F8F08BD58
S1134950747C0000407C000000C0084008B5044B93
S11349601B68044A916904489847BFF34F8F08BDF8
S1134970747C0000407C00000000094008B5044B32
S11349801B68044AD16904489847BFF34F8F08BD98
S1134990747C0000407C00000040094008B5044BD2
S11349A01B68044A116A04489847BFF34F8F08BD37
S11349B0747C0000407C00000080094008B5044B72
S11349C01B68044A516A04489847BFF34F8F08BDD7
S11349D0747C0000407C000000C0094008B5044B12
S11349E01B68044A916A04489847BFF34F8F08BD77
S11349F0747C0000407C000000000A4008B5044BB1
S1134A001B68044AD16A04489847BFF34F8F08BD16
S1134A10747C0000407C00000040C24010B5044695
S1134A200021084601F0E4FC40F20513984200D14D
S1134A3010BD1A460021084601F0D3FC05490120A7
S1134A40FFF756FDD4F8703543F01003C4F8703501
S1134A50EEE700BF0046C32338B50446E9B9D0F8F1
S1134A60103523F00503C0F81035204D29464FF4C6
S1134A707A70FFF73DFDD4F8103523F02003C4F815
S1134A80103529464FF47A70FFF732FDD4F810350B
S1134A9023F40023C4F8103538BDD0F8103523F0C2
S1134AA00103C0F81035114D29464FF47A70FFF711
S1134AB01FFDD4F8103543F40023C4F810352946FB
S1134AC04FF47A70FFF714FDD4F8103543F0200347
S1134AD0C4F8103529464FF47A70FFF709FDD4F86D
S1134AE0103543F00403C4F81035D5E70046C3235A
S1134AF038B50446E9B1D0F8303543F40033C0F892
S1134B0030351B4D29464FF47A70FFF7F1FCD4F889
S1134B10303543F48023C4F8303529464FF47A7095
S1134B20FFF7E6FCD4F8303523F00403C4F830353D
S1134B3038BDD0F8303543F00403C0F830350C4D9F
S1134B4029464FF47A70FFF7D3FCD4F8303523F4B8
S1134B508023C4F8303529464FF47A70FFF7C8FC37
S1134B60D4F8303523F40033C4F83035E0E700BF1F
S1134B700046C32310B5614BD3F8882042F4700279
S1134B80C3F888205E4A9A605E4B1B8813F0040FBA
S1134B9006D05C4A13889BB223F004039BB21380B3
S1134BA0594B1B8813F0040F06D0574A13889BB245
S1134BB023F004039BB21380544B1B6813F4005F6F
S1134BC05DD0524B524A5A60504A4FF6FF7393607D
S1134BD0136823F0A00343F0200313604D4B1B68BC
S1134BE013F4005F53D04B4B494A5A60494A4FF67D
S1134BF0FF739360136823F0A00343F02003136052
S1134C004FF0E0231B6913F0010F05D04FF0E022B1
S1134C10136923F001031361384B5B6913F4003FFC
S1134C2018D1364B5B6913F4003F13D1BFF34F8F98
S1134C30BFF36F8F314B0022C3F85022BFF34F8F65
S1134C40BFF36F8F5A6942F400325A61BFF34F8F3A
S1134C50BFF36F8F294B5B6913F4803F3CD1274B23
S1134C605B6913F4803F37D1244B0022C3F88420BE
S1134C70BFF34F8FD3F88040C4F34E3010E0234B82
S1134C804CF220525A604DF628125A609CE7214B90
S1134C904CF220525A604DF628125A60A6E7184684
S1134CA0C4F3C90243F6E07303EA401343EA827390
S1134CB01249C1F860321346013A002BF2D1431E67
S1134CC00028ECD1BFF34F8F4B6943F480334B6121
S1134CD0BFF34F8FBFF36F8F0F4A136F23F400534B
S1134CE01367064A536943F010035361BFF34F8FB0
S1134CF0BFF36F8F01F087FC10BD00BF00ED00E033
S1134D0000300000000003400040034000800340E6
S1134D1020C528D90000C14000400E4010B586B01F
S1134D200C4601A8FFF792FD63680193237A8DF87E
S1134D300830637A8DF80B30A37A003B18BF012347
S1134D408DF81530E37A003B18BF01238DF8143039
S1134D50237B003B18BF01238DF80E30637B003B9F
S1134D6018BF01238DF80F3001238DF812308DF810
S1134D701330A07B226801A9054B53F82000FFF7EC
S1134D8071FC18B101F040FC06B010BD0020FBE737
S1134D901074000038B578B10C46054679B18B7BA8
S1134DA00C2B0FD80A4A52F8233073B1FFF7B6FF21
S1134DB008B9A37B2B7038BD0648FEF7FFFB0648F5
S1134DC0FEF7FCFB0548FEF7F9FB0548FEF7F6FB8A
S1134DD01074000044740000707400009C7400009F
S1134DE00475000008B548B159B16AB10078084BA0
S1134DF053F82000FFF74AFD002008BD0548FEF7E0
S1134E00DDFB0548FEF7DAFB0448FEF7D7FB00BFDD
S1134E1010740000507500007C750000A875000037
S1134E20C001024B1858C0F3022070470000CC4068
S1134E30C001024B1858C0B2013070470000CC408A
S1134E4038B50546FFF7ECFF094B03EBC503185CC7
S1134E50FFF7B0FA04462846FFF7EAFF0346B4FB1F
S1134E60F0F09C4200D338BD0248FEF7A7FB00BF18
S1134E70D075000048780000C001024B1858C0F3F8
S1134E80022070470000CC40C001024B1858C0B249
S1134E90013070470000CC4008B569B14B781B0263
S1134EA003F4E0638A78013AD2B213430A7832B148
S1134EB0120602F0807203E00648FEF77FFB002230
S1134EC01343C001044A1350BFF34F8FBFF36F8FD6
S1134ED008BD00BF507B00000000CC4038B505463B
S1134EE0FFF7CAFF094B03EBC503185CFFF762FA2F
S1134EF004462846FFF7C8FF0346B4FBF0F09C4283
S1134F0000D338BD0248FEF759FB00BFD878000033
S1134F104878000028B1064A136943F0020313617C
S1134F207047034A136923F002031361704700BFFB
S1134F300040C84028B1064A136943F080731361E6
S1134F407047034A136923F080731361704700BFED
S1134F500040C84028B1064A136D43F002031365AC
S1134F607047034A136D23F002031365704700BFB3
S1134F700040C84010B4C468054B2340890201F4C2
S1134F80806119431143C1605DF8044B704700BF51
S1134F9000FBFFFF2DE9F04782B00023ADF8043099
S1134FA08DF80630ED4C01212046FFF755FD012117
S1134FB02046FFF79DFD022001F0AFFAD4F8C0307F
S1134FC043F00203C4F8C030FFF786FA0120FFF76C
S1134FD0C1FF0120FFF79EFF0120FFF7ABFF236A0B
S1134FE043F014032362DD4B1B6A13F0804FFAD0A5
S1134FF000248DF8054001258DF8065001A92046AE
S1135000FFF74AFF01A90820FFF746FFD448FEF73F
S1135010D9FD29462846FEF7F1FF01F060FAD14890
S1135020FEF74EFE1B2221460220FEF7EBFE102265
S113503029460220FEF7E6FE182202210846FEF762
S1135040E1FE182203210220FEF7DCFEFEF77CFFBE
S11350500D2221460320FEF7D5FE11222946032006
S1135060FEF7D0FE202202210320FEF7CBFE1622FB
S113507003210846FEF7C6FE29460420FEF7BEFFBC
S113508001F015FAB848FFF7B5F84FF0040A8DF8A7
S113509005A08DF806500DEB0A012046FFF7FCFE33
S11350A04FF007098DF805904FF002088DF806803F
S11350B00DEB0A014046FFF7EFFE06268DF805606A
S11350C003278DF806700DEB0A015046FFF7E4FE46
S11350D08DF805408DF806500DEB0A010520FFF709
S11350E0DBFE8DF805908DF806A00DEB0A01304625
S11350F0FFF7D2FE8DF80540F0238DF806300DEB56
S11351000A010820FFF7C8FE8DF805408DF8065007
S11351100DEB0A010920FFF7BFFE8DF805408DF85D
S113512006500DEB0A010A20FFF7B6FE8DF8054084
S11351308DF806500DEB0A010B20FFF7ADFE8DF83C
S113514005408DF806500DEB0A010C20FFF7A4FE74
S11351508DF805408DF806500DEB0A010D20FFF780
S11351609BFE8DF805408DF806500DEB0A010E20CC
S1135170FFF792FE8DF805408DF806500DEB0A01FD
S11351800F20FFF789FE8DF805408DF806500DEBD2
S11351900A011020FFF780FE8DF805408DF80650B7
S11351A00DEB0A011120FFF777FE8DF805408DF80D
S11351B006500DEB0A011220FFF76EFE8DF8054034
S11351C08DF806500DEB0A011320FFF765FE8DF8EC
S11351D005408DF806500DEB0A011520FFF75CFE23
S11351E08DF805408DF806500DEB0A011620FFF7E7
S11351F053FE8DF805408DF806500DEB0A0117207B
S1135200FFF74AFE8DF805408DF806500DEB0A01B4
S11352101820FFF741FE8DF805604FF0160A8DF84F
S113522006A001A91920FFF737FE8DF805608DF857
S113523006A001A91A20FFF72FFE8DF805408DF86E
S1135240065001A91B20FFF727FE8DF805408DF8B5
S1135250065001A91C20FFF71FFE8DF805408DF8AC
S1135260065001A91D20FFF717FE8DF805408DF8A3
S1135270065001A91E20FFF70FFE8DF805408DF89A
S1135280065001A91F20FFF707FE8DF805408DF891
S1135290065001A92020FFF7FFFD8DF805408DF889
S11352A0065001A92120FFF7F7FD8DF805408DF880
S11352B0065001A92220FFF7EFFD8DF805408DF877
S11352C0065001A92320FFF7E7FD8DF805408DF86E
S11352D0065001A92420FFF7DFFD8DF805408DF865
S11352E0065001A92520FFF7D7FD8DF805408DF85C
S11352F0065001A92620FFF7CFFD8DF805408DF853
S1135300065001A92720FFF7C7FD8DF805408DF849
S1135310065001A92820FFF7BFFD8DF805408DF840
S1135320065001A92920FFF7B7FD8DF805408DF837
S1135330065001A92A20FFF7AFFD8DF805408DF82E
S1135340065001A92B20FFF7A7FD8DF805408DF825
S1135350065001A92C20FFF79FFD07E00040C8403C
S1135360E47B0000EC7B0000F87B00008DF8054036
S11353708DF8065001A92D20FFF78EFD8DF805400C
S11353808DF8065001A92E20FFF786FD8DF8054003
S11353908DF8065001A92F20FFF77EFD8DF80540FA
S11353A08DF8065001A93020FFF776FD8DF80540F1
S11353B08DF8065001A93120FFF76EFD8DF80540E8
S11353C08DF8065001A93220FFF766FD8DF80540DF
S11353D08DF8065001A93320FFF75EFD8DF80540D6
S11353E08DF8065001A93420FFF756FD8DF80540CD
S11353F08DF8065001A93620FFF74EFD8DF80540C3
S11354008DF8065001A93720FFF746FD8DF80540B9
S11354108DF8065001A93820FFF73EFD8DF80540B0
S11354208DF8065001A93A20FFF736FD8DF80540A6
S11354308DF8065001A93B20FFF72EFD8DF805409D
S11354408DF8065001A93C20FFF726FD8DF8054094
S11354508DF8065001A93D20FFF71EFD8DF805408B
S11354608DF8065001A93E20FFF716FD8DF8054082
S11354708DF8065001A93F20FFF70EFD8DF8054079
S11354808DF8065001A94020FFF706FD8DF8054070
S11354908DF8065001A94120FFF7FEFC8DF8054068
S11354A08DF8065001A94220FFF7F6FC8DF805405F
S11354B08DF8065001A94320FFF7EEFC8DF8059006
S11354C08DF8068001A94420FFF7E6FC8DF805401D
S11354D08DF8065001A94520FFF7DEFC8DF8054044
S11354E08DF8065001A94620FFF7D6FC8DF805403B
S11354F08DF8065001A94720FFF7CEFC8DF8054032
S11355008DF8065001A94820FFF7C6FC8DF8054028
S11355108DF8065001A94920FFF7BEFC8DF805401F
S11355208DF8065001A94A20FFF7B6FC8DF8054016
S11355308DF8065001A94B20FFF7AEFC8DF805400D
S11355408DF8065001A94C20FFF7A6FC8DF8054004
S11355508DF8065001A94D20FFF79EFC8DF80540FB
S11355608DF8065001A94E20FFF796FC234D2246E4
S11355702146284601F0E5F83A463946284601F026
S1135580E0F822463146284601F0DBF8224608219D
S1135590284601F0D6F822460A21284601F0D1F81F
S11355A0224621462846FFF7E5FC2B6923F0010338
S11355B02B616B6923F001036B61AB6D23F0010375
S11355C0AB65EB6D23F00103EB652B6E23F0010358
S11355D02B666B6E23F001036B66AB6E23F0010345
S11355E0AB66EB6E23F00103EB662046FFF776FC17
S11355F0034B186002B0BDE8F08700BF00400E40C6
S1135600147C0000C9B200F540735B01084AD3580A
S11356104B4013F0010F09D001F0010100F5407077
S113562040011150BFF34F8FBFF36F8F704700BF1E
S11356300000CC4070B584B0312001F0B4F80126EC
S11356408DF80C6000248DF80D408DF80E401C4D33
S113565003AA02212846FEF795FF8DF808608DF80D
S113566009408DF80A4002AA03212846FEF78AFF62
S11356700194144B0093234622460A21124801F058
S113568097F80194114B0093234622460A211048AF
S113569001F08EF80F4D01940F4E009623462246DA
S11356A00321284601F084F802230193009623463F
S11356B022460321284601F08BF804B070BD00BFD8
S11356C00040C6405C830E4018810E4060830E404B
S11356D01C810E4030820E4074840E4010B5174A6F
S11356E00020174901F0FDF84FF480734FF48062F5
S11356F00021124801F092F8124A1349012001F0E6
S1135700F0F84FF480734FF4806200210D4801F0EB
S113571085F80E4B1B68022B0EDD0D4A02200A4948
S113572001F0DFF84FF480734FF4806200210848E1
S1135730BDE8104001F072B810BD00BF7C7C0000D1
S1135740107C0000B87C0000127C00000C7C00007F
S1135750F47C00002DE9F041D56880460E461446DD
S1135760EB02576905D545F01005384601F043FAB8
S1135770A061124B2B408BB1A169384601F044FA69
S1135780002806DAE3684FF0FF3043F08003E3605B
S113579011E025F4003525F01005E5603246414658
S11357A0384601F037FA20F00041761AA1690E4418
S11357B0A6610028E6D1BDE8F08100BF1000020018
S11357C0F8B5044638B90B4B05460B4E1F68A74283
S11357D005DC2846F8BDBDE8F84001F015B93046AF
S11357E0013401F011F9002806F13C0618BF4FF00E
S11357F0FF35ECE70C7C00007C7C00002DE9F843CD
S1135800C66804463C4B0D46904633401BB90227FC
S11358103846BDE8F883D0F81490484601F0EEF914
S113582007460028F3D1B8F1010F2CD0B8F1020FCC
S11358302ED0B8F1000FEAD1002DE8DBB00404D576
S11358402368E26A9A4238BFE362A169A9420EDC86
S11358502368E26A934238BF134622695818801AB3
S1135860A84204DB206B01EB000CAC4534DC0023C4
S113587046F02006A562C4E9013326F4032626F087
S11358804006E660C4E7204600F038F80544D3E754
S1135890484601F0B0F9B0F1000CE26804DA42F0D5
S11358A080020127E260B3E723681846A36919461A
S11358B0E36A98422CBF0918C91892060B4621695D
S11358C0A3EB010303D5A26A9342B8BF1346634511
S11358D0ACBFED186544AFE76D1AB10744BF281A91
S11358E0A060F10726F0200644BF9B1AEB1A15446A
S11358F048BF63602560C0E703001000C3689A07CF
S113590005D10E4B21224FF0FF301A60704703F08F
S113591020021B0309D512B1806A0138704703685D
S1135920826900691344181AF7E70AB1806A70475C
S11359300368826900691344181A7047787C000070
S11359402DE9F04106460C4690461F46002506E028
S1135950236806F803802168013121600135BD42C6
S113596009DA21684B1C7F2BF2D93046FDF730FE53
S113597000232360ECE7BDE8F0818446002004E0C6
S113598000EB800003EB40003038DCF800104B1CC7
S1135990CCF800304B78A3F13002D2B2092AEFD907
S11359A0CCF80010704710B5864603685A782E2A42
S11359B003D00620CEF8003010BD591C0024204628
S11359C000E001247CB901F1010C4B78A3F1300211
S11359D0D2B2092AF5D800EB800003EB4003A3F10F
S11359E030006146EEE70B46E4E7622818BF6F28F3
S11359F008D0752814BF00230123702804D01BB9D4
S1135A00002070470120704701207047692818BFA3
S1135A10642801D00020704701207047F8B5069C27
S1135A20079D089E099F8B1A202239463046A847B5
S1135A3004E0013C012339463046A8472278002A75
S1135A40F7D1F8BDF8B5069C079D089E099F8B1AEF
S1135A50202239463046A84704E0013C0123394658
S1135A603046A8472278002AF7D1F8BD462818BF47
S1135A70662801D00020704701207047582818BFBD
S1135A80782801D000207047012070470368194628
S1135A9013F8012F6C2A18BF682AF8D001607047E8
S1135AA06F2807D0622807D0702801D00A207047D9
S1135AB010207047082070470220704710B58646B2
S1135AC09DF80840844600200CF8010BC2B10A6816
S1135AD00AB100200AE030238EF80130012010BD05
S1135AE0C2F130020CF8012B01300A46002AF6D02C
S1135AF092FBF3F103FB1122002AF1DB3032F1E7D0
S1135B0010460A6862B930238EF801300120E6E7B6
S1135B1084B141210A440A3A0CF8012B013072463F
S1135B20002ADCD0B2FBF3FE0EFB1322092AEFD8C5
S1135B303032F1E76121EDE7F0B595B005911546F6
S1135B401E46002309930793139051E005A913A857
S1135B50FFF713FF0746002205A913A8FFF723FF49
S1135B6013A8FFF793FF139B5A1C13925C782046EB
S1135B70FFF74CFF012818D02046FFF777FF0128D4
S1135B802DD02046FFF77AFF01283FD02046FFF7AB
S1135B902CFF012859D0632C75D0732C7CD00123A1
S1135BA0224609A92846B0471FE0059B1A1D059205
S1135BB01B680893012200920A2308A90AA8FFF788
S1135BC07DFF02460AAB034409A90391029501969D
S1135BD00093002339461846FFF720FF05E0059B94
S1135BE0073323F007030833059313990131139105
S1135BF013990A78002A67D0252AA7D0012309A976
S1135C002846B047139901311391F1E7782C1AD043
S1135C100124059B1A1D05921B6807930094102309
S1135C20002207A90AA8FFF749FF02460AAB03446A
S1135C3009A9039102950196009323463946002051
S1135C40FFF700FFD1E70024E3E7059B1A1D059247
S1135C501B6807932046FFF723FF034601220092A7
S1135C60002207A90AA8FFF729FF02460AAB03444A
S1135C7009A9039102950196009300233946184619
S1135C80FFF7CCFEB1E7059A131D059301231278A3
S1135C9009A92846B047A8E7059B1A1D05921C6868
S1135CA0002CA2D0204600F0D8FD3B1A202209A9DE
S1135CB02846B04704E00134012309A92846B04727
S1135CC02278002AF7D190E7099815B0F0BD08B5FD
S1135CD0FDF727FC08BD08B5FDF723FC08BD08B592
S1135CE0FDF71FFC08BD08B5FDF71BFC08BD08B592
S1135CF0FDF717FC08BD08B5FDF713FC08BD08B592
S1135D00FDF70FFC08BD08B5FDF70BFC08BD08B591
S1135D10FDF707FC08BD08B5FDF703FC08BD08B591
S1135D20FDF7FFFB08BD08B5FDF7FBFB08BD08B593
S1135D30FDF7F7FB08BD08B5FDF7F3FB08BD08B593
S1135D40FDF7EFFB08BD08B5FDF7EBFB08BD08B593
S1135D50FDF7E7FB08BD08B5FDF7E3FB08BD08B593
S1135D60FDF7DFFB08BD08B5FDF7DBFB08BD08B593
S1135D70FEF7A4FD08BD08B5FEF7B0FD08BD08B5E3
S1135D80FEF7BCFD08BD08B5FEF7C8FD08BD08B5A3
S1135D90FEF7D4FD08BD08B5FEF7E0FD08BD08B563
S1135DA0FEF7ECFD08BD08B5FEF7F8FD08BD08B523
S1135DB0FEF704FE08BD08B5FEF710FE08BD08B5E1
S1135DC0FEF71CFE08BD08B5FDF7ABFB08BD08B522
S1135DD0FDF7A7FB08BD08B5FDF7A3FB08BD08B593
S1135DE0FDF79FFB08BD08B5FDF79BFB08BD08B593
S1135DF0FDF797FB08BD08B5FDF793FB08BD08B593
S1135E00FDF78FFB08BD08B5FDF78BFB08BD08B592
S1135E10FDF787FB08BD08B5FDF783FB08BD08B592
S1135E20FDF77FFB08BD08B5FDF77BFB08BD08B592
S1135E30FDF777FB08BD08B5FDF773FB08BD08B592
S1135E40FDF76FFB08BD08B5FDF76BFB08BD08B592
S1135E50FDF767FB08BD08B5FDF763FB08BD08B592
S1135E60FDF75FFB08BD08B5FDF75BFB08BD08B592
S1135E70FDF757FB08BD08B5FDF753FB08BD08B592
S1135E80FDF74FFB08BD08B5FDF74BFB08BD08B592
S1135E90FDF747FB08BD08B5FDF743FB08BD08B592
S1135EA0FDF73FFB08BD08B5FDF73BFB08BD08B592
S1135EB0FDF737FB08BD08B5FDF733FB08BD08B592
S1135EC0FDF72FFB08BD08B5FDF72BFB08BD08B592
S1135ED0FDF727FB08BD08B5FDF723FB08BD08B592
S1135EE0FDF71FFB08BD08B5FDF71BFB08BD08B592
S1135EF0FDF717FB08BD08B5FDF713FB08BD08B592
S1135F00FDF70FFB08BD08B5FDF70BFB08BD08B591
S1135F10FDF707FB08BD08B5FDF703FB08BD08B591
S1135F20FDF7FFFA08BD08B5FDF7FBFA08BD08B593
S1135F30FDF7F7FA08BD08B5FDF7F3FA08BD08B593
S1135F40FDF7EFFA08BD08B5FDF7EBFA08BD08B593
S1135F50FDF7E7FA08BD08B5FDF7E3FA08BD08B593
S1135F60FDF7DFFA08BD08B5FDF7DBFA08BD08B593
S1135F70FDF7D7FA08BD08B5FDF7D3FA08BD08B593
S1135F80FDF7CFFA08BD08B5FDF7CBFA08BD08B593
S1135F90FDF7C7FA08BD08B5FDF7C3FA08BD08B593
S1135FA0FDF7BFFA08BD08B5FDF7BBFA08BD08B593
S1135FB0FDF7B7FA08BD08B5FDF7B3FA08BD08B593
S1135FC0FDF7AFFA08BD08B5FDF7ABFA08BD08B593
S1135FD0FDF7A7FA08BD08B5FDF7A3FA08BD08B593
S1135FE0FDF79FFA08BD08B5FDF79BFA08BD08B593
S1135FF0FDF797FA08BD08B5FDF793FA08BD08B593
S1136000FDF78FFA08BD08B5FDF78BFA08BD08B592
S1136010FDF787FA08BD08B5FDF783FA08BD08B592
S1136020FDF77FFA08BD08B5FDF77BFA08BD08B592
S1136030FDF777FA08BD08B5FDF773FA08BD08B592
S1136040FDF76FFA08BD08B5FDF76BFA08BD08B592
S1136050FDF767FA08BD08B5FDF763FA08BD08B592
S1136060FDF75FFA08BD08B5FDF75BFA08BD08B592
S1136070FDF757FA08BD08B5FDF753FA08BD08B592
S1136080FDF74FFA08BD08B5FDF74BFA08BD08B592
S1136090FDF747FA08BD08B5FDF743FA08BD08B592
S11360A0FDF73FFA08BD08B5FDF73BFA08BD08B592
S11360B0FDF737FA08BD08B5FDF733FA08BD08B592
S11360C0FDF72FFA08BD08B5FDF72BFA08BD08B592
S11360D0FDF727FA08BD08B5FDF723FA08BD08B592
S11360E0FDF71FFA08BD08B5FDF71BFA08BD08B592
S11360F0FDF717FA08BD08B5FDF713FA08BD08B592
S1136100FDF70FFA08BD08B5FDF70BFA08BD08B591
S1136110FDF707FA08BD08B5FDF703FA08BD08B591
S1136120FDF7FFF908BD08B5FDF7FBF908BD08B593
S1136130FDF7F7F908BD08B5FDF7F3F908BD08B593
S1136140FDF7EFF908BD08B5FDF7EBF908BD08B593
S1136150FDF7E7F908BD08B5FDF7E3F908BD08B593
S1136160FDF7DFF908BD08B5FDF7DBF908BD08B593
S1136170FDF7D7F908BD08B5FDF7D3F908BD08B593
S1136180FDF7CFF908BD08B5FDF7CBF908BD08B593
S1136190FDF7C7F908BD08B5FDF7C3F908BD08B593
S11361A0FDF7BFF908BD08B5FDF7BBF908BD08B593
S11361B0FDF7B7F908BD08B5FDF7B3F908BD08B593
S11361C0FDF7AFF908BD08B5FDF7ABF908BD08B593
S11361D0FDF7A7F908BD08B5FDF7A3F908BD08B593
S11361E0FDF79FF908BD08B5FDF79BF908BD08B593
S11361F0FDF797F908BD08B5FDF793F908BD08B593
S1136200FDF78FF908BD08B5FDF78BF908BD08B592
S1136210FDF787F908BD08B5FDF783F908BD08B592
S1136220FDF77FF908BD08B5FDF77BF908BD08B592
S1136230FDF777F908BD08B5FDF773F908BD08B592
S1136240FDF76FF908BD08B5FDF76BF908BD08B592
S1136250FDF767F908BD08B5FDF763F908BD08B592
S1136260FDF75FF908BD08B5FDF75BF908BD08B592
S1136270FDF757F908BD08B5FDF753F908BD08B592
S1136280FDF74FF908BD08B5FDF74BF908BD08B592
S1136290FDF747F908BD08B5FDF743F908BD08B592
S11362A0FDF73FF908BD08B5FDF73BF908BD08B592
S11362B0FDF737F908BD08B5FDF733F908BD08B592
S11362C0FDF72FF908BD08B5FDF72BF908BD08B592
S11362D0FDF727F908BD08B5FDF723F908BD08B592
S11362E0FDF71FF908BD08B5FDF71BF908BD08B592
S11362F0FDF717F908BD08B5FDF713F908BD08B592
S1136300FDF70FF908BD08B5FDF70BF908BD08B591
S1136310FDF707F908BD08B5FDF703F908BD08B591
S1136320FDF7FFF808BD08B5FDF7FBF808BD08B593
S1136330FDF7F7F808BD08B5FDF7F3F808BD08B593
S1136340FDF7EFF808BD08B5FDF7EBF808BD08B593
S1136350FDF7E7F808BD08B5FDF7E3F808BD08B593
S1136360FDF7DFF808BD08B5FDF7DBF808BD08B593
S1136370FDF7D7F808BD08B5FDF7D3F808BD08B593
S1136380FDF7CFF808BD08B5FDF7CBF808BD013817
S1136390B0F1807F01D30120704710B54FF0E024A5
S11363A060610F214FF0FF30FDF79CF90020A061E0
S11363B00723236110BD04207146084202D0EFF385
S11363C0098001E0EFF3088081690A884BF6AB632A
S11363D09A4200D0FEE702318161202101607047BA
S11363E000BF08B513460A460121FDF7EDF908BDC3
S11363F008B50A4600231946FDF7E6F908BDF8B5C5
S113640005460E4614461F46FFF7F2FF069B9C40C6
S1136410444004EA0702424031462846FFF7E1FFC0
S1136420F8BD08B50020FDF7B1FB08BD08B50B4663
S113643031B1042133B14FF4C042FFF7D2FF08BD9C
S11364400821F7E74FF48042F7E708B529B10421A2
S11364504FF48032FFF7C5FF08BD0821F8E708B5FF
S113646029B104214FF48002FFF7BBFF08BD0821C6
S1136470F8E708B529B104214FF40052FFF7B1FF42
S113648008BD0821F8E708B529B104214FF40042FA
S1136490FFF7A7FF08BD0821F8E708B529B10421D3
S11364A04FF40042FFF79DFF08BD0821F8E708B547
S11364B00020FDF763FE0120FDF74CFE00210220C1
S11364C0FFF7EBFF00210220FFF7B0FF00210220BD
S11364D0FFF7D9FF00210220FFF7C1FF08BD08B56F
S11364E00020FDF717FF0020FDF7ECFE0020FDF76C
S11364F0FDFE0120FDF7D2FE00210120FFF7CDFFB4
S113650000210120FFF792FF00210120FFF7BBFFCC
S113651000210120FFF7A3FF08BD10B50446302178
S11365200420FFF765FF20F4A06234B942F48072BE
S113653030210420FFF755FF10BD012CF8D142F49F
S11365408062F5E70046A0F101000028FBD1704706
S113655008B50121FDF7E8FF08BD08B500F001F812
S113656008BD10B4C46901238B4024EA0304C46148
S11365700F2909D800F10C04013A042A0FD8DFE8E6
S113658002F007111C272F0000F110041039F3E763
S113659023684A000321914023EA010121605DF848
S11365A0044B7047236848000322824023EA020315
S11365B00121814019432160F1E723684800032247
S11365C0824023EA02030221814019432160E6E765
S11365D023684900032202FA01F119432160DEE72E
S11365E0C2691343C361DAE708B50121FEF70CF869
S11365F008BD836843F002038360836823F00203C9
S1136600836070477047704700B9704742F6AF70B7
S1136610FBE7EFF3108072B6704780F31088704781
S113662011460278012A02D043F22150704708B57E
S11366301A460C3000F06BF808BD10B5044613463A
S1136640002CFDD00029FDD0002BFDD020680028AF
S1136650FDD00A462146FFF7E3FF10BD38B50446D6
S11366600D46002DFDD0002CFDD014220021204623
S113667000F0BAF82B7A2370012B02D043F2215098
S113668038BDE96804F10C0000F037F8F8E738B5D4
S113669004460D46002CFDD0002DFDD0FFF7B9FFB8
S11366A0A3680133A360FFF7B8FF04220021284642
S11366B000F09AF82C60002038BD70B504460D46F1
S11366C0002CFDD0002DFDD0FFF7A3FF0646636824
S11366D033B143F222543046FFF79FFF204670BD8A
S11366E0656004220021284600F07EF82C60002416
S11366F0F1E708B5FFF7A1FF08BD08B50029FDD0F3
S11367000028FDD0FEF746FB0028FDD108BD08B5E2
S11367100028FDD00029FDD0002AFDD0FEF762FB41
S113672008BD08B51920FEF78BFB08BD08B5FFF7B7
S1136730F8FF034601224FF4E1311046FCF762FFF3
S113674008BD082907D9836823F0030302F0030274
S11367501A4382607047062907D9436823F003036C
S113676002F003021A434260704703290DD90368FB
S11367704FF0030C0CFA01FC23EA0C0302F00302B1
S113678002FA01F119430160704703684FF0070CE6
S11367900CFA01FC23EA0C0302F0070202FA01F1ED
S11367A019430160704708B50121FEF72BFF08BDAE
S11367B010B401F00F01029C4FEA041C0CF0100C01
S11367C041EA0C01016002B113605DF8044B7047AB
S11367D0009B0BB1019A1A60704708B5FEF77EFF63
S11367E0BDE80840FCF7BCBF00F0E9B9A8B14FF020
S11367F0805340F80C3C50F8042C72B11368B3F188
S1136800805F0AD150F8083C516803330B4440F8C8
S1136810083C936840F8043CEDE7704770B5C468E1
S1136820A50708D0B2F5007F11D0B2F5806F04D06F
S1136830B2F5807F0BD0012008E000F12401012390
S1136840224301610160C361C260002070BD5E1E0D
S11368506FF07F45AE42F3D3EDE7431C10B58207DA
S1136860044614D1204654F8042BA2F1013121EA44
S1136870020111F0803FF5D0D1B281B112F47F4F03
S11368800BD012F47F0F14BF2046033003E010F83E
S1136890012B002AE3D1C01A10BD0230FBE70130FE
S11368A0F9E7C368826923F0200310B5C360044686
S11368B0836A9A420ED000F048F8E36823F4405308
S11368C023F0100343F01003E360A36AA361236978
S11368D0E3622360E36823F4804323F04003E3602E
S11368E010BD70B50D4606461046144600F056F825
S11368F02B78722B17D0772B18D0612B23D1082338
S113690048F2020215F8011F2B2912D0622915D072
S11369101B07E260666104D5022200212046FEF7CF
S11369206DFF204670BD00230122EBE70423022201
S1136930E8E742F0030243F00203E3E742F0040213
S113694043F00103DEE70024EBE738B501680446B1
S11369500569C36AC06820F40022E26000F0820284
S1136960022A02D04FF0FF3038BD10F48030FBD043
S1136970994238BF19468D4208D1E3680020E56288
S113698023F480332560A060E360EDE72246491BD1
S11369902846FEF7DFFE0028EFD0E3E7F0B5C46831
S11369A089B00546A10722D0220718D4D0E904678C
S11369B0FEF706FF384600F01BF9230502D53046E2
S11369C0FFF714FFA40DA40514F1A54F07D120224D
S11369D0296A684600F01BF9684600F00BF83C226F
S11369E000212846FFF700FF002009B0F0BD4FF05A
S11369F0FF30FAE710B50446FFF72FFF01462046A3
S1136A00BDE8104000F0FDB8C36870B513F003068C
S1136A10044611D09B0611D5856AFFF742FFE3684F
S1136A20204623F44053E360FFF78FFF002206461D
S1136A3029462046FEF7E2FE304670BD81690568AE
S1136A400D4401696D1AEAE75FF0000C30B51C00D3
S1136A5022D112006FD0914206D305460846002188
S1136A6000F06FF80446284600F06BF80A46214609
S1136A70BDE830401CF0404F08BF704703D5494281
S1136A80404261F100015FEA8C0C38BF70475B4201
S1136A90524263F10003704742D41C0C04BF1B0430
S1136AA00CF1100C13F07F4F04BF1B020CF1080C07
S1136AB013F0704F04BF1B010CF1040C13F0404F92
S1136AC004BF0CF1020C5FEA83035CBF0CF1010C00
S1136AD05B00CCF1200E22FA0EF4234302FA0CF2EE
S1136AE000FA0CF520FA0EF001FA0CF4204321FA16
S1136AF00EF114461A4600F024F8A4FB0023AA1A47
S1136B0071EB03033CBF1B190138CCF1200E22FAB0
S1136B100CF203FA0EF4224323FA0CF30021A7E744
S1136B20821A71EB03033CBF02460B464FF000018F
S1136B3041F100009CE700200021BDE8304000F056
S1136B403DB80423B1EB122F09D2090241EA1061C6
S1136B500002013B08BF7047B1EB122FF5D30018B8
S1136B60494134BF9142891A4041494134BF91425D
S1136B70891A4041494134BF9142891A40414941EF
S1136B8034BF9142891A4041494134BF9142891A24
S1136B904041494134BF9142891A4041494134BF7F
S1136BA09142891A4041494134BF9142891A404176
S1136BB0A3F1010313F00F0FD2D1704770470346BE
S1136BC013F0030F0ED101F0FF0141EA012141EA64
S1136BD00141043A24BF43F8041BB2F10402F9D280
S1136BE002F10402013A24BF03F8011BFAE77047DB
S1136BF04FF0FF3070474FF0FF3070474FF0FF30D9
S1136C0070474FF0FF3070474FF0FF3070474FF040
S1136C10FF30704710467047415353455254204546
S1136C2052524F522022202573200A0002050300ED
S1136C3007FF0FFF02050300140F091802050300E4
S1136C400F18090D02050300140F091802050300AB
S1136C5018090B11020503001018090D02050300A1
S1136C6010180B0902050300140F0A18020503008B
S1136C700910180A020503001018090D0205030083
S1136C801018090D020503000F181A0D0205030060
S1136C901018090D020503001018090D0205030060
S1136CA0101813140205030010181A1C020503001F
S1136CB010181A1C0205030010181314020503000F
S1136CC0101813140205030010181314020503000E
S1136CD011090C0F0205030011090C0F0205030032
S1136CE01018090D020503001018090D0205030010
S1136CF0140F0D18020503001018090D02050300F6
S1136D001018090D020503001018090D02050300EF
S1136D101018090D020503001018090D02050300DF
S1136D201018090D020503001018090D02050300CF
S1136D301018090D020503001018090D02050300BF
S1136D401018090D02050300140F0D1802050300A5
S1136D50140F0D18020503001018090D0205030095
S1136D601018090D020503001018090D020503008F
S1136D701018090D02050300140F0D180205030075
S1136D80140F0D18020503001318090D0205030062
S1136D901318090D020503001318090D0205030059
S1136DA01318090D02050300140F1318020503003C
S1136DB0140F1318020503001018090D020503002F
S1136DC01018090D02050300171A180B0205030019
S1136DD0171A180BFFFFFFFFFFFFFFFF0205030059
S1136DE0171A180B02050300171A180B02050300E3
S1136DF0171A180BFFFFFFFFFFFFFFFF0205030039
S1136E000C0A1807020503000C0A18070205030000
S1136E1018101A0D0205030018101A0D02050300BC
S1136E20140F1A18020503001A0F130D02050300AC
S1136E301A13180D020503001A13180D0205030096
S1136E401A13180D02050300140F1A180205030083
S1136E50090B0F1C02050300090C111C0205030099
S1136E60090C111C02050300090A111C0205030088
S1136E70090A111C020503000C0F0A1C0205030079
S1136E800C0F0A1C020503000C0F0A1C0205030068
S1136E900C0F121C020503000C0912180205030052
S1136EA00D01121A2E66736C5F636C6F636B2E6830
S1136EB03A32313933203A206672657100FFFFFFA0
S1136EC02E66736C5F636C6F636B2E633A3131397A
S1136ED0203A2028636F6E6669672D3E6C6F6F7071
S1136EE044697669646572203C3D202875696E7436
S1136EF033325F742941524D5F504C4C5F444956C4
S1136F005F53454C5F4D4158292026262028636F46
S1136F106E6669672D3E6C6F6F704469766964654F
S1136F2072203E3D202875696E7433325F742941A6
S1136F30524D5F504C4C5F4449565F53454C5F4D36
S1136F40494E29002E66736C5F636C6F636B2E630E
S1136F503A323933203A2066726163203C3D20285E
S1136F6075696E74385F74295046445F46524143D4
S1136F705F4D41582026262066726163203E3D20E5
S1136F802875696E74385F74295046445F465241CF
S1136F90435F4D494E0000002E66736C5F636C6F57
S1136FA0636B2E633A333036203A2066616C736526
S1136FB000FFFFFF2E66736C5F636C6F636B2E6361
S1136FC03A333338203A2028706C6C203D3D206BD6
S1136FD0434C4F434B5F506C6C5379733229207C84
S1136FE07C2028706C6C203D3D206B434C4F434B00
S1136FF05F506C6C53797333290000002E66736CF8
S11370005F636C6F636B2E633A333533203A2066CB
S1137010616C7365000000002E66736C5F636C6FB7
S1137020636B2E633A333538203A202866726163E5
S1137030203E3D202875696E7433325F74295046B2
S1137040445F465241435F4D494E2920262620285D
S113705066726163203C3D202875696E7433325F2B
S113706074295046445F465241435F4D41582900BC
S11370702E66736C5F636C6F636B2E633A343830C7
S1137080203A203000FFFFFF2E66736C5F636C6F45
S1137090636B2E633A31333431203A2028706C6CA0
S11370A0203D3D206B434C4F434B5F506C6C41750E
S11370B064696F29207C7C2028706C6C203D3D2005
S11370C06B434C4F434B5F506C6C566964656F293E
S11370D000FFFFFF2E66736C5F636C6F636B2E6340
S11370E03A31343134203A2066616C736500000013
S11370F02E66736C5F636C6F636B2E633A3134314D
S113710037203A206672657100FFFFFF2E66736CAC
S11371105F636C6F636B2E633A31343235203A20EF
S11371206E616D6520213D206B434C4F434B5F5294
S113713065736572766564002E66736C5F636C6F4D
S1137140636B2E633A31353237203A2066616C73B3
S1137150650000002E66736C5F636C6F636B2E6357
S11371603A31353330203A206672657100FFFFFFF3
S11371702E66736C5F636F6D6D6F6E5F61726D2EE3
S1137180633A313934203A20636F756E74203C3D84
S11371902055494E5433325F4D41580000000000E1
S11371A000C0124000001340004013400080134010
S11371B000C013400000144000C0C5400000C64099
S11371C00040C6400080C64000C0C6400000C74022
S11371D00000CA400080004200C000428A333333BA
S11371E033333333333333333333FFFF2E66736C2C
S11371F05F6770696F2E633A3537203A20696E7382
S113720074616E6365203C2041525241595F534979
S11372105A4528735F6770696F426173657329000B
S11372202E66736C5F6770696F2E633A3131332059
S11372303A2070696E203C20333255000000000073
S113724000C007400000084000400840008008409B
S113725000C0084000000940004009400080094087
S113726000C0094000000A400040C2400080C24003
S11372708A565758595A5B5C5D5E5F6061FFFFFF39
S11372802E66736C5F6C70756172742E633A313262
S113729033203A20696E7374616E6365203C20412B
S11372A0525241595F53495A4528735F6C70756156
S11372B0727442617365732900FFFFFF2E66736C5D
S11372C05F6C70756172742E633A323432203A20E6
S11372D04E554C4C20213D20636F6E66696700005B
S11372E02E66736C5F6C70756172742E633A3234FF
S11372F033203A203055203C20636F6E6669672D39
S11373003E62617564526174655F4270730000008F
S11373102E66736C5F6C70756172742E633A3234CE
S113732035203A202875696E74385F742946534CA9
S11373305F464541545552455F4C50554152545F48
S11373404649464F5F53495A456E28626173652921
S1137350203E3D20636F6E6669672D3E74784669F2
S1137360666F57617465726D61726B002E66736C23
S11373705F6C70756172742E633A323436203A2031
S11373802875696E74385F742946534C5F464541CD
S1137390545552455F4C50554152545F4649464FEF
S11373A05F53495A456E286261736529203E3D202A
S11373B0636F6E6669672D3E72784669666F5761C2
S11373C07465726D61726B002E66736C5F6C7075A0
S11373D06172742E633A353138203A204E554C4C44
S11373E020213D20636F6E66696700FF2E66736C13
S11373F05F6C70756172742E633A393137203A20AC
S11374004E554C4C20213D206461746100FFFFFF08
S11374100000000000C00740000008400040084091
S11374200080084000C008400000094000400940B6
S11374300080094000C0094000000A400040C240EA
S11374400080C2402E66736C5F6164617074657203
S11374505F6C70756172742E633A353332203A2052
S11374604E554C4C20213D2068616E646C650000D3
S11374702E66736C5F616461707465725F6C7075A5
S11374806172742E633A353333203A204E554C4C96
S113749020213D20636F6E66696700002E66736C61
S11374A05F616461707465725F6C70756172742E73
S11374B0633A353334203A20636F6E6669672D3E34
S11374C0696E7374616E6365203C202873697A6504
S11374D06F6628735F4C7075617274416461707477
S11374E065724261736529202F2073697A656F661E
S11374F0284C50554152545F54797065202A2929EB
S1137500000000002E66736C5F61646170746572C4
S11375105F6C70756172742E633A353335203A208E
S11375204E554C4C20213D20735F4C707561727434
S113753041646170746572426173655B636F6E660A
S113754069672D3E696E7374616E63655D00FFFF4C
S11375502E66736C5F616461707465725F6C7075C4
S11375606172742E633A363233203A204E554C4CB5
S113757020213D2068616E646C6500002E66736C8A
S11375805F616461707465725F6C70756172742E92
S1137590633A363234203A204E554C4C20213D205B
S11375A064617461000000002E66736C5F61646145
S11375B0707465725F6C70756172742E633A3632E2
S11375C035203A206C656E677468203E2030550083
S11375D00205030007FF0FFF02050300140F09183B
S11375E0020503000F18090D02050300140F091802
S11375F00205030018090B11020503001018090DF8
S11376000205030010180B0902050300140F0A18E1
S1137610020503000910180A020503001018090DD9
S1137620020503001018090D020503000F181A0DB6
S1137630020503001018090D020503001018090DB6
S113764002050300101813140205030010181A1C75
S11376500205030010181A1C020503001018131465
S11376600205030010181314020503001018131464
S11376700205030011090C0F0205030011090C0F88
S1137680020503001018090D020503001018090D66
S113769002050300140F0D18020503001018090D4C
S11376A0020503001018090D020503001018090D46
S11376B0020503001018090D020503001018090D36
S11376C0020503001018090D020503001018090D26
S11376D0020503001018090D020503001018090D16
S11376E0020503001018090D02050300140F0D18FC
S11376F002050300140F0D18020503001018090DEC
S1137700020503001018090D020503001018090DE5
S1137710020503001018090D02050300140F0D18CB
S113772002050300140F0D18020503001318090DB8
S1137730020503001318090D020503001318090DAF
S1137740020503001318090D02050300140F131892
S113775002050300140F1318020503001018090D85
S1137760020503001018090D02050300171A180B6F
S113777002050300171A180BFFFFFFFFFFFFFFFFAF
S113778002050300171A180B02050300171A180B39
S113779002050300171A180BFFFFFFFFFFFFFFFF8F
S11377A0020503000C0A1807020503000C0A180757
S11377B00205030018101A0D0205030018101A0D13
S11377C002050300140F1A18020503001A0F130D03
S11377D0020503001A13180D020503001A13180DED
S11377E0020503001A13180D02050300140F1A18DA
S11377F002050300090B0F1C02050300090C111CF0
S113780002050300090C111C02050300090A111CDE
S113781002050300090A111C020503000C0F0A1CCF
S1137820020503000C0F0A1C020503000C0F0A1CBE
S1137830020503000C0F121C020503000C091218A8
S1137840020503000D01121A433A5C557365727305
S11378505C6E786130363534385C446F63756D65C1
S11378606E74735C4D43555870726573736F4944FD
S1137870455F31312E342E305F363135375F7072CB
S113788063315C776F726B73706163655C65766B93
S11378906D696D787274313136305F696C65645F1F
S11378A0626C696E6B795F636D375F696E745F528A
S11378B0414D5F4556425C647269766572732F660A
S11378C0736C5F636C6F636B2E683A3231393320AB
S11378D03A206672657100FF0205030007FF0FFF7F
S11378E002050300140F0918020503000F18090DFF
S11378F002050300140F09180205030018090B11EF
S1137900020503001018090D0205030010180B09E5
S113791002050300140F0A18020503000910180ACF
S1137920020503001018090D020503001018090DC3
S1137930020503000F181A0D020503001018090DA3
S1137940020503001018090D020503001018131492
S11379500205030010181A1C0205030010181A1C53
S11379600205030010181314020503001018131461
S113797002050300101813140205030011090C0F6B
S11379800205030011090C0F020503001018090D6C
S1137990020503001018090D02050300140F0D1849
S11379A0020503001018090D020503001018090D43
S11379B0020503001018090D020503001018090D33
S11379C0020503001018090D020503001018090D23
S11379D0020503001018090D020503001018090D13
S11379E0020503001018090D020503001018090D03
S11379F002050300140F0D1802050300140F0D18DF
S1137A00020503001018090D020503001018090DE2
S1137A10020503001018090D020503001018090DD2
S1137A2002050300140F0D1802050300140F0D18AE
S1137A30020503001318090D020503001318090DAC
S1137A40020503001318090D020503001318090D9C
S1137A5002050300140F131802050300140F131872
S1137A60020503001018090D020503001018090D82
S1137A7002050300171A180B02050300171A180B46
S1137A80FFFFFFFFFFFFFFFF02050300171A180B9C
S1137A9002050300171A180B02050300171A180B26
S1137AA0FFFFFFFFFFFFFFFF020503000C0A18079B
S1137AB0020503000C0A18070205030018101A0D2A
S1137AC00205030018101A0D02050300140F1A18FA
S1137AD0020503001A0F130D020503001A13180DF3
S1137AE0020503001A13180D020503001A13180DDA
S1137AF002050300140F1A1802050300090B0F1CDA
S1137B0002050300090C111C02050300090C111CD9
S1137B1002050300090A111C02050300090A111CCD
S1137B20020503000C0F0A1C020503000C0F0A1CBB
S1137B30020503000C0F0A1C020503000C0F121CA3
S1137B40020503000C091218020503000D01121AA4
S1137B50433A5C55736572735C6E786130363534C4
S1137B60385C446F63756D656E74735C4D43555832
S1137B7070726573736F4944455F31312E342E3012
S1137B805F363135375F707263315C776F726B7358
S1137B90706163655C65766B6D696D7872743131A3
S1137BA036305F696C65645F626C696E6B795F63C4
S1137BB06D375F696E745F52414D5F4556425C6438
S1137BC07269766572732F66736C5F636C6F636B37
S1137BD02E683A32313038203A20636F6E66696716
S1137BE000FFFFFF01000000C8000000FFFFFF0FBF
S1137BF00000000000000000290000000100000057
S1137C0000A60E00000000000000000003000000B9
S1077C107200770083
S1077C1400A4781F2D
S90334B90F
