S02B0000433A5C55736572735C6E786639373037355C446F63756D656E74735C4D43555870726573736F494465
S3158000100000000620011300807D130080E5380080F3
S3158000101081130080831300808513008087130080EE
S31580001020000000000000000000000000891300801E
S315800010308B130080000000008D130080191900803A
S315800010407B330080833300808B3300809333008032
S315800010509B330080A3330080AB330080B3330080A2
S31580001060BB330080C3330080CB330080D333008012
S31580001070DB330080E3330080EB330080F333008082
S31580001080FB330080033400800B34008013340080EF
S315800010901B340080233400802B340080333400805E
S315800010A03B340080433400804B34008053340080CE
S315800010B05B340080633400806B340080733400803E
S315800010C07B340080833400808B34008093340080AE
S315800010D09B340080A3340080AB340080B33400801E
S315800010E0BB340080C3340080CB340080D33400808E
S315800010F0DB340080E3340080EB340080F3340080FE
S31580001100FB340080033500800B350080133500806A
S315800011101B350080233500802B35008033350080D9
S315800011203B350080433500804B3500805335008049
S315800011305B350080633500806B35008073350080B9
S315800011407B350080833500808B3500809335008029
S315800011509B350080A3350080AB350080B335008099
S31580001160BB350080C3350080CB350080D335008009
S31580001170DB350080E3350080EB350080F335008079
S31580001180FB350080033600800B36008013360080E6
S315800011901B360080233600802B3600803336008055
S315800011A03B360080433600804B36008053360080C5
S315800011B05B360080633600806B3600807336008035
S315800011C07B360080833600808B36008093360080A5
S315800011D09B360080A3360080AB360080B336008015
S315800011E0BB360080C3360080CB360080D336008085
S315800011F0DB360080E3360080EB360080F3360080F5
S31580001200FB360080033700800B3700801337008061
S315800012101B370080233700802B37008033370080D0
S315800012203B370080433700804B3700805337008040
S315800012305B370080633700806B37008073370080B0
S315800012407B370080833700808B3700809337008020
S315800012509B370080A3370080AB370080B337008090
S31580001260BB370080C3370080CB370080D337008000
S31580001270DB370080E3370080EB370080F337008070
S31580001280FB370080033800800B38008013380080DD
S315800012901B380080233800802B380080333800804C
S315800012A03B380080433800804B38008053380080BC
S315800012B05046008000000020340000005046008028
S315800012C00000000400000000504600800000062058
S315800012D0000000005046008000A00B400000000087
S315800012E0340000201002000000000004000000000E
S315800012F0000006200000000000A00B400000000057
S3158000130072B601F013FC0E4B07E003F10C049A68E9
S315800013105968186800F01AF823460A4A9342F4D3AB
S3158000132006E01C46596854F8080B00F01EF8234660
S31580001330054A9342F5D362B602F0B4FCFEE700BFDD
S31580001340B0120080E01200800013008000239342D8
S315800013500AD210B450F8044B41F8044B043393423C
S31580001360F8D35DF8044B70477047002303E00022F2
S3158000137040F8042B04338B42F9D37047FEE7FEE72F
S31580001380FEE7FEE7FEE7FEE7FEE7FEE7FEE7FEE7AF
S31580001390FEE7FFFF80B582B000AF786079680248CB
S315800013A001F054FF00BEFDE72C40008080B58AB076
S315800013B000AFB9607B600346FB731346BB73BB7B90
S315800013C0012B01D001232AE0174ABB7B13747B686B
S315800013D07B61BB68BB6100233B7700237B7701235E
S315800013E0BB770123FB77002387F82030002387F81B
S315800013F02130FB7B87F82230002387F823300023B7
S3158000140087F8243007F114031946074801F036FCA3
S31580001410054B064A9A60044B054ADA600023184653
S315800014202837BD4680BD00BF340000206D2D00806A
S31580001430012D008080B584B000AF786039600023CC
S31580001440FB60094B1B7C002B02D14FF0FF3306E07B
S315800014503A687968054800F023F8F860FB68184612
S315800014601037BD4680BD00BF340000207114008057
S3158000147080B582B000AF7860084B1B7C002B02D110
S315800014804FF0FF3306E0054B9B68391D0122034868
S315800014909847012318460837BD4680BD3400002092
S315800014A080B59CB002AFF860B9607A6000233B6675
S315800014B00023FB650023FB61002387F84A30002365
S315800014C07B61BB687B667B6E1B78002B00F0D281CC
S315800014D07B6E1B7887F8493097F84930252B0BD0DF
S315800014E097F84920FB6810469847FB690133FB61F2
S315800014F07B6E01337B66BCE1012387F84B3000238A
S315800015007B65002387F85B3020E07B6E01337B664A
S315800015107B6E1B7887F8493097F849302F2B0FD987
S3158000152097F84930392B0BD87A6D13469B001344B4
S315800015305B001A4697F849301344303B7B6505E0DB
S315800015407B6E013B7B66012387F85B3097F85B30C7
S3158000155083F00103DBB2002BD7D17B6E01337B6630
S315800015607B6E1B782E2B2ED100233B65002387F8BC
S315800015705B3020E07B6E01337B667B6E1B7887F861
S31580001580493097F849302F2B0FD997F84930392BA6
S315800015900BD83A6D13469B0013445B001A4697F8A6
S315800015A049301344303B3B6505E07B6E013B7B66EF
S315800015B0012387F85B3097F85B3083F00103DBB259
S315800015C0002BD7D102E07B6E013B7B667B6E0133BD
S315800015D07B667B6E1B7887F8493097F84930642B99
S315800015E024D097F84930692B20D097F84930662B5C
S315800015F01CD097F84930462B18D097F84930782B6D
S3158000160014D097F84930582B10D097F849306F2B63
S315800016100CD097F84930622B08D097F84930702B58
S3158000162004D097F84930752B40F0DC8097F8493024
S31580001630642B03D097F84930692B15D17B681A1D26
S315800016407A601B68BB6107F1180107F1200097F8E3
S315800016504B3000930A23012201F02EFEF86507F134
S315800016602002FB6D13443B6697F84930582B03D014
S3158000167097F84930782B1CD197F84930782B02D1CE
S31580001680002387F84B307B681A1D7A601B687B6164
S3158000169007F1140107F1200097F84B3000931023CF
S315800016A0002201F009FEF86507F12002FB6D134464
S315800016B03B6697F849306F2B0BD097F84930622BF1
S315800016C007D097F84930702B03D097F84930752B9F
S315800016D06AD197F84930702B0DD17B681A1D7A60D4
S315800016E01B683B6107F1100107F1140304221846B9
S315800016F002F0DFFA04E07B681A1D7A601B687B6162
S3158000170097F84930623B132B3AD801A252F823F05E
S3158000171069170080811700808117008081170080FB
S3158000172081170080811700808117008081170080D3
S3158000173081170080811700808117008081170080C3
S3158000174081170080611700807117008081170080E3
S3158000175081170080811700808117008079170080AB
S31580001760082387F84A300CE0022387F84A3008E0DD
S31580001770102387F84A3004E00A2387F84A3000E0CD
S3158000178000BF97F84A2007F1140107F1200097F867
S315800017904B3000931346002201F08EFDF86507F169
S315800017A02002FB6D13443B667A6D07F11C01FB68D2
S315800017B000930B46F96D202001F05EFD3B6E002BF9
S315800017C054D00AE03B6E5A1E3A661B781A46FB686E
S315800017D010469847FB690133FB613B6E1B78002BF3
S315800017E0F0D143E097F84930632B0BD17B681A1D03
S315800017F07A601B687B64FB68786C9847FB69013369
S31580001800FB6133E097F84930732B27D17B681A1D2B
S315800018107A601B68FB64FB6C002B27D0F86C02F0A7
S31580001820A4FA0346FB657A6D07F11C01FB680093F9
S315800018300B46F96D202001F01FFD0AE0FB6C5A1C57
S31580001840FA641B781A46FB6810469847FB69013391
S31580001850FB61FB6C1B78002BF0D107E097F84920E1
S31580001860FB6810469847FB690133FB617B6E013349
S315800018707B6628E600BFFB6918466837BD4680BD93
S3158000188080B483B000AF03463960FB80B7F9063079
S31580001890002B0ADB3B68DAB20C49B7F906305201F5
S315800018A0D2B20B4483F800230AE03B68DAB20849D7
S315800018B0FB8803F00F03043B5201D2B20B441A7625
S315800018C000BF0C37BD465DF8047B704700E100E041
S315800018D000ED00E080B582B000AF78607B68013BA8
S315800018E0B3F1807F01D301230FE00A4A7B68013B75
S315800018F0536007214FF0FF30FFF7C2FF054B0022F0
S315800019009A60044B07221A60002318460837BD46A2
S3158000191080BD00BF10E000E080B400AF064B1B68BE
S31580001920002B04D0044B1B68013B034A136000BFA5
S31580001930BD465DF8047B70474800002080B483B0C4
S3158000194000AF7860074A7B68136000BF054B1B6851
S31580001950002BFBD100BF00BF0C37BD465DF8047B72
S31580001960704700BF4800002080B58AB000AF0121D3
S315800019704FF4AC7000F0DCF943F2180000F080F907
S315800019800221022000F0D4F941F2020000F078F939
S3158000199001F0B8FA01F038FA02F043F901F018FACA
S315800019A0162001F05AFF00220421314801F071FF10
S315800019B02F4B5B6D2E4A43F01003536500220321A3
S315800019C02B4801F066FF2A4B5B6D294A43F00803DA
S315800019D0536500220221264801F05BFF244B5B6D94
S315800019E0234A43F004035365224B1B68224AA2FB19
S315800019F003239B091846FFF76DFF0346002B00D093
S31580001A00FEE71E4B002B03D01D4A934206D00BE007
S31580001A103B1D1C49184602F087F90FE03B1D1A4909
S31580001A20184602F081F909E0144B1946174801F06F
S31580001A300DFC3B1D1649184602F076F900237B62A1
S31580001A4009E06420FFF77AFF0421094801F03CFF92
S31580001A507B6A01337B627B6A092BF2DD4FF4FA7075
S31580001A60FFF76CFF3B1D19460A4801F0EFFBE5E7DF
S31580001A7000C0094030000020D34D62100010008065
S31580001A800010008040400080484000805040008028
S31580001A906C4000807440008080B400AF074BD3F860
S31580001AA0003503F08073002B14BF01230023DBB2C3
S31580001AB01846BD465DF8047B704700BF0040044071
S31580001AC080B483B000AF78607B68214A934205D0AA
S31580001AD07B68204A934201D0012332E07B681C4A0E
S31580001AE0934201D0012300E000231B4AC2F8083349
S31580001AF0194BD3F80033184A23F40003C2F8003395
S31580001B00154BD3F80033144A43F01003C2F8003360
S31580001B10114BD3F80033104A43F02003C2F8003348
S31580001B200D4BD3F800330C4A43F00103C2F800335F
S31580001B3000BF094BD3F8003303F08073002BF8D035
S31580001B40002318460C37BD465DF8047B704700BFFE
S31580001B50006CDC02004495080040044080B485B0E7
S31580001B6000AF78600A4BD3F80035FB60FB6823F43E
S31580001B704033FB60FA687B681343FB60044AFB686A
S31580001B80C2F8003500BF1437BD465DF8047B704748
S31580001B900040044080B485B000AF78600B46FB708F
S31580001BA00323FB60FB78022B2DD0022B48DC002B15
S31580001BB002D0012B10D043E07B682A4A934201D998
S31580001BC0012348E07B68284A934202D90123FB60BF
S31580001BD036E00023FB6033E07B68244A934201D9D8
S31580001BE0012338E07B68224A934202D90223FB60B4
S31580001BF026E07B681F4A934202D90123FB601FE0DF
S31580001C000023FB601CE07B681B4A934201D90123B9
S31580001C1021E07B68154A934202D90323FB600FE0DB
S31580001C207B68134A934202D90223FB6008E07B68F3
S31580001C30104A934202D90123FB6001E00023FB6036
S31580001C400E4B9B6823F00F02FB6803F00F030B49D2
S31580001C5013438B60002318461437BD465DF8047B1A
S31580001C60704700BF80F0FA0200366E0100E1F5058C
S31580001C700090D0030051250280D1F0080030044046
S31580001C8080B489B000AF78607B68FB61264B7B614E
S31580001C907B68B3F1004F40D00023BB6138E0FB691D
S31580001CA0002B39D0FB697B827B8A002B2AD07B8AEA
S31580001CB0C3F30B033B827B8A1B0B9BB2DBB2013BDC
S31580001CC0FB733B8A40F2FE32934215D1174B5B6918
S31580001CD023F07062FB7B1B0603F07063134913438A
S31580001CE04B6100BF114B1A69FB7B1B06534003F007
S31580001CF07063002BF6D105E03B8A9B007A6913441A
S31580001D00FA7B1A60FB691B0CFB61BB690133BB6103
S31580001D10BB69012BC3D900E000BF00BF2437BD4695
S31580001D205DF8047B704700BF6002004000400440BD
S31580001D3080B485B000AF03463960FB80104BFB60F2
S31580001D40FB889B00FA6813444FF0C0421A603B68D8
S31580001D50002B07D1FB889B00FA6813444FF0804222
S31580001D601A6006E0FB889B00FA6813443A68013AD9
S31580001D701A6000BF1437BD465DF8047B704700BF0C
S31580001D800003004080B582B000AF00237B60124B19
S31580001D90D3F804355B0E03F00303022B0ED0022B1F
S31580001DA011D8002B02D0012B04D00CE000F0B2F841
S31580001DB078600BE000F098F8786007E0012000F08A
S31580001DC0BFF8786002E000237B6000BF7B6818461E
S31580001DD00837BD4680BD00BF0040044090B587B03F
S31580001DE000AF78603D4BD3F800383C4A43F001039E
S31580001DF0C2F80038394BD3F80035384A23F003034C
S31580001E00C2F80035354A7B681B68C2F80435334A08
S31580001E107B685B68C2F80C357B685B682F4A43F049
S31580001E200043C2F80C352D4A7B689B68C2F814358E
S31580001E307B689B68294A43F00043C2F81435274AD9
S31580001E407B68DB68C2F810357B68DB68234A43F021
S31580001E500043C2F81035214A7B681B69C2F82435D5
S31580001E601E4A7B685B69C2F828351C4B1C4A9A60FF
S31580001E70FFF788FF786100F089F838617A693B69F5
S31580001E80B2FBF3F3FB60FB68164AA2FB0323DB0974
S31580001E9003F59673114AC3F31003C2F818350F4B36
S31580001EA0D3F800350D4A43F00303C2F8003500BF6E
S31580001EB0FFF7F2FD034683F00103DBB2002BF7D177
S31580001EC07B689C6901F029FD03469C4201D003236F
S31580001ED000E0002318461C37BD4690BD00400440F4
S31580001EE001005A5AD34D621080B400AF074BD3F825
S31580001EF0003303F01003002B01D0054B00E00023D4
S31580001F001846BD465DF8047B704700BF004004401C
S31580001F10006CDC0280B400AF074BD3F8003103F0CD
S31580001F208073002B02D0054B1B6800E00023184607
S31580001F30BD465DF8047B70470040044000000020E9
S31580001F4080B483B000AF78600D4BD3F8003403F0D3
S31580001F508073002B0DD00B4BD3F820217B68134068
S31580001F6003F00F03002B02D0074B1B6802E000230F
S31580001F7000E0002318460C37BD465DF8047B7047A9
S31580001F8000400440009005400400002080B483B0E7
S31580001F9000AF01237B600C4BD3F8043503F4002398
S31580001FA0002B09D1084BD3F80C35DBB27B607B68FC
S31580001FB0002B01D101237B607B6818460C37BD4618
S31580001FC05DF8047B704700BF0040044080B483B056
S31580001FD000AF01237B60144BD3F8043503F48013E0
S31580001FE0002B19D1104BD3F8043503F48033002B22
S31580001FF006D00D4BD3F8143503F01F037B6006E043
S31580002000094BD3F8143503F01F035B007B607B68B4
S31580002010002B01D102237B607B6818460C37BD46B6
S315800020205DF8047B704700BF0040044080B584B0F3
S3158000203000AF4FF07E53FB60254BD3F8283503F471
S315800020400063002B0AD1224BD3F810359BB207EEE2
S31580002050903AF8EE677AC7ED037A27E01C4BD3F8FF
S315800020602835DB0103F08003BB60194BD3F8243598
S315800020705B0EBA681343BB60154BD3F8243523F047
S315800020807E4307EE903AB8EE677ADFED126AC7EEC6
S31580002090267AC7ED017ABB6807EE903AF8EE677A42
S315800020A097ED017A77EE277AC7ED037AF86801F023
S315800020B056FF02460B46134302D14FF07E53FB6018
S315800020C0FB6807EE903AB0EE670A1037BD4680BDD2
S315800020D0004004400000004C80B485B000AF7860BA
S315800020E0064A7B6852F82330FB60FB68D3F8F43FDE
S315800020F018461437BD465DF8047B704708000020FB
S3158000210080B586B000AFF8600B467A60FB72FB7ACA
S31580002110072B02D91D48FFF73DF91D4AFB6852F887
S3158000212023307B61FB7A1946786901F053FC0346BC
S3158000213083F00103DBB2002B01D0032321E07B690E
S31580002140D3F8F83F03F00803002B09D07B69D3F856
S31580002150F83F03F00702FB7A9A4201D0012310E090
S315800021607B68002B08D0FB7A43F00803DBB21A4663
S315800021707B69C3F8F82F03E0FA7A7B69C3F8F82FF6
S31580002180002318461837BD4680BD00BFD440008066
S315800021900800002080B582B000AF78600B46FB70E7
S315800021A07B68092B02D90E48FFF7F4F80D4A7B6845
S315800021B032F81330184601F0F1FB0B4A7B6852F86F
S315800021C02330184600F01AFCFB78002219467868FE
S315800021D0FFF796FF034618460837BD4680BD00BF09
S315800021E01841008098400080AC40008080B584B063
S315800021F000AF78607868FFF76FFFF860FB6803F0E0
S315800022003003002B13D0254A7B681E3352F82330C7
S31580002210002B0CD0214A7B681E3352F8233020498C
S315800022207A681E3251F82220114678689847FB68F2
S3158000223003F00303002B13D0184A7B680A3352F845
S315800022402330002B0CD0154A7B680A3352F8233092
S3158000225013497A680A3251F82220114678689847DD
S31580002260FB6803F00403002B13D00C4A7B681433FD
S3158000227052F82330002B0CD0084A7B68143352F86E
S31580002280233007497A68143251F82220114678683B
S31580002290984700BF1037BD4680BD00BF4C00002068
S315800022A0EC00002080B584B000AF78600023FB602E
S315800022B009E00D4AFB6852F823307A689A4206D0C4
S315800022C0FB680133FB60FB68092BF2D900E000BF95
S315800022D0FB68092B02D90548FFF75CF8FB681846AE
S315800022E01037BD4680BD00BF644100808C410080B0
S315800022F080B58CB000AFF860B9607A60BB68002B9F
S3158000230002D17748FFF746F8BB681B68002B02D1DD
S315800023107448FFF73FF8BB681B7A072B02D97248CF
S31580002320FFF738F8BB685B7A072B02D96F48FFF74F
S3158000233031F80023FB62BB681B68FB61002387F8CA
S3158000234023300023FB84042387F8223049E07A680F
S3158000235013469B0013445B001946BB681B6897F8BD
S31580002360222002FB03F3B1FBF3F30533604AA2FBA1
S315800023700323DB08BB84BB8C002B02D10123BB84E7
S3158000238006E0BB8CB3F5005F02D341F6FF73BB84D6
S3158000239097F82230BA8C02FB03F37A68B2FBF3F328
S315800023A0BB61BB681B68BA699A4204D9BB681B6863
S315800023B0BA69D31A03E0BB681A68BB69D31A7B6112
S315800023C07A69FB699A4207D87B69FB6197F8223064
S315800023D087F82330BB8CFB8497F82230013387F84B
S315800023E0223097F82230202BB1D9BB681B68414A2E
S315800023F0A2FB03235A0913465B001344FA699A42E7
S3158000240003D940F22153FB624DE1F868FFF74AFF9A
S31580002410034601211846FFF7BDFEF862FB6A002BD2
S3158000242001D0FB6A40E1F86801F043FBFB681B6959
S31580002430BB6297F82330032B07D997F82330072BF5
S3158000244003D8BB6A43F40033BB62BB6A23F0F853FC
S31580002450BB6297F82330013B1B0603F0F853BA6A38
S315800024601343BB62BB6A23F4FF5323F01F03BB6293
S31580002470FB8CC3F30C02BB6A1A43FB681A61FB68C8
S315800024801B6923F00052FB681A61FB689B6923F481
S31580002490E26323F00703BB62BB681B791A46BB68FD
S315800024A0DB7B1B0203F4E0631A43BB689B7B9B00C8
S315800024B003F004031343BA6A1343BB62BB685B79B8
S315800024C0012B19D1BB681B79002B04D0BB6A23F47E
S315800024D00063BB6218E0BB6A43F40063BB6213E02F
S315800024E0C4410080E8410080184200807442008028
S315800024F0CDCCCCCC1F85EB51BB681B79002B03D090
S31580002500BB6A43F01003BB62FB68BA6A9A61FB68D8
S315800025101B6923F40053BB62BB68DB795B0303F45E
S315800025200052BB6A1A43FB681A61BB685B7A1B045C
S31580002530BA68127A1A43FB68DA62FB689B6A43F0D0
S315800025408802FB689A62FB689B6A43F44042FB6898
S315800025509A62574BBB62BB6A43F00043BB62BB6A5D
S3158000256043F44043BB62FB685A6ABB685B7B1B01D2
S3158000257003F01001BB681B7B5B0103F020030B4358
S315800025801A43FB685A62BB689B7A002B05D0FB68AE
S315800025905B6A43F00802FB685A62BB68DB7A002BF1
S315800025A005D0FB685B6A43F00102FB685A62BB6830
S315800025B09B79002B04D0BB6A43F00053BB6203E0D7
S315800025C0BB6A23F00053BB62FB685A69BB6A1A4335
S315800025D0FB685A61FB689B69BB62BB6893F82630CF
S315800025E0002B03D0BB6A43F40023BB62BB6893F81D
S315800025F02730002B03D0BB6A43F48023BB62FB6881
S31580002600BA6A9A61BB681B8A1A46FB689A64BB6879
S315800026105B8A1A46FB68DA64FB689A6DBB681B7D29
S315800026201946BB681B7E5B001943BB681B7F9B00FA
S315800026301943BB6893F82030DB000B431A43FB68D1
S315800026409A65BB685B7D9B07BA68D28A1A43FB682A
S315800026501A66BB685B7E9B07BA68528B1A43FB6817
S315800026605A66BB685B7F9B07BA68D28B1A43FB6846
S315800026709A66BB6893F821309B07BA68528C1A43D6
S31580002680FB68DA66BB6893F825301A02FB681A6520
S31580002690BB6893F82430002B05D0FB681B6D43F094
S315800026A00F02FB681A65FB6A18463037BD4680BD47
S315800026B000001F4080B582B000AF78607B68002B39
S315800026C002D11E48FEF766FE28220021786801F0B6
S315800026D0F2FA7B684FF4E1321A607B6800221A7145
S315800026E07B6800225A717B6800229A717B6800227F
S315800026F0DA717B6800221A727B6800225A727B68C4
S3158000270000229A727B680022DA727B6800225A73F2
S315800027107B6800221A737B6800229A737B6800228A
S31580002720DA737B68002283F826207B68002283F890
S31580002730272000BF0837BD4680BD00BFD04200803D
S3158000274080B485B000AF78607B685A69134B1340BC
S31580002750FB607B685B6C9B0003F03C03FA68134369
S31580002760FB607B68DB6D9B0003F47053FA68134350
S31580002770FB607B689B6A1B0C03F0C303FA681343F8
S31580002780FB60FB6823F0785323F47C53FB60FB6883
S3158000279018461437BD465DF8047B704700C0FFC1FC
S315800027A080B584B000AF786039603A68204B1340BA
S315800027B03B603B689B0803F00F027B685A643B686A
S315800027C09B0803F470627B68DA653B6803F0030359
S315800027D0002B10D07B689B6ABB60BB6823F4703388
S315800027E0BB603B681B0403F44033BA681343BB6089
S315800027F07B68BA689A627B685B6903F078533A684B
S315800028001343BB607B68BA685A617868FFF798FFA4
S3158000281002463B681340002B03D040F21A53FB60FC
S3158000282001E00023FB60FB6818461037BD4680BD7B
S315800028303FC01FC080B586B000AFF860B9607A60CF
S31580002840BB68002B02D11448FEF7A4FDBB687B61F0
S315800028507B683B6111E000BFFB685B6903F40003A2
S31580002860002BF9D07B691B781A46FB68DA617B6995
S3158000287001337B613B69013B3B613B69002BEAD1BC
S3158000288000BFFB685B6903F48003002BF9D000234B
S3158000289018461837BD4680BDF442008080B58AB0A0
S315800028A000AFF860B9607A60BB68002B02D15248ED
S315800028B0FEF770FD00237B62BB683B62FB689B6909
S315800028C0FB61FB6903F40063002B09D1FB6903F00C
S315800028D01003002B06D1FB6903F00203002B01D005
S315800028E0012300E00023FB76FB7E03F00103FB76E9
S315800028F076E0F868FFF724FF78617B6903F40023AC
S31580002900002B0ED04FF40021F868FFF749FF0346ED
S31580002910002B02D140F21D5301E040F21A537B6234
S3158000292044E07B6903F48033002B0DD04FF4803173
S31580002930F868FFF735FF0346002B02D14FF4A463F6
S3158000294001E040F21A537B627B6903F40033002B6B
S315800029500DD04FF40031F868FFF722FF0346002BB5
S3158000296002D140F21F5301E040F21A537B627B6929
S3158000297003F48023002B0DD04FF48021F868FFF7F5
S315800029800FFF0346002B02D140F21E5301E040F2B6
S315800029901A537B627B6A002B07D1FB68DB6A1B0EAE
S315800029A003F00F03002BA4D000E000BF7B6A002B4E
S315800029B01CD1FB7E002B0BD0FB68DB69DBB203F0FE
S315800029C07F03DAB23B6A1A703B6A01333B6207E0E7
S315800029D0FB68DB69DAB23B6A1A703B6A01333B6299
S315800029E07B685A1E7A60002BD7D100E000BF7B6AD5
S315800029F018462837BD4680BD1443008080B586B012
S31580002A0000AF78607B681B0C7B617B689BB23B6107
S31580002A1001223B6902FA03F3FB603B691F2B02D953
S31580002A200D48FEF7B7FC4FF080417B695033FA685A
S31580002A3041F82320094BBB6000BF7B699B00BA68C5
S31580002A4013441A68FB681340FA689A42F5D000BFAF
S31580002A5000BF1837BD4680BD384300800001004066
S31580002A6080B584B000AF786039603B68002B02D1B6
S31580002A701348FEF78FFC0023FB603B681B7803F04E
S31580002A800303FA681343FB607B68FA681A643B6841
S31580002A905B78002B10D07B681B6C43F080427B6890
S31580002AA01A6400BF7B681B6C002BFBDA7B681B6C8F
S31580002AB023F080427B681A6400BF1037BD4680BD14
S31580002AC05843008080B584B000AF786039603B6839
S31580002AD0002B02D11448FEF75DFC0023FB607B6867
S31580002AE01B6903F00103002B02D042F6A00317E016
S31580002AF03B685B781946786801F02CF8F860FB68CB
S31580002B00002B05D13B681B781946786801F009F8D7
S31580002B1000BF7B681B6903F00103002BF9D1FB68BA
S31580002B2018461037BD4680BD7843008080B500AF1B
S31580002B30174BD3F88830164A43F47003C2F88830AE
S31580002B40134BD3F88830124A43F00F03C2F888300B
S31580002B500F4BD3F88C300E4A43F4406343F00303A3
S31580002B60C2F88C304FF080430022C3F8442E4FF0D9
S31580002B708043D3F800344FF0804223F40033C2F808
S31580002B800034034B034A9A6001F014F800BF80BDFD
S31580002B9000ED00E00010008080B58EB000AF786058
S31580002BA039600023FB8607F108031846FFF782FD8C
S31580002BB03B685B68BB603B681B7A3B733B685B7AB0
S31580002BC0FB733B689B7A002B14BF01230023DBB287
S31580002BD087F82F303B68DB7A002B14BF0123002354
S31580002BE0DBB287F82E303B68DB7B002B08D03B6856
S31580002BF0DB7B082B28BF0823DBB2013BDBB23B74AF
S31580002C003B681B7C002B08D03B681B7C082B28BFAD
S31580002C100823DBB2013BDBB27B743B681B7B002B5A
S31580002C2014BF01230023DBB2BB743B685B7B002BA4
S31580002C3014BF01230023DBB2FB740123BB75012380
S31580002C40FB753B689B7B1A460B4B53F822003B680F
S31580002C501A6807F108031946FFF74AFB38633B6B8E
S31580002C60002B04D0386B00F0ACFF0346FB86FB8E4E
S31580002C7018463837BD4680BD9843008080B584B0FD
S31580002C8000AF786039607B68002B02D11748FEF769
S31580002C9081FB3B68002B02D11548FEF77BFB3B6826
S31580002CA09B7B092B02D91348FEF774FB3B689B7B01
S31580002CB01A46114B53F82230002B02D10F48FEF7EB
S31580002CC069FB39687868FFF767FF0346FB81FB89F4
S31580002CD0002B05D17B68BB603B689A7BBB681A700A
S31580002CE0FB8918461037BD4680BD00BFC0430080B3
S31580002CF0EC43008018440080984300807C44008028
S31580002D0080B586B000AFF860B9607A60FB68002B4A
S31580002D1002D11248FEF73EFBBB68002B02D1104859
S31580002D20FEF738FB7B68002B02D10E48FEF732FB9C
S31580002D30FB687B617B691B781A460B4B53F8223004
S31580002D407A68B9681846FFF7A9FD3861386900F0D6
S31580002D5038FF034618461837BD4680BDC8440080F4
S31580002D60F44400801C4500809843008080B586B07E
S31580002D7000AFF860B9607A60FB68002B02D110481A
S31580002D80FEF708FBBB68002B02D10E48FEF702FB5C
S31580002D907B68002B02D10C48FEF7FCFAFB687B614E
S31580002DA07B691B781A46094B53F822307A68B968D2
S31580002DB01846FFF73FFD002318461837BD4680BDED
S31580002DC04445008070450080984500809843008087
S31580002DD080B582B000AF43F21800FEF751FF084875
S31580002DE0FFF70CFE074B7B607B6801224FF4E131D5
S31580002DF00420FEF7DBFA00BF0837BD4680BD00BF62
S31580002E000F000100001BB70080B582B000AF0A4BEF
S31580002E101B88BB803B1D19460848FFF753FE084BAD
S31580002E201B883B803B4619460448FFF719FE00BFC6
S31580002E300837BD4680BD00BFC045008000500440B5
S31580002E40C445008080B588B000AF40F21A2000F0FB
S31580002E50CCFE43F2FE30FEF713FF02211748FEF741
S31580002E6099FE1748FEF72CFE3B1D00221A605A6019
S31580002E709A60DA601A615A619A61124B7B60082304
S31580002E80BB600123FB6032233B610C4BFB613B1D26
S31580002E901846FEF7A3FF0020FEF760FE46F2FE30DE
S31580002EA0FEF7EEFE01212020FEF742FF064B034A85
S31580002EB01A6000BF2037BD4680BD00BF80D1F008B4
S31580002EC0006CDC02B03500023000002080B586B090
S31580002ED000AFF860B9607A607B68002B02D1084841
S31580002EE0FEF758FABB6820339B00FA6813447B616F
S31580002EF07B697A6812881A8000BF1837BD4680BD04
S31580002F00C845008080B584B000AF0D2000F08FFEEC
S31580002F100E2000F08CFE102000F089FE0023BB817D
S31580002F203B7B43F040033B737B7B012262F30303CD
S31580002F307B737B7B43F010037B7307F10C031A468C
S31580002F4002212848FFF7C2FF00233B817B7A0222B9
S31580002F5062F303037B727B7A43F010037B7207F183
S31580002F6008031A4608212048FFF7B0FF0023BB80DC
S31580002F707B79022262F303037B717B7943F0100332
S31580002F807B713B1D1A4609211748FFF79FFF0022D8
S31580002F900221164800F067FE144BD3F88830134A96
S31580002FA043F48053C2F88830002203210F4800F092
S31580002FB05AFE0E4BD3F88C300C4A43F48053C2F839
S31580002FC08C3000233B807B7843F010037B703B463C
S31580002FD01A4604210548FFF779FF00BF1037BD4622
S31580002FE080BD00BF0060114000701140009011400C
S31580002FF010B5174A1749002000F0FEFE4FF4807383
S315800030004FF480620021124800F06FFE124A134985
S31580003010012000F0F1FE4FF480734FF480620021AE
S315800030200D4800F062FE0E4B1B68022B0EDD0D4A2A
S315800030300A49022000F0E0FEBDE810404FF480739C
S315800030404FF480620021074800F04FBE10BD00BFDC
S31580003050900100204C460080CC0100204E46008026
S3158000306048460080080200202DE9F041D568804658
S31580003070EB020E461446576905D5384600F0C4FF64
S3158000308045F01005A061124B2B408BB13846A169E3
S3158000309000F0C3FF002806DAE3684FF0FF3043F004
S315800030A08003E36011E025F4003525F01005E56026
S315800030B032464146384600F0B6FF20F00043F61A05
S315800030C0A3693344A3610028E6D1BDE8F08100BF3F
S315800030D010000200F8B5044638B905460A4B0B4E77
S315800030E01F68A74205DC2846F8BDBDE8F84000F019
S315800030F016BF304600F013FF002818BF4FF0FF358B
S3158000310001343C36EDE700BF484600809001002040
S315800031102DE9F843C6683B4B044633400D4690463E
S31580003120D0F814906BB1484600F071FF074640B95D
S31580003130B8F1010F09D0B8F1020F31D0B8F1000F04
S3158000314007D002273846BDE8F883204600F05CF8B1
S315800031500544002DF5DBB30404D52368E26A9A4260
S3158000316038BFE362A069A8420EDC2368E26A934214
S3158000317038BF134622691918891AA94204DB216BC4
S3158000318000EB010CAC452CDC0023C4E9013346F08E
S315800031902006A56226F4032626F04006E660D1E7DF
S315800031A0484600F031FFB0F1000CE26804DA42F0E4
S315800031B080020127E260C5E72168A369E06A81424F
S315800031C02CBF5B181B1821699206A3EB010303D55C
S315800031D0A26A9342B8BF13466345ACBFED186544F7
S315800031E0B7E72D1AB00744BF691AA160F10744BF3B
S315800031F09B1AEB1A2A4448BF6360226026F0200699
S31580003200C8E700BF03001000C3689A0705D12122D2
S315800032100D4B4FF0FF301A60704703F020021B03FE
S3158000322009D512B1806A01387047036882690069DE
S315800032301344181AF7E70AB1806A704703688269EF
S3158000324000691344181A70478C0100200FB480B5AA
S3158000325082B000AF00237B6007F114033B603968BE
S315800032603869FEF7E7F878607B6818460837BD4608
S31580003270BDE8804004B0704780B586B000AFB960C5
S315800032807A603B600346FB73BB687B610BE0FA7B2D
S315800032903B6A104698473B681B685A1C3B681A6015
S315800032A07B6901337B617A697B689A42EFDB00BF79
S315800032B000BF1837BD4680BD80B48FB000AFF860C0
S315800032C0B9607A603B600023FB62FB68BB62BB6AC5
S315800032D05A1CBA6200221A7000237B6000237B622C
S315800032E000233B620023FB6100237B630023BB61D9
S315800032F000233B6300237B61BB681B687B637B6B1E
S31580003300002B30D1BB6A30221A70FB6A0133FB6214
S31580003310FB6A2CE03B687A6BB2FBF3F3BB613B68DC
S31580003320BA6902FB03F37A6BD31A3B633B6B092BB7
S3158000333003D83B6B30333B630AE097F84030002B71
S3158000334001D0412200E061223B6B13440A3B3B6380
S31580003350BB697B63BB6A5A1CBA623A6BD2B21A707B
S31580003360FB6A0133FB627B6B002BD3D1FB6A184669
S315800033703C37BD465DF8047B704708B5FEF708F814
S3158000338008BD08B5FEF704F808BD08B5FEF700F8D5
S3158000339008BD08B5FDF7FCFF08BD08B5FDF7F8FFC9
S315800033A008BD08B5FDF7F4FF08BD08B5FDF7F0FFC9
S315800033B008BD08B5FDF7ECFF08BD08B5FDF7E8FFC9
S315800033C008BD08B5FDF7E4FF08BD08B5FDF7E0FFC9
S315800033D008BD08B5FDF7DCFF08BD08B5FDF7D8FFC9
S315800033E008BD08B5FDF7D4FF08BD08B5FDF7D0FFC9
S315800033F008BD08B5FDF7CCFF08BD08B5FDF7C8FFC9
S3158000340008BD08B5FDF7C4FF08BD08B5FDF7C0FFC8
S3158000341008BD08B5FDF7BCFF08BD08B5FDF7B8FFC8
S3158000342008BD08B5FDF7B4FF08BD08B5FDF7B0FFC8
S3158000343008BD08B5FDF7ACFF08BD08B5FDF7A8FFC8
S3158000344008BD08B5FDF7A4FF08BD08B5FDF7A0FFC8
S3158000345008BD08B5FDF79CFF08BD08B5FDF798FFC8
S3158000346008BD08B5FDF794FF08BD08B5FDF790FFC8
S3158000347008BD08B5FDF78CFF08BD08B5FDF788FFC8
S3158000348008BD08B5FDF784FF08BD08B5FDF780FFC8
S3158000349008BD08B500F0C7FA08BD08B500F0CAFA3D
S315800034A008BD08B500F0CDFA08BD08B500F0D0FA21
S315800034B008BD08B500F0D3FA08BD08B500F0D6FA05
S315800034C008BD08B500F0D9FA08BD08B500F0DCFAE9
S315800034D008BD08B500F0DFFA08BD08B500F0E2FACD
S315800034E008BD08B5FDF754FF08BD08B5FDF750FFC8
S315800034F008BD08B5FDF74CFF08BD08B5FDF748FFC8
S3158000350008BD08B5FDF744FF08BD08B5FDF740FFC7
S3158000351008BD08B5FDF73CFF08BD08B5FDF738FFC7
S3158000352008BD08B5FDF734FF08BD08B5FDF730FFC7
S3158000353008BD08B5FDF72CFF08BD08B5FDF728FFC7
S3158000354008BD08B5FDF724FF08BD08B5FDF720FFC7
S3158000355008BD08B5FDF71CFF08BD08B5FDF718FFC7
S3158000356008BD08B5FDF714FF08BD08B5FDF710FFC7
S3158000357008BD08B5FDF70CFF08BD08B5FDF708FFC7
S3158000358008BD08B5FDF704FF08BD08B5FDF700FFC7
S3158000359008BD08B5FDF7FCFE08BD08B5FDF7F8FEC9
S315800035A008BD08B5FDF7F4FE08BD08B5FDF7F0FEC9
S315800035B008BD08B5FDF7ECFE08BD08B5FDF7E8FEC9
S315800035C008BD08B5FDF7E4FE08BD08B5FDF7E0FEC9
S315800035D008BD08B5FDF7DCFE08BD08B5FDF7D8FEC9
S315800035E008BD08B5FDF7D4FE08BD08B5FDF7D0FEC9
S315800035F008BD08B5FDF7CCFE08BD08B5FDF7C8FEC9
S3158000360008BD08B5FDF7C4FE08BD08B5FDF7C0FEC8
S3158000361008BD08B5FDF7BCFE08BD08B5FDF7B8FEC8
S3158000362008BD08B5FDF7B4FE08BD08B5FDF7B0FEC8
S3158000363008BD08B5FDF7ACFE08BD08B5FDF7A8FEC8
S3158000364008BD08B5FDF7A4FE08BD08B5FDF7A0FEC8
S3158000365008BD08B5FDF79CFE08BD08B5FDF798FEC8
S3158000366008BD08B5FDF794FE08BD08B5FDF790FEC8
S3158000367008BD08B5FDF78CFE08BD08B5FDF788FEC8
S3158000368008BD08B5FDF784FE08BD08B5FDF780FEC8
S3158000369008BD08B5FDF77CFE08BD08B5FDF778FEC8
S315800036A008BD08B5FDF774FE08BD08B5FDF770FEC8
S315800036B008BD08B5FDF76CFE08BD08B5FDF768FEC8
S315800036C008BD08B5FDF764FE08BD08B5FDF760FEC8
S315800036D008BD08B5FDF75CFE08BD08B5FDF758FEC8
S315800036E008BD08B5FDF754FE08BD08B5FDF750FEC8
S315800036F008BD08B5FDF74CFE08BD08B5FDF748FEC8
S3158000370008BD08B5FDF744FE08BD08B5FDF740FEC7
S3158000371008BD08B5FDF73CFE08BD08B5FDF738FEC7
S3158000372008BD08B5FDF734FE08BD08B5FDF730FEC7
S3158000373008BD08B5FDF72CFE08BD08B5FDF728FEC7
S3158000374008BD08B5FDF724FE08BD08B5FDF720FEC7
S3158000375008BD08B5FDF71CFE08BD08B5FDF718FEC7
S3158000376008BD08B5FDF714FE08BD08B5FDF710FEC7
S3158000377008BD08B5FDF70CFE08BD08B5FDF708FEC7
S3158000378008BD08B5FDF704FE08BD08B5FDF700FEC7
S3158000379008BD08B5FDF7FCFD08BD08B5FDF7F8FDC9
S315800037A008BD08B5FDF7F4FD08BD08B5FDF7F0FDC9
S315800037B008BD08B5FDF7ECFD08BD08B5FDF7E8FDC9
S315800037C008BD08B5FDF7E4FD08BD08B5FDF7E0FDC9
S315800037D008BD08B5FDF7DCFD08BD08B5FDF7D8FDC9
S315800037E008BD08B5FDF7D4FD08BD08B5FDF7D0FDC9
S315800037F008BD08B5FDF7CCFD08BD08B5FDF7C8FDC9
S3158000380008BD08B5FDF7C4FD08BD08B5FDF7C0FDC8
S3158000381008BD08B5FDF7BCFD08BD08B5FDF7B8FDC8
S3158000382008BD08B5FDF7B4FD08BD08B5FDF7B0FDC8
S3158000383008BD08B5FDF7ACFD08BD08B5FDF7A8FDC8
S3158000384008BD08B5FDF7A4FD08BD08B5FDF7A0FDC8
S3158000385008BD08B5FDF79CFD08BD80B485B000AFF6
S315800038600346FB80FB88002B0DD0FB881B0AFB6080
S31580003870FB88DBB24FF0804101229A40FB68883397
S3158000388041F8232000E000BF1437BD465DF8047B75
S31580003890704780B485B000AFF860B9601346FB719D
S315800038A0FB79002B05D10122BB689A40FB689A649C
S315800038B004E00122BB689A40FB685A6400BF143753
S315800038C0BD465DF8047B704780B483B000AF7860F6
S315800038D039607B683A68DA6400BF0C37BD465DF8AC
S315800038E0047B704704207146084202D0EFF30980BA
S315800038F001E0EFF3088081690A884BF6AB639A4250
S3158000390000D0FEE7023181610168012901D00021E2
S3158000391000E020210160704700BF80B52DED028B4D
S3158000392084B000AF0023BB604FF00003FB60FEF75E
S3158000393029FAB860FEF7B0F80346002B22D0FEF7CE
S3158000394025FB7860FEF742FB3860BA687B68B2FB7D
S31580003950F3F3BB60BB6807EE903AB8EE678AFEF772
S3158000396065FBF0EE407A68EE277AC7ED037A3B680E
S3158000397007EE903AB8EE677AD7ED036AC6EE877A95
S31580003980C7ED037AD7ED037AFCEEE77A17EE903A25
S3158000399018461037BD46BDEC028B80BD80B485B01D
S315800039A000AF0346FB80FB88002B0DD0FB881B0AEB
S315800039B0FB60FB88DBB24FF0804101229A40FB68B6
S315800039C0883341F8232000E000BF1437BD465DF8F8
S315800039D0047B704780B483B000AF78600B46FB7081
S315800039E0FB78002B01D1012317E0FB78032B0ED83F
S315800039F07B68D3F8F82FFB78033322FA03F303F0BE
S31580003A000103002B14BF01230023DBB205E0FB7802
S31580003A10072B01D1012300E0002318460C37BD4651
S31580003A205DF8047B704780B500AF0020FEF7DEFBB3
S31580003A3000BF80BD80B500AF0120FEF7D7FB00BF79
S31580003A4080BD80B500AF0220FEF7D0FB00BF80BDF1
S31580003A5080B500AF0320FEF7C9FB00BF80BD80B5EF
S31580003A6000AF0420FEF7C2FB00BF80BD80B500AF6B
S31580003A700520FEF7BBFB00BF80BD80B500AF0620EA
S31580003A80FEF7B4FB00BF80BD80B500AF0720FEF710
S31580003A90ADFB00BF80BD80B500AF0820FEF7A6FB5A
S31580003AA000BF80BD80B500AF0920FEF79FFB00BF39
S31580003AB080BD80B483B000AF78607B689B6843F03C
S31580003AC002027B689A607B689B6823F002027B68AF
S31580003AD09A6000BF0C37BD465DF8047B704780B4A2
S31580003AE083B000AF78607B68D3F800311B0D03F09C
S31580003AF00303DBB218460C37BD465DF8047B70477E
S31580003B0080B485B000AF78607B68D3F8003103F06D
S31580003B107C53FB60FB6818461437BD465DF8047B12
S31580003B20704780B483B000AF78600B46FB707B68CB
S31580003B30D3F8003123F44062FB789B0203F44063A0
S31580003B401A437B68C3F8002100BF0C37BD465DF879
S31580003B50047B704780B582B000AF78600B46FB70FF
S31580003B60FB78012B08D17868FFF7CAFF0346002B44
S31580003B7002D042F6A10319E0FB78022B08D17868BF
S31580003B80FFF7ADFF0346002B02D142F6A6030DE0F8
S31580003B907B68D3F8003123F44072FB781B0203F470
S31580003BA040731A437B68C3F8002100231846083700
S31580003BB0BD4680BD80B400AF00BFBD465DF8047BC6
S31580003BC0704780B485B000AF78607B68002B02D1E7
S31580003BD00023FB8102E042F6AF73FB81FB89184626
S31580003BE01437BD465DF8047B704780B485B000AF5E
S31580003BF00346FB80FB88002B0DD0FB881B0AFB60ED
S31580003C00FB88DBB24FF0804101229A40FB68883303
S31580003C1041F8232000E000BF1437BD465DF8047BE1
S31580003C20704780B500AFFFF70DF900BF80BD80B447
S31580003C3085B000AF0346FB80FB88002B0DD0FB8848
S31580003C401B0AFB60FB88DBB24FF0804101229A4061
S31580003C50FB68883341F8232000E000BF1437BD4657
S31580003C605DF8047B704780B485B000AFF860B960BA
S31580003C701346FB71FB68BA68203253F8223023F46E
S31580003C807062FB791B0203F4706342EA0301FB68EE
S31580003C90BA68203243F8221000BF1437BD465DF85B
S31580003CA0047B704708B5FFF7A3F9BDE80840FDF728
S31580003CB05BBE00F073B900F08BB9A8B14FF08053AA
S31580003CC040F80C3C50F8042C72B11368B3F1805F55
S31580003CD00AD150F8083C516803330B4440F8083C3D
S31580003CE0936840F8043CEDE7704770B5C468A50753
S31580003CF008D0B2F5007F11D0B2F5806F04D0B2F54E
S31580003D00807F0BD0012008E0012300F124011443B9
S31580003D1001610160C361C460002070BD6FF07F45A2
S31580003D205E1EAE42F3D3EDE740EA01039B0710B572
S31580003D3013D10246043951F8043FA3F1013424EA31
S31580003D40030414F0803F05D0D9B202F8011B59B1A3
S31580003D501B12F9E742F8043BEDE7421E11F8013BDE
S31580003D6002F8013F002BF9D110BD034610B59A0722
S31580003D701C4615D1234654F8042BA2F1013121EAC1
S31580003D80020111F0803FF5D0D1B299B112F47F4F84
S31580003D900ED012F47F0F14BF23460333013003E0A5
S31580003DA01A4612F8011B09B9181A10BD1346DEE728
S31580003DB00233F3E70133F1E7C36810B523F020033C
S31580003DC08269C360836A04469A420ED000F048F83E
S31580003DD0E36823F4405323F0100343F01003E360B9
S31580003DE0A36AA3612369E3622360E36823F48043C3
S31580003DF023F04003E36010BD70B50D4606461046BD
S31580003E00144600F056F82B78722B17D0772B18D0E3
S31580003E10612B23D1082348F2020215F8011F2B29B2
S31580003E2012D0622915D01B07E260666104D5022292
S31580003E3000212046FFF76CF9204670BD0023012241
S31580003E40EBE704230222E8E742F0030243F0020391
S31580003E50E3E742F0040243F00103DEE70024EBE7E8
S31580003E6038B50446C36805690168C26A23F4002030
S31580003E70E06003F08200022802D04FF0FF3038BDA8
S31580003E80DB030CD5914238BF11468D4209D1002300
S31580003E90A360E368E56223F480332560E360002055
S31580003EA0EDE722462846491BFFF7DEF80028EED0CC
S31580003EB0E3E7F0B5D0E90467C4680546A10789B091
S31580003EC020D0220716D4FFF705F9384600F099F876
S31580003ED0230502D53046FFF7F0FEA40DA40514F1A4
S31580003EE0A54F07D120226846296A00F099F86846CE
S31580003EF000F00BF83C2200212846FFF7DCFE00206C
S31580003F0009B0F0BD4FF0FF30FAE710B50446FFF771
S31580003F102CFF01462046BDE8104000F07BB8C36800
S31580003F2070B513F00306044611D09B0611D5856A39
S31580003F30FFF742FFE368204623F44053E360FFF730
S31580003F408FFF0022064629462046FFF7E1F83046D5
S31580003F5070BD836905681D440369ED1AEAE7C30DE0
S31580003F6030B50202D3F19E0442F0004103D421FA17
S31580003F7004F0002130BDD3F1BE0504D4644201FAB9
S31580003F8004F0E940F6E7FE2B02D922F000421AB986
S31580003F90C00F01380146EDE70020FBE740EA010348
S31580003FA0DB0703460CD40346043A22BF51F804CB00
S31580003FB043F804CBB2F10402F7D2043208BF70474B
S31580003FC0013A24BF11F801CB03F801CBF8D870472A
S31580003FD0034613F0030F0ED101F0FF0141EA0121E0
S31580003FE041EA0141043A24BF43F8041BB2F10402BA
S31580003FF0F9D202F10402013A24BF03F8011BFAE761
S3158000400070474FF0FF3070474FF0FF3070474FF0EA
S31580004010FF3070474FF0FF3070474FF0FF307047EA
S315800040204FF0FF30704710467047FFFF41535345AE
S315800040305254204552524F522022202573200A0086
S31580004040494E545F584950004558545F584950006E
S31580004050566563746F72207461626C6520616464F6
S31580004060726573733A20307825580000756E6B6ED2
S315800040706F776E004E697276616E615F25733A2046
S3158000408068656C6C6F20776F726C6420677265658B
S315800040906E2E0D0A00FFFFFF0B010C010D010E01B4
S315800040A00F01100111011201130114010B0001000F
S315800040B00C0001000D0001000E0001000F00010040
S315800040C01000010011000100120001001300010020
S315800040D01400010066736C5F6C70666C6578636F44
S315800040E06D6D2E633A313233203A20706572697075
S315800040F068203C3D204C505F464C4558434F4D4DC3
S315800041005F5045524950485F4C50493243416E6436
S315800041104C505541525400FF66736C5F6C70666CF0
S315800041206578636F6D6D2E633A313535203A206937
S315800041306E7374616E6365203C202875696E743376
S31580004140325F742941525241595F53495A45287307
S315800041505F6C70666C6578636F6D6D42617365299F
S3158000416000FFFFFF00200940003009400040094061
S315800041700050094000400B4000500B4000600B404F
S3158000418000700B4000800B4000900B4066736C5FA4
S315800041906C70756172742E633A313038203A2069BA
S315800041A06E7374616E6365203C2041525241595F43
S315800041B053495A4528735F6C707561727442617396
S315800041C06573290066736C5F6C70756172742E639B
S315800041D03A323237203A204E554C4C20213D2063CE
S315800041E06F6E66696700000066736C5F6C707561E0
S315800041F072742E633A323238203A203055203C2071
S31580004200636F6E6669672D3E62617564526174651F
S315800042105F4270730000000066736C5F6C7075613E
S3158000422072742E633A323330203A202875696E7460
S31580004230385F742946534C5F464541545552455F15
S315800042404C50554152545F4649464F5F53495A45F3
S315800042506E286261736529203E20636F6E6669678A
S315800042602D3E74784669666F57617465726D6172AA
S315800042706B00000066736C5F6C70756172742E6380
S315800042803A323331203A202875696E74385F742942
S3158000429046534C5F464541545552455F4C505541B7
S315800042A052545F4649464F5F53495A456E2862616C
S315800042B0736529203E20636F6E6669672D3E72782E
S315800042C04669666F57617465726D61726B00FFFF38
S315800042D066736C5F6C70756172742E633A353231B9
S315800042E0203A204E554C4C20213D20636F6E6669E6
S315800042F06700FFFF66736C5F6C70756172742E6306
S315800043003A393637203A204E554C4C20213D206490
S315800043106174610066736C5F6C70756172742E6314
S315800043203A31303332203A204E554C4C20213D20B4
S315800043306461746100FFFFFF66736C5F726573650D
S31580004340742E633A3735203A20626974506F732031
S315800043503C2033327500FFFF66736C5F7370632E8B
S31580004360633A313334203A20636F6E666967202161
S315800043703D204E554C4C00FF66736C5F7370632E08
S31580004380633A31323338203A206F7074696F6E2009
S31580004390213D204E554C4C000020094000300940FC
S315800043A0004009400050094000400B4000500B403F
S315800043B000600B4000700B4000800B4000900B406B
S315800043C066736C5F616461707465725F6C707561D1
S315800043D072742E633A363832203A204E554C4C2031
S315800043E0213D2068616E646C6500000066736C5FB9
S315800043F0616461707465725F6C70756172742E63CE
S315800044003A363833203A204E554C4C20213D206395
S315800044106F6E66696700000066736C5F61646170C9
S315800044207465725F6C70756172742E633A36383457
S31580004430203A20636F6E6669672D3E696E7374617C
S315800044406E6365203C202873697A656F6628735F82
S315800044504C70756172744164617074657242617387
S315800044606529202F2073697A656F66284C505541DF
S3158000447052545F54797065202A29290066736C5FCF
S31580004480616461707465725F6C70756172742E633D
S315800044903A363835203A204E554C4C20213D2073F3
S315800044A05F4C70756172744164617074657242614B
S315800044B073655B636F6E6669672D3E696E73746143
S315800044C06E63655D00FFFFFF66736C5F616461709C
S315800044D07465725F6C70756172742E633A373633A9
S315800044E0203A204E554C4C20213D2068616E646CEC
S315800044F06500000066736C5F616461707465725FED
S315800045006C70756172742E633A373634203A204E59
S31580004510554C4C20213D20646174610066736C5F4C
S31580004520616461707465725F6C70756172742E639C
S315800045303A373635203A206C656E677468203E209F
S31580004540305500FF66736C5F616461707465725F7D
S315800045506C70756172742E633A373738203A204E04
S31580004560554C4C20213D2068616E646C65000000CE
S3158000457066736C5F616461707465725F6C7075611F
S3158000458072742E633A373739203A204E554C4C2078
S31580004590213D20646174610066736C5F6164617043
S315800045A07465725F6C70756172742E633A373830D9
S315800045B0203A206C656E677468203E20305500FF77
S315800045C0030200000301FFFF433A5C557365727373
S315800045D05C6E786639373037355C446F63756D65E8
S315800045E06E74735C4D43555870726573736F49442E
S315800045F0455F31312E382E305F313132355F707202
S3158000460063315C776F726B73706163655C6D6378C1
S315800046106E39787865766B5F6C65645F626C696E9F
S315800046206B795F30325C647269766572732F6673FC
S315800046306C5F706F72742E683A333537203A206318
S315800046406F6E66696700FFFF0300000072007700E7
S315800046500024F4000080000000200940003009405A
S31580004660004009400050094000400B4000500B407C
S3158000467000600B4000700B4000800B4000900B40A8
S30980004680006CDC0266
S7058000130166
