S02B0000433A5C55736572735C6E786636313334345C446F63756D656E74735C4D43555870726573736F49446F
S31518001000000038309111001829120018635A001878
S315180010102D1200182F12001831120018331200184A
S31518001020000028000000000000000000351200181B
S315180010303712001800100018391200183B12001841
S31518001040075800180F580018175800181F58001876
S31518001050275800182F580018375800183F580018E6
S31518001060475800184F580018575800185F58001856
S31518001070675800186F580018775800187F580018C6
S31518001080875800188F580018975800189F58001836
S31518001090A7580018AF580018B7580018BF580018A6
S315180010A0C7580018CF580018D7580018DF58001816
S315180010B0E7580018EF580018F7580018FF58001886
S315180010C0075900180F590018175900181F590018F2
S315180010D0275900182F590018375900183F59001862
S315180010E0475900184F590018575900185F590018D2
S315180010F0675900186F590018775900187F59001842
S31518001100875900188F590018975900189F590018B1
S31518001110A7590018AF590018B7590018BF59001821
S31518001120C7590018CF590018D7590018DF59001891
S31518001130E7590018EF590018F7590018FF59001801
S31518001140075A00180F5A0018175A00181F5A00186D
S31518001150275A00182F5A0018375A00183F5A0018DD
S31518001160475A00184F5A0018046700180000343000
S31518001170341800000467001800001450000000001E
S3151800118034183430B4000000000014500000000079
S3151800119072B6134B134A17480360196881F3088807
S315180011A082F30A8803F07AFC0F4B07E003F10C046C
S315180011B09A685968186800F01FF823460B4A934234
S315180011C0F4D306E01C46596854F8080B00F023F8C7
S315180011D02346074A9342F5D362B600F0E1FFFEE7CD
S315180011E00010001800F03730681100188011001828
S315180011F09011001808ED00E0002393420AD210B4AB
S3151800120050F8044B41F8044B04339342F8D35DF875
S31518001210044B70477047002303E0002240F8042B64
S3151800122004338B42F9D37047FEE7FEE7FEE7FEE785
S31518001230FEE7FEE7FEE7FEE7FEE7FEE7FEE7FFFF4F
S3151800124080B586B002AFF860B9607A603B607B689B
S315180012500093BB68FA683968044804F020FABA683B
S31518001260F968386804F00EFA00BEFDE7005E00184B
S3151800127080B58AB000AFB9607B600346FB7313462E
S31518001280BB73BB7B012B01D001232AE0174ABB7B1A
S3151800129013747B687B61BB68BB6100233B770023B3
S315180012A07B770123BB770123FB77002387F8203050
S315180012B0002387F82130FB7B87F82230002387F834
S315180012C02330002387F8243007F1140319460748FA
S315180012D004F020FD054B064A9A60044B054ADA606D
S315180012E0002318462837BD4680BD00BF3418343051
S315180012F031500018A54F001880B584B000AF78603B
S3151800130039600023FB60094B1B7C002B02D14FF080
S31518001310FF3306E03A687968054800F023F8F86064
S31518001320FB6818461037BD4680BD00BF34183430E8
S315180013303513001880B582B000AF7860084B1B7C57
S31518001340002B02D14FF0FF3306E0054B9B68391D81
S31518001350012203489847012318460837BD4680BD21
S315180013603418343080B59CB002AFF860B9607A6032
S3151800137000233B660023FB650023FB61002387F8E7
S315180013804A3000237B61BB687B667B6E1B78002B1B
S3151800139000F0D2817B6E1B7887F8493097F8493070
S315180013A0252B0BD097F84920FB6810469847FB6900
S315180013B00133FB617B6E01337B66BCE1012387F841
S315180013C04B3000237B65002387F85B3020E07B6E6B
S315180013D001337B667B6E1B7887F8493097F849305E
S315180013E02F2B0FD997F84930392B0BD87A6D13460E
S315180013F09B0013445B001A4697F849301344303B58
S315180014007B6505E07B6E013B7B66012387F85B30C5
S3151800141097F85B3083F00103DBB2002BD7D17B6ED4
S3151800142001337B667B6E1B782E2B2ED100233B65F2
S31518001430002387F85B3020E07B6E01337B667B6E7A
S315180014401B7887F8493097F849302F2B0FD997F81A
S315180014504930392B0BD83A6D13469B0013445B0061
S315180014601A4697F849301344303B3B6505E07B6EC6
S31518001470013B7B66012387F85B3097F85B3083F076
S315180014800103DBB2002BD7D102E07B6E013B7B66F2
S315180014907B6E01337B667B6E1B7887F8493097F82D
S315180014A04930642B24D097F84930692B20D097F807
S315180014B04930662B1CD097F84930462B18D097F828
S315180014C04930782B14D097F84930582B10D097F804
S315180014D049306F2B0CD097F84930622B08D097F803
S315180014E04930702B04D097F84930752B40F0DC80C2
S315180014F097F84930642B03D097F84930692B15D1E2
S315180015007B681A1D7A601B68BB6107F1180107F121
S31518001510200097F84B3000930A23012204F0F5F8BF
S31518001520F86507F12002FB6D13443B6697F84930BE
S31518001530582B03D097F84930782B1CD197F8493097
S31518001540782B02D1002387F84B307B681A1D7A60F6
S315180015501B687B6107F1140107F1200097F84B30DF
S3151800156000931023002204F0D0F8F86507F1200242
S31518001570FB6D13443B6697F849306F2B0BD097F8E1
S315180015804930622B07D097F84930702B03D097F85B
S315180015904930752B6AD197F84930702B0DD17B6875
S315180015A01A1D7A601B683B6107F1100107F11403D5
S315180015B00422184600F0C6F804E07B681A1D7A6003
S315180015C01B687B6197F84930623B132B3AD801A206
S315180015D052F823F02D16001845160018451600184F
S315180015E04516001845160018451600184516001811
S315180015F04516001845160018451600184516001801
S315180016004516001845160018251600183516001820
S3151800161045160018451600184516001845160018E0
S315180016203D160018082387F84A300CE0022387F87D
S315180016304A3008E0102387F84A3004E00A2387F86E
S315180016404A3000E000BF97F84A2007F1140107F165
S31518001650200097F84B3000931346002204F055F8F3
S31518001660F86507F12002FB6D13443B667A6D07F1A6
S315180016701C01FB6800930B46F96D202004F025F831
S315180016803B6E002B54D00AE03B6E5A1E3A661B7806
S315180016901A46FB6810469847FB690133FB613B6E97
S315180016A01B78002BF0D143E097F84930632B0BD108
S315180016B07B681A1D7A601B687B64FB68786C984790
S315180016C0FB690133FB6133E097F84930732B27D157
S315180016D07B681A1D7A601B68FB64FB6C002B27D08D
S315180016E0F86C04F07FFB0346FB657A6D07F11C0165
S315180016F0FB6800930B46F96D202003F0E6FF0AE01D
S31518001700FB6C5A1CFA641B781A46FB6810469847F5
S31518001710FB690133FB61FB6C1B78002BF0D107E0EA
S3151800172097F84920FB6810469847FB690133FB6117
S315180017307B6E01337B6628E600BFFB69184668375F
S31518001740BD4680BDF1B5002A4BD011F0030306D073
S3151800175011F8014B013A00F8014B42D0F5E710F0A9
S3151800176003031BD1102A04DB103AF0C9102AF0C063
S31518001770FAD2130744BF30C930C0530744BF51F8D3
S31518001780044B40F8044B930744BF31F8024B20F83A
S31518001790024BD30744BF0C78047022E0C3070AD45F
S315180017A0042A16D351F8044B043A20F8024B250C98
S315180017B020F8025BF4E7042A0BD351F8044B043AD9
S315180017C000F8014B250A20F8025B260E00F8016B7B
S315180017D0F1E7002A1EBF11F8014B00F8014B013A38
S315180017E0F7D1F1BD90B585B000AF78607B681B68FE
S315180017F0BB60BB6883F3888800BF1A4A7B6893600E
S315180018007B6804331B68FB60FB681C46640864002D
S315180018102046214622462346B7EE000AF7EE000A6E
S31518001820B7EE001AF7EE001AB7EE002AF7EE002AFE
S31518001830B7EE003AF7EE003AB7EE004AF7EE004A6E
S31518001840B7EE005AF7EE005AB7EE006AF7EE006ADE
S31518001850B7EE007AF7EE007A04F08EFA00BF143766
S31518001860BD4690BD00ED02E080B400AFBC4B00222F
S315180018701A60BB4B00229A60B94BBA4ADA60B84B69
S31518001880B94A1A61B64B01229A60B54B4FF080429D
S31518001890DA60B34BB54A1A61B14B02229A60B04B63
S315180018A04FF00162DA60AE4BB14A1A61AC4B0322B3
S315180018B09A60AB4BAF4ADA60A94BAF4A1A61BFF3CD
S315180018C04F8F00BFBFF36F8F00BFA54B01221A6061
S315180018D0AA4B00221A61A94B00225A61A74B002273
S315180018E09A61A64B0022DA61A44B43F233321A638B
S315180018F0A24B00225A63A14B00229A639F4B0022E7
S31518001900DA639E4B00221A649C4B00221A659B4B85
S3151800191000221A66994B00221A67984B0022C3F8C0
S315180019209020964B0022C3F89420944B0022C3F8BB
S315180019309820924B0022C3F89C20904B0022C3F8A3
S31518001940A0208E4B0022C3F8A4208C4B0022C3F88B
S31518001950A8208A4B0022C3F8AC20884B0022C3F873
S31518001960C020864B0022C3F8C420844B0022C3F83B
S31518001970C820824B0022C3F8CC20804B0022C3F823
S31518001980D0207E4B0022C3F8D4207C4B0022C3F80B
S31518001990D8207A4B0022C3F8DC20784B0022C3F8F3
S315180019A0F020764B0022C3F8F420744B0022C3F8BB
S315180019B0F820724B0022C3F8FC20704B0022C3F8A3
S315180019C000216E4B0022C3F804216C4B0022C3F889
S315180019D008216A4B0022C3F80C21684B0022C3F871
S315180019E01021664B0022C3F81421644B0022C3F859
S315180019F01821624B0022C3F81C21604B0022C3F841
S31518001A0020215E4B0022C3F824215C4B0022C3F828
S31518001A1028215A4B0022C3F82C21584B0022C3F810
S31518001A204021564B0022C3F84421544B0022C3F8D8
S31518001A304821524B0022C3F84C21504B0022C3F8C0
S31518001A4050214E4B0022C3F854214C4B0022C3F8A8
S31518001A5058214A4B0022C3F85C21484B0022C3F890
S31518001A606021464B0022C3F86421444B0022C3F878
S31518001A706821424B0022C3F86C21404B0022C3F860
S31518001A8070213E4B0022C3F874213C4B0022C3F848
S31518001A9078213A4B0022C3F87C21384B0022C3F830
S31518001AA05022364B0022C3F85422344B0022C3F876
S31518001AB05822324B0022C3F85C22304B0022C3F85E
S31518001AC060222E4B0022C3F864222C4B0022C3F846
S31518001AD068222A4B0022C3F86C22284B0022C3F82E
S31518001AE08022264B0022C3F88422244B0022C3F8F6
S31518001AF08822224B0022C3F88C22204B4FF0333217
S31518001B00C3F890221D4B4FF03332C3F894221B4B67
S31518001B104FF03332C3F89822184B4FF03332C3F8CC
S31518001B209C22164B0022C3F8A022144B0022C3F89D
S31518001B30A422124B0022C3F8A822104B0022C3F885
S31518001B40AC220E4B0022C3F8B0220C4B0022C3F86D
S31518001B50B4220A4B0022C3F8B822084B00220FE021
S31518001B60D0ED00E000003820E1FF3F20E1FF2740DC
S31518001B70E1FF1F0800FE0F18E3FF0F18008014502E
S31518001B80C3F8BC22C64B0022C3F8D022C44B00228D
S31518001B90C3F8D422C24B0022C3F8D822C04B002265
S31518001BA0C3F8DC22BE4B0022C3F8E022BC4B00224D
S31518001BB0C3F8E422BA4B0022C3F8E822B84B002235
S31518001BC0C3F8EC22B64B0022C3F8F022B44B00221D
S31518001BD0C3F8F422B24B0022C3F8F822B04B002205
S31518001BE0C3F8FC22AE4B0022C3F80023AC4B0022EC
S31518001BF0C3F80423AA4B0022C3F80823A84B0022D3
S31518001C00C3F80C23A64B0022C3F89021A44B00223C
S31518001C10C3F89421A24B0022C3F89821A04B0022A6
S31518001C20C3F89C219E4B0022C3F8A0219C4B00228E
S31518001C30C3F8A4219A4B0022C3F8A821984B002276
S31518001C40C3F8AC21964B0022C3F8B021944B00225E
S31518001C50C3F8B421924B0022C3F8B821904B002246
S31518001C60C3F8BC218E4B0022C3F8C0218C4B00222E
S31518001C70C3F8C4218A4B0022C3F8C821884B002216
S31518001C80C3F8CC21864B0022C3F8E021844B0022EE
S31518001C90C3F8E421824B0022C3F8E821804B0022C6
S31518001CA0C3F8EC217E4B0022C3F8F0217C4B0022AE
S31518001CB0C3F8F4217A4B0022C3F8F821784B002296
S31518001CC0C3F8FC21764B0022C3F80022744B00227D
S31518001CD0C3F80422724B0022C3F80822704B002264
S31518001CE0C3F80C226E4B0022C3F810226C4B00224C
S31518001CF0C3F814226A4B0022C3F81822684B002234
S31518001D00C3F81C22664B0022C3F83022644B00220B
S31518001D10C3F83422624B0022C3F83822604B0022E3
S31518001D20C3F83C225E4B0022C3F840225C4B0022CB
S31518001D30C3F844225A4B0022C3F84822584B0022B3
S31518001D40C3F84C22564B0022C3F82023544B0022CA
S31518001D50C3F82423524B0022C3F82823504B0022E1
S31518001D60C3F82C234E4B0022C3F840234C4B0022B9
S31518001D70C3F844234A4B0022C3F84823484B002291
S31518001D80C3F84C23464B0022C3F85023444B002279
S31518001D90C3F86023424B0022C3F87023404B00223D
S31518001DA0C3F880233E4B0022C3F810243C4B6FF037
S31518001DB00322C3F8A0233A4B6FF04C52C3F8A4235E
S31518001DC0374B384AC3F8B023354B4FF0CC32C3F8EB
S31518001DD0B423334B344AC3F8B823314B334AC3F8C8
S31518001DE0C0232F4B324AC3F8D0232D4B4FF0CC3299
S31518001DF0C3F8E0232A4B6FF00302C3F8E423284BF9
S31518001E002C4AC3F80024264B294AC3F80424244B29
S31518001E10294AC3F81024224B4FF0FF32C3F8202466
S31518001E201F4B264AC3F830241D4B214AC3F83424C5
S31518001E301B4B4FF00042C3F8D02F194B6FF080425E
S31518001E40C3F8D42F164B6FF00602C3F8802F144B25
S31518001E504FF0FF32C3F8842F114B4FF0FF32C3F8FF
S31518001E60882F174B0022C3F88022154B0022C3F87F
S31518001E708422134B0022C3F88822124BDA6849F6DB
S31518001E80F77313400F4A43F0BF6343F40033D3602C
S31518001E900C4B1B690B4A23F00803136114E000BFAF
S31518001EA000801450FFFCCFCCCCCCFCCCCCFCCCCCDA
S31518001EB0CCCCFCFFFCFFCFCCCFCCFFFFCCCFCCCC0F
S31518001EC000E100E000ED00E0214B5B6A204A23F4B4
S31518001ED0002353621E4B40F60342C3F88C204FF082
S31518001EE0E0230022DA601B4BD3F8BC3F23F44033BF
S31518001EF023F03F03174A43F4003343F02A03C2F88A
S31518001F00BC3F144BD3F8D03F23F04043114A43F05B
S31518001F100043C2F8D03F0F4BD3F8D43F23F04043C9
S31518001F200C4A43F00043C2F8D43F0A4B0A4AC3F896
S31518001F30EC2F084B4AF6A522C3F8FC2F054B4AF698
S31518001F40A522C3F8F82F00BFBD465DF8047B70477D
S31518001F5000ED00E000801450AA02008080B584B01D
S31518001F6000AF78604FF48061786803F02FFCF86052
S31518001F70FB68B3F5806F09D17A68FB6813441B7840
S31518001F80002B03D0254803F08AFBFEE71A22F968CE
S31518001F90786803F06BF90346002B03D1204803F049
S31518001FA07EFBFEE7786803F07AFB00BF1037BD4664
S31518001FB0BDE880407046714672467346B7EE000A11
S31518001FC0F7EE000AB7EE001AF7EE001AB7EE002A77
S31518001FD0F7EE002AB7EE003AF7EE003AB7EE004AE7
S31518001FE0F7EE004AB7EE005AF7EE005AB7EE006A57
S31518001FF0F7EE006AB7EE007AF7EE007A8EF3008CE9
S3151800200010B4F1EE10CA4FF66074C0F6FF740CEAFD
S31518002010040CE1EE10CA10BCF4467447405E001872
S31518002020745E001890B589B000AFF860B9607A6030
S31518002030FB6823F00103FB6112220421F86903F0FF
S3151800204015F90346002B03D14F4803F028FBFEE78A
S315180020504FF48061B86803F0B9FBB861BB69B3F592
S31518002060806F09D1BA68BB6913441B78002B03D05B
S31518002070464803F014FBFEE74FF48061786803F0D6
S31518002080A5FBB861BB69B3F5806F09D17A68BB69DE
S3151800209013441B78002B03D03D4803F000FBFEE7E2
S315180020A03C4803F0FCFA3C4803F0F9FAB86803F028
S315180020B0F6FA3A4803F0F3FA786803F0F0FAFB698F
S315180020C07968B8681C466408640022462346B7EE49
S315180020D0000AF7EE000AB7EE001AF7EE001AB7EE86
S315180020E0002AF7EE002AB7EE003AF7EE003AB7EEF6
S315180020F0004AF7EE004AB7EE005AF7EE005AB7EE66
S31518002100006AF7EE006AB7EE007AF7EE007A03F087
S3151800211033FE78617B6918462437BD46BDE8904082
S31518002120714672467346B7EE000AF7EE000AB7EE26
S31518002130001AF7EE001AB7EE002AF7EE002AB7EEE5
S31518002140003AF7EE003AB7EE004AF7EE004AB7EE55
S31518002150005AF7EE005AB7EE006AF7EE006AB7EEC5
S31518002160007AF7EE007A8EF3008C10B4F1EE10CAEE
S315180021704FF66074C0F6FF740CEA040CE1EE10CA50
S3151800218010BCF446744700BFA05E0018D05E001855
S31518002190085F0018405F0018785F0018845F001801
S315180021A080B500AF03F048F802F0C0FF02F082FFD6
S315180021B0054803F074FA054803F071FA4FF0016008
S315180021C0FFF710FBFEE700BF905F0018AC5F001822
S315180021D080B400AF0A4BD3F86831002B09D0084BEE
S315180021E0D3F86831012B02D1064B1B6803E0002394
S315180021F001E0054B1B681846BD465DF8047B704721
S31518002200001000504C1834304818343080B400AFE1
S31518002210024B1846BD465DF8047B704740420F00D6
S3151800222080B400AF074BD3F8C03103F00103002B7D
S3151800223002D04FF4004300E000231846BD465DF86F
S31518002240047B70470010005080B487B000AF7860E8
S315180022500023FB7500233B6131E03A691346DB0026
S315180022609B1A5B001A467B68D340BB607B68002BC1
S315180022700ADABB689A0041F6FC73134003F1A043CF
S3151800228003F50433FB6009E0BB689A0041F6FC735A
S31518002290134003F1A04303F58053FB60BB68C3F3F7
S315180022A00A03002B06D0BB68DB0A03F00702FB689B
S315180022B01A6001E00123FB753B6901333B613B69F9
S315180022C0012B05D8FB7D83F00103DBB2002BC4D1AB
S315180022D07B6803F08043002B06D07B681B0F054AEA
S315180022E003F00303C2F8083100BF1C37BD465DF87A
S315180022F0047B7047001000502DE9B04F86B000AF30
S3151800230000237B613D4BD3F8003203F00703002B03
S3151800231002D0012B2AD02DE0384BD3F880309BB24F
S31518002320002B17D0354BD3F884309BB203F10043FA
S31518002330033B324AD2F86821002A04D02F4AD2F831
S315180023406821002201E041F2E46202FB03F323F064
S31518002350604309E0294BD3F8903003F03F032F2B45
S3151800236001D1274B00E0274B7B6109E0FFF730FFCF
S31518002370786105E0244B254A8A212548FEF760FF37
S315180023801E4BD3F8043203F00103002B2FD17B69BF
S3151800239000229A469346194BD3F8103200229846D3
S315180023A0914608FB0BF20AFB09F31344AAFB0845EE
S315180023B02B441D46114BD3F8143200223B607A6029
S315180023C0D7E900232046294602F0C2FF02460B46EB
S315180023D0C7E90223094BD3F804321B0CDAB27B691E
S315180023E002FB03F37B61BB687A6913447B617B69E3
S315180023F018461837BD46BDE8B08F00BF001000500C
S31518002400001BB70000366E01C85F00189C620018E2
S31518002410DC5F00182DE9B04FA6B000AF034687F869
S315180024208F30FFF769FFC7F89400884BD3F804324A
S3151800243003F00103002B40F0018197F88F30032B2E
S3151800244000F2F88001A252F823F000BF5D240018AC
S31518002450DB2400184F250018C3250018D7F8943028
S315180024600022C7F88030C7F88420D7E920452246CD
S315180024702B464FF000004FF00001D90041EA527187
S31518002480D00002460B46214651183962294643EBBD
S3151800249001017962D7E908120B46DB18BB611346AE
S315180024A042EB0303FB61D7E9063418462146674B0E
S315180024B0D3F818320022BB67FA67BB6F03F03F03E5
S315180024C03B6700237B67D7E91C2302F041FF0246CE
S315180024D00B461346C7F89430B0E0D7F8943000226C
S315180024E0BB66FA66D7E91A4522462B464FF0000016
S315180024F04FF00001D90041EA5271D00002460B464E
S31518002500214612EB010A294643EB010B1AEB0A0383
S315180025103B614BEB0B037B61D7E904AB504659463D
S315180025204A4BD3F818321B0A00223B667A663B6E72
S3151800253003F03F03BB650023FB65D7E9162302F0BA
S3151800254007FF02460B461346C7F8943076E0D7F8CD
S31518002550943000223B657A65D7E9144522462B4606
S315180025604FF000004FF00001D90041EA5271D00037
S3151800257002460B46214612EB0108294643EB010990
S3151800258018EB0803BB6049EB0903FB60D7E902891E
S31518002590404649462D4BD3F818321B0C0022BB6413
S315180025A0FA64BB6C03F03F033B6400237B64D7E9F2
S315180025B0102302F0CDFE02460B461346C7F8943098
S315180025C03CE0D7F894300022BB63FA63D7E90E894A
S315180025D042464B464FF000004FF00001D90041EA41
S315180025E05271D00002460B4641465418494643EBF1
S315180025F001010D4623193B6045EB05037B60D7E9BE
S31518002600004520462946114BD3F818321B0E0022D6
S315180026103B637A633B6B03F03F03BB620023FB62A9
S31518002620D7E90A2302F094FE02460B461346C7F86A
S31518002630943003E00023C7F8943000BFD7F89430DD
S3151800264018469837BD46BDE8B08F00BF0010005039
S3151800265080B500AF0020FFF7DDFE0246044BD3F825
S315180026604032DBB20133B2FBF3F3184680BD00BF2C
S31518002670001000502DE9B04F86B000AF00237B61E3
S315180026803B4BD3F8003203F00703002B02D0012B83
S315180026902AD02DE0374BD3F880309BB2002B17D0B9
S315180026A0344BD3F884309BB203F10043033B314AD1
S315180026B0D2F86821002A04D02E4AD2F868210022BE
S315180026C001E041F2E46202FB03F323F0604309E000
S315180026D0284BD3F8903003F03F032F2B01D1264B0C
S315180026E000E0264B7B6106E0FFF772FD786102E099
S315180026F000237B6100BF1E4BD3F8043203F001039D
S31518002700002B2FD17B6900229A469346184BD3F893
S31518002710103200229846914608FB0BF20AFB09F381
S315180027201344AAFB08452B441D46114BD3F8143203
S3151800273000223B607A60D7E900232046294602F03A
S3151800274007FE02460B46C7E90223094BD3F80432A3
S315180027501B0CDAB27B6902FB03F37B61BB687A69EF
S3151800276013447B617B6918461837BD46BDE8B08FA0
S315180027700010025000100050001BB70000366E0102
S315180027802DE9B04FA6B000AF034687F88F30FFF794
S3151800279071FFC7F89400884BD3F8043203F001038D
S315180027A0002B40F0018197F88F30032B00F2F88048
S315180027B001A252F823F000BFC927001847280018AD
S315180027C0BB2800182F290018D7F894300022C7F80C
S315180027D08030C7F88420D7E9204522462B464FF08B
S315180027E000004FF00001D90041EA5271D0000246AC
S315180027F00B46214651183962294643EB0101796285
S31518002800D7E908120B46DB18BB61134642EB0303E4
S31518002810FB61D7E9063418462146674BD3F81832B8
S315180028200022BB67FA67BB6F03F03F033B670023C1
S315180028307B67D7E91C2302F08BFD02460B4613462D
S31518002840C7F89430B0E0D7F894300022BB66FA6621
S31518002850D7E91A4522462B464FF000004FF00001E3
S31518002860D90041EA5271D00002460B46214612EBB6
S31518002870010A294643EB010B1AEB0A033B614BEBA2
S315180028800B037B61D7E904AB504659464A4BD3F83C
S3151800289018321B0A00223B667A663B6E03F03F032A
S315180028A0BB650023FB65D7E9162302F051FD0246E6
S315180028B00B461346C7F8943076E0D7F894300022C2
S315180028C03B657A65D7E9144522462B464FF000003A
S315180028D04FF00001D90041EA5271D00002460B466A
S315180028E0214612EB0108294643EB010918EB0803A8
S315180028F0BB6049EB0903FB60D7E9028940464946A4
S315180029002D4BD3F818321B0C0022BB64FA64BB6C2F
S3151800291003F03F033B6400237B64D7E9102302F0DE
S3151800292017FD02460B461346C7F894303CE0D7F815
S3151800293094300022BB63FA63D7E90E8942464B46A8
S315180029404FF000004FF00001D90041EA5271D00053
S3151800295002460B4641465418494643EB01010D46BB
S3151800296023193B6045EB05037B60D7E900452046F4
S315180029702946114BD3F818321B0E00223B637A6393
S315180029803B6B03F03F03BB620023FB62D7E90A23C4
S3151800299002F0DEFC02460B461346C7F8943003E0F5
S315180029A00023C7F8943000BFD7F8943018469837E4
S315180029B0BD46BDE8B08F00BF0010025080B500AF0D
S315180029C00020FFF7DDFE0246044BD3F84032DBB297
S315180029D00133B2FBF3F3184680BD00BF0010025056
S315180029E080B483B000AF00237B60624BD3F8083104
S315180029F003F00303032B00F2B38001A252F823F06D
S31518002A00112A0018652A0018B92A00180D2B001863
S31518002A10584BD3F880309BB2002B17D0554BD3F8B0
S31518002A2084309BB203F10043033B524AD2F8682123
S31518002A30002A04D04F4AD2F86821002201E041F258
S31518002A40E46202FB03F3DB005B0809E0494BD3F8A9
S31518002A50903003F03F032F2B01D1474B00E0474B33
S31518002A607B6080E0434BD3F880309BB2002B17D0A5
S31518002A70404BD3F884309BB203F10043033B3D4AE5
S31518002A80D2F86821002A04D03A4AD2F868210022DE
S31518002A9001E041F2E46202FB03F3DB009B0809E064
S31518002AA0344BD3F8903003F03F032F2B01D1344B1E
S31518002AB000E0314B7B6056E02E4BD3F880309BB24A
S31518002AC0002B17D02B4BD3F884309BB203F100435D
S31518002AD0033B284AD2F86821002A04D0254AD2F89E
S31518002AE06821002201E041F2E46202FB03F323F0BD
S31518002AF0604309E01F4BD3F8903003F03F032F2BA8
S31518002B0001D1204B00E01E4B7B602CE0194BD3F80B
S31518002B1080309BB2002B17D0164BD3F884309BB25B
S31518002B2003F10043033B134AD2F86821002A04D064
S31518002B30104AD2F86821002201E041F2E46202FB51
S31518002B4003F3DB001B0909E00A4BD3F8903003F0B6
S31518002B503F032F2B01D10C4B00E00A4B7B6002E0A0
S31518002B6000237B6000BF7B6818460C37BD465DF8AE
S31518002B70047B704700100050006CDC0200D8B805C2
S31518002B8000366E01001BB700808D5B0080B582B0E1
S31518002B9000AF00237B60354BD3F8343403F00303BE
S31518002BA0022B56D0022B58D8002B02D0012B4CD012
S31518002BB053E02E4BD3F8303403F00303032B40D8DD
S31518002BC001A252F823F000BFD92B0018E12B0018E8
S31518002BD0E92B0018F12B0018FFF718FB786033E083
S31518002BE0FFF7FEFE78602FE0FFF7F2FA78602BE029
S31518002BF01E4BD3F880309BB2002B16D01B4BD3F844
S31518002C0084309BB203F10043033B184AD2F868217B
S31518002C10002A04D0154AD2F86821002201E041F2B0
S31518002C20E46202FB03F3DB0009E0104BD3F89030A3
S31518002C3003F03F032F2B01D10D4B00E00D4B7B60AA
S31518002C4002E000237B6000BF0AE0FFF701FD786011
S31518002C5006E0FFF7E5FA786002E000237B6000BF24
S31518002C607B6818460837BD4680BD00BF0010005067
S31518002C7000D8B80500B0710B2DE9B04F8CB000AF75
S31518002C8078610023FB620123FB610023BB620023EA
S31518002C907B6200233B627B69112B06D9584B594A34
S31518002CA040F223215848FEF7CBFA7B69112B11D134
S31518002CB0564BD3F8203703F00703BB62534BD3F8B0
S31518002CC024371B0ADBB23B62504BD3F82437DBB2EE
S31518002CD07B621BE04D4A7B6928335B0113441B68F2
S31518002CE003F00703BB62494A7B6928335B01134427
S31518002CF004331B681B0ADBB23B62444A7B692833E0
S31518002D005B01134404331B68DBB27B62BB6A022B7C
S31518002D101BD0BB6A022B42D8BB6A002B03D0BB6AF6
S31518002D20012B04D03BE0FFF731FFF8623AE0374B4E
S31518002D30D3F86037DBB20133FB61FFF789FC024633
S31518002D40FB69B2FBF3F3FB622CE0314BD3F880300E
S31518002D509BB2002B17D02E4BD3F884309BB203F1BD
S31518002D600043033B2A4AD2F86821002A04D0284A8D
S31518002D70D2F86821002201E041F2E46202FB03F373
S31518002D80DB009B0809E0224BD3F8903003F03F0391
S31518002D902F2B01D11F4B00E01F4BFB6202E00023D3
S31518002DA0FB6200BFFB6A00229A4693467B6A0022A2
S31518002DB0BB60FA60D7E902120B465C1C134643F156
S31518002DC0000504FB0BF20AFB05F31344AAFB04895E
S31518002DD04B4499463A6A7B6A1344013300223B6096
S31518002DE07A60D7E900234046494602F0B1FA02460E
S31518002DF00B46134618463037BD46BDE8B08F00BFA0
S31518002E00E85F0018B0620018DC5F00180010025066
S31518002E100010005000366E01006CDC0280B584B0DC
S31518002E2000AF78600023FB600023BB607B68102B23
S31518002E3006D92F4B2F4A40F253212F48FEF700FA96
S31518002E402E4A7B685B01134403F5A1631B68BB60BC
S31518002E50BB6803F00703032B41D801A252F823F0ED
S31518002E60712E0018C52E0018CD2E0018D52E001854
S31518002E70234BD3F880309BB2002B17D0204BD3F8B6
S31518002E8084309BB203F10043033B1D4AD2F86821F4
S31518002E90002A04D01A4AD2F86821002201E041F229
S31518002EA0E46202FB03F3DB009B0809E0144BD3F83A
S31518002EB0903003F03F032F2B01D1124B00E0124B39
S31518002EC0FB600FE0FFF77AFDF8600BE00F4B1B680D
S31518002ED0FB6007E07868FFF7CFFEF86002E0002392
S31518002EE0FB6000BFFB6818461037BD4680BD00BFA3
S31518002EF0F45F0018C4620018DC5F00180010025056
S31518002F000010005000366E01006CDC025018343088
S31518002F1080B584B000AF78607B681B78FB60FB686F
S31518002F20112B06D9204B214A40F244512048FEF76E
S31518002F3087F97B689B78FF2B06D01E4B1B4A40F2FD
S31518002F4045511B48FEF77CF9FB68112B10D17B689D
S31518002F505A78194BC3F820277B68DB781B029BB27B
S31518002F607A6892781146144A0B43C2F8243716E049
S31518002F707B685B78104A1946FB6828335B01134453
S31518002F8019607B68DB781B029BB27A6892780A49CB
S31518002F901A43FB6828335B010B4404331A6000BFDD
S31518002FA01037BD4680BD00BF00600018E0620018EB
S31518002FB0DC5F00180C6000180010025080B582B053
S31518002FC000AF78605F4B4FF4C022C3F820267B68A9
S31518002FD01A785D4BC3F800225B4A7B685B68C2F8B7
S31518002FE01032594A7B689B68C2F814327B681B7B7F
S31518002FF0062B5ED801A252F823F000BF193000182C
S315180030002F300018453000185B3000187130001842
S31518003010873000189D3000184B4BD3F8043223F430
S315180030207F03494A43F48013C2F8043248E0464BFA
S31518003030D3F8043223F47F03434A43F48813C2F8BF
S3151800304004323DE0404BD3F8043223F47F033E4A62
S3151800305043F49013C2F8043232E03B4BD3F80432EF
S3151800306023F47F03384A43F49813C2F8043227E04E
S31518003070354BD3F8043223F47F03334A43F4A013B1
S31518003080C2F804321CE0304BD3F8043223F47F0321
S315180030902D4A43F4A813C2F8043211E02A4BD3F888
S315180030A0043223F47F03284A43F4B013C2F80432D7
S315180030B006E0264B264A40F27E512648FEF7C0F80F
S315180030C0214BD3F80432204A23F00203C2F8043203
S315180030D01C4B4FF4C022C3F830261B4BD3F80C32C6
S315180030E09BB25B081C49184600F0FCF9164BD3F83E
S315180030F00432154A43F40053C2F80432124BD3F87B
S315180031000C329BB2154AA2FB03239B081249184698
S3151800311000F0E8F90C4BD3F804320B4A23F40053A9
S31518003120C2F80432084BD3F80C329BB20B4AA2FBF6
S3151800313003235B080849184600F0D4F900BF08377E
S31518003140BD4680BD0020005000100050C85F001812
S31518003150F4620018DC5F0018803DCD0BABAAAAAA52
S3151800316080B485B000AF03460A46FB711346BB719F
S31518003170FB79FB601E4BD3F81822FB68DB00BF21D6
S3151800318001FA03F3DB431340BB60FB68DB008022C4
S315180031909A401749BB681343C1F81832BB7903F034
S315180031A03F02FB68DB009A401149BB681343C1F81C
S315180031B0183200BF0E4BD3F81822FB68DB004021EB
S315180031C001FA03F31340002BF4D0094BD3F8182255
S315180031D0FB68DB00402101FA03F305491343C1F8E4
S315180031E0183200BF1437BD465DF8047B704700BF20
S315180031F00010005080B582B000AF78605F4B4FF476
S31518003200C012C3F820267B681A785D4BC3F80022D3
S315180032105B4A7B685B68C2F81032594A7B689B68C0
S31518003220C2F814327B681B7B062B5ED801A252F8B3
S3151800323023F000BF51320018673200187D3200188B
S3151800324093320018A9320018BF320018D532001868
S315180032504B4BD3F8043223F47F03494A43F48013C3
S31518003260C2F8043248E0464BD3F8043223F47F03FD
S31518003270434A43F48813C2F804323DE0404BD3F86E
S31518003280043223F47F033E4A43F49013C2F80432FF
S3151800329032E03B4BD3F8043223F47F03384A43F425
S315180032A09813C2F8043227E0354BD3F8043223F4C6
S315180032B07F03334A43F4A013C2F804321CE0304BA0
S315180032C0D3F8043223F47F032D4A43F4A813C2F823
S315180032D0043211E02A4BD3F8043223F47F03284A28
S315180032E043F4B013C2F8043206E0264B264A40F2DD
S315180032F0D9512648FDF7A4FF214BD3F80432204AAA
S3151800330023F00203C2F804321C4B4FF4C012C3F860
S3151800331030261B4BD3F80C329BB25B081C49184657
S3151800332000F0E0F8164BD3F80432154A43F400536C
S31518003330C2F80432124BD3F80C329BB2154AA2FBD0
S3151800334003239B081249184600F0CCF80C4BD3F807
S3151800335004320B4A23F40053C2F80432084BD3F84C
S315180033600C329BB20B4AA2FB03235B08084918468A
S3151800337000F0B8F800BF0837BD4680BD00200050E1
S3151800338000100250C85F001808630018DC5F0018A8
S31518003390803DCD0BABAAAAAA80B485B000AF034670
S315180033A00A46FB711346BB71FB79FB601E4BD3F8BB
S315180033B01822FB68DB00BF2101FA03F3DB43134035
S315180033C0BB60FB68DB0080229A401749BB68134331
S315180033D0C1F81832BB7903F03F02FB68DB009A404C
S315180033E01149BB681343C1F8183200BF0E4BD3F806
S315180033F01822FB68DB00402101FA03F31340002B67
S31518003400F4D0094BD3F81822FB68DB00402101FAE7
S3151800341003F305491343C1F8183200BF1437BD46E4
S315180034205DF8047B704700BF0010025080B584B069
S3151800343000AF03463A60FB710B46BB71BB79002B94
S3151800344001D0012300E00023FB60FB79002B0CD090
S315180034500B4AFB68C2F86031094B0022C3F8682191
S315180034600849386800F03EF805E0054AFB6843F05D
S315180034700203C2F8603100BF1037BD4680BD00BFD9
S3151800348000100050803DCD0B80B483B000AF78603B
S315180034907B68002B07D000BF094BD3F80C3103F01B
S315180034A00103002BF8D0064A7B6803F01F03C2F805
S315180034B0103100BF0C37BD465DF8047B704700BF5E
S315180034C00010005080B400AF00BF054BD3F8903100
S315180034D0002BFADA00BF00BFBD465DF8047B7047C3
S315180034E0001000502DE9B04384B000AF7860396001
S315180034F07968002935D07968002088468146396868
S3151800350000200A46034602FB09F008FB03F10144B2
S31518003510A8FB02454B191D46144A4FF000032046D6
S31518003520294601F015FF02460B46C7E90223D7E9DB
S315180035300223012B05D30E4B0E4AD5210E48FDF753
S315180035407FFED7E902014FF000024FF00003820810
S3151800355042EA81728B08C7E90223BB68184602F053
S31518003560D7FA00BF1037BD46BDE8B08340420F00FA
S31518003570786000181C6300186460001880B584B061
S3151800358000AF0346FB80FB881B0A9BB2FB60FB68F7
S31518003590052B3FD801A252F823F000BFB535001805
S315180035A0C5350018D5350018E5350018F535001855
S315180035B005360018FB88DBB21C4A012101FA03F311
S315180035C013642EE0FB88DBB2184A012101FA03F3D3
S315180035D0536426E0FB88DBB2144A012101FA03F38F
S315180035E093641EE0FB88DBB2114A012101FA03F34A
S315180035F0136416E0FB88DBB20D4A012101FA03F3C6
S3151800360053640EE0FB88DBB2094A012101FA03F381
S31518003610936406E0074B084A40F263410748FDF7F2
S315180036200FFE00BF1037BD4680BD00BF001000500A
S3151800363000100250C85F0018D4630018D05F001835
S3151800364080B584B000AF78600023FB6009E00E4AAD
S31518003650FB6852F823207B689A4206D0FB68013330
S31518003660FB60FB68102BF2D900E000BFFB68102B3B
S3151800367005D9064B064A5F210648FDF7E1FDFB68AA
S3151800368018461037BD4680BD306300188C60001888
S31518003690BC630018BC60001880B584B000AF7860B1
S315180036A00B46FB707868FFF7CBFFF8600C4AFB688F
S315180036B032F813301846FFF761FF0A4AFB6832F8EA
S315180036C01330184602F0E8FAFB7800221946786893
S315180036D002F060FA034618461037BD4680BD00BF93
S315180036E0746300189863001880B582B000AF11484B
S315180036F0FFF7A6FF7860104A7B6852F82330002B34
S3151800370005D10E4B0E4AAC210E48FDF799FD0A4A13
S315180037107B6852F823300C497A6851F822201046F3
S315180037200A497A6851F822201146984700BF083787
S31518003730BD4680BD0060105054183430CC60001857
S31518003740E8630018BC600018306300189818343005
S3151800375080B582B000AF1148FFF772FF7860104A43
S315180037607B6852F82330002B05D10E4B0E4ABA212E
S315180037700E48FDF765FD0A4A7B6852F823300C4956
S315180037807A6851F8222010460A497A6851F8222098
S315180037901146984700BF0837BD4680BD00701050C7
S315180037A054183430CC60001804640018BC60001833
S315180037B0306300189818343080B582B000AF1148BD
S315180037C0FFF73EFF7860104A7B6852F82330002BCB
S315180037D005D10E4B0E4AC8210E48FDF731FD0A4A8F
S315180037E07B6852F823300C497A6851F82220104623
S315180037F00A497A6851F822201146984700BF0837B7
S31518003800BD4680BD0080105054183430CC60001866
S3151800381020640018BC6000183063001898183430FB
S3151800382080B582B000AF1148FFF70AFF7860104ADA
S315180038307B6852F82330002B05D10E4B0E4AD62141
S315180038400E48FDF7FDFC0A4A7B6852F823300C49EE
S315180038507A6851F8222010460A497A6851F82220C7
S315180038601146984700BF0837BD4680BD00901050D6
S3151800387054183430CC6000183C640018BC6000182A
S31518003880306300189818343080B582B000AF1148EC
S31518003890FFF7D6FE7860104A7B6852F82330002B63
S315180038A005D10E4B0E4AE4210E48FDF7C9FC0A4A0B
S315180038B07B6852F823300C497A6851F82220104652
S315180038C00A497A6851F822201146984700BF0837E6
S315180038D0BD4680BD0020125054183430CC600018F4
S315180038E058640018BC6000183063001898183430F3
S315180038F080B582B000AF1148FFF7A2FE7860104A73
S315180039007B6852F82330002B05D10E4B0E4AF32153
S315180039100E48FDF795FC0A4A7B6852F823300C4985
S315180039207A6851F8222010460A497A6851F82220F6
S315180039301146984700BF0837BD4680BD0030125063
S3151800394054183430CC60001874640018BC60001821
S31518003950306300189818343080B582B000AF12481A
S31518003960FFF76EFE7860114A7B6852F82330002BF9
S3151800397006D10F4B0F4A40F201110F48FDF760FCB4
S315180039800A4A7B6852F823300C497A6851F8222083
S3151800399010460B497A6851F822201146984700BFFD
S315180039A00837BD4680BD00BF004012505418343049
S315180039B0CC60001890640018BC60001830630018BA
S315180039C09818343080B582B000AF1248FFF738FE29
S315180039D07860114A7B6852F82330002B06D10F4BBA
S315180039E00F4A40F20F110F48FDF72AFC0A4A7B6866
S315180039F052F823300C497A6851F8222010460B49A0
S31518003A007A6851F822201146984700BF0837BD46F4
S31518003A1080BD00BF0050125054183430CC600018C6
S31518003A20AC640018BC60001830630018981834305D
S31518003A3080B582B000AF1248FFF702FE7860114ACF
S31518003A407B6852F82330002B06D10F4B0F4A40F2F1
S31518003A501D110F48FDF7F4FB0A4A7B6852F823300C
S31518003A600C497A6851F8222010460B497A6851F8A1
S31518003A7022201146984700BF0837BD4680BD00BFB3
S31518003A800090205054183430CC600018C8640018C0
S31518003A90BC600018306300189818343080B582B0AE
S31518003AA000AF1248FFF7CCFD7860114A7B6852F8D0
S31518003AB02330002B06D10F4B0F4A40F22B110F481B
S31518003AC0FDF7BEFB0A4A7B6852F823300C497A6820
S31518003AD051F8222010460B497A6851F822201146CF
S31518003AE0984700BF0837BD4680BD00BF00A02050CC
S31518003AF054183430CC600018E4640018BC60001800
S31518003B00306300189818343080B582B000AF124868
S31518003B10FFF796FD7860114A7B6852F82330002B20
S31518003B2006D10F4B0F4A40F239110F48FDF788FBA3
S31518003B300A4A7B6852F823300C497A6851F82220D1
S31518003B4010460B497A6851F822201146984700BF4B
S31518003B500837BD4680BD00BF00B020505418343019
S31518003B60CC60001800650018BC6000183063001897
S31518003B709818343080B582B000AF1248FFF760FD50
S31518003B807860114A7B6852F82330002B06D10F4B08
S31518003B900F4A40F247110F48FDF752FB0A4A7B6855
S31518003BA052F823300C497A6851F8222010460B49EE
S31518003BB07A6851F822201146984700BF0837BD4643
S31518003BC080BD00BF00C0205054183430CC60001897
S31518003BD01C650018BC60001830630018981834303B
S31518003BE080B582B000AF1248FFF72AFD7860114AF7
S31518003BF07B6852F82330002B06D10F4B0F4A40F240
S31518003C0055110F48FDF71CFB0A4A7B6852F82330FA
S31518003C100C497A6851F8222010460B497A6851F8EF
S31518003C2022201146984700BF0837BD4680BD00BF01
S31518003C3000D0205054183430CC600018386500185D
S31518003C40BC600018306300189818343080B582B0FC
S31518003C5000AF1248FFF7F4FC7860114A7B6852F8F7
S31518003C602330002B06D10F4B0F4A40F263110F4831
S31518003C70FDF7E6FA0A4A7B6852F823300C497A6847
S31518003C8051F8222010460B497A6851F8222011461D
S31518003C90984700BF0837BD4680BD00BF00E02050DA
S31518003CA054183430CC60001854650018BC600018DD
S31518003CB0306300189818343080B582B000AF1248B7
S31518003CC0FFF7BEFC7860114A7B6852F82330002B48
S31518003CD006D10F4B0F4A40F271110F48FDF7B0FA93
S31518003CE00A4A7B6852F823300C497A6851F8222020
S31518003CF010460B497A6851F822201146984700BF9A
S31518003D000837BD4680BD00BF0060125054183430C5
S31518003D10CC60001870650018BC6000183063001875
S31518003D209818343080B582B000AF1248FFF788FC77
S31518003D307860114A7B6852F82330002B06D10F4B56
S31518003D400F4A40F27F110F48FDF77AFA0A4A7B6844
S31518003D5052F823300C497A6851F8222010460B493C
S31518003D607A6851F822201146984700BF0837BD4691
S31518003D7080BD00BF0070125054183430CC60001843
S31518003D808C650018BC600018306300189818343019
S31518003D9080B582B000AF1248FFF752FC7860114A1E
S31518003DA07B6852F82330002B06D10F4B0F4A40F28E
S31518003DB08D110F48FDF744FA0A4A7B6852F82330EA
S31518003DC00C497A6851F8222010460B497A6851F83E
S31518003DD022201146984700BF0837BD4680BD00BF50
S31518003DE00080125054183430CC600018A86500189A
S31518003DF0BC600018306300189818343080B500AFCE
S31518003E000B4B1B68002B06D00A4B1B68084A126816
S31518003E10114609489847064B5B68002B06D0054B98
S31518003E201B68034A526811460448984700BF80BD6C
S31518003E30DC183430E41834300040135000C01350E6
S31518003E4080B483B000AF0346FB7197F90730002B97
S31518003E500BDBFB7903F01F02074997F907305B095B
S31518003E60012000FA02F241F8232000BF0C37BD46A4
S31518003E705DF8047B704700BF00E100E080B483B0B2
S31518003E8000AF0346FB7197F90730002B0DDB0A4A82
S31518003E9097F907305B0952F82320FB7903F01F03C3
S31518003EA022FA03F303F0010300E0002318460C3747
S31518003EB0BD465DF8047B704700E100E080B483B02E
S31518003EC000AF0346FB7197F90730002B12DBFB791D
S31518003ED003F01F020A4997F907305B09012000FA17
S31518003EE002F2203341F82320BFF34F8F00BFBFF3F0
S31518003EF06F8F00BF00BF0C37BD465DF8047B704757
S31518003F0000E100E080B483B000AF0346FB7197F977
S31518003F100730002B0CDBFB7903F01F02074997F9D2
S31518003F2007305B09012000FA02F2603341F82320BA
S31518003F3000BF0C37BD465DF8047B704700E100E012
S31518003F4080B400AF054B1B69044A43F004031361A0
S31518003F5000BFBD465DF8047B704700BF00ED00E06A
S31518003F6080B483B000AF7860044A7B68136000BFE2
S31518003F700C37BD465DF8047B704700BFE817343030
S31518003F8080B483B000AF78607B6840F21B1293420E
S31518003F9005D10B4BDB680A4A23F48023D3607B6870
S31518003FA0DAB27B681B0A9900064B0B4419460123A3
S31518003FB093400B6000BF0C37BD465DF8047B704715
S31518003FC0005013503026005080B400AF124BDB68F7
S31518003FD0114A23F00203D36000BF0F4B5B6803F04E
S31518003FE00103002BF9D10C4BDB680B4A43F0010394
S31518003FF0D36000BF084B5B6803F00103002BF9D1AF
S31518004000054BDB68044A43F00203D36000BFBD4684
S315180040105DF8047B704700BF0050135080B584B01C
S3151800402000AF786001F0F0FDF860FFF789FF314BBB
S31518004030D3F800267B681B68DB4323F0A84323F0DC
S315180040402E032C491343C1F800362A4BD3F80426FD
S315180040507B6804331B68D943274B0B402549134308
S31518004060C1F80436234BD3F808267B6808331B6837
S31518004070DB4320491343C1F808361E4BD3F80C26E8
S315180040807B680C331B68DB431A491343C1F80C369B
S31518004090184BD3F80036174A43F00803C2F800360F
S315180040A0164B1B68002B02D0144B1B6800E07323B9
S315180040B0134A93627B681B685B0803F00303BB60B3
S315180040C0BB68002B05D14FF4C061022001F0BDFD7D
S315180040D004E04FF4C061B86801F0B7FD084B084A10
S315180040E09B68936030BFF86801F09FFD00BF1037DA
S315180040F0BD4680BD00200050FEEF3FDEF817343075
S315180041000050135080B483B000AF0346FB71044AC5
S31518004110FB79137000BF0C37BD465DF8047B7047FA
S31518004120F417343080B586B000AF0346FB80FB88A1
S315180041301B0A9BB27B61FB88DBB23B6101223B69A0
S3151800414002FA03F3FB603B691F2B05D9324B334A3E
S315180041502E213348FDF774F87B69052B56D801A232
S3151800416052F823F07D41001897410018B141001804
S31518004170CB410018E1410018F74100184FF0A04252
S31518004180FB68136400BF4FF0A0431A69FB6813401D
S31518004190002BF8D03BE04FF0A042FB68536400BFF9
S315180041A04FF0A0435A69FB681340002BF8D02EE055
S315180041B04FF0A042FB68936400BF4FF0A0439A6982
S315180041C0FB681340002BF8D021E0164AFB681364ED
S315180041D000BF144B1A69FB681340002BF9D016E080
S315180041E0104AFB68536400BF0E4B5A69FB681340AC
S315180041F0002BF9D00BE00B4AFB68936400BF094B00
S315180042009A69FB681340002BF9D000E000BF00BF85
S315180042101837BD4680BD00BFF4600018C465001885
S31518004220046100180000025080B586B000AF03463E
S31518004230FB80FB881B0A9BB27B61FB88DBB23B6168
S3151800424001223B6902FA03F3FB603B691F2B05D970
S31518004250354B364A6A213648FCF7F2FF7B69052B3F
S315180042605CD801A252F823F0814200189D4200182A
S31518004270B9420018D5420018ED4200180543001837
S315180042804FF0A042FB68136700BF4FF0A0431A69AE
S31518004290FB681340FA689A42F7D040E04FF0A04204
S315180042A0FB68536700BF4FF0A0435A69FB68134079
S315180042B0FA689A42F7D032E04FF0A042FB6893674B
S315180042C000BF4FF0A0439A69FB681340FA689A42F8
S315180042D0F7D024E0174AFB68136700BF154B1A6915
S315180042E0FB681340FA689A42F8D018E0114AFB683E
S315180042F0536700BF0F4B5A69FB681340FA689A4216
S31518004300F8D00CE00B4AFB68936700BF094B9A6913
S31518004310FB681340FA689A42F8D000E000BF00BF65
S315180043201837BD4680BD00BFF4600018E065001858
S31518004330046100180000025080B586B000AFF8601E
S31518004340B9607A60FB68002B05D0BB68002B02D0D9
S315180043507B68002B05D16C4B6C4AC6216C48FCF760
S315180043606FFFFB68002B05D0BB68002B02D07B685B
S31518004370002B01D10423C2E00121F868FFF78CF95C
S3151800438078617B69002B01D07B69B8E0BB685B7AE2
S31518004390002B23D0FB68D3F8003E43F00112FB68CC
S315180043A0C3F8002EFB68D3F8083E23F47062FB6846
S315180043B0C3F8082EFB68D3F8082EBB685B7B1B0274
S315180043C003F470631A43FB68C3F8082EFB68D3F826
S315180043D0083E43F00102FB68C3F8082EBB681B7A37
S315180043E0002B23D0FB68D3F8003E43F00212FB687B
S315180043F0C3F8002EFB68D3F8083E23F47022FB6836
S31518004400C3F8082EFB68D3F8082EBB689B7B1B04E1
S3151800441003F470231A43FB68C3F8082EFB68D3F815
S31518004420083E43F00202FB68C3F8082EBB681B79E6
S315180044301B0103F03002BB685B799B0103F0400354
S315180044401A43BB689B799B0003F00C031A43BB689D
S31518004450DB79DB039BB21A43BB68DB7B5B08DBB2F9
S31518004460DB0203F400631A43BB68DB7B9B0303F48C
S3151800447080431A43BB681B7C1B0303F480531A43FF
S31518004480BB68DB7ADB01DBB21A43BB681B7B5B02BA
S3151800449003F40073134343F00102FB681A60BB6808
S315180044A0DB7A002B17D0BB681B684FF41652B2FB89
S315180044B0F3F101FB03F3D31A002B09D1BB681B6870
S315180044C04FF41652B2FBF3F35A1EFB681A620FE04A
S315180044D041F2516313E0BB681B687A681946F8689D
S315180044E000F060F878617B69002B01D07B6906E0E3
S315180044F0BB689B7A1946F86801F0DFFB002318465B
S315180045001837BD4680BD00BF48610018FC65001805
S315180045103C61001880B582B000AF78607B68002BCC
S3151800452006D11D4B1D4A4FF4A0711D48FCF788FE95
S3151800453014220021786801F04DFC7B684FF4E132B3
S315180045401A607B6800221A717B6800225A717B6890
S3151800455001229A717B680022DA717B6800221A722E
S315180045607B6800225A727B680022DA727B68002206
S315180045705A737B6800229A737B680022DA737B6809
S3151800458000229A727B6800221A747B6800221A73BA
S3151800459000BF0837BD4680BD886100180866001838
S315180045A03C61001880B58CB000AFF860B9607A60CD
S315180045B04FF0FF33FB620F23BB624FF0FF337B6272
S315180045C0FB68002B05D0BB68002B02D07B68002B3C
S315180045D006D1564B564A40F2B9115648FCF730FEEA
S315180045E0FB68002B05D0BB68002B02D07B68002B1C
S315180045F001D1042395E0FB681B6803F40063002BC4
S3151800460010D0FB681B6803F48043002B00F08880E9
S315180046107A68BB68B2FBF3F3BB61BB695A1EFB68C9
S315180046201A627DE0BB68444AA2FB03235A09134663
S315180046305B001344FB61BB6A3B6242E03B6A082B92
S3151800464003D8FA6AFB699A423FD97A6813469B00DF
S3151800465013445B0019463B6A0133BA6802FB03F33D
S31518004660B1FBF3F3053B354AA2FB0323DB08BB6119
S31518004670BB69B3F5803F20D23B6A0133BA69013270
S3151800468002FB03F37A68B2FBF3F37B61BA687B69C2
S315180046909A4203D27A69BB68D31A02E0BA687B6970
S315180046A0D31A3B613A69FB6A9A4207D23B69FB62A5
S315180046B03B6ABB62BB697B6200E000BF3B6A013B99
S315180046C03B623B6A032BB9D800E000BFBB6A0133D3
S315180046D07A6A013202FB03F37A68B2FBF3F37B6161
S315180046E0BA687B699A4203D27A69BB68D31A02E020
S315180046F0BA687B69D31A3B613A69FB699A4202D94F
S3151800470041F251630DE07B6AB3F5803F02D341F263
S31518004710516306E0FB68BA6A9A62FB687A6A1A629B
S31518004720002318463037BD4680BD00BF9861001873
S31518004730206600183C6100181F85EB51CDCCCCCCF7
S3151800474080B584B000AFF860B9607A60FB68002B5A
S3151800475002D0BB68002B06D11D4B1E4A40F26521BC
S315180047601D48FCF76DFDFB68002B02D0BB68002BBB
S3151800477001D1042327E0FB68D3F8003E03F00103B8
S31518004780002B15D104231EE000BFFB68D3F8043EA6
S3151800479003F02003002BF8D0BB681B781A46FB6879
S315180047A0C3F8202EBB680133BB607B68013B7B6076
S315180047B07B68002BE8D100BFFB689B6803F00803F1
S315180047C0002BF9D0002318461037BD4680BD00BF10
S315180047D0DC610018346600183C61001880B586B094
S315180047E000AFF860B9607A6000237B61FB68002B24
S315180047F002D0BB68002B06D13A4B3B4A40F2B12196
S315180048003A48FCF71DFDFB68002B02D0BB68002B4D
S3151800481001D1042361E0FB68D3F8003E03F00203DC
S31518004820002B54D1012358E000BFFB68D3F8043E8F
S3151800483003F04003002BF8D0FB68D3F8043E03F0CE
S315180048400203002B13D0FB68D3F8003E43F4003262
S31518004850FB68C3F8002EFB68D3F8043E43F0020247
S31518004860FB68C3F8042E41F24D637B6134E0FB68A4
S315180048709B683B61FB689A683B691A43FB689A60B8
S315180048803B6903F48043002B02D041F250637B61ED
S315180048903B6903F40053002B02D041F24F637B614E
S315180048A03B6903F40043002B02D041F24E637B614F
S315180048B07B69002B0FD1FB68D3F8303EDAB2BB68A0
S315180048C01A70BB680133BB607B68013B7B607B68F1
S315180048D0002BA9D100E000BF7B6918461837BD46E2
S315180048E080BD00BFDC610018486600183C610018DE
S315180048F080B483B000AF00237B60624BD3F80831D5
S3151800490003F00303032B00F2B38001A252F823F03D
S315180049102149001875490018C94900181D4A001878
S31518004920584BD3F880309BB2002B17D0554BD3F881
S3151800493084309BB203F10043033B524AD2F86821F4
S31518004940002A04D04F4AD2F86821002201E041F229
S31518004950E46202FB03F3DB005B0809E0494BD3F87A
S31518004960903003F03F032F2B01D1474B00E0474B04
S315180049707B6080E0434BD3F880309BB2002B17D076
S31518004980404BD3F884309BB203F10043033B3D4AB6
S31518004990D2F86821002A04D03A4AD2F868210022AF
S315180049A001E041F2E46202FB03F3DB009B0809E035
S315180049B0344BD3F8903003F03F032F2B01D1344BEF
S315180049C000E0314B7B6056E02E4BD3F880309BB21B
S315180049D0002B17D02B4BD3F884309BB203F100432E
S315180049E0033B284AD2F86821002A04D0254AD2F86F
S315180049F06821002201E041F2E46202FB03F323F08E
S31518004A00604309E01F4BD3F8903003F03F032F2B78
S31518004A1001D1204B00E01E4B7B602CE0194BD3F8DC
S31518004A2080309BB2002B17D0164BD3F884309BB22C
S31518004A3003F10043033B134AD2F86821002A04D035
S31518004A40104AD2F86821002201E041F2E46202FB22
S31518004A5003F3DB001B0909E00A4BD3F8903003F087
S31518004A603F032F2B01D10C4B00E00A4B7B6002E071
S31518004A7000237B6000BF7B6818460C37BD465DF87F
S31518004A80047B704700100050006CDC0200D8B80593
S31518004A9000366E01001BB700808D5B0080B500AF35
S31518004AA0454BD3F88830444A43F47003C2F888302B
S31518004AB0424BD3F88830414A43F47003C2F8883021
S31518004AC03D4BD3F888303C4A43F00F03C2F8883080
S31518004AD03A4BD3F88830394A43F00F03C2F8883076
S31518004AE0354BD3F88C30344A43F4406343F0030310
S31518004AF0C2F88C30324B0122DA60314BD3F80036CB
S31518004B002F4A43F02843C2F800362D4BD3F8043603
S31518004B102B4A43F08043C2F80436294B4FF02842FB
S31518004B20C3F82026264B4FF08042C3F82426254B7F
S31518004B30DB68244A43F00203D360234BB3F1006FBA
S31518004B4003D3214BB3F1805F07D31F4BB3F1C05F7B
S31518004B502DD31D4BB3F1005F29D21C4BDB69002BFB
S31518004B6025D11A4B4FF0A062C3F80028174BD3F87B
S31518004B700038164A43F00043C2F8003800BF134BFA
S31518004B80D3F80038002BFADB104B0322C3F80028A1
S31518004B900E4B0F4A5A610D4B00229A610B4B01229C
S31518004BA0DA61BFF36F8F00BFBFF34F8F00BF00F0FE
S31518004BB052FF00BF80BD00BF00ED00E000ED02E02F
S31518004BC00020005000501350D54B001800300350E9
S31518004BD000FCFF072DE9B04F8EB000AF00237B63B2
S31518004BE04FF000024FF00003C7E90A23984BD3F899
S31518004BF0343403F00303022B00F01381022B00F266
S31518004C001481002B02D0012B53D00EE1904BD3F810
S31518004C10303403F00303032B47D801A252F823F0CC
S31518004C20314C0018374C00183F4C0018594C0018D6
S31518004C30884B7B633CE0FFF75BFE786338E0844B78
S31518004C40D3F86831002B04D0814BD3F86831002390
S31518004C5000E0814B7B632BE07D4BD3F880309BB211
S31518004C60002B16D07A4BD3F884309BB203F100434D
S31518004C70033B774AD2F86821002A04D0744AD2F83E
S31518004C806821002201E041F2E46202FB03F3DB0033
S31518004C9009E06F4BD3F8903003F03F032F2B01D167
S31518004CA06E4B00E06E4B7B6302E000237B6300BF14
S31518004CB0BEE0674BD3F8003203F00703002B02D08F
S31518004CC0012B2AD036E0624BD3F880309BB2002BEA
S31518004CD017D05F4BD3F884309BB203F10042033AE6
S31518004CE05B4BD3F86831002B04D0594BD3F8683195
S31518004CF0002301E041F2E46302FB03F323F060436F
S31518004D0009E0534BD3F8903003F03F032F2B01D112
S31518004D10544B00E0504B7B630FE04D4BD3F8683192
S31518004D20002B04D04A4BD3F86831002300E04A4BD5
S31518004D307B6302E000237B6300BF454BD3F8043244
S31518004D4003F00103002B62D17B6B00229A4693462F
S31518004D503F4BD3F8103200229846914608FB0BF2C7
S31518004D600AFB09F31344AAFB08010B441946384BEE
S31518004D70D3F8143200223B627A62D7E9082300F08E
S31518004D80E7FA02460B46C7E90A23314BD3F8043231
S31518004D901B0CDAB27B6B02FB03F37B63BB6A7A6B81
S31518004DA013447B637B6B0022BB61FA61D7E90689E2
S31518004DB042464B464FF000004FF00001D90041EA39
S31518004DC05271D00002460B4641465418494643EBE9
S31518004DD001010D4623193B6045EB05037B60D7E9B6
S31518004DE00045204629461A4BD3F8183200223B6153
S31518004DF07A613B6903F03F03BB600023FB60D7E988
S31518004E00022300F0A5FA02460B4613467B63104BA5
S31518004E10D3F84032DBB201337A6BB2FBF3F37B6320
S31518004E2006E04FF400437B6302E000237B6300BF78
S31518004E30074BD3F80034DBB201337A6BB2FBF3F3CA
S31518004E40094A136000BF3837BD46BDE8B08F00BFAA
S31518004E500010005040420F0000366E0100D8B80509
S31518004E6000B0710B001BB7003018343080B588B00D
S31518004E7000AF786039607B68002B06D1424B434AF5
S31518004E804FF48C714248FCF7DBF93B68002B06D1CE
S31518004E90404B3E4A40F219113D48FCF7D1F93B68A0
S31518004EA09B7B0D2B06D93C4B384A4FF48D713848ED
S31518004EB0FCF7C6F93B689B7B1A46384B53F82230E9
S31518004EC0002B06D1364B314A40F21B113048FCF7FD
S31518004ED0B7F907F108031846FFF71CFB3B685B6830
S31518004EE0BB603B681B7B002B03D13B685B7B002BAD
S31518004EF001D001233B753B681B7A022B02D1022392
S31518004F003B7308E03B681B7A032B02D103233B73E0
S31518004F1001E000233B733B685B7A012B02D1012326
S31518004F207B7301E000237B733B689B7A002B14BFCD
S31518004F3001230023DBB23B743B68DB7A002B14BFDA
S31518004F4001230023DBB27B7400237B750023BB751A
S31518004F503B689B7B1A46114B53F822003B681A682C
S31518004F6007F108031946FFF7E7F9F861FB69002B03
S31518004F7004D0F86900F0BDFE034600E00023184689
S31518004F802037BD4680BD00BF006200189466001821
S31518004F9008620018906100181C6200185C660018F8
S31518004FA06462001880B586B000AFF860B9607A60A0
S31518004FB0FB68002B06D1184B184A40F28111184885
S31518004FC0FCF73EF9BB68002B06D1164B134A4FF473
S31518004FD0C1711348FCF734F97B68002B06D1124BC4
S31518004FE00E4A40F283110E48FCF72AF9FB687B61DA
S31518004FF07B691B781A460D4B53F822307A68B968C4
S315180050001846FFF7EBFB3861386900F072FE034665
S3151800501018461837BD4680BD00620018A8660018E5
S31518005020086200188C620018946200185C660018F2
S3151800503080B586B000AFF860B9607A60FB68002B5F
S3151800504006D1164B164A4FF4CB711648FCF7F8F8EA
S31518005050BB68002B06D1144B114A40F29711114820
S31518005060FCF7EEF87B68002B06D1104B0C4A4FF470
S31518005070CC710C48FCF7E4F8FB687B617B691B78FC
S315180050801A460B4B53F822307A68B9681846FFF758
S3151800509057FB002318461837BD4680BD0062001816
S315180050A0C0660018086200188C620018946200180E
S315180050B05C66001880B582B000AF0C4B1B683B606D
S315180050C03B461846FDF724FF0948FDF7BDF80020B2
S315180050D0FDF7A4FE78607B6801224FF4E1310020C9
S315180050E0FCF7C6F800BF0837BD4680BDD86600185D
S315180050F04219008080B500AF02220321024800F051
S315180051007BFE00BF80BD00BF0040135080B483B043
S3151800511000AF7860044A7B68136000BF0C37BD4641
S315180051205DF8047B704700BF4818343080B500AF6F
S315180051300E20FEF725FFFEF7C5F91020FEF720FF13
S315180051401F20FEF7A1F9FFF7D5FF02214FF4807053
S3151800515000F0A2FC2D48FDF777F80D20FEF710FF9A
S31518005160DC20FEF7FDFEDC2201210120FEF75EF9A8
S315180051702748FFF7CBFF2748FDF720FF1821002007
S31518005180FDF7EEFF18210220FDF7EAFF2248FEF789
S3151800519031F81A210020FEF7FFF802214FF480702B
S315180051A000F07AFC40F60D10FDF74EF84FF4EC704F
S315180051B0FDF74AF81948FDF747F80F21184800F087
S315180051C06BFC0B21174800F067FC022140F2D9103E
S315180051D000F062FC02214FF4A07000F05DFC04217F
S315180051E040F2411000F058FC64210F4800F054FCBE
S315180051F0022200210D4800F0FFFD0D4B0D4A1A60E2
S315180052000120FEF77FFF00BF80BD00BF0C59430089
S3151800521000366E01DC660018EC660018F8517E80C0
S3151800522090000080D8010080FA01008000401350D9
S3151800523030183430803DCD0B80B582B000AF0123D5
S315180052407B607B6801220021074800F07EFD412320
S315180052503B603B6802220021034800F076FD00BF40
S315180052600837BD4680BD00BF0040005043186CD2B9
S315180052701F2A6AD8013902F01403014400B581EADD
S31518005280000C142B0ED8DFE803F03F0D0D0D480D5A
S315180052900D0D0D0D0D0D0D0D0D0D510D0D0D1000E6
S315180052A05B0300D400205DF804FBBCF11F0F40E837
S315180052B0C0F304D99C4641E8C0F39C45F2D122F0CC
S315180052C01402013A0A2AEDD801A151F822F000BFBA
S315180052D00353001845530018FD520018A55200181C
S315180052E0A5520018A5520018A5520018A152001868
S315180052F0035300183F530018FD5200189A02D2D4CF
S31518005300D0E71A03CFD4CDE7BCF11F0F40E800F35E
S31518005310D5D99C4641E800F3CFE7BCF11F0F40E80A
S3151800532040F3CCD99C4641E840F3C6E7BCF11F0FC1
S3151800533040E880F3C3D99C4641E880F3BDE7DB0219
S31518005340B1D4AFE75902AED5ACE70020704700BF1D
S3151800535053B94AB9002908BF00281CBF4FF0FF31BE
S315180053604FF0FF3000F08CB9ADF1080C6DE904CEA2
S3151800537000F006F8DDF804E0DDE9022304B0704712
S315180053802DE9F04F099D0E4604460F46002B47D1CE
S315180053908A429446B2FA82F35AD943B102FA03FC06
S315180053A0C3F120029F409C4020FA02F217434FEAAD
S315180053B01C461FFA8CFE220CB7FBF6F106FB11777A
S315180053C001FB0EF042EA0742904208D91CEB020292
S315180053D001F1FF3702D2904200F23C813946121A87
S315180053E0A4B2B2FBF6F006FB102200FB0EFE44EA4E
S315180053F00244A64508D91CEB040400F1FF3202D278
S31518005400A64500F22A81104640EA0140A4EB0E0494
S3151800541000211DB1DC400023C5E90043BDE8F08F2B
S315180054208B4205D90DB1C5E9000100210846F5E7FB
S31518005430B3FA83F100294FD1B342C0F002818242F8
S3151800544040F2FF800846002DE8D0C5E90047E5E799
S31518005450002B40F0AF808A1A4FEA1C4E1FFA8CF7C1
S315180054600121B2FBFEF60EFB1620220C42EA004280
S3151800547007FB06F090420FD91CEB020206F1FF3823
S315180054802CBF4FF001094FF00009904203D9B9F12A
S31518005490000F00F0DC804646121AA4B2B2FBFEF0EA
S315180054A00EFB102200FB07F744EA0244A7420FD965
S315180054B01CEB040400F1FF322CBF4FF0010E4FF025
S315180054C0000EA74203D9BEF1000F00F0C98010469E
S315180054D0E41B40EA06409CE7C1F120048B4006FA1B
S315180054E001FC00FA01FE22FA04F7E6408A401F433F
S315180054F020FA04F34FEA174843EA0C031FFA87FC0D
S315180055004FEA1349B6FBF8F008FB106649EA064657
S3151800551000FB0CF9B1450ED9BE1900F1FF3A2CBFA4
S315180055204FF0010B4FF0000BB14503D9BBF1000F3B
S3151800553000F0A2805046A6EB09061FFA83F9B6FBBF
S31518005540F8F308FB136603FB0CFC49EA0646B44558
S315180055500ED9BE1903F1FF382CBF4FF001094FF0D1
S315180055600009B44503D9B9F1000F00F0828043460B
S3151800557043EA0040A6EB0C06A0FB028C66454346A0
S31518005580E14602D307D1C64505D2B8EB02036CEB48
S31518005590070C0138E1465DB1BEEB030266EB09065E
S315180055A006FA04F422FA01F3CE401C43C5E9004674
S315180055B0002133E702FA03FCC3F1200299409C400C
S315180055C0D6404FEA1C4E20FA02F21FFA8CF7B6FBA9
S315180055D0FEF00A430EFB1066110C41EA064100FB69
S315180055E007F68E420ED91CEB010100F1FF382CBFCD
S315180055F04FF001094FF000098E4202D9B9F1000F98
S3151800560034D04046891B92B2B1FBFEF60EFB16113A
S3151800561042EA014206FB07F191420ED91CEB02023F
S3151800562006F1FF382CBF4FF001094FF000099142DF
S3151800563002D9B9F1000F16D04646521A46EA004169
S315180056400FE7841A66EB030201201746FBE6023EB3
S31518005650624421E702396244C1E664440238D3E65B
S315180056606444023834E7023E6244E6E7023861448D
S31518005670C8E7023B3E447BE702383E445BE700BF7F
S31518005680704700BF80B485B000AFF860B9607A6023
S31518005690002318461437BD465DF8047B70470FB4CF
S315180056A080B582B000AF00237B6007F114033B601E
S315180056B039683869FBF720FE78607B681846083722
S315180056C0BD46BDE8804004B0704780B586B000AFCF
S315180056D0B9607A603B600346FB73BB687B610BE07D
S315180056E0FA7B3B6A104698473B681B685A1C3B680E
S315180056F01A607B6901337B617A697B689A42EFDBB2
S3151800570000BF00BF1837BD4680BD80B48FB000AF4C
S31518005710F860B9607A603B600023FB62FB68BB6285
S31518005720BB6A5A1CBA6200221A7000237B600023D7
S315180057307B6200233B620023FB6100237B6300230B
S31518005740BB6100233B6300237B61BB681B687B63DB
S315180057507B6B002B30D1BB6A30221A70FB6A01337F
S31518005760FB62FB6A2CE03B687A6BB2FBF3F3BB6116
S315180057703B68BA6902FB03F37A6BD31A3B633B6B3C
S31518005780092B03D83B6B30333B630AE097F840305C
S31518005790002B01D0412200E061223B6B13440A3BE7
S315180057A03B63BB697B63BB6A5A1CBA623A6BD2B25B
S315180057B01A70FB6A0133FB627B6B002BD3D1FB6A31
S315180057C018463C37BD465DF8047B704780B485B0F3
S315180057D000AF786039600023FB6005E07B68013311
S315180057E07B60FB680133FB60FA683B689A4203D812
S315180057F07B681B78002BF1D1FB6818461437BD4619
S315180058005DF8047B704708B5FBF718FD08BD08B5A9
S31518005810FBF714FD08BD08B5FBF710FD08BD08B564
S31518005820FBF70CFD08BD08B5FBF708FD08BD08B564
S31518005830FBF704FD08BD08B5FBF700FD08BD08B564
S31518005840FBF7FCFC08BD08B5FBF7F8FC08BD08B566
S31518005850FBF7F4FC08BD08B5FBF7F0FC08BD08B566
S31518005860FBF7ECFC08BD08B5FBF7E8FC08BD08B566
S31518005870FBF7E4FC08BD08B5FDF736FF08BD08B50B
S31518005880FDF766FF08BD08B5FDF796FF08BD08B514
S31518005890FDF7C6FF08BD08B5FDF7F6FF08BD08B544
S315180058A0FEF726F808BD08B5FEF706FA08BD08B5CE
S315180058B0FEF738FA08BD08B5FBF7C0FC08BD08B5F1
S315180058C0FBF7BCFC08BD08B5FBF7B8FC08BD08B566
S315180058D0FBF7B4FC08BD08B5FBF7B0FC08BD08B566
S315180058E0FBF7ACFC08BD08B5FBF7A8FC08BD08B566
S315180058F0FBF7A4FC08BD08B5FBF7A0FC08BD08B566
S31518005900FBF79CFC08BD08B5FBF798FC08BD08B565
S31518005910FBF794FC08BD08B5FBF790FC08BD08B565
S31518005920FBF78CFC08BD08B5FBF788FC08BD08B565
S31518005930FBF784FC08BD08B5FBF780FC08BD08B565
S31518005940FBF77CFC08BD08B5FBF778FC08BD08B565
S31518005950FBF774FC08BD08B5FEF750FA08BD08B584
S31518005960FDF7FAFF08BD08B5FEF72CF808BD08B50F
S31518005970FBF764FC08BD08B5FBF760FC08BD08B565
S31518005980FBF75CFC08BD08B5FBF758FC08BD08B565
S31518005990FBF754FC08BD08B5FBF750FC08BD08B565
S315180059A0FBF74CFC08BD08B5FBF748FC08BD08B565
S315180059B0FBF744FC08BD08B5FBF740FC08BD08B565
S315180059C0FBF73CFC08BD08B5FBF738FC08BD08B565
S315180059D0FBF734FC08BD08B5FBF730FC08BD08B565
S315180059E0FBF72CFC08BD08B5FEF722F808BD08B56C
S315180059F0FEF754F808BD08B5FEF786F808BD08B5D1
S31518005A00FEF7B8F808BD08B5FEF7EAF808BD08B5F8
S31518005A10FEF71CF908BD08B5FEF7BAF908BD08B5B2
S31518005A20FBF70CFC08BD08B5FBF708FC08BD08B564
S31518005A30FBF704FC08BD08B5FBF700FC08BD08B564
S31518005A40FBF7FCFB08BD08B5FBF7F8FB08BD08B566
S31518005A50FBF7F4FB08BD80B500AFFBF705FF00BFE9
S31518005A6080BD04207146084202D0EFF3098001E098
S31518005A70EFF3088081690A884BF6AB639A4200D027
S31518005A80FEE7023181610168012901D0002100E099
S31518005A9020210160704700BF80B485B000AF7860E0
S31518005AA039607B68002B0ADA7B689A0041F6FC732A
S31518005AB0134003F1A04303F50433FB6009E07B6848
S31518005AC09A0041F6FC73134003F1A04303F5805383
S31518005AD0FB60FB681B6843F00052FB681A603B6862
S31518005AE0002B06D1FB681B6843F08042FB681A60DE
S31518005AF008E03B685A1EFB681A6000BFFB681B6803
S31518005B00002BFBDB00BF1437BD465DF8047B7047DE
S31518005B1080B483B000AF78607B681846A0F10100A6
S31518005B200028FBD100BF0C37BD465DF8047B7047D3
S31518005B3080B483B000AF78600B46FB70FB78002BFF
S31518005B4001D1012320E0FB78042B0ED87B68D3F80B
S31518005B50F82FFB78033322FA03F303F00103002B23
S31518005B6014BF01230023DBB20EE0FB78052B0AD104
S31518005B707B68D3F8F83F03F08003002B14BF01238A
S31518005B800023DBB200E0002318460C37BD465DF84B
S31518005B90047B704780B584B000AFF8600B467A6016
S31518005BA0FB72FB7A1946F868FFF7C2FF034683F0C3
S31518005BB00103DBB2002B01D0032321E0FB68D3F8E5
S31518005BC0F83F03F00803002B09D0FB68D3F8F83F19
S31518005BD003F00702FB7A9A4201D0012310E07B6892
S31518005BE0002B08D0FB7A43F00803DBB21A46FB6891
S31518005BF0C3F8F82F03E0FA7AFB68C3F8F82F0023E6
S31518005C0018461037BD4680BD80B483B000AFEFF399
S31518005C1010833B603B687B6072B600BF7B68184692
S31518005C200C37BD465DF8047B704780B485B000AF6D
S31518005C3078607B68FB60FB6883F3108800BF00BF41
S31518005C401437BD465DF8047B704780B483B000AF47
S31518005C5078600B467B8072B600BF7B88C3F30B0354
S31518005C6003F1A04303F500531B6823F006017B6874
S31518005C705A007B88C3F30B0303F1A04303F50053C3
S31518005C80184641EA0203036062B600BF00BF0C372C
S31518005C90BD465DF8047B704780B582B000AF0346F9
S31518005CA0FB80FB881846FEF73DFAFB881846FEF778
S31518005CB0BBFA00BF0837BD4680BD80B483B000AFBD
S31518005CC078600B46FB70FB78002B06D07B685B6808
S31518005CD043F480727B685A6005E07B685B6823F43E
S31518005CE080727B685A6000BF0C37BD465DF8047B2E
S31518005CF0704780B483B000AF78607B68002B01D101
S31518005D00002301E042F6AF7318460C37BD465DF81E
S31518005D10047B704780B584B000AF78603960396805
S31518005D207868FFF7A3F80346FB81FB89002B01D09F
S31518005D30FB8906E07B68BB603B689A7BBB681A7078
S31518005D40002318461037BD4680BD80B485B000AF15
S31518005D50F8607B600B46FB721346BB72F97ABA7A07
S31518005D60FB6849010A44796843F8221000BF1437C2
S31518005D70BD465DF8047B70472DE9E04F2746A046DF
S31518005D80A146A246A346A4462DED108B4FF000055A
S31518005D9045EC185B45EC195A45EC1A5A45EC1B5A52
S31518005DA045EC1C5A45EC1D5A45EC1E5A45EC1F5A33
S31518005DB0F1EE105A4FF66076C0F6FF763540E1EEF2
S31518005DC0105A84F3008825462646A447BDEC108B46
S31518005DD0BDE8E08F02440346934200D1704703F8AA
S31518005DE0011BF9E7034613F8012B002AFBD1181AF1
S31518005DF001387047FFFFFFFF5FF800F0811334305A
S31518005E00415353455254204552524F522022202571
S31518005E107320223A2066696C652022257322204C4D
S31518005E20696E6520222564222066756E6374696F13
S31518005E306E206E616D652022257322200A000000EF
S31518005E40537472696E6720746F6F206C6F6E67205B
S31518005E506F7220696E76616C696420737472696EEC
S31518005E6067207465726D696E6174696F6E210D0AAB
S31518005E7000000000537472696E67206973206E6F94
S31518005E8074206C6F636174656420696E206E6F721E
S31518005E906D616C20776F726C64210D0A000000002A
S31518005EA05468652063616C6C6261636B206973204A
S31518005EB06E6F74206C6F636174656420696E206EF2
S31518005EC06F726D616C20776F726C64210D0A000019
S31518005ED0466972737420737472696E6720746F6F73
S31518005EE0206C6F6E67206F7220696E76616C6964BC
S31518005EF020737472696E67207465726D696E617449
S31518005F00696F6E210D0A00005365636F6E64207306
S31518005F107472696E6720746F6F206C6F6E67206F6E
S31518005F207220696E76616C696420737472696E6723
S31518005F30207465726D696E6174696F6E210D0A0041
S31518005F40436F6D706172696E672074776F20737412
S31518005F5072696E6720617320612063616C6C62617F
S31518005F60636B20746F206E6F726D616C20776F7221
S31518005F706C640D0A00000000537472696E67203154
S31518005F803A200000537472696E6720323A20000076
S31518005F9048656C6C6F2066726F6D207365637572D9
S31518005FA06520776F726C64210D0A0000456E746562
S31518005FB072696E67206E6F726D616C20776F726C86
S31518005FC0642E0D0A0000000066616C7365000000FF
S31518005FD066736C5F636C6F636B2E680066736C5FB9
S31518005FE0636C6F636B2E63006964203C3D20313708
S31518005FF0550000006964203C3D20313655000000EC
S3151800600069203C3D2031375500000000636F6E66ED
S3151800601069672D3E64697669646572203D3D203254
S31518006020353555004457545F4354524C5F4E4F43D1
S315180060305943434E545F4D736B20213D20284457D6
S31518006040542D3E4354524C2026204457545F4354F3
S31518006050524C5F4E4F435943434E545F4D736B2911
S315180060600000000066736C5F636F6D6D6F6E5F6125
S31518006070726D2E6300000000636F756E74203C3DD0
S315180060802055494E5433325F4D41580069203C2003
S315180060902875696E7433325F742946534C5F4645CA
S315180060A041545552455F534F435F464C4558434FED
S315180060B04D4D5F434F554E540000000066736C5F9C
S315180060C0666C6578636F6D6D2E630000735F666C22
S315180060D06578636F6D6D49727148616E646C65722F
S315180060E05B696E7374616E63655D20213D204E5544
S315180060F04C4C0000626974506F73203C2033327523
S315180061000000000066736C5F72657365742E630019
S3151800611069203C202875696E7433325F742946539A
S315180061204C5F464541545552455F534F435F55534F
S315180061304152545F434F554E5400000066736C5FCE
S3151800614075736172742E63002128284E554C4C20A5
S315180061503D3D206261736529207C7C20284E554C74
S315180061604C203D3D20636F6E66696729207C7C2034
S31518006170283055203D3D20737263436C6F636B5F07
S31518006180487A2929000000004E554C4C20213D2004
S31518006190636F6E66696700002128284E554C4C209F
S315180061A03D3D206261736529207C7C20283055206E
S315180061B03D3D2062617564726174655F4270732932
S315180061C0207C7C20283055203D3D20737263436C1B
S315180061D06F636B5F487A2929000000002128284E32
S315180061E0554C4C203D3D206261736529207C7C20EE
S315180061F0284E554C4C203D3D206461746129290078
S3151800620068616E646C65000066736C5F61646170CA
S315180062107465725F75736172742E6300636F6E6650
S3151800622069672D3E696E7374616E6365203C20281C
S3151800623073697A656F6628735F5573617274416402
S3151800624061707465724261736529202F2073697AAB
S31518006250656F662855534152545F54797065202AE4
S3151800626029290000735F55736172744164617074F3
S315180062706572426173655B636F6E6669672D3E6909
S315180062806E7374616E63655D00000000646174610D
S31518006290000000006C656E67746800FF434C4F433E
S315180062A04B5F476574537973506C6C467265710011
S315180062B0434C4F434B5F476574465247436C6F6375
S315180062C06B00FFFF434C4F434B5F476574466C6545
S315180062D078636F6D6D436C6B4672657100FFFFFFD7
S315180062E0434C4F434B5F536574465247436C6F6339
S315180062F06B00FFFF434C4F434B5F496E69745379EC
S3151800630073506C6C00FFFFFF434C4F434B5F496E55
S315180063106974417564696F506C6C00FF53444B5F28
S3151800632044656C617941744C65617374557300FFEB
S3151800633000601050007010500080105000901050DF
S3151800634000201250003012500040125000501250C7
S315180063500090205000A0205000B0205000C02050BF
S3151800636000D0205000E020500060125000701250EB
S3151800637000801250080309030A030B030C030D03CC
S315180063800E030F031003110312031303140315034B
S31518006390160317031903FFFF080309030A030B0360
S315180063A00C030D030E030F0310031103120313033B
S315180063B014031503160317031903FFFF464C455814
S315180063C0434F4D4D5F476574496E7374616E6365CF
S315180063D000FFFFFF434C4F434B5F456E61626C6590
S315180063E0436C6F636B00FFFF464C4558434F4D4D4A
S315180063F0305F44726976657249525148616E646CB1
S31518006400657200FF464C4558434F4D4D315F4472F7
S315180064106976657249525148616E646C657200FFFF
S31518006420464C4558434F4D4D325F447269766572F6
S3151800643049525148616E646C657200FF464C455866
S31518006440434F4D4D335F44726976657249525148D0
S31518006450616E646C657200FF464C4558434F4D4D4E
S31518006460345F44726976657249525148616E646C3C
S31518006470657200FF464C4558434F4D4D355F447283
S315180064806976657249525148616E646C657200FF8F
S31518006490464C4558434F4D4D365F44726976657282
S315180064A049525148616E646C657200FF464C4558F6
S315180064B0434F4D4D375F447269766572495251485C
S315180064C0616E646C657200FF464C4558434F4D4DDE
S315180064D0385F44726976657249525148616E646CC8
S315180064E0657200FF464C4558434F4D4D395F44720F
