S32508100000000040209101100829021008631510082D0210082F0210083102100833021008BD
S32508100020F83100000000000000000000350210083702100800001008390210083B02100819
S32508100040051310080D131008151310081D131008251310082D131008351310083D13100822
S32508100060451310084D131008551310085D131008651310086D131008751310087D13100802
S32508100080851310088D131008951310089D131008A5131008AD131008B5131008BD131008E2
S325081000A0C5131008CD131008D5131008DD131008E5131008ED131008F5131008FD131008C2
S325081000C0051410080D141008151410081D141008251410082D141008351410083D1410089A
S325081000E0451410084D141008551410085D141008651410086D141008751410087D1410087A
S32508100100851410088D141008951410089D141008A5141008AD141008B5141008BD14100859
S32508100120C5141008CD141008D5141008DD141008E5141008ED141008F5141008FD14100839
S32508100140051510080D151008151510081D151008251510082D151008351510083D15100811
S32508100160451510084D151008E01910080000382018180000E0191008000014400000000077
S3250810018018183820A8000000000014400000000072B6134B134A17480360196881F3088893
S325081001A082F30A8801F0D6F90F4B07E003F10C049A685968186800F01FF823460B4A934238
S325081001C0F4D306E01C46596854F8080B00F023F82346074A9342F5D362B600F0BFFAFEE7CA
S325081001E00000100800F03F2068011008800110089001100808ED00E0002393420AD210B44A
S3250810020050F8044B41F8044B04339342F8D35DF8044B70477047002303E0002240F8042B29
S3250810022004338B42F9D37047FEE7FEE7FEE7FEE7FEE7FEE7FEE7FEE7FEE7FEE7FEE7FFFF44
S3250810024080B586B002AFF860B9607A603B607B680093BB68FA683968044800F0BCFFBA68C9
S32508100260F968386800F0AAFF00BEFDE76016100880B584B000AF786039600023FB60094B3B
S325081002801B7C002B02D14FF0FF3306E03A687968054800F023F8F860FB6818461037BD4616
S325081002A080BD00BF18183820AD02100880B582B000AF7860084B1B7C002B02D14FF0FF338E
S325081002C006E0054B9B68391D012203489847012318460837BD4680BD1818382080B59CB01A
S325081002E002AFF860B9607A6000233B660023FB650023FB61002387F84A3000237B61BB68E0
S325081003007B667B6E1B78002B00F0D2817B6E1B7887F8493097F84930252B0BD097F8492055
S32508100320FB6810469847FB690133FB617B6E01337B66BCE1012387F84B3000237B65002334
S3250810034087F85B3020E07B6E01337B667B6E1B7887F8493097F849302F2B0FD997F84930B1
S32508100360392B0BD87A6D13469B0013445B001A4697F849301344303B7B6505E07B6E013B77
S325081003807B66012387F85B3097F85B3083F00103DBB2002BD7D17B6E01337B667B6E1B78C5
S325081003A02E2B2ED100233B65002387F85B3020E07B6E01337B667B6E1B7887F8493097F8D6
S325081003C049302F2B0FD997F84930392B0BD83A6D13469B0013445B001A4697F849301344E9
S325081003E0303B3B6505E07B6E013B7B66012387F85B3097F85B3083F00103DBB2002BD7D1CA
S3250810040002E07B6E013B7B667B6E01337B667B6E1B7887F8493097F84930642B24D097F84A
S325081004204930692B20D097F84930662B1CD097F84930462B18D097F84930782B14D097F89D
S325081004404930582B10D097F849306F2B0CD097F84930622B08D097F84930702B04D097F8B1
S325081004604930752B40F0DC8097F84930642B03D097F84930692B15D17B681A1D7A601B6856
S32508100480BB6107F1180107F1200097F84B3000930A23012200F0D5FEF86507F12002FB6D6A
S325081004A013443B6697F84930582B03D097F84930782B1CD197F84930782B02D1002387F810
S325081004C04B307B681A1D7A601B687B6107F1140107F1200097F84B3000931023002200F029
S325081004E0B0FEF86507F12002FB6D13443B6697F849306F2B0BD097F84930622B07D097F8E1
S325081005004930702B03D097F84930752B6AD197F84930702B0DD17B681A1D7A601B683B615F
S3250810052007F1100107F114030422184600F0C6F804E07B681A1D7A601B687B6197F8493014
S32508100540623B132B3AD801A252F823F0A5051008BD051008BD051008BD051008BD05100866
S32508100560BD051008BD051008BD051008BD051008BD051008BD051008BD051008BD0510088D
S325081005809D051008AD051008BD051008BD051008BD051008BD051008B5051008082387F8D5
S325081005A04A300CE0022387F84A3008E0102387F84A3004E00A2387F84A3000E000BF97F84D
S325081005C04A2007F1140107F1200097F84B3000931346002200F035FEF86507F12002FB6D54
S325081005E013443B667A6D07F11C01FB6800930B46F96D202000F005FE3B6E002B54D00AE027
S325081006003B6E5A1E3A661B781A46FB6810469847FB690133FB613B6E1B78002BF0D143E031
S3250810062097F84930632B0BD17B681A1D7A601B687B64FB68786C9847FB690133FB6133E0A7
S3250810064097F84930732B27D17B681A1D7A601B68FB64FB6C002B27D0F86C00F0EFFF0346F4
S32508100660FB657A6D07F11C01FB6800930B46F96D202000F0C6FD0AE0FB6C5A1CFA641B78A8
S325081006801A46FB6810469847FB690133FB61FB6C1B78002BF0D107E097F84920FB681046D2
S325081006A09847FB690133FB617B6E01337B6628E600BFFB6918466837BD4680BDF1B5002A0D
S325081006C04BD011F0030306D011F8014B013A00F8014B42D0F5E710F003031BD1102A04DB37
S325081006E0103AF0C9102AF0C0FAD2130744BF30C930C0530744BF51F8044B40F8044B930707
S3250810070044BF31F8024B20F8024BD30744BF0C78047022E0C3070AD4042A16D351F8044BAF
S32508100720043A20F8024B250C20F8025BF4E7042A0BD351F8044B043A00F8014B250A20F80A
S32508100740025B260E00F8016BF1E7002A1EBF11F8014B00F8014B013AF7D1F1BD80B582B0F6
S3250810076000AF0C4800F074FF0B4800F071FF0B4A0B490C4800F070FF03467B607B68002BB4
S3250810078003D1094800F064FF02E0084800F060FFFEE700BFA0161008C0161008EC161008C8
S325081007A0F416100829161008FC1610081817100880B584B000AF78600023FB6009E00E4A82
S325081007C0FB6852F823207B689A4206D0FB680133FB60FB68102BF2D900E000BFFB68102BDE
S325081007E005D9064B064A5F210648FFF729FDFB6818461037BD4680BDA017100838171008F4
S32508100800E41710086817100880B582B000AF1148FFF7CEFF7860104A7B6852F82330002B01
S3250810082005D10E4B0E4AAC210E48FFF709FD0A4A7B6852F823300C497A6851F82220104608
S325081008400A497A6851F822201146984700BF0837BD4680BD006010402C1838207817100853
S32508100860FC17100868171008A01710087018382080B582B000AF1148FFF79AFF7860104AB9
S325081008807B6852F82330002B05D10E4B0E4ABA210E48FFF7D5FC0A4A7B6852F823300C49E7
S325081008A07A6851F8222010460A497A6851F822201146984700BF0837BD4680BD0070104063
S325081008C02C183820781710081818100868171008A01710087018382080B582B000AF1148BA
S325081008E0FFF766FF7860104A7B6852F82330002B05D10E4B0E4AC8210E48FFF7A1FC0A4AF5
S325081009007B6852F823300C497A6851F8222010460A497A6851F822201146984700BF08372D
S32508100920BD4680BD008010402C183820781710083418100868171008A0171008701838209C
S3250810094080B582B000AF1148FFF732FF7860104A7B6852F82330002B05D10E4B0E4AD62188
S325081009600E48FFF76DFC0A4A7B6852F823300C497A6851F8222010460A497A6851F82220F8
S325081009801146984700BF0837BD4680BD009010402C1838207817100850181008681710088B
S325081009A0A01710087018382080B582B000AF1148FFF7FEFE7860104A7B6852F82330002B2C
S325081009C005D10E4B0E4AE4210E48FFF739FC0A4A7B6852F823300C497A6851F82220104600
S325081009E00A497A6851F822201146984700BF0837BD4680BD002012402C18382078171008F0
S32508100A006C18100868171008A01710087018382080B582B000AF1148FFF7CAFE7860104A77
S32508100A207B6852F82330002B05D10E4B0E4AF3210E48FFF705FC0A4A7B6852F823300C49DC
S32508100A407A6851F8222010460A497A6851F822201146984700BF0837BD4680BD00301240FF
S32508100A602C183820781710088818100868171008A01710087018382080B582B000AF1248A7
S32508100A80FFF796FE7860114A7B6852F82330002B06D10F4B0F4A40F201110F48FFF7D0FBEA
S32508100AA00A4A7B6852F823300C497A6851F8222010460B497A6851F822201146984700BF76
S32508100AC00837BD4680BD00BF004012402C18382078171008A418100868171008A0171008AB
S32508100AE07018382080B582B000AF1248FFF760FE7860114A7B6852F82330002B06D10F4B25
S32508100B000F4A40F20F110F48FFF79AFB0A4A7B6852F823300C497A6851F8222010460B49EA
S32508100B207A6851F822201146984700BF0837BD4680BD00BF005012402C1838207817100812
S32508100B40C018100868171008A01710087018382080B582B000AF1248FFF72AFE7860114A80
S32508100B607B6852F82330002B06D10F4B0F4A40F21D110F48FFF764FB0A4A7B6852F8233042
S32508100B800C497A6851F8222010460B497A6851F822201146984700BF0837BD4680BD00BF2B
S32508100BA0009020402C18382078171008DC18100868171008A01710087018382080B582B02B
S32508100BC000AF1248FFF7F4FD7860114A7B6852F82330002B06D10F4B0F4A40F22B110F48DA
S32508100BE0FFF72EFB0A4A7B6852F823300C497A6851F8222010460B497A6851F822201146B4
S32508100C00984700BF0837BD4680BD00BF00A020402C18382078171008F818100868171008D8
S32508100C20A01710087018382080B582B000AF1248FFF7BEFD7860114A7B6852F82330002BE8
S32508100C4006D10F4B0F4A40F239110F48FFF7F8FA0A4A7B6852F823300C497A6851F822209B
S32508100C6010460B497A6851F822201146984700BF0837BD4680BD00BF00B020402C18382060
S32508100C80781710081419100868171008A01710087018382080B582B000AF1248FFF788FD19
S32508100CA07860114A7B6852F82330002B06D10F4B0F4A40F247110F48FFF7C2FA0A4A7B68E4
S32508100CC052F823300C497A6851F8222010460B497A6851F822201146984700BF0837BD4649
S32508100CE080BD00BF00C020402C183820781710083019100868171008A017100870183820D0
S32508100D0080B582B000AF1248FFF752FD7860114A7B6852F82330002B06D10F4B0F4A40F266
S32508100D2055110F48FFF78CFA0A4A7B6852F823300C497A6851F8222010460B497A6851F8F1
S32508100D4022201146984700BF0837BD4680BD00BF00D020402C183820781710084C19100810
S32508100D6068171008A01710087018382080B582B000AF1248FFF71CFD7860114A7B6852F830
S32508100D802330002B06D10F4B0F4A40F263110F48FFF756FA0A4A7B6852F823300C497A68DF
S32508100DA051F8222010460B497A6851F822201146984700BF0837BD4680BD00BF00E0204000
S32508100DC02C183820781710086819100868171008A01710087018382080B582B000AF124863
S32508100DE0FFF7E6FC7860114A7B6852F82330002B06D10F4B0F4A40F271110F48FFF720FA7A
S32508100E000A4A7B6852F823300C497A6851F8222010460B497A6851F822201146984700BF12
S32508100E200837BD4680BD00BF006012402C183820781710088419100868171008A017100846
S32508100E407018382080B582B000AF1248FFF7B0FC7860114A7B6852F82330002B06D10F4B73
S32508100E600F4A40F27F110F48FFF7EAF90A4A7B6852F823300C497A6851F8222010460B49C9
S32508100E807A6851F822201146984700BF0837BD4680BD00BF007012402C183820781710088F
S32508100EA0A019100868171008A01710087018382080B582B000AF1248FFF77AFC7860114AEE
S32508100EC07B6852F82330002B06D10F4B0F4A40F28D110F48FFF7B4F90A4A7B6852F8233021
S32508100EE00C497A6851F8222010460B497A6851F822201146984700BF0837BD4680BD00BFC8
S32508100F00008012402C18382078171008BC19100868171008A01710087018382080B500AF87
S32508100F200B4B1B68002B06D00A4B1B68084A1268114609489847064B5B68002B06D0054B29
S32508100F401B68034A526811460448984700BF80BDB4183820BC1838200040134000C0134075
S32508100F6080B483B000AF0346FB7197F90730002B0BDBFB7903F01F02074997F907305B09AD
S32508100F80012000FA02F241F8232000BF0C37BD465DF8047B704700BF00E100E080B483B031
S32508100FA000AF0346FB7197F90730002B0DDB0A4A97F907305B0952F82320FB7903F01F0340
S32508100FC022FA03F303F0010300E0002318460C37BD465DF8047B704700E100E080B483B090
S32508100FE000AF0346FB7197F90730002B12DBFB7903F01F020A4997F907305B09012000FA6F
S3250810100002F2203341F82320BFF34F8F00BFBFF36F8F00BF00BF0C37BD465DF8047B7047A1
S3250810102000E100E080B483B000AF0346FB7197F90730002B0CDBFB7903F01F02074997F9C5
S3250810104007305B09012000FA02F2603341F8232000BF0C37BD465DF8047B704700E100E068
S3250810106080B400AF054B1B69044A43F00403136100BFBD465DF8047B704700BF00ED00E0C6
S3250810108080B400AF124BDB68114A23F00203D36000BF0F4B5B6803F00103002BF9D10C4BEA
S325081010A0DB680B4A43F00103D36000BF084B5B6803F00103002BF9D1054BDB68044A43F03B
S325081010C00203D36000BFBD465DF8047B704700BF0050134080B584B000AF786000F05CFAD5
S325081010E0F860FFF7BDFF314BD3F800267B681B68DB4323F0A84323F02E032C491343C1F811
S3250810110000362A4BD3F804267B6804331B68D943274B0B4025491343C1F80436234BD3F8AB
S3250810112008267B6808331B68DB4320491343C1F808361E4BD3F80C267B680C331B68DB43C5
S325081011401A491343C1F80C36184BD3F80036174A43F00803C2F80036164B1B68002B02D0E9
S32508101160144B1B6800E07323134A93627B681B685B0803F00303BB60BB68002B05D14FF463
S32508101180C061022000F029FA04E04FF4C061B86800F023FA084B084A9B68936030BFF8687C
S325081011A000F00BFA00BF1037BD4680BD00200040FEEF3FDEE01738200050134080B485B011
S325081011C000AFF860B9607A60002318461437BD465DF8047B70470FB480B582B000AF0023A1
S325081011E07B6007F114033B6039683869FFF740F878607B6818460837BD46BDE8804004B068
S32508101200704780B586B000AFB9607A603B600346FB73BB687B610BE0FA7B3B6A1046984761
S325081012203B681B685A1C3B681A607B6901337B617A697B689A42EFDB00BF00BF1837BD46A7
S3250810124080BD80B48FB000AFF860B9607A603B600023FB62FB68BB62BB6A5A1CBA62002252
S325081012601A7000237B6000237B6200233B620023FB6100237B630023BB6100233B63002365
S325081012807B61BB681B687B637B6B002B30D1BB6A30221A70FB6A0133FB62FB6A2CE03B68B3
S325081012A07A6BB2FBF3F3BB613B68BA6902FB03F37A6BD31A3B633B6B092B03D83B6B303395
S325081012C03B630AE097F84030002B01D0412200E061223B6B13440A3B3B63BB697B63BB6AA0
S325081012E05A1CBA623A6BD2B21A70FB6A0133FB627B6B002BD3D1FB6A18463C37BD465DF852
S32508101300047B704708B5FEF799FF08BD08B5FEF795FF08BD08B5FEF791FF08BD08B5FEF7A6
S325081013208DFF08BD08B5FEF789FF08BD08B5FEF785FF08BD08B5FEF781FF08BD08B5FEF79B
S325081013407DFF08BD08B5FEF779FF08BD08B5FEF775FF08BD08B5FEF771FF08BD08B5FEF7BB
S325081013606DFF08BD08B5FEF769FF08BD08B5FEF765FF08BD08B5FFF747FA08BD08B5FFF7F8
S3250810138077FA08BD08B5FFF7A7FA08BD08B5FFF7D7FA08BD08B5FFF707FB08BD08B5FFF76A
S325081013A037FB08BD08B5FFF717FD08BD08B5FFF749FD08BD08B5FEF741FF08BD08B5FEF765
S325081013C03DFF08BD08B5FEF739FF08BD08B5FEF735FF08BD08B5FEF731FF08BD08B5FEF73B
S325081013E02DFF08BD08B5FEF729FF08BD08B5FEF725FF08BD08B5FEF721FF08BD08B5FEF75B
S325081014001DFF08BD08B5FEF719FF08BD08B5FEF715FF08BD08B5FEF711FF08BD08B5FEF77A
S325081014200DFF08BD08B5FEF709FF08BD08B5FEF705FF08BD08B5FEF701FF08BD08B5FEF79A
S32508101440FDFE08BD08B5FEF7F9FE08BD08B5FEF7F5FE08BD08B5FFF761FD08BD08B5FFF74D
S325081014600BFB08BD08B5FFF73DFB08BD08B5FEF7E5FE08BD08B5FEF7E1FE08BD08B5FEF771
S32508101480DDFE08BD08B5FEF7D9FE08BD08B5FEF7D5FE08BD08B5FEF7D1FE08BD08B5FEF7FE
S325081014A0CDFE08BD08B5FEF7C9FE08BD08B5FEF7C5FE08BD08B5FEF7C1FE08BD08B5FEF71E
S325081014C0BDFE08BD08B5FEF7B9FE08BD08B5FEF7B5FE08BD08B5FEF7B1FE08BD08B5FEF73E
S325081014E0ADFE08BD08B5FFF733FB08BD08B5FFF765FB08BD08B5FFF797FB08BD08B5FFF723
S32508101500C9FB08BD08B5FFF7FBFB08BD08B5FFF72DFC08BD08B5FFF7CBFC08BD08B5FEF724
S325081015208DFE08BD08B5FEF789FE08BD08B5FEF785FE08BD08B5FEF781FE08BD08B5FEF79D
S325081015407DFE08BD08B5FEF779FE08BD08B5FEF775FE08BD80B400AF00BFBD465DF8047BDC
S32508101560704704207146084202D0EFF3098001E0EFF3088081690A884BF6AB639A4200D072
S32508101580FEE7023181610168012901D0002100E020210160704700BF80B483B000AFEFF3BE
S325081015A010833B603B687B6072B600BF7B6818460C37BD465DF8047B704780B485B000AF50
S325081015C078607B68FB60FB6883F3108800BF00BF1437BD465DF8047B704780B483B000AFF9
S325081015E078600B467B8072B600BF7B88C3F30B0303F1804303F500531B6823F006017B6879
S325081016005A007B88C3F30B0303F1804303F50053184641EA0203036062B600BF00BF0C37BF
S32508101620BD465DF8047B704710F8012B11F8013B012A28BF9A42F7D0D01A7047034613F8DB
S32508101640012B002AFBD1181A01387047FFFFFFFF5FF800F009FE0F185FF800F001FE0F184A
S32508101660415353455254204552524F52202220257320223A2066696C652022257322204C32
S32508101680696E6520222564222066756E6374696F6E206E616D652022257322200A00000096
S325081016A057656C636F6D6520696E206E6F726D616C20776F726C64210D0A00000000000020
S325081016C05468697320697320612074657874207072696E7465642066726F6D206E6F726D2C
S325081016E0616C20776F726C64210D0A0054657374320D0A0054657374310D0A00426F746821
S3250810170020737472696E67732061726520657175616C210D0A000000426F746820737472B3
S32508101720696E677320617265206E6F7420657175616C210D0A00000069203C202875696E48
S325081017407433325F742946534C5F464541545552455F534F435F464C4558434F4D4D5F43A6
S325081017604F554E540000000066736C5F666C6578636F6D6D2E630000735F666C6578636F22
S325081017806D6D49727148616E646C65725B696E7374616E63655D20213D204E554C4C00FF82
S325081017A00060104000701040008010400090104000201240003012400040124000501240C3
S325081017C00090204000A0204000B0204000C0204000D0204000E020400060124000701240E7
S325081017E000801240464C4558434F4D4D5F476574496E7374616E636500FFFFFF464C4558BE
S32508101800434F4D4D305F44726976657249525148616E646C657200FF464C4558434F4D4D7F
S32508101820315F44726976657249525148616E646C657200FF464C4558434F4D4D325F447243
S325081018406976657249525148616E646C657200FF464C4558434F4D4D335F447269766572B2
S3250810186049525148616E646C657200FF464C4558434F4D4D345F4472697665724952514813
S32508101880616E646C657200FF464C4558434F4D4D355F44726976657249525148616E646C87
S325081018A0657200FF464C4558434F4D4D365F44726976657249525148616E646C657200FF2F
S325081018C0464C4558434F4D4D375F44726976657249525148616E646C657200FF464C4558B5
S325081018E0434F4D4D385F44726976657249525148616E646C657200FF464C4558434F4D4D97
S32508101900395F44726976657249525148616E646C657200FF464C4558434F4D4D31305F449D
S32508101920726976657249525148616E646C657200464C4558434F4D4D31315F4472697665A1
S325081019407249525148616E646C657200464C4558434F4D4D31325F447269766572495251D8
S3250810196048616E646C657200464C4558434F4D4D31335F44726976657249525148616E649A
S325081019806C657200464C4558434F4D4D31345F44726976657249525148616E646C657200B1
S325081019A0464C4558434F4D4D31355F44726976657249525148616E646C657200464C4558A4
S325081019C0434F4D4D31365F44726976657249525148616E646C65720050FCFF7F0100000016
S325081019E080B400AF094B1B68094A934202D0074B074A1A60074B5B69012B02D0054B012271
S32508101A005A6100BFBD465DF8047B704720501340080804840050134080B586B000AFEFF3A6
S32508101A201083BB60BB687B6172B600BFFFF7D8FF3D4B1B693C4A43F0040313613A2001F09C
S32508101A40B3FB0346002B14BF01230023FB74374BD3F8103623F4084323F00103334A43F001
S32508101A600103C2F80036314B304AD3F81436C2F804362E4B2D4AD3F81836C2F808362B4BDE
S32508101A802A4AD3F81C36C2F80C36284B0522C3F86026274B4FF400625A62254BDB68FB60DF
S32508101AA0FB6823F0815323F48013214A43F08053D3601E4B4FF08062C3F8A426FB7C83F077
S32508101AC00103DBB2002B02D03A2001F069FB30BF174AFB68D360164B4FF080529A60134BFB
S32508101AE04FF08062C3F8C426104B0022C3F860263A2001F049FBFB7C83F00103DBB2002B0F
S32508101B0002D03A2001F044FB074B1B69064A23F0040313617B697B607B6883F3108800BF28
S32508101B2000BF1837BD4680BD00ED00E0002000400050134080B586B000AFEFF31083BB60BF
S32508101B40BB687B6172B600BFFFF74AFF3D4B1B693C4A43F0040313613A2001F025FB03464E
S32508101B60002B14BF01230023FB74374BD3F8103623F4805323F00103334A43F00103C2F891
S32508101B800036314B304AD3F81436C2F804362E4B2D4AD3F81836C2F808362B4B2A4AD3F83C
S32508101BA01C36C2F80C36284B0222C3F86026274B4FF400625A62254BDB68FB60FB6823F08A
S32508101BC0815323F48013214A43F08053D3601E4B4FF08062C3F8A426FB7C83F00103DBB23B
S32508101BE0002B02D03A2001F0DBFA30BF174AFB68D360164B4FF080529A60134B4FF08062D9
S32508101C00C3F8C426104B0022C3F860263A2001F0BBFAFB7C83F00103DBB2002B02D03A2071
S32508101C2001F0B6FA074B1B69064A23F0040313617B697B607B6883F3108800BF00BF1837B4
S32508101C40BD4680BD00ED00E0002000400050134080B586B000AFEFF31083BB60BB687B61AD
S32508101C6072B600BF3C4B1B693B4A43F0040313613A2001F099FA0346002B14BF01230023B5
S32508101C80FB74364BD3F81036344A43F4184343F00103C2F80036314B304AD3F81436C2F829
S32508101CA004362E4B2D4AD3F81836C2F808362B4B2A4AD3F81C36C2F80C36284B0722C3F871
S32508101CC06026274B4FF400625A62254BDB68FB60FB6823F0815323F48013214A43F080531A
S32508101CE0D3601E4B4FF08062C3F8A426FB7C83F00103DBB2002B02D03A2001F051FA30BF87
S32508101D00174AFB68D360164B4FF080529A60134B4FF08062C3F8C426104B0022C3F8602660
S32508101D203A2001F031FAFB7C83F00103DBB2002B02D03A2001F02CFA074B1B69064A23F0ED
S32508101D40040313617B697B607B6883F3108800BF00BF1837BD4680BD00ED00E00020004000
S32508101D600050134080B485B000AF78600023FB600023FB6003E000BFFB680133FB60FA68C0
S32508101D807B689A42F7D300BF00BF1437BD465DF8047B704780B400AF2B4BB3F1006F03D303
S32508101DA0294BB3F1805F07D3274BB3F1C05F1DD3254BB3F1005F19D200BF244BD3F8E030A8
S32508101DC003F00203002BF8D0204BD3F8E03003F00103002BF1D01D4B1B681C4A43F0020348
S32508101DE013601B4B4FF480321A6728E0164BB3F1205F03D3144BB3F1405F07D3124BB3F197
S32508101E00605F1CD3104BB3F1804F18D200BF114BD3F8E03003F00203002BF8D00D4BD3F83A
S32508101E20E03003F00103002BF1D00A4B1B68094A43F002031360064B4FF480221A6700BF45
S32508101E40BD465DF8047B704781101008004013400010004000C0134080B487B000AF786045
S32508101E607B681B6823F002027B681A607B681B6843F001027B681A6000BF7B681B6803F059
S32508101E800103002BF9D17B68D3F8C03003F00103002B28D07B68D3F8E8307B610A233B6108
S32508101EA07B68D3F8E830FB60FB6803F00303032B02D164233B610EE0FA687B699A4203D17F
S32508101EC03B69013B3B6103E00A233B61FB687B613B69002BE4D103E000BF3B69013B3B61DB
S32508101EE03B69002BF8D100BF1C37BD465DF8047B704780B500AF184BB3F1006F03D3164BFB
S32508101F00B3F1805F07D3144BB3F1C05F0BD3124BB3F1005F07D2114B4FF480321A641048E6
S32508101F20FFF79AFF16E00C4BB3F1205F03D30A4BB3F1405F07D3084BB3F1605F0AD3064B58
S32508101F40B3F1804F06D2054B4FF480221A640548FFF782FF00BF80BD8110100800100040AC
S32508101F600040134000C0134080B487B000AFF860B9607A60264B7B617A69264B534043F4CD
S32508101F80801343F014033B61BB6800221A60224BD3F814261F4B53401F4AD2F804261A40C5
S32508101FA07B691A401B4B1340002B27D17B6800221A60194BD3F81426164B5340164AD2F8E3
S32508101FC004261A403B691A40124B1340124AD2F81826D143104AD2F808260A401A430E4BE7
S32508101FE0D3F81C36D9430C4BD3F80C360B401343002B06D0BB6801221A6002E07B680122DC
S325081020001A6000BF1C37BD465DF8047B704700BF3CCF3C10FEEF3F100020004080B588B069
S3250810202000AF78600023FB61FB69C833FB61FB698E33FB61FB694733FB61AC4BD3F800261E
S32508102040AB4B1340AA4A93420CBF01230023FB75FB7D002B02D04FF4D67200E04722FB7D0D
S32508102060002B02D042F2283300E000231344FA691344FB619F4B1A699E4B5B699A4205D07B
S325081020809D4B1B68002B01D1012300E00023BB75BB7D03F00103BB75BB7D002B1AD1934BD8
S325081020A0D3F81826914BD3F808369A4212D18F4BD3F81C268D4BD3F80C369A420AD18B4BFC
S325081020C0D3F81426894BD3F80436534023F0C043002B01D0012300E000237B757B7D03F05D
S325081020E001037B75FB694733FB61804BD3F8003603F01003102B07D17B7D002B04D0BB7D80
S32508102100002B01D0012300E00023FB75FB7D03F00103FB75FB7D002B02D040F61D5200E035
S325081021204722FB7D002B02D04FF47A7300E000231344FA691344FB616F4B1B68002B47D183
S325081021406A4BD3F8003603F01003102B0CBF01230023FB75FB7D002B02D04FF47A7300E063
S325081021600023FA691344FB617B7D002B21D0BB7D002B1ED05F4B1B6903F03F025D4B5B69D5
S3250810218003F03F03D31ABB61BB694FF4FA4202FB03F303F57A735B08584AA2FB03239A08FE
S325081021A0BB694FF4167101FB03F31344FA691344FB614E4BD3F8103603F01003102B02D1F6
S325081021C040F6FF3300E04723FA691344FB611EE0FB698E33FB61484B1B68B3F1FF3F16D0BC
S325081021E0424BD3F8003603F40073B3F5007F02D149F6580201E040F214523F4B1B684FF46D
S325081022007A7101FB03F31344FA691344FB61374BD3F8003603F40063002B04D17B7D002B56
S3250810222001D0012300E00023FB75FB7D03F00103FB75FB7D002B0BD12C4BD3F8003603F44B
S325081022408053002B02D141F68D0303E0472301E04FF4D673FA7D002A02D046F2905200E0A1
S3250810226000221344FA691344FB61204BD3F8003603F40043002B04D17B7D002B01D00123F3
S3250810228000E00023FB75FB7D03F00103FB75FB7D002B02D04FF4D67200E04722FB7D002BE2
S325081022A002D046F2905300E000231344FA691344FB6101233B6107F1080207F10C0319467B
S325081022C03F20FFF751FEBB684CF2503203FB02F2FB6844F2506101FB03F31A44034BD3F8B4
S325081022E00436002B0CDA4FF4FA530BE000200040D017000100501340D4173820932449923A
S325081023004FF47A73F9683869401AB968411A01FB03F3134403F57A735B08484AA2FB0323B1
S325081023209B0803F5FA53FA691344FB61FB694733FB61434BD3F8103603F40063002B22D031
S325081023403F4BD3F8003603F40063002B06D13C4BD3F8603603F00103002B14D1384BD3F83B
S32508102360103603F40043002B0DD0354BD3F8003603F40043002B0FD1314BD3F8603603F021
S325081023800403002B08D041F28833BB61FB6903F575337833FB611AE0294BD3F8103603F48A
S325081023A08053002B0DD0264BD3F8003603F48053002B09D1224BD3F8603603F00203002BF2
S325081023C002D0204BBB6102E04FF47A73BB61BB695B081A4AA2FB03239B08FA691344FB61F1
S325081023E0174BD3F81026184B1340174A934213D1134BD3F8003603F48053B3F5805F06D006
S325081024000F4BD3F8603603F00203002B04D1FB6903F22623FB6102E0FB694733FB61FB696D
S325081024207A6802FB03F303F2E733084AA2FB03239B0918462037BD4680BD00BF932449929B
S3250810244000200040C0C20400D0170001D34D621090B597B000AF7860EFF310833B633B6B32
S32508102460BB64002387F85730002387F8563000233B650023FB6472B600BFFFF7B1FA9E4B18
S325081024801B699D4A43F0040313619C4BD3F808317B649A4BD3F830347B62984BD3F8343434
S325081024A0BB62974BD3F83034FB61954BD3F834343B62924BD3F800343B647B681B68DB43C5
S325081024C023F0A84323F02E038E4AD2F810167A681268D2430A4022F006028A491343C1F81D
S325081024E000367B681B6803F4F813002B07D0854BD3F80036834A23F04003C2F800367B6857
S3250810250004331B68DA43804B13407E4AD2F814167A6804321268D2430A407A491343C1F829
S3250810252004367B6808331B68DA43764BD3F818167B6808331B68DB430B4072491343C1F8F7
S3250810254008367B680C331B68DA436E4BD3F81C167B680C331B68DB430B406A491343C1F8D7
S325081025600C366A4B1B68002B02D0684B1B6800E07323674A93627B681B685B0803F00303B2
S32508102580FB63FB6B002B08D15E4BD3F800365D4A43F00203C2F8003608E05A4BD3F800265E
S325081025A0FB6B5B0057491343C1F80036554BD3F8003603F00103002B09D0524BDB68002BB0
S325081025C005D1504B0122DA60012387F85730504B4F4A9B6893604E4B3F221A634C4BDB686A
S325081025E0BB634B4ABB6B23F44013D360454BD3F8043603F00063002B10D0424BD3F81436AF
S32508102600DB4303F00063FB643E4AFB6CC2F824363F4BDB683E4A43F48023D3603C4BDB689A
S325081026203B4A23F00203D36000BF394B5B6803F00103002BF9D1364BDB68354A43F0010340
S32508102640D36000BF324B5B6803F00103002BF9D12F4BDB682E4A43F00203D3602D4B1B7893
S32508102660002B15D1274BD3F8103603F48043002B2FD0244B4FF48042C3F83026012387F89C
S32508102680563000BF1D4BD3F89031002BFADA20E01A4BD3F810313B651A4BD3F8103603F466
S325081026A08033002B0FD0174B4FF48032C3F83026012387F8563000BF104BD3F80C3103F099
S325081026C00103002BF8D00D4A3B6D43F00403C2F81031104B1B78002B1ED10A4BD3F8003653
S325081026E003F48043002B17D1064C0120FFF796FC0346C4F8103751E000ED00E0001000405A
S325081027000010024000200040FEEF3FDEE017382000501340DC173820A64B1B78012B39D1E8
S32508102720A54BD3F8003603F48033002B32D1A34BD3F880309BB2002B1AD0A04BD3F884307D
S325081027409BB203F10043033B9C4AD2F86821002A04D09A4AD2F86821002201E041F2E462AF
S3250810276002FB03F3DB00964AA2FB03231B0D09E0924BD3F8903003F03F032F2B01D11823B5
S3250810278000E030238C4C1846FFF748FC0346C4F8103703E0884B0022C3F81027FFF7FAFA78
S325081027A0864B0122C3F80821824B1B78834A03F00303C2F83034814B0022C3F83424814B12
S325081027C00022C3F830247F4B0022C3F834247B4B0022C3F8002400BF784BD3F80034002B38
S325081027E0FADB754BD3F81026734BD3F80036534003F4F0137B637B6B03F4C023002B01D13E
S32508102800002301E042F202037B617B6B03F4C013002B01D1002301E042F20203BB617B6B95
S3250810282003F4C023002B06D0644BD3F81832DB4303F0803300E00023FB607B6B03F4C01309
S32508102840002B06D05F4BD3F81832DB4303F0803300E000233B61594BD3F81822FB6857498B
S325081028601343C1F81832574BD3F818223B6955491343C1F81832514BD3F804227B694F4996
S325081028801343C1F804324F4BD3F80422BB694D491343C1F80432484A7B6BC2F8203630BFD4
S325081028A0454BD3F81026444BD3F80036534003F40053002B3DD03F4B1B78002B03D1424B1B
S325081028C01B689B0832E03D4BD3F880309BB2002B1AD03A4BD3F884309BB203F10043033B77
S325081028E0364AD2F86821002A04D0344AD2F86821002201E041F2E46202FB03F3DB00334A51
S32508102900A2FB0323DB0D09E02C4BD3F8903003F03F032F2B01D1012300E002232A4A12688B
S3250810292003FB02F213465B0013445B001846FFF719FA7B6B002B00F03F811F4A7B6BC2F8F0
S3250810294030361C4B1B78002B05D11C4BD3F80C329BB2DB0843E0194BD3F80C329BB25A0819
S32508102960164BD3F880309BB2002B1AD0134BD3F884309BB203F10043033B1049D1F86811C1
S32508102980002904D00D49D1F86811002101E041F2E46101FB03F3DB000C49A1FB0313DB0D4E
S325081029A017E0064BD3F8903003F03F032F2B0FD101230EE0DC1738200020004000100040AA
S325081029C083DE1B4300100240D0173820819F5E16022303FB02F213465B0013445B0018461A
S325081029E0FFF7C0F98E4BD3F804227B6903F00203DB438B491340C1F804328A4BD3F804226A
S32508102A00BB6903F00203DB4386491340C1F80432854B1B78002B08D1814BD3F80C329BB2C4
S32508102A20824AA2FB03231B0938E07D4BD3F80C329BB27E4AA2FB03239A08794BD3F8803023
S32508102A409BB2002B1AD0764BD3F884309BB203F10043033B7249D1F86811002904D0704941
S32508102A60D1F86811002101E041F2E46101FB03F3DB006F49A1FB0313DB0D09E0684BD3F8F6
S32508102A80903003F03F032F2B01D1012300E0022303FB02F213465B0013445B001846FFF722
S32508102AA061F95F4BD3F804227B6903F40053DB435B491340C1F804325A4BD3F80422BB6917
S32508102AC003F40053DB4357491340C1F80432564B1B78002B08D1524BD3F80C329BB2534AC6
S32508102AE0A2FB0323DB0838E04D4BD3F80C329BB24E4AA2FB03235A08494BD3F880309BB2F3
S32508102B00002B1AD0464BD3F884309BB203F10043033B4349D1F86811002904D04049D1F893
S32508102B206811002101E041F2E46101FB03F3DB003F49A1FB0313DB0D09E0394BD3F890309D
S32508102B4003F03F032F2B01D1012300E0022303FB02F213465B0013445B001846FFF702F926
S32508102B60FB68002B12D02E4BD3F81822FB68DB432B491340C1F8183200BF294BD3F81832B6
S32508102B8003F04032FB685B089A42F6D13B69002B12D0244BD3F818223B69DB4321491340A5
S32508102BA0C1F8183200BF1F4BD3F8183203F040323B695B089A42F6D1194A3B6CC2F80034AF
S32508102BC000BF174BD3F80034002BFADB144A7B6CC2F808317B6A124A03F00303C2F8303427
S32508102BE0BB6A0F4A03F00303C2F83434FB690D4A03F00303C2F830343B6A0A4A03F003035A
S32508102C00C2F83434084B1B78002B15D197F85630002B1ED0074B4FF48042C3F8202618E0FF
S32508102C200010004000100240DC173820ABAAAAAA819F5E1600200040294A3B6DC2F81031D6
S32508102C4097F85630002B04D0264B4FF48032C3F82026FFF74EF9244ABB6BD360FB6C002B45
S32508102C6023D0204AFB6CC2F834361F4BDB681E4A23F00203D36000BF1B4B5B6803F001030F
S32508102C80002BF9D1184BDB68174A43F00103D36000BF154B5B6803F00103002BF9D1124B85
S32508102CA0DB68114A43F00203D36097F85730002B05D00C4BDB680B4A23F00103D3600B4B48
S32508102CC01B690A4A23F004031361BB6CFB62FB6A83F3108800BF00BF5C37BD4690BD00BF59
S32508102CE000100040002000400050134000ED00E080B584B000AFF860B9607A60FB683E4A48
S32508102D00934238D13D4BD3F82026BB6803F007039A4207D1394BD3F82436DAB27B68013BF6
S32508102D209A4266D0F86800F06DF8344B4FF480321A67324ABB6803F00703C2F820362F4B93
S32508102D40D3F824362D4A43F00053C2F824367B68013B2A4ADBB2C2F8243600BF274BD3F8EF
S32508102D602436002BFADB254B4FF480321A64F86800F074F83DE0FB68214A934238D11F4B09
S32508102D80D3F83026BB6803F007039A4207D11B4BD3F83436DAB27B68013B9A4229D0F868A5
S32508102DA000F030F8154B4FF480221A67134ABB6803F00703C2F83036104BD3F834360F4A91
S32508102DC043F00053C2F834367B68013B0B4ADBB2C2F8343600BF094BD3F83436002BFADBBE
S32508102DE0064B4FF480221A64F86800F037F800E000BF1037BD4680BD004013400010004079
S32508102E0000C0134080B483B000AF7860124B4FF480321A647B681B6823F002027B681A60E9
S32508102E2000BF7B68D3F8E03003F00203002BF8D07B68D3F8E03003F00103002BF1D07B6888
S32508102E401B6843F002027B681A6000BF0C37BD465DF8047B704700BF0010004080B487B033
S32508102E6000AF78607B680122C3F8C0207B681B6823F002027B681A607B681B6843F0010296
S32508102E807B681A6000BF7B681B6803F00103002BF9D17B68D3F8C03003F00103002B28D0EE
S32508102EA07B68D3F8E8307B610A233B617B68D3F8E830FB60FB6803F00303032B02D1642384
S32508102EC03B610EE0FA687B699A4203D13B69013B3B6103E00A233B61FB687B613B69002B1E
S32508102EE0E4D103E000BF3B69013B3B613B69002BF8D100BF1C37BD465DF8047B704780B475
S32508102F0000AF4FF04023D3F8BC30614A13604FF04023D3F8F0315E4A53604FF04023D3F817
S32508102F20F4315B4A93604FF04023D3F8C830594A13604FF04023D3F8CC30564A53604FF040
S32508102F404023D3F8D030534A93604FF04023D3F8D430504AD3604FF04023D3F8D8304D4A4B
S32508102F6013614FF04023D3F8DC304A4A53614FF04023D3F8E030474A93614FF04023D3F88F
S32508102F80E430444AD3614FF04023D3F8E830414A13624FF04023D3F8EC303E4A53624FF0B3
S32508102FA040230022C3F8BC204FF040230022C3F8F0214FF040230022C3F8F4214FF0402311
S32508102FC0D3F8C8304FF0402223F04003C2F8C8304FF04023D3F8CC304FF0402223F0400307
S32508102FE0C2F8CC304FF04023D3F8D0304FF0402243F03003C2F8D0304FF04023D3F8D4305E
S325081030004FF0402243F03003C2F8D4304FF04023D3F8D8304FF0402243F03003C2F8D8308F
S325081030204FF04023D3F8DC304FF0402243F03003C2F8DC304FF04023D3F8E0304FF040220E
S3250810304043F03003C2F8E0304FF04023D3F8E4304FF0402243F03003C2F8E4304FF040232A
S32508103060D3F8E8304FF0402243F03003C2F8E8304FF04023D3F8EC304FF0402243F03003E6
S32508103080C2F8EC3000BFBD465DF8047B704700BFE4173820F017382080B400AF4FF04022FA
S325081030A0284B1B68C2F8BC304FF04022254B5B68C2F8F0314FF04022224B9B68C2F8F431B7
S325081030C04FF04022204B1B68C2F8C8304FF040221D4B5B68C2F8CC304FF040221A4B9B6806
S325081030E0C2F8D0304FF04022174BDB68C2F8D4304FF04022144B1B69C2F8D8304FF040220D
S32508103100114B5B69C2F8DC304FF040220E4B9B69C2F8E0304FF040220B4BDB69C2F8E430DA
S325081031204FF04022084B1B6AC2F8E8304FF04022054B5B6AC2F8EC3000BFBD465DF8047B04
S32508103140704700BFE4173820F017382080B582B000AF7860FFF7D3FE7868FFF779F9FFF736
S325081031609BFF00BF0837BD4680BD80B582B000AF7860FFF7C4FE786800F00EF8FFF78CFF5C
S3250810318000BF0837BD4680BD5FF800F0251010085FF800F0DD0F10085FF800F0D5101008B0
S325081031A05FF800F0610F10085FF800F09D0F10080000000000000000000000000000000017
S325081031C00000000000000000000000000000000000000000000000000000000000000000D1
S31D081031E0000000000000000000000000000000000000000000000000B9
S32518001000000038309111001829120018635A00182D1200182F120018311200183312001800
S32518001020000028000000000000000000351200183712001800100018391200183B120018BA
S32518001040075800180F580018175800181F580018275800182F580018375800183F580018DA
S32518001060475800184F580018575800185F580018675800186F580018775800187F580018BA
S32518001080875800188F580018975800189F580018A7580018AF580018B7580018BF5800189A
S325180010A0C7580018CF580018D7580018DF580018E7580018EF580018F7580018FF5800187A
S325180010C0075900180F590018175900181F590018275900182F590018375900183F59001852
S325180010E0475900184F590018575900185F590018675900186F590018775900187F59001832
S32518001100875900188F590018975900189F590018A7590018AF590018B7590018BF59001811
S32518001120C7590018CF590018D7590018DF590018E7590018EF590018F7590018FF590018F1
S32518001140075A00180F5A0018175A00181F5A0018275A00182F5A0018375A00183F5A0018C9
S32518001160475A00184F5A0018046700180000343034180000046700180000145000000000BD
S3251800118034183430B4000000000014500000000072B6134B134A17480360196881F308883F
S325180011A082F30A8803F07AFC0F4B07E003F10C049A685968186800F01FF823460B4A93427F
S325180011C0F4D306E01C46596854F8080B00F023F82346074A9342F5D362B600F0E1FFFEE793
S325180011E00010001800F0373068110018801100189011001808ED00E0002393420AD210B4F2
S3251800120050F8044B41F8044B04339342F8D35DF8044B70477047002303E0002240F8042B19
S3251800122004338B42F9D37047FEE7FEE7FEE7FEE7FEE7FEE7FEE7FEE7FEE7FEE7FEE7FFFF34
S3251800124080B586B002AFF860B9607A603B607B680093BB68FA683968044804F020FABA6856
S32518001260F968386804F00EFA00BEFDE7005E001880B58AB000AFB9607B600346FB73134619
S32518001280BB73BB7B012B01D001232AE0174ABB7B13747B687B61BB68BB6100233B7700238D
S325180012A07B770123BB770123FB77002387F82030002387F82130FB7B87F82230002387F864
S325180012C02330002387F8243007F114031946074804F020FD054B064A9A60044B054ADA6067
S325180012E0002318462837BD4680BD00BF3418343031500018A54F001880B584B000AF7860AC
S3251800130039600023FB60094B1B7C002B02D14FF0FF3306E03A687968054800F023F8F86025
S32518001320FB6818461037BD4680BD00BF341834303513001880B582B000AF7860084B1B7CA0
S32518001340002B02D14FF0FF3306E0054B9B68391D012203489847012318460837BD4680BD23
S325180013603418343080B59CB002AFF860B9607A6000233B660023FB650023FB61002387F8BA
S325180013804A3000237B61BB687B667B6E1B78002B00F0D2817B6E1B7887F8493097F849304C
S325180013A0252B0BD097F84920FB6810469847FB690133FB617B6E01337B66BCE1012387F822
S325180013C04B3000237B65002387F85B3020E07B6E01337B667B6E1B7887F8493097F84930CA
S325180013E02F2B0FD997F84930392B0BD87A6D13469B0013445B001A4697F849301344303B87
S325180014007B6505E07B6E013B7B66012387F85B3097F85B3083F00103DBB2002BD7D17B6EDB
S3251800142001337B667B6E1B782E2B2ED100233B65002387F85B3020E07B6E01337B667B6ECE
S325180014401B7887F8493097F849302F2B0FD997F84930392B0BD83A6D13469B0013445B00FD
S325180014601A4697F849301344303B3B6505E07B6E013B7B66012387F85B3097F85B3083F0DE
S325180014800103DBB2002BD7D102E07B6E013B7B667B6E01337B667B6E1B7887F8493097F8E1
S325180014A04930642B24D097F84930692B20D097F84930662B1CD097F84930462B18D097F811
S325180014C04930782B14D097F84930582B10D097F849306F2B0CD097F84930622B08D097F809
S325180014E04930702B04D097F84930752B40F0DC8097F84930642B03D097F84930692B15D1C6
S325180015007B681A1D7A601B68BB6107F1180107F1200097F84B3000930A23012204F0F5F823
S32518001520F86507F12002FB6D13443B6697F84930582B03D097F84930782B1CD197F84930B8
S32518001540782B02D1002387F84B307B681A1D7A601B687B6107F1140107F1200097F84B3058
S3251800156000931023002204F0D0F8F86507F12002FB6D13443B6697F849306F2B0BD097F8C6
S325180015804930622B07D097F84930702B03D097F84930752B6AD197F84930702B0DD17B6893
S325180015A01A1D7A601B683B6107F1100107F114030422184600F0C6F804E07B681A1D7A60BB
S325180015C01B687B6197F84930623B132B3AD801A252F823F02D160018451600184516001858
S325180015E0451600184516001845160018451600184516001845160018451600184516001835
S32518001600451600184516001825160018351600184516001845160018451600184516001844
S325180016203D160018082387F84A300CE0022387F84A3008E0102387F84A3004E00A2387F84F
S325180016404A3000E000BF97F84A2007F1140107F1200097F84B3000931346002204F055F8DC
S32518001660F86507F12002FB6D13443B667A6D07F11C01FB6800930B46F96D202004F025F87B
S325180016803B6E002B54D00AE03B6E5A1E3A661B781A46FB6810469847FB690133FB613B6E61
S325180016A01B78002BF0D143E097F84930632B0BD17B681A1D7A601B687B64FB68786C98477C
S325180016C0FB690133FB6133E097F84930732B27D17B681A1D7A601B68FB64FB6C002B27D0E8
S325180016E0F86C04F07FFB0346FB657A6D07F11C01FB6800930B46F96D202003F0E6FF0AE0A6
S32518001700FB6C5A1CFA641B781A46FB6810469847FB690133FB61FB6C1B78002BF0D107E024
S3251800172097F84920FB6810469847FB690133FB617B6E01337B6628E600BFFB6918466837DB
S32518001740BD4680BDF1B5002A4BD011F0030306D011F8014B013A00F8014B42D0F5E710F0A1
S3251800176003031BD1102A04DB103AF0C9102AF0C0FAD2130744BF30C930C0530744BF51F8DB
S32518001780044B40F8044B930744BF31F8024B20F8024BD30744BF0C78047022E0C3070AD45E
S325180017A0042A16D351F8044B043A20F8024B250C20F8025BF4E7042A0BD351F8044B043A56
S325180017C000F8014B250A20F8025B260E00F8016BF1E7002A1EBF11F8014B00F8014B013AB8
S325180017E0F7D1F1BD90B585B000AF78607B681B68BB60BB6883F3888800BF1A4A7B68936031
S325180018007B6804331B68FB60FB681C46640864002046214622462346B7EE000AF7EE000AE1
S32518001820B7EE001AF7EE001AB7EE002AF7EE002AB7EE003AF7EE003AB7EE004AF7EE004AD2
S32518001840B7EE005AF7EE005AB7EE006AF7EE006AB7EE007AF7EE007A04F08EFA00BF1437CA
S32518001860BD4690BD00ED02E080B400AFBC4B00221A60BB4B00229A60B94BBA4ADA60B84B3E
S32518001880B94A1A61B64B01229A60B54B4FF08042DA60B34BB54A1A61B14B02229A60B04BC6
S325180018A04FF00162DA60AE4BB14A1A61AC4B03229A60AB4BAF4ADA60A94BAF4A1A61BFF366
S325180018C04F8F00BFBFF36F8F00BFA54B01221A60AA4B00221A61A94B00225A61A74B0022DA
S325180018E09A61A64B0022DA61A44B43F233321A63A24B00225A63A14B00229A639F4B002298
S32518001900DA639E4B00221A649C4B00221A659B4B00221A66994B00221A67984B0022C3F88C
S325180019209020964B0022C3F89420944B0022C3F89820924B0022C3F89C20904B0022C3F8C5
S32518001940A0208E4B0022C3F8A4208C4B0022C3F8A8208A4B0022C3F8AC20884B0022C3F885
S32518001960C020864B0022C3F8C420844B0022C3F8C820824B0022C3F8CC20804B0022C3F805
S32518001980D0207E4B0022C3F8D4207C4B0022C3F8D8207A4B0022C3F8DC20784B0022C3F8C5
S325180019A0F020764B0022C3F8F420744B0022C3F8F820724B0022C3F8FC20704B0022C3F845
S325180019C000216E4B0022C3F804216C4B0022C3F808216A4B0022C3F80C21684B0022C3F801
S325180019E01021664B0022C3F81421644B0022C3F81821624B0022C3F81C21604B0022C3F8C1
S32518001A0020215E4B0022C3F824215C4B0022C3F828215A4B0022C3F82C21584B0022C3F880
S32518001A204021564B0022C3F84421544B0022C3F84821524B0022C3F84C21504B0022C3F800
S32518001A4050214E4B0022C3F854214C4B0022C3F858214A4B0022C3F85C21484B0022C3F8C0
S32518001A606021464B0022C3F86421444B0022C3F86821424B0022C3F86C21404B0022C3F880
S32518001A8070213E4B0022C3F874213C4B0022C3F878213A4B0022C3F87C21384B0022C3F840
S32518001AA05022364B0022C3F85422344B0022C3F85822324B0022C3F85C22304B0022C3F8BC
S32518001AC060222E4B0022C3F864222C4B0022C3F868222A4B0022C3F86C22284B0022C3F87C
S32518001AE08022264B0022C3F88422244B0022C3F88822224B0022C3F88C22204B4FF0333235
S32518001B00C3F890221D4B4FF03332C3F894221B4B4FF03332C3F89822184B4FF03332C3F87C
S32518001B209C22164B0022C3F8A022144B0022C3F8A422124B0022C3F8A822104B0022C3F88B
S32518001B40AC220E4B0022C3F8B0220C4B0022C3F8B4220A4B0022C3F8B822084B00220FE017
S32518001B60D0ED00E000003820E1FF3F20E1FF2740E1FF1F0800FE0F18E3FF0F1800801450B3
S32518001B80C3F8BC22C64B0022C3F8D022C44B0022C3F8D422C24B0022C3F8D822C04B0022BB
S32518001BA0C3F8DC22BE4B0022C3F8E022BC4B0022C3F8E422BA4B0022C3F8E822B84B00226B
S32518001BC0C3F8EC22B64B0022C3F8F022B44B0022C3F8F422B24B0022C3F8F822B04B00222B
S32518001BE0C3F8FC22AE4B0022C3F80023AC4B0022C3F80423AA4B0022C3F80823A84B0022E8
S32518001C00C3F80C23A64B0022C3F89021A44B0022C3F89421A24B0022C3F89821A04B00222C
S32518001C20C3F89C219E4B0022C3F8A0219C4B0022C3F8A4219A4B0022C3F8A821984B00226E
S32518001C40C3F8AC21964B0022C3F8B021944B0022C3F8B421924B0022C3F8B821904B00222E
S32518001C60C3F8BC218E4B0022C3F8C0218C4B0022C3F8C4218A4B0022C3F8C821884B0022EE
S32518001C80C3F8CC21864B0022C3F8E021844B0022C3F8E421824B0022C3F8E821804B00227E
S32518001CA0C3F8EC217E4B0022C3F8F0217C4B0022C3F8F4217A4B0022C3F8F821784B00222E
S32518001CC0C3F8FC21764B0022C3F80022744B0022C3F80422724B0022C3F80822704B0022EB
S32518001CE0C3F80C226E4B0022C3F810226C4B0022C3F814226A4B0022C3F81822684B0022AA
S32518001D00C3F81C22664B0022C3F83022644B0022C3F83422624B0022C3F83822604B002239
S32518001D20C3F83C225E4B0022C3F840225C4B0022C3F844225A4B0022C3F84822584B0022E9
S32518001D40C3F84C22564B0022C3F82023544B0022C3F82423524B0022C3F82823504B002236
S32518001D60C3F82C234E4B0022C3F840234C4B0022C3F844234A4B0022C3F84823484B0022F5
S32518001D80C3F84C23464B0022C3F85023444B0022C3F86023424B0022C3F87023404B002281
S32518001DA0C3F880233E4B0022C3F810243C4B6FF00322C3F8A0233A4B6FF04C52C3F8A42380
S32518001DC0374B384AC3F8B023354B4FF0CC32C3F8B423334B344AC3F8B823314B334AC3F8BE
S32518001DE0C0232F4B324AC3F8D0232D4B4FF0CC32C3F8E0232A4B6FF00302C3F8E423284BBD
S32518001E002C4AC3F80024264B294AC3F80424244B294AC3F81024224B4FF0FF32C3F82024DB
S32518001E201F4B264AC3F830241D4B214AC3F834241B4B4FF00042C3F8D02F194B6FF080428F
S32518001E40C3F8D42F164B6FF00602C3F8802F144B4FF0FF32C3F8842F114B4FF0FF32C3F8B0
S32518001E60882F174B0022C3F88022154B0022C3F88422134B0022C3F88822124BDA6849F606
S32518001E80F77313400F4A43F0BF6343F40033D3600C4B1B690B4A23F00803136114E000BFA7
S32518001EA000801450FFFCCFCCCCCCFCCCCCFCCCCCCCCCFCFFFCFFCFCCCFCCFFFFCCCFCCCCD5
S32518001EC000E100E000ED00E0214B5B6A204A23F4002353621E4B40F60342C3F88C204FF042
S32518001EE0E0230022DA601B4BD3F8BC3F23F4403323F03F03174A43F4003343F02A03C2F875
S32518001F00BC3F144BD3F8D03F23F04043114A43F00043C2F8D03F0F4BD3F8D43F23F0404371
S32518001F200C4A43F00043C2F8D43F0A4B0A4AC3F8EC2F084B4AF6A522C3F8FC2F054B4AF69B
S32518001F40A522C3F8F82F00BFBD465DF8047B704700ED00E000801450AA02008080B584B027
S32518001F6000AF78604FF48061786803F02FFCF860FB68B3F5806F09D17A68FB6813441B783F
S32518001F80002B03D0254803F08AFBFEE71A22F968786803F06BF90346002B03D1204803F0E4
S32518001FA07EFBFEE7786803F07AFB00BF1037BD46BDE880407046714672467346B7EE000A62
S32518001FC0F7EE000AB7EE001AF7EE001AB7EE002AF7EE002AB7EE003AF7EE003AB7EE004A6B
S32518001FE0F7EE004AB7EE005AF7EE005AB7EE006AF7EE006AB7EE007AF7EE007A8EF3008C6D
S3251800200010B4F1EE10CA4FF66074C0F6FF740CEA040CE1EE10CA10BCF4467447405E0018BD
S32518002020745E001890B589B000AFF860B9607A60FB6823F00103FB6112220421F86903F09D
S3251800204015F90346002B03D14F4803F028FBFEE74FF48061B86803F0B9FBB861BB69B3F5AA
S32518002060806F09D1BA68BB6913441B78002B03D0464803F014FBFEE74FF48061786803F0DF
S32518002080A5FBB861BB69B3F5806F09D17A68BB6913441B78002B03D03D4803F000FBFEE78E
S325180020A03C4803F0FCFA3C4803F0F9FAB86803F0F6FA3A4803F0F3FA786803F0F0FAFB69A5
S325180020C07968B8681C466408640022462346B7EE000AF7EE000AB7EE001AF7EE001AB7EEDD
S325180020E0002AF7EE002AB7EE003AF7EE003AB7EE004AF7EE004AB7EE005AF7EE005AB7EE8A
S32518002100006AF7EE006AB7EE007AF7EE007A03F033FE78617B6918462437BD46BDE8904058
S32518002120714672467346B7EE000AF7EE000AB7EE001AF7EE001AB7EE002AF7EE002AB7EE7A
S32518002140003AF7EE003AB7EE004AF7EE004AB7EE005AF7EE005AB7EE006AF7EE006AB7EEA9
S32518002160007AF7EE007A8EF3008C10B4F1EE10CA4FF66074C0F6FF740CEA040CE1EE10CAED
S3251800218010BCF446744700BFA05E0018D05E0018085F0018405F0018785F0018845F001825
S325180021A080B500AF03F048F802F0C0FF02F082FF054803F074FA054803F071FA4FF00160CD
S325180021C0FFF710FBFEE700BF905F0018AC5F001880B400AF0A4BD3F86831002B09D0084B1F
S325180021E0D3F86831012B02D1064B1B6803E0002301E0054B1B681846BD465DF8047B7047E4
S32518002200001000504C1834304818343080B400AF024B1846BD465DF8047B704740420F0007
S3251800222080B400AF074BD3F8C03103F00103002B02D04FF4004300E000231846BD465DF85C
S32518002240047B70470010005080B487B000AF78600023FB7500233B6131E03A691346DB009E
S325180022609B1A5B001A467B68D340BB607B68002B0ADABB689A0041F6FC73134003F1A04340
S3251800228003F50433FB6009E0BB689A0041F6FC73134003F1A04303F58053FB60BB68C3F321
S325180022A00A03002B06D0BB68DB0A03F00702FB681A6001E00123FB753B6901333B613B6984
S325180022C0012B05D8FB7D83F00103DBB2002BC4D17B6803F08043002B06D07B681B0F054AA5
S325180022E003F00303C2F8083100BF1C37BD465DF8047B7047001000502DE9B04F86B000AFDA
S3251800230000237B613D4BD3F8003203F00703002B02D0012B2AD02DE0384BD3F880309BB2A3
S32518002320002B17D0354BD3F884309BB203F10043033B324AD2F86821002A04D02F4AD2F89C
S325180023406821002201E041F2E46202FB03F323F0604309E0294BD3F8903003F03F032F2B3A
S3251800236001D1274B00E0274B7B6109E0FFF730FF786105E0244B254A8A212548FEF760FFB7
S325180023801E4BD3F8043203F00103002B2FD17B6900229A469346194BD3F810320022984663
S325180023A0914608FB0BF20AFB09F31344AAFB08452B441D46114BD3F8143200223B607A6008
S325180023C0D7E900232046294602F0C2FF02460B46C7E90223094BD3F804321B0CDAB27B691A
S325180023E002FB03F37B61BB687A6913447B617B6918461837BD46BDE8B08F00BF0010005020
S32518002400001BB70000366E01C85F00189C620018DC5F00182DE9B04FA6B000AF034687F89D
S325180024208F30FFF769FFC7F89400884BD3F8043203F00103002B40F0018197F88F30032BEA
S3251800244000F2F88001A252F823F000BF5D240018DB2400184F250018C3250018D7F8943066
S325180024600022C7F88030C7F88420D7E9204522462B464FF000004FF00001D90041EA527106
S32518002480D00002460B46214651183962294643EB01017962D7E908120B46DB18BB6113463D
S325180024A042EB0303FB61D7E9063418462146674BD3F818320022BB67FA67BB6F03F03F03E5
S325180024C03B6700237B67D7E91C2302F041FF02460B461346C7F89430B0E0D7F8943000224C
S325180024E0BB66FA66D7E91A4522462B464FF000004FF00001D90041EA5271D00002460B4696
S32518002500214612EB010A294643EB010B1AEB0A033B614BEB0B037B61D7E904AB5046594613
S325180025204A4BD3F818321B0A00223B667A663B6E03F03F03BB650023FB65D7E9162302F09F
S3251800254007FF02460B461346C7F8943076E0D7F8943000223B657A65D7E9144522462B4666
S325180025604FF000004FF00001D90041EA5271D00002460B46214612EB0108294643EB01097A
S3251800258018EB0803BB6049EB0903FB60D7E90289404649462D4BD3F818321B0C0022BB6404
S325180025A0FA64BB6C03F03F033B6400237B64D7E9102302F0CDFE02460B461346C7F894307D
S325180025C03CE0D7F894300022BB63FA63D7E90E8942464B464FF000004FF00001D90041EA9E
S325180025E05271D00002460B4641465418494643EB01010D4623193B6045EB05037B60D7E9E2
S32518002600004520462946114BD3F818321B0E00223B637A633B6B03F03F03BB620023FB62D3
S32518002620D7E90A2302F094FE02460B461346C7F8943003E00023C7F8943000BFD7F89430BB
S3251800264018469837BD46BDE8B08F00BF0010005080B500AF0020FFF7DDFE0246044BD3F8F2
S325180026604032DBB20133B2FBF3F3184680BD00BF001000502DE9B04F86B000AF00237B61C3
S325180026803B4BD3F8003203F00703002B02D0012B2AD02DE0374BD3F880309BB2002B17D010
S325180026A0344BD3F884309BB203F10043033B314AD2F86821002A04D02E4AD2F86821002283
S325180026C001E041F2E46202FB03F323F0604309E0284BD3F8903003F03F032F2B01D1264B20
S325180026E000E0264B7B6106E0FFF772FD786102E000237B6100BF1E4BD3F8043203F001036A
S32518002700002B2FD17B6900229A469346184BD3F8103200229846914608FB0BF20AFB09F369
S325180027201344AAFB08452B441D46114BD3F8143200223B607A60D7E900232046294602F0B2
S3251800274007FE02460B46C7E90223094BD3F804321B0CDAB27B6902FB03F37B61BB687A6927
S3251800276013447B617B6918461837BD46BDE8B08F0010025000100050001BB70000366E0157
S325180027802DE9B04FA6B000AF034687F88F30FFF771FFC7F89400884BD3F8043203F00103F6
S325180027A0002B40F0018197F88F30032B00F2F88001A252F823F000BFC927001847280018EA
S325180027C0BB2800182F290018D7F894300022C7F88030C7F88420D7E9204522462B464FF0AC
S325180027E000004FF00001D90041EA5271D00002460B46214651183962294643EB0101796266
S32518002800D7E908120B46DB18BB61134642EB0303FB61D7E9063418462146674BD3F81832F2
S325180028200022BB67FA67BB6F03F03F033B6700237B67D7E91C2302F08BFD02460B46134664
S32518002840C7F89430B0E0D7F894300022BB66FA66D7E91A4522462B464FF000004FF000019A
S32518002860D90041EA5271D00002460B46214612EB010A294643EB010B1AEB0A033B614BEB0E
S325180028800B037B61D7E904AB504659464A4BD3F818321B0A00223B667A663B6E03F03F033C
S325180028A0BB650023FB65D7E9162302F051FD02460B461346C7F8943076E0D7F8943000229E
S325180028C03B657A65D7E9144522462B464FF000004FF00001D90041EA5271D00002460B46BA
S325180028E0214612EB0108294643EB010918EB0803BB6049EB0903FB60D7E902894046494682
S325180029002D4BD3F818321B0C0022BB64FA64BB6C03F03F033B6400237B64D7E9102302F064
S3251800292017FD02460B461346C7F894303CE0D7F894300022BB63FA63D7E90E8942464B4634
S325180029404FF000004FF00001D90041EA5271D00002460B4641465418494643EB01010D46A5
S3251800296023193B6045EB05037B60D7E9004520462946114BD3F818321B0E00223B637A633E
S325180029803B6B03F03F03BB620023FB62D7E90A2302F0DEFC02460B461346C7F8943003E090
S325180029A00023C7F8943000BFD7F8943018469837BD46BDE8B08F00BF0010025080B500AFE8
S325180029C00020FFF7DDFE0246044BD3F84032DBB20133B2FBF3F3184680BD00BF0010025004
S325180029E080B483B000AF00237B60624BD3F8083103F00303032B00F2B38001A252F823F0A8
S32518002A00112A0018652A0018B92A00180D2B0018584BD3F880309BB2002B17D0554BD3F86B
S32518002A2084309BB203F10043033B524AD2F86821002A04D04F4AD2F86821002201E041F2F3
S32518002A40E46202FB03F3DB005B0809E0494BD3F8903003F03F032F2B01D1474B00E0474B74
S32518002A607B6080E0434BD3F880309BB2002B17D0404BD3F884309BB203F10043033B3D4A42
S32518002A80D2F86821002A04D03A4AD2F86821002201E041F2E46202FB03F3DB009B0809E01A
S32518002AA0344BD3F8903003F03F032F2B01D1344B00E0314B7B6056E02E4BD3F880309BB260
S32518002AC0002B17D02B4BD3F884309BB203F10043033B284AD2F86821002A04D0254AD2F813
S32518002AE06821002201E041F2E46202FB03F323F0604309E01F4BD3F8903003F03F032F2B9D
S32518002B0001D1204B00E01E4B7B602CE0194BD3F880309BB2002B17D0164BD3F884309BB2BF
S32518002B2003F10043033B134AD2F86821002A04D0104AD2F86821002201E041F2E46202FB2E
S32518002B4003F3DB001B0909E00A4BD3F8903003F03F032F2B01D10C4B00E00A4B7B6002E0EF
S32518002B6000237B6000BF7B6818460C37BD465DF8047B704700100050006CDC0200D8B80529
S32518002B8000366E01001BB700808D5B0080B582B000AF00237B60354BD3F8343403F0030378
S32518002BA0022B56D0022B58D8002B02D0012B4CD053E02E4BD3F8303403F00303032B40D8E8
S32518002BC001A252F823F000BFD92B0018E12B0018E92B0018F12B0018FFF718FB786033E084
S32518002BE0FFF7FEFE78602FE0FFF7F2FA78602BE01E4BD3F880309BB2002B16D01B4BD3F8A6
S32518002C0084309BB203F10043033B184AD2F86821002A04D0154AD2F86821002201E041F285
S32518002C20E46202FB03F3DB0009E0104BD3F8903003F03F032F2B01D10D4B00E00D4B7B60C7
S32518002C4002E000237B6000BF0AE0FFF701FD786006E0FFF7E5FA786002E000237B6000BFCF
S32518002C607B6818460837BD4680BD00BF0010005000D8B80500B0710B2DE9B04F8CB000AF96
S32518002C8078610023FB620123FB610023BB6200237B6200233B627B69112B06D9584B594AF8
S32518002CA040F223215848FEF7CBFA7B69112B11D1564BD3F8203703F00703BB62534BD3F8DE
S32518002CC024371B0ADBB23B62504BD3F82437DBB27B621BE04D4A7B6928335B0113441B68FA
S32518002CE003F00703BB62494A7B6928335B01134404331B681B0ADBB23B62444A7B69283341
S32518002D005B01134404331B68DBB27B62BB6A022B1BD0BB6A022B42D8BB6A002B03D0BB6ACD
S32518002D20012B04D03BE0FFF731FFF8623AE0374BD3F86037DBB20133FB61FFF789FC0246FC
S32518002D40FB69B2FBF3F3FB622CE0314BD3F880309BB2002B17D02E4BD3F884309BB203F166
S32518002D600043033B2A4AD2F86821002A04D0284AD2F86821002201E041F2E46202FB03F3BB
S32518002D80DB009B0809E0224BD3F8903003F03F032F2B01D11F4B00E01F4BFB6202E000233F
S32518002DA0FB6200BFFB6A00229A4693467B6A0022BB60FA60D7E902120B465C1C134643F1F3
S32518002DC0000504FB0BF20AFB05F31344AAFB04894B4499463A6A7B6A1344013300223B600F
S32518002DE07A60D7E900234046494602F0B1FA02460B46134618463037BD46BDE8B08F00BFE9
S32518002E00E85F0018B0620018DC5F0018001002500010005000366E01006CDC0280B584B09E
S32518002E2000AF78600023FB600023BB607B68102B06D92F4B2F4A40F253212F48FEF700FA35
S32518002E402E4A7B685B01134403F5A1631B68BB60BB6803F00703032B41D801A252F823F045
S32518002E60712E0018C52E0018CD2E0018D52E0018234BD3F880309BB2002B17D0204BD3F8C6
S32518002E8084309BB203F10043033B1D4AD2F86821002A04D01A4AD2F86821002201E041F2F9
S32518002EA0E46202FB03F3DB009B0809E0144BD3F8903003F03F032F2B01D1124B00E0124B6F
S32518002EC0FB600FE0FFF77AFDF8600BE00F4B1B68FB6007E07868FFF7CFFEF86002E00023BB
S32518002EE0FB6000BFFB6818461037BD4680BD00BFF45F0018C4620018DC5F00180010025035
S32518002F000010005000366E01006CDC025018343080B584B000AF78607B681B78FB60FB6854
S32518002F20112B06D9204B214A40F244512048FEF787F97B689B78FF2B06D01E4B1B4A40F2E8
S32518002F4045511B48FEF77CF9FB68112B10D17B685A78194BC3F820277B68DB781B029BB2B5
S32518002F607A6892781146144A0B43C2F8243716E07B685B78104A1946FB6828335B01134459
S32518002F8019607B68DB781B029BB27A6892780A491A43FB6828335B010B4404331A6000BF85
S32518002FA01037BD4680BD00BF00600018E0620018DC5F00180C6000180010025080B582B03B
S32518002FC000AF78605F4B4FF4C022C3F820267B681A785D4BC3F800225B4A7B685B68C2F87D
S32518002FE01032594A7B689B68C2F814327B681B7B062B5ED801A252F823F000BF19300018E8
S325180030002F300018453000185B30001871300018873000189D3000184B4BD3F8043223F4D0
S325180030207F03494A43F48013C2F8043248E0464BD3F8043223F47F03434A43F48813C2F837
S3251800304004323DE0404BD3F8043223F47F033E4A43F49013C2F8043232E03B4BD3F80432EF
S3251800306023F47F03384A43F49813C2F8043227E0354BD3F8043223F47F03334A43F4A013BD
S32518003080C2F804321CE0304BD3F8043223F47F032D4A43F4A813C2F8043211E02A4BD3F887
S325180030A0043223F47F03284A43F4B013C2F8043206E0264B264A40F27E512648FEF7C0F8E4
S325180030C0214BD3F80432204A23F00203C2F804321C4B4FF4C022C3F830261B4BD3F80C32E7
S325180030E09BB25B081C49184600F0FCF9164BD3F80432154A43F40053C2F80432124BD3F8F7
S325180031000C329BB2154AA2FB03239B081249184600F0E8F90C4BD3F804320B4A23F40053A0
S32518003120C2F80432084BD3F80C329BB20B4AA2FB03235B080849184600F0D4F900BF0837F3
S32518003140BD4680BD0020005000100050C85F0018F4620018DC5F0018803DCD0BABAAAAAA03
S3251800316080B485B000AF03460A46FB711346BB71FB79FB601E4BD3F81822FB68DB00BF2134
S3251800318001FA03F3DB431340BB60FB68DB0080229A401749BB681343C1F81832BB7903F0D7
S325180031A03F02FB68DB009A401149BB681343C1F8183200BF0E4BD3F81822FB68DB00402106
S325180031C001FA03F31340002BF4D0094BD3F81822FB68DB00402101FA03F305491343C1F858
S325180031E0183200BF1437BD465DF8047B704700BF0010005080B582B000AF78605F4B4FF4D5
S32518003200C012C3F820267B681A785D4BC3F800225B4A7B685B68C2F81032594A7B689B68F3
S32518003220C2F814327B681B7B062B5ED801A252F823F000BF51320018673200187D320018BE
S3251800324093320018A9320018BF320018D53200184B4BD3F8043223F47F03494A43F48013CB
S32518003260C2F8043248E0464BD3F8043223F47F03434A43F48813C2F804323DE0404BD3F82B
S32518003280043223F47F033E4A43F49013C2F8043232E03B4BD3F8043223F47F03384A43F404
S325180032A09813C2F8043227E0354BD3F8043223F47F03334A43F4A013C2F804321CE0304B66
S325180032C0D3F8043223F47F032D4A43F4A813C2F8043211E02A4BD3F8043223F47F03284A6B
S325180032E043F4B013C2F8043206E0264B264A40F2D9512648FDF7A4FF214BD3F80432204AC7
S3251800330023F00203C2F804321C4B4FF4C012C3F830261B4BD3F80C329BB25B081C49184618
S3251800332000F0E0F8164BD3F80432154A43F40053C2F80432124BD3F80C329BB2154AA2FBBD
S3251800334003239B081249184600F0CCF80C4BD3F804320B4A23F40053C2F80432084BD3F8F4
S325180033600C329BB20B4AA2FB03235B080849184600F0B8F800BF0837BD4680BD002000502C
S3251800338000100250C85F001808630018DC5F0018803DCD0BABAAAAAA80B485B000AF0346F9
S325180033A00A46FB711346BB71FB79FB601E4BD3F81822FB68DB00BF2101FA03F3DB431340F1
S325180033C0BB60FB68DB0080229A401749BB681343C1F81832BB7903F03F02FB68DB009A409E
S325180033E01149BB681343C1F8183200BF0E4BD3F81822FB68DB00402101FA03F31340002BAE
S32518003400F4D0094BD3F81822FB68DB00402101FA03F305491343C1F8183200BF1437BD462D
S325180034205DF8047B704700BF0010025080B584B000AF03463A60FB710B46BB71BB79002B7F
S3251800344001D0012300E00023FB60FB79002B0CD00B4AFB68C2F86031094B0022C3F86821C3
S325180034600849386800F03EF805E0054AFB6843F00203C2F8603100BF1037BD4680BD00BFF8
S3251800348000100050803DCD0B80B483B000AF78607B68002B07D000BF094BD3F80C3103F038
S325180034A00103002BF8D0064A7B6803F01F03C2F8103100BF0C37BD465DF8047B704700BF65
S325180034C00010005080B400AF00BF054BD3F89031002BFADA00BF00BFBD465DF8047B7047E5
S325180034E0001000502DE9B04384B000AF786039607968002935D079680020884681463968AB
S3251800350000200A46034602FB09F008FB03F10144A8FB02454B191D46144A4FF000032046EB
S32518003520294601F015FF02460B46C7E90223D7E90223012B05D30E4B0E4AD5210E48FDF7B1
S325180035407FFED7E902014FF000024FF00003820842EA81728B08C7E90223BB68184602F006
S32518003560D7FA00BF1037BD46BDE8B08340420F00786000181C6300186460001880B584B01E
S3251800358000AF0346FB80FB881B0A9BB2FB60FB68052B3FD801A252F823F000BFB5350018DF
S325180035A0C5350018D5350018E5350018F535001805360018FB88DBB21C4A012101FA03F369
S325180035C013642EE0FB88DBB2184A012101FA03F3536426E0FB88DBB2144A012101FA03F385
S325180035E093641EE0FB88DBB2114A012101FA03F3136416E0FB88DBB20D4A012101FA03F353
S3251800360053640EE0FB88DBB2094A012101FA03F3936406E0074B084A40F263410748FDF7D7
S325180036200FFE00BF1037BD4680BD00BF0010005000100250C85F0018D4630018D05F0018C3
S3251800364080B584B000AF78600023FB6009E00E4AFB6852F823207B689A4206D0FB68013381
S32518003660FB60FB68102BF2D900E000BFFB68102B05D9064B064A5F210648FDF7E1FDFB68A9
S3251800368018461037BD4680BD306300188C600018BC630018BC60001880B584B000AF78601D
S325180036A00B46FB707868FFF7CBFFF8600C4AFB6832F813301846FFF761FF0A4AFB6832F87D
S325180036C01330184602F0E8FAFB7800221946786802F060FA034618461037BD4680BD00BF4A
S325180036E0746300189863001880B582B000AF1148FFF7A6FF7860104A7B6852F82330002BC3
S3251800370005D10E4B0E4AAC210E48FDF799FD0A4A7B6852F823300C497A6851F8222010466B
S325180037200A497A6851F822201146984700BF0837BD4680BD0060105054183430CC60001863
S32518003740E8630018BC600018306300189818343080B582B000AF1148FFF772FF7860104AED
S325180037607B6852F82330002B05D10E4B0E4ABA210E48FDF765FD0A4A7B6852F823300C4949
S325180037807A6851F8222010460A497A6851F822201146984700BF0837BD4680BD0070105044
S325180037A054183430CC60001804640018BC600018306300189818343080B582B000AF1148F5
S325180037C0FFF73EFF7860104A7B6852F82330002B05D10E4B0E4AC8210E48FDF731FD0A4A7F
S325180037E07B6852F823300C497A6851F8222010460A497A6851F822201146984700BF08371F
S32518003800BD4680BD0080105054183430CC60001820640018BC6000183063001898183430C7
S3251800382080B582B000AF1148FFF70AFF7860104A7B6852F82330002B05D10E4B0E4AD621A1
S325180038400E48FDF7FDFC0A4A7B6852F823300C497A6851F8222010460A497A6851F822205B
S325180038601146984700BF0837BD4680BD0090105054183430CC6000183C640018BC600018C6
S32518003880306300189818343080B582B000AF1148FFF7D6FE7860104A7B6852F82330002B35
S325180038A005D10E4B0E4AE4210E48FDF7C9FC0A4A7B6852F823300C497A6851F82220104663
S325180038C00A497A6851F822201146984700BF0837BD4680BD0020125054183430CC60001800
S325180038E058640018BC600018306300189818343080B582B000AF1148FFF7A2FE7860104AAC
S325180039007B6852F82330002B05D10E4B0E4AF3210E48FDF795FC0A4A7B6852F823300C493F
S325180039207A6851F8222010460A497A6851F822201146984700BF0837BD4680BD00301250E0
S3251800394054183430CC60001874640018BC600018306300189818343080B582B000AF1248E2
S32518003960FFF76EFE7860114A7B6852F82330002B06D10F4B0F4A40F201110F48FDF760FC74
S325180039800A4A7B6852F823300C497A6851F8222010460B497A6851F822201146984700BF67
S325180039A00837BD4680BD00BF0040125054183430CC60001890640018BC600018306300180A
S325180039C09818343080B582B000AF1248FFF738FE7860114A7B6852F82330002B06D10F4B0A
S325180039E00F4A40F20F110F48FDF72AFC0A4A7B6852F823300C497A6851F8222010460B494D
S32518003A007A6851F822201146984700BF0837BD4680BD00BF0050125054183430CC60001822
S32518003A20AC640018BC600018306300189818343080B582B000AF1248FFF702FE7860114AB4
S32518003A407B6852F82330002B06D10F4B0F4A40F21D110F48FDF7F4FB0A4A7B6852F82330A5
S32518003A600C497A6851F8222010460B497A6851F822201146984700BF0837BD4680BD00BF1C
S32518003A800090205054183430CC600018C8640018BC600018306300189818343080B582B056
S32518003AA000AF1248FFF7CCFD7860114A7B6852F82330002B06D10F4B0F4A40F22B110F48F3
S32518003AC0FDF7BEFB0A4A7B6852F823300C497A6851F8222010460B497A6851F82220114617
S32518003AE0984700BF0837BD4680BD00BF00A0205054183430CC600018E4640018BC60001814
S32518003B00306300189818343080B582B000AF1248FFF796FD7860114A7B6852F82330002BF1
S32518003B2006D10F4B0F4A40F239110F48FDF788FB0A4A7B6852F823300C497A6851F82220FD
S32518003B4010460B497A6851F822201146984700BF0837BD4680BD00BF00B02050541834300D
S32518003B60CC60001800650018BC600018306300189818343080B582B000AF1248FFF760FDB0
S32518003B807860114A7B6852F82330002B06D10F4B0F4A40F247110F48FDF752FB0A4A7B6846
S32518003BA052F823300C497A6851F8222010460B497A6851F822201146984700BF0837BD463A
S32518003BC080BD00BF00C0205054183430CC6000181C650018BC6000183063001898183430FB
S32518003BE080B582B000AF1248FFF72AFD7860114A7B6852F82330002B06D10F4B0F4A40F280
S32518003C0055110F48FDF71CFB0A4A7B6852F823300C497A6851F8222010460B497A6851F853
S32518003C2022201146984700BF0837BD4680BD00BF00D0205054183430CC60001838650018E8
S32518003C40BC600018306300189818343080B582B000AF1248FFF7F4FC7860114A7B6852F89D
S32518003C602330002B06D10F4B0F4A40F263110F48FDF7E6FA0A4A7B6852F823300C497A6842
S32518003C8051F8222010460B497A6851F822201146984700BF0837BD4680BD00BF00E02050E1
S32518003CA054183430CC60001854650018BC600018306300189818343080B582B000AF12489E
S32518003CC0FFF7BEFC7860114A7B6852F82330002B06D10F4B0F4A40F271110F48FDF7B0FA05
S32518003CE00A4A7B6852F823300C497A6851F8222010460B497A6851F822201146984700BF04
S32518003D000837BD4680BD00BF0060125054183430CC60001870650018BC60001830630018A5
S32518003D209818343080B582B000AF1248FFF788FC7860114A7B6852F82330002B06D10F4B58
S32518003D400F4A40F27F110F48FDF77AFA0A4A7B6852F823300C497A6851F8222010460B492B
S32518003D607A6851F822201146984700BF0837BD4680BD00BF0070125054183430CC6000189F
S32518003D808C650018BC600018306300189818343080B582B000AF1248FFF752FC7860114A22
S32518003DA07B6852F82330002B06D10F4B0F4A40F28D110F48FDF744FA0A4A7B6852F8233083
S32518003DC00C497A6851F8222010460B497A6851F822201146984700BF0837BD4680BD00BFB9
S32518003DE00080125054183430CC600018A8650018BC600018306300189818343080B500AFB3
S32518003E000B4B1B68002B06D00A4B1B68084A1268114609489847064B5B68002B06D0054B1A
S32518003E201B68034A526811460448984700BF80BDDC183430E41834300040135000C01350DE
S32518003E4080B483B000AF0346FB7197F90730002B0BDBFB7903F01F02074997F907305B099E
S32518003E60012000FA02F241F8232000BF0C37BD465DF8047B704700BF00E100E080B483B022
S32518003E8000AF0346FB7197F90730002B0DDB0A4A97F907305B0952F82320FB7903F01F0331
S32518003EA022FA03F303F0010300E0002318460C37BD465DF8047B704700E100E080B483B081
S32518003EC000AF0346FB7197F90730002B12DBFB7903F01F020A4997F907305B09012000FA60
S32518003EE002F2203341F82320BFF34F8F00BFBFF36F8F00BF00BF0C37BD465DF8047B704793
S32518003F0000E100E080B483B000AF0346FB7197F90730002B0CDBFB7903F01F02074997F9B6
S32518003F2007305B09012000FA02F2603341F8232000BF0C37BD465DF8047B704700E100E059
S32518003F4080B400AF054B1B69044A43F00403136100BFBD465DF8047B704700BF00ED00E0B7
S32518003F6080B483B000AF7860044A7B68136000BF0C37BD465DF8047B704700BFE8173430DF
S32518003F8080B483B000AF78607B6840F21B12934205D10B4BDB680A4A23F48023D3607B686B
S32518003FA0DAB27B681B0A9900064B0B441946012393400B6000BF0C37BD465DF8047B7047C5
S32518003FC0005013503026005080B400AF124BDB68114A23F00203D36000BF0F4B5B6803F072
S32518003FE00103002BF9D10C4BDB680B4A43F00103D36000BF084B5B6803F00103002BF9D190
S32518004000054BDB68044A43F00203D36000BFBD465DF8047B704700BF0050135080B584B00E
S3251800402000AF786001F0F0FDF860FFF789FF314BD3F800267B681B68DB4323F0A84323F025
S325180040402E032C491343C1F800362A4BD3F804267B6804331B68D943274B0B4025491343B3
S32518004060C1F80436234BD3F808267B6808331B68DB4320491343C1F808361E4BD3F80C26ED
S325180040807B680C331B68DB431A491343C1F80C36184BD3F80036174A43F00803C2F8003698
S325180040A0164B1B68002B02D0144B1B6800E07323134A93627B681B685B0803F00303BB607A
S325180040C0BB68002B05D14FF4C061022001F0BDFD04E04FF4C061B86801F0B7FD084B084ABB
S325180040E09B68936030BFF86801F09FFD00BF1037BD4680BD00200050FEEF3FDEF81734309D
S325180041000050135080B483B000AF0346FB71044AFB79137000BF0C37BD465DF8047B70472E
S32518004120F417343080B586B000AF0346FB80FB881B0A9BB27B61FB88DBB23B6101223B69D0
S3251800414002FA03F3FB603B691F2B05D9324B334A2E213348FDF774F87B69052B56D801A21F
S3251800416052F823F07D41001897410018B1410018CB410018E1410018F74100184FF0A04225
S32518004180FB68136400BF4FF0A0431A69FB681340002BF8D03BE04FF0A042FB68536400BF05
S325180041A04FF0A0435A69FB681340002BF8D02EE04FF0A042FB68936400BF4FF0A0439A69E6
S325180041C0FB681340002BF8D021E0164AFB68136400BF144B1A69FB681340002BF9D016E09C
S325180041E0104AFB68536400BF0E4B5A69FB681340002BF9D00BE00B4AFB68936400BF094BFB
S325180042009A69FB681340002BF9D000E000BF00BF1837BD4680BD00BFF4600018C46500187A
S32518004220046100180000025080B586B000AF0346FB80FB881B0A9BB27B61FB88DBB23B6136
S3251800424001223B6902FA03F3FB603B691F2B05D9354B364A6A213648FCF7F2FF7B69052B5F
S325180042605CD801A252F823F0814200189D420018B9420018D5420018ED4200180543001831
S325180042804FF0A042FB68136700BF4FF0A0431A69FB681340FA689A42F7D040E04FF0A042A2
S325180042A0FB68536700BF4FF0A0435A69FB681340FA689A42F7D032E04FF0A042FB689367D4
S325180042C000BF4FF0A0439A69FB681340FA689A42F7D024E0174AFB68136700BF154B1A693D
S325180042E0FB681340FA689A42F8D018E0114AFB68536700BF0F4B5A69FB681340FA689A42A4
S32518004300F8D00CE00B4AFB68936700BF094B9A69FB681340FA689A42F8D000E000BF00BFE9
S325180043201837BD4680BD00BFF4600018E0650018046100180000025080B586B000AFF86007
