S325000001001111111111111111111111111111111111111111111111111111111111111111B9
S32500000120111111111111111111111111111111111111111111111111111111111111111199
S32500000140111111111111111111111111111111111111111111111111111111111111111179
S309000001601111111151
S32500000400222222222222222222222222222222222222222222222222222222222222222296
S32500000420222222222222222222222222222222222222222222222222222222222222222276
S32500000440222222222222222222222222222222222222222222222222222222222222222256
S30900000460222222220A
S5030008F4
