S0130000666C6173686C6F616465722E737265638C
S31520002000785E2120F94C01207B2400201D30012000
S315200020107B2400207B2400207B240020000000005D
S315200020200000000000000000000000007B240020CB
S315200020307B240020000000007B2400207B2400203D
S31520002040214D0120294D0120314D0120394D0120FE
S31520002050414D0120494D0120514D0120594D01206E
S31520002060614D0120694D0120714D0120794D0120DE
S31520002070814D0120894D0120914D0120994D01204E
S31520002080A14D01203F5F01203F5F01203F5F0120DE
S31520002090EF460120A94D0120B14D0120B94D012067
S315200020A0C14D0120C94D0120D14D0120D94D01201E
S315200020B0E14D0120E94D0120F14D0120F94D01208E
S315200020C0014E0120094E0120114E0120194E0120FA
S315200020D0214E0120294E01203F5F01203F5F012034
S315200020E03F5F01203F5F01203F5F01203F5F0120CE
S315200020F03F5F01203F5F01203F5F01203F5F0120BE
S315200021003F5F01203F5F01203F5F01203F5F0120AD
S315200021103F5F01203F5F01203F5F01203F5F01209D
S31520002120314E0120394E0120414E0120494E0120D9
S31520002130514E01203F5F01203F5F01203F5F01207C
S315200021403F5F01203F5F01203F5F01203F5F01206D
S315200021503F5F01203F5F01203F5F01203F5F01205D
S315200021603F5F01203F5F01203F5F01203F5F01204D
S315200021703F5F01203F5F01203F5F01203F5F01203D
S31520002180D32900203F5F01203F5F01203F5F0120D0
S315200021903F5F01203F5F01203F5F01203F5F01201D
S315200021A03F5F01203F5F0120594E0120614E0120F3
S315200021B03F5F01203F5F01203F5F01203F5F0120FD
S315200021C03F5F01203F5F01203F5F01203F5F0120ED
S315200021D03F5F01203F5F01203F5F01203F5F0120DD
S315200021E03F5F01203F5F01203F5F0120694E0120B4
S315200021F0714E01203F5F0120794E0120814E012042
S315200022003F5F01204D5E0120894E0120914E012025
S315200022103F5F01203F5F01203F5F01203F5F01209C
S315200022203F5F01203F5F01203F5F01203F5F01208C
S315200022303F5F01203F5F01203F5F01203F5F01207C
S315200022403F5F01203F5F01203F5F01203F5F01206C
S315200022503F5F01203F5F01203F5F01203F5F01205C
S315200022603F5F01203F5F01203F5F01203F5F01204C
S315200022703F5F01203F5F01203F5F01203F5F01203C
S315200022803F5F01203F5F01203F5F01203F5F01202C
S315200022903F5F01203F5F01203F5F01203F5F01201C
S315200022A0994E0120A14E0120A94E01203F5F012019
S315200022B03F5F01203F5F01203F5F01203F5F0120FC
S315200022C03F5F01203F5F01203F5F01203F5F0120EC
S315200022D03F5F01203F5F01203F5F01203F5F0120DC
S315200022E03F5F01203F5F01203F5F01203F5F0120CC
S315200022F03F5F01203F5F01203F5F01203F5F0120BC
S315200023003F5F01203F5F01203F5F01203F5F0120AB
S315200023103F5F01203F5F01203F5F01203F5F01209B
S315200023203F5F01203F5F01203F5F01203F5F01208B
S315200023303F5F01203F5F01203F5F01203F5F01207B
S315200023403F5F01203F5F01203F5F01203F5F01206B
S315200023503F5F01203F5F01203F5F01203F5F01205B
S315200023603F5F01203F5F01203F5F01203F5F01204B
S315200023703F5F01203F5F01203F5F01203F5F01203B
S315200023803F5F01203F5F01203F5F01203F5F01202B
S315200023903F5F01203F5F01203F5F01203F5F01201B
S315200023A03F5F01203F5F01203F5F01203F5F01200B
S315200023B03F5F01203F5F01203F5F01203F5F0120FB
S315200023C03F5F01203F5F01203F5F01203F5F0120EB
S315200023D03F5F01203F5F01203F5F01203F5F0120DB
S315200023E03F5F01203F5F01203F5F01203F5F0120CB
S315200023F03F5F01203F5F01203F5F0120FFFFFFFF7E
S31520002400002A01D101207047F0B41F460346032459
S315200024102340002B09D00424E31A0170013008243C
S31520002420E141521E26D05B1EF7D1042A1ADB13D0B7
S31520002430002F11D00C460D460E46102A02DB72C024
S31520002440103AFAE70C2A02DB32C00C3AFAE7082ADD
S3152000245002DB12C0083AFAE7042A03DB01600430E3
S31520002460121FF9E7002A05D0017001300824E14146
S31520002470521EF7D1F0BC00207047FEE747310020FE
S31520002480000000009931002000000000D732002013
S315200024907134002063320020773300204F3500202E
S315200024A0000000000000000000000000D1310020E4
S315200024B000000000A9310020773300206F3500206E
S315200024C000000000CD35002000000000FB30002079
S315200024D00000000001320020000000000000000083
S315200024E000000000F9350020000000002136002001
S315200024F0000000000000000000000000173200204D
S315200025000000000000000000000000007D320020D6
S315200025106133002000000000195F0120235F0120A5
S315200025202D5F0120000000000000000009000000CF
S31520002530E73D002001010000EF45002008000000D3
S31520002540EF4E00200001000013560020100100006D
S31520002550F55D0020200100000F6B00202101000006
S315200025607B6500200000000000000000B33800203A
S31520002570DD3A0020F53A0020753B0020293C00205A
S31520002580313D0020114601208D460120A94601201B
S315200025900000000000000000DD46012099730020A5
S315200025A0FD700020557100203B72002077720020BC
S315200025B087720020D5710020B3610020956300202A
S315200025C02F640020F764002031620020D9640020A7
S315200025D0EB6400200D800020B1AF0020BDAF0020AD
S315200025E0CDAF002000000000000000000100000028
S315200025F0010000006D29002084250020942500205C
S3152000260098260020100000000100000000000000B5
S31520002610EC26002000000000FC2600200000000020
S315200026200000000000000000000000000000000084
S3152000263000000000394701205547012005480120A8
S31520002640C348012054B42020F967002037690020B0
S31520002650D1690020996A0020416800207B6A002009
S315200026608D6A0020814F0020F1520020E353002084
S31520002670EF540020C1500020DD550020EF550020EA
S31520002680A34B0020214D0020374D0020CB4D0020AC
S31520002690494E00206D4E0020B5490120BB4901203E
S315200026A0274A0120BF4A0120B9490120CB4A0120EF
S315200026B095490120815B00208B5B0020A55B0020D3
S315200026C0735C00201F5D0020215C002000000000BC
S315200026D0B93E00200142002031430020FF44002063
S315200026E0FB400020C1440020D3440020CD5A0120C5
S315200026F0D95B0120855C0120E55C0120F35C01208B
S31520002700175D01209B5D0120335E0120435E012081
S31520002710475E01200000000038B504463E4D0020EB
S315200027202862C5E90000C5E90200C5E9040068621F
S315200027303A4800F0ACF8C5E9060120460FF25D01E3
S31520002740BDE8344000F053B900F067B970B50C46C7
S31520002750314E316A072904BF756AA8421BD100F0A1
S315200027603EFB0546C5EB0515D6E90023D6E9020151
S3152000277082184FF49666B5FBF2F00A250A236843C1
S315200027804FF49662B0FBF6F6761D0020B6FBF3F307
S315200027905343236070BD012070BD00002DE9F8432E
S315200027A01D4F064600F069F83A6A0446D7E90459EF
S315200027B08846521C651BD7E9060168EB090949457D
S315200027C002D82CBFA8420122012A3A6206D0042A46
S315200027D008D0052A0ED0072A0FD018E0C7E90048EE
S315200027E07E6214E0D7E90023A21A68EB0303C7E947
S315200027F000230CE0C7E9024809E0D7E90201201AC4
S3152000280068EB0101C7E90201304600F006F9C7E985
S315200028100448BDE8F183000000982020803801009C
S3152000282010B54FF4867000F06CFB0021294A116028
S3152000283029484FF0FF310023016101228361C261E3
S31520002840846944F004048461826942F00102826151
S3152000285001600121C160816000F0C1FAC0001F49FA
S31520002860B0FBF1F000B901201D4A906010BD194857
S31520002870016841F002010160704781B01948016882
S3152000288042680092009801B0C943C043704714497A
S315200028908A68A2FB0001C00840EA4170C908704757
S315200028A038B50446FFF7E9FF00F00BF8241841EB92
S315200028B0D505FFF7E2FFA942FBD301D8A042F8D302
S315200028C031BD074A9368A3FB0445E40844EA4574EE
S315200028D070470000004008400041084040420F0079
S315200028E028982020E04008400901020002D45648DA
S315200028F081547047554A00F00F00131803F8041C42
S31520002900704710B5039C01F00F01240104F0100458
S315200029102143016002B1136010BD0021016002B1A4
S315200029201160009808B1019901607047FEB5089EB4
S315200029300027099C0A9D01970096FFF7E2FF306861
S31520002940012101FA05F540F410403060606820EA64
S3152000295005056560F7BD7CB5069C0025019547F207
S31520002960B0060094FFF7CDFF266073BD7FB5384CC7
S31520002970384D3948394A19B1022919D00DD37FBDAE
S3152000298041F2B00600950196002300F01EF801964C
S315200029900023009500F019F87FBD0D21304B0291E0
S315200029A005210193002300920022FFF7BFFF7FBD80
S315200029B0009200230022FFF7CEFF0095002300227D
S315200029C002212046FFF7C7FF7FBD002202212046B5
S315200029D0A3E710B5234C2068800407D5224949680F
S315200029E021B1012088474FF40051216010BD10B558
S315200029F01D4B1B4C596004220D21204600F0DCFAA9
S31520002A0063690121502043F400536361FFF76CFF93
S31520002A104FF480301549086010BD80B54FF48030E2
S31520002A2013490860BFF34F8FBFF36F8F00215020EB
S31520002A30FFF75AFF00220D21094800F0BDFA0020B9
S31520002A400949486001BD000000E400E018ED00E0FF
S31520002A50EC801F40DC821F40F0801F40E0821F4038
S31520002A6000801B4018801B404CB4202008E100E069
S31520002A7088E100E0002808BF00F023B87047DFF89F
S31520002A809803DFF8982301684FF0004341F00301D3
S31520002A90016040201060DFF8880383634FF0804197
S31520002AA0816300220260DFF87C03036843F4C013CD
S31520002AB00360DFF8740301684908490001600120BA
S31520002AC0704770B5DFF8640300F027FADFF860037B
S31520002AD001210269DFF85C330068520D02F003021F
S31520002AE001FA02F21968C0F38000002841F480310F
S31520002AF019601C6B44F480341C63196941F48031DD
S31520002B00196114BFDFF83013DFF830131960196824
S31520002B100029FCD51D6B25F480551D63196B0029F2
S31520002B20FCD5DFF81C43DFF81C1325694FF440560B
S31520002B3025F03F350D4325611E6119690029FCD515
S31520002B401E69DFF8041326F480361E6125680126E7
S31520002B5025F03F350D4300282560DFF8F042DFF8E9
S31520002B60F0122660DFF8EC620CBFBB48BB48B0FB16
S31520002B70F2F00860012100E0491CB0FBF1F5B542F6
S31520002B80FAD26568491EB6480E04521E06F4E0269F
S31520002B9005409202354302F4E05209022A4301F429
S31520002BA040710A4362606069AE4AC009C00140F0C4
S31520002BB003006061A168AC4811400143A160A5688B
S31520002BC0AA49AB480D4045F0A055A560E2680240F1
S31520002BD042F0C74242F00102E260E16841F440312E
S31520002BE0E160606920F4E72040F484306061196870
S31520002BF021F480311960186B20F48030186319692C
S31520002C0021F48031196170BDFAE00000012A2DE916
S31520002C10FE43044652D8002950D0012C4ED8DFF866
S31520002C202082944FD8F800008309002CA0A007BF6B
S31520002C307D6825F060753D6825F06045012A08BF4E
S31520002C400FF284200B2928BF012100EB410210F846
S31520002C50110000BFA2A15278521E002C00F03F00A6
S31520002C6040EA8319684603BFD20502F06072154315
S31520002C7045EA427591E80C1080E80C105DF8246056
S31520002C80306840F002003060204600F025F8D8F881
S31520002C900010894518BFC8F8009024B97868854285
S31520002CA005D07D6003E039688D4218BF3D6020461F
S31520002CB000F006F8306820F002003060BDE8F783A7
S31520002CC0554920B9086840F44060086070474A6852
S31520002CD042F00C024A6070474F4920B9086820F438
S31520002CE04060086070474A6822F00C024A607047CC
S31520002CF030B5574C0023002024685F4D19B10229B6
S31520002D000AD002D318E0234617E02968C1F301212F
S31520002D10491CB4FBF1F310E04949584C0968AB68EB
S31520002D2001F03F01B4FBF1F512214D43C3F3C2512B
S31520002D30491CB5FBF1F300E00420136030BD0420EC
S31520002D4011B14F48086000207047000030B54A494D
S31520002D5006280A6842F040020A600B68494A23F0B6
S31520002D6080030B6013680C6823F47C1324F4E0249E
S31520002D7014D8DFE800F0040608130B0D10002320FA
S31520002D800DE0222000E01B20072509E01D2003E09E
S31520002D901220042504E01320032501E01220082533
S31520002DA043EA00436D1E2D0405F4E02510682C43EC
S31520002DB0834218BF13600A68944203D00C604B6BA1
S31520002DC0D807FCD430BD3048016841F0300101609D
S31520002DD070472D48016821F0300101607047264870
S31520002DE01B4A016880681368C1F30121491C00F061
S31520002DF03F00401CB3FBF1F1B1FBF0F0704700003F
S31520002E001D48134900680A68C0F30120401CB2FB24
S31520002E10F0F070470000000080C00F4014800D4085
S31520002E2000900D40B0810D4040012E4000366E01CD
S31520002E3060441F4000800D405820010042200100C0
S31520002E40F0800D401818131823231A0F10C00F40B6
S31520002E50F085202001449508007B9A1700A4781F4E
S31520002E60FFE0F8FFFFFCF31F00010CE0CFFFFFE3BC
S31520002E7080FF7F9C18C00F4014C00F4000389C1C58
S31520002E8080F5E40900810D4074C00F4038B5044632
S31520002E900D4602E00120FFF703FD20462946441E89
S31520002EA061F100050022914208BF9042F2D131BD66
S31520002EB000002208160818061E0412060C07120423
S31520002EC00D050D04160200000000180616040C0657
S31520002ED01E0212031502120221010D021601000024
S31520002EE000802A400000000000402A401348144A6F
S31520002EF001681160704710B500F01BF81C69A047E7
S31520002F0010BD10B500F015F89C69A04710BD10B58E
S31520002F1000F00FF8DC69A04710BD10B500F009F8E5
S31520002F201C6CA04710BD10B500F003F89C6AA047A2
S31520002F3010BD03490A689369704700001C002000F1
S31520002F4034982020F8B506460C4615465FF000005A
S31520002F5033A151F82020B24202D0401C0628F8D3D3
S31520002F6035A1012731F91000A740FFF7CAFF726982
S31520002F70F9430A407261287818B972681140716065
S31520002F8007E06A782146304600F009F87068074362
S31520002F907760AA7821463046BDE8F8400CE0012348
S31520002FA0002A10B503FA01F107BF026822EA0101DF
S31520002FB004682143016010BDF0B5C369012404FAF9
S31520002FC001F5AB431029C36132BF00F10C0300F1B8
S31520002FD010031039490003268E40F743521E042A57
S31520002FE01DD8DFE802F003070D1519001868074001
S31520002FF01F60F0BD1A688C4017403C431C60F0BD32
S315200030001C68022505FA01F1274039431960F0BDF5
S31520003010186806431E60F0BDC1690D43C561F0BD49
S315200030200000000000801B4000C01B4000001C4028
S3152000303000401C4000000C40FFFF1A011E001A022F
S315200030400C031E01DFF8DC1600200A69D36818601D
S315200030507047F8B5DFF8CC660024306A8DF800405A
S315200030604569002D47D03169C9680F68012F31D0D5
S315200030706C6801F108020023091DA04704001FBF48
S3152000308042F21270844242F213718C4233D130697B
S31520003090C268916800292ED0546823781D0007D075
S315200030A0142B05DA806800EBC305A5F1080000E0C3
S315200030B00020002850621CBF0268002A03D0204648
S315200030C00024904713E042F210741946204600F07F
S315200030D0BDFA10E0486A58B1416811B16846884780
S315200030E004460CB1002003E09DF8000000B1012049
S315200030F03169CA6810602046F2BD80B5017800208B
S3152000310000F0A4FADFF81C26106A41690A69904784
S31520003110022000F015FBBFF34F8FDFF80C16DFF807
S315200031200C060A6802F4E06202430A60BFF34F8F7E
S3152000313000BFFDE7DFF8EC0518210269D36803F12B
S315200031400C0000F029BB10B504466068083812D080
S31520003150401E0AD0F73811D0401E09D00F3810D0A3
S31520003160103814D0401E0FD014E000F00EFE12E0EE
S3152000317001F015FA0FE001F0AEFE0CE002F003FAC2
S3152000318009E002F08FFD06E003F0DBF903E003F02F
S31520003190A1FC00E004202BE2DFF8883570B500F0B2
S315200031A0E0F9AE69B047D8E110B500F092F8DFF843
S315200031B0740562680169C8680821026180F82010D8
S315200031C02178002000F042FABDE8104003F0FABE54
S315200031D07CB5DFF850450022E568019200928168AF
S315200031E040686B46AE6801AAC0B2B047226900218A
S315200031F0D3681961009A0199920800F02DFA73BDDF
S31520003200DFF8202538B5D36804466068A168DD68F4
S31520003210C0B2A847E8E138B5044604206268092A06
S3152000322003D1A06800F047FB19E0082A03D1A06863
S3152000323001F0D0FC13E0C2F3032101290FD1694626
S31520003240104604F075F850B9009DDFF8D8241421F3
S315200032509368A0684D4359190A69136998472178DC
S31520003260DBE110B500F035F8DFF8B804E268016953
S31520003270042300F03FF821780020BAE170B5DFF88A
S31520003280A45400F026F829691320DFF8A464CA683C
S3152000329082F820002969E068CA6882F82100E0687F
S315200032A038B929691022C868026146612178002050
S315200032B054E106F11001304604F0D0F8286948217F
S315200032C006F11002C068016142610020BDE870402D
S315200032D0DDE104462EE710B5FFF7FBFFDFF84404D7
S315200032E0E2680169032300F005F8A1680020BDE823
S315200032F01040DAE1C8688261A168016162684261B2
S3152000330080F82030704738B50446DFF8185428690D
S315200033100021C0684161016190F82000042804D191
S3152000332029680A69904704B904462868416988478C
S3152000333004B904462869C168204691F8201000F097
S3152000334085F942F21270844201BF2969CA6892F84F
S315200033502000082803D1BDE8314003F076BE31BDF8
S31520003360DFF8C0130A69D36893F82110002908BF33
S3152000337000F001B87CE02DE9FE4300F0DEF811B93B
S3152000338000F0E1F871E0012101233170D0F81890A6
S315200033900569D0F8148000206A460090386A01A991
S315200033A04469D4F804C0E04704000AD0386A416969
S315200033B0CA6890472046FFF7A6FF002100203170FB
S315200033C054E0009830B942F21270FFF79CFF0020BB
S315200033D030704BE0A842396988BF28460090C868FB
S315200033E090F82010082912D10199C160009AC26173
S315200033F00099019803F0F0FD044642F27D70844264
S315200034001CBF42F274718C4216D1002414E0132999
S3152000341007D1009A0199404604F088F80098804424
S315200034200AE03C68019A00994B464046D4F808C009
S31520003430E04700990446884400982D1A05D1204675
S31520003440FFF761FF002131700FE04CB1386A416906
S31520003450CA6890472046FFF756FF0020307004E0E8
S315200034603969C9680D61C1F814800020BDE8FE8362
S315200034702DE9F84F00F061F811B900F064F859E031
S315200034800121DFF8B0A23170826900920569D0F877
S315200034901480C46890F820B0386A41694A69904718
S315200034A08146A94588BFA946ACB14A462146504621
S315200034B004F03CF8386AA5EB090401234A46514634
S315200034C04569D5F808C0E04704B170B3FFF71BFF84
S315200034D0002030702EE0BBF1030F09EB080419D150
S315200034E0D7F800C04046009B52464946DCF8048087
S315200034F0C0475FEA000BA046DCD0386A01230022D1
S3152000350051464469A568A8475846FFF7FCFE0020A7
S31520003510307010E0BBF1130F01D0A046CAE74A462F
S315200035204146504604F002F8F7E73869C06804615E
S31520003530C0F814800020BDE8F28F0646794F38691E
S31520003540C06801697047002200203270DBE6754BA7
S3152000355070B500F006F8EE68B0472178BDE87040F7
S3152000356074E01D680446E268A168606870472DE92A
S31520003570F0410546704F6E68D5F80880E86800244B
S31520003580386018B104F055F800B90424304604F028
S3152000359039F800B904242978204600F057F89CB958
S315200035A07E60002000F0CCF8C7F80880386818B193
S315200035B080F3088880F30988796840468847002088
S315200035C0BDE8F04100F0BCB8BDE8F08138B504464E
S315200035D0606804F017F808B9042005E06568012042
S315200035E000F0AEF8A068A8472178BDE834402DE069
S315200035F02178BDE8104029E038B5044604F006F9E4
S31520003600E0686A460090A36861684C4804F044F973
S31520003610054604F001F92178284600F017F831BD57
S315200036203EB500210446CDE9001104F0EFF8A36869
S3152000363061686A46414804F08DF9054604F0ECF8C5
S31520003640A2686946284600F042F837BD3EB50024F8
S3152000365000F031F8A0231EE070B5002588B0A7241D
S315200036608DF801508DF800400026551C01908DF8EC
S31520003670026000208DF803506C4605E004EB8005BF
S3152000368051F82030401CAB609042F7D33BE03EB56A
S3152000369000F010F8B3238DF800300023029144691E
S315200036A00C226946A568A84737BD3EB500F002F84A
S315200036B0A323F0E7012401908DF8014002248DF820
S315200036C00340184C206A00258DF80250704770B5CB
S315200036D0002588B08DF80150AF24002602258DF8EC
S315200036E000408DF802608DF80350019050B99DF886
S315200036F00300029200EB920403A88DF8034003F026
S3152000370025FF00E0029607489DF80320006A002363
S31520003710694644699200121DA568A84708B070BD85
S3152000372000000000108020200CED00E00400FA05C7
S31520003730589C202060982020B09C202000401F40CC
S31520003740012870B504461DD00025114E05E07018DD
S31520003750C168896801B188476D1C18216943705872
S315200037600028F4D174B904F051F8FFF780F804F07A
S3152000377069F90020074908600120FFF77BF904F06A
S315200037800DFC62B6BFF36F8FBFF34F8F70BD00BFC6
S31520003790EC25002008ED00E0002204F0FDBC30B44A
S315200037A0002513E050F8042BD30744BFA9F10103E9
S315200037B09A18091F042942F8045BFAD213468C078B
S315200037C044BF15809B1CC90748BF1D7050F8041BB9
S315200037D00029E7D130BC7047BFF34F8FDFF8BC26F6
S315200037E002E01060203020390129FADABFF34F8F2A
S315200037F0BFF36F8F704730B504460420002C85B088
S315200038001EBFDFF89C261178002950D023681D0F93
S315200038100B2D4CD1C3F30361012902F582650DD02E
S31520003820002944D1204604F0D1FC10B10021297092
S315200038303DE0A26801236A602B7038E029780029D0
S3152000384035D013F00F0F32D10021012004910391BE
S3152000385004A900F0C8FA50BB03A9102000F0C3FA4F
S3152000386028BB01A9032000F0BEFA00BB6C68049DAA
S31520003870694602A804F0E1FC6519C0B9009A0399CB
S31520003880A418A14213D3019B5B1E1D420FD101999F
S31520003890284600F092F910B942F2DB7007E0029A4E
S315200038A00099284600F026F908B900F0BDF905B0C0
S315200038B030BD012070472DE9F84FADF5007D054656
S315200038C003F0A0FE00284FF0040A2CD005F2FF10CA
S315200038D003F098FE002826D02868DFF8C47507F57F
S315200038E08368010F0C291FD104F07EFB2A4641462E
S315200038F006F02CF95FEA000A15D10020387004F092
S3152000390073FB414604F0B8FC5FEA000A0BD104F0D1
S315200039106BFB06F0D4FF6946102000F064FA0028FD
S3152000392000F08880824674E0DFF878154FF400793D
S31520003930884236D13878002878D04046002606F0CE
S315200039406DFB0546002DC34607F5BB6440F080801D
S3152000395004F051FB494603F039FD002800F0A2800F
S31520003960A07A78B100200DF10102391891F81914C6
S315200039700DF8001018F800301354801CB0F5007FA5
S31520003980F3D3EB4604F037FB5A46494600F0B2F82B
S315200039905FEA000A7BD004F02EFB494600F05FFA6E
S315200039A082E0DFF80415884205D14A46294640467A
S315200039B003F0BCFDA1E7000F0E282FD1387840B3C5
S315200039C0284607F0FFF820B3284607F004F95FEAF7
S315200039D0000A1ED1012078700020451C6A4601A9E4
S315200039E007F000FA90B904F006FB00EB85204FF4AF
S315200039F0007100F0E2F848B104F0FDFA019A00994E
S31520003A0000EB852000F076F800F00EF92846012814
S31520003A10E3D950460DF5017DBDE8F08F0B2806D180
S31520003A202846FFF7E8FE5FEA000AF2D14DE00020C3
S31520003A307870EEE7DFF874540121A96304F0DBFA0D
S31520003A40009928630818401E6863012038703CE0FE
S31520003A504A4641466846EB4603F078FDD8F84000D2
S31520003A6020F00400C8F840002168490821606068F9
S31520003A704008606021694908216104F0B5FA414691
S31520003A8004F0FAFB00283FF463AF01260EE000F0B5
S31520003A90CBF85FEA000A08D004F0ADFA616800F0BE
S31520003AA047F901E042F2DB7A012665B14A465946DA
S31520003AB0404603F03BFD04F097FA414604F0DCFB58
S31520003AC05FEA000AA5D1002EA3D17878002883D1F9
S31520003AD007F070F800289CD00120A9E710B5DFF880
S31520003AE0C043237813B942F2DD7010BDBDE8104003
S31520003AF007F05EBA2DE9F8430546DFF8A473387857
S31520003B000C46914688BB42F2DD7031E0B87868B940
S31520003B10D7F8D815491E0D4202D044F6896027E011
S31520003B2001200021B870B9607D6004E0B86879682A
S31520003B300818A84216D1B868D7F8D8854946221859
S31520003B40424534BF2646A8EB00063844324610309C
S31520003B50751903F0EBFCB868A41BB1443018404536
S31520003B60B86002D100F060F810B9002CCED1002048
S31520003B70BDE8F28376B50D460646DFF824130878AD
S31520003B8010B942F2DD7076BDAC08A40005F003053D
S31520003B9007E001AA04213046FFF7ACFF60B9361DC5
S31520003BA0241F002CF5D12DB101AA29463046FFF756
S31520003BB0A1FF08B900F038F876BDF8B50C460546E1
S31520003BC0B749ADF5806D4878012620B121462846B3
S31520003BD007F0E2F8B0B92146284603F0F7FB06467F
S31520003BE030460DF5806D01B0F0BD491CB1EB970F45
S31520003BF006D250F8042B12F1010FF6D00020F0E780
S31520003C00E41B7D19002CEBD04FF48067B4F5806F50
S31520003C10A648016B684698BF27463A46691A00F0BF
S31520003C202EF968460021E1E72DE9F8439C4E002451
S31520003C30B078ADF5806D002874D0B470D6F8D8452C
S31520003C40B068A04206D0211A06F11003FF221844BC
S31520003C5007F0C6F970682146FFF7AFFF10B942F2A8
S31520003C60DB7060E0D6F8D815706807F095F840B19B
S31520003C70D6F8D815706806F1100207F0FAF8040095
S31520003C8050D17468894F03F0C1FD386B241A04F0B3
S31520003C90ABF906F11003224606F5836104F0ECFB2E
S31520003CA0044603F0B9FD0020002CB070B06039D175
S31520003CB07F480268D10304D5D6F8D8157068FFF777
S31520003CC08BFD7078D6F8D85506F11008D6F80490F2
S31520003CD0F0B12946484607F05FF8C8B115B34FF44E
S31520003CE08066B5F5806F396B684698BF2E4632469A
S31520003CF0A9EB010100F0C3F832464146684607F0B9
S31520003D00A3F9002802BFAD1BB144B044E6D006E0BB
S31520003D102A4606F11001484607F096F910B144F6F6
S31520003D208A6000E020460DF5806D01B0BDE8F08385
S31520003D3070B504465A4A107810B942F2DD7070BD4B
S31520003D40D2F8DC55684200EA04060C1964420440A5
S31520003D506442A41B2146304600F081F8A0B92946CA
S31520003D60304607F0E5F852480168CA0303D52946CC
S31520003D703046FFF731FD21463046FFF71EFF10B9CA
S31520003D8044F68A6070BD002070BD1CB5444C207876
S31520003D9010B942F2DD7016BD04F026F904F58361F0
S31520003DA004F0C7FBF0B901A9012000F01CF8C8B93E
S31520003DB06946102000F017F8A0B90099019807F07D
S31520003DC0B7F83B480168CA0303D500990198FFF765
S31520003DD003FD0099019803F0F9FA10B944F68A60B8
S31520003DE016BD002016BD38B50C002ED02C4901F585
S31520003DF0BB6201F58D6360B1012813D0022814D06F
S31520003E00032817D0042818D0052818D0102819D030
S31520003E101BE00878002814BF002042F2DD702060E5
S31520003E20002032BD04F0E7F8F9E700F010F8AD0AFB
S31520003E302560F5E712682260F2E75068EFE710691F
S31520003E4018B1ECE700F003F8F2E7042032BD1D6854
S31520003E505A689968D86855194D194519704738B563
S31520003E600D4604461149086B241A04F0BDF82B466A
S31520003E70224601B00F49BDE8304005F011BF7CB5A0
S31520003E8004460D46164604F0AFF800962B46224609
S31520003E90084905F040FF76BD000000005CEF00E019
S31520003EA004A520200F0000F04643464250802020E3
S31520003EB014ED00E01CA920203EB504F02BF80228C2
S31520003EC001D001203EBDDFF8084C42F22C10251807
S31520003ED0284607F001F948BB284600F097FD28BB85
S31520003EE001A902A807F0E4F80199029800F054FC11
S31520003EF0E0B9284600F08AFDC0B942F22C002044E1
S31520003F0000F0CAFC90B9012140F2011021706946E7
S31520003F1003F00EFA50B900F06BF9E018046811446A
S31520003F20CC60C269806842438A6000203EBDFEB5EF
S31520003F3004460420002C1EBFDFF8942B117800299C
S31520003F404DD023681D0F0B2D49D1C3F3036142F2D7
S31520003F502405012915440DD0002940D1204604F01E
S31520003F6035F910B100212970FEBDA26801236A60CF
S31520003F702B70FEBD297891B303F00F03082B1AD2BC
S31520003F8002EBC30042F26C0142F2EC236D68D65874
S31520003F90084469460768446801A804F04EF906FB00
S31520003FA00757E0B900982D18B5FBF6F0844202D3E6
S31520003FB0711E0F4201D00420FEBDB7FBF6F401218D
S31520003FC0204600F0C5FB10B942F2DB70FEBD019A17
S31520003FD00099204600F0E7FC08B900F071FAFEBD12
S31520003FE02DE9F041064604240D46002E18BF002D6B
S31520003FF00ED0287800F00F00C01E08283FD24FF4BC
S3152000400080613046FFF7C8FB686803F0FBFA00289A
S3152000401070D06868083003F0F5FA00286AD06A681C
S3152000402006F58071002007F053FB040062D1286852
S31520004030DFF89C1AC0F3032000281CBF01280020AB
S315200040404860286800F00F039B1E082B52D8C0F347
S315200040500357032FC0F303610CD8DFE807F00204EF
S315200040600609402708E0802706E04FF4807703E022
S31520004070202701E0202F3DD300293BD0052939D226
S31520004080DFF8500A0122706017FB01FC37820020FE
S315200040907182B260C6F80CC0736116E0B2F806C031
S315200040A0B2F804E0E644B2F80AC0F4451CD31289FB
S315200040B0D6F8C8E206EBC008401C0EFB0CFC0EFB33
S315200040C002F2C8F84420C8F840C098420CD2002812
S315200040D005EB8002E2D1D6F8C8C2B7FBFCFE01FB95
S315200040E00EFE4FEA4E0EDEE74FF47F71301D00F0D4
S315200040F0ACFC30602046BDE8F081F8B504240746C4
S3152000410003F080FA00283D4654D005F2FF352846B4
S3152000411003F078FA00284DD03868DFF8B45942F217
S315200041202C016E18000F0C2846D139463046FFF771
S3152000413057FF04003ED10020287042F22C11681847
S3152000414000F064FC040035D1304600F0A5FBC8B170
S31520004150DFF88449FF224FF48461204604F018F8E2
S31520004160DFF87809012160600022A16040F21C413D
S315200041702261201D00F069FC2060304600F0B9FB6A
S31520004180040017D1304600F03CFB040012D1012078
S315200041906946287040F2011003F0CAF8040009D1DC
S315200041A000F026F8E81805681144CD60C2698068D9
S315200041B042438A602046F2BD7968DFF81829914289
S315200041C00FD14FF48061384600F032FC0028F1D040
S315200041D000204FF4806228703946304603F0A6F955
S315200041E0ABE70B28E6D13846FFF7A1FE0446E1E708
S315200041F0009A142042F2EC23DFF8E4184243704779
S315200042002DE9FE4F92460425BAF1000F0346884653
S315200042104CD0DFF8BC68307810B942F2DD7545E045
S31520004220726842F2EC2177183968012A019118D177
S31520004230307B48B9F9698B4238D2B868B36032739B
S3152000424000244343009312E0B068BA68424301FB5E
S3152000425002331B1A0198B3FBF1F1009100FB1133D5
S3152000426004E0B3FBF1F001FB103300901C466846D6
S3152000427041F20D0900F01DFC12E006F10D000119B6
S315200042802A46504603F052F901992C19A8EB050845
S31520004290AA448C4203D3009A641A521C0092002529
S315200042A0B8F1000F11D10DB1002030732846BDE8BA
S315200042B0FE8F084600F0DAFBF8B142F220003158B2
S315200042C0491C315000985844009041F2100500993D
S315200042D0725916F809008A4200D108BBD7F808B0EF
S315200042E0B1FBFBF118B1B2FBFBF0814205D0F869B6
S315200042F08142DED342F2D875D6E7DDF800B0002041
S31520004300396806F8090006F10D02584600F031FB1F
S3152000431020B9012146F805B006F809100500C2D1DA
S31520004320019808EB040290422CBF4546051BA4E7E2
S315200043302DE9FE4F93460424BBF1000F05D0DFF88C
S3152000434090773A7812B942F2DD748FE0894679681F
S3152000435042F2EC2342F214063B44BD191A680129A5
S3152000436001930646904639D1387B80B9D869864272
S315200043707CD2002201232A7092463B73BE600199AB
S31520004380886846430096324608FB029222E0B868C7
S315200043909968414302FB0162DFF84817121AB2FB03
S315200043A0F8F008FB102A00900868824211D028787D
S315200043B018B100F058F9040056D10120314638735F
S315200043C04FF0000ABE60019A90684143009108FBB5
S315200043D001F24A44DFF80C170A6005E0B6FBF8F054
S315200043E008FB10660090B2460098A96D88423DD31E
S315200043F0684600F05EFB1EE009EB0A00804507EBED
S315200044000A0041F214035946184434BFA8EB0A04A3
S315200044104C462246A24403F089F86868A9EB0409B1
S31520004420A3442018C245686004D30099AAEB080A61
S31520004430491C00910024B9F1000F06D113E0E86869
S31520004440401CE860009976180096A96800982C7898
S3152000445081420ED16CB169685145CDD000F003F987
S315200044600028F2D004460CB1002038732046BDE85F
S31520004470FE8F42F2EC223A449668B0FBF6F01CB16D
S31520004480B1FBF6F188420AD0D169884202D342F2C2
S31520004490D874E9E700F0EAFA0028D0D11CB100F080
S315200044A0E2F80400DFD1BAF1000F06D10020012284
S315200044B068600099A9602A709EE744F62A64D3E7CB
S315200044C0DFF8242600201178002918BF00F0CBB889
S315200044D0704738B5DFF8F8450020617821B142F2FF
S315200044E02C00204400F005FA42F214012144002257
S315200044F041F20D050A706255CA60227332BD2DE95C
S31520004500F8430D46DFF8C8753978042411B942F20C
S31520004510DD7441E00DB900243EE07B6842F2EC21D7
S315200045203944CE698A68012B08BF81460DD00968B7
S31520004530B0FBF1F82818401EB0FBF1F0B8FBF2F9F9
S31520004540B0FBF2F5A5EB09056D1C42F26C017B5818
S31520004550B3FBF2F2914507D21EE0484600F055FA29
S31520004560040003D16D1EC14625B90DE0484600F072
S315200045708EFAC146B14507D2484609F1010800F036
S3152000458075FA0028E9D0F4E7787828B142F22C01B0
S31520004590781800F0AEF904462046BDE8F28370B5DF
S315200045A0DFF82C45207810B942F2DD7070BD42F25A
S315200045B008300025265800E06D1CB5420CD228464E
S315200045C000F054FA0028F7D1284600F01EFA0028F9
S315200045D0F2D070BD002070BD60780028FAD042F27B
S315200045E02C01601800F085F90028F3D070BD002951
S315200045F030B52ED0DFF8D82442F2EC2342F27C14D8
S315200046001344144450B1012811D0022811D0032894
S3152000461014D0052815D0102818D01AE010780028B4
S3152000462014BF002042F2DD700860002030BD00205B
S31520004630FAE700F010F8ED0A0D60F6E71B680B604C
S31520004640F3E71A68986842430A60EEE700F003F839
S31520004650F2E7042030BD25686368A268E0685D192A
S315200046605519451970472DE9FE4FDFF8645442F27B
S31520004670140042F2EC212E186F1872683B6842F241
S31520004680DB789A421CBF00202873D6F808A00022A7
S3152000469032700121504600F05BF8002849D041F2E3
S315200046A0140271682A445046019200F07CF90028D1
S315200046B043D0B868BAFBF0F42046641C00F0E7F952
S315200046C0F168F8690290491CF16006E0204600F086
S315200046D0DEF9F068641C401CF06002998C422AD2F4
S315200046E0204600F0C3F90028F3D1B868BAFBF0FBE6
S315200046F000FB0BFB60430090AAEB0B01491C00F06A
S3152000470027F8B0B1DDF80090D345396817D205F106
S315200047100D02584600F02DF9A8B9396805F10D02A9
S31520004720484600F040F970B90BF1010B09F1010977
S31520004730EAE7404601E042F2D870BDE8FE8F019AD2
S31520004740484600F030F90028F7D04045BED1F4E7BE
S31520004750F8B50546DFF8786342F2EC200C46375868
S315200047600CE0001DB84208D251F8042B12F1010FBB
S31520004770F7D00020F2BD0120F2BD641E002CFAD035
S3152000478006F10D02394628466D1C00F0F2F8002885
S31520004790EFD106F10D01E5E72DE9F04100270546A9
S315200047A00E46B846CA4C01E07F1CB044B8B2A842B7
S315200047B024D204F10D024FF48061404600F0D9F86E
S315200047C0002802BFD4F81100C249884204BFD4F899
S315200047D01520012AE8D14FF4806104F10D0000F084
S315200047E027F90028E0D042F22C004FF4806204F131
S315200047F00D01204402F09AFE002000E00120BDE8D1
S31520004800F0812DE9F84F054644F62968B5F812904F
S31520004810B5F810A0D5F8C81200260027DFF8B0B2E8
S3152000482009FB0AF0B0FBF1F44E452FD20BF10D0235
S315200048304FF48061384600F09CF858BB4FF48062F4
S3152000484029460BF10D0006F0FFFB18BB761C5744DA
S31520004850EAE73046761C00F0E6F8A642F9D30024B3
S31520004860002647464C4512D22A464FF480613046F0
S3152000487000F099F800280FBF0027D5F8C802B6FB2C
S31520004880F0F000F0D0F8641C5644EBE700273846D9
S31520004890BDE8F28F0026E0E72DE9F0418E4C00219D
S315200048A06160458A068A0027D0F80C8001E07F1CCB
S315200048B0B044B8B2A84219D2082817DA22464FF4D3
S315200048C08461404600F055F8002802BF606883499D
S315200048D0884204BFA268012AE9D14FF484612046A8
S315200048E000F0A6F80028E2D0002000E00120BDE874
S315200048F0F0812DE9F84F814644F62966B9F81280F1
S31520004900B9F810A0D9F8C802D9F80C20002508FB60
S315200049100AF1B2FBF0F4B1FBF0F703E000196D1CCD
S3152000492000F081F8A8B2B842F8D36B4F40F21C4190
S31520004930381D002500F089F83860D9F80CB0644C91
S31520004940A8B2404512D23A464FF48461584600F048
S315200049502AF810B96070002605E0D9F8C812BBFB0A
S31520004960F1F000F060F86D1CD344E9E73046BDE86D
S31520004970F28F2DE9F04105460C469046544F08E04B
S3152000498042463146284600F045F850B9B044A41BAB
S315200049906D1C34B142F2EC203E58A64228BF264672
S315200049A0EEE7BDE8F0812DE9F84307460C46904630
S315200049B0474E12E006F10D022946384600F02AF845
S315200049C05FEA00091ED12A4606F10D01404606F08F
S315200049D03BFBA8B9A844641B7F1C9CB142F2EC2087
S315200049E042F22C11355843463A463144A54228BF57
S315200049F025460095002006F0CBFD0028DAD002E0FF
S31520004A00012000E04846BDE8F2830CE00146002084
S31520004A1006F0A8BC80B51346009102463349002013
S31520004A2006F0B2FC02BD02463049002006F052BD17
S31520004A3010B50446091F201D00F007F82268904291
S31520004A4001D1012010BD002010BD3EB504460D4603
S31520004A5001A806F0A5FF2A46214601A806F0A6FFD2
S31520004A60694601A806F0B8FF00983EBD30B51A4A3F
S31520004A700021136900E0491C994206D202EB810409
S31520004A80256A8542F7D1012030BD002030BD12496C
S31520004A900A69B2F5807F0AD201EB820210620869A8
S31520004AA00B4A401C086101215170002070470120EB
S31520004AB07047074942F2200330B5CC5842F2F4251C
S31520004AC00268495901FB04220260002030BD000023
S31520004AD0B80E21204243464EE4322120544242441D
S31520004AE0C080202004372120CC2E2120E42F212015
S31520004AF030B504460420002C85B01EBFDFF8742490
S31520004B00117800294BD023681D0F0B2D47D1C3F3F5
S31520004B100361012902F543750DD000293FD12046B6
S31520004B2003F054FB10B10021297038E0A26801235C
S31520004B306A602B7033E0297889B313F00F0F2ED1DA
S31520004B40002101200491039104A900F0D0F930BB83
S31520004B5003A900F0BEF910BB01A9032000F0C7F994
S31520004B60E8B96C68049D694602A803F066FB6519DE
S31520004B70A8B9009A0399A418A14210D3019B5B1EE1
S31520004B801D420CD10199284607F064FB10B142F270
S31520004B90DB7004E0029A0099284600F0CCF805B0B4
S31520004BA030BD38B503F0B6F9102801D0012032BD4A
S31520004BB0DFF8C053281D07F011FD040008D1281D79
S31520004BC007F063FB040003D100F0BFF90120287031
S31520004BD0204632BDFEB5054602F014FD20B105F192
S31520004BE0FF0002F00FFD08B90420FEBD2968DFF89A
S31520004BF08803DFF8804381420DD14FF48072294625
S31520004C00201D02F093FC0021201D217007F03DFBA2
S31520004C1000286BD0FEBD080F0D285ED1C1F3012000
S31520004C2000B9012021F4407141EA0021201D2960AC
S31520004C3007F0D4FC00286ED1052004F125061821A2
S31520004C40207431702A7804F1450702F003027A7441
S31520004C502868000AC10001F0180171702A68920ABA
S31520004C6002F0010272722868000B00F00700F07152
S31520004C702868C0F3810002283874C4D1AA8800F0BD
S31520004C804BF8F075EA8800F047F830762A8900F06C
S31520004C9043F870766A8900F03FF8B076AA8900F06A
S31520004CA03BF8F076EA8A00F037F8B0772A8B0121B4
S31520004CB0201D07F0A7F8F077EA8900F02DF8387064
S31520004CC02A8A00F029F830776A8A00F025F870776A
S31520004CD0AA8A00F021F8787095E70B2803D1284698
S31520004CE0FFF706FFFEBD45F27C20FEBD00F02DF944
S31520004CF001A9012000F0FBF86946102000F0F7F822
S31520004D0000989E49019A0A6483185B1E01224B640F
S31520004D108A6400202270FEBD0021201D07F072B893
S31520004D2010B5944C237813B942F2DD7010BDBDE85E
S31520004D30104006F03DB92DE9F84306468D4D2878FA
S31520004D400C46904610B942F2DD703CE0304607F042
S31520004D5081FAA8B342F2DB7035E005F582777868F0
S31520004D603968002808BF00290CD195F82610C908F3
S31520004D70B6FBF1F201FB126111B142F2DE7022E0C4
S31520004D803E6002E04118B14217D12118B1F5007FEB
S31520004D90414694BFA146C0F5007928444A4600F50D
S31520004DA08670C84402F0C2FB78684E44A4EB09041E
S31520004DB04844B0F5007F786002D100F045F810B97C
S31520004DC0002CCAD10020BDE8F2832DE9FC41694EB2
S31520004DD0054630780C46174604EB050810B942F212
S31520004DE0DD702CE000F02DF801A900F072F8009992
S31520004DF08D4223BF01984218424545F26D201ED3AD
S31520004E0006F5867841468020401E41F8047BFBD17A
S31520004E109CB14FF400770020B4F5007FC6F8080156
S31520004E204246284698BF27463946FFF784FF002882
S31520004E3004BF7D19E41BEBD001E000F005F8BDE8C6
S31520004E40F6816946012052E010B54A4C002004F54F
S31520004E50827253684BB111681060506004F58672F7
S31520004E60201DBDE8104007F061BA10BD2DE9FF41B5
S31520004E70404C064620780D46AF1910B942F2DD7037
S31520004E8024E0FFF7DEFF01A9052000F030F802A993
S31520004E9000F01FF800998E4223BF02984218BA42AA
S31520004EA045F26D2012D375B900200FE000980199C4
S31520004EB0301AB0FBF1F1201D07F072FA5FEA000804
S31520004EC003D101988619BE42F0D3404604B0BDE80E
S31520004ED0F08110200BE0E0B501A9FFF7B3FF69468A
S31520004EE0FFF7F7FF00990198FFF7C0FF0EBD10B539
S31520004EF049B3204A02F1A40350B1012811D0022857
S31520004F0012D0032816D0052816D0102817D01AE05C
S31520004F101078002814BF002042F2DD7008600020BF
S31520004F2010BD52690A60FAE75C6898684443A40A8F
S31520004F300C60F4E71A68F5E7586820B1EEE75A687E
S31520004F4098684243EEE7042010BDE0B501A905208C
S31520004F50FFF7CDFF69461020FFF7C9FF0548009AE5
S31520004F608169914204D2019BB1FBF3F1C0F8AC10E8
S31520004F7007BD00003007212053454D435080202097
S31520004F803EB502F0C7FF202801D001203EBD00F02B
S31520004F903EFDDFF8004B44F220102518284607F086
S31520004FA01AFC70BB284608F0D2F950BB694601A806
S31520004FB007F04CFB009B019A0021002000F044FCE6
S31520004FC0F8B944F220004FF48062A11C204402F07C
S31520004FD0ADFA284608F0BBF998B9009B019A44F22D
S31520004FE02C002158012000F02FFC50B94FF4846288
S31520004FF0A11CDFF8A40A02F099FA0120207000F023
S315200050001FFD3EBD2DE9FC4104460420002C1EBF99
S31520005010DFF8805A2978002950D02268130F0B2BED
S315200050204CD144F21803C2F30361EE1801290DD0C6
S31520005030002943D1204603F0C9F810B10021317070
S315200050403CE0A26801237260337037E03178A9B35F
S3152000505002F00F02082A1BD205EBC20044F26001BF
S3152000506044F2C012D6F80480AF5808446946066850
S31520005070446801A803F0E1F807FB0686F0B900981A
S315200050808044B8FBF7F0844202D3791E0E4201D049
S31520005090042013E044F220100122B6FBF7F1284445
S315200050A008F042FB10B142F2DB7007E0019A00994A
S315200050B0304600F096F908B900F090FABDE8F6817E
S315200050C02DE9F84F07463C4602F09CFA28B104F237
S315200050D0FF34204602F096FA08B90420FDE0DFF8F6
S315200050E0B44944F22C0044F22011251804EB01099E
S315200050F03946002000F08DFB90B3002044F22003B7
S3152000510020704FF480623946E01802F01FFA4846B4
S3152000511008F01DF90028E1D1AB88EA88296801202A
S31520005120DFF874694FF4846700F08EFB002800F0E6
S31520005130C680FF223946304603F02AF8DFF85C099C
S31520005140012170600022B16040F21C413261301DA5
S3152000515000F04CFC306000F03FFA0028BED1B3E0EE
S315200051603968080F0D2840F0A080786810F00F0FDE
S3152000517014BF00F00F060126C0F30348B8F1000F54
S31520005180C1F3012008BF4FF0010800B9012021F426
S31520005190407141EA002139607968C1F3072000286F
S315200051A021F47F4108BF012041EA00217960387847
S315200051B010F00700D8BF45F2E4208FDDB8F1090FC3
S315200051C028BF45F2E5206FD20020207000F01FFC9A
S315200051D0484607F000FB002834D144F272102044E0
S315200051E0002144F229128172A11805230022CB70D6
S315200051F0C2720A703A7802F0070202703B68C3F363
S31520005200C002CA753A68C2F30212521C42703B6849
S315200052101B0ADA0002F018020A76396844F25012A4
S31520005220090B01F00701A1543B681B0C03F0010395
S31520005230C3703968490C01F001010171484608F034
S3152000524086F8002849D1796844F2C81E54F80E0021
S31520005250BC46C1F3072A16FB0AFAC1F3072200FB54
S3152000526002F900224FEA4A0A10E004EBC20144F296
S31520005270600754F80EB0521C394407890BFB07F718
S315200052804F60408954F80E7078430860424526D214
S315200052900CEB82001AB1C188878807EB010A47897F
S315200052A05745E2D245F2E62017E00B2804D13846CE
S315200052B0FFF7A8FE88B92FE745F2E0200DE03A4631
S315200052C0A11C304602F032F9002000F0EBFA20B99A
S315200052D001202070BDE8F14FB2E3BDE8F28FEE80E9
S315200052E009FB06F6A5F804902E60C5F8088013E79A
S315200052F02DE9F84F5FEA0208DFF8986744F2C012FA
S31520005300054606EB02073C68009408BF0420B5FB5F
S31520005310F4F904FB195521D0327812B942F2DD7026
S315200053201CE044F21403BA68F45802FB04990C46B4
S3152000533010E0B01C41195246404602F0F7F8009A98
S315200053405544A4EB0A04D044954224BFAD1A09F172
S3152000535001090020002C42F2040A0BD1BDE8F28F8D
S31520005360484600F02EFBF0B144F21400D9443158DF
S31520005370491C315056F80A1042F20200305C494569
S3152000538000D130BBD7F808B0B9FBFBF218B1B1FB9E
S31520005390FBF0824207D0F868396948438242DFD35E
S315200053A042F2D870DAE742F2020B00203B6806F898
S315200053B00B0044F2201CB21C494606EB0C0008F0F8
S315200053C058F820B9012146F80A9006F80B10002853
S315200053D0C4D10098621990422CBFA246A0EB050AC0
S315200053E0A7E72DE9F84F5FEA02080746DFF8A4563B
S315200053F044F2C012AC58009408BF0420A146B7FB63
S31520005400F9F904FB197747D02A7812B942F2DD70F0
S3152000541042E044F20803EE18B26D914538BF45F2DA
S31520005420E32039D344F2C0142C19F368A2688A46C3
S3152000543002FB03991CE000980AEB070142F20803DD
S315200054408842414634BFC41B5446E81922461844B4
S31520005450E71902F06BF87268AAEB040AA044A218B6
S31520005460726000998F4224BF7F1A09F1010900203A
S31520005470BAF1000F04D10FE0F068D944401CF06067
S31520005480B0683478484509D144B17068B842D2D062
S3152000549000F00BF90028F3D0BDE8F28F44F2C011DA
S315200054A06A18D2F808B0B9FBFBF11CB1B0FBFBF0CF
S315200054B081420DD0D06812695043814202D342F214
S315200054C0D870E9E7484600F07CFA0028D4D11CB110
S315200054D000F0EBF80028DFD137B9002001217060F9
S315200054E0C6F808903170A6E745F2D120D4E72DE919
S315200054F0F047DFF8A07544F2C0157C193A78256983
S31520005500E3685D4312B942F2DD703AE009B9002042
S3152000551037E02368A268B0FBF3F60818401E44F271
S315200055206001B6FBF2F9B0FBF3F07B58B0FBF2F664
S31520005530A6EB0906761CB3FBF2F2914509D245F299
S31520005540E3201EE0504600F05AF95FEA000802D137
S31520005550761E86B102E0504600F089FACA46AA4570
S3152000556009D2A0680AF1010900FB0AF000F029FA25
S315200055700028E7D0F2E7787810B100F02DF88046C1
S315200055804046BDE8F08744F2C8122DE9F041DFF825
S3152000559004650025B7183078BC6879684C4388B90B
S315200055A042F2DD7016E03868684300F00AFA40B926
S315200055B0284600F024F95FEA00081CBF284600F0C0
S315200055C056FA6D1CA542EED3707810B100F004F89F
S315200055D080464046BDE8F081012063E1DFF8C02423
S315200055E000201178002918BF00F05FB8704738B541
S315200055F0DFF8A0440020617809B1FFF7EDFF44F2FF
S3152000560008012144002242F202050A706255CA604E
S3152000561032BD002930B52BD0DFF8782444F2C013F0
S31520005620D41850B1012811D0022811D0032814D043
S31520005630052815D0102818D01AE01078002814BF95
S31520005640002042F2DD700860002030BD0020FAE71D
S3152000565000F010F8AD0A0D60F6E723680B60F3E75B
S31520005660A268206842430A60EEE700F003F8F2E7FA
S31520005670042030BD2569E368A26820685D43554350
S3152000568045437047DFF80C1401F584421078002852
S3152000569000D0704710B5002342F2020442F2040003
S315200056A00B550B50891C516010BD2DE9FE4FDFF8BC
S315200056B0E44344F2080044F2C0116618336900211D
S315200056C02518F06829703168D5F808A0B2684343D8
S315200056D06868029342F20803234488420093BAFB87
S315200056E0F2F804D0091AFF22184405F079FC44F296
S315200056F0201301225146E01808F016F8002842F23D
S31520005700DB7B46D13068009A014600FB0AF000F0A8
S3152000571050F8002841D0404608F1010800F0A7F9CA
S31520005720E86805E0404600F0A2F9E86808F10108BB
S31520005730401CE860029988452DD2B76807FB08F916
S31520005740484600F03EF90028EFD1BAFBF7F0474370
S3152000575044F22010204449460190AAEB0702521C2D
S3152000576007F0E2FFA8B95745316818D201980B46D1
S31520005770A21C394607F07DFEB0B93068A21C01464E
S3152000578000FB09F000F015F870B97F1C09F101093A
S31520005790E9E7584601E042F2D870BDE8FE8F009A4C
S315200057A001FB0AF000F005F80028F6D05845B9D1DB
S315200057B0F3E72DE9F047904644F2C015B54E08EBC5
S315200057C0010972590C46B0FBF2FAFFF75BFF384627
S315200057D00CE044F220103B4642465146304407F046
S315200057E0B3FE50B9B844E41B0AF1010AC84504D2F5
S315200057F07759BC4238BF2746EBE7BDE8F08710B59E
S315200058000446FFF73FFF2146A648BDE8104007F0B3
S3152000581030BF10B50C4620B9A34A201D4FF47F7126
S3152000582003E09E4A201D40F21C416368934204BF58
S31520005830A268012A06D100F0D9F82168884201D150
S31520005840012010BD002010BD2DE9F04782460F46ED
S31520005850904D914698464FF40051A81C07F0D4FF6E
S315200058605FEA0A000CBF4FF480644FF4846400267C
S3152000587001E04744761C4E4511D244F2C010AA1CC2
S31520005880285821467843FFF733FD0028F1D1A91C7B
S315200058905046FFF7BEFF0028EBD0002000E0012095
S315200058A0BDE8F0872DE9F84F804D84B06A8A2B8AAF
S315200058B00192019A0293012A06D953437C4AD2F8CF
S315200058C008A0B3FBFAFA01E04FF0010A8DF80000B8
S315200058D0774CF8B90026B146B346DDF80480029F1E
S315200058E0C14558D22068734A4FF4806100FB0BF003
S315200058F0FFF7FEFC002851D166484FF48062294606
S31520005900801C05F0A1FB002804BF09F10109BB4456
S31520005910E6D043E0D5F80C90A0685F4D45F2E2272B
S3152000592003954FF48468B9FBF0F440F21C41281D1E
S3152000593000F05CF82860002503E028196D1CFFF7AD
S315200059405EFF5545F9D30024DDF804A0029D039E91
S31520005950DFF85CB1544532D2DBF8000032464146CE
S3152000596000FB09F0FFF725FF40B99DF8000001284C
S3152000597002D10021474A5170002705E0DBF80800D4
S31520005980B9FBF0F0FFF73BFF641CA944E2E70020D7
S3152000599005B0BDE8F08FCDF8048002E0CDF8048094
S315200059A0012602970024002EA14645F2E127039501
S315200059B04FF48068EBD04FF47F713F48B8E7384604
S315200059C0E6E770B53D4B01461C68334B00220020AC
S315200059D0B1FBF4F11C6900E0521CA24205D203EB94
S315200059E082052E6AB142F7D1012070BD3EB504462C
S315200059F00D4601A805F0D4FF2A46214601A805F048
S31520005A00D5FF694601A805F0E7FF00983EBD70B5B1
S31520005A10204C44F22003E518FF224FF480612846EB
S31520005A2002F0B6FB204E012344F224006E60AB60E8
S31520005A304FF47F712044FFF7D9FF2860002070BD06
S31520005A401CB569464FF4807001F072FC70B9009A5B
S31520005A5014201B494243164803680A44D36004694C
S31520005A60C16880684C4344439460002016BD0A49AF
S31520005A700A69B2F5807F0AD201EB820210620869B8
S31520005A80044A401C08610121517000207047012002
S31520005A907047000034BE2020540221205442424444
S31520005AA03CFE202054FF20204243464E54FE202018
S31520005AB0F4FF202036BE202058FE2020FCFF202088
S31520005AC0C080202030B504460420002C85B01EBF9F
S31520005AD0DFF898251178002950D023681D0F0B2D4B
S31520005AE04CD1C3F30361012902F23C450DD00029B4
S31520005AF044D1204602F06AFB10B1002129703DE016
S31520005B00A26801236A602B7038E02978002935D0F5
S31520005B1013F00F0F32D1002101200491039104A923
S31520005B2000F068F950BB03A9102000F063F928BBE8
S31520005B3001A9032000F05EF900BB6C68049D69464C
S31520005B4002A802F07AFB6519C0B9009A0399A41835
S31520005B50A14213D3019B5B1E1D420FD101992846FA
S31520005B6000F0B6F810B942F2DB7007E0029A00990D
S31520005B70284600F017F808B900F052F805B030BDF5
S31520005B800020DFF8E8148860704710B51346DFF868
S31520005B90DC44227802B998E00A461946BDE810404E
S31520005BA007F063BE2DE9F8438046DFF8C054287815
S31520005BB00C469146D5F8287410B942F2DD702DE0D6
S31520005BC0B7F5806F88BF4FF4806734B3A8686968DB
S31520005BD0002804BF0029C5F8048002D04118414599
S31520005BE016D121188F422CBF26463E1A284400F192
S31520005BF00C01894504D0324649460C3001F096FC0A
S31520005C00A868A41BB144B0443018B842A860DCD1BF
S31520005C1000F006F80028D8D000E00020BDE8F28386
S31520005C20F8B5DFF84864ADF5806DB5680024DDB1C0
S31520005C3077687460B4602A4606F10C01384607F08E
S31520005C4094FE040010D12A466946384607F00DFE18
S31520005C50040009D12A46694606F10C0005F0F4F93C
S31520005C6010B142F2DF7000E020460DF5806D01B0E4
S31520005C70F0BD38B50D460446DFF8F013087810B9A4
S31520005C8042F2DD7032BD2946204607F006FE40B9B5
S31520005C902946204600F01CF810B942F2DF7032BDCA
S31520005CA0002032BD10B5DFF8C443207800B90CE0DF
S31520005CB007F034FE40B9D4F8241400F009F810B9DE
S31520005CC042F2DF7010BD002010BD42F2DD7010BD23
S31520005CD070B5ADF5806D05460C4610E0491CB1EB5C
S31520005CE0960F0AD250F8042B12F1010FF6D000209D
S31520005CF000E001200DF5806D70BDA41B7519002CE8
S31520005D00F7D04FF48066B4F5806F6946284698BF71
S31520005D102646324607F0A9FD68460021DFE72DE931
S31520005D20F8430646042401F06DFC00285FD006F1F6
S31520005D302B0001F067FC002859D03068DFF82C537F
S31520005D4005F5826805F20C47DFF82493000F0C282E
S31520005D501AD12C214046FDF71FFD4FF4803001213A
S31520005D60B86005F586600222017042700323052182
S31520005D7006228370C4700171314642714046C7F8CD
S31520005D80049000F0D5F813E03068010F0B2904D1F8
S31520005D903046FFF797FE044629E0484527D12C21B7
S31520005DA04046FDF7F9FC2C223146404601F0BEFB69
S31520005DB000203C7B2870D7F8108005F58360AD4E17
S31520005DC002F03AF8204601F0F1FF3146204602F073
S31520005DD025F842463146204600F034F8396805F564
S31520005DE0846007F015FD040004BF012028702046BA
S31520005DF0BDE8F28321B39D4A02F2244350B1012823
S31520005E0011D0022814D003280FD0042814D010282B
S31520005E1014D015E01078002814BF002042F2DD705F
S31520005E200860002070470020FAE75A680A60F8E701
S31520005E301B689B0A0B60F4E79868F1E71A68F5E798
S31520005E400420704770B58CB004460D46164607A848
S31520005E5091A1142201F07AFB1C216846FDF79CFCD7
S31520005E6000960821009B019183490022ADF8082065
S31520005E70B1FBF3F38DF80A200A46039313460099E3
S31520005E80B2FBF1F1009A049102218DF818106946AF
S31520005E90B3FBF2F20592002207AB8DF81920ADF87C
S31520005EA01A2053F824002A4607F0B0FE0CB070BD25
S31520005EB02DE9F0430746714889B08846164604788E
S31520005EC0457804A879A1142201F040FBE946002078
S31520005ED000210022002389E80F004FF48010039050
S31520005EE00EB9012201E0032E05D12946204601F0F4
S31520005EF077FF002019E0012E08BF019702D0022E5D
S31520005F0008BF0097CDF8088004A8694650F82400F9
S31520005F1007F0E7FFB0F5C87FF6D030B1002229465A
S31520005F20204601F05DFF42F6CD1009B0BDE8F083B2
S31520005F3070B50B78524A03F00F0302EB8304E56D2C
S31520005F4085610B68C3F3031302EB8304256CC561DB
S31520005F500B68C3F3032352F823204A4B42610C6893
S31520005F60240B04F00F04012C02D0022C10D012E0D6
S31520005F70012202744269B2F5803F98BF102205D9EA
S31520005F809A4202D21823437436E02022427433E028
S31520005F900223037430E000226024027400F12102FF
S31520005FA0D47145699D4213D21823422443745471F7
S31520005FB0C369B3F5803F28BFD82316D2B3F5805FD7
S31520005FC008BF202417D0B3F5004F15D152230CE07B
S31520005FD020241225447413230026157053705671FD
S31520005FE0C369B3F5803F02D3DC23937104E0B3F594
S31520005FF0805F01D1212494710A68120D02F00F02EC
S31520006000521E032A0BD8DFE802F0020406080122FA
S3152000601006E0022204E0032202E0042200E000223D
S3152000602002720A68120C02F00F02012A06D004D36B
S31520006030032A03D038BF022200D3002242720A6804
S31520006040C2F303627AB1097901F00F01012904D064
S3152000605009D3032905D002D305E00B4904E00B49F7
S3152000606002E00B4900E00B49C16070BDAC812020E5
S315200060706B736563005A620200CA9A3BC48520206E
S31520006080388120200100000180969800404B4C006A
S3152000609080841E00002D31010000000000403940A0
S315200060A00080394000C0394000003A40000000001E
S315200060B0004039400080394000C0394000003A4055
S315200060C0F0B504460420002C85B01FBFDFF8E45548
S315200060D005F565763178002969D02268130F0B2BD8
S315200060E065D1C2F3036101290DD000295FD1204675
S315200060F002F06CF810B10021317558E0A268012336
S31520006100B261337553E0317D002950D012F00F0F64
S315200061104DD1002101200491029104A900F02DFA0D
S31520006120002844D102A9022000F027FA00283ED1F7
S315200061300298DFF884154FF0FF34884201A928BF62
S315200061400294052000F019FA88BBB769049E6946B7
S3152000615003A802F072F8BE1948BB009A0299BF182C
S31520006160B94224D3019B5B1E1E4220D195F8000321
S31520006170019901280198019BB2FBF1F100FB112244
S3152000618018BF00241000224618BF01204118B6FB74
S31520006190F3F000F067FA10B942F2DB7007E0039AD9
S315200061A00099304600F043F908B900F095F905B09A
S315200061B0F0BD3EB5DFF8FC44DFF8001521600E2067
S315200061C0FCF7B1FE0546DFF8F804FCF794FE401C08
S315200061D040F2FF11B5FBF0F0606004F55B7502221A
S315200061E0A9846A84204608F001F8E8B9204609F017
S315200061F027F8B0B901A940F2211001F099F898B911
S3152000620000F013F880B9019B1421DFF8B8242D681B
S315200062104B43D118CD60009A8A60012184F89413EB
S315200062203EBD002384F894333EBD694620464DE2A8
S315200062307FB5054601F0E6F968B1E81D01F0E2F9FF
S3152000624048B12868000F0B2803D12846FFF738FFEE
S3152000625002E00C2802D0042004B070BDDFF85444BC
S315200062604FF46C712046FDF797FADFF85004206052
S315200062700E20FCF758FE0646DFF84404FCF73BFEEA
S31520006280401C0222B6FBF0F0606004F55B76728457
S3152000629040F2FF11B184286804F12801030B000A9B
S315200062A003F00F0300F00F000B7048706868C20CF3
S315200062B002F001020A7341F28832C30D000E00F08B
S315200062C0030003F0010301284B7340F6C41306D0E4
S315200062D002D3032808D005D344F6206005E042F215
S315200062E0107002E0104600E0184648606868C0F367
S315200062F0005000B11A468A606868800C00F00100E0
S315200063008873204608F09CFF0028A5D129682046DE
S31520006310090E01F0070109F0ABF900289CD103A969
S31520006320FFF784FF002897D102A940F2211000F040
S31520006330FFFF002890D1029B1421DFF888233668BE
S315200063404B43D118CE60039A8A602968CB071DD5A6
S31520006350C1F30112080C8DF8042000F003000A0D89
S315200063608B08C90801F001018DF8030002F007022D
S3152000637003F001038DF802108DF8012069468DF88F
S315200063800030204609F086FA002802D1012184F83F
S31520006390941361E72DE9F84FDFF81893824609F543
S315200063A065760C463078904610B942F2DD703CE0B6
S315200063B04FEA5A2509F56C70AAEB45254FEA5A276C
S315200063C000900FE000985A46A4EB0B044119404672
S315200063D001F0ACF85D44B5F5007FD84424BFA5F59F
S315200063E000757F1C04B3707878B1706887420CD32F
S315200063F0411C8F4209D2AAEB40256019B0F5007FD7
S3152000640094BFA346C5F5007BDCE700200099707099
S3152000641001233A46484609F04AF9002802BF0120DE
S3152000642070707760E9D000E00020BDE8F28F2DE99A
S31520006430F84FDFF8809209F565773B7813B942F279
S31520006440DD703EE082464FEA5A26AAEB46264FEA00
S315200064505A240D46904613E009F5B66041465A4641
S31520006460801901F063F8F9685E44B6F5007FA5EB64
S315200064700B05D8445944F96024BFA6F50076641C60
S31520006480F5B1387A18B3386984421CD3411C8C4242
S3152000649019D2AAEB4026F868B04209D000F09AF843
S315200064A00028EED00DE000200121F8603C61397211
S315200064B0A819B0F5007F94BFAB46C6F5007BCBE7A5
S315200064C00020BDE8F28F00F085F80028F9D1002ED3
S315200064D0E9D042F2DE70F4E7764A002092F89C1367
S315200064E0002918BF00F076B8704777480021C1719F
S315200064F001700020704770B506466E4D95F89403DE
S315200065000C4610B942F2DD7070BD284609F0A8F895
S3152000651010B142F2E07070BD94B105F55B70A4191C
S31520006520C1690068641EB4FBF0F2B2FBF1F2B6FB5F
S31520006530F0F0B0FBF1F12846BDE8704009F0FCB858
S3152000654070BD38B55B4C04F56275287B10B942F2F4
S31520006550DD7032BD204609F083F810B142F2E070BA
S3152000656032BDFFF762FE38B900982968B0FBF1F218
S315200065700021204609F0E0F832BD38B50C0027D0BE
S315200065804C4D30B101280ED002280ED005281BD044
S315200065901EE095F89403002814BF002042F2DD7017
S315200065A02060002032BD0020FAE76946284600F028
S315200065B08DF80028F6D1009AD5F86C13A1FB0201BC
S315200065C0800A40EA8150EBE7D5F86C232260E8E7A1
S315200065D0042032BDF8B5374C204609F041F810B1F9
S315200065E042F2E070F2BD04F5677504F5B666686898
S315200065F04FF0FF37B0F5007F0AD094F80013012939
S31520006600C0F5007130440CBF3A46002204F0E8FC85
S3152000661094F8001300202870A868012918BF0027C5
S315200066203A46012100F01EF810B942F2DB70F2BDA5
S31520006630AA6801233146204609F052F888B9AA688B
S3152000664004F56C7701233946204609F030F840B925
S315200066504FF400723946304604F0F6FC08B142F297
S31520006660DF70F2BD2DE9F84305460C461646DFF8E5
S31520006670448017E008F56C793B462A464946404651
S3152000668009F015F840B900E0001DB0EB472F08D2FD
S3152000669059F8041BB142F7D0002000E00120BDE8E4
S315200066A0F283E41B002CF9D0012C8CBF012727464E
S315200066B0E0E700009CAC20200100400000402C4078
S315200066C024F00080C080202031B0202000F55C70AE
S315200066D0027F072A14D8DFE802F0040808130B0DFE
S315200066E00F11006808600020704742680A60FAE7C8
S315200066F08068F7E7C268F9E70069F3E74269F5E7DA
S3152000670004207047F0B504460420002C85B01FBF36
S31520006710DFF8242502F1AA05A97D00296AD023687D
S315200067201E0F0B2E66D1C3F30361012902F1D40695
S315200067300DD000295ED1204601F048FD10B1002180
S31520006740317057E0A26801237260337052E03178CD
S3152000675000294FD013F00F0F4CD1002101200491B6
S31520006760029104A900F0D3F9002843D102A90220FE
S3152000677000F0CDF900283DD10298DFF8C0144FF083
S31520006780FF34884201A928BF0294052000F0BFF9F2
S3152000679080BB7768049E694603A801F04EFDBE19AA
S315200067A040BB009A0299BF18B94223D3019B5B1EB6
S315200067B01E421FD12878019BC10701990198B2FB7F
S315200067C0F1F158BF002400FB11221000224618BF09
S315200067D001204118B6FBF3F000F006FA10B942F298
S315200067E0DB7007E0039A0099304600F0F1F808B90B
S315200067F000F043F905B0F0BD38B5DFF83C44DFF8CA
S31520006800401421600E20FCF78EFB0546DFF8340489
S31520006810FCF771FB401CB5FBF0F06060204607F0EA
S3152000682037FD60B92046B43409F072FE28B900F06D
S3152000683070F820B900F072F832BD0023237332BD00
S315200068407CB5044600F0DEFE68B1E01C00F0DAFEFE
S3152000685048B12068000F0B2803D12046FFF752FFCE
S3152000686076BD0D2801D0042076BDDFF8CC53DC217F
S315200068702846FCF791FFDFF8C80328600E20FCF7B6
S3152000688052FB0646DFF8BC03FCF735FB401C05F13E
S315200068902801B6FBF0F068602068020B02F00702C0
S315200068A00A70C20D030AC60C000E00F0030003F0A6
S315200068B0010302F0010201284B7006F001064A731B
S315200068C00E7341F2883240F6C41306D002D3032851
S315200068D008D005D344F6206005E042F2107002E0AD
S315200068E0104600E0184648602068C0F3005000B10A
S315200068F01A468A60284609F00BFE05F1B40428B929
S3152000690000F007F820B900F009F876BD00232373BC
S3152000691076BD69464FF4907000F00ABD009B1421A5
S31520006920DFF8242365684B43D118CD6022688A603E
S315200069300121217370472DE9F84FDFF8FC9282463A
S3152000694009F1C0060C463078904610B942F2DD7047
S315200069503CE04FEA5A2509F1DC00AAEB45254FEA2F
S315200069605A2700900FE000985A46A4EB0B044119D1
S31520006970404600F0DBFD5D44B5F5007FD84424BFDA
S31520006980A5F500757F1C04B3707878B170688742CE
S315200069900CD3411C8F4209D2AAEB40256019B0F5D1
S315200069A0007F94BFA346C5F5007BDCE70020009955
S315200069B0707001233A4648460AF00BF8002802BFB9
S315200069C0012070707760E9D000E00020BDE8F28FEA
S315200069D02DE9F84FDFF8609209F1C0073B7813B92B
S315200069E042F2DD703EE082464FEA5A26AAEB462660
S315200069F04FEA5A240D46904613E009F53770414672
S31520006A005A46801900F092FDF9685E44B6F5007F7B
S31520006A10A5EB0B05D8445944F96024BFA6F50076AA
S31520006A20641CF5B1387A18B33869A0421CD1411CD0
S31520006A308C4219D2AAEB4026F868B04209D000F061
S31520006A4089F80028EED00DE000200121F8603C6195
S31520006A503972A819B0F5007F94BFAB46C6F5007B06
S31520006A60CBE70020BDE8F28F00F074F80028F9D1BA
S31520006A70002EE9D042F2DE70F4E76F4A002092F849
S31520006A80C810002918BF00F065B870476F4800216C
S31520006A90C17101700020704770B50546664E96F8A4
S31520006AA0C0000C4610B942F2DD7070BD304609F0C8
S31520006AB088FF10B142F2E07070BD54B1690A6519C1
S31520006AC06D1E3046C1EB5522BDE87040521C09F0C0
S31520006AD0C9BF70BD38B5584C04F1B405287B10B930
S31520006AE042F2DD7032BD204609F06BFF10B142F252
S31520006AF0E07032BD28686968A1FB0023204600218A
S31520006B00520A42EAC352BDE8384009F0ABBF10B57D
S31520006B10F1B14F4A30B101280DD002280DD00528F9
S31520006B2014D015E0107B002814BF002042F2DD703F
S31520006B300860002010BD0020FAE714685368A3FB04
S31520006B400423920A42EA83520A60F2E75068EFE78A
S31520006B50042010BD2DE9F041374C204609F031FFC5
S31520006B6010B142F2E0703DE004F1CC0504F5377631
S31520006B70286804F1AA074FF0FF38B0F5007F09D046
S31520006B803978CA07C0F5007130444CBF424600220E
S31520006B9004F026FA39780020B877CA0758BF80460D
S31520006BA068684246012100F01FF810B942F2DB70F6
S31520006BB018E06A6801233146204609F027FF88B984
S31520006BC06A6804F1DC0701233946204609F001FFF3
S31520006BD040B94FF400723946304604F035FA08B110
S31520006BE042F2DF70BDE8F0812DE9F84305460C46F8
S31520006BF01646DFF8448017E008F1DC093B462A46B2
S31520006C004946404609F0E5FE40B900E0001DB0EBDC
S31520006C10472F08D259F8041BB142F7D0002000E0D4
S31520006C200120BDE8F283E41B002CF9D0012C8CBF97
S31520006C3001272746E0E70000BCB5202001004000E0
S31520006C4000002C4024EB0080C08020207DB6202030
S31520006C5070B62020416882688A4209D2891A8266E3
S31520006C6041600FF2D5210160012282600020704729
S31520006C7042F2787070470FF20901016000207047D8
S31520006C8010B5416ADFF84C444A898282CB689B1E44
S31520006C9043604A68A24202D1097A022902DB42F203
S31520006CA0757010BD0FF209020260002010BD0000B1
S31520006CB0416A43684A6882610A68D21E9A428260A3
S31520006CC002D342F2767070470989002908BFFFF780
S31520006CD0C1BF42F277707047F8B50446DFF8F86313
S31520006CE0B4F85A30376804F15C05626A6968D7F8E7
S31520006CF008C01806000F1B0A43EA00232868E0474D
S31520006D00A0B930680169884780B9616A102204F108
S31520006D101C0004F04BFE00F044F80098A968884255
S31520006D2000D043E00FF2112020600020F2BDF8B51C
S31520006D3004461022616A04F11C00DFF89C6304F10A
S31520006D405C0504F033FEB4F85A303768626A1021C5
S31520006D501806000F1B0AD7F808C043EA0023286844
S31520006D60E047E8B92868103028606868103810288D
S31520006D70686088BFDFF8640310D810B1DFF86003BD
S31520006D800CE030680169884750B900F00AF800988D
S31520006D90A968884200D009E00FF29D1020600020EB
S31520006DA0F2BD694604F11C0004F016BE42F27A7068
S31520006DB0F2BD10B5044604F11C0004F0F1FD216E6D
S31520006DC011292CBFDFF81403DFF8140320600020FC
S31520006DD010BD38B5C04B426E1C68016EC06DE568AB
S31520006DE0A84732BDB0F85A2013061B0F110AD20746
S31520006DF041EA03214CBF08230423042901D004209F
S31520006E00704700F16002C16DB64800F045BD70B50F
S31520006E10044642F27F76E56D284600F0F3FB80B10A
S31520006E20606E04F11801A8470646012E03D12046BC
S31520006E30BDE870400EE7022E03D100F0C3F8002013
S31520006E4070BD304670BD10B5436800F15C025168D4
S31520006E5081608B4202D242F2767010BD147AE3072B
S31520006E6007D512688469A24203D111B1C1600020FE
S31520006E7010BD90F85A10CA0702D542F27C7010BD98
S31520006E80BDE81040E6E638B5B0F85A108A071FD498
S31520006E900B061B0F0A0AC9071CD542EA0322083A29
S31520006EA00ED0521E04D0F73A0ED0521E04D00FE058
S31520006EB0BDE83140FCF769BFBDE83140FDF76FBB47
S31520006EC0BDE83140FEF707B8BDE83140FEF75BBBB1
S31520006ED0042032BD42EA03227F4B1C685C304168A5
S31520006EE00068A569A84732BD1CB50446B4F85A0007
S31520006EF00106090F000A40EA0120092803D1E06DA6
S31520006F00FCF7D9FC16BD082803D1E06DFDF762FE1B
S31520006F1016BD01290ED1694600F00AFA58B9E06D6E
S31520006F20009C6D4A142193684C4319190A69136908
S31520006F30984716BD042016BDF8B5044604F1580638
S31520006F40616A304610225A2500F000FB0120375C8A
S31520006F50401CED191028FAD3307805F0FF05A84219
S31520006F6002D042F27970F2BD717842F212700A298B
S31520006F7025D8DFE801F01A060A0E26121A16261C54
S31520006F8020002046BDE8F2405DE72046BDE8F240FD
S31520006F900FE72046BDE8F2401BE72046BDE8F24059
S31520006FA035E72046BDE8F2406DE70020F2BD2046D9
S31520006FB0BDE8F24098E72046BDE8F24012E742F2EB
S31520006FC07B70F2BD10B5484C70212046FCF7E4FBDF
S31520006FD0464A0020226010BDF8B506460C46002021
S31520006FE00027434DA74218D02969E01BC1F11001A3
S31520006FF009E080B12B69F25D7F1C491E401EEA54D0
S315200070002A69521C2A610029F3D10020286100F048
S3152000701005F810B9E6E742F27D70F2BD80B5324838
S31520007020334A4262C26800212AB1036993420AD0D8
S315200070305B1C036101E0826E1AB90168884701462C
S3152000704001E0521E8266084602BDF8B5224C206831
S315200070500169884700283CD1234F97F85900042816
S3152000706023D107F15C052E68304600F0CBFAC8B173
S315200070700020FCF765FB97F85A00810710D5686851
S315200070806861616860B10A68904222BF4968491CFC
S31520007090814201D20420F2BD80F3088880F309885A
S315200070A0A868B04742F27E70F2BD08280FD10220B0
S315200070B0FCF746FBBFF34F8F0E490F480A6802F4D0
S315200070C0E06202430A60BFF34F8F00BFFDE742F242
S315200070D07B70F2BD53544D50108020202F6D002020
S315200070E0D96C002000401F4034B52020776C00204A
S315200070F0A8B520200CED00E00400FA057CB50C00B4
S31520007100164605461A4601D1002076BD100A10F013
S315200071100F0002D001280AD019E06A46284600F05E
S31520007120BAF8B0B900F0A1F86568A84776BD6B46F5
S31520007130284600F0D3F860B90098A24A0369284689
S31520007140996951605B6832462146984776BD42F27E
S31520007150D87076BDF8B50C00174606461A4601D1FA
S315200071600020F2BD100A10F00F00964D02D0012823
S3152000717016D02CE0304600F0F0F840BB6A46214697
S31520007180304600F088F820BB009B214630463A4620
S31520007190DC68A668B047B8B90099CA68136911E0D7
S315200071A06B46304600F09AF898B900983A4603693B
S315200071B03046996969609B682146984720B90099AD
S315200071C00A6953692B60F2BD00212960F2BD42F2A3
S315200071D0D870F2BD7CB5130A13F00F0305460C4692
S315200071E042F2D87602D0012B14D024E06A4600F071
S315200071F052F8E8B90099CA68506998B121462846DC
S3152000720000F0ABF8B8B9009A21462846D3685C69E5
S31520007210A04776BD6B4600F061F848B90098016931
S31520007220CA680AB9662076BD21462846904776BDAB
S3152000723014B9002076BD304676BD7CB50C000546D7
S31520007240164601D1002076BD00F087F810B142F233
S31520007250D87076BD6A462146284600F01CF818B933
S3152000726000F003F8E568A84776BD009B214628462E
S315200072703246DC68704710B5524C206810B1804702
S315200072800021216010BD10B54E4C606810B18047BA
S315200072900021616010BDF0B516000D4642F2D87788
S315200072A01AD049494A68326015B915E0103333605F
S315200072B033688BB11A68002A04BF5C68002C01D1A0
S315200072C0D96849B1904224BF59688142EED3281823
S315200072D0401E814228BF00273846F0BDF0B506463D
S315200072E0174642F2D87C0BB3374882681A6019B920
S315200072F01CE005F114041C601D68BDB12A68002A33
S3152000730004BF6C68002C07D1A868002804BFEC686D
S31520007310002C01D1286948B19742EAD1AA68E868C9
S315200073208E194243B24228BF4FF0000C6046F0BD92
S3152000733070B505460420002671B1234A946801E001
S31520007340761C143444B1236833B12269002A03D051
S315200073509D42F5D10E60002070BDF0B509181A4B7C
S31520007360491E00225F68DC68256905EBC20606F126
S315200073707C041601BD5966682468AC4208BFAE423B
S3152000738003D0864228BFA14204D2521C012AEAD940
S315200073900020F0BD0120F0BD70B50B4D6E6803E0F6
S315200073A0006800B180471036F0680028F8D1AD6833
S315200073B003E0096801B18847143529690029F8D105
S315200073C062BD000094AC20201080202002460120BF
S315200073D000E0491E21B112F8013BFF2BF9D0002015
S315200073E07047F0B40246106895681318506803EB8E
S315200073F05004C0071DD54D441BE013F8017B05F84A
S31520007400017B491EF9D1A0B1B60813F8011B06F07D
S315200074100306032E08BF13F8016B01EB0621494230
S31520007420801C294405D011F8016B05F8016B401E1C
S31520007430F9D1A3420ED013F8016B16F0030104BF55
S3152000744013F8011BC91C30090F28DAD113F8010BD8
S315200074500F30D6E7F0BC02F10C007047F0B50646B7
S3152000746004240D46002EA3B018BF002D56D0382177
S31520007470284606F0C9F938224323AA708120EB70EA
S315200074806621287000205522E871102329716A711F
S315200074900EA8AB7109F025FB04003FD10020214F37
S315200074A08DF83B000EA9384609F0D0FC040035D1F2
S315200074B0102205F10801384609F0F8FC04002DD108
S315200074C00D210AA8FCF768F906A809F041FD05F187
S315200074D00801802206A809F04FFD102005F1280199
S315200074E005F118020023059006A8049110210392A5
S315200074F00AAA019300930D2302960AF020F80A495E
