S02B0000433A5C55736572735C6E786730323439345C446F63756D656E74735C4D43555870726573736F49446D
S315080010000000132059120008F1120008835900083D
S31508001010F5120008F7120008F9120008FB1200087A
S31508001020606E00000000000000000000FD120008CD
S31508001030FF12000800100008011300082D19000807
S315080010403B5E0008435E00084B5E0008535E0008DE
S315080010505B5E0008635E00086B5E0008735E00084E
S315080010607B5E0008835E00088B5E0008935E0008BE
S315080010709B5E0008A35E0008AB5E0008B35E00082E
S31508001080BB5E0008C35E0008CB5E0008D35E00089E
S31508001090DB5E0008E35E0008EB5E0008F35E00080E
S315080010A0FB5E0008035F00080B5F0008135F00087B
S315080010B01B5F0008235F00082B5F0008335F0008EA
S315080010C03B5F0008435F00084B5F0008535F00085A
S315080010D05B5F0008635F00086B5F0008735F0008CA
S315080010E07B5F0008835F00088B5F0008935F00083A
S315080010F09B5F0008A35F0008AB5F0008B35F0008AA
S31508001100BB5F0008C35F0008CB5F0008D35F000819
S31508001110DB5F0008E35F0008EB5F0008F35F000889
S31508001120FB5F0008036000080B60000813600008F6
S315080011301B600008236000082B6000083360000865
S315080011403B600008436000084B60000853600008D5
S315080011505B600008636000086B6000087360000845
S315080011607B600008836000088B60000893600008B5
S315080011709B600008A3600008AB600008B360000825
S31508001180BB600008C3600008CB600008D360000895
S31508001190DB600008E3600008EB600008F360000805
S315080011A0FB600008036100080B6100081361000872
S315080011B01B610008236100082B61000833610008E1
S315080011C03B610008436100084B6100085361000851
S315080011D05B610008636100086B61000873610008C1
S315080011E07B610008836100088B6100089361000831
S315080011F09B610008A3610008AB610008B3610008A1
S31508001200BB610008C3610008CB610008D361000810
S31508001210DB610008E3610008EB610008F361000880
S31508001220FB610008036200080B62000813620008ED
S315080012301B620008236200082B620008336200085C
S315080012403B620008A472000800000020BC0B0000E6
S31508001250BC0B00204002000072B6134B134A174815
S315080012600360196881F3088882F30A8803F0D0FFBF
S315080012700F4B07E003F10C049A685968186800F0E8
S315080012801FF823460B4A9342F4D306E01C465968D6
S3150800129054F8080B00F023F82346074A9342F5D37F
S315080012A062B604F0E4FFFEE70010000800F0122022
S315080012B044120008501200085812000808ED00E011
S315080012C0002393420AD210B450F8044B41F8044B59
S315080012D004339342F8D35DF8044B704770470023F4
S315080012E003E0002240F8042B04338B42F9D37047FD
S315080012F0FEE7FEE7FEE7FEE7FEE7FEE7FEE7FEE7B8
S31508001300FEE7FEE7FEE7FFFF80B582B000AF786034
S315080013107968024804F050FA00BEFDE72067000825
S3150800132080B58AB000AFB9607B600346FB7313468D
S31508001330BB73BB7B012B01D001232AE0174ABB7B79
S3150800134013747B687B61BB68BB6100233B77002312
S315080013507B770123BB770123FB77002387F82030AF
S31508001360002387F82130FB7B87F82230002387F893
S315080013702330002387F8243007F114031946074859
S3150800138004F0E2FC054B064A9A60044B054ADA600B
S31508001390002318462837BD4680BD00BFBC0B002079
S315080013A049460008DD45000880B584B000AF78607E
S315080013B039600023FB60094B1B7C002B02D14FF0E0
S315080013C0FF3306E03A687968054800F023F8F860C4
S315080013D0FB6818461037BD4680BD00BFBC0B002011
S315080013E0E513000880B582B000AF7860084B1B7C17
S315080013F0002B02D14FF0FF3306E0054B9B68391DE1
S31508001400012203489847012318460837BD4680BD80
S31508001410BC0B002080B59CB002AFF860B9607A605A
S3150800142000233B660023FB650023FB61002387F846
S315080014304A3000237B61BB687B667B6E1B78002B7A
S3150800144000F0D2817B6E1B7887F8493097F84930CF
S31508001450252B0BD097F84920FB6810469847FB695F
S315080014600133FB617B6E01337B66BCE1012387F8A0
S315080014704B3000237B65002387F85B3020E07B6ECA
S3150800148001337B667B6E1B7887F8493097F84930BD
S315080014902F2B0FD997F84930392B0BD87A6D13466D
S315080014A09B0013445B001A4697F849301344303BB7
S315080014B07B6505E07B6E013B7B66012387F85B3025
S315080014C097F85B3083F00103DBB2002BD7D17B6E34
S315080014D001337B667B6E1B782E2B2ED100233B6552
S315080014E0002387F85B3020E07B6E01337B667B6EDA
S315080014F01B7887F8493097F849302F2B0FD997F87A
S315080015004930392B0BD83A6D13469B0013445B00C0
S315080015101A4697F849301344303B3B6505E07B6E25
S31508001520013B7B66012387F85B3097F85B3083F0D5
S315080015300103DBB2002BD7D102E07B6E013B7B6651
S315080015407B6E01337B667B6E1B7887F8493097F88C
S315080015504930642B24D097F84930692B20D097F866
S315080015604930662B1CD097F84930462B18D097F887
S315080015704930782B14D097F84930582B10D097F863
S3150800158049306F2B0CD097F84930622B08D097F862
S315080015904930702B04D097F84930752B40F0DC8021
S315080015A097F84930642B03D097F84930692B15D141
S315080015B07B681A1D7A601B68BB6107F1180107F181
S315080015C0200097F84B3000930A23012204F02AF9E9
S315080015D0F86507F12002FB6D13443B6697F849301E
S315080015E0582B03D097F84930782B1CD197F84930F7
S315080015F0782B02D1002387F84B307B681A1D7A6056
S315080016001B687B6107F1140107F1200097F84B303E
S3150800161000931023002204F005F9F86507F120026B
S31508001620FB6D13443B6697F849306F2B0BD097F840
S315080016304930622B07D097F84930702B03D097F8BA
S315080016404930752B6AD197F84930702B0DD17B68D4
S315080016501A1D7A601B683B6107F1100107F1140334
S315080016600422184600F0C6F804E07B681A1D7A6062
S315080016701B687B6197F84930623B132B3AD801A265
S3150800168052F823F0DD160008F5160008F5160008CE
S31508001690F5160008F5160008F5160008F5160008F0
S315080016A0F5160008F5160008F5160008F5160008E0
S315080016B0F5160008F5160008D5160008E516000800
S315080016C0F5160008F5160008F5160008F5160008C0
S315080016D0ED160008082387F84A300CE0022387F83D
S315080016E04A3008E0102387F84A3004E00A2387F8CE
S315080016F04A3000E000BF97F84A2007F1140107F1C5
S31508001700200097F84B3000931346002204F08AF81D
S31508001710F86507F12002FB6D13443B667A6D07F105
S315080017201C01FB6800930B46F96D202004F05AF85B
S315080017303B6E002B54D00AE03B6E5A1E3A661B7865
S315080017401A46FB6810469847FB690133FB613B6EF6
S315080017501B78002BF0D143E097F84930632B0BD167
S315080017607B681A1D7A601B687B64FB68786C9847EF
S31508001770FB690133FB6133E097F84930732B27D1B6
S315080017807B681A1D7A601B68FB64FB6C002B27D0EC
S31508001790F86C04F0CDFD0346FB657A6D07F11C0174
S315080017A0FB6800930B46F96D202004F01BF80AE04D
S315080017B0FB6C5A1CFA641B781A46FB681046984755
S315080017C0FB690133FB61FB6C1B78002BF0D107E04A
S315080017D097F84920FB6810469847FB690133FB6177
S315080017E07B6E01337B6628E600BFFB6918466837BF
S315080017F0BD4680BDF1B5002A4BD011F0030306D0D3
S3150800180011F8014B013A00F8014B42D0F5E710F008
S3150800181003031BD1102A04DB103AF0C9102AF0C0C2
S31508001820FAD2130744BF30C930C0530744BF51F832
S31508001830044B40F8044B930744BF31F8024B20F899
S31508001840024BD30744BF0C78047022E0C3070AD4BE
S31508001850042A16D351F8044B043A20F8024B250CF7
S3150800186020F8025BF4E7042A0BD351F8044B043A38
S3150800187000F8014B250A20F8025B260E00F8016BDA
S31508001880F1E7002A1EBF11F8014B00F8014B013A97
S31508001890F7D1F1BD80B483B000AF03463960FB8051
S315080018A0B7F90630002B0ADB3B68DAB20C49B7F900
S315080018B006305201D2B20B4483F800230AE03B6893
S315080018C0DAB20849FB8803F00F03043B5201D2B28F
S315080018D00B441A7600BF0C37BD465DF8047B70478B
S315080018E000E100E000ED00E080B582B000AF78606E
S315080018F07B68013BB3F1807F01D301230FE00A4ADD
S315080019007B68013B536007214FF0FF30FFF7C2FFAA
S31508001910054B00229A60044B07221A6000231846DA
S315080019200837BD4680BD00BF10E000E080B400AFB8
S31508001930064B1B68002B04D0044B1B68013B034A6B
S31508001940136000BFBD465DF8047B7047D00B0020CE
S3150800195080B483B000AF7860074A7B68136000BF25
S31508001960054B1B68002BFBD100BF00BF0C37BD46DB
S315080019705DF8047B704700BFD00B002080B58EB0A1
S3150800198000AF02233B6301233B7000237B7003F007
S31508001990F5FB03F017FA03F051F80021694801F046
S315080019A009FB0021674801F005FB3B46022200219E
S315080019B0644804F0E3F8012302220021614803F099
S315080019C092FF3B460D2200215E4804F0D7F801231A
S315080019D0022200215B4803F086FF01230D22002125
S315080019E0584803F080FF4FF6FF720021554803F070
S315080019F0A2FF4FF0FF320021524803F0AFFF4FF627
S31508001A00FF7200214F4803F096FF4FF0FF32002186
S31508001A104C4803F0A3FF4C4B4C4A934216D04B4A12
S31508001A2093421AD8002B03D0494A934207D014E0B0
S31508001A3007F110034749184604F059FC18E007F166
S31508001A4010034549184604F052FC11E007F110034B
S31508001A504249184604F04BFC0AE03B4B19464048FD
S31508001A6003F0AAFE07F110033E49184604F03FFCAE
S31508001A703B6B032B15D03B6B032B18DC3B6B012B05
S31508001A8003D03B6B022B06D011E03B1D36491846A6
S31508001A9004F02DFC11E03B1D3449184604F027FCE0
S31508001AA00BE03B1D3249184604F021FC05E03B1DBE
S31508001AB03049184604F01BFC00BF2F4B1B682F4A01
S31508001AC0A2FB03239B091846FFF70EFF0346002BCC
S31508001AD000D0FEE700237B6325E06420FFF738FF8C
S31508001AE03B6B032B15D03B6B032B18DC3B6B012B95
S31508001AF003D03B6B022B06D011E0042200211148CB
S31508001B0003F006FF0CE0042200210E4803F000FF54
S31508001B1006E0042200210B4803F0FAFE00E000BFAD
S31508001B207B6B01337B637B6B092BD6DD4FF4FA7035
S31508001B30FFF70EFF3A1D07F110031946104803F088
S31508001B403BFEC7E700001040001000080080002098
S31508001B5000100008346700083C670008446700085E
S31508001B6048670008646700086C6700087067000823
S31508001B707867000880670008B80B0020D34D62100C
S31508001B808867000880B400AF0E4BD3F86831002B85
S31508001B900AD10D4BD3F8803403F02003002B01D172
S31508001BA00A4B0AE00A4B08E0064BD3F86831012BCA
S31508001BB002D1084B1B6800E000231846BD465DF8B5
S31508001BC0047B7047001000400008004500F04902F9
S31508001BD0005A6202D40B002080B400AF034B1B6886
S31508001BE01846BD465DF8047B704700BFD80B002039
S31508001BF080B400AF074BD3F8803403F02003002BE2
S31508001C0001D1054B00E0054B1846BD465DF8047B3F
S31508001C10704700BF0008004500A60E0040420F00AE
S31508001C2080B584B000AF78600D4B1B6803F574234C
S31508001C3003F23F230B4AA2FB03239A0C7B6802FBA1
S31508001C4003F3FB60FB680233074AA2FB03235B0826
S31508001C50184603F0BAFE00BF1037BD4680BD00BF68
S31508001C60B80B002083DE1B43ABAAAAAA80B582B0B4
S31508001C7000AF00237B600F4B93F8D930DBB203F03B
S31508001C800F03052B02D10C4B7B600DE0094B93F833
S31508001C90D930DBB203F00F030A2B02D1074B7B6066
S31508001CA002E00748FFF730FB7B6818460837BD4651
S31508001CB080BD00BF00200045236E8C033E07E1026D
S31508001CC05868000880B483B000AF044B7B607B681B
S31508001CD018460C37BD465DF8047B70470040420F36
S31508001CE080B582B000AF00237B601F4BD3F88830E5
S31508001CF05B0ADBB23B601D4BD3F8803403F020034C
S31508001D00002B10D03B684A2B0DD93B68602B0AD8AC
S31508001D103B684B3B3B603B68154A03FB02F2154B9D
S31508001D2013447B601AE0114BD3F8803403F0200388
S31508001D30002B10D13B684D2B0DD93B68642B0AD874
S31508001D403B684E3B3B603B680B4A03FB02F20B4B7E
S31508001D5013447B6002E00A48FFF7D6FA7B68184608
S31508001D600837BD4680BD00BF00300040000800456A
S31508001D70005A6202005ED0B200F04902002087B223
S31508001D807068000880B582B000AFFFF7A9FF034668
S31508001D90044AA2FB0323DB087B607B6818460837E6
S31508001DA0BD4680BDABAAAAAA80B584B000AF78604C
S31508001DB07B683D4A93420DD13C4B9B6A3B4A23F0D4
S31508001DC00403936200BF394B9B6A03F00203002B9E
S31508001DD0F9D065E07B6803F48033002B10D0344BD0
S31508001DE0D3F890207B68DBB2012101FA03F3DB43C9
S31508001DF02F491340C1F89030042003F0E6FD4FE068
S31508001E007B681B0ADBB2FB60FB68052B3ED801A288
S31508001E1052F823F02D1E00083D1E00084D1E00082E
S31508001E205D1E00086D1E00087D1E00087B68DBB27B
S31508001E30204A012101FA03F313642AE07B68DBB226
S31508001E401C4A012101FA03F3536422E07B68DBB2E2
S31508001E50184A012101FA03F393641AE07B68DBB29E
S31508001E60154A012101FA03F3136412E07B68DBB219
S31508001E70114A012101FA03F353640AE07B68DBB2D5
S31508001E800D4A012101FA03F3936402E00B48FFF7B8
S31508001E903BFA7B68B3F5887F02D1054B1F221A648B
S31508001EA000BF1037BD4680BD20000100001003406A
S31508001EB0003000400010004000100240886800080A
S31508001EC080B584B000AF78607B68384A934206D103
S31508001ED0374B9B6A364A43F00403936262E07B6899
S31508001EE003F48033002B0CD0324BD3F890207B6858
S31508001EF0DBB2012101FA03F32E491343C1F89030EE
S31508001F0050E07B681B0ADBB2FB60FB68052B3FD8F9
S31508001F1001A252F823F000BF311F0008411F000834
S31508001F20511F0008611F0008711F0008811F000863
S31508001F307B68DBB2204A012101FA03F313672AE022
S31508001F407B68DBB21C4A012101FA03F3536722E0DE
S31508001F507B68DBB2184A012101FA03F393671AE09A
S31508001F607B68DBB2154A012101FA03F3136712E015
S31508001F707B68DBB2114A012101FA03F353670AE0D1
S31508001F807B68DBB20D4A012101FA03F3936702E08D
S31508001F900B48FFF7B9F97B68B3F5887F02D1054B83
S31508001FA000221A6400BF1037BD4680BD200001001C
S31508001FB000100340003000400010004000100240AE
S31508001FC0A068000880B487B000AF78600023FB756E
S31508001FD07B6803F00103002B0ED07B681A0B796827
S31508001FE040F6FC730B4003F1804303F5443319466E
S31508001FF002F003030B6056E07B6803F00203002B34
S3150800200015D07B681B092B4A03F00703C2F8603713
S315080020107B681B0A274A03F00703C2F864377B6804
S315080020201B0B244A03F00703C2F86C373BE0002376
S315080020303B612FE03B691B017A6822FA03F37B6058
S315080020407B6803F40043002B09D07A6840F6FC73DA
S31508002050134003F1804303F50433FB6008E07A6814
S3150800206040F6FC73134003F1804303F58053FB608D
S315080020707A6840F6FC731340002B06D07B681B0B6E
S3150800208003F00702FB681A6001E00123FB753B6950
S3150800209001333B613B69012B05D8FB7D83F00103C6
S315080020A0DBB2002BC6D100BF1C37BD465DF8047BEA
S315080020B0704700BF0010024080B485B000AF124BD5
S315080020C01B6ADB0CC3F30C037B600023BB60012394
S315080020D0FB600FE00D4AFB6852F823307A689A4293
S315080020E005D10B4AFB6852F82330BB6005E0FB6854
S315080020F00133FB60FB680A2BECD9BB68184614371A
S31508002100BD465DF8047B7047003000400068000853
S31508002110A867000880B500AFFFF734FE0246044BF7
S31508002120D3F84032DBB20133B2FBF3F3184680BD75
S315080021300010004080B500AFFFF7BEFF0246044B13
S31508002140D3F84032DBB20133B2FBF3F3184680BD55
S315080021500010024080B582B000AF00237B60274B99
S31508002160D3F8343403F00303032B3FD801A252F803
S3150800217023F000BF85210008D5210008DD210008CD
S31508002180E52100081D4BD3F8303403F00303032B75
S315080021901CD801A252F823F0A9210008B121000891
S315080021A0BD210008C5210008FFF7ECFC786010E0A7
S315080021B003F059FC03469B087B600AE0FFF718FD0D
S315080021C0786006E003F04FFC786002E000237B604D
S315080021D000BF0EE003F04EFC78600AE0FFF79AFFB6
S315080021E0786006E003F0E8FB786002E000237B6095
S315080021F000BF7B6818460837BD4680BD0010004002
S315080022002DE9B04F8CB000AF78610023FB62012343
S31508002210FB610023BB6200237B6200233B627B6970
S31508002220032B1CD8464A7B6928335B0113441B6879
S3150800223003F00703BB62424A7B6928335B011344F8
S3150800224004331B681B0ADBB23B623D4A7B692833B1
S315080022505B01134404331B68DBB27B6217E07B69BE
S315080022600E2B11D1364BD3F8C03603F00703BB62E9
S31508002270334BD3F8C4361B0ADBB23B62304BD3F878
S31508002280C436DBB27B6202E02E48FFF73DF8BB6A34
S31508002290032B25D801A252F823F000BFAD2200086F
S315080022A0B5220008D1220008D9220008FFF752FFFC
S315080022B0F86218E0224BD3F8FC36DBB20133FB6137
S315080022C0FFF728FF0246FB69B2FBF3F3FB620AE05D
S315080022D003F0D0FBF86206E003F0C5FBF86202E003
S315080022E00023FB6200BFFB6A00229A4693467B6A7C
S315080022F00022BB60FA60D7E902120B465C1C134643
S3150800230043F1000504FB0BF20AFB05F31344AAFB91
S3150800231004894B4499463A6A7B6A1344013300227E
S315080023203B607A60D7E900234046494604F0FAF84C
S3150800233002460B46134618463037BD46BDE8B08FF1
S3150800234000100240B868000880B584B000AF786015
S315080023507B681B78FB60FB680E2B02D91F48FEF7CB
S31508002360D3FF7B689B78FF2B02D01D48FEF7CCFF76
S31508002370FB68032B17D87B685B781A4A1946FB68F3
S3150800238028335B01134419607B68DB781B029BB218
S315080023907A68927813491A43FB6828335B010B4421
S315080023A004331A6016E0FB680E2B10D17B685A7846
S315080023B00C4BC3F8C0267B68DB781B029BB27A6895
S315080023C092781146074A0B43C2F8C43602E006481B
S315080023D0FEF79AFF1037BD4680BD00BFD0680008DB
S315080023E0EC680008001002401869000880B584B03F
S315080023F000AF78600023FB600023BB607B68032B7B
S3150800240008D8214A7B685B01134403F5A1631B685E
S31508002410BB600AE07B680E2B04D11B4BD3F8C83689
S31508002420BB6002E01948FEF76FFFBB68042B22D891
S3150800243001A252F823F000BF4D24000855240008D5
S315080024405D240008652400086D24000803F012FBCB
S31508002450F86013E003F007FBF8600FE0FFF76AFE89
S31508002460F8600BE0FFF7B8FBF86007E07868FFF75D
S31508002470C7FEF86002E00023FB6000BFFB68184651
S315080024801037BD4680BD00BF001002403069000805
S3150800249080B584B000AF78600B46FB700023FB6004
S315080024A00023BB60334BD3F8803403F02003002BA2
S315080024B01ED07B68304A934238BF1346FB60FB68E0
S315080024C02E4A934228BF1346FB60FA682C4B1344E6
S315080024D02C4AA2FB03231B0EBB60BB682A4A03FBDC
S315080024E002F2254B1344FB60BB684B33BB6028E004
S315080024F0204BD3F8803403F02003002B1ED17B68D1
S31508002500224A934238BF1346FB60FB681B4A934234
S3150800251028BF1346FB60FA681D4B13441D4AA2FBED
S3150800252003231B0EBB60BB681B4A03FB02F2174B57
S315080025301344FB60BB684E33BB6002E01748FEF7E6
S31508002540E3FE174BD3F8883023F4FF3323F4C07324
S31508002550BA68520202F4FF321A43FB78DB0103F42D
S31508002560C0730F491343C1F88830FB681846103703
S31508002570BD4680BD00080045005ED0B200C0E1E45B
S3150800258000CF604E6BCA5F6B005A6202002087B2AA
S3150800259000D89D4E851DD96F00F04902486900088C
S315080025A00030004080B584B000AF78600B46FB7001
S315080025B0134BD3F8883003F02003002B01D000F02A
S315080025C023F8104B742283F8E820FB7819467868BC
S315080025D0FFF75EFFF8600A4BD3F88830084A43F0E5
S315080025E02003C2F8883000BF054BD3F8883003F0C3
S315080025F04003002BF8D0FB6818461037BD4680BD4F
S31508002600003000400020004580B500AF0C4BD3F8E1
S3150800261090300B4A43F00303C2F89030084BD3F8C6
S315080026208830074A23F02003C2F8883002F034FFC6
S315080026300120FFF7F5FA0348FFF742FC00BF80BD0B
S31508002640003000401C00010080B582B000AF034690
S31508002650FB71174BD3F8883003F00803002B01D021
S3150800266000F02AF8134B742283F8A820104BD3F8ED
S31508002670883023F4C022FB795B0403F4C0230C4999
S315080026801343C1F888300A4BD3F88830084A43F018
S315080026900803C2F8883000BF054BD3F8883003F02A
S315080026A01003002BF8D000BF00BF0837BD4680BD19
S315080026B0003000400020004580B500AF0C4BD3F831
S315080026C090300B4A43F00C03C2F89030084BD3F80D
S315080026D08830074A23F00803C2F8883002F0DCFE87
S315080026E00120FFF79DFA0348FFF7EAFB00BF80BD0C
S315080026F0003000401D00010080B582B000AF0346DF
S31508002700FB71154BD3F8883003F00103002B01D079
S3150800271000F026F8FB79002B04D1104B052283F82C
S31508002720D92003E00D4B0A2283F8D9200A4BD3F8A7
S315080027308830094A43F00103C2F8883000BF064BC7
S31508002740D3F8883003F00203002BF8D000BF00BF8F
S315080027500837BD4680BD00BF003000400020004558
S3150800276080B500AF0B4BD3F890300A4A43F0F0031C
S31508002770C2F89030074BD3F88830064A23F0010395
S31508002780C2F8883002F088FE0120FFF749FA00BF38
S3150800279080BD00BF0030004080B489B000AF51232F
S315080027A0FB610023BB6114237B6102233B61022387
S315080027B0FB600323BB6004237B6005233B602E4B31
S315080027C0D3F8803403F02003002B06D15423FB6191
S315080027D044F62413BB6113237B61284B5A69284BA3
S315080027E013403A68D20602F0F0421A43BB68DB058A
S315080027F003F0F0631A437B681B0503F4E0031A43EE
S315080028007B69DB029BB21D4913434B611B4B9B69DA
S3150800281023F47E623B695B0103F47E631749134325
S315080028208B61164BDB6823F01E02FB685B0003F026
S315080028301E0312491343CB60104B1B6923F0FF5349
S3150800284023F48013FA6911050E4A0A400B4913430B
S315080028500B610A4BDB6A0C4A1A40BB69DB0123F0A1
S315080028607C4323F07F0305491343CB6200BF24371B
S31508002870BD465DF8047B70470008004500300040FF
S31508002880FF070F800000F01F7F0000F080B483B0C0
S3150800289000AF0346FB71FB79002B27D0164B5B690B
S315080028A023F04002FB79154951F823309B0103F0C8
S315080028B04003114913434B610F4B1B69104A1A40D9
S315080028C0FB79104951F8233059000F4B0B400A4940
S315080028D013430B61084B1B6AC3F31202FB790B49BE
S315080028E051F82330DB04044913430B6200BF0C374D
S315080028F0BD465DF8047B7047003000402C68000830
S315080029000100F0FFD4670008FEFF0F00006800080A
S3150800291080B483B000AF0346FB71FB79002B1BD054
S31508002920104BDB6B23F00072FB790F4951F823300B
S315080029305B0603F000730B491343CB63FB790B4A21
S3150800294052F82330C3F31202FB79094951F82330B0
S31508002950DB04044913438B6300BF0C37BD465DF89F
S31508002960047B7047003000402C680008D4670008D4
S315080029700068000880B582B000AF0A4B9B687B6090
S315080029807B6803F48053002B07D1064A7B6843F41F
S31508002990805393603220FFF743F900BF0837BD46DE
S315080029A080BD00BF0030004080B483B000AF094B43
S315080029B09B687B607B6803F48053002B04D0054A30
S315080029C07B6823F48053936000BF0C37BD465DF8DF
S315080029D0047B70470030004080B584B000AF0346E2
S315080029E0FB710B46BB7113467B71FB79002B05D037
S315080029F04D4B5B694C4A43F010035361BB79002B7E
S31508002A0005D0494BDB6B484A43F08073D363464B8A
S31508002A10DB6A454A43F04003D3620320FFF700F917
S31508002A20414BDB6A404A23F04003D3620220FFF79A
S31508002A30F7F83D4BDB6A3C4A23F00103D3620520D5
S31508002A40FFF7EEF87B79002B05D0374B5B69364AE2
S31508002A5043F4803353610520FFF7E2F8FB79002B36
S31508002A6005D0314BDB6A304A23F00203D362BB79C7
S31508002A70002B07D02C4BD3F8C0302B4A23F0010388
S31508002A80C2F8C0300220FFF7CBF8FB79002B05D03F
S31508002A90254B1B69244A43F001031361BB79002BBC
S31508002AA005D0214BDB6B204A43F08063D3630220B9
S31508002AB0FFF7B6F8FB79002B05D01B4B1B691A4AA2
S31508002AC023F001031361BB79002B05D0164BDB6B92
S31508002AD0154A23F08063D3630C20FFF7A1F87B79AE
S31508002AE0002B1CD00023FB6005E0FB680A33FB6063
S31508002AF00A20FFF795F80C4B9B6A03F00073B3F1B5
S31508002B00007F03D0FB68B3F5167FEED30A20FFF7E4
S31508002B1087F8054B5B69044A23F48033536100BF89
S31508002B201037BD4680BD00BF0030004080B483B07A
S31508002B3000AF03460A46FB711346BB71FB79002BAF
S31508002B400BD0114BDB6A104A43F00203D3620E4BDB
S31508002B505B690D4A23F010035361BB79002B0DD036
S31508002B60094BD3F8C030084A43F00103C2F8C03015
S31508002B70054BDB6B044A23F08073D36300BF0C3725
S31508002B80BD465DF8047B70470030004080B582B0D2
S31508002B9000AF78607B68002B02D11C48FEF7B4FBB7
S31508002BA01B4B5B6903F02003002B01D000F032F8C1
S31508002BB002F072FCFFF7DEFEFFF7EEFD7B681B787E
S31508002BC01846FFF763FE7B685B781846FFF7A0FE9A
S31508002BD00F4B5B690E4A43F0200353610F20FFF742
S31508002BE01FF80B4BDB6A0A4A23F00403D3620F2053
S31508002BF0FFF716F87B689B781A4601210120FFF734
S31508002C00EBFE00BF0837BD4680BD00BF64690008FB
S31508002C100030004080B500AF01210120FFF786FF94
S31508002C200F4BDB6A0E4A43F00403D3620C4BDB6A94
S31508002C300B4A43F00103D362094B5B69084A23F048
S31508002C40200353610748FFF73BF9054B5B6803F020
S31508002C500403002B01D1FFF7A7FE00BF80BD00BF0C
S31508002C60003000401E0001002DE9B04384B000AFDB
S31508002C70786039607968002932D0796800208846FA
S31508002C808146396800200A46034602FB09F008FB1C
S31508002C9003F10144A8FB02454B191D46134A4FF0A0
S31508002CA000032046294603F03DFC02460B46C7E9C9
S31508002CB00223D7E90223012B02D30D48FEF724FB92
S31508002CC0D7E902014FF000024FF00003820842EAFA
S31508002CD081728B08C7E90223BB68184602F0D2FE48
S31508002CE000BF1037BD46BDE8B08300BF40420F00A5
S31508002CF07C69000880B584B000AF78600023FB606B
S31508002D0009E00D4AFB6852F823207B689A4206D0F0
S31508002D10FB680133FB60FB68042BF2D900E000BFB7
S31508002D20FB68042B02D90548FEF7EEFAFB6818463D
S31508002D301037BD4680BD00BFA8690008DC690008D9
S31508002D4080B584B000AF78600B46FB707868FFF7F3
S31508002D50D1FFF8600C4AFB6852F823301846FFF793
S31508002D6023F80A4AFB6832F81330184602F0AEFF19
S31508002D70FB7800221946786802F0C6FE0346184614
S31508002D801037BD4680BD00BFBC690008D069000881
S31508002D9080B582B000AF1048FFF7ACFF78600F4AE5
S31508002DA07B6852F82330002B02D10D48FEF7ACFAA7
S31508002DB00A4A7B6852F823300A497A6851F8222071
S31508002DC0104609497A6851F822201146984700BFEB
S31508002DD00837BD4680BD00BF00601040DC0B0020F0
S31508002DE0206A0008A8690008F00B002080B582B0A8
S31508002DF000AF1048FFF77EFF78600F4A7B6852F8ED
S31508002E002330002B02D10D48FEF77EFA0A4A7B686A
S31508002E1052F823300A497A6851F82220104609499F
S31508002E207A6851F822201146984700BF0837BD46F0
S31508002E3080BD00BF00701040DC0B00205C6A0008F3
S31508002E40A8690008F00B002080B582B000AF1048D2
S31508002E50FFF750FF78600F4A7B6852F82330002B43
S31508002E6002D10D48FEF750FA0A4A7B6852F8233019
S31508002E700A497A6851F82220104609497A6851F8B1
S31508002E8022201146984700BF0837BD4680BD00BFBF
S31508002E9000801040DC0B0020986A0008A86900082A
S31508002EA0F00B002080B582B000AF1048FFF722FF74
S31508002EB078600F4A7B6852F82330002B02D10D4800
S31508002EC0FEF722FA0A4A7B6852F823300A497A68DA
S31508002ED051F82220104609497A6851F822201146ED
S31508002EE0984700BF0837BD4680BD00BF0090104018
S31508002EF0DC0B0020D46A0008A8690008F00B002043
S31508002F0080B582B000AF1048FFF7F4FE78600F4A2C
S31508002F107B6852F82330002B02D10D48FEF7F4F9EE
S31508002F200A4A7B6852F823300A497A6851F82220FF
S31508002F30104609497A6851F822201146984700BF79
S31508002F400837BD4680BD00BF00601240DC0B00207C
S31508002F50106B0008A8690008F00B002080B500AFC8
S31508002F60044B1B68044A126811460448984700BF78
S31508002F7080BD00BF080C0020040C00200040134050
S31508002F8080B582B000AF786039603B68012B02D902
S31508002F900648FEF7B9F9064A3B6852F82330184640
S31508002FA0FEF702FF00BF0837BD4680BD586B000814
S31508002FB04C6B000880B582B000AF7860396039681C
S31508002FC07868FFF7DDFF054A3B6832F81330184684
S31508002FD002F07CFE00BF0837BD4680BD546B000872
S31508002FE080B485B000AF154BD3F82C38BB60BB68EE
S31508002FF023F4616323F00F03002B16D00023FB6034
S3150800300010E0FB68BA6822FA03F303F00103002B09
S3150800301005D0FB6803F54E4340337B6005E0FB684B
S315080030200133FB60FB681F2BEBDD00237B607B68AD
S3150800303018461437BD465DF8047B704700A000406B
S3150800304080B483B000AF104B7B6002E07B68013B25
S315080030507B600E4BD3F8203803F48003002B02D094
S315080030607B68002BF2D17B68002B03D14CF64763B3
S315080030703B6001E000233B603B6818460C37BD46C1
S315080030805DF8047B704700BFE070720000A0004046
S3150800309080B400AF064B4FF48052C3F82028044B87
S315080030A0044AC3F82C2800BFBD465DF8047B704768
S315080030B000A00040E0F1FFFF80B500AF40F211101C
S315080030C0FEF772FE40F2111002F000FE064B4FF6B4
S315080030D0FF72A3F85022044B4FF6FF72A3F84C2256
S315080030E00023184680BD00BF0034004580B582B075
S315080030F000AFFFF7A5FF78607B68002B0BD10C4B60
S315080031000122C3F8042840F21110FEF7D9FE40F256
S31508003110111000F029FE074B0022A3F85022054B98
S315080031200022A3F84C227B6818460837BD4680BDA6
S3150800313000A000400034004580B584B000AF786038
S3150800314039600423FB603B68002B23D0FFF778FF28
S31508003150F860FB68002B1FD1FFF79AFF124A7B68BD
S31508003160C3F30803C2F800380F4B0122C3F80C2832
S31508003170FFF766FFF860FB68002B0FD1FFF730FFFB
S31508003180F860FB68002B0AD1074BD3F810283B6878
S315080031901A6004E000BF02E000BF00E000BFFB6861
S315080031A018461037BD4680BD00A000402DE9F00F37
S315080031B08EB000AFF862B9624AF210437B63424AA6
S315080031C0FB6A9BB2A2F81C323F4A0023A2F83C32A3
S315080031D03D4A0023A2F828323B4BB3F828329BB26B
S315080031E0394A43F001039BB2A2F8283202E07B6B0E
S315080031F0013B7B637B6B002B06D0334BB3F8203245
S315080032009BB21BB2002BF2DA7B6B002B54D02E4BF1
S31508003210B3F818329BB203F00203002B4CD02A4BAA
S31508003220B3F814329BB29BB200223B627A624FF02B
S3150800323000004FF000013B6A19040020224BB3F846
S3150800324010329BB29BB20022BB61FA614FF00002BA
S315080032504FF00003BE693300002240EA020A41EA41
S31508003260030B194BB3F80C329BB29BB200223B619D
S315080032707A61D7E904120B464FEA13490B464FEA1F
S3150800328003484AEA08044BEA09050F4BB3F8083223
S315080032909BB29BB20022BB60FA60D7E902120B46CA
S315080032A023433B6013462B437B60BB6AD7E9001276
S315080032B0C3E90012012300E0002318463837BD464B
S315080032C0BDE8F00F704700BF0034004580B584B0F4
S315080032D000AF78600123FB607B68002B02D10748AA
S315080032E0FEF712F840F24E21786802F099FCF86071
S315080032F0FB6818461037BD4680BD00BF8C6B0008BA
S3150800330080B586B000AF786001237B614FF000027C
S315080033104FF00003C7E902237B68002B02D10D4852
S31508003320FDF7F2FF07F1080340F25D11184602F0B7
S3150800333077FC78617B69002B06D1D7E9022313460F
S315080033401B0CDAB27B681A607B6918461837BD46CB
S3150800335080BD00BFAC6B000880B485B000AF786054
S315080033607B6803F00703FB600C4BDB68BB60BA683D
S315080033704FF6FF031340BB60FB681A02BB68134392
S3150800338043F0BF6343F40033BB60044ABB68D360B1
S3150800339000BF1437BD465DF8047B704700ED00E0BA
S315080033A080B400AF044BDB681B0A03F0070318461A
S315080033B0BD465DF8047B704700ED00E080B584B03B
S315080033C000AFF860B9607A603B60BB68002B02D139
S315080033D03948FDF799FF7B68002B02D13748FDF77E
S315080033E093FF3B68002B02D13548FDF78DFFBB687C
S315080033F049F2A3521A60BB68324A5A60BB6840F267
S31508003400EE229A60FB68022B37D0FB68022B4BD85A
S31508003410FB68002B03D0FB68012B17D044E07B68C0
S3150800342045F212621A607B68274A5A607B684FF435
S315080034305C729A603B6843F27C221A603B68234AB6
S315080034405A603B684FF496629A6030E07B6845F2B2
S315080034508F521A607B681E4A5A607B6840F2253292
S315080034609A603B6843F27C221A603B68174A5A60A6
S315080034703B684FF496629A6019E07B6845F28C6265
S315080034801A607B68134A5A607B6840F225329A6054
S315080034903B6843F275221A603B680F4A5A603B68DC
S315080034A04FF496629A6002E00C48FDF72DFF00BFC4
S315080034B01037BD4680BD00BFD46C0008EC6C000810
S315080034C0046D0008D0FCAF1E600E411EC0D1091E57
S315080034D0909CA51E20218C1E2056981E1C6D000847
S315080034E080B584B000AF4FF0E0235B6803F00F03AC
S315080034F00133BB60BB685B017B60BB68052B02D9E7
S315080035004248FDF701FF7B68A02B02D94048FDF72A
S31508003510FBFEFFF745FF03463E4A13600023FB60A8
S315080035200BE03D4AFB6852F823203A49FB689B00AA
S315080035300B445A60FB680133FB60FA68BB689A4221
S31508003540EFD30023FB600FE0334AFB68134403F50F
S3150800355040731B78D9B22F4AFB68134418330A46BE
S315080035601A70FB680133FB60FA687B689A42EBD3F2
S315080035702A4B5B68274AC2F8C430284B9B68254A01
S31508003580C2F8C830254BDB68224AC2F8CC30234B38
S315080035901B69204AC2F8D030204B5B691D4AC2F825
S315080035A0D4301E4B5B6A1B4AC2F8D8301B4B5B6B88
S315080035B0184AC2F8DC30194B9B6B164AC2F8E03041
S315080035C0164BD3F88830134AC2F8E430134BD3F8B5
S315080035D08C30104AC2F8E8300023FB600EE00F4A30
S315080035E0FB68134418331B78D9B20A4AFB6813449C
S315080035F0B8330A461A70FB680133FB60FB680B2B6D
S31508003600EDD900BF00BF1037BD4680BD346D000838
S31508003610706D00080C0C002000E100E000ED00E0F1
S3150800362080B584B000AF4FF0E0235B6803F00F036A
S315080036300133BB60BB685B017B603D4B1B6818466A
S31508003640FFF78AFE0023FB600BE03A49384AFB681D
S315080036509B0013445A68FB6841F82320FB68013332
S31508003660FB60FA68BB689A42EFD30023FB600EE062
S31508003670304A2F49FB680B4418331978FB68134402
S3150800368003F540730A461A70FB680133FB60FA6853
S315080036907B689A42ECD3284A254BD3F8C43053604A
S315080036A0254A234BD3F8C8309360234A204BD3F8D6
S315080036B0CC30D360204A1E4BD3F8D03013611E4A53
S315080036C01B4BD3F8D43053611B4A194BD3F8D83067
S315080036D05362194A164BD3F8DC305363164A144B17
S315080036E0D3F8E0309363144A114BD3F8E430C2F8A8
S315080036F08830114A0E4BD3F8E830C2F88C300023D4
S31508003700FB600DE00C4A0A49FB680B44B83319788C
S31508003710FB68134418330A461A70FB680133FB60CA
S31508003720FB680B2BEED900BF00BF1037BD4680BD26
S315080037300C0C002000E100E000ED00E080B500AFD1
S31508003740084B1B6B074A43F080031363064B1B6841
S31508003750002B05D0044B1B68044A1268104698478C
S3150800376000BF80BD001003402C0D0020300D002046
S3150800377080B584B000AF0346FB80B7F90630FB601E
S31508003780B7F90630002B02DA6C48FDF7BDFDB7F92C
S3150800379006301D2B0BDC6A4BD3F884200121FB680D
S315080037A001FA03F366491343C1F8843024E0B7F9F4
S315080037B00630382B0CDC624BD3F88820FB68203B9C
S315080037C0012101FA03F35E491343C1F8883013E077
S315080037D0B7F90630772B0FDCB7F906306B2B0BDD04
S315080037E0574BD3F89020FB68603B012101FA03F39D
S315080037F053491343C1F89030B7F90630202B6DD0E2
S31508003800202BC0F29580652B00F392803E2BC0F2E8
S315080038108F803E3B272B00F28B8001A252F823F0C3
S31508003820EB38000831390008313900083139000809
S3150800383031390008313900083139000831390008B2
S315080038403139000831390008F93800080739000805
S315080038503139000831390008313900083139000892
S315080038603139000831390008313900083139000882
S315080038703139000831390008313900083139000872
S315080038803139000831390008313900083139000862
S31508003890153900082339000831390008313900087C
S315080038A03139000831390008313900083139000842
S315080038B03139000831390008C1380008CF38000806
S315080038C01F4B9B691E4A43F00103936131E01C4B71
S315080038D09B691B4A43F0020393612AE0184B9B69D4
S315080038E0174A43F00403936123E0154B9B69144A76
S315080038F043F0100393611CE0114B9B69104A43F097
S315080039002003936115E00E4B9B690D4A43F0400373
S3150800391093610EE00A4B9B69094A43F08003936161
S3150800392007E0074B9B69064A43F48073936100E0FE
S3150800393000BF00BF1037BD4680BD00BFAC6D000894
S315080039400010034080B58EB000AF03463960FB71A6
S3150800395007F1240300221A605A609A6007F11803D7
S3150800396000221A605A609A6007F10C0300221A6056
S315080039705A609A6007F10C0307F1180207F124014F
S315080039803868FFF71BFD714B9B697B636F4A7B6B3E
S3150800399023F002039361FA7913469B00134403F25A
S315080039A076233B637A6B6A4B13407B63796A3A6B7F
S315080039B013469B0013445B001A46FB6A134403FB39
S315080039C001F2BB6A134403F5742303F23F23614AE9
S315080039D0A2FB03239B0C1A055F4B13407A6B134318
S315080039E07B63796A3A6B13469B0013445B001A465D
S315080039F0FB6AD31A03FB01F2BB6A1344554AA2FBBE
S31508003A0003239B0C1A02554B13407A6B13437B63B3
S31508003A104E4A7B6B23F0020393614C4A7B6B93619E
S31508003A204A4B1B6A7B63494A7B6B23F0020313628A
S31508003A307A6B474B13407B63BA693B6A03F593433A
S31508003A40543303FB02F2FB69134403F5742303F2B0
S31508003A503F23404AA2FB03239B0C1A053E4B134007
S31508003A607A6B13437B63BA693B6AC3F585434C3368
S31508003A7003FB02F2FB691344364AA2FB03239B0CA1
S31508003A801A02364B13407A6B13437B632F4A7B6BC0
S31508003A9023F0020313627B6B23F00C0343F0040349
S31508003AA07B632A4A7B6B23F002031362274A7B6BEC
S31508003AB01362264B9B6A7B63244A7B6B23F00203C3
S31508003AC093627A6B224B13407B63FA687B6903F532
S31508003AD00D43CC3303FB02F23B69134403F574230D
S31508003AE003F23F231B4AA2FB03239B0C1A051A4B1E
S31508003AF013407A6B13437B63FA687B69C3F590437B
S31508003B00443303FB02F23B691344124AA2FB032324
S31508003B109B0C1A02114B13407A6B13437B630B4AB7
S31508003B207B6B23F0020393627B6B23F00C0343F059
S31508003B3004037B63054A7B6B23F002039362034A03
S31508003B407B6B936200BF3837BD4680BD0040004599
S31508003B50FF000CC083DE1B430000F03F00FF03009C
S31508003B6080B584B000AF7860396001F095FC02F04A
S31508003B70CBFD294B062283F85A207B68002B02D1FD
S31508003B806023FB7317E07B68244AA2FB03239B0987
S31508003B907B607B68C3F12403BB60BB68002B02DB38
S31508003BA0BB68122B02D91E48FDF7AEFB1D4ABB683F
S31508003BB013441B78FB73FB7B03F07F031A4A43F01D
S31508003BC0602343F4081353644FF4167002F094FD0F
S31508003BD0FB7B39681846FFF7B5FE144B9B68DBB2CA
S31508003BE023F00C03FB73FB7B43F00403DAB20F4BA1
S31508003BF09A600E4B1B69DBB223F00C03FB73FB7B4D
S31508003C0043F00403DAB2094B1A6102F079FD00BFEA
S31508003C101037BD4680BD00BF00200045D34D621059
S31508003C20D06D0008C06C0008001003400040004535
S31508003C3080B58AB000AF786039607B683B62454BD7
S31508003C40D3F81431DBB2FB61FB69022B7CD17B68AC
S31508003C50DBB2BB613B68002B1AD1BB6903FB03F3DC
S31508003C606FF06A0203FB02F2BB6943F27B4101FB78
S31508003C7003F3134403F50D3303F533737B617B6953
S31508003C80354A82FB03121213DB17D31A7B623EE016
S31508003C903B68012B1BD1BB6903FB03F21346920059
S31508003CA09B1A5B011946BB6943F2200202FB03F328
S31508003CB00B4403F5143303F5C2737B617B69264A0B
S31508003CC082FB03121213DB17D31A7B621FE03B68D1
S31508003CD0022B02D02148FDF717FBBB6903FB03F350
S31508003CE06FF0390203FB02F2BB6942F2960101FB4F
S31508003CF003F3134403F5713303F222237B617B69D3
S31508003D00154A82FB03121213DB17D31A7B627B6AEE
S31508003D101B063B62124B1B693B614FF080431B69D4
S31508003D20FB600F4B4FF000721A644FF080434FF060
S31508003D3000721A670B4A3B6A1360094A3B691361AA
S31508003D404FF08042FB6813613B6A18462837BD4628
S31508003D5080BD00BF00100045AD8BDB68186E0008FB
S31508003D60001000400CC0154080B586B000AF034671
S31508003D70FB80FB881B0A9BB27B61FB88DBB23B613D
S31508003D8001223B6902FA03F3FB603B691F2B02D948
S31508003D903148FDF7B9FA7B69052B57D801A252F8C5
S31508003DA023F000BFBD3D0008D73D0008F13D0008DF
S31508003DB00B3E0008213E0008373E00084FF08042BF
S31508003DC0FB68136400BF4FF080431A69FB68134011
S31508003DD0002BF8D03BE04FF08042FB68536400BFED
S31508003DE04FF080435A69FB681340002BF8D02EE049
S31508003DF04FF08042FB68936400BF4FF080439A6996
S31508003E00FB681340002BF8D021E0144AFB681364C2
S31508003E1000BF124B1A69FB681340002BF9D016E055
S31508003E200E4AFB68536400BF0C4B5A69FB68134083
S31508003E30002BF9D00BE0094AFB68936400BF074BD7
S31508003E409A69FB681340002BF9D000E000BF00BF59
S31508003E501837BD4680BD00BF386E00080000024016
S31508003E6080B586B000AF0346FB80FB881B0A9BB271
S31508003E707B61FB88DBB23B6101223B6902FA03F3F3
S31508003E80FB603B691F2B02D93448FDF73DFA7B6975
S31508003E90052B5DD801A252F823F000BFB53E0008F5
S31508003EA0D13E0008ED3E0008093F0008213F000802
S31508003EB0393F00084FF08042FB68136700BF4FF098
S31508003EC080431A69FB681340FA689A42F7D040E0C3
S31508003ED04FF08042FB68536700BF4FF080435A6932
S31508003EE0FB681340FA689A42F7D032E04FF08042F6
S31508003EF0FB68936700BF4FF080439A69FB681340DD
S31508003F00FA689A42F7D024E0154AFB68136700BF9F
S31508003F10134B1A69FB681340FA689A42F8D018E0FE
S31508003F200F4AFB68536700BF0D4B5A69FB6813407D
S31508003F30FA689A42F8D00CE0094AFB68936700BF12
S31508003F40074B9A69FB681340FA689A42F8D000E072
S31508003F5000BF00BF1837BD4680BD00BF586E0008B9
S31508003F600000024080B586B000AFF860B9607A609C
S31508003F70FB68002B05D0BB68002B02D07B68002BA2
S31508003F8002D16A48FDF7C0F9FB68002B05D0BB686B
S31508003F90002B02D07B68002B01D10423C2E001214B
S31508003FA0F868FEF7CDFE78617B69002B01D07B6946
S31508003FB0B8E0BB685B7A002B23D0FB68D3F8003ED9
S31508003FC043F00112FB68C3F8002EFB68D3F8083EDD
S31508003FD023F47062FB68C3F8082EFB68D3F8082E32
S31508003FE0BB685B7B1B0203F470631A43FB68C3F868
S31508003FF0082EFB68D3F8083E43F00102FB68C3F8B5
S31508004000082EBB681B7A002B23D0FB68D3F8003E2A
S3150800401043F00212FB68C3F8002EFB68D3F8083E8B
S3150800402023F47022FB68C3F8082EFB68D3F8082E21
S31508004030BB689B7B1B0403F470231A43FB68C3F815
S31508004040082EFB68D3F8083E43F00202FB68C3F863
S31508004050082EBB681B791B0103F03002BB685B792D
S315080040609B0103F040031A43BB689B799B0003F04E
S315080040700C031A43BB68DB79DB039BB21A43BB68A4
S31508004080DB7B5B08DBB2DB0203F400631A43BB6825
S31508004090DB7B9B0303F480431A43BB681B7C1B032F
S315080040A003F480531A43BB68DB7ADB01DBB21A439D
S315080040B0BB681B7B5B0203F40073134343F00102E6
S315080040C0FB681A60BB68DB7A002B17D0BB681B68D5
S315080040D04FF41652B2FBF3F101FB03F3D31A002B8C
S315080040E009D1BB681B684FF41652B2FBF3F35A1E8C
S315080040F0FB681A620FE041F2516313E0BB681B6864
S315080041007A681946F86800F053F878617B69002BDD
S3150800411001D07B6906E0BB689B7A1946F86801F00E
S31508004120E6FD002318461837BD4680BD786E0008A0
S3150800413080B582B000AF78607B68002B02D11B483F
S31508004140FDF7E2F814220021786802F097F87B68F8
S315080041504FF4E1321A607B6800221A717B680022EC
S315080041605A717B6801229A717B680022DA717B6832
S3150800417000221A727B6800225A727B680022DA7261
S315080041807B6800225A737B6800229A737B68002238
S31508004190DA737B6800229A727B6800221A747B683D
S315080041A000221A7300BF0837BD4680BDC86E0008D6
S315080041B080B58CB000AFF860B9607A604FF0FF3315
S315080041C0FB620F23BB624FF0FF337B62FB68002B59
S315080041D005D0BB68002B02D07B68002B02D154485F
S315080041E0FDF792F8FB68002B05D0BB68002B02D0C0
S315080041F07B68002B01D1042395E0FB681B6803F458
S315080042000063002B10D0FB681B6803F48043002B67
S3150800421000F088807A68BB68B2FBF3F3BB61BB69C0
S315080042205A1EFB681A627DE0BB68424AA2FB03235A
S315080042305A0913465B001344FB61BB6A3B6242E0C2
S315080042403B6A082B03D8FA6AFB699A423FD97A680F
S3150800425013469B0013445B0019463B6A0133BA6850
S3150800426002FB03F3B1FBF3F3053B334AA2FB03233B
S31508004270DB08BB61BB69B3F5803F20D23B6A0133DB
S31508004280BA69013202FB03F37A68B2FBF3F37B6186
S31508004290BA687B699A4203D27A69BB68D31A02E084
S315080042A0BA687B69D31A3B613A69FB6A9A4207D2B4
S315080042B03B69FB623B6ABB62BB697B6200E000BF8D
S315080042C03B6A013B3B623B6A032BB9D800E000BF5F
S315080042D0BB6A01337A6A013202FB03F37A68B2FBDE
S315080042E0F3F37B61BA687B699A4203D27A69BB6841
S315080042F0D31A02E0BA687B69D31A3B613A69FB694B
S315080043009A4202D941F251630DE07B6AB3F5803FC8
S3150800431002D341F2516306E0FB68BA6A9A62FB6807
S315080043207A6A1A62002318463037BD4680BD00BF38
S31508004330EC6E00081F85EB51CDCCCCCC80B584B093
S3150800434000AFF860B9607A60FB68002B02D0BB68E2
S31508004350002B02D11B48FCF7D7FFFB68002B02D0C5
S31508004360BB68002B01D1042327E0FB68D3F8003E85
S3150800437003F00103002B15D104231EE000BFFB68E0
S31508004380D3F8043E03F02003002BF8D0BB681B7853
S315080043901A46FB68C3F8202EBB680133BB607B68EE
S315080043A0013B7B607B68002BE8D100BFFB689B68FC
S315080043B003F00803002BF9D0002318461037BD4632
S315080043C080BD00BF406F000880B586B000AFF860BA
S315080043D0B9607A6000237B61FB68002B02D0BB685A
S315080043E0002B02D13848FCF78FFFFB68002B02D060
S315080043F0BB68002B01D1042361E0FB68D3F8003EBB
S3150800440003F00203002B54D1012358E000BFFB68D8
S31508004410D3F8043E03F04003002BF8D0FB68D3F82A
S31508004420043E03F00203002B13D0FB68D3F8003ECA
S3150800443043F40032FB68C3F8002EFB68D3F8043E49
S3150800444043F00202FB68C3F8042E41F24D637B6118
S3150800445034E0FB689B683B61FB689A683B691A43D2
S31508004460FB689A603B6903F48043002B02D041F253
S3150800447050637B613B6903F40053002B02D041F281
S315080044804F637B613B6903F40043002B02D041F282
S315080044904E637B617B69002B0FD1FB68D3F8303EF6
S315080044A0DAB2BB681A70BB680133BB607B68013B34
S315080044B07B607B68002BA9D100E000BF7B691846AA
S315080044C01837BD4680BD00BF786F000880B588B034
S315080044D000AF786039607B68002B02D13A48FCF758
S315080044E013FF3B68002B02D13848FCF70DFF3B68E9
S315080044F09B7B042B02D93648FCF706FF3B689B7B5F
S315080045001A46344B53F82230002B02D13248FCF7B6
S31508004510FBFE07F108031846FFF70AFE3B685B68CF
S31508004520BB603B681B7B002B03D13B685B7B002B86
S3150800453001D001233B753B681B7A022B02D102236B
S315080045403B7308E03B681B7A032B02D103233B73BA
S3150800455001E000233B733B685B7A012B02D1012300
S315080045607B7301E000237B733B689B7A002B14BFA7
S3150800457001230023DBB23B743B68DB7A002B14BFB4
S3150800458001230023DBB27B7400237B750023BB75F4
S315080045903B689B7B1A460F4B53F822003B681A6808
S315080045A007F108031946FFF7DDFCF861FB69002BE4
S315080045B004D0F86901F0B7FB034600E0002318466B
S315080045C02037BD4680BD00BFC46F0008E86F0008ED
S315080045D00C700008B06F00087070000880B586B0CF
S315080045E000AFF860B9607A60FB68002B02D1124808
S315080045F0FCF78AFEBB68002B02D11048FCF784FE44
S315080046007B68002B02D10E48FCF77EFEFB687B61B7
S315080046107B691B781A460B4B53F822307A68B968BF
S315080046201846FFF7D1FE3861386901F07CFB03466E
S3150800463018461837BD4680BDB0700008D47000080B
S31508004640F4700008B06F000880B586B000AFF86057
S31508004650B9607A60FB68002B02D11048FCF754FE5B
S31508004660BB68002B02D10E48FCF74EFE7B68002B78
S3150800467002D10C48FCF748FEFB687B617B691B7816
S315080046801A46094B53F822307A68B9681846FFF774
S3150800469055FE002318461837BD4680BD1871000818
S315080046A03C7100085C710008B06F000880B400AF68
S315080046B0064B1B6803F00103002B14BF01230023DC
S315080046C0DBB21846BD465DF8047B704700700040B3
S315080046D0B0B483B000AF44F2580179600F490120A5
S315080046E04860796801F285417960796800200C464E
S315080046F005464FF000004FF000012100002040F071
S31508004700AA6242F4A52242F4C06242F007020B46AE
S31508004710104619460C37BD46B0BC704700700040BD
S315080047202DE9B04F8AB000AF786145F252033B627B
S315080047305B4B7B625B4B1B6802220421184601F027
S315080047401EFB0346012B5ED1564BDB6C042210215F
S31508004750184601F014FB0346012B02D1524B7B622B
S3150800476053E0504BDB6C03220821184601F007FB87
S315080047700346012B02D14D4B7B6246E0494BDB6C6D
S3150800478001220221184601F0FAFA0346012B02D14A
S31508004790474B7B6239E0434BDB6C02220421184607
S315080047A001F0EDFA0346012B02D1424B7B622CE065
S315080047B03C4BDB6C00220121184601F0E0FA034667
S315080047C0012B02D13C4B7B621FE0364BDB6C05228A
S315080047D02021184601F0D3FA0346012B02D1374BA4
S315080047E07B6212E02F4BDB6C08224FF4807118466F
S315080047F001F0C5FA0346012B02D1314B7B6204E076
S31508004800274B7B6201E02F4B7B627B69012B27D10B
S3150800481000F09AF8C7E90601D7E906014FF0000249
S315080048204FF000030A0000233B6A13443B623B6ACD
S31508004830A3F59A430B3B3B627B6A00229A46934652
S315080048403B6A0022BB60FA604FF000024FF000039B
S31508004850B9680B0000224AEA02044BEA030517E08E
S315080048603B6A03F5105304333B627B6A0022984681
S3150800487091463B6A00223B607A604FF000024FF097
S31508004880000339680B00002248EA020449EA0305D6
S3150800489022462B46104619462837BD46BDE8B08F36
S315080048A0F0F0550500700040305355057053550516
S315080048B038535505345355053C535505745355051A
S315080048C078535505032E55052DE9B04F88B000AF2E
S315080048D078601C4BFB6100BFFFF7E8FE0346002B20
S315080048E0FAD17868FFF71CFFC7E90401D7E9040184
S315080048F04FF000024FF000030A000023FB6913443F
S31508004900FB613B69FB60FB6903F512532133FB61CD
S31508004910FB6800221C461546FB6900229A46934608
S315080049204FF000024FF000035346002244EA020803
S3150800493045EA030942464B46104619462037BD4606
S31508004940BDE8B08FC29BFFFF2DE9B04382B000AF30
S3150800495045F20A037B60174B01221A6500BF154B07
S315080049601B6802220421184601F009FA0346002BA7
S31508004970F5D17B6803F5045305337B607B68002219
S31508004980984691464FF000024FF000034346002236
S3150800499042F0AA6444F4A52444F4C06444F0030431
S315080049A01D4622462B46104619460837BD46BDE821
S315080049B0B08300BF0070004080B483B000AF786059
S315080049C0044A7B68136200BF0C37BD465DF8047B5A
S315080049D0704700BF0070004080B487B000AFF86031
S315080049E0B9607A60FB68DB00DAB27B681B0203F405
S315080049F08073134343F003037B61064ABB689360E5
S31508004A00044A7B69536000BF1C37BD465DF8047BCA
S31508004A10704700BF0070004080B400AF064B1B68AB
S31508004A2003F00103002B14BF01230023DBB2184651
S31508004A30BD465DF8047B70470070004080B582B0C3
S31508004A4000AF00237B600D4B1B683B603B46184656
S31508004A50FDF77AFC4CF26850FDF7B4FA0320FDF72F
S31508004A60C5FC78607B6801224FF4E1310320FCF72E
S31508004A7057FC00BF0837BD4680BD00BF80710008DF
S31508004A8080B592B000AF786039607B68DB683968BA
S31508004A901846FFF7CDF802467B68DA60434B0222D8
S31508004AA0C3F8A8274FF0804302225A67FFF710FE83
S31508004AB0C7E91001D7E910014FF000024FF00003D3
S31508004AC00A0000231346FB633B6CBB63FB6B44F293
S31508004AD0DD42934203D1BB6B354A934202D0354837
S31508004AE0FCF712FC0120FFF7EFFEC7E90C01D7E936
S31508004AF00C014FF000024FF000030A000023134692
S31508004B00FB623B6BBB62FB6A43F2B942934203D139
S31508004B10BB6A294A934202D02848FCF7F5FB786815
S31508004B2001F03FF9C7E90801D7E908014FF000028B
S31508004B304FF000030A0000231346FB613B6ABB6182
S31508004B40FB6946F63C12934203D1BB69184A934265
S31508004B5002D01B48FCF7D8FB0120FFF7B5FEC7E9D2
S31508004B600401D7E904014FF000024FF000030A00E0
S31508004B7000231346FB603B69BB60FB6843F2B942FE
S31508004B80934203D1BB680C4A934202D00D48FCF706
S31508004B90BBFB00BF0C4B1B6803F00103002BF9D1CC
S31508004BA000BF00BF4837BD4680BD00BF00100040AB
S31508004BB0072E5505A4710008032E5505B87100087F
S31508004BC0CC710008E07100080070004080B58CB018
S31508004BD000AF4D4BD3F81431DBB2FB6207F120036B
S31508004BE01846FEF773FBB86201F08EFDBB6A002B10
S31508004BF073D107F11C031846FEF782FBB862BB6A3D
S31508004C00002B0DD1FB6A022B04D1D7E908231346E2
S31508004C101B0C00E00023FA6911461846FEF7A0FFB0
S31508004C20BB6A002B06D13B4619469520FEF784FA47
S31508004C30034600E0BB6ABB62BB6A002B07D13B4652
S31508004C40043319469620FEF777FA034600E0BB6A56
S31508004C50BB62BB6A002B07D13B460833194697202F
S31508004C60FEF76AFA034600E0BB6ABB62BB6A002B22
S31508004C700DD1FB6A022B01D19B2200E098223B460C
S31508004C800C3319461046FEF757FA034600E0BB6A8E
S31508004C90BB62BB6A002B07D13B46103319469920E5
S31508004CA0FEF74AFA034600E0BB6ABB62BB6A002B02
S31508004CB007D13B46143319469A20FEF73DFA0346B8
S31508004CC000E0BB6ABB62BB6A002B16D1FA693B4699
S31508004CD011461846FFF7D4FE0FE000F0DDFB0B4B3C
S31508004CE0062283F85A200A4B0A4A5A640A4B1B685A
S31508004CF019464FF41670FDF7B7FF01F001FD00BF26
S31508004D003037BD4680BD00BF001000450020004575
S31508004D100010034054602260B80B002080B500AF35
S31508004D20FEF7CAF9FFF752FFFEF7E0F9144BB3F1A5
S31508004D30006F03D3124BB3F1805F07D3104BB3F167
S31508004D40C05F09D30E4BB3F1005F05D204220621DA
S31508004D500C4801F0E1FC10E01020FFF781F8094843
S31508004D6001F0D6FC47F22060FDF72CF91020FDF77C
S31508004D70A7F81020FEF7F8FF00BF00BF80BD00BFF0
S31508004D803D4A00080040134080B500AF0B4BB3F115
S31508004D90006F03D3094BB3F1805F07D3074BB3F119
S31508004DA0C05F08D3054BB3F1005F04D2022202218B
S31508004DB0034801F0B1FC00BF80BD00BF3D4A0008B2
S31508004DC00040134080B500AF01F09EFC3B4B9B6A48
S31508004DD003F00203002B02D13948FCF7E5FF394BF3
S31508004DE0D3F8903003F40073002B02D03648FCF752
S31508004DF0DBFF0120FDF780FC3448FCF7D5FF34487B
S31508004E00FCF7D2FFFFF78AFF3248FDF7DBF80121EE
S31508004E104FF4806000F0EBFD02212F48FDF7C2FB3E
S31508004E204FF48030FCF7C0FF0120FDF70DFC2B483E
S31508004E30FCF7BAFF01214FF4127000F0D8FD28489C
S31508004E40FDF7A4FE012148F2402000F0D0FD012123
S31508004E504FF4806000F0CBFD01214FF4107000F094
S31508004E60C6FD42F23440FDF7ADF8012140F2647008
S31508004E7000F0BDFD4FF4EC60FDF7A4F80D2148F2F3
S31508004E80FC6000F0B4FDFFF77FFF4220FDF79AF8BB
S31508004E90144BD3F8283423F47C33124A43F478337A
S31508004EA0C2F82834642148F2687000F0A0FD01F0C9
S31508004EB027FC0D4B0D4A1A6000BF80BD0010034049
S31508004EC02000010000300040090001000400010034
S31508004ED00500010030043404006CF7B90300010032
S31508004EE0F471000800100045B80B002000497F0F38
S31508004EF080B586B000AFF860B9607A603B609B4BBE
S31508004F007B613B6803F40033002B08D04FF0402345
S31508004F101A68BB68DB434FF0402113400B603B68BF
S31508004F2003F48033002B11D04FF040231A6BFB6833
S31508004F30DB434FF0402113400B634FF040235A6B7D
S31508004F40BB68DB434FF0402113404B633B681B0BA8
S31508004F5003F00F030F2B21D13B6AB3F5004F02D0A4
S31508004F608348FCF7D1F94FF040239B684FF0402265
S31508004F7023F0800393604FF04023DB684FF0402214
S31508004F8023F49F6323F00503D3604FF040231B6986
S31508004F904FF0402223F48763136119E03B68C3F39B
S31508004FA00A03002B14D03B681B0B03F00F039B006E
S31508004FB07A69134419683B68C3F30A03DA433B6802
S31508004FC01B0B03F00F039B00786903440A401A6021
S31508004FD07B6A002B08D04FF040231A6A7B6ADB43B2
S31508004FE04FF0402113400B62FB6AC3F30E03002BFC
S31508004FF00AD04FF040235A6AFB6AC3F30E03DB4319
S315080050004FF0402113404B62FB6A1B0CC3F30E039F
S31508005010002B0BD04FF040239A6AFB6A1B0CC3F394
S315080050200E03DB434FF0402113408B627B6B002B52
S3150800503008D04FF04023DA6A7B6BDB434FF0402100
S315080050401340CB627B6803F40033002B07D04FF084
S3150800505040231A684FF04021BB6813430B607B68F6
S3150800506003F48033002B0FD04FF040231A6B4FF018
S315080050704021FB6813430B634FF040235A6B4FF0F4
S315080050804021BB6813434B637B68C3F30A03002BB9
S3150800509013D07B681B0B03F00F039B007A6913443C
S315080050A019687B68C3F30A027B681B0B03F00F03BE
S315080050B09B00786903440A431A603B6A002B07D0B1
S315080050C04FF040231A6A4FF040213B6A13430B62A4
S315080050D0BB6AC3F30E03002B09D04FF040235A6A6C
S315080050E0BB6AC3F30E034FF0402113434B62BB6AFE
S315080050F01B0CC3F30E03002B0AD04FF040239A6A09
S31508005100BB6A1B0CC3F30E034FF0402113438B629B
S315080051103B6B002B07D04FF04023DA6A4FF0402153
S315080051203B6B1343CB62FB6803F07C633B61114B1B
S31508005130D3F838253B69D943FB680B400D4913431F
S31508005140C1F838350B4BD3F83C250A49BB681343DD
S31508005150C1F83C35084BD3F8382507493B69134352
S31508005160C1F8383500BF1837BD4680BD0440004039
S31508005170F8710008001000450008004580B586B0A3
S3150800518006AF4FF010130593002304934FF0401316
S315080051900393002302934FF04043019300230093A7
S315080051A01A4B4FF4485200214FF0A060FFF7A0FEBB
S315080051B000230593002304930023039300230293FB
S315080051C0002301930023009340F22E334FF48032DC
S315080051D000210420FFF78CFE002305930023049387
S315080051E04FF080130393002302934FF48033019307
S315080051F00023009343F2ED034FF4803200214FF071
S315080052000070FFF775FE00BFBD4680BDEE31010098
S3150800521080B500AF2B4BD3F888302A4A43F4700385
S31508005220C2F88830274BD3F88830264A43F00F0354
S31508005230C2F88830234BD3F88C30224A43F44063B3
S3150800524043F00303C2F88C301F4BB3F1006F03D34E
S315080052501D4BB3F1805F07D31B4BB3F1C05F2DD352
S31508005260194BB3F1005F29D2184BDB69002B25D106
S31508005270164B4FF0A062C3F80028144BD3F8003839
S31508005280124A43F00043C2F8003800BF0F4BD3F868
S315080052900038002BFADB0D4B0322C3F800280B4B12
S315080052A00B4A5A61094B00229A61084B0122DA61BE
S315080052B0BFF36F8F00BFBFF34F8F00BF00F0D0FF63
S315080052C000BF80BD00ED00E099540008003003409F
S315080052D000FCFF0780B483B000AF00237B600E4B51
S315080052E093F8D930DBB203F00F03052B02D10B4B31
S315080052F07B6009E0084B93F8D930DBB203F00F0363
S315080053000A2B01D1064B7B607B6818460C37BD46D5
S315080053105DF8047B704700BF00200045236E8C03B0
S315080053203E07E10280B483B000AF00237B601E4BCA
S31508005330D3F888305B0ADBB23B601C4BD3F8803469
S3150800534003F02003002B10D03B684A2B0DD93B688D
S31508005350602B0AD83B684B3B3B603B68144A03FB0F
S3150800536002F2144B13447B6016E0104BD3F88034DA
S3150800537003F02003002B0FD13B684D2B0CD93B685B
S31508005380642B09D83B684E3B3B603B680A4A03FBE3
S3150800539002F20A4B13447B607B6818460C37BD46FD
S315080053A05DF8047B704700BF0030004000080045E8
S315080053B0005A6202005ED0B200F04902002087B2AD
S315080053C080B483B000AF044B7B607B6818460C370B
S315080053D0BD465DF8047B70470040420F80B582B039
S315080053E000AFFFF79FFF0346044AA2FB0323DB082F
S315080053F07B607B6818460837BD4680BDABAAAAAA5B
S3150800540080B400AF0C4BD3F86831002B0AD10B4B94
S31508005410D3F8803403F02003002B01D1084B05E0B4
S31508005420084B03E0044BD3F8683100231846BD4601
S315080054305DF8047B704700BF001000400008004577
S3150800544000F04902005A620280B400AF074BD3F855
S31508005450803403F02003002B01D1054B00E0054BF7
S315080054601846BD465DF8047B704700BF0008004536
S3150800547000A60E0040420F0080B500AFFFF7AEFF52
S315080054800246044BD3F84032DBB20133B2FBF3F3E6
S31508005490184680BD0010004080B582B000AF0023DA
S315080054A07B602C4BD3F8343403F00303032B3FD82B
S315080054B001A252F823F000BFC95400081955000884
S315080054C02155000829550008224BD3F8303403F03B
S315080054D00303032B1CD801A252F823F0ED5400084D
S315080054E0F55400080155000809550008FFF788FF1C
S315080054F0786010E000F0A5FE03469B087B600AE092
S31508005500FFF7A2FF786006E000F09BFE786002E0F5
S3150800551000237B6000BF0EE000F09AFE78600AE088
S31508005520FFF7AAFF786006E04FF400437B6002E0CD
S3150800553000237B6000BF074BD3F80034DBB201338E
S315080055407A68B2FBF3F3044A136000BF0837BD4616
S3150800555080BD00BF00100040B80B002010B5174AE8
S315080055601749002000F02BFF4FF480734FF4806238
S315080055700021124800F09CFE124A1349012000F04F
S315080055801EFF4FF480734FF4806200210D4800F02F
S315080055908FFE0E4B1B68022B0EDD0D4A0A490220B0
S315080055A000F00DFFBDE810404FF480734FF48062A1
S315080055B00021074800F07CBE10BD00BF480D002042
S315080055C0A0720008840D0020A27200089C720008D0
S315080055D0C00D00202DE9F041D5688046EB020E4645
S315080055E01446576905D5384601F073F845F0100595
S315080055F0A061124B2B408BB13846A16901F072F8B5
S31508005600002806DAE3684FF0FF3043F08003E360D2
S3150800561011E025F4003525F01005E56032464146CF
S31508005620384601F065F820F00043F61AA3693344BA
S31508005630A3610028E6D1BDE8F08100BF1000020092
S31508005640F8B5044638B905460A4B0B4E1F68A742FB
S3150800565005DC2846F8BDBDE8F84000F043BF3046F3
S3150800566000F040FF002818BF4FF0FF3501343C36E4
S31508005670EDE700BF9C720008480D00202DE9F843AD
S31508005680C6683B4B044633400D469046D0F8149006
S315080056906BB1484601F020F8074640B9B8F1010F4A
S315080056A009D0B8F1020F31D0B8F1000F07D00227A0
S315080056B03846BDE8F883204600F05CF80544002D1E
S315080056C0F5DBB30404D52368E26A9A4238BFE3627D
S315080056D0A069A8420EDC2368E26A934238BF1346E3
S315080056E022691918891AA94204DB216B00EB010CFF
S315080056F0AC452CDC0023C4E9013346F02006A5623C
S3150800570026F4032626F04006E660D1E7484600F070
S31508005710E0FFB0F1000CE26804DA42F080020127EB
S31508005720E260C5E72168A369E06A81422CBF5B187D
S315080057301B1821699206A3EB010303D5A26A9342BB
S31508005740B8BF13466345ACBFED186544B7E72D1AD5
S31508005750B00744BF691AA160F10744BF9B1AEB1A48
S315080057602A4448BF6360226026F02006C8E700BFC7
S3150800577003001000C3689A0705D121220D4B4FF08C
S31508005780FF301A60704703F020021B0309D512B1D7
S31508005790806A013870470368826900691344181AD9
S315080057A0F7E70AB1806A704703688269006913449B
S315080057B0181A7047440D00200FB480B582B000AFA8
S315080057C000237B6007F114033B6039683869FBF7EF
S315080057D0EBFD78607B6818460837BD46BDE8804013
S315080057E004B0704780B586B000AFB9607A603B6098
S315080057F00346FB73BB687B610BE0FA7B3B6A10468A
S3150800580098473B681B685A1C3B681A607B690133DA
S315080058107B617A697B689A42EFDB00BF00BF183765
S31508005820BD4680BD80B48FB000AFF860B9607A60BD
S315080058303B600023FB62FB68BB62BB6A5A1CBA6208
S3150800584000221A7000237B6000237B6200233B62E0
S315080058500023FB6100237B630023BB6100233B63BA
S3150800586000237B61BB681B687B637B6B002B30D195
S31508005870BB6A30221A70FB6A0133FB62FB6A2CE0B2
S315080058803B687A6BB2FBF3F3BB613B68BA6902FB10
S3150800589003F37A6BD31A3B633B6B092B03D83B6B39
S315080058A030333B630AE097F84030002B01D04122A1
S315080058B000E061223B6B13440A3B3B63BB697B6395
S315080058C0BB6A5A1CBA623A6BD2B21A70FB6A0133C7
S315080058D0FB627B6B002BD3D1FB6A18463C37BD466F
S315080058E05DF8047B704780B485B000AFF860B96096
S315080058F07A60FB70FA68BB685B011A447B681344DC
S31508005900FA781A7000BF1437BD465DF8047B7047F5
S3150800591080B485B000AFF860B9607A60FB68BA6891
S3150800592002F50C62796843F8221000BF1437BD46A9
S315080059305DF8047B704780B485B000AFF860B96045
S315080059407A60FB68BA6802F50262796843F8221041
S3150800595000BF1437BD465DF8047B704780B485B038
S3150800596000AFF860B9607A60FB68BA6802F506624B
S31508005970796843F8221000BF1437BD465DF8047BEA
S31508005980704704207146084202D0EFF3098001E00F
S31508005990EFF3088081690A884BF6AB639A4200D018
S315080059A0FEE7023181610168012901D0002100E08A
S315080059B020210160704700BF80B400AF4FF4004358
S315080059C01846BD465DF8047B704780B483B000AFC7
S315080059D078607B68002B04D07B681846013800285D
S315080059E0FCD100BF0C37BD465DF8047B704780B418
S315080059F085B000AF03463960FB80B7F90630002B47
S31508005A0009DAFA8840F6FC73134003F1804303F57C
S31508005A100433FB6008E0FA8840F6FC73134003F190
S31508005A20804303F58053FB60FB681B6843F0005214
S31508005A30FB681A603B68002B06D1FB681B6843F0BD
S31508005A408042FB681A6008E03B685A1EFB681A60C9
S31508005A5000BFFB681B68002BFBDB00BF1437BD4685
S31508005A605DF8047B704780B500AFFCF7FFF8034686
S31508005A70184680BD80B500AFFCF724F903461B091C
S31508005A80184680BD80B483B000AF78607B6818463E
S31508005A90A0F101000028FBD100BF0C37BD465DF818
S31508005AA0047B704780B483B000AF78600B46FB7008
S31508005AB0FB78002B01D1012320E0FB78042B0ED8BC
S31508005AC07B68D3F8F82FFB78033322FA03F303F045
S31508005AD00103002B14BF01230023DBB20EE0FB7881
S31508005AE0052B0AD17B68D3F8F83F03F08003002B17
S31508005AF014BF01230023DBB200E0002318460C374D
S31508005B00BD465DF8047B704780B584B000AFF86089
S31508005B100B467A60FB72FB7A1946F868FFF7C2FFF4
S31508005B20034683F00103DBB2002B01D0032321E0F7
S31508005B30FB68D3F8F83F03F00803002B09D0FB688D
S31508005B40D3F8F83F03F00702FB7A9A4201D0012303
S31508005B5010E07B68002B08D0FB7A43F00803DBB221
S31508005B601A46FB68C3F8F82F03E0FA7AFB68C3F80D
S31508005B70F82F002318461037BD4680BD80B584B07F
S31508005B8000AFF860B9607A603B60B968F868FDF7FD
S31508005B90F7F93B681B78002B13D1FB68BA6802F546
S31508005BA0006253F8222001217B6801FA03F3DB43E4
S31508005BB002EA0301FB68BA6802F5006243F822109C
S31508005BC02AE03B685B78002B0AD101227B6802FA3F
S31508005BD003F1FB68BA6802F50A6243F8221009E085
S31508005BE001227B6802FA03F1FB68BA6802F50862CB
S31508005BF043F82210FB68BA6802F5006253F82220BF
S31508005C0001217B6801FA03F342EA0301FB68BA68DB
S31508005C1002F5006243F8221000BF1037BD4680BD6A
S31508005C202DE9B04384B000AF786039600123FB608A
S31508005C307B68002B02D10423FB6020E00023BB60B5
S31508005C401AE07968B868FDF7B1FA0346002B0FD059
S31508005C507B68D3E9002394B200253B680022984666
S31508005C6091464D4508BF444503D10023FB6006E035
S31508005C7000BFBB680133BB60BB683F2BE1D9FB683B
S31508005C8018461037BD46BDE8B08380B483B000AF70
S31508005C90EFF310833B603B687B6072B600BF7B689E
S31508005CA018460C37BD465DF8047B704780B485B04E
S31508005CB000AF78607B68FB60FB6883F3108800BFE1
S31508005CC000BF1437BD465DF8047B704780B582B0C7
S31508005CD000AF0346FB80FB881846FEF745F8FB88AD
S31508005CE01846FEF7BDF800BF0837BD4680BD80B42C
S31508005CF083B000AF78600B46FB70FB78002B06D0AC
S31508005D007B685B6843F480727B685A6005E07B6851
S31508005D105B6823F480727B685A6000BF0C37BD4607
S31508005D205DF8047B704780B483B000AF78607B6809
S31508005D30002B01D1002301E042F6AF7318460C3759
S31508005D40BD465DF8047B704780B584B000AF7860C7
S31508005D50396039687868FEF7B9FB0346FB81FB8929
S31508005D60002B01D0FB8906E07B68BB603B689A7B09
S31508005D70BB681A70002318461037BD4680BD80B42C
S31508005D8085B000AFF860B9607A60FA68BB681A40F7
S31508005D907B6822FA03F318461437BD465DF8047B80
S31508005DA070472DE9B04F84B000AF786044F6180309
S31508005DB0FB60FEF731FE0346002B16D0FB6803F5A1
S31508005DC004532433FB60FB6800229A4693464FF03F
S31508005DD000024FF000035346002242F0AA6444F43E
S31508005DE0AA2444F46C741D461FE07868FEF7E4FDA7
S31508005DF0012200211E20FEF7EFFDFB6803F5045380
S31508005E002433FB60FB680022984691464FF0000257
S31508005E104FF000034346002242F0AA6444F4A52446
S31508005E2044F4C06444F007041D4622462B46104637
S31508005E3019461037BD46BDE8B08F08B5FBF762FABC
S31508005E4008BD08B5FBF75EFA08BD08B5FBF75AFAB0
S31508005E5008BD08B5FBF756FA08BD08B5FBF752FAB0
S31508005E6008BD08B5FBF74EFA08BD08B5FBF74AFAB0
S31508005E7008BD08B5FBF746FA08BD08B5FBF742FAB0
S31508005E8008BD08B5FBF73EFA08BD08B5FBF73AFAB0
S31508005E9008BD08B5FBF736FA08BD08B5FBF732FAB0
S31508005EA008BD08B5FBF72EFA08BD08B5FCF770FF64
S31508005EB008BD08B5FCF79AFF08BD08B5FCF7C4FF8E
S31508005EC008BD08B5FCF7EEFF08BD08B5FBF71AFADA
S31508005ED008BD08B5FBF716FA08BD08B5FDF710F8B2
S31508005EE008BD08B5FBF70EFA08BD08B5FBF70AFAB0
S31508005EF008BD08B5FBF706FA08BD08B5FBF702FAB0
S31508005F0008BD08B5FBF7FEF908BD08B5FBF7FAF9B1
S31508005F1008BD08B5FBF7F6F908BD08B5FBF7F2F9B1
S31508005F2008BD08B5FBF7EEF908BD08B5FBF7EAF9B1
S31508005F3008BD08B5FBF7E6F908BD08B5FBF7E2F9B1
S31508005F4008BD08B5FBF7DEF908BD08B5FBF7DAF9B1
S31508005F5008BD08B5FBF7D6F908BD08B5FBF7D2F9B1
S31508005F6008BD08B5FBF7CEF908BD08B5FBF7CAF9B1
S31508005F7008BD08B5FBF7C6F908BD08B5FBF7C2F9B1
S31508005F8008BD08B5FBF7BEF908BD08B5FCF7E6FF7E
S31508005F9008BD08B5FBF7B6F908BD08B5FBF7B2F9B1
S31508005FA008BD08B5FBF7AEF908BD08B5FBF7AAF9B1
S31508005FB008BD08B5FBF7A6F908BD08B5FBF7A2F9B1
S31508005FC008BD08B5FBF79EF908BD08B5FBF79AF9B1
S31508005FD008BD08B5FBF796F908BD08B5FBF792F9B1
S31508005FE008BD08B5FBF78EF908BD08B5FBF78AF9B1
S31508005FF008BD08B5FBF786F908BD08B5FBF782F9B1
S3150800600008BD08B5FBF77EF908BD08B5FBF77AF9B0
S3150800601008BD08B5FBF776F908BD08B5FBF772F9B0
S3150800602008BD08B5FBF76EF908BD08B5FDF786FB90
S3150800603008BD08B5FBF766F908BD08B5FBF762F9B0
S3150800604008BD08B5FBF75EF908BD08B5FBF75AF9B0
S3150800605008BD08B5FBF756F908BD08B5FBF752F9B0
S3150800606008BD08B5FBF74EF908BD08B5FBF74AF9B0
S3150800607008BD08B5FBF746F908BD08B5FBF742F9B0
S3150800608008BD08B5FBF73EF908BD08B5FBF73AF9B0
S3150800609008BD08B5FBF736F908BD08B5FBF732F9B0
S315080060A008BD08B5FBF72EF908BD08B5FBF72AF9B0
S315080060B008BD08B5FBF726F908BD08B5FBF722F9B0
S315080060C008BD08B5FBF71EF908BD08B5FBF71AF9B0
S315080060D008BD08B5FBF716F908BD08B5FBF712F9B0
S315080060E008BD08B5FBF70EF908BD08B5FBF70AF9B0
S315080060F008BD08B5FBF706F908BD08B5FBF702F9B0
S3150800610008BD08B5FBF7FEF808BD08B5FBF7FAF8B1
S3150800611008BD08B5FBF7F6F808BD08B5FBF7F2F8B1
S3150800612008BD08B5FBF7EEF808BD08B5FBF7EAF8B1
S3150800613008BD08B5FBF7E6F808BD08B5FBF7E2F8B1
S3150800614008BD08B5FBF7DEF808BD08B5FBF7DAF8B1
S3150800615008BD08B5FBF7D6F808BD08B5FBF7D2F8B1
S3150800616008BD08B5FBF7CEF808BD08B5FBF7CAF8B1
S3150800617008BD08B5FBF7C6F808BD08B5FBF7C2F8B1
S3150800618008BD08B5FBF7BEF808BD08B5FBF7BAF8B1
S3150800619008BD08B5FBF7B6F808BD08B5FBF7B2F8B1
S315080061A008BD08B5FBF7AEF808BD08B5FBF7AAF8B1
S315080061B008BD08B5FBF7A6F808BD08B5FBF7A2F8B1
S315080061C008BD08B5FBF79EF808BD08B5FBF79AF8B1
S315080061D008BD08B5FBF796F808BD08B5FBF792F8B1
S315080061E008BD08B5FBF78EF808BD08B5FBF78AF8B1
S315080061F008BD08B5FBF786F808BD08B5FBF782F8B1
S3150800620008BD08B5FBF77EF808BD08B5FBF77AF8B0
S3150800621008BD08B5FBF776F808BD08B5FBF772F8B0
S3150800622008BD08B5FBF76EF808BD08B5FBF76AF8B0
S3150800623008BD08B5FBF766F808BD08B5FBF762F8B0
S3150800624008BD80B500AFFFF745F80346184680BD80
S3150800625080B500AFFFF7B4F803461B09184680BDA2
S3150800626080B400AF00BFBD465DF8047B704708B533
S31508006270FFF774F9BDE80840FBF780BB00F00DBADC
S31508006280A8B14FF0805340F80C3C50F8042C72B17A
S315080062901368B3F1805F0AD150F8083C516803339C
S315080062A00B4440F8083C936840F8043CEDE7704717
S315080062B070B5C468A50708D0B2F5007F11D0B2F54D
S315080062C0806F04D0B2F5807F0BD0012008E001234F
S315080062D000F12401144301610160C361C460002018
S315080062E070BD6FF07F455E1EAE42F3D3EDE740EA20
S315080062F001039B0710B513D10246043951F8043F30
S31508006300A3F1013424EA030414F0803F05D0D9B27E
S3150800631002F8011B59B11B12F9E742F8043BEDE7F5
S31508006320421E11F8013B02F8013F002BF9D110BDBE
S31508006330034610B59A071C4615D1234654F8042B74
S31508006340A2F1013121EA020111F0803FF5D0D1B264
S3150800635099B112F47F4F0ED012F47F0F14BF234663
S315080063600333013003E01A4612F8011B09B9181A5B
S3150800637010BD1346DEE70233F3E70133F1E7C368DE
S3150800638010B523F020038269C360836A04469A42E3
S315080063900ED000F048F8E36823F4405323F01003C6
S315080063A043F01003E360A36AA3612369E3622360F1
S315080063B0E36823F4804323F04003E36010BD70B51F
S315080063C00D4606461046144600F056F82B78722BF2
S315080063D017D0772B18D0612B23D1082348F2020255
S315080063E015F8011F2B2912D0622915D01B07E26068
S315080063F0666104D5022200212046FFF73FF92046B0
S3150800640070BD00230122EBE704230222E8E742F0ED
S31508006410030243F00203E3E742F0040243F00103F8
S31508006420DEE70024EBE738B50446C368056901686A
S31508006430C26A23F40020E06003F08200022802D03A
S315080064404FF0FF3038BDDB030CD5914238BF1146FB
S315080064508D4209D10023A360E368E56223F4803303
S315080064602560E3600020EDE722462846491BFFF732
S31508006470B1F80028EED0E3E7F0B5D0E90467C468C0
S315080064800546A10789B020D0220716D4FFF7D8F809
S31508006490384600F01BF9230502D53046FFF7F0FE13
S315080064A0A40DA40514F1A54F07D120226846296A30
S315080064B000F01BF9684600F00BF83C22002128463C
S315080064C0FFF7DCFE002009B0F0BD4FF0FF30FAE719
S315080064D010B50446FFF72CFF01462046BDE81040DC
S315080064E000F0FDB8C36870B513F00306044611D072
